:020000040800F2
:10000000000400208D7500086B3A00086B3A000868
:100010006B3A00086B3A00086B3A00086B3A00082C
:100020006B3A00086B3A00086B3A000893590008D5
:100030006B3A00086B3A00086B3A00086B3A00080C
:100040006B3A00086B3A00086B3A00086B3A0008FC
:100050006B3A00086B3A00080D6B00083B6B000818
:10006000696B0008976B0008C56B0008956800086D
:10007000A7680008B9680008CB680008DD680008B8
:10008000EF680008016900086B3A00086B3A000845
:100090006B3A00086B3A00086B3A0008F36B0008F3
:1000A0006B3A0008516100086B3A00086B3A00088F
:1000B000514C0008634C0008754C00086B3A00086E
:1000C0006B3A00086B3A00086B3A00086B3A00087C
:1000D0006B3A0008176800086B3A00086B3A000892
:1000E000696C00086B3A00086B3A00086B3A00082C
:1000F000636100086B3A00086B3A00086B3A00082D
:100100006B3A00086B3A00089D4800086B3A0008FB
:100110006B3A00086B3A00086B3A00086B3A00082B
:100120001369000825690008376900084969000853
:100130006B3A00086B3A00086B3A00086B3A00080B
:100140006B3A00086B3A00086B3A00086B3A0008FB
:100150006B3A00086B3A00086B3A00086B3A0008EB
:100160006B3A00086B3A00086B3A00086B3A0008DB
:100170006B3A00086B3A00086B3A00086B3A0008CB
:10018000081A80B27047BFF34F8FDFF87C1D0A68F2
:1001900012F4E062DFF8B80D02430A60BFF34F8F3C
:1001A00000BFFDE780B501F055FC02BD72B6704797
:1001B00080B5202080F3118801F07DFC01BD80B561
:1001C00001F07EFC002080F3118801BD80B5202065
:1001D00080F3118801F079FC01BD80B501F07AFC53
:1001E000002080F3118801BD0021C160704780B5F7
:1001F000FFF7D8FF02BD10B50400FFF7F8FF0100BC
:1002000089B2200080B2FFF7BBFF10BDC068002894
:1002100001D0012000E00020C0B2704710B50400FA
:100220002000FFF7F3FF002802D0200001F0E3FCDC
:1002300010BD10B50400FFF7BBFF2000FFF7EEFF75
:10024000FFF7BDFF10BDF8B504000D0016001F003C
:100250002000FFF7E3FF3B0032002900200001F0FF
:100260006CFCF1BDF8B504000D0016001F00FFF78F
:100270009FFF3B00320029002000FFF7E4FFFFF75B
:100280009EFFF1BDDFF8180D8069704780B5FFF75C
:10029000F9FF90F82100C0B2800810F0010002BD03
:1002A00038B5002001F014FFC0B2CC2800F0E38084
:1002B00001214FF4805001F053FF012141F2010070
:1002C00001F04EFF2721052001F03BFF32210620DF
:1002D00001F037FF4FF4FA6141F2020001F040FFF4
:1002E0000221072001F02DFF9FEDBF0A46F2010019
:1002F00001F046FF0421082001F023FF4FF44041A4
:1003000041F21D0001F02CFF4FF4FA7141F21E0082
:1003100001F026FF002141F2070001F021FF1E211C
:1003200041F2080001F01CFFAA2141F2090001F08E
:1003300017FFC82141F20A0001F012FF4FF4487183
:1003400041F2030001F00CFF40F6282141F20400C5
:1003500001F006FF4FF4616141F2050001F000FF7A
:100360004FF47A6141F2060001F0FAFE9FED9F0A18
:100370004FF4C04001F004FF4FF4FA7141F20B005A
:1003800001F0EEFE40F2DC5141F20C0001F0E8FE1B
:10039000C82141F20D0001F0E3FE40F6E4442100E3
:1003A00041F20E0001F0DCFE40F6D865290041F272
:1003B0000F0001F0D5FE4FF47A6141F2100001F018
:1003C000CFFE7D2141F2110001F0CAFEFA2141F277
:1003D000120001F0C5FE4FF4967141F2130001F0D6
:1003E000BFFE4FF4FA7141F2140001F0B9FEC821CA
:1003F00041F2150001F0B4FE210041F2160001F0B7
:10040000AFFE290041F2170001F0AAFE4FF47A6115
:1004100041F2180001F0A4FE7D2141F2190001F023
:100420009FFEFA2141F21A0001F09AFE4FF49671F4
:1004300041F21B0001F094FE4FF4FA7141F21C00EE
:1004400001F08EFE41F2883141F21F0001F088FE7A
:1004500041F2EC314FF4815001F082FECC210020BA
:1004600001F06FFE002001F017FD012001F014FDE6
:10047000062001F011FD31BD30B40200002000243F
:1004800003E013781818521C641C23000D00DBB223
:10049000EDB2AB42F5D3C0B230BC70477047704785
:1004A00070B5FFF793FEDFF8840C016891F040010E
:1004B000016041F21E0001F01DFE06000023DFF87E
:1004C000702C14001D00B6B24FF4FA6240F2E7300F
:1004D0000021E2FB06014FF47A72002301F090FF45
:1004E00002000B0011002B002200DFF8380DFFF78F
:1004F000AAFEFFF772FE70BD10B40020002112E0CA
:10050000DFF8242D0B00DBB252F833309B680C006F
:10051000E4B202EBC4025268D340DA0702D40122EB
:100520008A401043491C0A00D2B20A2AE8DB80B292
:1005300010BC70471CB5684600210160002115E021
:10054000DFF8E83CBDF800200800C0B233F8200016
:100550008218ADF800206A4654880800C0B24000F6
:1005600003EB4000408804195480491C0800C0B2C5
:100570000828E5DBBDF80000082190FBF1F0ADF89C
:10058000000068464188082291FBF2F14180DFF8C3
:10059000A04CBDF80010E184418841F6C8104143E9
:1005A00009132186208E10F51670208641F21F0057
:1005B00001F0A0FD218E80B2814204D28020DFF8BC
:1005C000741C08600BE04FF4815001F093FD218E04
:1005D00080B2884203D28020DFF85C1C0860FFF7FD
:1005E0008BFFA08413BD000000C064441CC7B14051
:1005F0002DE9F84F2DED028B82B004000D00002094
:1006000041F288373800052001F062FD06009FEDB9
:10061000890AB00740F11081200080B2002800F064
:10062000F38041F21509484601F064FD290009B242
:10063000814205DA41F2190001F05CFD8046E5E0F7
:1006400041F21608404601F055FD290009B28142E9
:1006500040DA41F21A0001F04DFD834641F2190AD9
:100660001FFA8BFB504601F045FDBBEB000B00EE83
:1006700010BAB8EEC08A404601F03CFD80461FFA31
:1006800088F8484601F036FDB8EB000800EE108A05
:10069000B8EEC00A88EE008AA8460FFA88F84846E5
:1006A00001F028FDB8EB000800EE108AB8EEC00A91
:1006B00020EE088A504601F01DFD00EE100AB8EE4B
:1006C000400A30EE080ABDEEC00A10EE108A1FFA8A
:1006D00088F89BE041F21709484601F00BFD29001C
:1006E00009B2814240DA41F21B0001F003FD83466A
:1006F00041F21A0A1FFA8BFB504601F0FBFCBBEBE0
:10070000000B00EE10BAB8EEC08A484601F0F2FCC9
:1007100081461FFA89F9404601F0ECFCB9EB00096B
:1007200000EE109AB8EEC00A88EE008AA9460FFAC9
:1007300089F9404601F0DEFCB9EB000900EE109AA1
:10074000B8EEC00A20EE088A504601F0D3FC00EE55
:10075000100AB8EE400A30EE080ABDEEC00A10EEEC
:10076000108A1FFA88F851E041F2180A504601F049
:10077000C1FC290009B2814240DA41F21C0001F0BB
:10078000B9FC834641F21B081FFA8BFB404601F07F
:10079000B1FCBBEB000B00EE10BAB8EEC08A5046BD
:1007A00001F0A8FC82461FFA8AFA484601F0A2FC32
:1007B000BAEB000A00EE10AAB8EEC00A88EE008A72
:1007C000AA460FFA8AFA484601F094FCBAEB000AEE
:1007D00000EE10AAB8EEC00A20EE088A404601F0EA
:1007E00089FC00EE100AB8EE400A30EE080ABDEEB1
:1007F000C00A10EE108A1FFA88F807E041F21C00C8
:1008000001F078FC804601E05FF09608B8F1960FA1
:1008100001D25FF09608B7EB080842460321DFF8E3
:10082000800C01F04AFF414642F2010001F0C4FD94
:1008300021E000BF00000000280000B240F2F511E6
:1008400088420FDB200080B200280BD0DFF8541C58
:100850000122C86C8240886C0261280000B201F05D
:10086000DEFF08E0DFF83C1C0122C86C8240886C87
:10087000426102F081F8700740F10182200080B2ED
:10088000002818D0E00507D5DFF8181C0122486CB5
:100890008240086C026106E0DFF8081C0122486C07
:1008A0008240086C4261DFF8FC1B0122C86C824068
:1008B000886C02610BE00122DFF8E81B486C12FA39
:1008C00000F00B6C5861C86C8240886C42616846CD
:1008D0000021016000201CE00122C0B2410012FA98
:1008E00001F189B2214204D001216B460600F6B223
:1008F00099550100C9B24900491C12FA01F189B2A7
:10090000214205D05FF0FF316A460300DBB2D154CB
:10091000401C0100C9B20429DEDB41F20D063000A3
:1009200001F0E8FB290009B2814205DA41F2110029
:1009300001F0E0FB0400CAE041F20E04200001F0E7
:10094000D9FB290009B2814238DA41F2120001F0E4
:10095000D1FB070041F21108BFB2404601F0CAFBCB
:100960003F1A00EE107AB8EEC08A200001F0C2FBF8
:100970000400A4B2300001F0BDFB241A00EE104ABE
:10098000B8EEC00A88EE008A2DB2300001F0B2FB4A
:100990002D1A00EE105AB8EEC00A20EE088A404622
:1009A00001F0A8FB00EE100AB8EE400A30EE080A8B
:1009B000BDEEC00A10EE104AA4B288E041F20F0664
:1009C000300001F097FB290009B2814238DA41F288
:1009D000130001F08FFB070041F21208BFB240463E
:1009E00001F088FB3F1A00EE107AB8EEC08A3000A2
:1009F00001F080FB0600B6B2200001F07BFB361A46
:100A000000EE106AB8EEC00A88EE008A2DB220000F
:100A100001F070FB2D1A00EE105AB8EEC00A20EE5D
:100A2000088A404601F066FB00EE100AB8EE400A64
:100A300030EE080ABDEEC00A10EE104AA4B246E03D
:100A400041F21004200001F055FB290009B2814257
:100A500038DA41F2140001F04DFB070041F21308AF
:100A6000BFB2404601F046FB3F1A00EE107AB8EEE6
:100A7000C08A200001F03EFB0400A4B2300001F067
:100A800039FB241A00EE104AB8EEC00A88EE008A3C
:100A90002DB2300001F02EFB2D1A00EE105AB8EEE8
:100AA000C00A20EE088A404601F024FB00EE100A3E
:100AB000B8EE400A30EE080ABDEEC00A10EE104A49
:100AC000A4B204E041F2140001F014FB0400210080
:100AD0004FF4005001F070FC002129E00800C0B282
:100AE00018560B00DBB2134493F9293098421ED0FC
:100AF00000200B00DBB21A4482F8290017E0DFF86F
:100B000030270800C0B2104490F92900002805D011
:100B10006B460800C0B218560028DFD168460B00AB
:100B2000DBB2C05C0B00DBB21A4482F82900491C1E
:100B30000800C0B20428E2DBDFF8F45695F929007A
:100B400000280CD1DFF8C46B00220021300001F036
:100B5000B4FD00220121300001F0AFFD15E095F950
:100B60002900012806D122000021DFF8A00B01F0A6
:100B7000A4FD0AE095F9290010F1010F05D122002A
:100B80000121DFF8880B01F098FD95F92A00002873
:100B90000CD1DFF8786B00220221300001F08DFDCE
:100BA00000220321300001F088FD15E095F92A00AC
:100BB000012806D122000221DFF8500B01F07DFD53
:100BC0000AE095F92A0010F1010F05D12200032156
:100BD000DFF8380B01F071FD95F92B0000280CD1DE
:100BE000DFF82C6B00220321300001F066FD0022AB
:100BF0000221300001F061FD15E095F92B0001287C
:100C000006D122000321DFF8080B01F056FD0AE0AF
:100C100095F92B0010F1010F05D122000221DFF818
:100C2000F00A01F04AFD95F92C00002810D1DFF8F8
:100C3000E04A00220121200001F03FFD00220021B6
:100C4000200001F03AFD02B0BDEC028BBDE8F18F4F
:100C500095F92C00012806D122000121DFF8B00A05
:100C600001F02BFDEFE795F92C0010F1010FEAD10F
:100C700022000021DFF8980A01F01FFDE3E70021C0
:100C80000DE0DFF820380800C0B203EBC000406878
:100C900082400800C0B253F830000261491C0800CD
:100CA000C0B20828CFDA012212FA01F080B2204245
:100CB000E7D1DFF8F0370800C0B203EBC0004068AE
:100CC00082400800C0B253F830004261E6E738B510
:100CD000DFF85C0590F82E10C90646D5DFF8804C89
:100CE00002220121200001F06EFF052202212000D6
:100CF00001F069FF05220421200001F064FF0024B7
:100D000010E0DFF82435032201212000C0B203EBFC
:100D1000C000406881402000C0B253F8300001F0AC
:100D200052FF641C2000C0B20A28EADBDFF8080585
:100D30004021016080210160DFF8285C0124072246
:100D4000696814FA01F1286801F03DFF0622E9689C
:100D500014FA01F1A86801F036FF062268698440A0
:100D60002100286901F02FFFCDE090F82E108906B0
:100D700040F1C98090F82E2012F0010290F82E1058
:100D800011F0020190F82E4014F00404D2B2012AAE
:100D900040F0B380C9B2022906D110220821DFF841
:100DA000C00B01F010FF11E0DFF8BC5B072240210F
:100DB000280001F008FF07228021280001F003FF2E
:100DC00007224FF48071280001F0FDFEE4B2042CEC
:100DD00049D1DFF8D05601241022696814FA01F1D4
:100DE000286801F0F0FE1022E96814FA01F1A86801
:100DF00001F0E9FE1022696914FA01F1286901F095
:100E0000E2FE1022E96914FA01F1A86901F0DBFEA3
:100E10001022696A14FA01F1286A01F0D4FE102246
:100E2000E96A14FA01F1A86A01F0CDFE1022696B9B
:100E300014FA01F1286B01F0C6FE1022E96B14FAD6
:100E400001F1A86B01F0BFFE0622696C14FA01F1F2
:100E5000286C01F0B8FE0622E86C84402100A86CE2
:100E600001F0B1FE4FE0DFF83C560124062269682C
:100E700014FA01F1286801F0A6FE0622E96814FAC6
:100E800001F1A86801F09FFE0622696914FA01F1D8
:100E9000286901F098FE0622E96914FA01F1A869AF
:100EA00001F091FE0622696A14FA01F1286A01F044
:100EB0008AFE0622E96A14FA01F1A86A01F083FEAB
:100EC0000622696B14FA01F1286B01F07CFE062200
:100ED000E96B14FA01F1A86B01F075FE0622696C4A
:100EE00014FA01F1286C01F06EFE0622E86C8440D1
:100EF0002100A86C01F067FE05E007224021DFF821
:100F0000680A01F060FE31BD0CED00E080B5C84814
:100F100090F82E10C9060DD590F82E10C90702D5ED
:100F200000F0C2FA13E090F82E0080070FD500F011
:100F3000BBFA0CE090F82E10890608D590F82E0028
:100F4000C00702D500F0E8FB01E000F0E5FB01BDC1
:100F50000400FA0530B591B000240020ADF800007F
:100F60000020ADF8020001A814E0B14D4FF480500C
:100F700001F0F3F9A88441F2010001F0EEF9E884F0
:100F8000B5F92600010009B2A88CFFF731FB6420F7
:100F900001F0C9FF2000C0B20028E6D011B030BD7A
:100FA00010230020F8B5A24C2069002840F097805B
:100FB00094F82E00400717D5DFF8B019DFF84C077A
:100FC00001F059FBDFF8A819DFF8440701F053FBE3
:100FD000002084F82900002084F82A00002084F8EA
:100FE0002B00002084F82C0094F82E00800706D5F2
:100FF000DFF88019DFF8A80401F03DFB63E000256D
:1010000047E02800C0B200F58050C01C80B201F05B
:1010100071F82900C9B204EB810188862800C0B2AA
:1010200000F58050C01D80B201F064F82900C9B2FB
:1010300004EB8101C88606262800C0B2704304EB89
:1010400000072800C0B210F5804080B201F02DF8F2
:10105000A7F844002800C0B2704304EB0007280042
:10106000C0B200F58040001D80B201F01EF8A7F864
:1010700046002800C0B206FB00F626442800C0B295
:1010800000F58040083080B201F00FF8A6F8480063
:101090006D1C2800C0B20428B3DB4FF4C04001F03F
:1010A0003DF884ED170A41F20B0001F023F8A4F893
:1010B000620041F20C0001F01DF8A4F8600014F188
:1010C000340002F07DF800200090DFF8AC387F2279
:1010D0004FF45C71DFF8A40801F073FE2061F1BDEC
:1010E00010B5534C206900281ED0E06801F00EFFB7
:1010F000E06801F0F2FE0020E06094F82E00800627
:1011000012D594F82E00400707D5DFF8000601F04D
:10111000C4FADFF8FC0501F0C0FA94F82E0080074D
:1011200002D5DF4801F0B9FA10BD00000C100140F3
:10113000A104000818B591B000240020ADF800000B
:101140000020ADF8020001A846E001AC2300002217
:10115000FF21002001F024F8044423004FF48052C2
:10116000FF21002001F01CF80444230041F2010299
:10117000FF21002001F014F80444230041F2020290
:10118000FF21002001F00CF8044423004FF400522A
:10119000FF21002001F004F80444230042F2010280
:1011A000FF21002000F0FCFF044423004FF4A04284
:1011B000FF21002000F0F4FF20444421684602F0A3
:1011C000D9F9BDF80000401CADF80000FFF75EF84B
:1011D0000400C82001F0A7FEE4B2002CB5D012B084
:1011E00010BD1CB5124CE06800280BD10020009007
:1011F000DFF88C377F224FF45C71DFF8880701F04D
:10120000E0FDE06013BD10B5094CE068002807D090
:10121000E06801F07BFEE06801F05FFE0020E06026
:1012200010BD0000F8290020FC040020D82900206F
:10123000302900201010014014100140F8B502F0D0
:10124000D8F902F077FADFF84007016851F0007131
:10125000016003224FF40071DFF80C0701F0B3FCCA
:101260000026DFF828070068C0F34020002805D1D9
:101270000120DFF8A01481F82D0004E00020DFF841
:10128000941481F82D0000F0D6FDFFF709F8DFF87F
:101290008444052000F01CFF84F82E00FFF717FDA2
:1012A00001F0F1FF94F82E0010F0300F12D0002062
:1012B0000090DFF8DC3680224FF45C71DFF8D40652
:1012C00001F07FFDFEF774FF14F1140001F035FE0C
:1012D000FEF775FFFEF78BFF0700002094F82E0045
:1012E000800601D5FFF75EFE94F82E00C00640F19F
:1012F00087800820DFF8A016086081E064215FF095
:10130000FF3002F0B1FA0500680702D5FF2000F0B7
:10131000C3FD94F82E00C0060ED5FFF70BF9A80503
:101320000AD594F82D00002806D10126DFF86C06B6
:10133000402101608021016094F82E0080065AD57A
:10134000A80602D5FEF753FF0700680624D538002B
:1013500080B2FEF750FF02004FF47A7340F2CF7074
:101360000021E3FB02014FF4FA62002301F048F888
:1013700080B240F2E93188420EDB012000F0DCFF50
:10138000002809D100214FF4805001F006F8002117
:1013900041F2010001F001F8280624D5380080B29E
:1013A000FEF729FF02004FF47A7340F2CF7000215C
:1013B000E3FB02014FF4FA62002301F021F880B24E
:1013C00040F2E93188420EDB012000F0B5FF002831
:1013D00009D100214FF4805000F0DFFF002141F2DD
:1013E000010000F0DAFFE80701D5FFF7FAFEA807D1
:1013F00001D5FFF708FFFEF749FF002800D00126BE
:101400003000C0B200283FF479AFFFF769FE94F8CE
:101410002E00C00642D50820DFF8841508600120A0
:10142000DFF8801508600120DFF87C1508600120D6
:10143000DFF8781508600120DFF8741508600120D6
:10144000DFF870150860DFF8700501680905090DFF
:10145000016001680160DFF86405016851F00C016A
:101460000160016831F0E0010160016851F00201A2
:101470000160DFF84C05016851F480710160DFF80C
:101480004405016851F004010160FEF78FFE72B659
:1014900040BF20BF20BF62B6FEF775FE0020F2BD40
:1014A000103D0020AC0400202DE9F0472DED028B0B
:1014B00082B0DFF81455A846964CDFF8100502F00C
:1014C00031FA6060DFF808650021300002F070FA40
:1014D0000823DFF80025DFF80015300002F076FA67
:1014E000B06A8068B16A8860082000F0F1FD287257
:1014F000072000F0EDFD687246F2010000F00EFEDC
:10150000B0EE408A4FF4805000F0F4FD81465FF069
:10151000200A18EE100A02F073FA06000F0099FB79
:10152000FAF00AFB1099484602F08EFA0022DFF822
:10153000AC3402F09BFA32003B0002F069FB02F08F
:1015400025FCE86041F20106300000F0D3FD68811F
:10155000DFF88C14280003F01FF8DFF8889419F1E5
:101560000100019041F21D0000F0C4FD01990880C6
:101570000020019948804FF4805000F0BBFD019994
:101580008880300000F0B6FD0199C880092101A8CB
:10159000FEF772FF019948720A20401C89F800008A
:1015A0000025FEF724FE0026DFF83CA45046FEF797
:1015B0001BFE0023DFF834244FF47A715046FEF707
:1015C00051FEFEF714FE0700002114F1140001F093
:1015D000E9FC7FE0380080B2FEF70DFE02004FF418
:1015E0007A7340F2CF700021E3FB02014FF4FA62FC
:1015F000002300F005FF060025E00921404603F026
:10160000A4F800208DF8000094F82E008007E1D5A2
:10161000A08C002814D1FEF7EAFD380080B2FEF756
:10162000EAFD02004FF47A7340F2CF700021E3FB31
:1016300002014FF4FA62002300F0E2FE060002E02D
:10164000FEF7D5FD070041F2020000F053FD310026
:1016500089B2884204D294F82D00002800D10125D7
:10166000A08C01990880E08C01994880092101989B
:10167000FEF702FF0199487201236A46492140465C
:1016800003F028F899F800309BB24A4611214046F1
:1016900003F020F80E21404603F057F8062000F032
:1016A00017FD0200D2B24FF4FA6340F2E730002196
:1016B000E3FB02014FF47A72002300F0A1FE01F077
:1016C00032FCFEF7E3FD002804D094F82D0000283A
:1016D00000D101252800C0B200288ED00D2140463F
:1016E00003F033F80A21404603F02FF85046FEF786
:1016F000A0FD4FF40071606802F075F8002001F061
:10170000C0FB02B0BDEC028BBDE8F0872C3D002091
:10171000483D0020302900202DE9F0472DED028BB7
:1017200092B0A94C2500B24EA84802F0FBF87060B8
:10173000082000F0CDFC2072072000F0C9FC607288
:1017400046F2010000F0EAFCB0EE408A4FF480500F
:1017500000F0D0FC07005FF0200A18EE100A02F03B
:101760004FF98046894697FBFAF00AFB107738005C
:1017700002F06AF90022994B02F078F942464B4692
:1017800002F046FA02F002FBE06041F20108404636
:1017900000F0B0FC60819249200002F0FDFE91490A
:1017A000481C0A200022401C08705FF00009FEF768
:1017B0001EFD070000200020B077002116F1140064
:1017C00001F0F0FB2DE0380080B2FEF714FD0200BE
:1017D0004FF47A7340F2CF700021E3FB02014FF423
:1017E000FA62002300F00CFE80B240F2F51188424C
:1017F00014DB8021706801F0F6FF0020B0778921AA
:10180000280002F0A2FF8E21280002F09EFF05E0D2
:101810004021706801F0E7FF0020B077282001F038
:1018200082FB4846C0B2002840F08180FEF7DFFC12
:10183000B07F002802D0012819D0EFE70C2120004A
:1018400002F083FF8921280002F07FFF8E2128000B
:1018500002F07BFF0221280002F0D1FAB07F401C89
:10186000B07700203084FEF7C2FC0700D6E72000E6
:1018700002F05FFE8DF800009DF8000010F0120FDE
:10188000A1D0200002F0BCFD0100C9B2002000F090
:1018900076FD01236A46D021200002F0CFFE9DF89C
:1018A00000000028B8D09DF8003001AA9121200046
:1018B00002F0C4FE8921280002F047FF8E21280093
:1018C00002F043FF01A80178491E017001780A293E
:1018D000A2D110F1010A09215046FEF7CDFD9AF878
:1018E0000910C0B2884293D14FF4805000F002FC3E
:1018F000BAF8061080B281428ED1BAF80000708327
:101900000020B08300203084BAF800104FF48050DB
:1019100000F043FDBAF80210404600F03EFD2021E1
:10192000706801F060FF002086F8280074E70D2140
:10193000280002F00AFF0A21280002F006FF2A48C8
:10194000FEF777FC4FF40071706801F04CFF002047
:1019500001F097FA12B0BDEC028BBDE8F0870000F1
:10196000000801404C050020001001403404002014
:101970006804002000040020550F0008C00A002061
:1019800035110008300E002004000140081001400D
:101990000D0F0008500700201408014014100140EA
:1019A00010080140140401400004014004040140F7
:1019B0000C04014008040140080001400070004090
:1019C0000470004010ED00E0D028002004780008EA
:1019D0003C3C0020D8290020EC7600080000E03FC5
:1019E0009C04002094290020F8290020A10400086C
:1019F000302900200A48006880B2704780B2094947
:101A00000860002008490860022008490860704703
:101A1000002006490860704780B20249086070479C
:101A2000240C0040340C0040100C00400C0C004012
:101A300080B502F03BFF01BD80B580B2FFF7DEFF4D
:101A400001BD80B5FFF7E4FF01BD80B580B2FFF7AF
:101A5000E3FF01BD80B5FFF7CDFF02BD10B5204CFF
:101A60000020C4F898000020C4F89C0014F1A000E5
:101A700002F0A4FF14F1B80002F0A0FF10BD202076
:101A800080F311881648D0F89810491CC0F89810B7
:101A9000002080F31188704780B50A001049D1F802
:101AA0009C305B1CC1F89C3010F1480112F14800D9
:101AB00002F09FFF01BD80B50A4802F08DFF01BD15
:101AC00080B5084802F08CFF01BD80B5064802F0E1
:101AD00083FF01BD80B5044802F082FF01BD000014
:101AE00010230020B0230020C8230020081880B253
:101AF0007047081A80B2704780B580B2FFF79CFF2C
:101B000001BD80B5FFF79DFF01BD80B580B2FFF735
:101B10009CFF01BD80B5FFF79DFF02BD80B5FFF7BB
:101B2000F9FF02BD5A4810F11C01C16101625FF06A
:101B3000FF3141620021018570472DE9F041040029
:101B40000D002361E260FFF7E9FF8046022D00D21D
:101B500002254F4E16F11C00F169884213D1A6F8F8
:101B60002880F461346220606060A560B5F5803F34
:101B700001D34FF6FF752900308DFFF7B7FF80B214
:101B8000FFF7BAFF35E0F769414689B2308DFFF7BC
:101B9000B0FF2D18414689B2308DFFF7AAFF85426C
:101BA00003D2B8682D1A3F6812E0B86885420FD298
:101BB0002900B1F5803F01D34FF6FF71308DFFF75B
:101BC00095FF80B2FFF7A1FF02E0B8682D1A3F68C9
:101BD000B868A842F9D327602068406860606068F0
:101BE00004607C60A560B868451BBD605FF0FF3095
:101BF0007062BDE8F08110B5254CE169814213D0D7
:101C00000168426811604168026851600021C1604A
:101C100014F11C010268914205D001688A6881684C
:101C20008A180068826032E00168E16114F11C01E9
:101C3000E26951600022C260E269914202D1FFF77D
:101C400060FF24E0E169896880684118E06981608B
:101C5000FFF764FF010089B2208DFFF74AFFE169B9
:101C60008968884213D2E1698968091A022901D278
:101C7000801C05E04018B0F5803F01D34FF6FF709F
:101C80000100208DFFF732FF80B2FFF73EFF10BD4D
:101C900010230020C0B200280DD0022807D008D39E
:101CA000042805D006D3062806D006D205E004E0B5
:101CB00003E002E001E000E0FFE7704738B5040010
:101CC00000200020002500212100C9B2002937D0C2
:101CD000022910D022D3042917D028D3062938D0BE
:101CE00041D24FF48071DFF8F4060500002289B27A
:101CF00002F08CFE37E04FF48071DFF8E406050057
:101D0000002289B202F082FE2DE08021DFF8D406A5
:101D10000500002289B202F079FE24E08021DFF87C
:101D2000C8060500002289B202F070FE1BE04021C7
:101D3000DFF8B8060500002289B202F067FE12E063
:101D40004021DFF8AC060500002289B202F05EFEF9
:101D500009E04FF48071DFF89C060500002289B28B
:101D600002F054FEFFE7DFF890162200D2B201EB3A
:101D7000420250802022002002F0A2FE4FF4807226
:101D80002900E4B24FF4807044432034200080B234
:101D900002F096FE31BDF8B504000D0000260020CB
:101DA00000272000C0B200281ED002280BD013D379
:101DB00004280DD014D306281AD01ED24FF48076F2
:101DC000DFF8187619E04FF48076DFF8147614E027
:101DD0008026DFF8107610E08026DFF80C760CE025
:101DE0004026DFF8087608E04026DFF8047604E0B5
:101DF0004FF48076DFF8FC75FFE7320092B23900CD
:101E00002000C0B24FF480735843203002F04AFEE5
:101E10000022310089B2380002F0F8FDADB280B284
:101E2000854207D02000C0B2FFF734FF2000C0B2C7
:101E3000FFF744FFF1BD38B5DFF8BC452022210093
:101E4000002002F02FFE00202088AB280FD10025B3
:101E50002800C0B208281BDA2800C0B204EB4000FA
:101E600041882800C0B2FFF796FF6D1CF0E7AB2059
:101E70002080002508E02800C0B2FFF70BFF2800F3
:101E8000C0B2FFF71BFF6D1C2800C0B20828F2DBB0
:101E90000020A4F8200931BD10B50100C9B2FF2906
:101EA0000AD100242000C0B2082808DA2000C0B2FD
:101EB000FFF704FF641CF5E7C0B2FFF7FFFE002048
:101EC00010BD70B51C0000250B0000201605360D56
:101ED000C9B2FF2902D192B2120B1300DBB2002B60
:101EE00009D0022B18D00ED3042B26D01DD3062BDD
:101EF00034D02BD33BE00125DFF8FC04B6B23044EC
:101F000010F5587033E00225DFF8EC04B6B200EBB0
:101F1000460010F528702AE00425DFF8DC04B6B28C
:101F200000EB860010F5907021E00125DFF8C80471
:101F3000B6B2304410F5487019E00225DFF8B80455
:101F4000B6B200EB460010F5087010E00425DFF88B
:101F5000A804B6B200EB8600203008E00425DFF8C4
:101F60009804B6B200EB860010F56870FFE7290010
:101F700049B2012906DB2A0052B292B201002000C8
:101F800002F010FE280040B270BD70B55FF0FF3067
:101F900000240D0000261005000DC9B2FF2902D152
:101FA00092B2120B15002900C9B2002909D00229EA
:101FB00018D00ED3042926D01DD3062935D02BD313
:101FC0003CE00124DFF8301480B2084410F5587664
:101FD00034E00224DFF8201480B201EB400010F559
:101FE00028762BE00424DFF8101480B201EB800087
:101FF00010F5907622E00124DFF8FC1380B208444B
:1020000010F548761AE00224DFF8EC1380B201EBF9
:10201000400010F5087611E00424DFF8DC1380B2EC
:1020200001EB800010F1200608E00424DFF8C8135B
:1020300080B201EB800010F56876FFE7200040B227
:1020400001281ADB220052B292B21900300002F0CD
:10205000A9FDDFF8A8030078002804D02800C0B24A
:10206000FFF71AFF09E0DFF89003B0F8201901220A
:1020700012FA05F50D43A0F82059200040B270BDBA
:1020800010B500240CE0DFF87003B0F8200901213E
:10209000A140084203D02000C0B2FFF7FDFE641C3F
:1020A0002000C0B20728EEDB10BD0021010089B27C
:1020B000C1F3023104290AD1DFF83C1380B20005D4
:1020C000000D01EB4000B0F9200200B27047FEE7BE
:1020D0000021010089B2C1F30231002909D1DFF8E2
:1020E000181380B20005000D084490F86003C0B2D8
:1020F0007047FEE70021010089B2C1F302310129D6
:102100000AD1DFF8F41280B20005000D01EB4000A7
:10211000B0F8A00280B27047FEE700009FED850A8C
:10212000010089B2C1F30231062909D1DFF8C812D2
:1021300080B20005000D01EB800090EDE80A7047C9
:10214000FEE7020092B2C2F30232002A07D1DFF8A2
:10215000A82280B20005000D104480F8601370477B
:10216000020092B2C2F30232012A08D1DFF88822BB
:1021700080B20005000D02EB4000A0F8A0127047ED
:10218000010089B2C1F30231062908D1DFF86812D3
:1021900080B20005000D01EB800080EDE80A704779
:1021A00070B51C0000250B0000201605360DC9B2C5
:1021B000FF2902D192B2120B1300DBB2002B09D01F
:1021C000022B18D00ED3042B25D01DD3062B32D0D2
:1021D00029D338E00125DFF82002B6B2304410F5EB
:1021E000FC6030E00225DFF81002B6B200EB4600DA
:1021F00010F5E46027E00425DFF8FC01B6B200EB3F
:10220000860010F5B4601EE001257B48B6B230446C
:1022100010F5F46017E002257748B6B200EB4600EF
:1022200010F5D4600FE004257348B6B200EB8600C9
:1022300010F5946007E004256F48B6B200EB860005
:1022400010F50260FFE7290049B2012906DB2A00E8
:1022500052B292B20100200002F0A4FC280040B269
:1022600070BDF8B55FF0FF3400200D0000261705A3
:102270003F0DC9B2FF2902D192B2120B15002900FD
:10228000C9B2002909D0022916D00DD3042922D0C1
:102290001AD306292FD026D335E001205649BFB2E4
:1022A000394411F5FC662EE002205349BFB201EB20
:1022B000470111F5E46626E004204F49BFB201EB67
:1022C000870111F5B4661EE001204B49BFB23944C5
:1022D00011F5F46617E002204749BFB201EB470150
:1022E00011F5D4660FE004204349BFB201EB87012A
:1022F00011F5946607E004203F49BFB201EB870166
:1023000011F50266FFE7010049B201290EDB40B278
:1023100080B202001900300002F044FC3748007817
:10232000002803D02800C0B2FFF7B6FD200040B25D
:10233000F2BD0000000000000021010089B2C1F3DD
:102340000231002908D12C4980B20005000D084453
:1023500090F8E007C0B27047FEE70021010089B2A3
:10236000C1F30231012909D1234980B20005000DD2
:1023700001EB4000B0F8200780B27047FEE7020092
:1023800092B2C2F30232002A06D11B4A80B2000583
:10239000000D104480F8E0177047020092B2C2F3BB
:1023A0000232012A07D1144A80B20005000D02EB67
:1023B0004000A0F820177047020092B2C2F3023228
:1023C000022A07D10C4A80B20005000D02EB800002
:1023D000C0F8A0157047094908707047AC3200205A
:1023E000AC330020AC3400202C350020AC3500206C
:1023F000EC3500202C3600208C3200204C070020C9
:10240000BBBBE1B1B2F5803F80F07E80022A1ED9CD
:102410008C46B1FBF2F102FB11C31B0443EA1043EB
:10242000B3FBF2FC02FB1C3380B240EA0343B3FB74
:10243000F2F002FB103240EA0C4000237047022AFF
:1024400005D98446B0FBF2F002FB10C270474AB1D6
:1024500005D100F0010249085FEA30007047002210
:102460000023704702F0F2BB0B00020000210020A5
:102470007047904271EB030CF6D3B3F5803F2FD237
:10248000F0B5B3FA83F7B1FA81F4A7F10F0E3D1B53
:102490005340CEF1200602FA0EF2F3415340B5F15B
:1024A0000F0746D80F3C2C444140C4F12006A04001
:1024B000F1414140B1FBF3F603FB1611A2FB0645C7
:1024C000001BA94102D2761E8018594180EA010200
:1024D00021FA0EF362FA0EF200215A403046F0BDA6
:1024E00030B4B1FBF3FC03FB1C11A2FB0C45001B39
:1024F000A94103D2ACF1010C8018594130BC02460D
:102500000B46604600217047B2F1807F65D3F0B57D
:10251000B2FA82F7B1FA81F4C7F10F063D1B22FA35
:1025200006F307F1110EF24120355A40B5F10F07BD
:10253000B8D94140C4F12006A040F1414140B1FB6F
:10254000F3FC03FB1C11A2FB0C45001BA94103D2A9
:10255000BCF1010C801859410F2F12D30F3FC90352
:1025600041EA5041B1FBF3F603FB1611A2FB06450D
:10257000D4EBC030A94102D2761E8018594146EAF8
:10258000CC3C07B34140C7F12006B840F14141407F
:10259000B1FBF3F603FB1611A2FB0645001BA94194
:1025A00002D2761E8018594180EA010221FA0EF308
:1025B000C7F1200462FA0EF20CFA07F05A402CFA26
:1025C00004F13043F0BD80EA010221FA0EF300214C
:1025D00062FA0EF260465A40F0BD8C46B1FBF2F151
:1025E00002FB11C31B0243EA1063B3FBF2FC02FBC4
:1025F0001C331B024CEA002043EA1063B3FBF2FCDD
:1026000002FB1C331B024CEA002043EA1063B3FBBD
:10261000F2FC02FB1C331B024CEA002043EA10636D
:10262000B3FBF2FC02FB1C324CEA00200023704793
:1026300080B5202080F31188FFF73DFA01BD80B5F9
:10264000FFF73EFA002080F3118801BD80B5FFF747
:10265000EFFF01BD80B5FFF7F2FF01BD80B502F0CD
:1026600012FB01BD01210170002141600021C16008
:1026700000210174704738B504000D00FFF7E6FF34
:1026800065606868A060200002F018FB0020E06030
:1026900002202070FFF7DEFF31BD10B50400FFF708
:1026A000D5FF200002F0C7FB0020E0600020606042
:1026B00001202070FFF7CEFF10BD70B504000D00A3
:1026C0001600FFF7C3FFE0680121A9400843E0605E
:1026D00032002900C9B2200002F0F0FBFFF7BAFF78
:1026E00070BDF0B40246106895681318506803EB8B
:1026F0005004C0071DD54D441BE013F8017B05F8BD
:10270000017B491EF9D1A0B1B60813F8011B06F0F0
:102710000306032E08BF13F8016B01EB06214942A3
:10272000801C294405D011F8016B05F8016B401E8F
:10273000F9D1A3420ED013F8016B16F0030104BFC8
:1027400013F8011BC91C30090F28DAD113F8010B4B
:102750000F30D6E7F0BC02F10C00704700285DD0C6
:102760000100DFF8D8231061086CD06000201071E0
:102770000020D080CB8B488B1B1A00EE103AB8EEAD
:10278000C00A82ED050A8B8B088B1B1A00EE103AEB
:10279000B8EEC00AD2ED050A80EE800A82ED050A85
:1027A0004B8CC88B1B1A00EE103AB8EEC00A82EDB3
:1027B000060A0B8C888B1B1A00EE103AB8EEC00A82
:1027C000D2ED060A80EE800A82ED060ACB8C488C98
:1027D0001B1A00EE103AB8EEC00A82ED070A8B8C85
:1027E000088C1B1A00EE103AB8EEC00AD2ED070AA8
:1027F00080EE800A82ED070ADFF84403B1F8443026
:1028000090FBF3F01063DFF83803B1F8461090FB4B
:10281000F1F050630A20108701201071704780B5D5
:102820000100C64A1069002800F0A580C448136959
:10283000B3F8443090FBF3F01063C1481369B3F868
:10284000463090FBF3F05063536B106B1B1A502013
:10285000B3FBF0F01087B2F93800022801DA022049
:1028600010871069008B0B001BB2984208DB1069BF
:10287000408B00EE100AB8EE400A00F07DF87AE0D6
:102880001069008B0B001BB2984212DA1069808B22
:102890000B001BB298420CDB09B21069008B091ABD
:1028A00000EE101AB8EEC00AD2ED050A20EE200A9A
:1028B00047E01069808B0B001BB298421ADA10694E
:1028C000008C0B001BB2984214DB09B21069808B9C
:1028D000091A00EE101AB8EEC00AD2ED060A20EE70
:1028E000200A1069C08B00EE900AF8EE600A30EE04
:1028F000800A26E01069008C0B001BB298421ADA9D
:102900001069808C0B001BB2984214DB09B210696D
:10291000008C091A00EE101AB8EEC00AD2ED070AB0
:1029200020EE200A1069408C00EE900AF8EE600A52
:1029300030EE800A05E01069C08C00EE100AB8EE97
:10294000400AD2ED030A20EE200ABDEEC00A10EEC6
:10295000101A080000B21368984202DA1068401A90
:1029600001E01068081A00B2401E092803D30020B5
:10297000107209B2116001BD704991F90800002878
:1029800007D10868012804DB012008727FF063008A
:1029900008606B480A69B2F8442090FBF2F00863C3
:1029A000086B40080863086B142801D214200863E0
:1029B000704710B5614C2069002802D15FF0FF30EC
:1029C000BBE00020B4F90610002919D094F90410D6
:1029D000012905D12168226A91420BDA012009E020
:1029E00094F9041011F1010F04D1216A2268914277
:1029F00000DA01200100C9B2002901D00321E180E1
:102A0000B4F90610002905D0022956D034D3032981
:102A100065D091E0206A2168884223D0206900694E
:102A2000002802D0206900698047206A2168884216
:102A300005DA012020712069C068804705E05FF059
:102A4000FF3020712069806880470120E080606B42
:102A5000E062206940688047206A94F904104018B9
:102A6000206208E0206A002803D15FF0FF30E062B6
:102A700001E00020E0625FE0E16AB4F93800091A81
:102A8000E162E06A216B884203D2206BE06202209F
:102A9000E0802068216A884208D020694068804729
:102AA000206A94F904104018206205E0B4F9060089
:102AB000012801D10020E0803EE02168206A081A48
:102AC0000B30172808D3206940688047206A94F9A2
:102AD00004104018206201E00320E0802CE0E16A4D
:102AE000B4F938208918E162616BE26A91420BD235
:102AF000616BE162C0B2002806D094F90400404244
:102B000020710020E08017E0206A2168884208D008
:102B1000206940688047206A94F9041040182062B8
:102B20000AE00020E0620020E0802068002803D551
:102B30000020206000202062E06A10BD20470020B5
:102B4000A0860100002108E0374A002342F8313016
:102B5000002302EBC1025360491C1029F4D333490E
:102B60000A6852F0BD020A6009680168304A1160C3
:102B70008168304A116041682F4A1160C1682F4A4C
:102B8000116041692E4A116001692E4A1160816904
:102B90002D4A1160016A2D4A1160C1692C4A1160E9
:102BA000416A2C4A1160C16A2B4A1160816A2B4A22
:102BB0001160016B2A4A1160816B2A4A1160406BD7
:102BC000294908607047F0B4032A01D1016102E08D
:102BD000042A00D14161254B9E5C0022150014009F
:102BE0001300002709E0344305E035435FEA014C58
:102BF000F9D452F00F0249007F1C082F09D21B01A3
:102C000012012D0124015FEA016CEED453F00F0391
:102C1000ECE741680A402243426001680B402B43C5
:102C20000360F0BC70470000903C00201810024088
:102C30000C08014004080140000801400C0C014050
:102C4000040C0140000C01400C1001400410014034
:102C5000001001400C140140041401400014014014
:102C60000C1C0140041C0140001C0140C8770008F6
:102C7000006070470168814201D0012000E000201F
:102C8000C0B270470060406070470168814201D067
:102C9000012000E00020C0B270470A6802600860AE
:102CA00070470100086802680A60704701604A685E
:102CB000426042681060486070470100086802681E
:102CC0000A600A685160704780B5202080F311883F
:102CD000FEF7F1FE01BD80B5FEF7F2FE002080F3A5
:102CE000118801BDDFF8F80280697047C06970473C
:102CF00080B50100082002F0CFF901BD10B50C002D
:102D0000FFF7DBFF446202F060F910BD10B504006C
:102D1000A260022084F82000002084F82100E263F1
:102D20000020A06300206063012084F82200A161DC
:102D3000DFF8AC0220614169616161690C61446145
:102D400014F12800FFF794FF14F12C00FFF79AFF0D
:102D500014F1480001F032FE200010BD01E00270C5
:102D6000401C8842FBD3704780B58168B1F1600395
:102D70004168D961B3F16401D9600169DA6811640D
:102D80004169DA6851649749DA681166C268016876
:102D90001800FFF7BBFF02BD10B504005522A16863
:102DA0006068FFF7DBFFFFF78FFF2000FFF7DCFF16
:102DB00004000021200002F091F9FFF78CFF2000B1
:102DC00010BD2DE9F0410700884614001E00069D45
:102DD000552207EB08013800FFF7C0FFFFF774FF2B
:102DE00007EB08006038C761B0F16401C160C168D9
:102DF0000E64C1684D647B49C268116622007A493D
:102E0000FFF784FF04000021200002F067F9FFF7BC
:102E100062FF2000BDE8F08110B50400FFF754FF09
:102E200094F82200401E84F8220094F82200002822
:102E300024D194F820000F2820D12069616908610D
:102E4000606921694861FFF746FF94F8210010F09E
:102E50000300C0B2012802D0022806D00DE02000F5
:102E6000FFF744FF02F0CAF907E02000FFF73EFF3A
:102E70000100206C02F020FAFFE701E0FFF72BFFD2
:102E800010BD10B50400FFF71FFF200000F001F88F
:102E900010BD10B552498C69606205E014F128003C
:102EA000FFF7FFFE02F091F814F12800FFF7E2FEB1
:102EB0000028F3D194F8220000280AD194F82100C8
:102EC00010F0030F05D1206961690861606921690B
:102ED00048610F2002F099F810BD38B50400FFF7E3
:102EE000F3FE94F820000F2808D014F128013C4884
:102EF0008069FFF7D2FE092002F087F8656AFFF7C4
:102F0000EAFE2000FFF788FF280032BD10B504005C
:102F1000FFF7DAFE94F8210050F0040084F8210055
:102F2000FFF7D9FE10BD10B50400FFF7CDFE20005D
:102F3000FFF7DEFEFFF7CFFE10BD10B50400FFF770
:102F4000D1FE20604462032002F05FF8FFF7CAFE62
:102F5000406A10BD38B505000C00FFF7C3FE002C19
:102F600002D15FF0FF3005E02860456221000320B8
:102F700002F092F832BD80B50268002A06D00268DD
:102F8000002303605162100002F01FF801BD80B5FC
:102F90000268002A05D0026800230360100002F0D6
:102FA0009DF801BD38B504000D00FFF78DFE290026
:102FB0002000FFF7ECFFFFF78EFE31BD10B50C00CF
:102FC000002C02D15FF0FF3008E001000448806966
:102FD000FFF76CFE2100042002F05EF810BD000037
:102FE00010230020296100081C78000838B504006F
:102FF0000D002000FFF749FE002803D02900200023
:10300000FFF77CFE31BD30B4002513E050F8042BEF
:10301000D30744BFA9F101039A18091F042942F8F4
:10302000045BFAD213468C0744BF15809B1CC9076A
:1030300048BF1D7050F8041B0029E7D130BC704711
:10304000081A80B2704780B5FEF704FD02BD80B556
:10305000202080F31188FEF738FD01BD80B5FEF712
:1030600039FD002080F3118801BD80B5FFF7EBFF2B
:1030700002BD10B50400FFF7F8FF010089B220007F
:1030800080B2FFF7DDFF10BD66488069704780B5EC
:10309000FFF7FAFF90F82100C0B2800810F001009D
:1030A00002BD604989698861704780B514215E4816
:1030B00002F03BF901BD40205C49086001205C49F9
:1030C0000870704780B540205A4908600020584970
:1030D0000870FFF7EAFF01BD80205449086070477F
:1030E000802054490860704780B54FF480704F4984
:1030F0000860C820FFF717FF01BD80B54FF480704E
:103100004C490860C820FFF70EFF01BDF8B5040068
:103110004948FFF7C6FF2000FFF720FB0024FFF718
:10312000CAFFFFF7DDFFFFF7E8FF414F01203870CE
:10313000002625E04FF47A71404802F0F6F81BE0D3
:10314000280080B2FFF795FF02004FF47A7340F237
:10315000CF700021E3FB02014FF4FA620023FFF776
:103160004FF940F2E931884201D3FFF7C6FF4FF42F
:103170007A71324802F0D9F85FF0FF3000F05CFB62
:10318000E4B2002C1BD1FFF782FF0400387800283E
:10319000D0D0FFF70EFC0100012904DB00262748F0
:1031A00002F0C3F8E8E711F1010FE0D13000C0B23E
:1031B0000028C5D1FFF759FF05000126D7E7F1BD6B
:1031C0007CB5040002F09AF81D49174802F09FF8F8
:1031D0001C491A4802F09BF830221B4D15F11806C5
:1031E0002100300001F0DEFC0095184B81224FF4E5
:1031F0005C711748FFF7E5FD1649086073BD80B59F
:10320000FFF725FFFFF757FFFFF728FF01BD80B548
:10321000FFF71DFF01210F48006800F0F2FAFFF7E9
:103220001DFF01BD10230020703C00201010014044
:10323000C2470020141001402C780008803C002078
:10324000E4060020F4060020040700200D310008E9
:10325000602500205C47002080B50120FEF738FF84
:10326000C0B2AA280ED001210420FEF76AFF042173
:103270000920FEF766FFAA210120FEF762FF002069
:10328000FEF70AFE01BD38B5FFF7E6FF0420FEF7A2
:103290001FFFD04C2071D04DAC600920FEF718FF05
:1032A000287304202873287B002806D002280ED01B
:1032B00008D3042815D00FD318E04FF41650C7498F
:1032C000086017E04FF49640C449086012E04FF4DC
:1032D0001640C24908600DE04FF46140BF490860E4
:1032E00008E05FF4E130BD49086003E04FF4165098
:1032F000BA490860B949BA4802F0A8F80094B94B35
:10330000812241F27011B848FFF75BFD2860B74891
:1033100000F008FB686031BD70472DE9F84FA0B0A0
:1033200004000D00280068461600A8786F7857EA58
:10333000002795F8008018F07F08287810F08000AA
:10334000C0B2002828D10020B6F1020915F1030A05
:103350000020FFF740F85FF0000B01E01BF1010BCC
:1033600058464146C0B2C9B2884210D253463A00CC
:1033700092B2FF210020FEF708FEB9EB000947FAE0
:1033800080F740B282444846C0B20028E6D101200E
:10339000FFF721F8FEF774FE684602210170401C19
:1033A00010210170401C8B4909790170401C401CA0
:1033B00029780170401C69780170401CA97801705F
:1033C000471CB01E0020A8786D7855EA002500261D
:1033D0000BE03B002A0092B2FF210020FEF771FDB6
:1033E00045FA80F540B20744761C30004146C0B231
:1033F000C9B28842EDD30DF10300381A401E8DF892
:1034000003007D1C6846281A811EC9B20DF1010017
:1034100002F05FF83870032028700420FFF783FD66
:1034200068462D1A6D1C2A006946200023685B68D7
:10343000984721B0BDE8F08F2DE9F84FA0B0040007
:103440000D00280068461600A8786F7857EA002714
:1034500095F8008018F07F08287810F08000C0B23E
:10346000002826D10020B6F1020915F1030A002038
:10347000FEF7B1FF5FF0000B01E01BF1010B5846B6
:103480004146C0B2C9B2884210D253463A0092B205
:10349000FF210020FEF7E5FEB9EB000947FA80F7AF
:1034A00040B282444846C0B20028E6D10120FEF76F
:1034B00092FF684602210170401C20210170401CCF
:1034C000444909790170401C401C29780170401C56
:1034D00069780170401CA9780170471CB01E00205B
:1034E000A8786D7855EA002500260BE03B002A00FD
:1034F00092B2FF210020FEF753FE45FA80F540B25C
:103500000744761C30004146C0B2C9B28842EDD3B0
:103510000DF10300381A401E8DF803007D1C68462B
:10352000281A811EC9B20DF1010001F0D2FF3870D6
:10353000032028700420FFF7F6FC68462D1A6D1C46
:103540002A006946200023685B68984721B0BDE8DF
:10355000F08F80B508004878097851EA00211E4AAA
:103560005068002805D0012010FA01F1506800F0E1
:103570003AF901BD38B5A0B00C00694602220A70C4
:10358000491C40220A70491C124A12790A70491CCF
:103590000C704D1C2200D2B20100280002F05CF831
:1035A000E4B22C44651C6846281A811EC9B20DF18C
:1035B000010001F08EFF2070032028700848694642
:1035C0006D1A6D1C2A00694603685B68984721B034
:1035D00030BD000070050020102A00206405002086
:1035E000643D0020F5550008A01100200C7800086B
:1035F000704780B5FFF7FCFF02F03AF80848FFF784
:10360000A1FA00F0C0F901F079FEFFF727F801F008
:10361000F9FE02F0C1F802F020F9FEF709FA01BD47
:10362000B0760008081880B27047081A80B2704758
:1036300080B5FEF706FA01BD80B580B2FEF705FA47
:1036400001BD80B5FEF706FA02BD002080F31188A7
:1036500062B6704780B5202080F31188FEF735FAF6
:1036600001BD80B5FEF736FA002080F3118801BD58
:1036700080B5FFF7E6FF02BDF8B5454CE569FFF7F9
:10368000F7FF0700390089B2208DFFF7CEFF060053
:10369000A868864205D2E06914F11C0188421FD156
:1036A0003EE0218DA86841182185A868361A14F1DA
:1036B0001C00296848602968E161EF680021E96021
:1036C000E169814201D1FFF7B3FFFFF7CAFF286923
:1036D000B847FFF7BFFFE569A8688642E1D2CEE7A9
:1036E000208D30182085E0698068861BE06986603F
:1036F000390089B2208DFFF798FF0100A868411AB0
:10370000022901D2022104E0B1F5803F01D34FF636
:10371000FF71380080B2FFF785FF80B2FFF78CFFA2
:10372000F1BD80B502F0A8F801F05CFD02F0E3F80D
:1037300001BDFEE710B501F03EFCFEF7F3F9FFF71F
:10374000F0FF01F023F9FEF789F9114C80221149AD
:1037500014F13000FFF7DAFAA0610F48A169C861DF
:103760000120A16981F8200002F021F9A069483008
:1037700001F032F9FFF769FF0848FFF70DFB10BDB4
:1037800072B60349C862FEE780B5FFF775FF01BD59
:103790001023002084770008000400209C77000894
:1037A00080B5202080F31188FEF785F901BD80B532
:1037B000FEF786F9002080F3118801BD70B5050081
:1037C0000C002E680CE0F0682043F060002C02D062
:1037D0003069044203D0B168706800F012F83668AE
:1037E000AE42F0D170BD38B504000D00FFF7D8FF30
:1037F0002900200000F005F801F096FCFFF7D7FF44
:1038000031BD80B5426B1143416390F820100A2905
:1038100003D1416B426A114209D190F820100B2963
:1038200009D1426B416A0A40416A8A4203D10021B0
:10383000416201F0CAFB01BD70B505001D488669F3
:10384000FFF7AEFF746B2C40002C06D175620A2086
:1038500001F0DBFB706B05402C00706BA0437063C4
:10386000FFF7A5FF200070BDF8B506000D00114858
:103870008769FFF795FF7C6B3440002C13D1002D36
:1038800003D1FFF794FF002013E07E6229000A2095
:1038900001F002FC002803D5FFF789FF002008E0B3
:1038A000786B06403400786BA0437863FFF77FFFA6
:1038B0002000F2BD1023002080B5202080F3118865
:1038C000FEF7F9F801BD80B5FEF7FAF8002080F3A5
:1038D000118801BD8069704710B5FFF7EDFF1048F2
:1038E000046994F82200401C84F82200FFF7EBFFE3
:1038F000200010BD38B50400FFF7DEFF2569084839
:10390000854201D1002504E095F82200401C85F88D
:103910002200FFF7D8FF2000FFF77EFA280032BD13
:103920001023002038B50500FFF7D6FF0400200063
:10393000FFF7D0FF290002F091F8002807D02000FF
:10394000FFF7D8FF0400002CF1D1002032BD200089
:10395000FCE780B5202080F31188FEF7ACF801BDAC
:1039600080B5FEF7ADF8002080F3118801BD80B569
:10397000FFF7EFFF01BD80B5FFF7F2FF01BD80B596
:1039800002F0B2F801BD80B502F0B3F901BD80B517
:103990000121017000214160002181600021C1608E
:1039A00000210161002141611830FFF7E8FF01BDEE
:1039B00038B504000D00FFF7DAFF6560200002F063
:1039C000C2F902202070FFF7D6FF31BDF8B5040020
:1039D0000D0016001F00FFF7CAFF3B003200290050
:1039E000200000F003F8FFF7C6FFF1BD80B582604C
:1039F000C36001610321017002F0D4F901BDFFFF32
:103A0000C0F3C75181B1FF2906D0C110400721F092
:103A1000E04101F16051704741020CBF40F4E00108
:103A20006FF000410020704700F0004100020AD012
:103A3000B0FA80FC00FA0CF001F16051A1EB0C51DE
:103A400001EBD02140057047C11768B14840401ACA
:103A5000B0FA80F29040D21CC907C2F5846241EAF4
:103A6000025202EBD02140057047FEE7B0B581EA73
:103A7000030C0CF0004C40F2FF7515EA11541DBF09
:103A800015EA1357AC42AF4239E0E41923EA455333
:103A900043F48013C90241F0004141EA505EC7027D
:103AA0001100A7FB020200284FF00000EEFB0120EE
:103AB0004FF00001E3FB072118BF42F0010240185C
:103AC00000214941E3FB0E01A4F580640F0302D2FB
:103AD00052004041494154F101046CDD470872F144
:103AE000004250F1000051EB0451A1F580115CBF80
:103AF00041EA0C01B0BD4CEA05510020B0BD05EA19
:103B00001357AC4214BFAF4241E050EA410E1CBF14
:103B100052EA430E02E061460020B0BD24423C441C
:103B20001BD15FEA070EF6D0090302BF0146002051
:103B3000AEF1140EB1FA81F7AEEB070401FA07FEFD
:103B40000C37C7F1200100FA07F7C8404EEA000E13
:103B500023EA455343F48013A2E733F00043B3FA5A
:103B600083F704BFB2FA82FE77440B3FE41BB7F140
:103B7000200E2FBF02FA0EF3BB40C7F1200E22FA2F
:103B80000EFE38BF43EA0E03BA40641C82E750EAD7
:103B9000410E14BF52EA430E6FF000014FF40017BC
:103BA00017EB430F8ABF194617EB410FB5E74CEAF5
:103BB00005510020B0BDD4F10104B4F120070FDAA3
:103BC000C4F12007520828BF42F0010210FA07F59D
:103BD00001FA07F7E1BF2A43E0403843E1400FE034
:103BE000352C98DCC7F1200452EA400220FA07F293
:103BF00018BF42F0010231FA07F0A1400A43002148
:103C000072F1004250F1000051EB0C01B0BD000018
:103C100070B44FF0004591EA030F42F11F816B40F1
:103C2000841A71EB030604D26E40001BB1411219D5
:103C300073414FF4001C1CEB410F34BF7CEB430677
:103C400083E00C0DA4EB1356362E00F37C80012E7E
:103C500045EAC32341DC43EA525312BFD202920227
:103C60005B08240545EAC12141EA5051D2EBC0204E
:103C7000994125D407D1B0FA80F610FA06F162D046
:103C80000020203608E0B1FA81F6B140C6F12002EA
:103C900020FA02F21143B0404FEAF474B4EB4654F8
:103CA00034F001064FEA74040AD8D6F50016760DF2
:103CB00004F00044F04061FA06F25040F140484000
:103CC000C00A40EA415021F0004128BF5FEA500598
:103CD00050F1000044EBD12135E0DB0A45EAC12177
:103CE000C90AB6F120050EDD42EA0242120CC5F106
:103CF000200603FA06F6EB4042EA06056D429841BB
:103D000061F100010DE062FA06F5F240554063FAF8
:103D100006FC82EA0C02F3405A406D42904161EB8E
:103D2000030111F4801F05D1641E620502D06D00ED
:103D30004041494121F48011430875F1004350F19D
:103D4000000041EB045170BC70471CEB410F15D2D1
:103D500023F0004352EA43060BD04FEA4C0CBCEB75
:103D6000410F04D80C0D661E342EB7DDEBE7801A28
:103D7000994150EA410608BF0021E4E708BF1CEB67
:103D8000430F28BF6FF00001DDE7000001F00042A3
:103D90008B1AA3F16051B1F5801F0ADBB1F17F6F7F
:103DA0001FD242EAC102C10071F1004142EB5070E2
:103DB00070470B15C3F10903212B10D2890241EA88
:103DC000905180020128494141F0004121FA03F05D
:103DD000C3F12003994071F1004150417047100038
:103DE00070476FF0000013EB103F5CBF000E42EA1B
:103DF000C050704780B50C2100F0A7FC01BD1CB578
:103E000004008DF800102021200000F09EFC01230A
:103E10006A464321200000F05DFC13BD1CB5040080
:103E20002021200000F091FC0220FFF77CF8012304
:103E30006A46C121200000F001FC9DF800008006C8
:103E4000F2D513BD7CB504000D002021200000F048
:103E50007CFC01236A46C021200000F0EFFBEDB29C
:103E6000012D06D19DF8000050F040008DF80000B3
:103E700005E09DF8000010F0BF008DF80000012360
:103E80006A464021200000F025FC2221200000F09D
:103E90005CFC8F208DF8000001236A466121200020
:103EA00000F018FC04262121200000F04EFC002523
:103EB00012E0DFF8B40601232900C9B200EB41018A
:103EC0004A1C2900C9B210F8111051F04001C9B2C2
:103ED000200000F0FFFB6D1C28003100C0B2C9B209
:103EE0008842E6D32021200000F02FFC73BD1CB5D2
:103EF000040003208DF800002021200000F025FCA4
:103F000001236A467D21200000F0E4FB18208DF893
:103F1000000001236A467C21200000F0DBFB13BD7A
:103F200038B504001500481E8DF80000202120003F
:103F300000F00BFC01236A464B21200000F0CAFB75
:103F400001236A46CC21200000F078FB9DF8000098
:103F500010F0FC008DF800009DF80010DFF80C0652
:103F6000EDB2405D41188DF8001001236A464C21E6
:103F7000200000F0AFFB31BD38B504000D0020215A
:103F8000200000F0E2FB01236A46CC21200000F073
:103F900055FB9DF8000010F0F3008DF800009DF82F
:103FA0000010DFF8CC05EDB2405D01438DF8001044
:103FB00001236A464C21200000F08CFB002008E021
:103FC000411CC9B24900DFF8AC250300DBB2D15473
:103FD000401C0100C9B20829F2DB0823DFF8942550
:103FE0001021200000F076FB31BD2DE9FC410500D9
:103FF0000F0016009846089C2021280000F0A5FB21
:1040000001236A46CD21280000F018FB9DF800002E
:1040100010F0F0008DF800009DF80000B60056EAA0
:10402000C70656EA4806264306438DF8006001237A
:104030006A464D21280000F04DFB01236A46CD2140
:10404000280000F0FBFAA87A10F03F008DF800007D
:1040500001236A465221280000F03CFB01236A46F6
:10406000D221280000F0EAFA688980B2000A8DF8AF
:10407000000001236A465321280000F02BFB012396
:104080006A46D321280000F0D9FABDE8F38138B59B
:1040900004000D002021200000F057FB01236A4698
:1040A000CD21200000F0CAFA9DF8000010F07F003A
:1040B0008DF800009DF8000050EAC5108DF8000052
:1040C00001236A464D21200000F004FB31BD38B5C4
:1040D00004000D002021200000F037FB01236A4678
:1040E000CD21200000F0AAFA9DF8000010F0BF00DA
:1040F0008DF800009DF8000050EA85108DF8000052
:1041000001236A464D21200000F0E4FA31BD7CB560
:1041100004000D0016002021200000F016FB0123F2
:104120006A46CD21200000F089FA9DF8000010F0C9
:10413000CF008DF800009DF80000360156EA4516C4
:1041400006438DF8006001236A464D21200000F0EF
:10415000C1FA73BD7CB504000D00160020212000BB
:1041600000F0F3FA01236A46CE21200000F066FA3F
:104170009DF8000056EAC51606438DF8006001233D
:104180006A464E21200000F0A5FA73BD38B52DED2A
:10419000028B82B00400DFED940AB4EE600AF1EE07
:1041A00010FA0BD500208DF80000DFED900A20EE0C
:1041B000200AF1EE000A20EE208A28E0DFED8C0ACA
:1041C000B4EE600AF1EE10FA0BDB60208DF800000F
:1041D000DFED860A20EE200AF7EE000A20EE208AA4
:1041E00015E0DFED820A60EE200AB0EE001A20EE44
:1041F000818ADFED800AB4EE600AF1EE10FA03DB8B
:1042000040208DF8000002E020208DF800002021E1
:10421000200000F09AFA01230DF10102E0212000B4
:1042200000F00CFA9DF8010010F09F008DF80100DD
:104230009DF800109DF8010001438DF80010012346
:104240006A466021200000F045FA9FED6B0A88EE77
:10425000000AFDEEC00A10EE900A8DF800009DF8ED
:10426000000000EE900AF8EE600A30EE600ADFED22
:10427000630A20EE200ABCEEC00A10EE105A012399
:104280006A466221200000F025FA28008DF800001F
:1042900001236A466321200000F01CFA2800000A6E
:1042A0008DF8000001236A466421200000F012FA14
:1042B0002D0C8DF8005001236A466521200000F086
:1042C00009FA02B0BDEC028B31BD38B504000D0017
:1042D0002021200000F039FADFF89C02EDB22844DA
:1042E000007D8DF8000001236A467F21200000F048
:1042F000F1F931BDF8B504000D002221200000F0D5
:1043000024FA2800C0B2052803DA44208DF8000002
:1043100002E054208DF8000001236A466F2120003E
:1043200000F0D8F92021200000F00FFA0323DFF875
:104330004C022900C9B200EBC1025421200000F058
:10434000C9F90823DFF838022900C9B200EBC1021D
:104350005721200000F0BEF92121200000F0F5F9DE
:10436000DFF82062300014272900C9B27943405A8F
:104370008DF8000001236A466C21200000F0AAF9A4
:104380001223EDB27D4306EB0500821C6D21200057
:1043900000F0A0F92021200000F0D7F9F1BD38B5D8
:1043A00004002221200000F0D0F9002512E0DFF8FF
:1043B000D80101232900C9B200EB41014A1C2900A0
:1043C000C9B210F8111051F04001C9B2200000F03C
:1043D00081F96D1C2800C0B20328E8DB20212000F1
:1043E00000F0B3F931BD00000000C8430024744957
:1043F000000048440100E1430024744B0000804960
:1044000080B501236A46EA2100F018F99DF8000002
:1044100002BD7CB5040040225C4D29005C4E30009A
:1044200000F0C0FB40225B4E2900300000F0BAFBD8
:104430002000FFF7B4FF2000FFF759FD0121200005
:10444000FFF700FD032204212000FFF769FD112280
:1044500000212000FFF790FD0120009001230122A0
:1044600001212000FFF7C1FD00212000FFF70FFE12
:1044700000212000FFF72BFE012201212000FFF781
:1044800046FE362200212000FFF764FE94ED030A69
:104490002000FFF77BFE217A2000FFF716FF617AEC
:1044A0002000FFF727FF2000FFF7B8FC73BD1CB505
:1044B000040001236A46E021200000F0BFF89DF8C7
:1044C000000050F008008DF8000001236A466021CA
:1044D000200000F0FFF801236A46E021200000F0F0
:1044E000ADF89DF800000007F5D413BD1CB504001D
:1044F00001236A46FE21200000F0A0F89DF800008C
:1045000050F080008DF8000001236A467E212000D3
:1045100000F0E0F801236A46FE21200000F08EF84A
:104520009DF800000006F5D413BD80B5FFF762FCCE
:1045300001BD38B5040001236A46C421200000F003
:104540007DF89DF800502800C0B2002808D0002057
:104550008DF8000001236A464421200000F0BAF8DB
:104560002800C0B232BD0000247800089805002061
:104570009C050020B03B00207C050020E8050020C1
:104580002006002058060020E0050020A00500209D
:10459000BC3B0020FC3B00201CB5040061602000F7
:1045A000FFF728FC0821200000F0CFF8200000F0E1
:1045B000F6F82021200000F0C8F804208DF8000053
:1045C00001236A464821200000F084F801236A464E
:1045D000C121200000F032F89DF8000050F00100E9
:1045E0008DF8000001236A464121200000F072F896
:1045F0009DF8000010F0FE008DF8000001236A46CF
:104600004121200000F066F82000FFF702FF2000A3
:10461000FFF74DFF2000FFF769FF2000FFF785FF40
:1046200060898DF8000001236A464821200000F0CF
:1046300051F8200000F0B3F813BD00002DE9FC4153
:10464000040015001E00002C01D1FF203DE08DF874
:1046500000106068006801F0F2F860684168606806
:10466000006801F0A8F801276068C06817FA00F038
:104670006168896848616A4601216068006801F0E4
:10468000B6F8DFF84C8002224FF400414046FEF7B6
:104690009AFA2A00F6B231006068006801F0BBF8AF
:1046A00010224FF400414046FEF78DFA6068C06862
:1046B00087406068806807616068006801F089F879
:1046C0006068006801F0C0F80020BDE8F6810000D5
:1046D000000C0140F8B5040015001E00002C01D1AB
:1046E000FF2031E08DF800106068006801F0A7F845
:1046F000606841686068006801F05DF801276068E3
:10470000C06817FA00F06168896848616A4601214B
:104710006068006801F06BF8002D06D02A00B6B280
:1047200031006068006801F062F86068C068874026
:104730006068806807616068006801F04AF8606836
:10474000006801F081F80020F2BD32B50400606815
:10475000006801F074F8606841686068006801F002
:104760002AF801256068C06815FA00F06168896858
:1047700048616A4601216068006801F038F86068A5
:10478000C06885406068806805616068006801F005
:1047900020F86068006801F057F8002032BD70B55D
:1047A000040020212000FFF7D0FF14F1100500269F
:1047B0000EE001232A0056F0C001C9B22000FFF725
:1047C0003DFF6D1C03E03000C0B20528F1D1761C1E
:1047D0003000C0B21F28F6DB14F12E0520260FE0B2
:1047E00001232A0056F0C001C9B22000FFF726FFBE
:1047F0006D1C04E03000C0B236380628F0D2761CBA
:104800003000C0B2402808DA3000C0B22128F6D00B
:104810003000C0B22728EDD1F1E721212000FFF7B9
:1048200094FF14F1460521260FE001232A0056F0DB
:10483000C001C9B22000FFF701FF6D1C04E0300089
:10484000C0B227380528F0D2761C3000C0B23F280D
:1048500004DA3000C0B22528F1D1F5E7202120008C
:10486000FFF773FF70BD000080B5202080F3118832
:10487000FDF72BF901BD80B5FDF72CF9002080F381
:10488000118801BD80B5FFF7EFFF01BD80B5FFF7CF
:10489000F2FF01BD80B5FEF777FF01BD80B5FDF7E2
:1048A000EEF800F02EF801F09FF801BD80B51E482B
:1048B000016851F00801016000681C48016851F46A
:1048C0008021016048F69F40194908604FF6FF704B
:1048D000184908600020184908600020174908603E
:1048E0000020174908600020164908600120164979
:1048F00008600120154908600821322001F018FBEA
:1049000001BD80B511490869CA6802F0FF02104074
:10491000C2430A61800705D5FFF7B4FFFFF7BAFF6E
:10492000FFF7B4FF01BD00001C100240042004E0AA
:10493000280C00402C0C0040180C0040340C0040A7
:104940000C0C0040040C0040140C0040000C004013
:1049500030B4C3685B1CC3608368C91A891A81605C
:10496000D0E9044582680023A2186B41C0E9042302
:1049700041688268914201D2816841608168026821
:10498000914201D28168016030BC704738B586B071
:104990001C4D0020C5F89000684600F00FF8042474
:1049A000684600F019F8684600F01AF8641E002CFA
:1049B000F6D10098C5F8900007B030BD5FF0FF3128
:1049C000016000214160002181600021C16000225E
:1049D0000023C0E9042370470B49096881607047D0
:1049E00080B509490968074AD2F89020FFF7B0FF5F
:1049F00001BD80B5044A12688A6000228968FFF709
:104A0000A7FF01BD10230020041000E030B40024F3
:104A10000DE01500ADB22D0A23009BB2C35C5D40D2
:104A2000084BEDB233F8153093EA0222641C2300E0
:104A30000D009BB2ADB2AB42EBD3100080B230BCE4
:104A400070470000DC72000880B5202080F31188D8
:104A5000FDF731F801BD80B5FDF732F8002080F395
:104A6000118801BD10B54FF48062C0B24FF40064EC
:104A70004A4B04FB003001F09FFA10BD38B504002A
:104A80000D00FFF7E1FF4FF480622900E4B24FF41C
:104A90000063424803FB0404200001F0A3FAFFF77F
:104AA000DAFF31BD80B592B2022392FBF3F200F13E
:104AB000006010F5703001F07FFA7FF0010002BD58
:104AC0002DE9F84F13009BB213FA80F403009BB258
:104AD0004FF4006593FBF5F8E40A641C1500070029
:104AE00000264046C0B2002806D0BFB24246D2B22D
:104AF0004FF4006000FB127700912AE0AB4609E01A
:104B0000380080B2D0F50060290089B28842F5DA19
:104B1000D7F5006B5A4692B20098310089B2014431
:104B2000380080B2484400F097FD49464046C0B284
:104B3000FFF7A4FF1BEB06061BEB0707380080B24C
:104B400090FBFAF70AFB1707B5EB0B0B5D4618F164
:104B5000010840462100C0B2C9B288421AD2DFF82B
:104B6000409049464046C0B2FFF77CFF380080B213
:104B70004FF4006A90FBFAF10AFB11000028BFD144
:104B8000280080B240F60101884201DBD346C1E72C
:104B9000AB46BFE77FF00100BDE8F28F00C003081D
:104BA000203F002062B38B0708D0521E11F8013B52
:104BB00000F8013B00F024808B07F6D1830740F01A
:104BC000208000BF103A07D330B4B1E83810103A53
:104BD000A0E83810F9D230BC530724BFB1E8081060
:104BE000A0E8081044BF51F8043B40F8043BD2074A
:104BF00024BF31F8022B20F8022B44BF0B7803703E
:104C00007047121F17D35B0009D151F8043B20F8FD
:104C1000023B1B0C121F20F8023BF6D20BE051F8AE
:104C2000043B00F8013B1B0A20F8023B1B0C121F3F
:104C300000F8013BF3D238BF121D521E24BF11F8F9
:104C4000013B00F8013BF8D87047000070470000B6
:104C500080B5FCF714FF914800F036F900F0C4FE6F
:104C600001BD80B5FCF70BFF8D4800F02DF900F079
:104C7000BBFE01BD80B5FCF702FF8A4800F024F9B5
:104C800000F0B2FE01BD10B5844C2000FDF7EAFC37
:104C9000042020745FF08040A061814C2000FDF76B
:104CA000E1FC042020748048A0617E4C2000FDF7C8
:104CB000D9FC042020747D48A06110BD10B504000B
:104CC0002078012851D17548A04215D17848016853
:104CD00051F00101016000687648016851F001015E
:104CE00001600168490849000160006807211C2033
:104CF00001F01EF9704860616948A04215D16C4806
:104D0000016851F00201016000686A48016851F0D1
:104D100002010160016831F00201016000680721B1
:104D20001D2001F005F9644860615E48A04215D17C
:104D30005F48016851F00401016000685D48016846
:104D400051F004010160016831F004010160006864
:104D500007211E2001F0ECF85748606146F6680014
:104D6000A1698861A169C86111E00020A16908609A
:104D70000020A16948630020A16988630020A1691F
:104D8000C8630020A16908640020A16948626069C5
:104D900061680968B0FBF1F0401EA1698862A068F3
:104DA000401EA169C8626068C06AA16948600020AD
:104DB0006168097B11F00F01012903D0022903D199
:104DC00050F0020050F001006168097D11F00F0100
:104DD000012903D0022903D150F0200050F0100027
:104DE0006168097F11F00F01012903D0022903D165
:104DF00050F4007050F48070616891F8241011F044
:104E00000F01012903D0022903D150F4005050F4BE
:104E10008050A16908620120A16948610020A16950
:104E200008616068006B000A0002A169C860852003
:104E3000A169086010BD10B50400207802282CD1AB
:104E40000020A16908600020A169C8600020A16954
:104E500008611248A04208D11C2001F080F81448D3
:104E6000016849084900016000680D48A04208D166
:104E70001D2001F074F80E48016831F00201016054
:104E800000680848A04208D11E2001F068F80848D0
:104E9000016831F004010160006810BD103D002080
:104EA0002C3D0020483D0020000400400008004048
:104EB0001C1002401010024000A24A048069C9B2CE
:104EC00000EB81004263704738B50400A0690569B2
:104ED000A069C06800F0FF000540E843A1690861CF
:104EE000A80707D560680069002803D02000616822
:104EF00009698847680707D560688069002803D07A
:104F00002000616889698847280707D56068006ABA
:104F1000002803D020006168096A8847E80607D5A1
:104F20006068806A002803D020006168896A884729
:104F3000E80707D560688068002803D02000616812
:104F40008968884731BD00000060406070470100FB
:104F5000086802680A600A68516070470168426820
:104F6000116041680268516070479B488169896897
:104F700000688068814201D2012000E00020C0B2B8
:104F8000704780B5202080F31188FCF79EFD01BD9D
:104F900080B5FCF79FFD002080F3118801BDC0683B
:104FA000002801D0012000E00020C0B270478168D5
:104FB000491C8160704710B5874C2000FFF7C4FF83
:104FC0000020A0602461646110BD002180F82010E1
:104FD000814909688A6883689A42FAD201604A68FE
:104FE00042604268106048607047002180F82010DD
:104FF0007949096882688B689A42FAD301604A68E5
:105000004260426810604860704738B5724DAC69C4
:1050100084F820002800FFF79AFFA8610120A96901
:1050200081F820002100A869FCF736FDEFF3098024
:105030006438E169884202D26848FEF7A1FB21008A
:10504000A86901F065F831BD10B50400FFF799FFBC
:1050500094F82000002808D0032809D004280ED096
:10506000052809D007280AD00DE0FFF791FF12E0CC
:105070000020616A086006E0606AFFF798FF200080
:10508000FFF76CFFFFE75FF0FF3060622000FFF783
:105090009CFFFFF77DFF10BD18B585B0040011F12E
:1050A000010F12D04C4883694D4A6846FCF745FD14
:1050B0002000C0B2FFF7A9FF6846FFF770FF002885
:1050C00007D06846FCF797FD03E02000C0B2FFF769
:1050D0009CFF41488069406A06B010BD70B504006D
:1050E0003D4EB06961628168A268914203D320009D
:1050F000FFF76BFF17E0FFF778FF0500B4610120B1
:1051000084F8200029002000FCF7C6FCEFF309809A
:105110006438E969884202D23048FEF731FB290041
:10512000200000F0F5FF70BD80B5FFF71EFF0028DE
:1051300001D000F00DF801BD274908688068896931
:105140008968814201D2012000E00020C0B270478E
:1051500038B5214DAC692800FFF7F9FEA8610120A0
:10516000A96981F820002000FFF73FFF040021001B
:10517000A869FCF791FCEFF309806438E169884283
:1051800002D21648FEF7FCFA2100A86900F0C0FF21
:1051900031BD38B5104DAC692800FFF7D8FEA861C5
:1051A0000120A96981F820002000FFF71EFF0400FC
:1051B0002100A869FCF770FCEFF309806438E1690D
:1051C000884202D20548FEF7DBFA2100A86900F008
:1051D0009FFF31BD0000000010230020DC77000895
:1051E0004950000880B525482549016000214160EB
:1051F000002181600C3000F077FC01BD70B5B0F18A
:10520000080425682E1D6068C01DC008606015F187
:105210000C0000F071FC00E03668281D864201D0C9
:10522000A642F9D23068002802D030688442F3D216
:10523000306820603460606804EBC000083021688A
:10524000884208D1606821684968491C0818606074
:10525000206800682060706806EBC0000830A0423B
:1052600006D170686168491C081870602068306059
:1052700015F10C0000F084FC70BD000070320020BD
:10528000B558000880B5202080F31188FCF713FC86
:1052900001BD80B5FCF714FC002080F3118801BD2E
:1052A00010B40024046041608260C36010BC704789
:1052B00002680A600160704738B504000D00FFF70E
:1052C000E1FF29002000FFF7F3FFFFF7E2FF31BD08
:1052D00080B5202080F31188FCF7EDFB01BD80B57F
:1052E000FCF7EEFB002080F3118801BD80B5FFF7CD
:1052F000EFFF01BD80B5FFF7F2FF01BD80B500F003
:1053000039FF01BD0121017000214160704738B5AE
:1053100004000D00FFF7EAFF6560200000F036FF93
:1053200002202070FFF7E6FF31BD38B504000D0004
:10533000FFF7DCFF2900200000F003F8FFF7DAFF99
:1053400031BD80B50422027000F080FF01BD000075
:1053500080B5202080F31188FCF7ADFB01BD80B53E
:10536000FCF7AEFB002080F3118801BD00607047A0
:1053700080B5FFF7EDFF01BD80B5FFF7F0FF01BD80
:1053800080B5FFF7F3FF01BD80B5FEF717FA01BD49
:1053900080B55FF0FF33303001F033F902BD80B5E6
:1053A0005FF0FF330C3001F098F802BD80B55FF07C
:1053B000FF32C9B2303001F0D5F802BD80B55FF0E0
:1053C000FF310C3001F05EF802BD80B5C9B230305B
:1053D00001F0C8F802BD80B50C3001F053F802BDF1
:1053E00080B5303001F00DF902BD80B50C3001F010
:1053F00074F802BD002902D0012901D100E0FFE7C5
:105400000020704780B501F00FFA01BD7CB50400A3
:105410000D0016000C482060201DFFF7B1FF012091
:10542000207200942B00802214F1540114F10C001E
:1054300000F0EDFF00943300802214F1D40114F148
:10544000300001F078F873BD3C77000838B50400EF
:105450000D00FFF78DFF2900200001F0F0F9022078
:105460002072FFF789FF31BD38B504000D00606977
:10547000002803D10421201DFFF786FF2900C9B2AF
:1054800014F10C0000F0DBFF002804D54FF480611C
:10549000201DFFF779FF31BD80B5202080F31188F2
:1054A000FCF709FB01BD6A488069704780B5FFF7CA
:1054B000FAFF90F82100C0B2800810F0010002BD90
:1054C00080B50021FEF77AF901BD80B5FDF72BFD0F
:1054D00001BD30B402000020002404E02300DBB250
:1054E000D35C1818641C23000D00DBB2EDB2AB4294
:1054F000F4D3C0B230BC70472DE9F04104000D0078
:10550000160098460027B8F10301C9B2701CFFF7D6
:10551000E0FF5FFA88F806EB080111F8021CC0B240
:10552000C9B2884201D000201EE0069900E008348C
:105530006068002816D0707810F07F002278C0B222
:105540008242F4D10800C0B2FF2804D00800B2782B
:10555000C0B29042EBD1F278311D280063689847C1
:10556000012001E03800C0B2BDE8F0812DE9F84328
:105570000C001500066827005FF0000800208DF879
:1055800000005FF0000907E0B8F5807F04D15FF00C
:1055900000095FF0000827000122694630003368E7
:1055A0009B689847002815D04846C0B2002814D000
:1055B0009DF8000038707F1C18F10108B8F1040F45
:1055C000E2D3E078801D8045DED1A5F80080002080
:1055D000002000E00120BDE8F2839DF800000228D1
:1055E000DAD15FF001095FF001089DF80000387022
:1055F0007F1CD1E7F8B5ADF5027D04002568A668EB
:10560000277902E01420FFF760FFFFF74FFF002823
:1056100012D101AA02A92000FFF7A8FF0028F1D1AA
:105620003800C0B20090BDF80430DBB202AA2900F5
:105630003000FFF761FFE8E7FFF72EFF0548FFF7AF
:105640003FFF0020FDF725FC0DF5037DF0BD0000B8
:10565000102300200C2A002010B50446FFF7A2FA00
:10566000204610BD3048016851F4807101607047D8
:1056700080B52E4801685FF0FF31016002680022AA
:10568000026000682A480268016001680021016028
:1056900000682848016851F0805101600168016884
:1056A00051F0006101600068FFF7DCFF01F055F97F
:1056B00001F024FB01BD2048016851F001010160A7
:1056C00001688907FCD5016801F0FF0101601B49F1
:1056D00000220A600A6812F00C0FFBD1026852F433
:1056E0008032026002689203FCD50A6852F4E81224
:1056F0000A60026852F08072026002689201FCD572
:105700000F4A0A6012220F4B1A600A6852F0020216
:105710000A600A6812F00C02082AFAD101684908E6
:105720004900016070470000007000401010024006
:105730000C1002401C1002400010024004100240F5
:1057400000441D000020024080B5202080F3118815
:10575000FCF7B1F901BD80B5FCF7B2F9002080F388
:10576000118801BD80B5FFF7EFFF01BD80B5FFF7E0
:10577000F2FF01BD80B55FF0FF31FDF7EBFB02BD2D
:1057800080B500F0B1F901BD80B500F0B5F901BDFB
:1057900080B500F0F5F901BD80B501F057FB01BD02
:1057A00080B50121017000214160002181600C3031
:1057B000FFF7E6FF01BD38B504000D00FFF7D2FF8B
:1057C0006560200001F060FB02202070FFF7CEFF33
:1057D00031BD10B50400FFF7C5FF200001F0D6FB76
:1057E0000020606001202070FFF7C0FF10BD70B581
:1057F00004000D001600FFF7B5FF032020703200F3
:105800002900200001F0F0FB14F10800FFF7B2FFBF
:10581000FFF7ACFF70BD70B504000D001600FFF778
:10582000A1FF0320207032002900200001F006FCB7
:1058300014F10800FFF79EFFFFF798FF70BD80B5D9
:105840000C30FFF7A1FF01BD80B50C30FFF7A0FFC2
:1058500001BD80B5FFF72FFF01BD704780B5202047
:1058600080F31188FCF727F901BD80B5FCF728F912
:10587000002080F3118801BD16481749016011F519
:1058800000614160704710B4124B5C684042204494
:10589000491E30EA0101524201EB02001A689042AF
:1058A00002D35A68824201D2002001E05860080009
:1058B00010BC704770B504000D001600FFF7CEFF56
:1058C000320029002000FFF7DEFF0400FFF7CDFFC4
:1058D000200070BD682A0020702A002080B50022B8
:1058E000FFF7D1FF02BD80B513000422FFF7D8FCFB
:1058F00001BD0060704738B5144C200000F0F4F88A
:1059000014F11000FFF7F5FF114D2A00142114F1D6
:105910001400FFF7E8FF14F12400FFF7EAFF14F189
:105920002800FFF7E6FF2A001C2114F12C00FFF7E6
:10593000DAFF14F13C00FFF7DCFF14F14000FFF741
:10594000D8FF14F14400FFF7D4FF31BD202A002016
:10595000DD58000810F00700354B1A684FF6FF01BC
:105960000A40344951EA00210A431A607047020094
:1059700052B2002A04D409012F4A40B2115407E060
:1059800009012E4A40B210F00F00104400F8041C28
:105990007047EFF30980683029490A6852085200BD
:1059A0000A6080F30988002080F31188704780B571
:1059B000202080F3118862B60320FFF7CBFF214837
:1059C000016851F0807101601F48016851F00101C8
:1059D000016001217FF00400FFF7C9FF02217FF081
:1059E0000100FFF7C4FF01BD10B5202080F311882E
:1059F00016480068000517D5F1EE100AEFF309808C
:105A0000683804005FF08071E1611149096821661E
:105A100080F30988FFF790FB002802D00D48A061B1
:105A200001E00D48A06102E0002080F3118810BD64
:105A30000CED00E00000FA0500E400E018ED00E0E5
:105A400034EF00E0FCED00E0001000E004ED00E0C9
:105A50003CEF00E03F6100084B61000810F8012BAB
:105A600011F8013B0AB19A42F8D0D01A70470000F1
:105A70000060406070470168814201D0012000E071
:105A80000020C0B2704710B40A0012688A4203D0E6
:105A900093688468A342F8D202605168416041680B
:105AA0000860506010BC70470100086802680A6016
:105AB0000A68516070470168426811604168026875
:105AC0005160704780B5202080F31188FBF7F3FF09
:105AD00001BD80B5FBF7F4FF002080F3118801BD04
