:020000040800F2
:100000000004002045690008732F0008732F0008C2
:10001000732F0008732F0008732F0008732F000838
:10002000732F0008732F0008732F0008174C000867
:10003000732F0008732F0008732F0008732F000818
:10004000732F0008732F0008732F0008732F000808
:10005000732F0008732F0008255800085358000814
:1000600081580008AF580008DD580008AD55000859
:10007000BF550008D1550008E3550008F5550008A4
:100080000756000819560008732F0008732F000840
:10009000732F0008732F0008732F00080B590008F6
:1000A000732F0008515A0008732F0008732F00089F
:1000B000594100086B4100087D410008732F00087A
:1000C000732F0008732F0008732F0008732F000888
:1000D000732F000833600008732F0008732F000887
:1000E00081590008732F0008732F0008732F000830
:1000F000635A0008732F0008732F0008732F00083D
:10010000732F0008732F0008A53D0008732F000807
:10011000732F0008732F0008732F0008732F000837
:100120002B5600083D5600084F560008615600083F
:10013000732F0008732F0008732F0008732F000817
:10014000732F0008732F0008732F0008732F000807
:10015000732F0008732F0008732F0008732F0008F7
:10016000732F0008732F0008732F0008732F0008E7
:10017000732F0008732F0008732F0008732F0008D7
:10018000081A80B27047BFF34F8FDFF8E01B0A6890
:1001900012F4E062DFF8D80B02430A60BFF34F8F1E
:1001A00000BFFDE780B501F007FA02BD72B67047E7
:1001B00080B5202080F3118801F02FFA01BD80B5B1
:1001C00001F030FA002080F3118801BD80B52020B5
:1001D00080F3118801F02BFA01BD80B501F02CFAF3
:1001E000002080F3118801BD0021C160704780B5F7
:1001F000FFF7D8FF02BD10B50400FFF7F8FF0100BC
:1002000089B2200080B2FFF7BBFF10BDC068002894
:1002100001D0012000E00020C0B2704710B50400FA
:100220002000FFF7F3FF002802D0200001F095FA2C
:1002300010BD10B50400FFF7BBFF2000FFF7EEFF75
:10024000FFF7BDFF10BDF8B504000D0016001F003C
:100250002000FFF7E3FF3B0032002900200001F0FF
:100260001EFAF1BDF8B504000D0016001F00FFF7DF
:100270009FFF3B00320029002000FFF7E4FFFFF75B
:100280009EFFF1BDDFF8880D8069704780B5FFF7EC
:10029000F9FF90F82100C0B2800810F0010002BD03
:1002A00038B5002001F090FCC0B2CC2800F0E3800B
:1002B00001214FF4805001F0CFFC012141F20100F7
:1002C00001F0CAFC1221052001F0B7FC3221062002
:1002D00001F0B3FC4FF4FA6141F2020001F0BCFC02
:1002E0000221072001F0A9FC9FEDBF0A46F20100A0
:1002F00001F0C2FC0421082001F09FFC4FF44041B2
:1003000041F21D0001F0A8FC4FF4FA7141F21E0009
:1003100001F0A2FC002141F2070001F09DFC1E212A
:1003200041F2080001F098FCAA2141F2090001F015
:1003300093FCC82141F20A0001F08EFC4FF4487191
:1003400041F2030001F088FC40F6282141F204004C
:1003500001F082FC4FF4616141F2050001F07CFC88
:100360004FF47A6141F2060001F076FC9FED9F0A9E
:100370004FF4C04001F080FC4FF4FA7141F20B00E1
:1003800001F06AFC40F2DC5141F20C0001F064FC27
:10039000C82141F20D0001F05FFC40F6E444210069
:1003A00041F20E0001F058FC40F6D865290041F2F8
:1003B0000F0001F051FC4FF47A6141F2100001F09E
:1003C0004BFC7D2141F2110001F046FCFA2141F283
:1003D000120001F041FC4FF4967141F2130001F05C
:1003E0003BFC4FF4FA7141F2140001F035FCC821D6
:1003F00041F2150001F030FC210041F2160001F03D
:100400002BFC290041F2170001F026FC4FF47A6121
:1004100041F2180001F020FC7D2141F2190001F0A9
:100420001BFCFA2141F21A0001F016FC4FF4967100
:1004300041F21B0001F010FC4FF4FA7141F21C0074
:1004400001F00AFC41F2883141F21F0001F004FC86
:1004500041F2EC314FF4815001F0FEFBCC21002041
:1004600001F0EBFB002001F0C6FA012001F0C3FA15
:10047000062001F0C0FA31BD30B402000020002493
:1004800003E013781818521C641C23000D00DBB223
:10049000EDB2AB42F5D3C0B230BC70477047704785
:1004A00070B5FFF793FEDFF86C0B016891F0400127
:1004B000016041F21E0001F099FB06000023DFF805
:1004C000582B14001D00B6B24FF4FA6240F2E73028
:1004D0000021E2FB06014FF47A72002301F0BEFC1A
:1004E00002000B0011002B002200DFF8980DFFF72F
:1004F000AAFEFFF772FE70BD10B40020002112E0CA
:10050000DFF8842D0B00DBB252F833309B680C000F
:10051000E4B202EBC4025268D340DA0702D40122EB
:100520008A401043491C0A00D2B20A2AE8DB80B292
:1005300010BC70471CB5684600210160002115E021
:10054000DFF8D83ABDF800200800C0B233F8200028
:100550008218ADF800206A4654880800C0B24000F6
:1005600003EB4000408804195480491C0800C0B2C5
:100570000828E5DBBDF80000082190FBF1F0ADF89C
:10058000000068464188082291FBF2F14180DFF8C3
:10059000FC4CBDF80010E183418841F6C81041438E
:1005A00009132185208D10F5C870208541F21F00A8
:1005B00001F01CFB218D80B2814204D28020DFF843
:1005C000D01C08600BE04FF4815001F00FFB218D2F
:1005D00080B2884203D28020DFF8B81C0860FFF7A1
:1005E0008BFFA08313BD000000C064441CC7B14052
:1005F0002DE9F8432DED028B82B005000E0000209E
:1006000041F288342000052001F0DEFA400740F175
:100610002182300000B240F2F51188422EDB280022
:1006200080B200282AD0E80507D5DFF86C1C01222B
:10063000486C8240086C026106E0DFF85C1C012215
:10064000486C8240086C4261DFF84C1C0122C86C87
:100650008240886C0261300000B240F6B8318842B6
:100660000BDB310009B2A1F6B831B42041434FF49D
:100670007A7091FBF0F0241A0CE00BE00122DFF815
:10068000181C486C12FA00F00B6C5861C86C824060
:10069000886C426168460021016000201CE0012254
:1006A000C0B2410012FA01F189B2294204D00121FD
:1006B0006B460700FFB2D9550100C9B24900491C79
:1006C00012FA01F189B2294205D05FF0FF316A4682
:1006D0000300DBB2D154401C0100C9B20429DEDBA7
:1006E0009FEDAC0A41F20D07380001F07FFA3100AE
:1006F00009B2814201DA0025D0E041F20E0528005E
:1007000001F074FA310009B281423ADA41F2120082
:1007100001F06CFA804641F211091FFA88F8484648
:1007200001F064FAB8EB000800EE108AB8EEC08A57
:10073000280001F05BFA0500ADB2380001F056FA6E
:100740002D1A00EE105AB8EEC00A88EE008A36B2B2
:10075000380001F04BFA361A00EE106AB8EEC00A03
:1007600020EE088A484601F041FA00EE100AB8EE81
:10077000400A30EE080ABDEEC00A10EE105AADB2C3
:100780008CE041F20F07380001F030FA310009B275
:1007900081423ADA41F2130001F028FA804641F230
:1007A00012091FFA88F8484601F020FAB8EB000851
:1007B00000EE108AB8EEC08A380001F017FA070080
:1007C000BFB2280001F012FA3F1A00EE107AB8EE1C
:1007D000C00A88EE008A36B2280001F007FA361AFD
:1007E00000EE106AB8EEC00A20EE088A484601F012
:1007F000FDF900EE100AB8EE400A30EE080ABDEE30
:10080000C00A10EE105AADB248E041F210052800BF
:1008100001F0ECF9310009B281423ADA41F21400F8
:1008200001F0E4F9804641F213091FFA88F84846BE
:1008300001F0DCF9B8EB000800EE108AB8EEC08ACF
:10084000280001F0D3F90500ADB2380001F0CEF96F
:100850002D1A00EE105AB8EEC00A88EE008A36B2A1
:10086000380001F0C3F9361A00EE106AB8EEC00A7B
:1008700020EE088A484601F0B9F900EE100AB8EEF9
:10088000400A30EE080ABDEEC00A10EE105AADB2B2
:1008900004E041F2140001F0A9F90500963C2200A1
:1008A0000321DFF8280C01F036FC002129E00800C4
:1008B000C0B218560B00DBB2134493F921309842B2
:1008C0001ED000200B00DBB21A4482F8210017E092
:1008D000DFF8B8290800C0B2104490F921000028C0
:1008E00005D06B460800C0B218560028DFD1684614
:1008F0000B00DBB2C05C0B00DBB21A4482F82100B3
:10090000491C0800C0B20428E2DBDFF8804994F9F2
:10091000210000280CD1DFF8B86B00220021300044
:1009200001F0F9FB00220121300001F0F4FB15E099
:1009300094F92100012806D12A000021DFF8900B4C
:1009400001F0E9FB0AE094F9210010F1010F05D153
:100950002A000121DFF8780B01F0DDFB94F9220079
:1009600000280CD1DFF8686B00220221300001F072
:10097000D2FB00220321300001F0CDFB17E094F9F7
:100980002200012808D12A000221DFF8440B01F0DF
:10099000C2FB0CE00000000094F9220010F1010FEE
:1009A00005D12A000321DFF8280B01F0B4FB94F9EC
:1009B000230000280CD1DFF81C6B0022032130003B
:1009C00001F0A9FB00220221300001F0A4FB15E098
:1009D00094F92300012806D12A000321DFF8F40A44
:1009E00001F099FB0AE094F9230010F1010F05D101
:1009F0002A000221DFF8DC0A01F08DFB94F92400C3
:100A0000002810D1DFF8CC4A00220121200001F09B
:100A100082FB00220021200001F07DFB02B0BDEC32
:100A2000028BBDE8F18394F92400012806D12A0045
:100A30000121DFF8A00A01F06EFBEFE794F9240032
:100A400010F1010FEAD12A000021DFF8880A01F035
:100A500062FBE3E7300000B240F2F511884214DB9C
:100A6000280080B2002810D00122DFF82C18486C32
:100A700012FA00F00B6C1861C86C8240886C02613D
:100A8000300000B201F098FB0DE00122DFF80818F9
:100A9000486C12FA00F00B6C5861C86C8240886C8C
:100AA000426101F036FC00210DE0DFF8EC37080070
:100AB000C0B203EBC000406882400800C0B253F8E7
:100AC00030000261491C0800C0B20828A6DA0122E1
:100AD00012FA01F080B22842E7D1DFF8BC370800F3
:100AE000C0B203EBC000406882400800C0B253F8B7
:100AF00030004261E6E738B5DFF8900790F826103D
:100B0000C90640D5DFF8D04902220121200001F0BA
:100B100062FC05220221200001F05DFC0522042177
:100B2000200001F058FC002410E0DFF85C370322BD
:100B300001212000C0B203EBC000406881402000CA
:100B4000C0B253F8300001F046FC641C2000C0B273
:100B50000A28EADBDFF8845901240722696814FABD
:100B600001F1286801F037FC0622E96814FA01F166
:100B7000A86801F030FC06226869844021002869D9
:100B800001F029FCCDE090F82610890640F1C980DB
:100B900090F8262012F0010290F8261011F00201C0
:100BA00090F8264014F00404D2B2012A40F0B38039
:100BB000C9B2022906D110220821DFF81C0901F070
:100BC0000AFC11E0DFF8185907224021280001F043
:100BD00002FC07228021280001F0FDFB07224FF4D0
:100BE0008071280001F0F7FBE4B2042C49D1DFF852
:100BF000A85601241022696814FA01F1286801F04E
:100C0000EAFB1022E96814FA01F1A86801F0E3FB9D
:100C10001022696914FA01F1286901F0DCFB102245
:100C2000E96914FA01F1A86901F0D5FB1022696A9B
:100C300014FA01F1286A01F0CEFB1022E96A14FAD5
:100C400001F1A86A01F0C7FB1022696B14FA01F1E7
:100C5000286B01F0C0FB1022E96B14FA01F1A86BBC
:100C600001F0B9FB0622696C14FA01F1286C01F05D
:100C7000B2FB0622E86C84402100A86C01F0ABFBBB
:100C80004FE0DFF8145601240622696814FA01F1D6
:100C9000286801F0A0FB0622E96814FA01F1A868AF
:100CA00001F099FB0622696914FA01F1286901F043
:100CB00092FB0622E96914FA01F1A86901F08BFBA5
:100CC0000622696A14FA01F1286A01F084FB0622FF
:100CD000E96A14FA01F1A86A01F07DFB0622696B4A
:100CE00014FA01F1286B01F076FB0622E96B14FA85
:100CF00001F1A86B01F06FFB0622696C14FA01F197
:100D0000286C01F068FB0622E86C84402100A86C86
:100D100001F061FB05E007224021DFF8C40701F084
:100D20005AFB31BD80B5DFF8BC0790F82610C90624
:100D30000DD590F82610C90702D500F071F913E01F
:100D400090F8260080070FD500F06AF90CE090F8C3
:100D50002610890608D590F82600C00702D500F0B5
:100D60009DFA01E000F09AFA01BD00000CED00E0F0
:100D70000400FA05F8B501F084FB01F023FCDFF86C
:100D80006807016851F00071016003224FF400719F
:100D9000DFF84C0701F01FFB0026DFF85007006862
:100DA000C0F34020002805D10120DFF8E01481F8CD
:100DB000250004E00020DFF8D41481F8250000F0BD
:100DC000ECFDFFF76DFADFF8C444052000F0FCFEEF
:100DD00084F82600FFF78FFE01F041FC94F826000E
:100DE00010F0300F12D000200090DFF8043780227E
:100DF0004FF45C71DFF8FC0601F055FEFFF7D8F9FF
:100E000014F10C0001F0E5FEFFF7D9F9FFF7EFF957
:100E10000700002094F82600800621D594F82600CB
:100E200040071DD5DFF8D016DFF8A00601F051F914
:100E3000DFF8C816DFF8980601F04BF9DFF8C016A6
:100E4000DFF8900601F045F9002084F82100002029
:100E500084F82200002084F82300002084F8240075
:100E600094F82600C00670D54FF40060DFF89416A1
:100E700008606AE064215FF0FF3001F079FF05004F
:100E8000680702D5FF2000F0B6FD94F82600C006E2
:100E90000ED5FFF74FFBA8050AD594F825000028CA
:100EA00006D10126DFF8EC034021016080210160BA
:100EB00094F82600800643D5A80609D5B4F91E008B
:100EC000010009B2A08BFFF793FBFFF790F9070031
:100ED000680619D5380080B2FFF78DF902004FF48B
:100EE0007A7340F2CF700021E3FB02014FF4FA6203
:100EF000002300F0B3FF80B240F2E931884203DB07
:100F000000210020FFF774FB280619D5380080B2B5
:100F1000FFF771F902004FF47A7340F2CF700021AD
:100F2000E3FB02014FF4FA62002300F097FF80B266
:100F300040F2E931884203DB00210020FFF758FB33
:100F4000FFF7A4F9002800D001263000C0B2002825
:100F500090D094F8260080060FD594F8260040071C
:100F60000BD5DFF8680501F0C6F8DFF8640501F07D
:100F7000C2F8DFF8600501F0BEF894F82600C0065C
:100F800043D54FF40060DFF8801508600120DFF8DA
:100F90007C1508600120DFF8781508600120DFF873
:100FA000741508600120DFF8701508600120DFF873
:100FB0006C150860DFF8680501680905090D016016
:100FC00001680160DFF85C05016851F00C01016007
:100FD000016831F0E0010160016851F00201016037
:100FE000DFF84405016851F480710160DFF83C05C9
:100FF000016851F004010160FFF7D8F872B640BFF4
:1010000020BF20BF62B6FFF7BEF80020F2BD00008F
:10101000D01B00200C100140A1040008F01E00208D
:101020002DE9F0472DED028B82B0DFF80455A8467C
:10103000964CDFF8000501F0F9FE6060DFF8F86417
:101040000021300001F038FF0823DFF8F024DFF83A
:10105000F014300001F03EFFB06A8068B16A886029
:10106000082000F0B1FD2872072000F0ADFD687285
:1010700046F2010000F0CEFDB0EE408A4FF4805001
:1010800000F0B4FD81465FF0200A18EE100A01F06E
:101090003BFF06000F0099FBFAF00AFB1099484647
:1010A00001F056FF0022DFF89C3401F063FF3200AC
:1010B0003B0002F031F802F0EDF8E86041F2010681
:1010C000300000F093FD6881DFF87C14280002F006
:1010D000E7FCDFF8789419F10100019041F21D005E
:1010E00000F084FD019908800020019948804FF4A8
:1010F000805000F07BFD01998880300000F076FD83
:101100000199C880092101A8FFF7B6F90199487231
:101110000A20401C89F800000025FFF768F8002627
:10112000DFF860A15046FFF75FF80023DFF82024C6
:101130004FF47A715046FFF795F8FFF758F807001B
:10114000002114F10C0001F079FD7FE0380080B23D
:10115000FFF751F802004FF47A7340F2CF7000218C
:10116000E3FB02014FF4FA62002300F077FE060071
:1011700025E00921404602F06CFD00208DF80000BA
:1011800094F826008007E1D5A08B002814D1FFF742
:101190002EF8380080B2FFF72EF802004FF47A7371
:1011A00040F2CF700021E3FB02014FF4FA6200230A
:1011B00000F054FE060002E0FFF719F8070041F2C4
:1011C000020000F013FD310089B2884204D294F885
:1011D0002500002800D10125A08B01990880E08B13
:1011E0000199488009210198FFF746F90199487251
:1011F00001236A464921404602F0F0FC99F800308C
:101200009BB24A461121404602F0E8FC0E214046BE
:1012100002F01FFD062000F0D7FC0200D2B24FF40E
:10122000FA6340F2E7300021E3FB02014FF47A72E7
:10123000002300F013FE01F0C2FCFFF727F800289E
:1012400004D094F82500002800D101252800C0B260
:1012500000288ED00D21404602F0FBFC0A214046BA
:1012600002F0F7FC5046FEF7E4FF4FF400716068AF
:1012700001F055FD002001F076FC02B0BDEC028BC0
:10128000BDE8F087101F002004050020801E00200C
:101290001010014014100140AC0400202DE9F0476B
:1012A0002DED028B92B0A24C25008E4EA14801F08C
:1012B000BDFD7060082000F087FC2072072000F060
:1012C00083FC607246F2010000F0A4FCB0EE408A9C
:1012D0004FF4805000F08AFC07005FF0200A18EEFF
:1012E000100A01F011FE8046894697FBFAF00AFBCE
:1012F0001077380001F02CFE0022924B01F03AFEEC
:1013000042464B4601F008FF01F0C4FFE06041F2A5
:10131000010000F06BFC60818B49200002F0C0FBF3
:101320008A49481C0A200022401C08705FF000080F
:10133000FEF75DFF070000200020B075002116F1C8
:101340000C0001F07BFC2DE0380080B2FEF753FF6B
:1013500002004FF47A7340F2CF700021E3FB0201E8
:101360004FF4FA62002300F079FD80B240F2F511EB
:10137000884214DB8021706801F0D1FC0020B07538
:101380008921280002F065FC8E21280002F061FC12
:1013900005E04021706801F0C2FC0020B0752820F3
:1013A00001F00DFC4046C0B2002877D1FEF71FFFC8
:1013B000B07D002802D0012819D0F0E70C212000D0
:1013C00002F047FC8921280002F043FC8E2128000E
:1013D00002F03FFC0221280001F095FFB07D401C87
:1013E000B07500203083FEF702FF0700D7E720002A
:1013F00002F023FB8DF800009DF8000010F0120FA2
:10140000A2D0200002F080FA307401236A46D02175
:10141000200002F097FB9DF800000028BDD09DF849
:10142000003001AA9121200002F08CFB89212800C4
:1014300002F00FFC8E21280002F00BFC01A80178BD
:10144000491E017001780A29A7D110F1010909216B
:101450004846FFF711F899F80910C0B2884298D1B0
:101460004FF4805000F0C2FBB9F8061080B2814200
:1014700093D1B9F800007082B9F80000B083B9F8D0
:101480000200F0830020B0820020308320217068A9
:1014900001F045FC002086F820007EE70D212800A1
:1014A00002F0D7FB0A21280002F0D3FB2948FEF7FF
:1014B000C0FE4FF40071706801F031FC002001F0B3
:1014C00052FB12B0BDEC028BBDE8F0872432002045
:1014D000403200205C32002000080140540500200A
:1014E00000100140801E002004000140081001404F
:1014F000250D0008F0060020000400203404002020
:1015000068040020140C0140100C01401404014038
:1015100000040140040401400C040140080401409F
:1015200008000140007000400470004010ED00E031
:10153000201E0020BC6B000850310020F01E00204F
:10154000A46A00080000E03F9C040020AC1E0020BC
:10155000A1040008101F00200A48006880B27047EC
:1015600080B2094908600020084908600220084943
:1015700008607047002006490860704780B2024941
:1015800008607047240C0040340C0040100C0040F0
:101590000C0C004080B502F00DFC01BD80B580B29E
:1015A000FFF7DEFF01BD80B5FFF7E4FF01BD80B5A9
:1015B00080B2FFF7E3FF01BD80B5FFF7CDFF02BDAD
:1015C00010B5204C0020C4F898000020C4F89C00FE
:1015D00014F1A00002F076FC14F1B80002F072FCE5
:1015E00010BD202080F311881648D0F89810491CAF
:1015F000C0F89810002080F31188704780B50A0069
:101600001049D1F89C305B1CC1F89C3010F14801A6
:1016100012F1480002F071FC01BD80B50A4802F0E9
:101620005FFC01BD80B5084802F05EFC01BD80B5DD
:10163000064802F055FC01BD80B5044802F054FC98
:1016400001BD0000D01B0020701C0020881C002061
:10165000081880B27047081A80B2704780B580B20F
:10166000FFF79CFF01BD80B5FFF79DFF01BD80B571
:1016700080B2FFF79CFF01BD80B5FFF79DFF02BD63
:1016800080B5FFF7F9FF02BD5A4810F11C01C16196
:1016900001625FF0FF3141620021018570472DE951
:1016A000F04104000D002361E260FFF7E9FF80468E
:1016B000022D00D202254F4E16F11C00F16988421E
:1016C00013D1A6F82880F461346220606060A560C0
:1016D000B5F5803F01D34FF6FF752900308DFFF738
:1016E000B7FF80B2FFF7BAFF35E0F769414689B22C
:1016F000308DFFF7B0FF2D18414689B2308DFFF7CE
:10170000AAFF854203D2B8682D1A3F6812E0B86874
:1017100085420FD22900B1F5803F01D34FF6FF710A
:10172000308DFFF795FF80B2FFF7A1FF02E0B868A8
:101730002D1A3F68B868A842F9D32760206840682E
:101740006060606804607C60A560B868451BBD602F
:101750005FF0FF307062BDE8F08110B5254CE169A3
:10176000814213D00168426811604168026851608B
:101770000021C16014F11C010268914205D001688A
:101780008A6881688A180068826032E00168E161D5
:1017900014F11C01E26951600022C260E2699142C9
:1017A00002D1FFF760FF24E0E16989688068411891
:1017B000E0698160FFF764FF010089B2208DFFF7C7
:1017C0004AFFE1698968884213D2E1698968091A88
:1017D000022901D2801C05E04018B0F5803F01D3FA
:1017E0004FF6FF700100208DFFF732FF80B2FFF748
:1017F0003EFF10BDD01B0020C0B200280DD0022833
:1018000007D008D3042805D006D3062806D006D270
:1018100005E004E003E002E001E000E0FFE77047DC
:1018200038B5040000200020002500212100C9B2A5
:10183000002937D0022910D022D3042917D028D369
:10184000062938D041D24FF48071DFF8EC0505004D
:10185000002289B202F05EFB37E04FF48071DFF8BE
:10186000DC050500002289B202F054FB2DE0802146
:10187000DFF8CC050500002289B202F04BFB24E022
:101880008021DFF8C0050500002289B202F042FB8A
:101890001BE04021DFF8B0050500002289B202F00C
:1018A00039FB12E04021DFF8A4050500002289B2CF
:1018B00002F030FB09E04FF48071DFF89405050079
:1018C000002289B202F026FBFFE7DFF8881522002C
:1018D000D2B201EB420250802022002002F074FBC1
:1018E0004FF480722900E4B24FF4807044432034F6
:1018F000200080B202F068FB31BDF8B504000D0095
:101900000026002000272000C0B200281ED0022898
:101910000BD013D304280DD014D306281AD01ED20E
:101920004FF48076DFF8107519E04FF48076DFF819
:101930000C7514E08026DFF8087510E08026DFF8CB
:1019400004750CE04026DFF8007508E04026DFF85B
:10195000FC7404E04FF48076DFF8F474FFE73200A3
:1019600092B239002000C0B24FF480735843203047
:1019700002F01CFB0022310089B2380002F0CAFAE2
:10198000ADB280B2854207D02000C0B2FFF734FF6D
:101990002000C0B2FFF744FFF1BD38B5DFF8B44412
:1019A00020222100002002F001FB00202088AB282B
:1019B0000FD100252800C0B208281BDA2800C0B2C9
:1019C00004EB400041882800C0B2FFF796FF6D1C71
:1019D000F0E7AB202080002408E02000C0B2FFF731
:1019E0000BFF2000C0B2FFF71BFF641C2000C0B239
:1019F0000828F2DB31BD10B50100C9B2FF290AD1B8
:101A000000242000C0B2082808DA2000C0B2FFF786
:101A100007FF641CF5E7C0B2FFF702FF002010BD0E
:101A200070B51C0000250B0000201605360DC9B24C
:101A3000FF2902D192B2120B1300DBB2002B09D0A6
:101A4000022B18D00ED3042B26D01DD3062B34D056
:101A50002BD33BE00125DFF8FC03B6B2304410F590
:101A6000587033E00225DFF8EC03B6B200EB460015
:101A700010F528702AE00425DFF8D803B6B200EB91
:101A8000860010F5907021E00125DFF8C803B6B29A
:101A9000304410F5487019E00225DFF8B803B6B2FB
:101AA00000EB460010F5087010E00425DFF8A403F1
:101AB000B6B200EB8600203008E00425DFF894037E
:101AC000B6B200EB860010F56870FFE7290049B256
:101AD000012906DB2A0052B292B20100200002F076
:101AE000E5FA280040B270BD70B55FF0FF30002409
:101AF0000D0000261005000DC9B2FF2902D192B2D7
:101B0000120B15002900C9B2002909D0022918D0EA
:101B10000ED3042926D01DD3062935D02BD33CE083
:101B20000124DFF8301380B2084410F5587634E011
:101B30000224DFF8201380B201EB400010F5287674
:101B40002BE00424DFF80C1380B201EB800010F5C9
:101B5000907622E00124DFF8FC1280B2084410F5F0
:101B600048761AE00224DFF8EC1280B201EB400064
:101B700010F5087611E00424DFF8D81280B201EBEA
:101B8000800010F1200608E00424DFF8C81280B2BB
:101B900001EB800010F56876FFE7200040B20128D5
:101BA0000FDB220052B292B21900300002F07EFA2E
:101BB000DFF8A4020078002803D02800C0B2FFF7A5
:101BC0001AFF200040B270BD0021010089B2C1F3AC
:101BD0000231002909D1DFF87C1280B20005000D26
:101BE000084490F86003C0B27047FEE7002101008E
:101BF00089B2C1F3023101290AD1DFF8581280B24B
:101C00000005000D01EB4000B0F8A00280B2704763
:101C1000FEE700009FED850A010089B2C1F30231A1
:101C2000062909D1DFF82C1280B20005000D01EB66
:101C3000800090EDE80A7047FEE7020092B2C2F31E
:101C40000232002A07D1DFF80C2280B20005000D15
:101C5000104480F860137047020092B2C2F302325F
:101C6000012A08D1DFF8EC2180B20005000D02EB5B
:101C70004000A0F8A0127047010089B2C1F3023100
:101C8000062908D1DFF8CC1180B20005000D01EB68
:101C9000800080EDE80A704770B51C0000250B003D
:101CA00000201605360DC9B2FF2902D192B2120BDF
:101CB0001300DBB2002B09D0022B18D00ED3042B5B
:101CC00025D01DD3062B32D029D338E00125DFF8EB
:101CD0008401B6B2304410F5FC6030E00225DFF834
:101CE0007401B6B200EB460010F5E46027E004256D
:101CF000DFF86001B6B200EB860010F5B4601EE0BC
:101D000001255448B6B2304410F5F46017E00225BE
:101D10005048B6B200EB460010F5D4600FE0042541
:101D20004C48B6B200EB860010F5946007E004253D
:101D30004848B6B200EB860010F50260FFE72900C4
:101D400049B2012906DB2A0052B292B201002000FA
:101D500002F0ACF9280040B270BDF8B55FF0FF3476
:101D600000200D00002617053F0DC9B2FF2902D142
:101D700092B2120B15002900C9B2002909D002291C
:101D800016D00DD3042922D01AD306292FD026D35A
:101D900035E001202F49BFB2394411F5FC662EE031
:101DA00002202C49BFB201EB470111F5E46626E0A1
:101DB00004202849BFB201EB870111F5B4661EE08B
:101DC00001202449BFB2394411F5F46617E002201E
:101DD0002049BFB201EB470111F5D4660FE00420A2
:101DE0001C49BFB201EB870111F5946607E004209E
:101DF0001849BFB201EB870111F50266FFE7010048
:101E000049B201290EDB40B280B202001900300055
:101E100002F04CF910480078002803D02800C0B226
:101E2000FFF7E9FD200040B2F2BD00000000000015
:101E30000949087070470000C4270020C42800200A
:101E4000C4290020442A0020C42A0020042B00209A
:101E5000442B0020A4270020EC060020BBBBE1B1EE
:101E6000B2F5803F80F07E80022A1ED98C46B1FBFD
:101E7000F2F102FB11C31B0443EA1043B3FBF2FC73
:101E800002FB1C3380B240EA0343B3FBF2F002FBD7
:101E9000103240EA0C4000237047022A05D98446DC
:101EA000B0FBF2F002FB10C270474AB105D100F05E
:101EB000010249085FEA30007047002200237047A2
:101EC00002F048B90B000200002100207047904248
:101ED00071EB030CF6D3B3F5803F2FD2F0B5B3FA14
:101EE00083F7B1FA81F4A7F10F0E3D1B5340CEF1F9
:101EF000200602FA0EF2F3415340B5F10F0746D81F
:101F00000F3C2C444140C4F12006A040F141414027
:101F1000B1FBF3F603FB1611A2FB0645001BA9411A
:101F200002D2761E8018594180EA010221FA0EF38E
:101F300062FA0EF200215A403046F0BD30B4B1FBD7
:101F4000F3FC03FB1C11A2FB0C45001BA94103D2AF
:101F5000ACF1010C8018594130BC02460B4660467A
:101F600000217047B2F1807F65D3F0B5B2FA82F7F5
:101F7000B1FA81F4C7F10F063D1B22FA06F307F10F
:101F8000110EF24120355A40B5F10F07B8D9414042
:101F9000C4F12006A040F1414140B1FBF3FC03FB3A
:101FA0001C11A2FB0C45001BA94103D2BCF1010C82
:101FB000801859410F2F12D30F3FC90341EA5041F6
:101FC000B1FBF3F603FB1611A2FB0645D4EBC030C0
:101FD000A94102D2761E8018594146EACC3C07B38B
:101FE0004140C7F12006B840F1414140B1FBF3F652
:101FF00003FB1611A2FB0645001BA94102D2761E67
:102000008018594180EA010221FA0EF3C7F1200439
:1020100062FA0EF20CFA07F05A402CFA04F130433F
:10202000F0BD80EA010221FA0EF3002162FA0EF2FD
:1020300060465A40F0BD8C46B1FBF2F102FB11C381
:102040001B0243EA1063B3FBF2FC02FB1C331B02CE
:102050004CEA002043EA1063B3FBF2FC02FB1C33A2
:102060001B024CEA002043EA1063B3FBF2FC02FBC4
:102070001C331B024CEA002043EA1063B3FBF2FC62
:1020800002FB1C324CEA00200023704780B5202060
:1020900080F31188FFF7C1FA01BD80B5FFF7C2FADE
:1020A000002080F3118801BD80B5FFF7EFFF01BD6F
:1020B00080B5FFF7F2FF01BD80B502F068F801BD01
:1020C00001210170002141600021C16000210174E3
:1020D000704738B504000D00FFF7E6FF65606868DB
:1020E000A060200002F06EF80020E0600220207066
:1020F000FFF7DEFF31BD10B50400FFF7D5FF20006C
:1021000002F01DF90020E0600020606001202070D6
:10211000FFF7CEFF10BD70B504000D001600FFF7ED
:10212000C3FFE0680121A9400843E06032002900B4
:10213000C9B2200002F046F9FFF7BAFF70BDF0B453
:102140000246106895681318506803EB5004C007E6
:102150001DD54D441BE013F8017B05F8017B491E9A
:10216000F9D1A0B1B60813F8011B06F00306032E3F
:1021700008BF13F8016B01EB06214942801C29447A
:1021800005D011F8016B05F8016B401EF9D1A3428F
:102190000ED013F8016B16F0030104BF13F8011BF6
:1021A000C91C30090F28DAD113F8010B0F30D6E71C
:1021B000F0BC02F10C00704780B50100634A106961
:1021C000002800F0A58062481369B3F8443090FB02
:1021D000F3F010635E481369B3F8463090FBF3F0F8
:1021E0005063536B106B1B1A5020B3FBF0F0108739
:1021F000B2F93800022801DA022010871069008B3A
:102200000B001BB2984208DB1069408B00EE100AED
:10221000B8EE400A00F07DF87AE01069008B0B0000
:102220001BB2984212DA1069808B0B001BB29842E5
:102230000CDB09B21069008B091A00EE101AB8EE17
:10224000C00AD2ED050A20EE200A47E01069808B13
:102250000B001BB298421ADA1069008C0B001BB2FB
:10226000984214DB09B21069808B091A00EE101A2B
:10227000B8EEC00AD2ED060A20EE200A1069C08B23
:1022800000EE900AF8EE600A30EE800A26E010694F
:10229000008C0B001BB298421ADA1069808C0B007C
:1022A0001BB2984214DB09B21069008C091A00EEC7
:1022B000101AB8EEC00AD2ED070A20EE200A106903
:1022C000408C00EE900AF8EE600A30EE800A05E0DD
:1022D0001069C08C00EE100AB8EE400AD2ED030A75
:1022E00020EE200ABDEEC00A10EE101A080000B25F
:1022F0001368984202DA1068401A01E01068081A60
:1023000000B2401E092803D30020107209B21160E8
:1023100001BD0E4991F90800002807D1086801287D
:1023200004DB012008727FF06300086008480A6936
:10233000B2F8442090FBF2F00863086B4008086391
:10234000086B142801D2142008637047343C002025
:10235000A0860100002108E0374A002342F831300E
:10236000002302EBC1025360491C1029F4D3334906
:102370000A6852F0BD020A6009680168304A1160BB
:102380008168304A116041682F4A1160C1682F4A44
:10239000116041692E4A116001692E4A11608169FC
:1023A0002D4A1160016A2D4A1160C1692C4A1160E1
:1023B000416A2C4A1160C16A2B4A1160816A2B4A1A
:1023C0001160016B2A4A1160816B2A4A1160406BCF
:1023D000294908607047F0B4032A01D1016102E085
:1023E000042A00D14161254B9E5C00221500140097
:1023F0001300002709E0344305E035435FEA014C50
:10240000F9D452F00F0249007F1C082F09D21B019A
:1024100012012D0124015FEA016CEED453F00F0389
:10242000ECE741680A402243426001680B402B43BD
:102430000360F0BC70470000A43100201810024077
:102440000C08014004080140000801400C0C014048
:10245000040C0140000C01400C100140041001402C
:10246000001001400C14014004140140001401400C
:102470000C1C0140041C0140001C0140806B000842
:10248000704780B5FFF7FCFF01F0E8FF0848FFF751
:1024900061FF00F0FCFC02F04DF8FFF70DFE02F0CA
:1024A000ADF802F01DF902F07CF9FFF773F801BDF9
:1024B000686A0008081880B27047081A80B270472E
:1024C00080B5FFF770F801BD80B580B2FFF76FF8F7
:1024D00001BD80B5FFF770F802BD002080F31188C0
:1024E00062B6704780B5202080F31188FFF79FF80F
:1024F00001BD80B5FFF7A0F8002080F3118801BD71
:1025000080B5FFF7E6FF02BDF8B5454CE569FFF77A
:10251000F7FF0700390089B2208DFFF7CEFF0600D4
:10252000A868864205D2E06914F11C0188421FD1D7
:102530003EE0218DA86841182185A868361A14F15B
:102540001C00296848602968E161EF680021E960A2
:10255000E169814201D1FFF7B3FFFFF7CAFF2869A4
:10256000B847FFF7BFFFE569A8688642E1D2CEE72A
:10257000208D30182085E0698068861BE0698660C0
:10258000390089B2208DFFF798FF0100A868411A31
:10259000022901D2022104E0B1F5803F01D34FF6B8
:1025A000FF71380080B2FFF785FF80B2FFF78CFF24
:1025B000F1BD80B502F004F902F034F902F08FF9B0
:1025C00001BDFEE710B502F0F0F9FFF75DF8FFF787
:1025D000F0FF01F05FFCFEF7F3FF114C8022114980
:1025E00014F1300000F004FAA0610F48A169C8613D
:1025F0000120A16981F8200002F01BFBA06948308E
:1026000001F06EFCFFF769FF084800F037FA10BDD3
:1026100072B60349C862FEE780B5FFF775FF01BDDA
:10262000D01B00203C6B000800040020546B000805
:1026300080B50120FFF7C8FAC0B2AA280ED0012148
:102640000420FFF7FAFA04210920FFF7F6FAAA217D
:102650000120FFF7F2FA0020FFF7CDF901BD38B5F0
:10266000FFF7E6FF0420FFF7AFFAB54C2071B54D38
:10267000AC600920FFF7A8FA287304202873287B90
:10268000002806D002280ED008D3042815D00FD376
:1026900018E04FF41650AC49086017E04FF496402C
:1026A000A949086012E04FF41640A74908600DE000
:1026B0004FF46140A449086008E05FF4E130A249AA
:1026C000086003E04FF416509F4908609E499F48F8
:1026D00001F0B8FF00949E4B812241F270119D4899
:1026E00000F0E1F928609C4800F0A0FB686031BD73
:1026F00070472DE9F84FA0B004000D00280068468F
:102700001600A8786F7857EA002795F8008018F02F
:102710007F08287810F08000C0B2002826D1002061
:10272000B6F1020915F1030A0020FFF781FB5FF003
:10273000000B01E01BF1010B58464146C0B2C9B283
:10274000884210D253463A0092B2FF210020FFF790
:10275000CBF9B9EB000947FA80F740B2824448460A
:10276000C0B20028E6D10120FFF762FB68460221D3
:102770000170401C10210170401C714909790170E1
:10278000401C401C29780170401C69780170401C75
:10279000A9780170471CB01E0020A8786D7855EA12
:1027A000002500260BE03B002A0092B2FF2100200A
:1027B000FFF736F945FA80F540B20744761C300041
:1027C0004146C0B2C9B28842EDD30DF10300381AB8
:1027D000401E8DF803007D1C6846281A811EC9B270
:1027E0000DF1010002F099FA3870032028700420DE
:1027F00000F0E5F968462D1A6D1C2A006946200094
:1028000023685B68984721B0BDE8F08F2DE9F84F49
:10281000A0B004000D00280068461600A8786F7864
:1028200057EA002795F8008018F07F08287810F004
:102830008000C0B2002826D10020B6F1020915F1AF
:10284000030A0020FFF7F4FA5FF0000B01E01BF130
:10285000010B58464146C0B2C9B2884210D2534615
:102860003A0092B2FF210020FFF777FAB9EB000996
:1028700047FA80F740B282444846C0B20028E6D109
:102880000120FFF7D5FA684602210170401C102193
:102890000170401C2A4909790170401C401C2978AC
:1028A0000170401C69780170401CA9780170451CBA
:1028B000B01E002000260BE02B003A0092B200214F
:1028C0000020FFF7E9F947FA80F740B20544761C8B
:1028D00030004146C0B2C9B28842EDD30DF10300C9
:1028E000281A401E8DF803006E1C6846301A811E9F
:1028F000C9B20DF1010002F010FA28700320307007
:10290000042000F05CF96846361A761C32006946ED
:10291000200023685B68984721B0BDE8F08F80B540
:1029200008004878097851EA0021064A50680028D2
:1029300005D0012010FA01F1506800F0F0F901BD56
:1029400078050020281F00206C0500207832002028
:102950003D4E0008600A0020C46B0008006070470C
:102960000168814201D0012000E00020C0B2704720
:102970000060406070470168814201D0012000E0A2
:102980000020C0B270470100086802680A60704702
:1029900001604A6842604268106048607047010008
:1029A000086802680A600A685160704780B5202094
:1029B00080F31188FEF731FE01BD80B5FEF732FECF
:1029C000002080F3118801BDDFF8AC0280697047F8
:1029D000C069704780B50100082002F057F801BDBA
:1029E00010B50C00FFF7DBFF446201F0E8FF10BDFB
:1029F00010B50400A260022084F82000002084F8B2
:102A00002100E2630020A06300206063012084F8BD
:102A10002200A161DFF860022061416961616169A2
:102A20000C61446114F12800FFF798FF14F12C00A9
:102A3000FFF79EFF14F1480001F044FA200010BD9A
:102A400001E00270401C8842FBD3704780B581686A
:102A5000B1F160034168D961B3F16401D9600169E2
:102A6000DA6811644169DA6851648449DA68116688
:102A7000C26801681800FFF7BBFF02BD10B5040073
:102A80005522A1686068FFF7DBFFFFF78FFF20008A
:102A9000FFF7DCFF04000021200002F019F8FFF727
:102AA0008CFF200010BD2DE9F0410700884614007E
:102AB0001E00069D552207EB08013800FFF7C0FFF6
:102AC000FFF774FF07EB08006038C761B0F16401DD
:102AD000C160C1680E64C1684D646849C26811660E
:102AE00022006749FFF784FF04000021200001F065
:102AF000EFFFFFF762FF2000BDE8F08110B5040092
:102B0000FFF754FF94F82200401E84F8220094F846
:102B10002200002824D194F820000F2820D1206919
:102B200061690861606921694861FFF746FF94F8AF
:102B3000210010F00300C0B2012802D0022806D004
:102B40000DE02000FFF744FF01F078FE07E02000D1
:102B5000FFF73EFF0100206C02F0BCF9FFE701E047
:102B6000FFF72BFF10BD10B50400FFF71FFF20007B
:102B700000F001F810BD10B53F498C69606205E0B6
:102B800014F12800FFF7FFFE01F019FF14F12800EF
:102B9000FFF7E6FE0028F3D194F8220000280AD1BE
:102BA00094F8210010F0030F05D1206961690861D4
:102BB0006069216948610F2001F021FF10BD10B547
:102BC0000400FFF7F3FE2000FFF704FFFFF7F5FE18
:102BD00010BD10B50400FFF7F7FE2060446203202B
:102BE00001F00DFFFFF7F0FE406A10BD38B505009B
:102BF0000C00FFF7E9FE002C02D15FF0FF3005E08A
:102C0000286045622100032001F040FF32BD80B5FD
:102C10000268002A06D00268002303605162100097
:102C200001F0CDFE01BD80B50268002A05D0026822
:102C300000230360100001F04BFF01BD38B5040014
:102C40000D00FFF7B3FE29002000FFF7ECFFFFF7B0
:102C5000B4FE31BD10B50C00002C02D15FF0FF3086
:102C600008E0010004488069FFF792FE210004207B
:102C700001F00CFF10BD0000D01B002049640008CB
:102C8000D46B000838B504000D002000FFF773FE78
:102C9000002803D029002000FFF7A2FE31BD30B488
:102CA000002513E050F8042BD30744BFA9F101031A
:102CB0009A18091F042942F8045BFAD213468C07BC
:102CC00044BF15809B1CC90748BF1D7050F8041BEA
:102CD0000029E7D130BC704780B5202080F31188EF
:102CE000FEF79BFC01BD80B5FEF79CFC002080F345
:102CF000118801BD70B505000C002E680CE0F0686D
:102D00002043F060002C02D03069044203D0B16847
:102D1000706800F012F83668AE42F0D170BD38B578
:102D200004000D00FFF7D8FF2900200000F005F88F
:102D300001F0F4FEFFF7D7FF31BD80B5426B1143C0
:102D4000416390F820100A2903D1416B426A114275
:102D500009D190F820100B2909D1426B416A0A4031
:102D6000416A8A4203D10021416201F028FE01BD7F
:102D7000F8B506000D0011488769FFF7ADFF7C6BC1
:102D80003440002C13D1002D03D1FFF7ACFF0020FD
:102D900013E07E6229000A2001F078FE002803D5A6
:102DA000FFF7A1FF002008E0786B06403400786B45
:102DB000A0437863FFF797FF2000F2BDD01B0020EF
:102DC00080B5202080F31188FEF727FC01BD80B577
:102DD000FEF728FC002080F3118801BD8069704750
:102DE00010B5FFF7EDFF1048046994F82200401C6D
:102DF00084F82200FFF7EBFF200010BD38B5040077
:102E0000FFF7DEFF25690848854201D1002504E06F
:102E100095F82200401C85F82200FFF7D8FF20001B
:102E2000FFF76CFE280032BDD01B002038B505002E
:102E3000FFF7D6FF04002000FFF7D0FF290002F0C3
:102E400055F8002807D02000FFF7D8FF0400002C19
:102E5000F1D1002032BD2000FCE780B5202080F3B6
:102E60001188FEF7DAFB01BD80B5FEF7DBFB002021
:102E700080F3118801BD80B5FFF7EFFF01BD80B57C
:102E8000FFF7F2FF01BD80B502F076F801BD80B515
:102E900002F077F901BD80B5012101700021416088
:102EA000002181600021C160002101610021416198
:102EB0001830FFF7E8FF01BD38B504000D00FFF73B
:102EC000DAFF6560200002F086F902202070FFF72B
:102ED000D6FF31BDF8B504000D0016001F00FFF746
:102EE000CAFF3B0032002900200000F003F8FFF782
:102EF000C6FFF1BD80B58260C3600161032101702E
:102F000002F098F901BDFFFFC0F3C75181B1FF295D
:102F100006D0C110400721F0E04101F16051704737
:102F200041020CBF40F4E0016FF000410020704707
:102F300000F0004100020AD0B0FA80FC00FA0CF068
:102F400001F16051A1EB0C5101EBD021400570471C
:102F5000C11768B14840401AB0FA80F29040D21CC4
:102F6000C907C2F5846241EA025202EBD021400552
:102F70007047FEE7B0B581EA030C0CF0004C40F25C
:102F8000FF7515EA11541DBF15EA1357AC42AF4245
:102F900039E0E41923EA455343F48013C90241F0B0
:102FA000004141EA505EC7021100A7FB020200285F
:102FB0004FF00000EEFB01204FF00001E3FB072182
:102FC00018BF42F00102401800214941E3FB0E0105
:102FD000A4F580640F0302D252004041494154F1EC
:102FE00001046CDD470872F1004250F1000051EB22
:102FF0000451A1F580115CBF41EA0C01B0BD4CEA5F
:1030000005510020B0BD05EA1357AC4214BFAF42D2
:1030100041E050EA410E1CBF52EA430E02E0614615
:103020000020B0BD24423C441BD15FEA070EF6D01D
:10303000090302BF01460020AEF1140EB1FA81F778
:10304000AEEB070401FA07FE0C37C7F1200100FAC6
:1030500007F7C8404EEA000E23EA455343F48013B5
:10306000A2E733F00043B3FA83F704BFB2FA82FE5B
:1030700077440B3FE41BB7F1200E2FBF02FA0EF38B
:10308000BB40C7F1200E22FA0EFE38BF43EA0E0302
:10309000BA40641C82E750EA410E14BF52EA430E64
:1030A0006FF000014FF4001717EB430F8ABF19466A
:1030B00017EB410FB5E74CEA05510020B0BDD4F144
:1030C0000104B4F120070FDAC4F12007520828BF29
:1030D00042F0010210FA07F501FA07F7E1BF2A43AF
:1030E000E0403843E1400FE0352C98DCC7F1200484
:1030F00052EA400220FA07F218BF42F0010231FA08
:1031000007F0A1400A43002172F1004250F1000093
:1031100051EB0C01B0BD000070B44FF0004591EAD6
:10312000030F42F1E3806B40841A71EB030604D273
:103130006E40001BB141121973414FF4001C1CEB8F
:10314000410F34BF7CEB430683E00C0DA4EB135618
:10315000362E00F37C80012E45EAC32341DC43EA8E
:10316000525312BFD20292025B08240545EAC121E4
:1031700041EA5051D2EBC020994125D407D1B0FA91
:1031800080F610FA06F162D00020203608E0B1FA8D
:1031900081F6B140C6F1200220FA02F21143B0409C
:1031A0004FEAF474B4EB465434F001064FEA740469
:1031B0000AD8D6F50016760D04F00044F04061FA06
:1031C00006F25040F1404840C00A40EA415021F028
:1031D000004128BF5FEA500550F1000044EBD121C7
:1031E00035E0DB0A45EAC121C90AB6F120050EDD4A
:1031F00042EA0242120CC5F1200603FA06F6EB4041
:1032000042EA06056D42984161F100010DE062FA63
:1032100006F5F240554063FA06FC82EA0C02F340E0
:103220005A406D42904161EB030111F4801F05D1BA
:10323000641E620502D06D004041494121F48011B5
:10324000430875F1004350F1000041EB045170BC9C
:1032500070471CEB410F15D223F0004352EA43069E
:103260000BD04FEA4C0CBCEB410F04D80C0D661E82
:10327000342EB7DDEBE7801A994150EA410608BFCA
:103280000021E4E708BF1CEB430F28BF6FF00001EB
:10329000DDE7000001F000428B1AA3F16051B1F5A7
:1032A000801F0ADBB1F17F6F1FD242EAC102C10069
:1032B00071F1004142EB507070470B15C3F10903E7
:1032C000212B10D2890241EA905180020128494104
:1032D00041F0004121FA03F0C3F12003994071F15C
:1032E000004150417047100070476FF0000013EB31
:1032F000103F5CBF000E42EAC050704780B50C2101
:1033000000F0A7FC01BD1CB504008DF800102021C1
:10331000200000F09EFC01236A464321200000F0BB
:103320005DFC13BD1CB504002021200000F091FCC1
:103330000220FFF744FC01236A46C121200000F06F
:1033400001FC9DF800008006F2D513BD7CB5040099
:103350000D002021200000F07CFC01236A46C021E2
:10336000200000F0EFFBEDB2012D06D19DF800002A
:1033700050F040008DF8000005E09DF8000010F0CE
:10338000BF008DF8000001236A464021200000F0B4
:1033900025FC2221200000F05CFC8F208DF800002D
:1033A00001236A466121200000F018FC0426212137
:1033B000200000F04EFC002512E0DFF8B4060123E7
:1033C0002900C9B200EB41014A1C2900C9B210F81A
:1033D000111051F04001C9B2200000F0FFFB6D1C3C
:1033E00028003100C0B2C9B28842E6D320212000B3
:1033F00000F02FFC73BD1CB5040003208DF8000005
:103400002021200000F025FC01236A467D212000B8
:1034100000F0E4FB18208DF8000001236A467C21AF
:10342000200000F0DBFB13BD38B504001500481E7A
:103430008DF800002021200000F00BFC01236A46DB
:103440004B21200000F0CAFB01236A46CC2120005A
:1034500000F078FB9DF8000010F0FC008DF80000F3
:103460009DF80010DFF80C06EDB2405D41188DF8B4
:10347000001001236A464C21200000F0AFFB31BD53
:1034800038B504000D002021200000F0E2FB0123EC
:103490006A46CC21200000F055FB9DF8000010F09A
:1034A000F3008DF800009DF80010DFF8CC05EDB2B8
:1034B000405D01438DF8001001236A464C21200035
:1034C00000F08CFB002008E0411CC9B24900DFF885
:1034D000AC250300DBB2D154401C0100C9B208295D
:1034E000F2DB0823DFF894251021200000F076FBA2
:1034F00031BD2DE9FC4105000F0016009846089CDF
:103500002021280000F0A5FB01236A46CD212800D8
:1035100000F018FB9DF8000010F0F0008DF800009E
:103520009DF80000B60056EAC70656EA480626434C
:1035300006438DF8006001236A464D21280000F003
:103540004DFB01236A46CD21280000F0FBFAA87A42
:1035500010F03F008DF8000001236A465221280038
:1035600000F03CFB01236A46D221280000F0EAFA71
:10357000688980B2000A8DF8000001236A46532151
:10358000280000F02BFB01236A46D321280000F01D
:10359000D9FABDE8F38138B504000D0020212000E0
:1035A00000F057FB01236A46CD21200000F0CAFA43
:1035B0009DF8000010F07F008DF800009DF80000DD
:1035C00050EAC5108DF8000001236A464D21200005
:1035D00000F004FB31BD38B504000D0020212000AF
:1035E00000F037FB01236A46CD21200000F0AAFA43
:1035F0009DF8000010F0BF008DF800009DF800005D
:1036000050EA85108DF8000001236A464D21200004
:1036100000F0E4FA31BD7CB504000D001600202155
:10362000200000F016FB01236A46CD21200000F0A7
:1036300089FA9DF8000010F0CF008DF800009DF889
:103640000000360156EA451606438DF80060012356
:103650006A464D21200000F0C1FA73BD7CB504001C
:103660000D0016002021200000F0F3FA01236A4625
:10367000CE21200000F066FA9DF8000056EAC5163B
:1036800006438DF8006001236A464E21200000F0B9
:10369000A5FA73BD38B52DED028B82B00400DFEDC5
:1036A000940AB4EE600AF1EE10FA0BD500208DF802
:1036B0000000DFED900A20EE200AF1EE000A20EE75
:1036C000208A28E0DFED8C0AB4EE600AF1EE10FAF1
:1036D0000BDB60208DF80000DFED860A20EE200A6B
:1036E000F7EE000A20EE208A15E0DFED820A60EE98
:1036F000200AB0EE001A20EE818ADFED800AB4EED7
:10370000600AF1EE10FA03DB40208DF8000002E0C1
:1037100020208DF800002021200000F09AFA0123DB
:103720000DF10102E021200000F00CFA9DF80100EB
:1037300010F09F008DF801009DF800109DF8010029
:1037400001438DF8001001236A466021200000F03B
:1037500045FA9FED6B0A88EE000AFDEEC00A10EEF6
:10376000900A8DF800009DF8000000EE900AF8EE37
:10377000600A30EE600ADFED630A20EE200ABCEE3C
:10378000C00A10EE105A01236A466221200000F0A0
:1037900025FA28008DF8000001236A4663212000E5
:1037A00000F01CFA2800000A8DF8000001236A4688
:1037B0006421200000F012FA2D0C8DF80050012336
:1037C0006A466521200000F009FA02B0BDEC028BC8
:1037D00031BD38B504000D002021200000F039FA79
:1037E000DFF89C02EDB22844007D8DF80000012333
:1037F0006A467F21200000F0F1F931BDF8B50400E0
:103800000D002221200000F024FA2800C0B2052873
:1038100003DA44208DF8000002E054208DF8000007
:1038200001236A466F21200000F0D8F920212000F2
:1038300000F00FFA0323DFF84C022900C9B200EBB5
:10384000C1025421200000F0C9F90823DFF8380232
:103850002900C9B200EBC1025721200000F0BEF9D7
:103860002121200000F0F5F9DFF820623000142754
:103870002900C9B27943405A8DF8000001236A46F5
:103880006C21200000F0AAF91223EDB27D4306EB73
:103890000500821C6D21200000F0A0F920212000ED
:1038A00000F0D7F9F1BD38B504002221200000F066
:1038B000D0F9002512E0DFF8D80101232900C9B2B0
:1038C00000EB41014A1C2900C9B210F8111051F057
:1038D0004001C9B2200000F081F96D1C2800C0B27F
:1038E0000328E8DB2021200000F0B3F931BD0000FF
:1038F0000000C84300247449000048440100E1432B
:103900000024744B0000804980B501236A46EA21F7
:1039100000F018F99DF8000002BD7CB504004022BB
:103920005C4D29005C4E300000F0C0FB40225B4E35
:103930002900300000F0BAFB2000FFF7B4FF2000A0
:10394000FFF759FD01212000FFF700FD03220421AC
:103950002000FFF769FD112200212000FFF790FDF4
:10396000012000900123012201212000FFF7C1FD69
:1039700000212000FFF70FFE00212000FFF72BFEA3
:10398000012201212000FFF746FE362200212000FF
:10399000FFF764FE94ED030A2000FFF77BFE217A17
:1039A0002000FFF716FF617A2000FFF727FF2000B5
:1039B000FFF7B8FC73BD1CB5040001236A46E02183
:1039C000200000F0BFF89DF8000050F008008DF8CE
:1039D000000001236A466021200000F0FFF8012367
:1039E0006A46E021200000F0ADF89DF800000007D5
:1039F000F5D413BD1CB5040001236A46FE21200046
:103A000000F0A0F89DF8000050F080008DF8000054
:103A100001236A467E21200000F0E0F801236A4677
:103A2000FE21200000F08EF89DF800000006F5D47D
:103A300013BD80B5FFF762FC01BD38B5040001235A
:103A40006A46C421200000F07DF89DF8005028004F
:103A5000C0B2002808D000208DF8000001236A467B
:103A60004421200000F0BAF82800C0B232BD0000A6
:103A7000DC6B0008A0050020A4050020C430002055
:103A800084050020F00500202806002060060020A4
:103A9000E8050020A8050020D030002010310020CB
:103AA0001CB5040061602000FFF728FC08212000FD
:103AB00000F0CFF8200000F0F6F82021200000F000
:103AC000C8F804208DF8000001236A464821200030
:103AD00000F084F801236A46C121200000F032F88A
:103AE0009DF8000050F001008DF8000001236A46A7
:103AF0004121200000F072F89DF8000010F0FE0057
:103B00008DF8000001236A464121200000F066F88C
:103B10002000FFF702FF2000FFF74DFF2000FFF716
:103B200069FF2000FFF785FF60898DF80000012301
:103B30006A464821200000F051F8200000F0B3F858
:103B400013BD00002DE9FC41040015001E00002CEF
:103B500001D1FF203DE08DF800106068006800F0A2
:103B600012FE606841686068006800F0C8FD0127C7
:103B70006068C06817FA00F06168896848616A4641
:103B800001216068006800F0D6FDDFF84C80022259
:103B90004FF400414046FEF71EFC2A00F6B2310009
:103BA0006068006800F0DBFD10224FF400414046E1
:103BB000FEF711FC6068C068874060688068076134
:103BC0006068006800F0A9FD6068006800F0E0FD32
:103BD0000020BDE8F6810000000C0140F8B50400AB
:103BE00015001E00002C01D1FF2031E08DF80010DF
:103BF0006068006800F0C7FD606841686068006840
:103C000000F07DFD01276068C06817FA00F0616868
:103C1000896848616A4601216068006800F08BFD90
:103C2000002D06D02A00B6B231006068006800F0AE
:103C300082FD6068C068874060688068076160686E
:103C4000006800F06AFD6068006800F0A1FD0020D7
:103C5000F2BD32B504006068006800F094FD606851
:103C600041686068006800F04AFD01256068C0682E
:103C700015FA00F06168896848616A460121606848
:103C8000006800F058FD6068C06885406068806822
:103C900005616068006800F040FD6068006800F041
:103CA00077FD002032BD70B5040020212000FFF711
:103CB000D0FF14F1100500260EE001232A0056F073
:103CC000C001C9B22000FFF73DFF6D1C03E03000CA
:103CD000C0B20528F1D1761C3000C0B21F28F6DB37
:103CE00014F12E0520260FE001232A0056F0C00112
:103CF000C9B22000FFF726FF6D1C04E03000C0B2FF
:103D000036380628F0D2761C3000C0B2402808DAD7
:103D10003000C0B22128F6D03000C0B22728EDD143
:103D2000F1E721212000FFF794FF14F14605212639
:103D30000FE001232A0056F0C001C9B22000FFF7AE
:103D400001FF6D1C04E03000C0B227380528F0D216
:103D5000761C3000C0B23F2804DA3000C0B22528FB
:103D6000F1D1F5E720212000FFF773FF70BD0000BF
:103D700080B5202080F31188FDF759FC01BD80B586
:103D8000FDF75AFC002080F3118801BD80B5FFF7D4
:103D9000EFFF01BD80B5FFF7F2FF01BD80B5FEF773
:103DA0003BFC01BD80B5FDF71CFC00F02EF800F0D7
:103DB0005DFF01BD80B51E48016851F0080101603A
:103DC00000681C48016851F48021016048F69F405A
:103DD000194908604FF6FF7018490860002018491B
:103DE000086000201749086000201749086000207B
:103DF000164908600120164908600120154908602D
:103E00000821322001F0DCFA01BD80B511490869B2
:103E1000CA6802F0FF021040C2430A61800705D55C
:103E2000FFF7B4FFFFF7BAFFFFF7B4FF01BD0000D3
:103E30001C100240042004E0280C00402C0C004020
:103E4000180C0040340C00400C0C0040040C0040E6
:103E5000140C0040000C004030B4C3685B1CC3600D
:103E60008368C91A891A8160D0E9044582680023F1
:103E7000A2186B41C0E9042341688268914201D2D3
:103E80008168416081680268914201D28168016065
:103E900030BC704738B586B01C4D0020C5F8900086
:103EA000684600F00FF80424684600F019F86846E8
:103EB00000F01AF8641E002CF6D10098C5F89000A6
:103EC00007B030BD5FF0FF3101600021416000218B
:103ED00081600021C16000220023C0E904237047F3
:103EE0000B4909688160704780B509490968074A2C
:103EF000D2F89020FFF7B0FF01BD80B5044A1268E8
:103F00008A6000228968FFF7A7FF01BDD01B00204F
:103F1000041000E030B400240DE01500ADB22D0A0D
:103F200023009BB2C35C5D40084BEDB233F8153003
:103F300093EA0222641C23000D009BB2ADB2AB4297
:103F4000EBD3100080B230BC7047000094660008CC
:103F500080B5202080F31188FDF75FFB01BD80B59F
:103F6000FDF760FB002080F3118801BD10B54FF410
:103F70008062C0B24FF400644A4B04FB003001F091
:103F800063FA10BD38B504000D00FFF7E1FF4FF4F0
:103F900080622900E4B24FF40063424803FB04044A
:103FA000200001F067FAFFF7DAFF31BD80B592B269
:103FB000022392FBF3F200F1006010F5E04001F003
:103FC00043FA7FF0010002BD2DE9F84F13009BB2C8
:103FD00013FA80F403009BB24FF4006593FBF5F8ED
:103FE000E40A641C1500070000264046C0B2002801
:103FF00006D0BFB24246D2B24FF4006000FB127747
:1040000000912AE0AB4609E0380080B2D0F50060AC
:10401000290089B28842F5DAD7F5006B5A4692B288
:104020000098310089B20144380080B2484401F060
:10403000B6FA49464046C0B2FFF7A4FF1BEB06069E
:104040001BEB0707380080B290FBFAF70AFB170753
:10405000B5EB0B0B5D4618F1010840462100C0B2DC
:10406000C9B288421AD2DFF8409049464046C0B2F1
:10407000FFF77CFF380080B24FF4006A90FBFAF142
:104080000AFB11000028BFD1280080B240F60101D0
:10409000884201DBD346C1E7AB46BFE77FF00100B2
:1040A000BDE8F28F007000083434002062B38B0743
:1040B00008D0521E11F8013B00F8013B00F02480AB
:1040C0008B07F6D1830740F0208000BF103A07D35A
:1040D00030B4B1E83810103AA0E83810F9D230BC4A
:1040E000530724BFB1E80810A0E8081044BF51F8F6
:1040F000043B40F8043BD20724BF31F8022B20F8E0
:10410000022B44BF0B7803707047121F17D35B005C
:1041100009D151F8043B20F8023B1B0C121F20F878
:10412000023BF6D20BE051F8043B00F8013B1B0ABE
:1041300020F8023B1B0C121F00F8013BF3D238BFE2
:10414000121D521E24BF11F8013B00F8013BF8D8A4
:10415000704700007047000080B5FDF742FA9148B3
:1041600000F036F900F082FD01BD80B5FDF739FAA7
:104170008D4800F02DF900F079FD01BD80B5FDF707
:1041800030FA8A4800F024F900F070FD01BD10B546
:10419000844C2000FDF794FF042020745FF08040E1
:1041A000A061814C2000FDF78BFF04202074804823
:1041B000A0617E4C2000FDF783FF042020747D4821
:1041C000A06110BD10B504002078012851D17548B8
:1041D000A04215D17848016851F0010101600068E2
:1041E0007648016851F00101016001684908490001
:1041F0000160006807211C2001F0E2F8704860614E
:104200006948A04215D16C48016851F00201016073
:1042100000686A48016851F002010160016831F0EC
:1042200002010160006807211D2001F0C9F86448FF
:1042300060615E48A04215D15F48016851F00401F9
:10424000016000685D48016851F004010160016887
:1042500031F004010160006807211E2001F0B0F870
:104260005748606146F66800A1698861A169C86124
:1042700011E00020A16908600020A16948630020C6
:10428000A16988630020A169C8630020A16908644E
:104290000020A1694862606961680968B0FBF1F0BB
:1042A000401EA1698862A068401EA169C86260685A
:1042B000C06AA169486000206168097B11F00F01A4
:1042C000012903D0022903D150F0020050F001006F
:1042D0006168097D11F00F01012903D0022903D182
:1042E00050F0200050F010006168097F11F00F01BC
:1042F000012903D0022903D150F4007050F48070DA
:10430000616891F8241011F00F01012903D00229EE
:1043100003D150F4005050F48050A169086201208C
:10432000A16948610020A16908616068006B000A0A
:104330000002A169C8608520A169086010BD10B5A0
:104340000400207802282CD10020A16908600020F8
:10435000A169C8600020A16908611248A04208D183
:104360001C2001F044F81448016849084900016024
:1043700000680D48A04208D11D2001F038F80E4811
:10438000016831F00201016000680848A04208D1CC
:104390001E2001F02CF80848016831F0040101608A
:1043A000006810BD24320020403200205C32002022
:1043B00000040040000800401C10024010100240A1
:1043C00000A24A048069C9B200EB810042637047D1
:1043D00038B50400A0690569A069C06800F0FF0055
:1043E0000540E843A1690861A80707D5606800692E
:1043F000002803D02000616809698847680707D54D
:1044000060688069002803D0200061688969884756
:10441000280707D56068006A002803D0200061687B
:10442000096A8847E80607D56068806A002803D0D3
:1044300020006168896A8847E80707D56068806856
:10444000002803D0200061688968884731BD0000DA
:104450003048016851F480710160704780B52E4882
:1044600001685FF0FF3101600268002202600068AD
:104470002A4802680160016800210160006828483C
:10448000016851F0805101600168016851F00061DC
:1044900001600068FFF7DCFF01F0EBF801F0BAFA09
:1044A00001BD2048016851F00101016001688907E0
:1044B000FCD5016801F0FF0101601B4900220A6080
:1044C0000A6812F00C0FFBD1026852F480320260CD
:1044D00002689203FCD50A6852F4E8120A60026886
:1044E00052F08072026002689201FCD50F4A0A60A5
:1044F00012220F4B1A600A6852F002020A600A6820
:1045000012F00C02082AFAD101684908490001603A
:104510007047000000700040101002400C10024074
:104520001C100240001002400410024000441D0014
:104530000020024080B501F09DFA01BD012101700B
:10454000002141607047000080B5202080F3118871
:10455000FDF763F801BD80B5FDF764F8002080F336
:10456000118801BD0060704780B5FFF7EDFF01BD08
:1045700080B5FFF7F0FF01BD80B5FFF7F3FF01BD88
:1045800080B5FEF7B7FB01BD80B55FF0FF3330307B
:1045900001F045FC02BD80B55FF0FF330C3001F047
:1045A000AAFB02BD80B55FF0FF32C9B2303001F026
:1045B000E7FB02BD80B55FF0FF310C3001F070FB0E
:1045C00002BD80B5C9B2303001F0DAFB02BD80B562
:1045D0000C3001F065FB02BD80B5303001F01FFCEE
:1045E00002BD80B50C3001F086FB02BD002902D06F
:1045F000012901D100E0FFE70020704780B501F0FC
:1046000021FD01BD7CB504000D0016000C482060A2
:10461000201DFFF7B1FF0120207200942B008022A3
:1046200014F1540114F10C0001F0FFFA009433006E
:10463000802214F1D40114F1300001F08AFB73BD23
:10464000F46A000838B504000D00FFF78DFF29005B
:10465000200001F002FD02202072FFF789FF31BD2A
:1046600038B504000D006069002803D10421201D25
:10467000FFF786FF2900C9B214F10C0001F0EDFA32
:10468000002804D54FF48061201DFFF779FF31BD6C
:1046900080B5202080F31188FCF7BFFF01BD80B5F5
:1046A000FCF7C0FF002080F3118801BD80B5FFF743
:1046B000EFFF01BD80B5FFF7F2FF01BD80B55FF0F0
:1046C000FF31FEF793FA02BD80B500F055FC01BD45
:1046D00080B500F059FC01BD80B500F099FC01BD2A
:1046E00080B501F06FFD01BD80B501210170002191
:1046F0004160002181600C30FFF7E6FF01BD38B555
:1047000004000D00FFF7D2FF6560200001F078FD86
:1047100002202070FFF7CEFF31BD10B50400FFF777
:10472000C5FF200001F0EEFD002060600120207038
:10473000FFF7C0FF10BD70B504000D001600FFF7B5
:10474000B5FF0320207032002900200001F008FE90
:1047500014F10800FFF7B2FFFFF7ACFF70BD70B5B2
:1047600004000D001600FFF7A1FF032020703200A7
:104770002900200001F01EFE14F10800FFF79EFF43
:10478000FFF798FF70BD80B50C30FFF7A1FF01BDAA
:1047900080B50C30FFF7A0FF01BD80B5FFF781FEAB
:1047A00001BD704780B5202080F31188FCF735FFEC
:1047B00001BD80B5FCF736FF002080F3118801BDF4
:1047C00016481749016011F500614160704710B447
:1047D000124B5C6840422044491E30EA01015242BB
:1047E00001EB02001A68904202D35A68824201D259
:1047F000002001E05860080010BC704770B504004C
:104800000D001600FFF7CEFF320029002000FFF751
:10481000DEFF0400FFF7CDFF200070BD801F0020E9
:10482000881F002080B5254825490160002141608E
:10483000002181600C3000F09FFB01BD70B5B0F12C
:10484000080425682E1D6068C01DC008606015F151
:104850000C0000F099FB00E03668281D864201D06C
:10486000A642F9D23068002802D030688442F3D2E0
:10487000306820603460606804EBC0000830216854
:10488000884208D1606821684968491C081860603E
:10489000206800682060706806EBC0000830A04205
:1048A00006D170686168491C081870602068306023
:1048B00015F10C0000F0ACFB70BD00008827002053
:1048C000FD47000880B50022FFF781FF02BD80B5DB
:1048D0001300042200F0F2FA01BD0060704738B501
:1048E000144C200000F048FB14F11000FFF7F5FF16
:1048F000114D2A00142114F11400FFF7E8FF14F100
:104900002400FFF7EAFF14F12800FFF7E6FF2A0072
:104910001C2114F12C00FFF7DAFF14F13C00FFF723
:10492000DCFF14F14000FFF7D8FF14F14400FFF75B
:10493000D4FF31BD381F0020C5480008006040602A
:1049400070470100086802680A600A685160704791
:1049500001684268116041680268516070479B4875
:104960008169896800688068814201D2012000E085
:104970000020C0B2704780B5202080F31188FCF77A
:1049800056FE01BD80B5FCF757FE002080F311886C
:1049900001BDC068002801D0012000E00020C0B2A5
:1049A00070478168491C8160704710B5874C2000B2
:1049B000FFF7C4FF0020A0602461646110BD0021E6
:1049C00080F82010814909688A6883689A42FAD27F
:1049D00001604A6842604268106048607047002188
:1049E00080F820107949096882688B689A42FAD366
:1049F00001604A684260426810604860704738B59C
:104A0000724DAC6984F820002800FFF79AFFA86176
:104A10000120A96981F820002100A869FCF7EEFDBA
:104A2000EFF309806438E169884202D26848FDF7F3
:104A3000EFFD2100A86901F0FBFC31BD10B50400B9
:104A4000FFF799FF94F82000002808D0032809D028
:104A500004280ED0052809D007280AD00DE0FFF75A
:104A600091FF12E00020616A086006E0606AFFF7CB
:104A700098FF2000FFF76CFFFFE75FF0FF306062F8
:104A80002000FFF79CFFFFF77DFF10BD18B585B034
:104A9000040011F1010F12D04C4883694D4A684659
:104AA000FCF7FDFD2000C0B2FFF7A9FF6846FFF745
:104AB00070FF002807D06846FCF74FFE03E0200097
:104AC000C0B2FFF79CFF41488069406A06B010BD44
:104AD00070B504003D4EB06961628168A268914280
:104AE00003D32000FFF76BFF17E0FFF778FF050007
:104AF000B461012084F8200029002000FCF77EFD2D
:104B0000EFF309806438E969884202D23048FDF742
:104B10007FFD2900200001F08BFC70BD80B5FFF700
:104B20001EFF002801D000F00DF801BD27490868DC
:104B3000806889698968814201D2012000E00020F3
:104B4000C0B2704738B5214DAC692800FFF7F9FEB7
:104B5000A8610120A96981F820002000FFF73FFF2C
:104B600004002100A869FCF749FDEFF309806438CF
:104B7000E169884202D21648FDF74AFD2100A86982
:104B800001F056FC31BD38B5104DAC692800FFF777
:104B9000D8FEA8610120A96981F820002000FFF754
:104BA0001EFF04002100A869FCF728FDEFF309802F
:104BB0006438E169884202D20548FDF729FD2100E9
:104BC000A86901F035FC31BD00000000D01B0020B9
:104BD000946B00083D4A000810F00700354B1A6836
:104BE0004FF6FF010A40344951EA00210A431A6096
:104BF0007047020052B2002A04D409012F4A40B281
:104C0000115407E009012E4A40B210F00F00104481
:104C100000F8041C7047EFF30980683029490A68DE
:104C2000520852000A6080F30988002080F311883E
:104C3000704780B5202080F3118862B60320FFF70B
:104C4000CBFF2148016851F0807101601F48016865
:104C500051F00101016001217FF00400FFF7C9FF5D
:104C600002217FF00100FFF7C4FF01BD10B5202035
:104C700080F3118816480068000517D5F1EE100A78
:104C8000EFF30980683804005FF08071E161114939
:104C90000968216680F30988FFF748FF002802D0E1
:104CA0000D48A06101E00D48A06102E0002080F302
:104CB000118810BD0CED00E00000FA0500E400E0F2
:104CC00018ED00E034EF00E0FCED00E0001000E043
:104CD00004ED00E03CEF00E05F6400086B64000856
:104CE00080B5202080F31188FCF797FC01BD6A484D
:104CF0008069704780B5FFF7FAFF90F82100C0B2D5
:104D0000800810F0010002BD80B50021FDF7F2FF20
:104D100001BD80B5FDF753FF01BD30B40200002096
:104D2000002404E02300DBB2D35C1818641C2300C9
:104D30000D00DBB2EDB2AB42F4D3C0B230BC704771
:104D40002DE9F04104000D00160098460027B8F147
:104D50000301C9B2701CFFF7E0FF5FFA88F806EBA9
:104D6000080111F8021CC0B2C9B2884201D000206B
:104D70001EE0069900E008346068002816D07078BC
:104D800010F07F002278C0B28242F4D10800C0B295
:104D9000FF2804D00800B278C0B29042EBD1F2787C
:104DA000311D280063689847012001E03800C0B237
:104DB000BDE8F0812DE9F8430C00150006682700D6
:104DC0005FF0000800208DF800005FF0000907E0A8
:104DD000B8F5807F04D15FF000095FF0000827007C
:104DE00001226946300033689B689847002815D037
:104DF0004846C0B2002814D09DF8000038707F1CCF
:104E000018F10108B8F1040FE2D3E078801D804565
:104E1000DED1A5F800800020002000E00120BDE8E0
:104E2000F2839DF800000228DAD15FF001095FF0FB
:104E300001089DF8000038707F1CD1E7F8B5ADF58A
:104E4000027D04002568A668277902E01420FFF798
:104E500060FFFFF74FFF002812D101AA02A920002E
:104E6000FFF7A8FF0028F1D13800C0B20090BDF8CC
:104E70000430DBB202AA29003000FFF761FFE8E747
:104E8000FFF72EFF0548FFF73FFF0020FDF773FEF9
:104E90000DF5037DF0BD0000D01B0020241F002075
:104EA00080B5202080F31188FCF7B7FB01BD80B5E9
:104EB000FCF7B8FB002080F3118801BD10B400247A
:104EC000046041608260C36010BC704702680A6081
:104ED0000160704738B504000D00FFF7E1FF2900BD
:104EE0002000FFF7F3FFFFF7E2FF31BD10F8012BC1
:104EF00011F8013B0AB19A42F8D0D01A704700006D
:104F00000060406070470168814201D0012000E0EC
:104F10000020C0B2704710B40A0012688A4203D061
:104F200093688468A342F8D2026051684160416886
:104F30000860506010BC70470100086802680A6091
:104F40000A685160704701684268116041680268F0
:104F50005160704780B5202080F31188FCF75DFB1D
:104F600001BD80B5FCF75EFB002080F3118801BD18
:104F700080B5FFF7C8FF02BD10B504002000FFF7A1
:104F8000BFFF0020A06010BD10B50400FFF7E2FFD6
:104F9000200000F003F8FFF7E4FF10BD70B5040037
:104FA00033488569A06800282DD0A66807E0300046
:104FB000FFF7C9FF716AFFF7AEFF706A8668B068D5
:104FC000A968884216D2A868B06096F82000002828
:104FD0000AD00628EBD007280CD13000FFF7B3FF2A
:104FE000716AFFF798FF05E03000FFF7ACFFFFF7AD
:104FF000E6FCFFE721002800FFF78DFF6C6206202A
:10500000FFF7FDFC03E0A560A86BE060AC6370BD3A
:10501000F8B5050016488669FFF79CFFE868B0639D
:105020002800FFF7A5FF00281DD0F76BB46B0BE03D
:105030002000FFF79DFF002805D020688068874288
:1050400001D220688768E468002CF1D1B76028009D
:10505000FFF772FFA860816BE9608563FFF7AFFC23
:10506000FFF75CFD01E00020A860FFF77AFFF1BDCB
:10507000D01B002080B5202080F31188FCF7D7FAE0
:1050800001BD80B5FCF7D8FA002080F3118801BD7E
:1050900080B5FFF7EFFF01BD80B5FFF7F2FF01BD5F
:1050A00080B5FDF7B4FD01BD10B50400080724D597
:1050B000200000F006F92069806800280ED0052045
:1050C00020700021200022699268904720780528EE
:1050D00008D1022020700020206103E0022020700F
:1050E00000202061FFF7D4FF5FF0FF3114F11400BE
:1050F000FFF7D6FFFFF7D0FF42E0880736D52069DB
:10510000007800280FD020694068002838D004209B
:1051100020702000216949688847207804282FD111
:10512000032020702CE0200000F0CBF820694068BC
:1051300000280DD00420207020002169496888478C
:105140002078042808D1022020700020206103E08C
:105150000220207000202061FFF79AFF002114F147
:105160001400FFF79DFFFFF797FF09E0480707D5F9
:1051700020694068002803D02000216949688847D9
:1051800010BD10B5244C2000FDF785FE2348A06219
:105190000020E06242F28A5020632148016851F405
:1051A00000710160016800211E4A11601E49012240
:1051B0000A6009220A600A681207FCD405220A6004
:1051C0000A685207FCD400220A60016831F40071B9
:1051D0000160006810BD10B504002078012819D1C5
:1051E0000D48A04210D12300104A0621002000F0F3
:1051F0005DFAE0620E48E16A496888600848016823
:1052000051F40071016000680020A16A486000202C
:10521000A16A886010BD00005031002000240140C8
:10522000181002400424014008240140A95000083D
:105230004C24014010B40269036B1178002906D098
:1052400053F02003C168022901D353F0040381689D
:10525000C46A6468E1605488C1684C43C16A4968A3
:105260004C60C16A49680B60C16A4968096851F0BD
:105270000101C36A5B681960D16851F48071836A67
:105280005960136940F201110B4313F4841F01D1DB
:1052900053F0020311691943846AA1605169846A59
:1052A000E1609169846A2161D169846AE162116A6D
:1052B000846A2163516A826A5163806A836010BC88
:1052C0007047C16A4968096809090901C26A5268D8
:1052D00011600E22C16A91F90D108A40C16A0968F5
:1052E0004A600021806A816070470000841A71EB77
:1052F000030603D2001BB141121973414FF4001C85
:105300001CEB410F34BF7CEB430442E00C0DA4EBDB
:105310001356352E4FDC45EAC323DB0A45EAC1218B
:10532000C912B6F120050DDD63FA05F6EB4086EAF9
:105330000305124218BF45F00105C01851F10001E4
:105340000CD213E062FA06F5F2405540F3415A40A0
:10535000B340F3405A408018594107D349085FEAE7
:1053600030005FEA350528BF45F0010501F58011E1
:10537000420875F1004250F1000041EB04514E002B
:1053800016F5001F70BC38BF70470020090D0905D5
:1053900070471CEB410F10D252EA43060BD0BCEB16
:1053A000410F05D80C0DAB43661E342EB6DD02E06E
:1053B000AB438018594170BC704770BC7047000007
:1053C00010B40901104A1154012210F01F0112FA01
:1053D00001F10E4B0400640943F8241010F01F0182
:1053E0008A400B49400941F8202010BC7047012237
:1053F00010F01F018A40074903005B0941F8232090
:105400000021014A1154704700E400E080E200E00E
:1054100000E100E080E100E000887047F8B504009A
:105420000D001600002708E0380080B235F8101093
:10543000200001F07FF8A41C7F1C3800310080B2EE
:1054400089B28842F0D3F1BDF8B504000D00160012
:10545000002708E02000FFF7DFFF390089B225F8B8
:105460001100A41C7F1C3800310080B289B2884230
:10547000F0D3F1BD2DE9F843ADF5006D04000D004A
:105480001700B4F10060B0F5802F04D30DF5006D66
:1054900001B0BDE8F08300F0EBFF14F178400600A6
:1054A000F60AC0F34908D8F580694846390080B249
:1054B00089B2884203D3B94601E04FF480694FF4C2
:1054C000806269464FF4006000FB06F010F1006056
:1054D000FFF7BAFF002000E0401C01004A4689B2F5
:1054E00092B291420AD26946020092B212FA88F24E
:1054F00031F812104FF6FF729142EDD0494680B25A
:1055000089B2884227D24FF4006000FB06F010F108
:10551000006000F0BDFF00200BE06946424692B2F9
:1055200012FA80F203009BB235F8133021F81230E2
:10553000401C01004A4689B292B29142EDD34FF429
:10554000806269464FF4006000FB06F010F10060D5
:10555000FFF764FF05E04A4692B229002000FFF7FA
:105560005DFF3800494680B289B2884202D100F01E
:1055700088FF8BE7761C5FF00008484680B205EB99
:105580004005484680B214EB4004B7EB09073800E9
:1055900080B240F2014188428FDAB9468FE710B5F8
:1055A0000446FEF783FD204610BD000080B5FCF7E1
:1055B00018F88D4800F0F9F8FFF758FB01BD80B5E9
:1055C000FCF70FF8894800F0F0F8FFF74FFB01BD3A
:1055D00080B5FCF706F8864800F0E7F8FFF746FBD1
:1055E00001BD80B5FBF7FDFF824800F0DEF8FFF754
:1055F0003DFB01BD80B5FBF7F4FF7F4800F0D5F817
:10560000FFF734FB01BD80B5FBF7EBFF7B4800F0F3
:10561000CCF8FFF72BFB01BD80B5FBF7E2FF784824
:1056200000F0C3F8FFF722FB01BD80B5FBF7D9FFFF
:10563000744800F0BAF8FFF719FB01BD80B5FBF71D
:10564000D0FF714800F0B1F8FFF710FB01BD80B545
:10565000FBF7C7FF6D4800F0A8F8FFF707FB01BD97
:1056600080B5FBF7BEFF6A4800F09FF8FFF7FEFA2F
:1056700001BD10B467490020086000204860002088
:105680000AE00022584B040123445B681A600022A0
:1056900001EBC0039A60401C0B28F2DB5FF0FF3087
:1056A0005D4908605D49086010BC7047F8B50B287B
:1056B00001D2070002E0002044E07F1CB84240D342
:1056C0000124BC40534D2E682642F6D146483E0187
:1056D000064405EBC700826005EBC700C36028687D
:1056E0002043286014F07F0F05D04D48036853F025
:1056F00001030360006814F4F06F05D048480368A4
:1057000053F0020303600068002A09D06868B26899
:10571000104202D1F07BFFF753FE686804436C60CF
:105720007068006800090001716808600E2196F930
:105730000D008140306841600020716808603000D1
:1057400000E00020F2BD38B5857B0122314C236892
:1057500012FA05F18B4323606168AA4031EA020224
:10576000626061688268114202D1C07BFFF73FFE30
:10577000002004EBC5018860002004EBC501C8606F
:10578000207810F07F0F05D12548016849084900AD
:1057900001600068206810F4F06F05D120480168AE
:1057A00031F002010160006831BD80B5827B016883
:1057B0000968437BD94011F00E0143681B68194208
:1057C00011D0437B11FA03F300684360114B03EBE4
:1057D000C2008068002806D003EBC200C06803EB5B
:1057E000C2029268904701BD94680008A46800084E
:1057F000B4680008C4680008D4680008E4680008B9
:10580000F4680008046900081469000824690008A5
:1058100034690008703C0020040002400404024087
:105820001410024080B5FBF7DCFE77490868774A20
:10583000126812F0010210400860C00706D57449D2
:105840000868002802D0486809688847FFF70EFA00
:1058500001BD80B5FBF7C5FE6B4908686B4A12684D
:1058600012F0020210400860800706D56849886877
:10587000002802D0C86889688847FFF7F7F901BD9A
:1058800080B5FBF7AEFE60490868604A126812F006
:10589000040210400860400706D55D4908690028E9
:1058A00002D0486909698847FFF7E0F901BD80B572
:1058B000FBF797FE54490868544A126812F0080230
:1058C00010400860000706D551498869002802D0B9
:1058D000C86989698847FFF7C9F901BD80B5FBF739
:1058E00080FE49490868494A126812F010021040C7
:1058F0000860C00606D54649086A002802D0486AF2
:10590000096A8847FFF7B2F901BD10B5FBF769FED8
:105910003D4804683D49096811F478710C40046001
:10592000A00606D53A49886A002802D0C86A896A62
:105930008847600606D53649086B002802D0486BB8
:10594000096B8847200606D53149886B002802D0AC
:10595000C86B896B8847E00506D52D49086C00287F
:1059600002D0486C096C8847A00506D52849886C88
:10597000002802D0C86C896C8847FFF777F910BD02
:1059800010B5FBF72EFE204804682049096811F481
:105990007C410C400460600506D51D49086D002857
:1059A00002D0486D096D8847200506D51849886DD5
:1059B000002802D0C86D896D8847E00406D51449D7
:1059C000086E002802D0486E096E8847A00406D5EC
:1059D0000F49886E002802D0C86E896E884760041F
:1059E00006D50B49086F002802D0486F096F884719
:1059F000200406D50649886F002802D0C86F896F39
:105A00008847FFF733F910BD14040140000401403A
:105A1000A431002080B506210620FFF7D1FC062125
:105A20000720FFF7CDFC06210820FFF7C9FC06215F
:105A30000920FFF7C5FC06210A20FFF7C1FC06215B
:105A40001720FFF7BDFC06212820FFF7B9FC01BD98
:105A500080B5FBF7C6FD0D4800F02DF8FFF706F9FD
:105A600001BD80B5FBF7BDFD094800F024F8FFF744
:105A7000FDF801BD80B505480649C160FEF75EFD31
:105A800003480549C160FEF759FD01BD843100207E
:105A900094310020002C0140003401400021C268F4
:105AA00011600021C2681161C168C968090A090250
:105AB000C068C160704710B50400E0680069E16823
:105AC000C96801F0FF010840C143E2681161C007E5
:105AD0000FD52078042804D1022020702000FFF781
