:020000040800F2
:1000000000040020856D0008B7330008B7330008EE
:10001000B7330008B7330008B7330008B733000818
:10002000B7330008B7330008B7330008735200082D
:10003000B7330008B7330008B7330008B7330008F8
:10004000B7330008B7330008B7330008B7330008E8
:10005000B7330008B7330008616200088F620008F8
:10006000BD620008EB62000819630008E95F000840
:10007000FB5F00080D6000081F6000083160000889
:100080004360000855600008B7330008B733000824
:10009000B7330008B7330008B733000847630008D8
:1000A000B73300088D640008B7330008B733000881
:1000B0009D450008AF450008C1450008B73300085A
:1000C000B7330008B7330008B7330008B733000868
:1000D000B73300082B5F0008B7330008B7330008B8
:1000E000BD630008B7330008B7330008B733000812
:1000F0009F640008B7330008B7330008B73300081F
:10010000B7330008B7330008E9410008B7330008E7
:10011000B7330008B7330008B7330008B733000817
:1001200067600008796000088B6000089D60000827
:10013000B7330008B7330008B7330008B7330008F7
:10014000B7330008B7330008B7330008B7330008E7
:10015000B7330008B7330008B7330008B7330008D7
:10016000B7330008B7330008B7330008B7330008C7
:10017000B7330008B7330008B7330008B7330008B7
:10018000081A80B27047BFF34F8FDFF8B41D0A68BA
:1001900012F4E062DFF8AC0D02430A60BFF34F8F48
:1001A00000BFFDE780B501F07FFB02BD72B670476E
:1001B00080B5202080F3118801F0A7FB01BD80B538
:1001C00001F0A8FB002080F3118801BD80B520203C
:1001D00080F3118801F0A3FB01BD80B501F0A4FB01
:1001E000002080F3118801BD0021C160704780B5F7
:1001F000FFF7D8FF02BD10B50400FFF7F8FF0100BC
:1002000089B2200080B2FFF7BBFF10BDC068002894
:1002100001D0012000E00020C0B2704710B50400FA
:100220002000FFF7F3FF002802D0200001F00DFCB2
:1002300010BD10B50400FFF7BBFF2000FFF7EEFF75
:10024000FFF7BDFF10BDF8B504000D0016001F003C
:100250002000FFF7E3FF3B0032002900200001F0FF
:1002600096FBF1BDF8B504000D0016001F00FFF766
:100270009FFF3B00320029002000FFF7E4FFFFF75B
:100280009EFFF1BDDFF8B00D8069704780B5FFF7C4
:10029000F9FF90F82100C0B2800810F0010002BD03
:1002A00038B5002001F02BFEC0B2CC2800F0E3806E
:1002B00001214FF4805001F069FE012141F201005B
:1002C00001F064FE1221052001F051FE32210620CA
:1002D00001F04DFE4FF4FA6141F2020001F056FECA
:1002E0000221072001F043FE9FEDBF0A46F2010004
:1002F00001F05CFE0421082001F039FE4FF440417A
:1003000041F21D0001F042FE4FF4FA7141F21E006D
:1003100001F03CFE002141F2070001F037FE1E21F2
:1003200041F2080001F032FEAA2141F2090001F079
:100330002DFEC82141F20A0001F028FE4FF4487159
:1003400041F2030001F022FE40F6282141F20400B0
:1003500001F01CFE4FF4616141F2050001F016FE50
:100360004FF47A6141F2060001F010FE9FED9F0A02
:100370004FF4C04001F01AFE4FF4FA7141F20B0045
:1003800001F004FE40F2DC5141F20C0001F0FEFDF0
:10039000C82141F20D0001F0F9FD40F6E4442100CE
:1003A00041F20E0001F0F2FD40F6D865290041F25D
:1003B0000F0001F0EBFD4FF47A6141F2100001F003
:1003C000E5FD7D2141F2110001F0E0FDFA2141F24D
:1003D000120001F0DBFD4FF4967141F2130001F0C1
:1003E000D5FD4FF4FA7141F2140001F0CFFDC821A0
:1003F00041F2150001F0CAFD210041F2160001F0A2
:10040000C5FD290041F2170001F0C0FD4FF47A61EB
:1004100041F2180001F0BAFD7D2141F2190001F00E
:10042000B5FDFA2141F21A0001F0B0FD4FF49671CA
:1004300041F21B0001F0AAFD4FF4FA7141F21C00D9
:1004400001F0A4FD41F2883141F21F0001F09EFD50
:1004500041F2EC314FF4815001F098FDCC210020A5
:1004600001F085FD002001F041FC012001F03EFC7F
:10047000062001F03BFC31BD30B402000020002416
:1004800003E013781818521C641C23000D00DBB223
:10049000EDB2AB42F5D3C0B230BC70477047704785
:1004A00070B5FFF793FEDFF8940B016891F04001FF
:1004B000016041F21E0001F034FD06000023DFF868
:1004C000802B14001D00B6B24FF4FA6240F2E73000
:1004D0000021E2FB06014FF47A72002301F084FE52
:1004E00002000B0011002B002200DFF8580BFFF771
:1004F000AAFEFFF772FE70BD10B40020002112E0CA
:10050000DFF8442B0B00DBB252F833309B680C0051
:10051000E4B202EBC4025268D340DA0702D40122EB
:100520008A401043491C0A00D2B20A2AE8DB80B292
:1005300010BC70471CB5684600210160002115E021
:10054000DFF8083BBDF800200800C0B233F82000F7
:100550008218ADF800206A4654880800C0B24000F6
:1005600003EB4000408804195480491C0800C0B2C5
:100570000828E5DBBDF80000082190FBF1F0ADF89C
:10058000000068464188082291FBF2F14180DFF8C3
:10059000804DBDF800106184418841F6C810414388
:1005A0000913A185A08D10F5C870A08541F21F0028
:1005B00001F0B7FCA18D80B2814204D28020DFF827
:1005C000901A08600BE04FF4815001F0AAFCA18D55
:1005D00080B2884203D28020DFF8381D0860FFF720
:1005E0008BFF208413BD000000C064441CC7B140D1
:1005F0002DE9F84F2DED028B82B004000D00002094
:1006000041F288373800052001F079FC06009FEDA3
:10061000860AB00740F10A81200080B2002800F06D
:10062000F38041F21509484601F07BFC290009B22C
:10063000814205DA41F2190001F073FC8046E5E0E1
:1006400041F21608404601F06CFC290009B28142D3
:1006500040DA41F21A0001F064FC834641F2190AC3
:100660001FFA8BFB504601F05CFCBBEB000B00EE6D
:1006700010BAB8EEC08A404601F053FC80461FFA1B
:1006800088F8484601F04DFCB8EB000800EE108AEF
:10069000B8EEC00A88EE008AA8460FFA88F84846E5
:1006A00001F03FFCB8EB000800EE108AB8EEC00A7B
:1006B00020EE088A504601F034FC00EE100AB8EE35
:1006C000400A30EE080ABDEEC00A10EE108A1FFA8A
:1006D00088F89BE041F21709484601F022FC290006
:1006E00009B2814240DA41F21B0001F01AFC834654
:1006F00041F21A0A1FFA8BFB504601F012FCBBEBC9
:10070000000B00EE10BAB8EEC08A484601F009FCB2
:1007100081461FFA89F9404601F003FCB9EB000954
:1007200000EE109AB8EEC00A88EE008AA9460FFAC9
:1007300089F9404601F0F5FBB9EB000900EE109A8B
:10074000B8EEC00A20EE088A504601F0EAFB00EE3F
:10075000100AB8EE400A30EE080ABDEEC00A10EEEC
:10076000108A1FFA88F851E041F2180A504601F049
:10077000D8FB290009B2814240DA41F21C0001F0A5
:10078000D0FB834641F21B081FFA8BFB404601F069
:10079000C8FBBBEB000B00EE10BAB8EEC08A5046A7
:1007A00001F0BFFB82461FFA8AFA484601F0B9FB06
:1007B000BAEB000A00EE10AAB8EEC00A88EE008A72
:1007C000AA460FFA8AFA484601F0ABFBBAEB000AD8
:1007D00000EE10AAB8EEC00A20EE088A404601F0EA
:1007E000A0FB00EE100AB8EE400A30EE080ABDEE9B
:1007F000C00A10EE108A1FFA88F807E041F21C00C8
:1008000001F08FFB804601E05FF00008B7EB0808BD
:1008100042460321DFF8000B01F043FE414642F25D
:10082000010001F0BCFC20E000000000280000B244
:1008300040F2F51188420FDB200080B200280BD077
:10084000DFF8401D0122C86C8240886C02612800DC
:1008500000B201F077FE08E0DFF8281D0122C86C25
:100860008240886C426101F01AFF700740F10182FA
:10087000200080B2002818D0E00507D5DFF8041D5D
:100880000122486C8240086C026106E0DFF8F41C2B
:100890000122486C8240086C4261DFF8E81C0122AA
:1008A000C86C8240886C02610BE00122DFF8D41C26
:1008B000486C12FA00F00B6C5861C86C8240886C6E
:1008C000426168460021016000201CE00122C0B2A4
:1008D000410012FA01F189B2214204D001216B4694
:1008E0000600F6B299550100C9B24900491C12FA36
:1008F00001F189B2214205D05FF0FF316A46030061
:10090000DBB2D154401C0100C9B20429DEDB41F244
:100910000D06300001F005FB290009B2814205DA1D
:1009200041F2110001F0FDFA0400CAE041F20E04A8
:10093000200001F0F6FA290009B2814238DA41F2CA
:10094000120001F0EEFA070041F21108BFB2404672
:1009500001F0E7FA3F1A00EE107AB8EEC08A2000E4
:1009600001F0DFFA0400A4B2300001F0DAFA241A30
:1009700000EE104AB8EEC00A88EE008A2DB23000B0
:1009800001F0CFFA2D1A00EE105AB8EEC00A20EE90
:10099000088A404601F0C5FA00EE100AB8EE400A97
:1009A00030EE080ABDEEC00A10EE104AA4B288E08C
:1009B00041F20F06300001F0B4FA290009B2814279
:1009C00038DA41F2130001F0ACFA070041F21208E4
:1009D000BFB2404601F0A5FA3F1A00EE107AB8EE19
:1009E000C08A300001F09DFA0600B6B2200001F086
:1009F00098FA361A00EE106AB8EEC00A88EE008A3D
:100A00002DB2200001F08DFA2D1A00EE105AB8EE2A
:100A1000C00A20EE088A404601F083FA00EE100A70
:100A2000B8EE400A30EE080ABDEEC00A10EE104AD9
:100A3000A4B246E041F21004200001F072FA29004D
:100A400009B2814238DA41F2140001F06AFA070073
:100A500041F21308BFB2404601F063FA3F1A00EEBC
:100A6000107AB8EEC08A200001F05BFA0400A4B24C
:100A7000300001F056FA241A00EE104AB8EEC00A0F
:100A800088EE008A2DB2300001F04BFA2D1A00EEEC
:100A9000105AB8EEC00A20EE088A404601F041FA2A
:100AA00000EE100AB8EE400A30EE080ABDEEC00AA9
:100AB00010EE104AA4B204E041F2140001F031FA41
:100AC000040021004FF4005001F069FB002129E0EF
:100AD0000800C0B218560B00DBB2134493F925305E
:100AE00098421ED000200B00DBB21A4482F8250089
:100AF00017E0DFF81C280800C0B2104490F9250068
:100B0000002805D06B460800C0B218560028DFD177
:100B100068460B00DBB2C05C0B00DBB21A4482F803
:100B20002500491C0800C0B20428E2DBDFF8E057CA
:100B300095F9250000280CD1DFF87C6C00220021FB
:100B4000300001F0AEFC00220121300001F0A9FCD0
:100B500015E095F92500012806D122000021DFF8D3
:100B6000580C01F09EFC0AE095F9250010F1010FE8
:100B700005D122000121DFF8400C01F092FC95F92B
:100B8000260000280CD1DFF8306C00220221300052
:100B900001F087FC00220321300001F082FC15E007
:100BA00095F92600012806D122000221DFF8080C61
:100BB00001F077FC0AE095F9260010F1010F05D14C
:100BC00022000321DFF8F00B01F06BFC95F9270000
:100BD00000280CD1DFF8E46B00220321300001F083
:100BE00060FC00220221300001F05BFC15E095F969
:100BF0002700012806D122000321DFF8C00B01F0F5
:100C000050FC0AE095F9270010F1010F05D12200F0
:100C10000221DFF8A80B01F044FC95F92800002818
:100C200010D1DFF8984B00220121200001F039FC9F
:100C300000220021200001F034FC02B0BDEC028B48
:100C4000BDE8F18F95F92800012806D12200012185
:100C5000DFF8680B01F025FCEFE795F9280010F1AB
:100C6000010FEAD122000021DFF8500B01F019FC3E
:100C7000E3E700210DE0DFF80C390800C0B203EB18
:100C8000C000406882400800C0B253F830000261E2
:100C9000491C0800C0B20828CFDA012212FA01F07C
:100CA00080B22042E7D1DFF8DC380800C0B203EBA5
:100CB000C000406882400800C0B253F83000426172
:100CC000E6E738B5DFF8480690F82A10C90645D59A
:100CD000DFF8EC4A02220121200001F042FD05224A
:100CE0000221200001F03DFD05220421200001F039
:100CF00038FD00240FE0D44B032201212000C0B2B4
:100D000003EBC000406881402000C0B253F83000BF
:100D100001F027FD641C2000C0B20A28EBDBDFF8DD
:100D2000F4054021016080210160DFF8985A012418
:100D30000722696814FA01F1286801F012FD062201
:100D4000E96814FA01F1A86801F00BFD0622686950
:100D500084402100286901F004FDCDE090F82A10BC
:100D6000890640F1C98090F82A2012F0010290F81B
:100D70002A1011F0020190F82A4014F00404D2B2B3
:100D8000012A40F0B380C9B2022906D110220821FD
:100D9000DFF82C0A01F0E5FC11E0DFF82C5A0722FD
:100DA0004021280001F0DDFC07228021280001F00D
:100DB000D8FC07224FF48071280001F0D2FCE4B285
:100DC000042C49D1DFF8BC5701241022696814FAB9
:100DD00001F1286801F0C5FC1022E96814FA01F15C
:100DE000A86801F0BEFC1022696914FA01F12869B3
:100DF00001F0B7FC1022E96914FA01F1A86901F0C9
:100E0000B0FC1022696A14FA01F1286A01F0A9FC09
:100E10001022E96A14FA01F1A86A01F0A2FC10227A
:100E2000696B14FA01F1286B01F09BFC1022E96B4D
:100E300014FA01F1A86B01F094FC0622696C14FA13
:100E400001F1286C01F08DFC0622E86C8440210041
:100E5000A86C01F086FC4FE0DFF828570124062239
:100E6000696814FA01F1286801F07BFC0622E96840
:100E700014FA01F1A86801F074FC0622696914FAF9
:100E800001F1286901F06DFC0622E96914FA01F10B
:100E9000A86901F066FC0622696A14FA01F1286A61
:100EA00001F05FFC0622E96A14FA01F1A86A01F078
:100EB00058FC0622696B14FA01F1286B01F051FC11
:100EC0000622E96B14FA01F1A86B01F04AFC062234
:100ED000696C14FA01F1286C01F043FC0622E86CFD
:100EE00084402100A86C01F03CFC05E00722402171
:100EF000DFF8D40801F035FC31BD80B5DFF810040F
:100F000090F82A10C9060DD590F82A10C90702D505
:100F100000F004FA13E090F82A0080070FD500F0E3
:100F2000FDF90CE090F82A10890608D590F82A00FF
:100F3000C00702D500F028FB01E000F025FB01BD51
:100F40000CED00E00400FA0518B591B00024002073
:100F5000ADF800000020ADF8020001A846E001ACA9
:100F600023000022FF21002001F030F80444230078
:100F70004FF48052FF21002001F028F804442300A0
:100F800041F20102FF21002001F020F80444230077
:100F900041F20202FF21002001F018F8044423006E
:100FA0004FF40052FF21002001F010F80444230008
:100FB00042F20102FF21002001F008F8044423005E
:100FC0004FF4A042FF21002001F000F8204444210A
:100FD000684601F0A5FDBDF80000401CADF800001A
:100FE000FFF754F90400C82001F033FFE4B2002CED
:100FF000B5D012B010BD1CB5C54CE06800280BD1AF
:1010000000200090DFF8C4377F224FF45C71DFF8D6
:10101000C00701F06CFEE06013BD10B5BC4CE06889
:10102000002807D0E06801F007FFE06801F0EBFE60
:101030000020E06010BD0000381F00200C100140AF
:10104000A10400087C220020FC0400205C22002077
:1010500010100140F8B501F08AFF02F029F8DFF81E
:101060007407016851F00071016003224FF40071B0
:10107000DFF8540701F075FB0026DFF85C07006815
:10108000C0F34020002804D10120A14981F82900A3
:1010900003E000209E4981F8290000F0F6FDFFF7EB
:1010A000FFF89B4C052000F02AFF84F82A00FFF788
:1010B00008FE01F0C2FB94F82A0010F0300F12D0A5
:1010C00000200090DFF8143780224FF45C71DFF8C5
:1010D000100701F00CFEFFF76BF814F1100001F09F
:1010E000C2FEFFF76CF8FFF782F80700002094F8C3
:1010F0002A00800620D594F82A0040071CD5DFF886
:10110000E416854801F0ABF9DFF8DC16DFF8A80635
:1011100001F0A5F9DFF8D416DFF8A00601F09FF979
:10112000002084F82500002084F82600002084F8A0
:101130002700002084F8280094F82A00C00640F117
:1011400085800820DFF8A81608607FE064215FF042
:10115000FF3002F02FF80500680702D5FF2000F0ED
:10116000C5FD94F82A00C0060DD5FFF7E3F9A805E0
:1011700009D594F82900002805D1012665484021A9
:1011800001608021016094F82A00800659D5A806E4
:1011900017D5B4F92200010009B2208CFFF728FA14
:1011A000FFF725F80700217D002000F0DBFF218CF0
:1011B0004FF4805000F0E4FF618C41F2010000F038
:1011C000DFFF680619D5380080B2FFF714F8020077
:1011D0004FF47A7340F2CF700021E3FB02014FF429
:1011E000FA62002301F000F880B240F2E93188424F
:1011F00003DB00210020FFF7FBF9280619D5380092
:1012000080B2FEF7F8FF02004FF47A7340F2CF701D
:101210000021E3FB02014FF4FA62002300F0E4FF37
:1012200080B240F2E931884203DB00210020FFF761
:10123000DFF9E80701D5FFF7DEFEA80701D5FFF7C4
:10124000ECFEFFF723F8002800D001263000C0B2E2
:1012500000283FF47BAF94F82A0080060ED594F85E
:101260002A0040070AD52C4801F00BF9DFF84805A1
:1012700001F007F9DFF8440501F003F994F82A00BA
:10128000C00642D50820DFF86C1508600120DFF8A1
:10129000681508600120DFF8641508600120DFF898
:1012A000601508600120DFF85C1508600120DFF898
:1012B00058150860DFF8540501680905090D01603B
:1012C00001680160DFF84805016851F00C01016018
:1012D000016831F0E0010160016851F00201016034
:1012E000DFF83005016851F480710160DFF82805EE
:1012F000016851F004010160FEF758FF72B640BF6B
:1013000020BF20BF62B6FEF73EFF0020F2BD000006
:10131000E821002014100140943500202DE9F04709
:101320002DED028B82B0DFF8F454A846DFF8F044CC
:10133000DFF8F00401F09CFF6060DFF8EC6400214E
:10134000300001F0DBFF0823DFF8E024DFF8E014D1
:10135000300001F0E1FFB06A8068B16A886008205F
:1013600000F0CDFD2872072000F0C9FD687246F23A
:10137000010000F0E9FDB0EE408A4FF4805000F02B
:10138000D0FD81465FF0200A18EE100A01F0DEFF62
:1013900006000F0099FBFAF00AFB1099484601F08D
:1013A000F9FF0022DFF88C3402F006F832003B002F
:1013B00002F0D4F802F090F9E86041F20106300042
:1013C00000F0AFFD6881DFF87014280002F08AFD9C
:1013D000DFF8689419F10100019041F21D0000F05E
:1013E000A0FD019908800020019948804FF48050A9
:1013F00000F097FD01998880300000F092FD01997E
:10140000C880092101A8FFF737F8019948720A201E
:10141000401C89F800000025FEF7E9FE0026DFF8F1
:1014200020A45046FEF7E0FE0023DFF818244FF416
:101430007A715046FEF716FFFEF7D9FE070000212D
:1014400014F1100001F044FD7FE0380080B2FEF797
:10145000D2FE02004FF47A7340F2CF700021E3FB1A
:1014600002014FF4FA62002300F0BEFE060025E000
:101470000921404602F00FFE00208DF8000094F88C
:101480002A008007E1D5208C002814D1FEF7AFFE9A
:10149000380080B2FEF7AFFE02004FF47A7340F2DC
:1014A000CF700021E3FB02014FF4FA62002300F049
:1014B0009BFE060002E0FEF79AFE070041F20200E2
:1014C00000F02FFD310089B2884204D294F829003F
:1014D000002800D10125208C01990880608C019999
:1014E000488009210198FEF7C7FF0199487201233E
:1014F0006A464921404602F093FD99F800309BB2BC
:101500004A461121404602F08BFD0E21404602F072
:10151000C2FD062000F0F3FC0200D2B24FF4FA63E1
:1015200040F2E7300021E3FB02014FF47A7200231E
:1015300000F05AFE01F08DFCFEF7A8FE002804D052
:1015400094F82900002800D101252800C0B2002805
:101550008ED00D21404602F09EFD0A21404602F049
:101560009AFD5046FEF765FE4FF40071606801F089
:10157000F8FD002001F01BFC02B0BDEC028BBDE8C1
:10158000F0870000AC0400202DE9F0472DED028B20
:1015900092B0A24C2500A24EA24801F069FE7060F4
:1015A000082000F0ACFC2072072000F0A8FC60725C
:1015B00046F2010000F0C8FCB0EE408A4FF48050C3
:1015C00000F0AFFC07005FF0200A18EE100A01F0EF
:1015D000BDFE8046894697FBFAF00AFB107738007B
:1015E00001F0D8FE0022934B01F0E6FE42464B4646
:1015F00001F0B4FF02F070F8E06041F2010000F089
:1016000090FC60818C49200002F06CFC8B49481CE6
:101610000A200022401C08705FF00008FEF7E7FD7A
:10162000070000200020B076002116F1100001F024
:101630004FFC2DE0380080B2FEF7DDFD02004FF4D4
:101640007A7340F2CF700021E3FB02014FF4FA629B
:10165000002300F0C9FD80B240F2F511884214DB8E
:101660008021706801F07DFD0020B076892128007E
:1016700002F011FD8E21280002F00DFD05E0402151
:10168000706801F06EFD0020B076282001F0E1FBCB
:101690004046C0B2002877D1FEF7A9FDB07E0028F1
:1016A00002D0012819D0F0E70C21200002F0F3FC51
:1016B0008921280002F0EFFC8E21280002F0EBFCCB
:1016C0000221280002F041F8B07E401CB0760020D4
:1016D000B083FEF78CFD0700D7E7200002F0CFFBB8
:1016E0008DF800009DF8000010F0120FA2D020002D
:1016F00002F02CFB307501236A46D021200002F055
:1017000043FC9DF800000028BDD09DF8003001AAE0
:101710009121200002F038FC8921280002F0BBFC56
:101720008E21280002F0B7FC01A80178491E017043
:1017300001780A29A7D110F1010909214846FEF7CD
:101740009BFE99F80910C0B2884298D14FF480509E
:1017500000F0E7FBB9F8061080B2814293D1B9F8E6
:101760000000F082B9F800003084B9F802007084FB
:10177000002030830020B0832021706801F0F1FC4C
:10178000002086F824007EE70D21280002F083FC6B
:101790000A21280002F07FFC2948FEF74AFD4FF499
:1017A0000071706801F0DDFC002001F000FB12B058
:1017B000BDEC028BBDE8F087B0350020CC350020B1
:1017C000000801404C05002000100140490F0008AE
:1017D000580A00200400014008100140FB0E0008D8
:1017E000E8060020000400203404002068040020E3
:1017F0001408014010080140140401400004014095
:10180000040401400C0401400804014008000140A8
:10181000007000400470004010ED00E088210020BE
:10182000E8210020FC6F0008C03400205C2200206A
:10183000E46E00080000E03F9C0400201822002015
:101840007C220020A10400080A48006880B270478A
:1018500080B2094908600020084908600220084950
:1018600008607047002006490860704780B202494E
:1018700008607047240C0040340C0040100C0040FD
:101880000C0C004080B502F0B7FC01BD80B580B201
:10189000FFF7DEFF01BD80B5FFF7E4FF01BD80B5B6
:1018A00080B2FFF7E3FF01BD80B5FFF7CDFF02BDBA
:1018B00010B5204C0020C4F898000020C4F89C000B
:1018C00014F1A00002F020FD14F1B80002F01CFD9C
:1018D00010BD202080F311881648D0F89810491CBC
:1018E000C0F89810002080F31188704780B50A0076
:1018F0001049D1F89C305B1CC1F89C3010F14801B4
:1019000012F1480002F01BFD01BD80B50A4802F04B
:1019100009FD01BD80B5084802F008FD01BD80B594
:10192000064802F0FFFC01BD80B5044802F0FEFC51
:1019300001BD0000381F0020D81F0020F01F00202C
:10194000081880B27047081A80B2704780B580B21C
:10195000FFF79CFF01BD80B5FFF79DFF01BD80B57E
:1019600080B2FFF79CFF01BD80B5FFF79DFF02BD70
:1019700080B5FFF7F9FF02BD5A4810F11C01C161A3
:1019800001625FF0FF3141620021018570472DE95E
:10199000F04104000D002361E260FFF7E9FF80469B
:1019A000022D00D202254F4E16F11C00F16988422B
:1019B00013D1A6F82880F461346220606060A560CD
:1019C000B5F5803F01D34FF6FF752900308DFFF745
:1019D000B7FF80B2FFF7BAFF35E0F769414689B239
:1019E000308DFFF7B0FF2D18414689B2308DFFF7DB
:1019F000AAFF854203D2B8682D1A3F6812E0B86882
:101A000085420FD22900B1F5803F01D34FF6FF7117
:101A1000308DFFF795FF80B2FFF7A1FF02E0B868B5
:101A20002D1A3F68B868A842F9D32760206840683B
:101A30006060606804607C60A560B868451BBD603C
:101A40005FF0FF307062BDE8F08110B5254CE169B0
:101A5000814213D001684268116041680268516098
:101A60000021C16014F11C010268914205D0016897
:101A70008A6881688A180068826032E00168E161E2
:101A800014F11C01E26951600022C260E2699142D6
:101A900002D1FFF760FF24E0E1698968806841189E
:101AA000E0698160FFF764FF010089B2208DFFF7D4
:101AB0004AFFE1698968884213D2E1698968091A95
:101AC000022901D2801C05E04018B0F5803F01D307
:101AD0004FF6FF700100208DFFF732FF80B2FFF755
:101AE0003EFF10BD381F0020C0B200280DD00228D4
:101AF00007D008D3042805D006D3062806D006D27E
:101B000005E004E003E002E001E000E0FFE77047E9
:101B100038B5040000200020002500212100C9B2B2
:101B2000002937D0022910D022D3042917D028D376
:101B3000062938D041D24FF48071DFF888060500BD
:101B4000002289B202F008FC37E04FF48071DFF820
:101B500078060500002289B202F0FEFB2DE080210C
:101B6000DFF868060500002289B202F0F5FB24E0E8
:101B70008021DFF85C060500002289B202F0ECFB50
:101B80001BE04021DFF84C060500002289B202F07C
:101B9000E3FB12E04021DFF840060500002289B295
:101BA00002F0DAFB09E04FF48071DFF8300605003F
:101BB000002289B202F0D0FBFFE7DFF824162200F2
:101BC000D2B201EB420250802022002002F01EFC23
:101BD0004FF480722900E4B24FF480704443203403
:101BE000200080B202F012FC31BDF8B504000D00F7
:101BF0000026002000272000C0B200281ED00228A6
:101C00000BD013D304280DD014D306281AD01ED21B
:101C10004FF48076DFF8AC7519E04FF48076DFF88A
:101C2000A87514E08026DFF8A47510E08026DFF8A0
:101C3000A0750CE04026DFF89C7508E04026DFF830
:101C4000987504E04FF48076DFF89075FFE7320076
:101C500092B239002000C0B24FF480735843203054
:101C600002F0C6FB0022310089B2380002F074FB9A
:101C7000ADB280B2854207D02000C0B2FFF734FF7A
:101C80002000C0B2FFF744FFF1BD38B5DFF8504582
:101C900020222100002002F0ABFB00202088AB288E
:101CA0000FD100252800C0B208281BDA2800C0B2D6
:101CB00004EB400041882800C0B2FFF796FF6D1C7E
:101CC000F0E7AB202080002508E02800C0B2FFF735
:101CD0000BFF2800C0B2FFF71BFF6D1C2800C0B22D
:101CE0000828F2DB0020A4F8200931BD10B501005E
:101CF000C9B2FF290AD100242000C0B2082808DA9E
:101D00002000C0B2FFF704FF641CF5E7C0B2FFF784
:101D1000FFFE002010BD70B51C0000250B00002048
:101D20001605360DC9B2FF2902D192B2120B13006B
:101D3000DBB2002B09D0022B18D00ED3042B26D0F7
:101D40001DD3062B34D02BD33BE00125DFF89004C4
:101D5000B6B2304410F5587033E00225DFF8800445
:101D6000B6B200EB460010F528702AE00425DFF833
:101D70007004B6B200EB860010F5907021E00125EA
:101D8000DFF85C04B6B2304410F5487019E0022563
:101D9000DFF84C04B6B200EB460010F5087010E016
:101DA0000425DFF83C04B6B200EB8600203008E0E2
:101DB0000425DFF82C04B6B200EB860010F568703D
:101DC000FFE7290049B2012906DB2A0052B292B28C
:101DD0000100200002F08CFB280040B270BD70B5FD
:101DE0005FF0FF3000240D0000261005000DC9B281
:101DF000FF2902D192B2120B15002900C9B20029A5
:101E000009D0022918D00ED3042926D01DD30629C3
:101E100035D02BD33CE00124DFF8C41380B2084452
:101E200010F5587634E00224DFF8B41380B201EBE9
:101E3000400010F528762BE00424DFF8A41380B2CC
:101E400001EB800010F5907622E00124DFF890137A
:101E500080B2084410F548761AE00224DFF88013B7
:101E600080B201EB400010F5087611E00424DFF8A1
:101E7000701380B201EB800010F1200608E004240A
:101E8000DFF85C1380B201EB800010F56876FFE7A5
:101E9000200040B201281ADB220052B292B219008F
:101EA000300002F025FBDFF83C030078002804D066
:101EB0002800C0B2FFF71AFF09E0DFF82403B0F8EA
:101EC0002019012212FA05F50D43A0F8205920002F
:101ED00040B270BD10B500240CE0DFF80403B0F888
:101EE00020090121A140084203D02000C0B2FFF721
:101EF000FDFE641C2000C0B20728EEDB10BD0021EF
:101F0000010089B2C1F30231002909D1DFF8D012F2
:101F100080B20005000D084490F86003C0B270471D
:101F2000FEE70021010089B2C1F3023101290AD183
:101F3000DFF8AC1280B20005000D01EB4000B0F8F4
:101F4000A00280B27047FEE79FED850A010089B2CA
:101F5000C1F30231062909D1DFF8841280B20005ED
:101F6000000D01EB800090EDE80A7047FEE70200EB
:101F700092B2C2F30232002A07D1DFF8642280B2A3
:101F80000005000D104480F860137047020092B203
:101F9000C2F30232012A08D1DFF8442280B20005E0
:101FA000000D02EB4000A0F8A0127047010089B2BA
:101FB000C1F30231062908D1DFF8241280B20005EE
:101FC000000D01EB800080EDE80A704770B51C0041
:101FD00000250B0000201605360DC9B2FF2902D1DD
:101FE00092B2120B1300DBB2002B09D0022B18D0D7
:101FF0000ED3042B25D01DD3062B32D029D338E0A5
:102000000125DFF8DC01B6B2304410F5FC6030E0A9
:102010000225DFF8CC01B6B200EB460010F5E46013
:1020200027E00425DFF8B801B6B200EB860010F512
:10203000B4601EE001256A48B6B2304410F5F46081
:1020400017E002256648B6B200EB460010F5D460F2
:102050000FE004256248B6B200EB860010F59460EC
:1020600007E004255E48B6B200EB860010F502607A
:10207000FFE7290049B2012906DB2A0052B292B2D9
:102080000100200002F034FA280040B270BDF8B51B
:102090005FF0FF3400200D00002617053F0DC9B288
:1020A000FF2902D192B2120B15002900C9B20029F2
:1020B00009D0022916D00DD3042922D01AD306291B
:1020C0002FD026D335E001204549BFB2394411F560
:1020D000FC662EE002204249BFB201EB470111F538
:1020E000E46626E004203E49BFB201EB870111F50A
:1020F000B4661EE001203A49BFB2394411F5F466D6
:1021000017E002203649BFB201EB470111F5D46652
:102110000FE004203249BFB201EB870111F594664C
:1021200007E004202E49BFB201EB870111F50266DA
:10213000FFE7010049B201290EDB40B280B2020084
:102140001900300002F0D4F926480078002803D0A6
:102150002800C0B2FFF7CAFD200040B2F2BD000067
:1021600000000000020092B2C2F30232002A06D13F
:102170001B4A80B20005000D104480F8E01770473C
:10218000020092B2C2F30232012A07D1144A80B28D
:102190000005000D02EB4000A0F820177047020078
:1021A00092B2C2F30232022A07D10D4A80B2000570
:1021B000000D02EB8000C0F8A015704709490870B7
:1021C00070470000302B0020302C0020302D0020E4
:1021D000B02D0020302E0020702E0020B02E0020C8
:1021E000102B0020E4060020BBBBE1B1B2F5803F1C
:1021F00080F07E80022A1ED98C46B1FBF2F102FBF0
:1022000011C31B0443EA1043B3FBF2FC02FB1C3373
:1022100080B240EA0343B3FBF2F002FB103240EA23
:102220000C4000237047022A05D98446B0FBF2F027
:1022300002FB10C270474AB105D100F00102490803
:102240005FEA3000704700220023704702F0A4B913
:102250000B000200002100207047904271EB030C3C
:10226000F6D3B3F5803F2FD2F0B5B3FA83F7B1FAC6
:1022700081F4A7F10F0E3D1B5340CEF1200602FA68
:102280000EF2F3415340B5F10F0746D80F3C2C44F2
:102290004140C4F12006A040F1414140B1FBF3F6BA
:1022A00003FB1611A2FB0645001BA94102D2761EB4
:1022B0008018594180EA010221FA0EF362FA0EF207
:1022C00000215A403046F0BD30B4B1FBF3FC03FBB3
:1022D0001C11A2FB0C45001BA94103D2ACF1010C5F
:1022E0008018594130BC02460B46604600217047B9
:1022F000B2F1807F65D3F0B5B2FA82F7B1FA81F41A
:10230000C7F10F063D1B22FA06F307F1110EF24149
:1023100020355A40B5F10F07B8D94140C4F1200625
:10232000A040F1414140B1FBF3FC03FB1C11A2FBB7
:102330000C45001BA94103D2BCF1010C8018594186
:102340000F2F12D30F3FC90341EA5041B1FBF3F6FF
:1023500003FB1611A2FB0645D4EBC030A94102D203
:10236000761E8018594146EACC3C07B34140C7F17C
:102370002006B840F1414140B1FBF3F603FB1611D2
:10238000A2FB0645001BA94102D2761E80185941C6
:1023900080EA010221FA0EF3C7F1200462FA0EF27C
:1023A0000CFA07F05A402CFA04F13043F0BD80EAF1
:1023B000010221FA0EF3002162FA0EF260465A4041
:1023C000F0BD8C46B1FBF2F102FB11C31B0243EAE4
:1023D0001063B3FBF2FC02FB1C331B024CEA00202F
:1023E00043EA1063B3FBF2FC02FB1C331B024CEA12
:1023F000002043EA1063B3FBF2FC02FB1C331B0218
:102400004CEA002043EA1063B3FBF2FC02FB1C32EF
:102410004CEA00200023704780B5202080F311880B
:10242000FFF773FA01BD80B5FFF774FA002080F35F
:10243000118801BD80B5FFF7EFFF01BD80B5FFF743
:10244000F2FF01BD80B502F0C4F801BD01210170A9
:10245000002141600021C16000210174704738B53E
:1024600004000D00FFF7E6FF65606868A0602000CB
:1024700002F0CAF80020E06002202070FFF7DEFFC3
:1024800031BD10B50400FFF7D5FF200002F079F947
:102490000020E0600020606001202070FFF7CEFF88
:1024A00010BD70B504000D001600FFF7C3FFE06813
:1024B0000121A9400843E06032002900C9B2200090
:1024C00002F0A2F9FFF7BAFF70BDF0B4024610683F
:1024D00095681318506803EB5004C0071DD54D4490
:1024E0001BE013F8017B05F8017B491EF9D1A0B16F
:1024F000B60813F8011B06F00306032E08BF13F8F5
:10250000016B01EB06214942801C294405D011F8DA
:10251000016B05F8016B401EF9D1A3420ED013F8F0
:10252000016B16F0030104BF13F8011BC91C30092D
:102530000F28DAD113F8010B0F30D6E7F0BC02F107
:102540000C00704780B50100634A1069002800F054
:10255000A58062481369B3F8443090FBF3F0106330
:102560005E481369B3F8463090FBF3F05063536B49
:10257000106B1B1A5020B3FBF0F01087B2F9380033
:10258000022801DA022010871069008B0B001BB2B1
:10259000984208DB1069408B00EE100AB8EE400A42
:1025A00000F07DF87AE01069008B0B001BB29842B6
:1025B00012DA1069808B0B001BB298420CDB09B257
:1025C0001069008B091A00EE101AB8EEC00AD2ED9D
:1025D000050A20EE200A47E01069808B0B001BB231
:1025E00098421ADA1069008C0B001BB2984214DB77
:1025F00009B21069808B091A00EE101AB8EEC00AF1
:10260000D2ED060A20EE200A1069C08B00EE900A77
:10261000F8EE600A30EE800A26E01069008C0B00AC
:102620001BB298421ADA1069808C0B001BB29842D8
:1026300014DB09B21069008C091A00EE101AB8EE0A
:10264000C00AD2ED070A20EE200A1069408C00EE85
:10265000900AF8EE600A30EE800A05E01069C08C3E
:1026600000EE100AB8EE400AD2ED030A20EE200A6E
:10267000BDEEC00A10EE101A080000B213689842AE
:1026800002DA1068401A01E01068081A00B2401E11
:10269000092803D30020107209B2116001BD0E4950
:1026A00091F90800002807D10868012804DB0120FF
:1026B00008727FF06300086008480A69B2F8442095
:1026C00090FBF2F00863086B40080863086B14285D
:1026D00001D2142008637047A43F0020A0860100A7
:1026E000002108E0374A002342F83130002302EB92
:1026F000C1025360491C1029F4D333490A6852F0CF
:10270000BD020A6009680168304A11608168304A78
:10271000116041682F4A1160C1682F4A11604169F8
:102720002E4A116001692E4A116081692D4A11609B
:10273000016A2D4A1160C1692C4A1160416A2C4A14
:102740001160C16A2B4A1160816A2B4A1160016BCA
:102750002A4A1160816B2A4A1160406B294908603E
:102760007047F0B4032A01D1016102E0042A00D1CC
:102770004161254B9E5C00221500140013000027C8
:1027800009E0344305E035435FEA014CF9D452F0E7
:102790000F0249007F1C082F09D21B0112012D01D5
:1027A00024015FEA016CEED453F00F03ECE74168BB
:1027B0000A402243426001680B402B430360F0BC97
:1027C0007047000014350020181002400C0801402A
:1027D00004080140000801400C0C0140040C0140B9
:1027E000000C01400C100140041001400010014099
:1027F0000C14014004140140001401400C1C014061
:10280000041C0140001C0140C06F000880B501207D
:10281000FFF775FBC0B2AA280ED001210420FFF7F4
:10282000A6FB04210920FFF7A2FBAA210120FFF744
:102830009EFB0020FFF75AFA01BD38B5FFF7E6FF0F
:102840000420FFF75CFBCE4C2071CE4DAC6009201C
:10285000FFF755FB287304202873287B002806D037
:1028600002280ED008D3042815D00FD318E04FF457
:102870001650C549086017E04FF49640C2490860F9
:1028800012E04FF41640C04908600DE04FF461407B
:10289000BD49086008E05FF4E130BB49086003E02F
:1028A0004FF41650B8490860B749B84802F070F8BC
:1028B0000094B74B812241F27011B64800F017FA2C
:1028C0002860B54800F0D4FC686031BD70472DE940
:1028D000F84FA0B004000D00280068461600A87844
:1028E0006F7857EA002795F8008018F07F0828785D
:1028F00010F08000C0B2002828D10020B6F10209F3
:1029000015F1030A0020FFF759FC5FF0000B01E00E
:102910001BF1010B58464146C0B2C9B2884210D2E1
:1029200053463A0092B2FF210020FFF758FAB9EB64
:10293000000947FA80F740B282444846C0B20028F6
:10294000E6D10120FFF73AFCFFF7C4FA68460221FE
:102950000170401C10210170401C894909790170E7
:10296000401C401C29780170401C69780170401C93
:10297000A9780170471CB01E0020A8786D7855EA30
:10298000002500260BE03B002A0092B2FF21002028
:10299000FFF7C1F945FA80F540B20744761C3000D4
:1029A0004146C0B2C9B28842EDD30DF10300381AD6
:1029B000401E8DF803007D1C6846281A811EC9B28E
:1029C0000DF1010002F027F8387003202870042070
:1029D00000F03FFA68462D1A6D1C2A006946200057
:1029E00023685B68984721B0BDE8F08F2DE9F84F68
:1029F000A0B004000D00280068461600A8786F7883
:102A000057EA002795F8008018F07F08287810F022
:102A10008000C0B2002826D10020B6F1020915F1CD
:102A2000030A0020FFF7CAFB5FF0000B01E01BF177
:102A3000010B58464146C0B2C9B2884210D2534633
:102A40003A0092B2FF210020FFF721FBB9EB000909
:102A500047FA80F740B282444846C0B20028E6D127
:102A60000120FFF7ABFB684602210170401C2021CA
:102A70000170401C424909790170401C401C2978B2
:102A80000170401C69780170401CA9780170451CD8
:102A9000B01E002000260BE02B003A0092B200216D
:102AA0000020FFF793FA47FA80F740B20544761CFE
:102AB00030004146C0B2C9B28842EDD30DF10300E7
:102AC000281A401E8DF803006E1C6846301A811EBD
:102AD000C9B20DF1010001F09EFF28700320307093
:102AE000042000F0B6F96846361A761C32006946B2
:102AF000200023685B68984721B0BDE8F08F80B55F
:102B000008004878097851EA00211E4A50680028D8
:102B100005D0012010FA01F1506800F022FB01BD40
:102B200038B5A0B00C00694602220A70491C402248
:102B30000A70491C124A12790A70491C0C704D1C0B
:102B40002200D2B20100280002F028F8E4B22C449E
:102B5000651C6846281A811EC9B20DF1010001F0FA
:102B60005AFF207003202870084869466D1A6D1CB2
:102B70002A00694603685B68984721B030BD0000B1
:102B8000700500209422002064050020E835002014
:102B9000394B0008C80D0020047000080060704721
:102BA0000168814201D0012000E00020C0B27047DE
:102BB0000060406070470168814201D0012000E060
:102BC0000020C0B270470A680260086070470100C8
:102BD000086802680A60704701604A68426042689B
:102BE0001060486070470100086802680A600A685F
:102BF0005160704780B5202080F31188FEF785FE74
:102C000001BD80B5FEF786FE002080F3118801BD6E
:102C1000DFF8F80280697047C069704780B501002D
:102C2000082002F069F801BD10B50C00FFF7DBFFCA
:102C3000446201F0FAFF10BD10B50400A26002204A
:102C400084F82000002084F82100E2630020A063C3
:102C500000206063012084F82200A161DFF8AC024B
:102C600020614169616161690C61446114F128006E
:102C7000FFF794FF14F12C00FFF79AFF14F14800BE
:102C800001F042FB200010BD01E00270401C8842B0
:102C9000FBD3704780B58168B1F160034168D961A9
:102CA000B3F16401D9600169DA6811644169DA68D5
:102CB00051649749DA681166C26801681800FFF725
:102CC000BBFF02BD10B504005522A1686068FFF784
:102CD000DBFFFFF78FFF2000FFF7DCFF0400002180
:102CE000200002F02BF8FFF78CFF200010BD2DE92B
:102CF000F0410700884614001E00069D552207EB90
:102D000008013800FFF7C0FFFFF774FF07EB08006A
:102D10006038C761B0F16401C160C1680E64C16808
:102D20004D647B49C268116622007A49FFF784FF2F
:102D300004000021200002F001F8FFF762FF2000EC
:102D4000BDE8F08110B50400FFF754FF94F82200AD
:102D5000401E84F8220094F82200002824D194F820
:102D600020000F2820D1206961690861606921690C
:102D70004861FFF746FF94F8210010F00300C0B24D
:102D8000012802D0022806D00DE02000FFF744FF02
:102D900002F064F807E02000FFF73EFF0100206C1E
:102DA00002F0BAF8FFE701E0FFF72BFF10BD10B506
:102DB0000400FFF71FFF200000F001F810BD10B560
:102DC00052498C69606205E014F12800FFF7FFFEAC
:102DD00001F02BFF14F12800FFF7E2FE0028F3D1E9
:102DE00094F8220000280AD194F8210010F0030F73
:102DF00005D12069616908616069216948610F2016
:102E000001F033FF10BD38B50400FFF7F3FE94F86E
:102E100020000F2808D014F128013C488069FFF7F2
:102E2000D2FE092001F021FF656AFFF7EAFE2000CB
:102E3000FFF788FF280032BD10B50400FFF7DAFE67
:102E400094F8210050F0040084F82100FFF7D9FE27
:102E500010BD10B50400FFF7CDFE2000FFF7DEFE29
:102E6000FFF7CFFE10BD10B50400FFF7D1FE2060C4
:102E70004462032001F0F9FEFFF7CAFE406A10BD6C
:102E800038B505000C00FFF7C3FE002C02D15FF03F
:102E9000FF3005E0286045622100032001F02CFF8F
:102EA00032BD80B50268002A06D0026800230360A4
:102EB0005162100001F0B9FE01BD80B50268002A20
:102EC00005D0026800230360100001F037FF01BD48
:102ED00038B504000D00FFF78DFE29002000FFF734
:102EE000ECFFFFF78EFE31BD10B50C00002C02D1B7
:102EF0005FF0FF3008E0010004488069FFF76CFED6
:102F00002100042001F0F8FE10BD0000381F002051
:102F1000C15F00081470000838B504000D002000DF
:102F2000FFF749FE002803D029002000FFF77CFEB0
:102F300031BD30B4002513E050F8042BD30744BF53
:102F4000A9F101039A18091F042942F8045BFAD277
:102F500013468C0744BF15809B1CC90748BF1D70D2
:102F600050F8041B0029E7D130BC7047704780B58A
:102F7000FFF7FCFF01F0E2FF0848FFF7B1FB00F0AC
:102F8000A8F902F047F8FFF75DFA01F0DDFC02F066
:102F900072F802F0D1F8FEF775FC01BDA86E0008CA
:102FA000081880B27047081A80B2704780B5FEF7E3
:102FB00072FC01BD80B580B2FEF771FC01BD80B529
:102FC000FEF772FC02BD002080F3118862B67047E4
:102FD00080B5202080F31188FEF7A1FC01BD80B5EB
:102FE000FEF7A2FC002080F3118801BD80B5FFF739
:102FF000E6FF02BDF8B5454CE569FFF7F7FF0700AE
:10300000390089B2208DFFF7CEFF0600A8688642FE
:1030100005D2E06914F11C0188421FD13EE0218DE8
:10302000A86841182185A868361A14F11C0029687F
:1030300048602968E161EF680021E960E169814247
:1030400001D1FFF7B3FFFFF7CAFF2869B847FFF7C1
:10305000BFFFE569A8688642E1D2CEE7208D30182F
:103060002085E0698068861BE0698660390089B246
:10307000208DFFF798FF0100A868411A022901D2AC
:10308000022104E0B1F5803F01D34FF6FF71380013
:1030900080B2FFF785FF80B2FFF78CFFF1BD80B5EE
:1030A00002F05AF801F0CEFE02F095F801BDFEE7FD
:1030B00010B501F0B0FDFEF75FFCFFF7F0FF01F087
:1030C0000BF9FEF7F5FB114C8022114914F1300089
:1030D000FFF7B2FDA0610F48A169C8610120A16995
:1030E00081F8200002F0D3F8A069483001F01AF905
:1030F000FFF769FF0848FFF7E5FD10BD72B6034909
:10310000C862FEE780B5FFF775FF01BD381F0020DC
:103110007C6F000800040020946F000880B5202018
:1031200080F31188FEF7F1FB01BD80B5FEF7F2FBDD
:10313000002080F3118801BD70B505000C002E68D9
:103140000CE0F0682043F060002C02D030690442AB
:1031500003D0B168706800F012F83668AE42F0D162
:1031600070BD38B504000D00FFF7D8FF290020001E
:1031700000F005F801F008FEFFF7D7FF31BD80B57C
:10318000426B1143416390F820100A2903D1416B2F
:10319000426A114209D190F820100B2909D1426BE3
:1031A000416A0A40416A8A4203D10021416201F02A
:1031B0003CFD01BDF8B506000D0011488769FFF719
:1031C000ADFF7C6B3440002C13D1002D03D1FFF7F1
:1031D000ACFF002013E07E6229000A2001F08CFD84
:1031E000002803D5FFF7A1FF002008E0786B064018
:1031F0003400786BA0437863FFF797FF2000F2BD9F
:10320000381F002080B5202080F31188FEF77DFB59
:1032100001BD80B5FEF77EFB002080F3118801BD63
:103220008069704710B5FFF7EDFF1048046994F806
:103230002200401C84F82200FFF7EBFF200010BDA5
:1032400038B50400FFF7DEFF25690848854201D143
:10325000002504E095F82200401C85F82200FFF7C5
:10326000D8FF2000FFF76EFD280032BD381F002078
:1032700038B50500FFF7D6FF04002000FFF7D0FFA8
:10328000290002F05BF8002807D02000FFF7D8FFE4
:103290000400002CF1D1002032BD2000FCE780B5F5
:1032A000202080F31188FEF730FB01BD80B5FEF7CA
:1032B00031FB002080F3118801BD80B5FFF7EFFFDF
:1032C00001BD80B5FFF7F2FF01BD80B502F07CF8CB
:1032D00001BD80B502F07DF901BD80B5012101700D
:1032E00000214160002181600021C1600021016155
:1032F000002141611830FFF7E8FF01BD38B5040037
:103300000D00FFF7DAFF6560200002F08CF9022063
:103310002070FFF7D6FF31BDF8B504000D00160090
:103320001F00FFF7CAFF3B0032002900200000F019
:1033300003F8FFF7C6FFF1BD80B58260C36001618D
:103340000321017002F09EF901BDFFFFC0F3C751D8
:1033500081B1FF2906D0C110400721F0E04101F101
:103360006051704741020CBF40F4E0016FF0004132
:103370000020704700F0004100020AD0B0FA80FC43
:1033800000FA0CF001F16051A1EB0C5101EBD021DE
:1033900040057047C11768B14840401AB0FA80F242
:1033A0009040D21CC907C2F5846241EA025202EB86
:1033B000D02140057047FEE7B0B581EA030C0CF060
:1033C000004C40F2FF7515EA11541DBF15EA135762
:1033D000AC42AF4239E0E41923EA455343F4801389
:1033E000C90241F0004141EA505EC7021100A7FB4B
:1033F000020200284FF00000EEFB01204FF0000118
:10340000E3FB072118BF42F00102401800214941A7
:10341000E3FB0E01A4F580640F0302D25200404189
:10342000494154F101046CDD470872F1004250F14A
:10343000000051EB0451A1F580115CBF41EA0C0181
:10344000B0BD4CEA05510020B0BD05EA1357AC42AF
:1034500014BFAF4241E050EA410E1CBF52EA430E96
:1034600002E061460020B0BD24423C441BD15FEA2B
:10347000070EF6D0090302BF01460020AEF1140E7C
:10348000B1FA81F7AEEB070401FA07FE0C37C7F17A
:10349000200100FA07F7C8404EEA000E23EA455320
:1034A00043F48013A2E733F00043B3FA83F704BF79
:1034B000B2FA82FE77440B3FE41BB7F1200E2FBF18
:1034C00002FA0EF3BB40C7F1200E22FA0EFE38BFFF
:1034D00043EA0E03BA40641C82E750EA410E14BF6F
:1034E00052EA430E6FF000014FF4001717EB430F41
:1034F0008ABF194617EB410FB5E74CEA055100208A
:10350000B0BDD4F10104B4F120070FDAC4F12007F3
:10351000520828BF42F0010210FA07F501FA07F736
:10352000E1BF2A43E0403843E1400FE0352C98DC0E
:10353000C7F1200452EA400220FA07F218BF42F015
:10354000010231FA07F0A1400A43002172F1004262
:1035500050F1000051EB0C01B0BD000070B44FF011
:10356000004591EA030F42F1E9806B40841A71EB48
:10357000030604D26E40001BB141121973414FF48F
:10358000001C1CEB410F34BF7CEB430683E00C0DA9
:10359000A4EB1356362E00F37C80012E45EAC3239C
:1035A00041DC43EA525312BFD20292025B08240567
:1035B00045EAC12141EA5051D2EBC020994125D4BE
:1035C00007D1B0FA80F610FA06F162D0002020365A
:1035D00008E0B1FA81F6B140C6F1200220FA02F209
:1035E0001143B0404FEAF474B4EB465434F0010692
:1035F0004FEA74040AD8D6F50016760D04F000449C
:10360000F04061FA06F25040F1404840C00A40EAFA
:10361000415021F0004128BF5FEA500550F1000001
:1036200044EBD12135E0DB0A45EAC121C90AB6F1F4
:1036300020050EDD42EA0242120CC5F1200603FA13
:1036400006F6EB4042EA06056D42984161F1000141
:103650000DE062FA06F5F240554063FA06FC82EA94
:103660000C02F3405A406D42904161EB030111F4AA
:10367000801F05D1641E620502D06D0040414941A2
:1036800021F48011430875F1004350F1000041EB33
:10369000045170BC70471CEB410F15D223F000435E
:1036A00052EA43060BD04FEA4C0CBCEB410F04D856
:1036B0000C0D661E342EB7DDEBE7801A994150EAF7
:1036C000410608BF0021E4E708BF1CEB430F28BFF9
:1036D0006FF00001DDE7000001F000428B1AA3F15A
:1036E0006051B1F5801F0ADBB1F17F6F1FD242EA52
:1036F000C102C10071F1004142EB507070470B15DF
:10370000C3F10903212B10D2890241EA90518002B2
:103710000128494141F0004121FA03F0C3F120039F
:10372000994071F1004150417047100070476FF0AF
:10373000000013EB103F5CBF000E42EAC050704720
:1037400080B50C2100F0A7FC01BD1CB504008DF86C
:1037500000102021200000F09EFC01236A46432136
:10376000200000F05DFC13BD1CB5040020212000EA
:1037700000F091FC0220FFF76CFB01236A46C12197
:10378000200000F001FC9DF800008006F2D513BD7A
:103790007CB504000D002021200000F07CFC0123FA
:1037A0006A46C021200000F0EFFBEDB2012D06D1EA
:1037B0009DF8000050F040008DF8000005E09DF8F5
:1037C000000010F0BF008DF8000001236A46402180
:1037D000200000F025FC2221200000F05CFC8F205E
:1037E0008DF8000001236A466121200000F018FCDA
:1037F00004262121200000F04EFC002512E0DFF815
:10380000B40601232900C9B200EB41014A1C29007A
:10381000C9B210F8111051F04001C9B2200000F0F7
:10382000FFFB6D1C28003100C0B2C9B28842E6D34C
:103830002021200000F02FFC73BD1CB504000320E4
:103840008DF800002021200000F025FC01236A46AD
:103850007D21200000F0E4FB18208DF800000123FA
:103860006A467C21200000F0DBFB13BD38B5040064
:103870001500481E8DF800002021200000F00BFCF0
:1038800001236A464B21200000F0CAFB01236A464F
:10389000CC21200000F078FB9DF8000010F0FC0027
:1038A0008DF800009DF80010DFF80C06EDB2405DC9
:1038B00041188DF8001001236A464C21200000F0C9
:1038C000AFFB31BD38B504000D002021200000F011
:1038D000E2FB01236A46CC21200000F055FB9DF855
:1038E000000010F0F3008DF800009DF80010DFF8E4
:1038F000CC05EDB2405D01438DF8001001236A460E
:103900004C21200000F08CFB002008E0411CC9B2D3
:103910004900DFF8AC250300DBB2D154401C0100A4
:10392000C9B20829F2DB0823DFF894251021200012
:1039300000F076FB31BD2DE9FC4105000F001600BB
:103940009846089C2021280000F0A5FB01236A4628
:10395000CD21280000F018FB9DF8000010F0F000C9
:103960008DF800009DF80000B60056EAC70656EA3A
:103970004806264306438DF8006001236A464D2120
:10398000280000F04DFB01236A46CD21280000F0FD
:10399000FBFAA87A10F03F008DF8000001236A4678
:1039A0005221280000F03CFB01236A46D221280066
:1039B00000F0EAFA688980B2000A8DF8000001235D
:1039C0006A465321280000F02BFB01236A46D321CD
:1039D000280000F0D9FABDE8F38138B504000D00E5
:1039E0002021200000F057FB01236A46CD21200052
:1039F00000F0CAFA9DF8000010F07F008DF800007A
:103A00009DF8000050EAC5108DF8000001236A46B9
:103A10004D21200000F004FB31BD38B504000D003D
:103A20002021200000F037FB01236A46CD21200031
:103A300000F0AAFA9DF8000010F0BF008DF8000019
:103A40009DF8000050EA85108DF8000001236A46B9
:103A50004D21200000F0E4FA31BD7CB504000D00DA
:103A600016002021200000F016FB01236A46CD211C
:103A7000200000F089FA9DF8000010F0CF008DF8CA
:103A800000009DF80000360156EA451606438DF801
:103A9000006001236A464D21200000F0C1FA73BD89
:103AA0007CB504000D0016002021200000F0F3FA80
:103AB00001236A46CE21200000F066FA9DF800003E
:103AC00056EAC51606438DF8006001236A464E216A
:103AD000200000F0A5FA73BD38B52DED028B82B041
:103AE0000400DFED940AB4EE600AF1EE10FA0BD593
:103AF00000208DF80000DFED900A20EE200AF1EEA4
:103B0000000A20EE208A28E0DFED8C0AB4EE600A7D
:103B1000F1EE10FA0BDB60208DF80000DFED860A75
:103B200020EE200AF7EE000A20EE208A15E0DFEDF5
:103B3000820A60EE200AB0EE001A20EE818ADFEDE4
:103B4000800AB4EE600AF1EE10FA03DB40208DF833
:103B5000000002E020208DF800002021200000F06D
:103B60009AFA01230DF10102E021200000F00CFA85
:103B70009DF8010010F09F008DF801009DF80010E5
:103B80009DF8010001438DF8001001236A46602171
:103B9000200000F045FA9FED6B0A88EE000AFDEE6A
:103BA000C00A10EE900A8DF800009DF8000000EEAB
:103BB000900AF8EE600A30EE600ADFED630A20EE4C
:103BC000200ABCEEC00A10EE105A01236A46622198
:103BD000200000F025FA28008DF8000001236A4635
:103BE0006321200000F01CFA2800000A8DF8000074
:103BF00001236A466421200000F012FA2D0C8DF892
:103C0000005001236A466521200000F009FA02B045
:103C1000BDEC028B31BD38B504000D002021200021
:103C200000F039FADFF89C02EDB22844007D8DF8EF
:103C3000000001236A467F21200000F0F1F931BD28
:103C4000F8B504000D002221200000F024FA28001D
:103C5000C0B2052803DA44208DF8000002E05420A9
:103C60008DF8000001236A466F21200000F0D8F98A
:103C70002021200000F00FFA0323DFF84C02290076
:103C8000C9B200EBC1025421200000F0C9F9082399
:103C9000DFF838022900C9B200EBC1025721200029
:103CA00000F0BEF92121200000F0F5F9DFF82062D4
:103CB000300014272900C9B27943405A8DF800001A
:103CC00001236A466C21200000F0AAF91223EDB20C
:103CD0007D4306EB0500821C6D21200000F0A0F959
:103CE0002021200000F0D7F9F1BD38B504002221D1
:103CF000200000F0D0F9002512E0DFF8D801012300
:103D00002900C9B200EB41014A1C2900C9B210F8D0
:103D1000111051F04001C9B2200000F081F96D1C72
:103D20002800C0B20328E8DB2021200000F0B3F90E
:103D300031BD00000000C84300247449000048441D
:103D40000100E1430024744B0000804980B5012349
:103D50006A46EA2100F018F99DF8000002BD7CB522
:103D6000040040225C4D29005C4E300000F0C0FB96
:103D700040225B4E2900300000F0BAFB2000FFF724
:103D8000B4FF2000FFF759FD01212000FFF700FDDF
:103D9000032204212000FFF769FD112200212000E9
:103DA000FFF790FD01200090012301220121200056
:103DB000FFF7C1FD00212000FFF70FFE00212000CA
:103DC000FFF72BFE012201212000FFF746FE3622DD
:103DD00000212000FFF764FE94ED030A2000FFF7A6
:103DE0007BFE217A2000FFF716FF617A2000FFF7A3
:103DF00027FF2000FFF7B8FC73BD1CB504000123AA
:103E00006A46E021200000F0BFF89DF8000050F065
:103E100008008DF8000001236A466021200000F0B0
:103E2000FFF801236A46E021200000F0ADF89DF87C
:103E300000000007F5D413BD1CB5040001236A4639
:103E4000FE21200000F0A0F89DF8000050F0800056
:103E50008DF8000001236A467E21200000F0E0F882
:103E600001236A46FE21200000F08EF89DF8000034
:103E70000006F5D413BD80B5FFF762FC01BD38B56F
:103E8000040001236A46C421200000F07DF89DF85B
:103E900000502800C0B2002808D000208DF8000093
:103EA00001236A464421200000F0BAF82800C0B27D
:103EB00032BD00001C700008980500209C05002001
:103EC000343400207C050020E80500202006002076
:103ED00058060020E0050020A00500204034002006
:103EE000803400201CB5040061602000FFF728FC2E
:103EF0000821200000F0CFF8200000F0F6F8202183
:103F0000200000F0C8F804208DF8000001236A4664
:103F10004821200000F084F801236A46C1212000D6
:103F200000F032F89DF8000050F001008DF800001C
:103F300001236A464121200000F072F89DF800003C
:103F400010F0FE008DF8000001236A464121200098
:103F500000F066F82000FFF702FF2000FFF74DFF9A
:103F60002000FFF769FF2000FFF785FF60898DF8CB
:103F7000000001236A464821200000F051F820008B
:103F800000F0B3F813BD00002DE9FC41040015005A
:103F90001E00002C01D1FF203DE08DF8001060686C
:103FA000006801F0BBF8606841686068006801F073
:103FB00071F801276068C06817FA00F061688968C5
:103FC00048616A4601216068006801F07FF8DFF807
:103FD0004C8002224FF400414046FEF7C2FB2A000B
:103FE000F6B231006068006801F084F810224FF4E6
:103FF00000414046FEF7B5FB6068C06887406068D6
:10400000806807616068006801F052F860680068C5
:1040100001F089F80020BDE8F6810000000C0140A5
:10402000F8B5040015001E00002C01D1FF2031E07E
:104030008DF800106068006801F070F860684168F1
:104040006068006801F026F801276068C06817FA08
:1040500000F06168896848616A460121606800680B
:1040600001F034F8002D06D02A00B6B231006068A5
:10407000006801F02BF86068C0688740606880685D
:1040800007616068006801F013F86068006801F07B
:104090004AF80020F2BD32B504006068006801F003
:1040A0003DF8606841686068006800F0F3FF012532
:1040B0006068C06815FA00F06168896848616A46FE
:1040C00001216068006801F001F86068C0688540FF
:1040D0006068806805616068006800F0E9FF6068FA
:1040E000006801F020F8002032BD70B504002021E6
:1040F0002000FFF7D0FF14F1100500260EE0012389
:104100002A0056F0C001C9B22000FFF73DFF6D1C28
:1041100003E03000C0B20528F1D1761C3000C0B2F7
:104120001F28F6DB14F12E0520260FE001232A00BC
:1041300056F0C001C9B22000FFF726FF6D1C04E055
:104140003000C0B236380628F0D2761C3000C0B23B
:10415000402808DA3000C0B22128F6D03000C0B2C2
:104160002728EDD1F1E721212000FFF794FF14F17A
:10417000460521260FE001232A0056F0C001C9B2EE
:104180002000FFF701FF6D1C04E03000C0B22738AB
:104190000528F0D2761C3000C0B23F2804DA300087
:1041A000C0B22528F1D1F5E720212000FFF773FFE9
:1041B00070BD000080B5202080F31188FDF7AFFBB3
:1041C00001BD80B5FDF7B0FB002080F3118801BD73
:1041D00080B5FFF7EFFF01BD80B5FFF7F2FF01BD2E
:1041E00080B5FEF78FFF01BD80B5FDF772FB00F0D3
:1041F0002EF801F069F801BD80B51E48016851F044
:104200000801016000681C48016851F480210160C8
:1042100048F69F40194908604FF6FF70184908603A
:10422000002018490860002017490860002017493D
:104230000860002016490860012016490860012026
:10424000154908600821322001F0E2FA01BD80B56D
:1042500011490869CA6802F0FF021040C2430A61AE
:10426000800705D5FFF7B4FFFFF7BAFFFFF7B4FFEC
:1042700001BD00001C100240042004E0280C004096
:104280002C0C0040180C0040340C00400C0C00407A
:10429000040C0040140C0040000C004030B4C36813
:1042A0005B1CC3608368C91A891A8160D0E9044520
:1042B00082680023A2186B41C0E904234168826828
:1042C000914201D28168416081680268914201D2C5
:1042D0008168016030BC704738B586B01C4D002045
:1042E000C5F89000684600F00FF80424684600F016
:1042F00019F8684600F01AF8641E002CF6D10098F0
:10430000C5F8900007B030BD5FF0FF3101600021BB
:104310004160002181600021C16000220023C0E9CA
:10432000042370470B4909688160704780B50949CB
:104330000968074AD2F89020FFF7B0FF01BD80B5A9
:10434000044A12688A6000228968FFF7A7FF01BD4E
:10435000381F0020041000E030B400240DE01500E8
:10436000ADB22D0A23009BB2C35C5D40084BEDB299
:1043700033F8153093EA0222641C23000D009BB22F
:10438000ADB2AB42EBD3100080B230BC704700003E
:10439000D46A000880B5202080F31188FDF7B5FAB3
:1043A00001BD80B5FDF7B6FA002080F3118801BD8C
:1043B00010B54FF48062C0B24FF400644A4B04FB66
:1043C000003001F069FA10BD38B504000D00FFF7A8
:1043D000E1FF4FF480622900E4B24FF400634248E9
:1043E00003FB0404200001F06DFAFFF7DAFF31BD92
:1043F00080B592B2022392FBF3F200F1006010F557
:10440000703001F049FA7FF0010002BD2DE9F84F4C
:1044100013009BB213FA80F403009BB24FF40065C3
:1044200093FBF5F8E40A641C1500070000264046DB
:10443000C0B2002806D0BFB24246D2B24FF40060EC
:1044400000FB127700912AE0AB4609E0380080B209
:10445000D0F50060290089B28842F5DAD7F5006B03
:104460005A4692B20098310089B20144380080B2B5
:10447000484400F093FB49464046C0B2FFF7A4FF12
:104480001BEB06061BEB0707380080B290FBFAF720
:104490000AFB1707B5EB0B0B5D4618F10108404608
:1044A0002100C0B2C9B288421AD2DFF84090494612
:1044B0004046C0B2FFF77CFF380080B24FF4006A7C
:1044C00090FBFAF10AFB11000028BFD1280080B24E
:1044D00040F60101884201DBD346C1E7AB46BFE7A6
:1044E0007FF00100BDE8F28F00C00308A437002070
:1044F00062B38B0708D0521E11F8013B00F8013B54
:1045000000F024808B07F6D1830740F0208000BFA5
:10451000103A07D330B4B1E83810103AA0E8381098
:10452000F9D230BC530724BFB1E80810A0E8081046
:1045300044BF51F8043B40F8043BD20724BF31F894
:10454000022B20F8022B44BF0B7803707047121F18
:1045500017D35B0009D151F8043B20F8023B1B0C38
:10456000121F20F8023BF6D20BE051F8043B00F892
:10457000013B1B0A20F8023B1B0C121F00F8013BF9
:10458000F3D238BF121D521E24BF11F8013B00F8B0
:10459000013BF8D8704700007047000080B5FDF778
:1045A00098F9914800F036F900F08EFE01BD80B513
:1045B000FDF78FF98D4800F02DF900F085FE01BD63
:1045C00080B5FDF786F98A4800F024F900F07CFEFA
:1045D00001BD10B5844C2000FDF738FF0420207485
:1045E0005FF08040A061814C2000FDF72FFF042088
:1045F00020748048A0617E4C2000FDF727FF042036
:1046000020747D48A06110BD10B5040020780128F9
:1046100051D17548A04215D17848016851F0010187
:10462000016000687648016851F00101016001688D
:10463000490849000160006807211C2001F0E8F8E2
:10464000704860616948A04215D16C48016851F01A
:104650000201016000686A48016851F002010160CE
:10466000016831F002010160006807211D2001F09E
:10467000CFF8644860615E48A04215D15F48016888
:1046800051F00401016000685D48016851F00401C7
:104690000160016831F004010160006807211E20FB
:1046A00001F0B6F85748606146F66800A169886174
:1046B000A169C86111E00020A16908600020A1691A
:1046C00048630020A16988630020A169C8630020B5
:1046D000A16908640020A16948626069616809688D
:1046E000B0FBF1F0401EA1698862A068401EA1697C
:1046F000C8626068C06AA169486000206168097B7F
:1047000011F00F01012903D0022903D150F002005A
:1047100050F001006168097D11F00F01012903D0FB
:10472000022903D150F0200050F010006168097F89
:1047300011F00F01012903D0022903D150F40070B8
:1047400050F48070616891F8241011F00F01012974
:1047500003D0022903D150F4005050F48050A169D5
:1047600008620120A16948610020A16908616068B0
:10477000006B000A0002A169C8608520A169086079
:1047800010BD10B50400207802282CD10020A169AA
:1047900008600020A169C8600020A1690861124872
:1047A000A04208D11C2001F04AF8144801684908C9
:1047B0004900016000680D48A04208D11D2001F0A9
:1047C0003EF80E48016831F00201016000680848B7
:1047D000A04208D11E2001F032F80848016831F0EB
:1047E00004010160006810BD94350020B035002040
:1047F000CC35002000040040000800401C1002409E
:104800001010024000A24A048069C9B200EB810086
:104810004263704738B50400A0690569A069C068A3
:1048200000F0FF000540E843A1690861A80707D52B
:1048300060680069002803D0200061680969884722
:10484000680707D560688069002803D02000616888
:1048500089698847280707D56068006A002803D05F
:1048600020006168096A8847E80607D56068806AA1
:10487000002803D020006168896A8847E80707D5C7
:1048800060688068002803D02000616889688847D4
:1048900031BD000080B5202080F31188FDF735F888
:1048A00001BD80B5FDF736F8002080F3118801BD09
:1048B0000060704780B5FFF7EDFF01BD80B5FFF7E1
:1048C000F0FF01BD80B5FFF7F3FF01BD80B5FEF736
:1048D00033FC01BD80B55FF0FF33303001F01CFACE
:1048E00002BD80B55FF0FF330C3001F081F902BDED
:1048F00080B55FF0FF32C9B2303001F0BEF902BDC1
:1049000080B55FF0FF310C3001F047F902BD80B592
:10491000C9B2303001F0B1F902BD80B50C3001F000
:104920003CF902BD80B5303001F0F6F902BD80B52A
:104930000C3001F05DF902BD002902D0012901D13E
:1049400000E0FFE70020704780B501F0F7FA01BDF5
:104950007CB504000D0016000C482060201DFFF7F8
:10496000B1FF0120207200942B00802214F1540129
:1049700014F10C0001F0D6F800943300802214F1F9
:10498000D40114F1300001F061F973BD346F0008F7
:1049900038B504000D00FFF78DFF2900200001F05D
:1049A000D8FA02202072FFF789FF31BD38B5040024
:1049B0000D006069002803D10421201DFFF786FF48
:1049C0002900C9B214F10C0001F0C4F8002804D584
:1049D0004FF48061201DFFF779FF31BD80B52020A5
:1049E00080F31188FCF791FF01BD6A488069704728
:1049F00080B5FFF7FAFF90F82100C0B2800810F0F0
:104A0000010002BD80B50021FEF796FB01BD80B517
:104A1000FEF71FFA01BD30B402000020002404E0BC
:104A20002300DBB2D35C1818641C23000D00DBB23A
:104A3000EDB2AB42F4D3C0B230BC70472DE9F041C7
:104A400004000D00160098460027B8F10301C9B212
:104A5000701CFFF7E0FF5FFA88F806EB080111F819
:104A6000021CC0B2C9B2884201D000201EE00699E3
:104A700000E008346068002816D0707810F07F00DD
:104A80002278C0B28242F4D10800C0B2FF2804D01C
:104A90000800B278C0B29042EBD1F278311D280004
:104AA00063689847012001E03800C0B2BDE8F0819A
:104AB0002DE9F8430C001500066827005FF0000898
:104AC00000208DF800005FF0000907E0B8F5807F56
:104AD00004D15FF000095FF0000827000122694659
:104AE000300033689B689847002815D04846C0B20C
:104AF000002814D09DF8000038707F1C18F10108C0
:104B0000B8F1040FE2D3E078801D8045DED1A5F82E
:104B100000800020002000E00120BDE8F2839DF825
:104B200000000228DAD15FF001095FF001089DF86A
:104B3000000038707F1CD1E7F8B5ADF5027D0400A8
:104B40002568A668277902E01420FFF760FFFFF7C9
:104B50004FFF002812D101AA02A92000FFF7A8FFE9
:104B60000028F1D13800C0B20090BDF80430DBB2AB
:104B700002AA29003000FFF761FFE8E7FFF72EFFE8
:104B80000548FFF73FFF0020FEF719F90DF5037DFB
:104B9000F0BD0000381F00209022002010B5044610
:104BA000FFF7A6FC204610BD006040607047010082
:104BB000086802680A600A685160704701684268C4
:104BC000116041680268516070479B48816989683B
:104BD00000688068814201D2012000E00020C0B25C
:104BE000704780B5202080F31188FCF798FE01BD46
:104BF00080B5FCF799FE002080F3118801BDC068E4
:104C0000002801D0012000E00020C0B27047816878
:104C1000491C8160704710B5874C2000FFF7C4FF26
:104C20000020A0602461646110BD002180F8201084
:104C3000814909688A6883689A42FAD201604A68A1
:104C400042604268106048607047002180F8201080
:104C50007949096882688B689A42FAD301604A6888
:104C60004260426810604860704738B5724DAC6968
:104C700084F820002800FFF79AFFA8610120A969A5
:104C800081F820002100A869FCF730FEEFF30980CD
:104C90006438E169884202D26848FEF72FFA2100A1
:104CA000A86901F081F931BD10B50400FFF799FF43
:104CB00094F82000002808D0032809D004280ED03A
:104CC000052809D007280AD00DE0FFF791FF12E070
:104CD0000020616A086006E0606AFFF798FF200024
:104CE000FFF76CFFFFE75FF0FF3060622000FFF727
:104CF0009CFFFFF77DFF10BD18B585B0040011F1D2
:104D0000010F12D04C4883694D4A6846FCF73FFEBC
:104D10002000C0B2FFF7A9FF6846FFF770FF002828
:104D200007D06846FCF791FE03E02000C0B2FFF711
:104D30009CFF41488069406A06B010BD70B5040010
:104D40003D4EB06961628168A268914203D3200040
:104D5000FFF76BFF17E0FFF778FF0500B461012054
:104D600084F8200029002000FCF7C0FDEFF3098043
:104D70006438E969884202D23048FEF7BFF9290059
:104D8000200001F011F970BD80B5FFF71EFF00286B
:104D900001D000F00DF801BD2749086880688969D5
:104DA0008968814201D2012000E00020C0B2704732
:104DB00038B5214DAC692800FFF7F9FEA861012044
:104DC000A96981F820002000FFF73FFF04002100BF
:104DD000A869FCF78BFDEFF309806438E16988422C
:104DE00002D21648FEF78AF92100A86901F0DCF822
:104DF00031BD38B5104DAC692800FFF7D8FEA86169
:104E00000120A96981F820002000FFF71EFF04009F
:104E10002100A869FCF76AFDEFF309806438E169B5
:104E2000884202D20548FEF769F92100A86901F01D
:104E3000BBF831BD00000000381F0020D46F00080F
:104E4000A94C000880B52548254901600021416032
:104E5000002181600C3000F0B7FA01BD70B5B0F1EF
:104E6000080425682E1D6068C01DC008606015F12B
:104E70000C0000F0B1FA00E03668281D864201D02F
:104E8000A642F9D23068002802D030688442F3D2BA
:104E9000306820603460606804EBC000083021682E
:104EA000884208D1606821684968491C0818606018
:104EB000206800682060706806EBC0000830A042DF
:104EC00006D170686168491C0818706020683060FD
:104ED00015F10C0000F0C4FA70BD0000F42A0020A7
:104EE0009551000880B5202080F31188FCF70DFD56
:104EF00001BD80B5FCF70EFD002080F3118801BDD7
:104F000010B40024046041608260C36010BC70472C
:104F100002680A600160704738B504000D00FFF7B1
:104F2000E1FF29002000FFF7F3FFFFF7E2FF31BDAB
:104F30003048016851F480710160704780B52E4897
:104F400001685FF0FF3101600268002202600068C2
:104F50002A48026801600168002101600068284851
:104F6000016851F0805101600168016851F00061F1
:104F700001600068FFF7DCFF01F099F801F068FAC2
:104F800001BD2048016851F00101016001688907F5
:104F9000FCD5016801F0FF0101601B4900220A6095
:104FA0000A6812F00C0FFBD1026852F480320260E2
:104FB00002689203FCD50A6852F4E8120A6002689B
:104FC00052F08072026002689201FCD50F4A0A60BA
:104FD00012220F4B1A600A6852F002020A600A6835
:104FE00012F00C02082AFAD1016849084900016050
:104FF0007047000000700040101002400C1002408A
:105000001C100240001002400410024000441D0029
:105010000020024080B501F04BFA01BD0121017072
:1050200000214160704780B5202080F31188FCF793
:105030006CFC01BD80B5FCF76DFC002080F311888D
:1050400001BD80B5FFF7EFFF01BD80B5FFF7F2FFAF
:1050500001BD80B55FF0FF31FDF712FF02BD80B5E5
:1050600000F0B2F901BD80B500F0B6F901BD80B520
:1050700000F0F6F901BD80B501F0E4FA01BD80B59C
:105080000121017000214160002181600C30FFF797
:10509000E6FF01BD38B504000D00FFF7D2FF6560E3
:1050A000200001F0EDFA02202070FFF7CEFF31BDA5
:1050B00010B50400FFF7C5FF200001F063FB0020DE
:1050C000606001202070FFF7C0FF10BD70B50400C4
:1050D0000D001600FFF7B5FF0320207032002900F5
:1050E000200001F07DFB14F10800FFF7B2FFFFF78D
:1050F000ACFF70BD70B504000D001600FFF7A1FFF6
:105100000320207032002900200001F093FB14F1ED
:105110000800FFF79EFFFFF798FF70BD80B50C30C9
:10512000FFF7A1FF01BD80B50C30FFF7A0FF01BD67
:1051300080B5FFF726FF01BD7047000080B5202035
:1051400080F31188FCF7E1FB01BD80B5FCF7E2FBC1
:10515000002080F3118801BD16481749016011F540
:1051600000614160704710B4124B5C6840422044BB
:10517000491E30EA0101524201EB02001A689042D6
:1051800002D35A68824201D2002001E05860080030
:1051900010BC704770B504000D001600FFF7CEFF7D
:1051A000320029002000FFF7DEFF0400FFF7CDFFEB
:1051B000200070BDEC220020F422002080B50022E7
:1051C000FFF7D1FF02BD80B513000422FFF798FE60
:1051D00001BD0060704738B5144C200000F0F4F8B1
:1051E00014F11000FFF7F5FF114D2A00142114F1FE
:1051F0001400FFF7E8FF14F12400FFF7EAFF14F1B1
:105200002800FFF7E6FF2A001C2114F12C00FFF70D
:10521000DAFF14F13C00FFF7DCFF14F14000FFF768
:10522000D8FF14F14400FFF7D4FF31BDA4220020C1
:10523000BD51000810F00700354B1A684FF6FF010A
:105240000A40344951EA00210A431A6070470200BB
:1052500052B2002A04D409012F4A40B2115407E087
:1052600009012E4A40B210F00F00104400F8041C4F
:105270007047EFF30980683029490A6852085200E4
:105280000A6080F30988002080F31188704780B598
:10529000202080F3118862B60320FFF7CBFF21485E
:1052A000016851F0807101601F48016851F00101EF
:1052B000016001217FF00400FFF7C9FF02217FF0A8
:1052C0000100FFF7C4FF01BD10B5202080F3118855
:1052D00016480068000517D5F1EE100AEFF30980B3
:1052E000683804005FF08071E16111490968216646
:1052F00080F30988FFF750FD002802D00D48A06117
:1053000001E00D48A06102E0002080F3118810BD8B
:105310000CED00E00000FA0500E400E018ED00E00C
:1053200034EF00E0FCED00E0001000E004ED00E0F0
:105330003CEF00E0D75F0008E35F000810F8012BA6
:1053400011F8013B0AB19A42F8D0D01A7047000018
:105350000060406070470168814201D0012000E098
:105360000020C0B2704710B40A0012688A4203D00D
:1053700093688468A342F8D2026051684160416832
:105380000860506010BC70470100086802680A603D
:105390000A6851607047016842681160416802689C
:1053A0005160704780B5202080F31188FCF7ADFA7A
:1053B00001BD80B5FCF7AEFA002080F3118801BD75
:1053C00080B5FFF7C8FF02BD10B504002000FFF74D
:1053D000BFFF0020A06010BD10B50400FFF7E2FF82
:1053E000200000F003F8FFF7E4FF10BD70B50400E3
:1053F00033488569A06800282DD0A66807E03000F2
:10540000FFF7C9FF716AFFF7AEFF706A8668B06880
:10541000A968884216D2A868B06096F820000028D3
:105420000AD00628EBD007280CD13000FFF7B3FFD5
:10543000716AFFF798FF05E03000FFF7ACFFFFF758
:10544000F4FBFFE721002800FFF78DFF6C620620C8
:10545000FFF70BFC03E0A560A86BE060AC6370BDD8
:10546000F8B5050016488669FFF79CFFE868B06349
:105470002800FFF7A5FF00281DD0F76BB46B0BE0E9
:105480002000FFF79DFF002805D020688068874234
:1054900001D220688768E468002CF1D1B760280049
:1054A000FFF772FFA860816BE9608563FFF7BDFBC2
:1054B000FFF76AFC01E00020A860FFF77AFFF1BD6A
:1054C000381F002080B5202080F31188FCF727FAD0
:1054D00001BD80B5FCF728FA002080F3118801BDDA
:1054E00080B5FFF7EFFF01BD80B5FFF7F2FF01BD0B
:1054F00080B5FDF7D6FC01BD10B50400080724D522
:10550000200000F006F92069806800280ED00520F0
:105510002070002120002269926890472078052899
:1055200008D1022020700020206103E002202070BA
:1055300000202061FFF7D4FF5FF0FF3114F1140069
:10554000FFF7D6FFFFF7D0FF42E0880736D5206986
:10555000007800280FD020694068002838D0042047
:1055600020702000216949688847207804282FD1BD
:10557000032020702CE0200000F0CBF82069406868
:1055800000280DD004202070200021694968884738
:105590002078042808D1022020700020206103E038
:1055A0000220207000202061FFF79AFF002114F1F3
:1055B0001400FFF79DFFFFF797FF09E0480707D5A5
:1055C00020694068002803D0200021694968884785
:1055D00010BD10B5244C2000FDF77FFE2348A062CB
:1055E0000020E06242F28A5020632148016851F4B1
:1055F00000710160016800211E4A11601E490122EC
:105600000A6009220A600A681207FCD405220A60AF
:105610000A685207FCD400220A60016831F4007164
:105620000160006810BD10B504002078012819D170
:105630000D48A04210D12300104A0621002000F09E
:1056400053FDE0620E48E16A4968886008480168D5
:1056500051F40071016000680020A16A48600020D8
:10566000A16A886010BD0000C03400200024014001
:10567000181002400424014008240140F954000895
:105680004C24014010B40269036B1178002906D044
:1056900053F02003C168022901D353F00403816849
:1056A000C46A6468E1605488C1684C43C16A49684F
:1056B0004C60C16A49680B60C16A4968096851F069
:1056C0000101C36A5B681960D16851F48071836A13
:1056D0005960136940F201110B4313F4841F01D187
:1056E00053F0020311691943846AA1605169846A05
:1056F000E1609169846A2161D169846AE162116A19
:10570000846A2163516A826A5163806A836010BC33
:105710007047C16A4968096809090901C26A526883
:1057200011600E22C16A91F90D108A40C16A0968A0
:105730004A600021806A816070470000841A71EB22
:10574000030603D2001BB141121973414FF4001C30
:105750001CEB410F34BF7CEB430442E00C0DA4EB87
:105760001356352E4FDC45EAC323DB0A45EAC12137
:10577000C912B6F120050DDD63FA05F6EB4086EAA5
:105780000305124218BF45F00105C01851F1000190
:105790000CD213E062FA06F5F2405540F3415A404C
:1057A000B340F3405A408018594107D349085FEA93
:1057B00030005FEA350528BF45F0010501F580118D
:1057C000420875F1004250F1000041EB04514E00D7
:1057D00016F5001F70BC38BF70470020090D090581
:1057E00070471CEB410F10D252EA43060BD0BCEBC2
:1057F000410F05D80C0DAB43661E342EB6DD02E01A
:10580000AB438018594170BC704770BC70470000B2
:1058100010B40901104A1154012210F01F0112FAAC
:1058200001F10E4B0400640943F8241010F01F012D
:105830008A400B49400941F8202010BC70470122E2
:1058400010F01F018A40074903005B0941F823203B
:105850000021014A1154704700E400E080E200E0BA
:1058600000E100E080E100E000887047F8B5040046
:105870000D001600002708E0380080B235F810103F
:10588000200001F077F8A41C7F1C3800310080B2A2
:1058900089B28842F0D3F1BDF8B504000D001600BE
:1058A000002708E02000FFF7DFFF390089B225F864
:1058B0001100A41C7F1C3800310080B289B28842DC
:1058C000F0D3F1BD2DE9F843ADF5006D04000D00F6
:1058D0001700B4F10060B0F5802F04D30DF5006D12
:1058E00001B0BDE8F08300F0E3FF14F1784006005A
:1058F000F60AC0F34908D8F580694846390080B2F5
:1059000089B2884203D3B94601E04FF480694FF46D
:10591000806269464FF4006000FB06F010F1006001
:10592000FFF7BAFF002000E0401C01004A4689B2A0
:1059300092B291420AD26946020092B212FA88F2F9
:1059400031F812104FF6FF729142EDD0494680B205
:1059500089B2884227D24FF4006000FB06F010F1B4
:10596000006000F0B5FF00200BE06946424692B2AD
:1059700012FA80F203009BB235F8133021F812308E
:10598000401C01004A4689B292B29142EDD34FF4D5
:10599000806269464FF4006000FB06F010F1006081
:1059A000FFF764FF05E04A4692B229002000FFF7A6
:1059B0005DFF3800494680B289B2884202D100F0CA
:1059C00080FF8BE7761C5FF00008484680B205EB4D
:1059D0004005484680B214EB4004B7EB0907380095
:1059E00080B240F2014188428FDAB9468FE7006009
:1059F0004060704780B5202080F31188FBF785FF59
:105A000001BD80B5FBF786FF002080F3118801BD42
:105A100080B5FFF7ECFF01BD80B5FFF7EBFF01BDDF
:105A200080B5FFF7EEFF01BD80B5FFF7F1FF01BDC7
:105A300080B5FDF759FA02BD80B5FDF76DFA01BDDD
:105A40002DE9F04104000E001500A068A84200D224
:105A5000A5682069A769C71BBD4208D22A00A169B1
:105A60003000FEF745FDA0692844A06119E0AF426F
:105A700010D23A00A169B0464046FEF739FD3E44D7
:105A8000EF1B3A00E1683000FEF732FDE068384471
:105A9000A06106E02A00A1693000FEF729FDE06858
:105AA000A061A068401BA0602800BDE8F0812DE93E
:105AB000F04104000E001500A068A84200D2A568BD
:105AC00020696769C71BBD4209D22A006769310096
:105AD0003800FEF70DFD6069284460611CE0AF42AC
