:020000040800F2
:1000000000040020717800083B3E00083B3E0008D9
:100010003B3E00083B3E00083B3E00083B3E0008DC
:100020003B3E00083B3E00083B3E0008775C000872
:100030003B3E00083B3E00083B3E00083B3E0008BC
:100040003B3E00083B3E00083B3E00083B3E0008AC
:100050003B3E00083B3E0008F16D00081F6E0008A3
:100060004D6E00087B6E0008A96E0008796B0008D1
:100070008B6B00089D6B0008AF6B0008C16B00081C
:10008000D36B0008E56B00083B3E00083B3E0008D0
:100090003B3E00083B3E00083B3E0008D76E000890
:1000A0003B3E0008356400083B3E00083B3E00082C
:1000B000354F0008474F0008594F00083B3E0008E5
:1000C0003B3E00083B3E00083B3E00083B3E00082C
:1000D0003B3E0008FB6A00083B3E00083B3E000830
:1000E0004D6F00083B3E00083B3E00083B3E0008C9
:1000F000476400083B3E00083B3E00083B3E0008CA
:100100003B3E00083B3E0008814B00083B3E000898
:100110003B3E00083B3E00083B3E00083B3E0008DB
:10012000F76B0008096C00081B6C00082D6C0008B8
:100130003B3E00083B3E00083B3E00083B3E0008BB
:100140003B3E00083B3E00083B3E00083B3E0008AB
:100150003B3E00083B3E00083B3E00083B3E00089B
:100160003B3E00083B3E00083B3E00083B3E00088B
:100170003B3E00083B3E00083B3E00083B3E00087B
:10018000081A80B27047BFF34F8FDFF8B01B0A68C0
:1001900012F4E062DFF8E80D02430A60BFF34F8F0C
:1001A00000BFFDE780B501F0ADFC02BD72B670473F
:1001B00080B5202080F3118801F0D5FC01BD80B509
:1001C00001F0D6FC002080F3118801BD80B520200D
:1001D00080F3118801F0D1FC01BD80B501F0D2FCA3
:1001E000002080F3118801BD0021C160704780B5F7
:1001F000FFF7D8FF02BD10B50400FFF7F8FF0100BC
:1002000089B2200080B2FFF7BBFF10BDC068002894
:1002100001D0012000E00020C0B2704710B50400FA
:100220002000FFF7F3FF002802D0200001F03BFD83
:1002300010BD10B50400FFF7BBFF2000FFF7EEFF75
:10024000FFF7BDFF10BDF8B504000D0016001F003C
:100250002000FFF7E3FF3B0032002900200001F0FF
:10026000C4FCF1BDF8B504000D0016001F00FFF737
:100270009FFF3B00320029002000FFF7E4FFFFF75B
:100280009EFFF1BDDFF8900D8069704780B5FFF7E4
:10029000F9FF90F82100C0B2800810F0010002BD03
:1002A00038B5002001F06CFFC0B2CC2800F0E3802C
:1002B00001214FF4805001F0ABFF012141F2010018
:1002C00001F0A6FF1221052001F093FF3221062044
:1002D00001F08FFF4FF4FA6141F2020001F098FF44
:1002E0000121072001F085FF9FEDC90A46F20100B8
:1002F00001F09EFF0121082001F07BFF4FF44041F7
:1003000041F21D0001F084FF4FF4FA7141F21E002A
:1003100001F07EFF002141F2070001F079FF1E216C
:1003200041F2080001F074FFAA2141F2090001F036
:100330006FFFC82141F20A0001F06AFF4FF44871D3
:1003400041F2030001F064FF40F6282141F204006D
:1003500001F05EFF4FF4616141F2050001F058FFCA
:100360004FF47A6141F2060001F052FF9FEDA90AB5
:100370004FF4C04001F05CFF4FF4FA7141F20B0002
:1003800001F046FF40F2DC5141F20C0001F040FF69
:10039000C82141F20D0001F03BFF40F6E44421008A
:1003A00041F20E0001F034FF40F6D865290041F219
:1003B0000F0001F02DFF4FF47A6141F2100001F0BF
:1003C00027FF7D2141F2110001F022FFFA2141F2C5
:1003D000120001F01DFF4FF4967141F2130001F07D
:1003E00017FF4FF4FA7141F2140001F011FFC82118
:1003F00041F2150001F00CFF210041F2160001F05E
:1004000007FF290041F2170001F002FF4FF47A6163
:1004100041F2180001F0FCFE7D2141F2190001F0CB
:10042000F7FEFA2141F21A0001F0F2FE4FF4967144
:1004300041F21B0001F0ECFE4FF4FA7141F21C0096
:1004400001F0E6FE41F2883141F21F0001F0E0FECA
:1004500041F2EC314FF4815001F0DAFECC21002062
:1004600001F0C7FE002001F06FFD012001F06CFDDE
:10047000062001F069FD31BD30B4020000200024E7
:1004800003E013781818521C641C23000D00DBB223
:10049000EDB2AB42F5D3C0B230BC70477047704785
:1004A00070B5FFF793FEDFF8000D016891F0400191
:1004B000016041F21E0001F075FE06000023DFF826
:1004C000EC2C14001D00B6B24FF4FA6240F2E73093
:1004D0000021E2FB06014FF47A72002301F0E8FFED
:1004E00002000B0011002B002200DFF8BC0DFFF70B
:1004F000AAFEFFF772FE70BD10B40020002112E0CA
:10050000DFF8A82D0B00DBB252F833309B680C00EB
:10051000E4B202EBC4025268D340DA0702D40122EB
:100520008A401043491C0A00D2B20A2AE8DB80B292
:1005300010BC70471CB5684600210160002115E021
:10054000DFF8403DBDF800200800C0B233F82000BD
:100550008218ADF800206A4654880800C0B24000F6
:1005600003EB4000408804195480491C0800C0B2C5
:100570000828E5DBBDF80000082190FBF1F0ADF89C
:10058000000068464188082291FBF2F14180DFF8C3
:10059000204DBDF80010E184418841F6C810414368
:1005A00009132186208EC8302086218E41F2030057
:1005B00001F04BFF41F21F0001F0F4FD218E80B2EB
:1005C000814204D28020DFF8EC1C08600BE04FF47D
:1005D000815001F0E7FD218E80B2884203D2802055
:1005E000DFF8D41C0860FFF787FFA084A18C4FF4CC
:1005F000805001F02AFFE18C41F2010001F025FF5B
:10060000218E41F2020001F020FF13BD0000000026
:1006100000C064441CC7B1402DE9F84F2DED028B9A
:1006200082B004000D00002041F288373800052018
:1006300001F0A6FD06009FED9A0A16F00A0F00F0E1
:100640003181200080B2002800F0F38041F21509CA
:10065000484601F0A7FD290009B2814205DA41F2BE
:10066000190001F09FFD8046F1E041F21608404676
:1006700001F098FD290009B2814240DA41F21A00E6
:1006800001F090FD834641F2190A1FFA8BFB504698
:1006900001F088FDBBEB000B00EE10BAB8EEC08A8B
:1006A000404601F07FFD80461FFA88F8484601F079
:1006B00079FDB8EB000800EE108AB8EEC00A88EEAB
:1006C000008AA8460FFA88F8484601F06BFDB8EB9F
:1006D000000800EE108AB8EEC00A20EE088A5046E4
:1006E00001F060FD00EE100AB8EE400A30EE080A94
:1006F000BDEEC00A10EE108A1FFA88F8A7E041F29A
:100700001709484601F04EFD290009B2814240DA3E
:1007100041F21B0001F046FD834641F21A0A1FFA1E
:100720008BFB504601F03EFDBBEB000B00EE10BA18
:10073000B8EEC08A484601F035FD81461FFA89F9B6
:10074000404601F02FFDB9EB000900EE109AB8EE1B
:10075000C00A88EE008AA9460FFA89F9404601F0DE
:1007600021FDB9EB000900EE109AB8EEC00A20EEA8
:10077000088A504601F016FD00EE100AB8EE400A55
:1007800030EE080ABDEEC00A10EE108A1FFA88F893
:100790005DE041F2180A504601F004FD290009B25B
:1007A000814240DA41F21C0001F0FCFC834641F238
:1007B0001B081FFA8BFB404601F0F4FCBBEB000B5F
:1007C00000EE10BAB8EEC08A504601F0EBFC82464B
:1007D0001FFA8AFA484601F0E5FCBAEB000A00EE7F
:1007E00010AAB8EEC00A88EE008AAA460FFA8AFA62
:1007F000484601F0D7FCBAEB000A00EE10AAB8EEAA
:10080000C00A20EE088A404601F0CCFC00EE100A37
:10081000B8EE400A30EE080ABDEEC00A10EE108AAB
:100820001FFA88F813E041F21C0001F0BBFC80467F
:100830000DE0B00702D55FF0960801E05FF0000818
:10084000DFF8E41C0122C86C8240886C4261B8F178
:10085000960F0ED2B00702D55FF0960801E05FF068
:100860000008DFF8C41C0122C86C8240886C426119
:1008700006E0DFF8B41C0122C86C8240886C02617B
:10088000B00701D5B7EB080842460321DFF89C0CFE
:1008900001F06BFF414642F2010001F0E5FD20E06E
:1008A00000000000280000B240F2F51188420FDB82
:1008B000200080B200280BD0DFF86C1C0122C86C2D
:1008C0008240886C0261280000B202F000F808E063
:1008D000DFF8541C0122C86C8240886C426102F02F
:1008E000A3F8700740F10182200080B2002818D0E0
:1008F000E00507D5DFF8301C0122486C8240086C07
:10090000026106E0DFF8201C0122486C8240086C7E
:100910004261DFF8141C0122C86C8240886C0261BD
:100920000BE00122DFF8001C486C12FA00F00B6C9F
:100930005861C86C8240886C426168460021016041
:1009400000201CE00122C0B2410012FA01F189B27C
:10095000214204D001216B460600F6B299550100F0
:10096000C9B24900491C12FA01F189B2214205D0ED
:100970005FF0FF316A460300DBB2D154401C010036
:10098000C9B20429DEDB41F20D06300001F00AFC99
:10099000290009B2814205DA41F2110001F002FC9E
:1009A0000400CAE041F20E04200001F0FBFB290024
:1009B00009B2814238DA41F2120001F0F3FB07007C
:1009C00041F21108BFB2404601F0ECFB3F1A00EEC5
:1009D000107AB8EEC08A200001F0E4FB0400A4B253
:1009E000300001F0DFFB241A00EE104AB8EEC00A16
:1009F00088EE008A2DB2300001F0D4FB2D1A00EEF3
:100A0000105AB8EEC00A20EE088A404601F0CAFB30
:100A100000EE100AB8EE400A30EE080ABDEEC00A39
:100A200010EE104AA4B288E041F20F06300001F047
:100A3000B9FB290009B2814238DA41F2130001F012
:100A4000B1FB070041F21208BFB2404601F0AAFB19
:100A50003F1A00EE107AB8EEC08A300001F0A2FB17
:100A60000600B6B2200001F09DFB361A00EE106AB7
:100A7000B8EEC00A88EE008A2DB2200001F092FB89
:100A80002D1A00EE105AB8EEC00A20EE088A404631
:100A900001F088FB00EE100AB8EE400A30EE080ABA
:100AA000BDEEC00A10EE104AA4B246E041F21004B6
:100AB000200001F077FB290009B2814238DA41F2C7
:100AC000140001F06FFB070041F21308BFB240466B
:100AD00001F068FB3F1A00EE107AB8EEC08A2000E1
:100AE00001F060FB0400A4B2300001F05BFB241AAB
:100AF00000EE104AB8EEC00A88EE008A2DB230002F
:100B000001F050FB2D1A00EE105AB8EEC00A20EE8C
:100B1000088A404601F046FB00EE100AB8EE400A93
:100B200030EE080ABDEEC00A10EE104AA4B204E08E
:100B300041F2140001F036FB040021004FF4005094
:100B400001F092FC002129E00800C0B218560B0009
:100B5000DBB2134493F9293098421ED000200B00D9
:100B6000DBB21A4482F8290017E0DFF844270800B6
:100B7000C0B2104490F92900002805D06B46080047
:100B8000C0B218560028DFD168460B00DBB2C05C4B
:100B90000B00DBB21A4482F82900491C0800C0B2DD
:100BA0000428E2DBDFF8085795F9290000280CD16A
:100BB000DFF8E06B00220021300001F0D6FD0022BA
:100BC0000121300001F0D1FD15E095F9290001283F
:100BD00006D122000021DFF8BC0B01F0C6FD0AE0BF
:100BE00095F9290010F1010F05D122000121DFF84C
:100BF000A40B01F0BAFD95F92A0000280CD1DFF80A
:100C0000946B00220221300001F0AFFD002203218D
:100C1000300001F0AAFD15E095F92A00012806D15F
:100C200022000221DFF86C0B01F09FFD0AE095F92C
:100C30002A0010F1010F05D122000321DFF8540B27
:100C400001F093FD95F92B0000280CD1DFF8486BDB
:100C500000220321300001F088FD00220221300033
:100C600001F083FD15E095F92B00012806D1220043
:100C70000321DFF8240B01F078FD0AE095F92B0041
:100C800010F1010F05D122000221DFF80C0B01F059
:100C90006CFD95F92C00002810D1DFF8FC4A0022E9
:100CA0000121200001F061FD00220021200001F05F
:100CB0005CFD02B0BDEC028BBDE8F18F95F92C0014
:100CC000012806D122000121DFF8CC0A01F04DFDF8
:100CD000EFE795F92C0010F1010FEAD12200002175
:100CE000DFF8B40A01F041FDE3E700210DE0DFF891
:100CF00038380800C0B203EBC000406882400800EA
:100D0000C0B253F830000261491C0800C0B2092883
:100D1000CFDA012212FA01F080B22042E7D1DFF8E7
:100D200008380800C0B203EBC000406882400800E9
:100D3000C0B253F830004261E6E700000CED00E07D
:100D400038B5DFF8D00C90F82E10C90646D5DFF87C
:100D50004C4A02220121200001F08DFF05220221D0
:100D6000200001F088FF05220421200001F083FF0C
:100D7000002410E0DFF83435032201212000C0B246
:100D800003EBC000406881402000C0B253F830003F
:100D900001F071FF641C2000C0B20A28EADBDFF812
:100DA00018054021016080210160DFF86C5C01249E
:100DB0000722696814FA01F1286801F05CFF062235
:100DC000E96814FA01F1A86801F055FF0622686984
:100DD00084402100286901F04EFFCFE090F82E10EA
:100DE000890640F1CB8090F82E1011F0010190F8A7
:100DF0002E2012F0020290F82E4014F00404C9B222
:100E0000012940F0B58090F82E0010F00A0F06D0AE
:100E100010220821DFF8840901F02DFF11E0DFF82E
:100E2000FC5B07224021280001F025FF07228021DA
:100E3000280001F020FF07224FF48071280001F004
:100E40001AFFE4B2042C49D1DFF8DC560124102249
:100E5000696814FA01F1286801F00DFF1022E968B1
:100E600014FA01F1A86801F006FF1022696914FA6A
:100E700001F1286901F0FFFE1022E96914FA01F17D
:100E8000A86901F0F8FE1022696A14FA01F1286AD3
:100E900001F0F1FE1022E96A14FA01F1A86A01F0EA
:100EA000EAFE1022696B14FA01F1286B01F0E3FEEF
:100EB0001022E96B14FA01F1A86B01F0DCFE0622A6
:100EC000696C14FA01F1286C01F0D5FE0622E86C79
:100ED00084402100A86C01F0CEFE4FE0DFF84856B8
:100EE00001240622696814FA01F1286801F0C3FEA2
:100EF0000622E96814FA01F1A86801F0BCFE062296
:100F0000696914FA01F1286901F0B5FE0622E96960
:100F100014FA01F1A86901F0AEFE0622696A14FA1A
:100F200001F1286A01F0A7FE0622E96A14FA01F12C
:100F3000A86A01F0A0FE0622696B14FA01F1286B81
:100F400001F099FE0622E96B14FA01F1A86B01F099
:100F500092FE0622696C14FA01F1286C01F08BFEF6
:100F60000622E86C84402100A86C01F084FE05E0B4
:100F700007224021DFF8A40A01F07DFE31BD000008
:100F80000400FA0580B5DFF88C0A90F82E10C90627
:100F90000DD590F82E10C90702D500F0C9FA13E05C
:100FA00090F82E0080070FD500F0C2FA0CE090F800
:100FB0002E10890608D590F82E00C00702D500F043
:100FC000EFFB01E000F0ECFB01BD30B591B0002477
:100FD0000020ADF800000020ADF8020001A814E0E8
:100FE000B34D4FF4805001F010FAA88441F2010093
:100FF00001F00BFAE884B5F92600010009B2A88CCB
:10100000FFF70AFB642001F0E6FF2000C0B20028D1
:10101000E6D011B030BD000098220020F8B5A44CF5
:101020002069002840F0988094F82E00400717D5DA
:10103000DFF8EC19DFF85C0701F075FBDFF8E41965
:10104000DFF8540701F06FFB002084F8290000202E
:1010500084F82A00002084F82B00002084F82C005B
:1010600094F82E0010F00A0F06D0DFF8BC19DFF854
:10107000BC0401F058FB63E0002547E02800C0B243
:1010800000F58050C01C80B201F08CF82900C9B274
:1010900004EB810188862800C0B200F58050C01D95
:1010A00080B201F07FF82900C9B204EB8101C88643
:1010B00006262800C0B2704304EB00072800C0B227
:1010C00010F5804080B201F048F8A7F844002800ED
:1010D000C0B2704304EB00072800C0B200F58040A6
:1010E000001D80B201F039F8A7F846002800C0B210
:1010F00006FB00F626442800C0B200F58040083008
:1011000080B201F02AF8A6F848006D1C2800C0B291
:101110000428B3DB4FF4C04001F058F884ED170AFF
:1011200041F20B0001F03EF8A4F8620041F20C001D
:1011300001F038F8A4F8600014F1340002F098F8D7
:1011400000200090DFF8E4387F224FF45C71DFF874
:10115000E00801F08EFE2061F1BD10B5544C20690D
:1011600000281FD0E06801F029FFE06801F00DFFC2
:101170000020E06094F82E00800613D594F82E002D
:10118000400707D5DFF80C0601F0DFFADFF80806A4
:1011900001F0DBFA94F82E00800703D5DFF88C030A
:1011A00001F0D3FA10BD00000C100140A1040008AA
:1011B00018B591B000240020ADF800000020ADF873
:1011C000020001A846E001AC23000022FF2100201C
:1011D00001F03EF8044423004FF48052FF21002028
:1011E00001F036F80444230041F20102FF210020FF
:1011F00001F02EF80444230041F20202FF210020F6
:1012000001F026F8044423004FF40052FF2100208F
:1012100001F01EF80444230042F20102FF210020E5
:1012200001F016F8044423004FF4A042FF210020EF
:1012300001F00EF820444421684602F0F3F9BDF8AD
:101240000000401CADF80000FFF720F80400C820A3
:1012500001F0C1FEE4B2002CB5D012B010BD1CB537
:10126000DFF8B047E06800280BD100200090DFF8DD
:10127000C4377F224FF45C71DFF8BC0701F0F9FD41
:10128000E06013BD6029002010B5DFF88847E068F2
:10129000002807D0E06801F091FEE06801F075FEDB
:1012A0000020E06010BD000080290020FC04002028
:1012B000B82800201010014014100140F8B502F0C9
:1012C000F0F902F08FFADFF87407016851F000714D
:1012D000016003224FF40071DFF8400701F0CBFCFE
:1012E0000026DFF85C070068C0F34020002805D125
:1012F0000120DFF8201781F82D0004E00020DFF83E
:10130000141781F82D0000F0EEFDFEF7C9FFDFF89D
:101310000447052000F034FF84F82E00FFF710FD8D
:1013200002F009F894F82E0010F0300F12D00020CF
:101330000090DFF8103780224FF45C71DFF8080767
:1013400001F097FDFEF734FF14F1140001F04DFE9B
:10135000FEF735FFFEF74BFF0700002094F82E0044
:10136000800601D5FFF75AFE94F82E00C00640F122
:1013700087800820DFF8D416086081E064215FF0E0
:10138000FF3002F0C9FA0500680702D5FF2000F01F
:10139000DBFD94F82E00C0060ED5FFF7CBF8A805AC
:1013A0000AD594F82D00002806D10126DFF8A00602
:1013B000402101608021016094F82E0080065AD5FA
:1013C000A80602D5FEF713FF0700680624D53800EB
:1013D00080B2FEF710FF02004FF47A7340F2CF7034
:1013E0000021E3FB02014FF4FA62002301F060F8F0
:1013F00080B240F2E93188420EDB012000F0F4FFB8
:10140000002809D100214FF4805001F01EF800217E
:1014100041F2010001F019F8280624D5380080B205
:10142000FEF7E9FE02004FF47A7340F2CF7000211C
:10143000E3FB02014FF4FA62002301F039F880B2B5
:1014400040F2E93188420EDB012000F0CDFF002898
:1014500009D100214FF4805000F0F7FF002141F244
:10146000010000F0F2FFE80701D5FFF7F8FEA8073A
:1014700001D5FFF709FFFEF709FF002800D001267C
:101480003000C0B200283FF479AF94F82E008006F7
:1014900001D5FFF762FE94F82E00C00642D5082061
:1014A000DFF8B01508600120DFF8AC1508600120F6
:1014B000DFF8A81508600120DFF8A41508600120F6
:1014C000DFF8A01508600120DFF89C150860DFF840
:1014D0009C0501680905090D016001680160DFF8DC
:1014E0009005016851F00C010160016831F0E001E4
:1014F0000160016851F002010160DFF878050168C0
:1015000051F480710160DFF87005016851F0040149
:101510000160FEF74BFE72B640BF20BF20BF62B62F
:10152000FEF731FE0020F2BDAC040020183C002084
:101530002DE9F84F2DED028B82B0DFF84085C346D0
:10154000DFF8D044DFF8380502F044FA6060DFF8D5
:1015500034550021280002F083FA0823DFF82825FB
:10156000DFF82815280002F089FAA86A8068A96ABD
:101570008860082000F004FE88F80800072000F0CA
:10158000FFFD88F8090046F2010000F01FFEB0EEF2
:10159000408A4FF4805000F005FE05005FF02009FE
:1015A00018EE100A02F084FA06000F0095FBF9F01D
:1015B00009FB1055280002F09FFA0022DFF8D03412
:1015C00002F0ACFA32003B0002F07AFB02F036FC8B
:1015D000C8F80C0041F20105280000F0E3FDA8F86E
:1015E0000A00DFF8B014404603F0B4F8DFF8A8941E
:1015F00019F10100019041F21D0000F0D3FD0199A5
:1016000008800020019948804FF4805000F0CAFD06
:1016100001998880280000F0C5FD0199C880092142
:1016200001A8FEF729FF019948720A20401C89F899
:1016300000000025FEF7DBFD0026DFF860A4504621
:10164000FEF7D2FD0023DFF858244FF47A7150469C
:10165000FEF708FEFEF7CBFD0700002114F1140091
:1016600001F0F8FC7FE0380080B2FEF7C4FD020014
:101670004FF47A7340F2CF700021E3FB02014FF484
:10168000FA62002300F014FF060025E00921584605
:1016900003F0CDF900208DF8000094F82E008007AB
:1016A000E1D5A08C002814D1FEF7A1FD380080B24E
:1016B000FEF7A1FD02004FF47A7340F2CF700021D3
:1016C000E3FB02014FF4FA62002300F0F1FE060092
:1016D00002E0FEF78CFD070041F2020000F062FD1F
:1016E000310089B2884204D294F82D00002800D13C
:1016F0000125A08C01990880E08C0199488009217E
:101700000198FEF7B9FE0199487201236A46492102
:10171000584603F051F999F800309BB24A4611211E
:10172000584603F049F90E21584603F080F9062087
:1017300000F026FD0200D2B24FF4FA6340F2E73027
:101740000021E3FB02014FF47A72002300F0B0FEA7
:1017500001F041FCFEF79AFD002804D094F82D001A
:10176000002800D101252800C0B200288ED04046B4
:1017700003F02CF85046FEF75CFD4FF400716068F2
:1017800002F089F8002001F0D4FB02B0BDEC028B1E
:10179000BDE8F18F343C0020503C0020000801409F
:1017A0002DE9F0472DED028B92B0B44CA146994D36
:1017B000B34802F00FF96860082000F0E1FC2072E5
:1017C000072000F0DDFC607246F2010000F0FEFC34
:1017D000B0EE408A4FF4805000F0E4FC80465FF0A9
:1017E000200A18EE100A02F063F906000F0098FBB9
:1017F000FAF00AFB1088404602F07EF90022A44B62
:1018000002F08CF932003B0002F05AFA02F016FBAB
:10181000E06041F20107380000F0C4FC60819D499E
:10182000200002F097FF9C49481C0A200022401C1F
:1018300008705FF00008FEF7DAFC060000200020C8
:10184000A877002115F1140001F004FC3BE0300002
:1018500080B2FEF7D0FC02004FF47A7340F2CF70F2
:101860000021E3FB02014FF4FA62002300F020FEA6
:1018700080B240F2F511884222DB8021686802F0D4
:101880000AF80020A8771BE0300080B2FEF7B3FC16
:1018900002004FF47A7340F2CF700021E3FB0201A3
:1018A0004FF4FA62002300F003FE80B240F2F5111B
:1018B000884205DB8021686801F0EDFF0020A877F1
:1018C000142001F088FB4046C0B2002840F08E8012
:1018D000FEF78DFCA87F002802D001281CD0EFE77E
:1018E0000C21200003F0A3F8200003F014F8892154
:1018F000484603F09CF88E21484603F098F80221F0
:10190000484602F0D4FAA87F401CA877002028841B
:10191000FEF76DFC0600D3E7200002F0E3FE8DF831
:1019200000009DF8000010F0120F90D0200002F08F
:101930009FFD0100C9B2002000F079FD9DF8000074
:10194000C00606D54021686801F0A5FF0020A877F1
:10195000B6E701236A46D021200002F0E1FF9DF89E
:101960000000002890D09DF8003001AA91212000AD
:1019700002F0D6FF01A80178491E017001780A29FA
:1019800031D110F1010A09215046FEF775FD9AF890
:101990000910C0B2884222D14FF4805000F002FCFE
:1019A000BAF8061080B281421DD1BAF800006883EF
:1019B0000020A88300202884BAF800104FF480503B
:1019C00000F043FDBAF80210380000F03EFD20217F
:1019D000686801F060FF002085F8280003E04021DE
:1019E000686801F058FF0020A87769E7200002F03E
:1019F000EDFE2A48FEF71DFC4FF40071686801F007
:101A00004AFF002001F095FA12B0BDEC028BBDE850
:101A1000F0870000B82800204C050020001001408D
:101A2000340400206804002000040020CB0F0008CC
:101A3000480A0020B1110008B80D00200400014040
:101A400008100140850F0008D80600201408014046
:101A5000141001401008014014040140000401402A
:101A6000040401400C040140080401400800014046
:101A7000007000400470004010ED00E05828002085
:101A8000407B0008443B002060290020D0790008FA
:101A90000000E03F9C0400201C2900208029002039
:101AA000A10400080A48006880B2704780B2094962
:101AB0000860002008490860022008490860704753
:101AC000002006490860704780B2024908607047EC
:101AD000240C0040340C0040100C00400C0C004062
:101AE00080B503F055F801BD80B580B2FFF7DEFF89
:101AF00001BD80B5FFF7E4FF01BD80B580B2FFF7FF
:101B0000E3FF01BD80B5FFF7CDFF02BD10B5204C4E
:101B10000020C4F898000020C4F89C0014F1A00034
:101B200003F0BEF814F1B80003F0BAF810BD20209D
:101B300080F311881648D0F89810491CC0F8981006
:101B4000002080F31188704780B50A001049D1F851
:101B50009C305B1CC1F89C3010F1480112F1480028
:101B600003F0B9F801BD80B50A4803F0A7F801BD3C
:101B700080B5084803F0A6F801BD80B5064803F01B
:101B80009DF801BD80B5044803F09CF801BD00003C
:101B9000982200203823002050230020081880B20B
:101BA0007047081A80B2704780B580B2FFF79CFF7B
:101BB00001BD80B5FFF79DFF01BD80B580B2FFF785
:101BC0009CFF01BD80B5FFF79DFF02BD80B5FFF70B
:101BD000F9FF02BD5A4810F11C01C16101625FF0BA
:101BE000FF3141620021018570472DE9F041040079
:101BF0000D002361E260FFF7E9FF8046022D00D26D
:101C000002254F4E16F11C00F169884213D1A6F847
:101C10002880F461346220606060A560B5F5803F83
:101C200001D34FF6FF752900308DFFF7B7FF80B263
:101C3000FFF7BAFF35E0F769414689B2308DFFF70B
:101C4000B0FF2D18414689B2308DFFF7AAFF8542BB
:101C500003D2B8682D1A3F6812E0B86885420FD2E7
:101C60002900B1F5803F01D34FF6FF71308DFFF7AA
:101C700095FF80B2FFF7A1FF02E0B8682D1A3F6818
:101C8000B868A842F9D3276020684068606060683F
:101C900004607C60A560B868451BBD605FF0FF30E4
:101CA0007062BDE8F08110B5254CE169814213D026
:101CB0000168426811604168026851600021C1609A
:101CC00014F11C010268914205D001688A6881689C
:101CD0008A180068826032E00168E16114F11C0139
:101CE000E26951600022C260E269914202D1FFF7CD
:101CF00060FF24E0E169896880684118E0698160DB
:101D0000FFF764FF010089B2208DFFF74AFFE16908
:101D10008968884213D2E1698968091A022901D2C7
:101D2000801C05E04018B0F5803F01D34FF6FF70EE
:101D30000100208DFFF732FF80B2FFF73EFF10BD9C
:101D400098220020C0B200280DD0022807D008D366
:101D5000042805D006D3062806D006D205E004E004
:101D600003E002E001E000E0FFE7704738B504005F
:101D700000200020002500212100C9B2002937D011
:101D8000022910D022D3042917D028D3062938D00D
:101D900041D24FF48071DFF8F4060500002289B2C9
:101DA00002F0A6FF37E04FF48071DFF8E40605008B
:101DB000002289B202F09CFF2DE08021DFF8D406DA
:101DC0000500002289B202F093FF24E08021DFF8B1
:101DD000C8060500002289B202F08AFF1BE04021FC
:101DE000DFF8B8060500002289B202F081FF12E098
:101DF0004021DFF8AC060500002289B202F078FF2E
:101E000009E04FF48071DFF89C060500002289B2DA
:101E100002F06EFFFFE7DFF890162200D2B201EB6E
:101E2000420250802022002002F0BCFF4FF480725A
:101E30002900E4B24FF4807044432034200080B283
:101E400002F0B0FF31BDF8B504000D0000260020FF
:101E500000272000C0B200281ED002280BD013D3C8
:101E600004280DD014D306281AD01ED24FF4807641
:101E7000DFF8187619E04FF48076DFF8147614E076
:101E80008026DFF8107610E08026DFF80C760CE074
:101E90004026DFF8087608E04026DFF8047604E004
:101EA0004FF48076DFF8FC75FFE7320092B239001C
:101EB0002000C0B24FF480735843203002F064FF1A
:101EC0000022310089B2380002F012FFADB280B2B8
:101ED000854207D02000C0B2FFF734FF2000C0B217
:101EE000FFF744FFF1BD38B5DFF8BC4520222100E3
:101EF000002002F049FF00202088AB280FD10025E8
:101F00002800C0B208281BDA2800C0B204EB400049
:101F100041882800C0B2FFF796FF6D1CF0E7AB20A8
:101F20002080002508E02800C0B2FFF70BFF280042
:101F3000C0B2FFF71BFF6D1C2800C0B20828F2DBFF
:101F40000020A4F8200931BD10B50100C9B2FF2955
:101F50000AD100242000C0B2082808DA2000C0B24C
:101F6000FFF704FF641CF5E7C0B2FFF7FFFE002097
:101F700010BD70B51C0000250B0000201605360DA5
:101F8000C9B2FF2902D192B2120B1300DBB2002BAF
:101F900009D0022B18D00ED3042B26D01DD3062B2C
:101FA00034D02BD33BE00125DFF8FC04B6B230443B
:101FB00010F5587033E00225DFF8EC04B6B200EB00
:101FC000460010F528702AE00425DFF8DC04B6B2DC
:101FD00000EB860010F5907021E00125DFF8C804C1
:101FE000B6B2304410F5487019E00225DFF8B804A5
:101FF000B6B200EB460010F5087010E00425DFF8DB
:10200000A804B6B200EB8600203008E00425DFF813
:102010009804B6B200EB860010F56870FFE729005F
:1020200049B2012906DB2A0052B292B20100200017
:1020300002F02AFF280040B270BD70B55FF0FF309B
:1020400000240D0000261005000DC9B2FF2902D1A1
:1020500092B2120B15002900C9B2002909D0022939
:1020600018D00ED3042926D01DD3062935D02BD362
:102070003CE00124DFF8301480B2084410F55876B3
:1020800034E00224DFF8201480B201EB400010F5A8
:1020900028762BE00424DFF8101480B201EB8000D6
:1020A00010F5907622E00124DFF8FC1380B208449A
:1020B00010F548761AE00224DFF8EC1380B201EB49
:1020C000400010F5087611E00424DFF8DC1380B23C
:1020D00001EB800010F1200608E00424DFF8C813AB
:1020E00080B201EB800010F56876FFE7200040B277
:1020F00001281ADB220052B292B21900300002F01D
:10210000C3FEDFF8A8030078002804D02800C0B27E
:10211000FFF71AFF09E0DFF89003B0F82019012259
:1021200012FA05F50D43A0F82059200040B270BD09
:1021300010B500240CE0DFF87003B0F8200901218D
:10214000A140084203D02000C0B2FFF7FDFE641C8E
:102150002000C0B20728EEDB10BD0021010089B2CB
:10216000C1F3023104290AD1DFF83C1380B2000523
:10217000000D01EB4000B0F9200200B27047FEE70D
:102180000021010089B2C1F30231002909D1DFF831
:10219000181380B20005000D084490F86003C0B227
:1021A0007047FEE70021010089B2C1F30231012925
:1021B0000AD1DFF8F41280B20005000D01EB4000F7
:1021C000B0F8A00280B27047FEE700009FED850ADC
:1021D000010089B2C1F30231062909D1DFF8C81222
:1021E00080B20005000D01EB800090EDE80A704719
:1021F000FEE7020092B2C2F30232002A07D1DFF8F2
:10220000A82280B20005000D104480F860137047CA
:10221000020092B2C2F30232012A08D1DFF888220A
:1022200080B20005000D02EB4000A0F8A01270473C
:10223000010089B2C1F30231062908D1DFF8681222
:1022400080B20005000D01EB800080EDE80A7047C8
:1022500070B51C0000250B0000201605360DC9B214
:10226000FF2902D192B2120B1300DBB2002B09D06E
:10227000022B18D00ED3042B25D01DD3062B32D021
:1022800029D338E00125DFF82002B6B2304410F53A
:10229000FC6030E00225DFF81002B6B200EB460029
:1022A00010F5E46027E00425DFF8FC01B6B200EB8E
:1022B000860010F5B4601EE001257B48B6B23044BC
:1022C00010F5F46017E002257748B6B200EB46003F
:1022D00010F5D4600FE004257348B6B200EB860019
:1022E00010F5946007E004256F48B6B200EB860055
:1022F00010F50260FFE7290049B2012906DB2A0038
:1023000052B292B20100200002F0BEFD280040B29D
:1023100070BDF8B55FF0FF3400200D0000261705F2
:102320003F0DC9B2FF2902D192B2120B150029004C
:10233000C9B2002909D0022916D00DD3042922D010
:102340001AD306292FD026D335E001205649BFB233
:10235000394411F5FC662EE002205349BFB201EB6F
:10236000470111F5E46626E004204F49BFB201EBB6
:10237000870111F5B4661EE001204B49BFB2394414
:1023800011F5F46617E002204749BFB201EB47019F
:1023900011F5D4660FE004204349BFB201EB870179
:1023A00011F5946607E004203F49BFB201EB8701B5
:1023B00011F50266FFE7010049B201290EDB40B2C8
:1023C00080B202001900300002F05EFD374800784C
:1023D000002803D02800C0B2FFF7B6FD200040B2AD
:1023E000F2BD0000000000000021010089B2C1F32D
:1023F0000231002908D12C4980B20005000D0844A3
:1024000090F8E007C0B27047FEE70021010089B2F2
:10241000C1F30231012909D1234980B20005000D21
:1024200001EB4000B0F8200780B27047FEE70200E1
:1024300092B2C2F30232002A06D11B4A80B20005D2
:10244000000D104480F8E0177047020092B2C2F30A
:102450000232012A07D1144A80B20005000D02EBB6
:102460004000A0F820177047020092B2C2F3023277
:10247000022A07D10C4A80B20005000D02EB800051
:10248000C0F8A01570470949087070473432002021
:102490003433002034340020B4340020343500209C
:1024A00074350020B435002014320020D4060020FA
:1024B000BBBBE1B1B2F5803F80F07E80022A1ED91D
:1024C0008C46B1FBF2F102FB11C31B0443EA10433B
:1024D000B3FBF2FC02FB1C3380B240EA0343B3FBC4
:1024E000F2F002FB103240EA0C4000237047022A4F
:1024F00005D98446B0FBF2F002FB10C270474AB126
:1025000005D100F0010249085FEA3000704700225F
:102510000023704702F00CBD0B00020000210020D8
:102520007047904271EB030CF6D3B3F5803F2FD286
:10253000F0B5B3FA83F7B1FA81F4A7F10F0E3D1BA2
:102540005340CEF1200602FA0EF2F3415340B5F1AA
:102550000F0746D80F3C2C444140C4F12006A04050
:10256000F1414140B1FBF3F603FB1611A2FB064516
:10257000001BA94102D2761E8018594180EA01024F
:1025800021FA0EF362FA0EF200215A403046F0BDF5
:1025900030B4B1FBF3FC03FB1C11A2FB0C45001B88
:1025A000A94103D2ACF1010C8018594130BC02465C
:1025B0000B46604600217047B2F1807F65D3F0B5CD
:1025C000B2FA82F7B1FA81F4C7F10F063D1B22FA85
:1025D00006F307F1110EF24120355A40B5F10F070D
:1025E000B8D94140C4F12006A040F1414140B1FBBF
:1025F000F3FC03FB1C11A2FB0C45001BA94103D2F9
:10260000BCF1010C801859410F2F12D30F3FC903A1
:1026100041EA5041B1FBF3F603FB1611A2FB06455C
:10262000D4EBC030A94102D2761E8018594146EA47
:10263000CC3C07B34140C7F12006B840F1414140CE
:10264000B1FBF3F603FB1611A2FB0645001BA941E3
:1026500002D2761E8018594180EA010221FA0EF357
:10266000C7F1200462FA0EF20CFA07F05A402CFA75
:1026700004F13043F0BD80EA010221FA0EF300219B
:1026800062FA0EF260465A40F0BD8C46B1FBF2F1A0
:1026900002FB11C31B0243EA1063B3FBF2FC02FB13
:1026A0001C331B024CEA002043EA1063B3FBF2FC2C
:1026B00002FB1C331B024CEA002043EA1063B3FB0D
:1026C000F2FC02FB1C331B024CEA002043EA1063BD
:1026D000B3FBF2FC02FB1C324CEA002000237047E3
:1026E00080B5202080F31188FFF73DFA01BD80B549
:1026F000FFF73EFA002080F3118801BD80B5FFF797
:10270000EFFF01BD80B5FFF7F2FF01BD80B502F01C
:102710002CFC01BD01210170002141600021C1603C
:1027200000210174704738B504000D00FFF7E6FF83
:1027300065606868A060200002F032FC0020E06064
:1027400002202070FFF7DEFF31BD10B50400FFF757
:10275000D5FF200002F0E1FC0020E0600020606076
:1027600001202070FFF7CEFF10BD70B504000D00F2
:102770001600FFF7C3FFE0680121A9400843E060AD
:1027800032002900C9B2200002F00AFDFFF7BAFFAB
:1027900070BDF0B40246106895681318506803EBDA
:1027A0005004C0071DD54D441BE013F8017B05F80C
:1027B000017B491EF9D1A0B1B60813F8011B06F040
:1027C0000306032E08BF13F8016B01EB06214942F3
:1027D000801C294405D011F8016B05F8016B401EDF
:1027E000F9D1A3420ED013F8016B16F0030104BF18
:1027F00013F8011BC91C30090F28DAD113F8010B9B
:102800000F30D6E7F0BC02F10C00704700285DD015
:102810000100DFF8D8231061086CD060002010712F
:102820000020D080CB8B488B1B1A00EE103AB8EEFC
:10283000C00A82ED050A8B8B088B1B1A00EE103A3A
:10284000B8EEC00AD2ED050A80EE800A82ED050AD4
:102850004B8CC88B1B1A00EE103AB8EEC00A82ED02
:10286000060A0B8C888B1B1A00EE103AB8EEC00AD1
:10287000D2ED060A80EE800A82ED060ACB8C488CE7
:102880001B1A00EE103AB8EEC00A82ED070A8B8CD4
:10289000088C1B1A00EE103AB8EEC00AD2ED070AF7
:1028A00080EE800A82ED070ADFF84403B1F8443075
:1028B00090FBF3F01063DFF83803B1F8461090FB9B
:1028C000F1F050630A20108701201071704780B525
:1028D0000100C64A1069002800F0A580C4481369A9
:1028E000B3F8443090FBF3F01063C1481369B3F8B8
:1028F000463090FBF3F05063536B106B1B1A502063
:10290000B3FBF0F01087B2F93800022801DA022098
:1029100010871069008B0B001BB2984208DB10690E
:10292000408B00EE100AB8EE400A00F07DF87AE025
:102930001069008B0B001BB2984212DA1069808B71
:102940000B001BB298420CDB09B21069008B091A0C
:1029500000EE101AB8EEC00AD2ED050A20EE200AE9
:1029600047E01069808B0B001BB298421ADA10699D
:10297000008C0B001BB2984214DB09B21069808BEB
:10298000091A00EE101AB8EEC00AD2ED060A20EEBF
:10299000200A1069C08B00EE900AF8EE600A30EE53
:1029A000800A26E01069008C0B001BB298421ADAEC
:1029B0001069808C0B001BB2984214DB09B21069BD
:1029C000008C091A00EE101AB8EEC00AD2ED070A00
:1029D00020EE200A1069408C00EE900AF8EE600AA2
:1029E00030EE800A05E01069C08C00EE100AB8EEE7
:1029F000400AD2ED030A20EE200ABDEEC00A10EE16
:102A0000101A080000B21368984202DA1068401ADF
:102A100001E01068081A00B2401E092803D3002004
:102A2000107209B2116001BD704991F908000028C7
:102A300007D10868012804DB012008727FF06300D9
:102A400008606B480A69B2F8442090FBF2F0086312
:102A5000086B40080863086B142801D2142008632F
:102A6000704710B5614C2069002802D15FF0FF303B
:102A7000BBE00020B4F90610002919D094F9041025
:102A8000012905D12168226A91420BDA012009E06F
:102A900094F9041011F1010F04D1216A22689142C6
:102AA00000DA01200100C9B2002901D00321E18030
:102AB000B4F90610002905D0022956D034D30329D1
:102AC00065D091E0206A2168884223D0206900699E
:102AD000002802D0206900698047206A2168884266
:102AE00005DA012020712069C068804705E05FF0A9
:102AF000FF3020712069806880470120E080606B92
:102B0000E062206940688047206A94F90410401808
:102B1000206208E0206A002803D15FF0FF30E06205
:102B200001E00020E0625FE0E16AB4F93800091AD0
:102B3000E162E06A216B884203D2206BE0620220EE
:102B4000E0802068216A884208D020694068804778
:102B5000206A94F904104018206205E0B4F90600D8
:102B6000012801D10020E0803EE02168206A081A97
:102B70000B30172808D3206940688047206A94F9F1
:102B800004104018206201E00320E0802CE0E16A9C
:102B9000B4F938208918E162616BE26A91420BD284
:102BA000616BE162C0B2002806D094F90400404293
:102BB00020710020E08017E0206A2168884208D058
:102BC000206940688047206A94F904104018206208
:102BD0000AE00020E0620020E0802068002803D5A1
:102BE0000020206000202062E06A10BD28460020FE
:102BF000A0860100002108E0374A002342F8313066
:102C0000002302EBC1025360491C1029F4D333495D
:102C10000A6852F0BD020A6009680168304A116012
:102C20008168304A116041682F4A1160C1682F4A9B
:102C3000116041692E4A116001692E4A1160816953
:102C40002D4A1160016A2D4A1160C1692C4A116038
:102C5000416A2C4A1160C16A2B4A1160816A2B4A71
:102C60001160016B2A4A1160816B2A4A1160406B26
:102C7000294908607047F0B4032A01D1016102E0DC
:102C8000042A00D14161254B9E5C002215001400EE
:102C90001300002709E0344305E035435FEA014CA7
:102CA000F9D452F00F0249007F1C082F09D21B01F2
:102CB00012012D0124015FEA016CEED453F00F03E1
:102CC000ECE741680A402243426001680B402B4315
:102CD0000360F0BC70470000983B002018100240D1
:102CE0000C08014004080140000801400C0C0140A0
:102CF000040C0140000C01400C1001400410014084
:102D0000001001400C140140041401400014014063
:102D10000C1C0140041C0140001C0140E87A000822
:102D2000006070470168814201D0012000E000206E
:102D3000C0B270470060406070470168814201D0B6
:102D4000012000E00020C0B270470A6802600860FD
:102D500070470100086802680A60704701604A68AD
:102D6000426042681060486070470100086802686D
:102D70000A600A685160704780B5202080F311888E
:102D8000FEF7F1FE01BD80B5FEF7F2FE002080F3F4
:102D9000118801BDDFF8F80280697047C06970478B
:102DA00080B50100082002F0E9FA01BD10B50C0061
:102DB000FFF7DBFF446202F07AFA10BD10B50400A1
:102DC000A260022084F82000002084F82100E26341
:102DD0000020A06300206063012084F82200A1612C
:102DE000DFF8AC0220614169616161690C61446195
:102DF00014F12800FFF794FF14F12C00FFF79AFF5D
:102E000014F1480001F04CFF200010BD01E00270F9
:102E1000401C8842FBD3704780B58168B1F16003E4
:102E20004168D961B3F16401D9600169DA6811645C
:102E30004169DA6851649749DA681166C2680168C5
:102E40001800FFF7BBFF02BD10B504005522A168B2
:102E50006068FFF7DBFFFFF78FFF2000FFF7DCFF65
:102E600004000021200002F0ABFAFFF78CFF2000E5
:102E700010BD2DE9F0410700884614001E00069D94
:102E8000552207EB08013800FFF7C0FFFFF774FF7A
:102E900007EB08006038C761B0F16401C160C16828
:102EA0000E64C1684D647B49C268116622007A498C
:102EB000FFF784FF04000021200002F081FAFFF7F1
:102EC00062FF2000BDE8F08110B50400FFF754FF59
:102ED00094F82200401E84F8220094F82200002872
:102EE00024D194F820000F2820D12069616908615D
:102EF000606921694861FFF746FF94F8210010F0EE
:102F00000300C0B2012802D0022806D00DE0200044
:102F1000FFF744FF02F0E4FA07E02000FFF73EFF6E
:102F20000100206C02F03AFBFFE701E0FFF72BFF06
:102F300010BD10B50400FFF71FFF200000F001F8DE
:102F400010BD10B552498C69606205E014F128008B
:102F5000FFF7FFFE02F0ABF914F12800FFF7E2FEE5
:102F60000028F3D194F8220000280AD194F8210017
:102F700010F0030F05D1206961690861606921695A
:102F800048610F2002F0B3F910BD38B50400FFF717
:102F9000F3FE94F820000F2808D014F128013C48D3
:102FA0008069FFF7D2FE092002F0A1F9656AFFF7F8
:102FB000EAFE2000FFF788FF280032BD10B50400AC
:102FC000FFF7DAFE94F8210050F0040084F82100A5
:102FD000FFF7D9FE10BD10B50400FFF7CDFE2000AD
:102FE000FFF7DEFEFFF7CFFE10BD10B50400FFF7C0
:102FF000D1FE20604462032002F079F9FFF7CAFE97
:10300000406A10BD38B505000C00FFF7C3FE002C68
:1030100002D15FF0FF3005E0286045622100032007
:1030200002F0ACF932BD80B50268002A06D0026811
:10303000002303605162100002F039F901BD80B530
:103040000268002A05D0026800230360100002F025
:10305000B7F901BD38B504000D00FFF78DFE29005A
:103060002000FFF7ECFFFFF78EFE31BD10B50C001E
:10307000002C02D15FF0FF3008E0010004488069B5
:10308000FFF76CFE2100042002F078F910BD00006B
:10309000982200200D640008587B000838B5040011
:1030A0000D002000FFF749FE002803D02900200072
:1030B000FFF77CFE31BD30B4002513E050F8042B3F
:1030C000D30744BFA9F101039A18091F042942F844
:1030D000045BFAD213468C0744BF15809B1CC907BA
:1030E00048BF1D7050F8041B0029E7D130BC704761
:1030F000081A80B2704780B5FEF704FD02BD80B5A6
:10310000202080F31188FEF738FD01BD80B5FEF761
:1031100039FD002080F3118801BD80B5FFF7EBFF7A
:1031200002BD10B50400FFF7F8FF010089B22000CE
:1031300080B2FFF7DDFF10BD66488069704780B53B
:10314000FFF7FAFF90F82100C0B2800810F00100EC
:1031500002BD604989698861704780B514215E4865
:1031600002F055FA01BD40205C49086001205C492D
:103170000870704780B540205A49086000205849BF
:103180000870FFF7EAFF01BD8020544908607047CE
:10319000802054490860704780B54FF480704F49D3
:1031A0000860C820FFF717FF01BD80B54FF480709D
:1031B0004C490860C820FFF70EFF01BDF8B50400B8
:1031C0004948FFF7C6FF2000FFF720FB0024FFF768
:1031D000CAFFFFF7DDFFFFF7E8FF414F012038701E
:1031E000002625E04FF47A71404802F010FA1BE007
:1031F000280080B2FFF795FF02004FF47A7340F287
:10320000CF700021E3FB02014FF4FA620023FFF7C5
:103210004FF940F2E931884201D3FFF7C6FF4FF47E
:103220007A71324802F0F3F95FF0FF3000F05CFB96
:10323000E4B2002C1BD1FFF782FF0400387800288D
:10324000D0D0FFF70EFC0100012904DB002627483F
:1032500002F0DDF9E8E711F1010FE0D13000C0B272
:103260000028C5D1FFF759FF05000126D7E7F1BDBA
:103270007CB5040002F0B4F91D49174802F0B9F911
:103280001C491A4802F0B5F930221B4D15F11806F9
:103290002100300001F0F8FD0095184B81224FF419
:1032A0005C711748FFF7E5FD1649086073BD80B5EE
:1032B000FFF725FFFFF757FFFFF728FF01BD80B598
:1032C000FFF71DFF01210F48006800F0F2FAFFF739
:1032D0001DFF01BD98220020783B00201010014006
:1032E000CA46002014100140607B0008883B002083
:1032F0006C0600207C0600208C060020BD310008F2
:10330000E82400206446002080B50120FEF738FF45
:10331000C0B2AA280ED001210420FEF76AFF0421C2
:103320000920FEF766FFAA210120FEF762FF0020B8
:10333000FEF70AFE01BD38B5FFF7E6FF0420FEF7F1
:103340001FFFD04C2071D04DAC600920FEF718FF54
:10335000287304202873287B002806D002280ED06A
:1033600008D3042815D00FD318E04FF41650C749DE
:10337000086017E04FF49640C449086012E04FF42B
:103380001640C24908600DE04FF46140BF49086033
:1033900008E05FF4E130BD49086003E04FF41650E7
:1033A000BA490860B949BA4802F0C2F90094B94B69
:1033B000812241F27011B848FFF75BFD2860B748E1
:1033C00000F008FB686031BD70472DE9F84FA0B0F0
:1033D00004000D00280068461600A8786F7857EAA8
:1033E000002795F8008018F07F08287810F08000FA
:1033F000C0B2002828D10020B6F1020915F1030A55
:103400000020FFF740F85FF0000B01E01BF1010B1B
:1034100058464146C0B2C9B2884210D253463A001B
:1034200092B2FF210020FEF708FEB9EB000947FA2F
:1034300080F740B282444846C0B20028E6D101205D
:10344000FFF721F8FEF774FE684602210170401C68
:1034500010210170401C8B4909790170401C401CEF
:1034600029780170401C69780170401CA9780170AE
:10347000471CB01E0020A8786D7855EA002500266C
:103480000BE03B002A0092B2FF210020FEF771FD05
:1034900045FA80F540B20744761C30004146C0B280
:1034A000C9B28842EDD30DF10300381A401E8DF8E1
:1034B00003007D1C6846281A811EC9B20DF1010067
:1034C00002F079F93870032028700420FFF783FD9B
:1034D00068462D1A6D1C2A006946200023685B6827
:1034E000984721B0BDE8F08F2DE9F84FA0B0040057
:1034F0000D00280068461600A8786F7857EA002764
:1035000095F8008018F07F08287810F08000C0B28D
:10351000002826D10020B6F1020915F1030A002087
:10352000FEF7B1FF5FF0000B01E01BF1010B584605
:103530004146C0B2C9B2884210D253463A0092B254
:10354000FF210020FEF7E5FEB9EB000947FA80F7FE
:1035500040B282444846C0B20028E6D10120FEF7BE
:1035600092FF684602210170401C20210170401C1E
:10357000444909790170401C401C29780170401CA5
:1035800069780170401CA9780170471CB01E0020AA
:10359000A8786D7855EA002500260BE03B002A004C
:1035A00092B2FF210020FEF753FE45FA80F540B2AB
:1035B0000744761C30004146C0B2C9B28842EDD300
:1035C0000DF10300381A401E8DF803007D1C68467B
:1035D000281A811EC9B20DF1010002F0ECF8387012
:1035E000032028700420FFF7F6FC68462D1A6D1C96
:1035F0002A006946200023685B68984721B0BDE82F
:10360000F08F80B508004878097851EA00211E4AF9
:103610005068002805D0012010FA01F1506800F030
:103620003AF901BD38B5A0B00C00694602220A7013
:10363000491C40220A70491C124A12790A70491C1E
:103640000C704D1C2200D2B20100280002F076F965
:10365000E4B22C44651C6846281A811EC9B20DF1DB
:10366000010002F0A8F8207003202870084869467D
:103670006D1A6D1C2A00694603685B68984721B083
:1036800030BD00007005002098290020640500204E
:103690006C3C0020D958000828110020487B000805
:1036A000704780B5FFF7FCFF02F054F90848FFF7B8
:1036B000A1FA00F0C0F901F093FFFFF727F802F03C
:1036C00013F802F0DBF902F03AFAFEF709FA01BD4D
:1036D00094790008081880B27047081A80B27047C1
:1036E00080B5FEF706FA01BD80B580B2FEF705FA97
:1036F00001BD80B5FEF706FA02BD002080F31188F7
:1037000062B6704780B5202080F31188FEF735FA45
:1037100001BD80B5FEF736FA002080F3118801BDA7
:1037200080B5FFF7E6FF02BDF8B5454CE569FFF748
:10373000F7FF0700390089B2208DFFF7CEFF0600A2
:10374000A868864205D2E06914F11C0188421FD1A5
:103750003EE0218DA86841182185A868361A14F129
:103760001C00296848602968E161EF680021E96070
:10377000E169814201D1FFF7B3FFFFF7CAFF286972
:10378000B847FFF7BFFFE569A8688642E1D2CEE7F8
:10379000208D30182085E0698068861BE06986608E
:1037A000390089B2208DFFF798FF0100A868411AFF
:1037B000022901D2022104E0B1F5803F01D34FF686
:1037C000FF71380080B2FFF785FF80B2FFF78CFFF2
:1037D000F1BD80B502F0C2F901F076FE02F0FDF90C
:1037E00001BDFEE710B501F058FDFEF7F3F9FFF754
:1037F000F0FF01F03DFAFEF789F9114C80221149E2
:1038000014F13000FFF7DAFAA0610F48A169C8612E
:103810000120A16981F8200002F03BFAA06948303C
:1038200001F04CFAFFF769FF0848FFF70DFB10BDE8
:1038300072B60349C862FEE780B5FFF775FF01BDA8
:10384000982200208C7A000800040020A47A000846
:1038500080B5202080F31188FEF785F901BD80B581
:10386000FEF786F9002080F3118801BD70B50500D0
:103870000C002E680CE0F0682043F060002C02D0B1
:103880003069044203D0B168706800F012F83668FD
:10389000AE42F0D170BD38B504000D00FFF7D8FF7F
:1038A0002900200000F005F801F0B0FDFFF7D7FF78
:1038B00031BD80B5426B1143416390F820100A2955
:1038C00003D1416B426A114209D190F820100B29B3
:1038D00009D1426B416A0A40416A8A4203D1002100
:1038E000416201F0E4FC01BD70B505001D48866928
:1038F000FFF7AEFF746B2C40002C06D175620A20D6
:1039000001F0F5FC706B05402C00706BA0437063F8
:10391000FFF7A5FF200070BDF8B506000D001148A7
:103920008769FFF795FF7C6B3440002C13D1002D85
:1039300003D1FFF794FF002013E07E6229000A20E4
:1039400001F01CFD002803D5FFF789FF002008E0E7
:10395000786B06403400786BA0437863FFF77FFFF5
:103960002000F2BD9822002080B5202080F311882D
:10397000FEF7F9F801BD80B5FEF7FAF8002080F3F4
:10398000118801BD8069704710B5FFF7EDFF104841
:10399000046994F82200401C84F82200FFF7EBFF32
:1039A000200010BD38B50400FFF7DEFF2569084888
:1039B000854201D1002504E095F82200401C85F8DD
:1039C0002200FFF7D8FF2000FFF77EFA280032BD63
:1039D0009822002038B50500FFF7D6FF040020002C
:1039E000FFF7D0FF290002F0ABF9002807D0200034
:1039F000FFF7D8FF0400002CF1D1002032BD2000D9
:103A0000FCE780B5202080F31188FEF7ACF801BDFB
:103A100080B5FEF7ADF8002080F3118801BD80B5B8
:103A2000FFF7EFFF01BD80B5FFF7F2FF01BD80B5E5
:103A300002F0CCF901BD80B502F0CDFA01BD80B530
:103A40000121017000214160002181600021C160DD
:103A500000210161002141611830FFF7E8FF01BD3D
:103A600038B504000D00FFF7DAFF6560200002F0B2
:103A7000DCFA02202070FFF7D6FF31BDF8B5040054
:103A80000D0016001F00FFF7CAFF3B00320029009F
:103A9000200000F003F8FFF7C6FFF1BD80B582609B
:103AA000C36001610321017002F0EEFA01BD400024
:103AB000C0F3C75181B1FF2906D0C110400721F0E2
:103AC000E04101F16051704741020CBF40F4E00158
:103AD0006FF000410020704700F0004100020AD062
:103AE000B0FA80FC00FA0CF001F16051A1EB0C512E
:103AF00001EBD02140057047C11768B14840401A1A
:103B0000B0FA80F29040D21CC907C2F5846241EA43
:103B1000025202EBD021400570471421B0B581EA72
:103B2000030C0CF0004C40F2FF7515EA11541DBF58
:103B300015EA1357AC42AF4239E0E41923EA455382
:103B400043F48013C90241F0004141EA505EC702CC
:103B50001100A7FB020200284FF00000EEFB01203D
:103B60004FF00001E3FB072118BF42F001024018AB
:103B700000214941E3FB0E01A4F580640F0302D24A
:103B800052004041494154F101046CDD470872F193
:103B9000004250F1000051EB0451A1F580115CBFCF
:103BA00041EA0C01B0BD4CEA05510020B0BD05EA68
:103BB0001357AC4214BFAF4241E050EA410E1CBF64
:103BC00052EA430E02E061460020B0BD24423C446C
:103BD0001BD15FEA070EF6D0090302BF01460020A1
:103BE000AEF1140EB1FA81F7AEEB070401FA07FE4D
:103BF0000C37C7F1200100FA07F7C8404EEA000E63
:103C000023EA455343F48013A2E733F00043B3FAA9
:103C100083F704BFB2FA82FE77440B3FE41BB7F18F
:103C2000200E2FBF02FA0EF3BB40C7F1200E22FA7E
:103C30000EFE38BF43EA0E03BA40641C82E750EA26
:103C4000410E14BF52EA430E6FF000014FF400170B
:103C500017EB430F8ABF194617EB410FB5E74CEA44
:103C600005510020B0BDD4F10104B4F120070FDAF2
:103C7000C4F12007520828BF42F0010210FA07F5EC
:103C800001FA07F7E1BF2A43E0403843E1400FE083
:103C9000352C98DCC7F1200452EA400220FA07F2E2
:103CA00018BF42F0010231FA07F0A1400A43002197
:103CB00072F1004250F1000051EB0C01B0BDFFFF6A
:103CC00070B44FF0004591EA030F42F139826B4026
:103CD000841A71EB030604D26E40001BB141121925
:103CE00073414FF4001C1CEB410F34BF7CEB4306C7
:103CF00083E00C0DA4EB1356362E00F37C80012ECE
:103D000045EAC32341DC43EA525312BFD202920276
:103D10005B08240545EAC12141EA5051D2EBC0209D
:103D2000994125D407D1B0FA80F610FA06F162D095
:103D30000020203608E0B1FA81F6B140C6F1200239
:103D400020FA02F21143B0404FEAF474B4EB465447
:103D500034F001064FEA74040AD8D6F50016760D41
:103D600004F00044F04061FA06F25040F14048404F
:103D7000C00A40EA415021F0004128BF5FEA5005E7
:103D800050F1000044EBD12135E0DB0A45EAC121C6
:103D9000C90AB6F120050EDD42EA0242120CC5F155
:103DA000200603FA06F6EB4042EA06056D4298410A
:103DB00061F100010DE062FA06F5F240554063FA48
:103DC00006FC82EA0C02F3405A406D42904161EBDE
:103DD000030111F4801F05D1641E620502D06D003D
:103DE0004041494121F48011430875F1004350F1ED
:103DF000000041EB045170BC70471CEB410F15D221
:103E000023F0004352EA43060BD04FEA4C0CBCEBC4
:103E1000410F04D80C0D661E342EB7DDEBE7801A77
:103E2000994150EA410608BF0021E4E708BF1CEBB6
:103E3000430F28BF6FF00001DDE7FEE701F000420D
:103E40008B1AA3F16051B1F5801F0ADBB1F17F6FCE
:103E50001FD242EAC102C10071F1004142EB507031
:103E600070470B15C3F10903212B10D2890241EAD7
:103E7000905180020128494141F0004121FA03F0AC
:103E8000C3F12003994071F1004150417047100087
:103E900070476FF0000013EB103F5CBF000E42EA6A
:103EA000C050704780B50C2100F0C1FD01BD1CB5AC
:103EB00004008DF800102021200000F0B8FD01233F
:103EC0006A464321200000F077FD13BD38B5050098
:103ED0002021280000F0ABFD4FF6FF740220FFF711
:103EE0007AF8641E01236A46C121280000F018FDFB
:103EF000002C04D09DF800008006EFD5FFE7002CD1
:103F000001D1002000E0012032BD7CB504000D008D
:103F1000160003208DF800002021200000F087FD0E
:103F200001236A46FC21200000F0FAFC9DF8000005
:103F300010F03F0050EA85108DF800009DF8000059
:103F400066F304008DF8000001236A467C212000FE
:103F500000F032FD73BD38B504001500481E8DF821
:103F600000002021200000F062FD01236A464B2161
:103F7000200000F021FD01236A46CC21200000F042
:103F8000CFFC9DF8000010F0FC008DF800009DF8BB
:103F90000010DFF88407EDB2405D41188DF8001085
:103FA00001236A464C21200000F006FD31BD38B5E2
:103FB00004000D002021200000F039FD01236A4695
:103FC000CC21200000F0ACFC9DF8000010F0F300C4
:103FD0008DF800009DF80010DFF84007EDB2405D5D
:103FE00001438DF8001001236A464C21200000F0A7
:103FF000E3FC002008E0411CC9B24900DFF820279B
:104000000300DBB2D154401C0100C9B20829F2DB25
:104010000823DFF80C271021200000F0CDFC31BD73
:104020002DE9FC4105000F0016009846089C202150
:10403000280000F0FCFC01236A46CD21280000F096
:104040006FFC9DF8000010F0F0008DF800009DF866
:104050000000B60056EAC70656EA4806264306435D
:104060008DF8006001236A464D21280000F0A4FC71
:1040700001236A46CD21280000F052FCA87A10F0F6
:104080003F008DF8000001236A465221280000F00D
:1040900093FC01236A46D221280000F041FC688984
:1040A00080B2000A8DF8000001236A4653212800DF
:1040B00000F082FC01236A46D321280000F030FC86
:1040C000BDE8F38138B504000D002021200000F088
:1040D000AEFC01236A46CD21200000F021FC9DF8B2
:1040E000000010F07F008DF800009DF8000050EAFD
:1040F000C5108DF8000001236A464D21200000F014
:104100005BFC31BD38B504000D002021200000F01B
:104110008EFC01236A46CD21200000F001FC9DF8B1
:10412000000010F0BF008DF800009DF8000050EA7C
:1041300085108DF8000001236A464D21200000F013
:104140003BFC31BD7CB504000D0016002021200091
:1041500000F06DFC01236A46CD21200000F0E0FB59
:104160009DF8000010F0CF008DF800009DF80000D1
:10417000360156EA451606438DF8006001236A466B
:104180004D21200000F018FC73BD7CB504000D002B
:1041900016002021200000F04AFC01236A46CE21AF
:1041A000200000F0BDFB9DF8000056EAC51606434E
:1041B0008DF8006001236A464E21200000F0FCFBD0
:1041C00073BD000038B52DED028B82B00400DFED29
:1041D000A20AB4EE600AF1EE10FA0BD500208DF8B9
:1041E0000000DFED9E0A20EE200AF1EE000A20EE2C
:1041F000208A28E0DFED9A0AB4EE600AF1EE10FAA8
:104200000BDB60208DF80000DFED940A20EE200A21
:10421000F7EE000A20EE208A15E0DFED900A60EE4E
:10422000200AB0EE001A20EE818ADFED8E0AB4EE8D
:10423000600AF1EE10FA03DB40208DF8000002E086
:1042400020208DF800002021200000F0F0FB012349
:104250000DF10102E021200000F062FB9DF8010059
:1042600010F09F008DF801009DF800109DF80100EE
:1042700001438DF8001001236A466021200000F000
:104280009BFB9FED790A88EE000AFDEEC00A10EE56
:10429000900A8DF800009DF8000000EE900AF8EEFC
:1042A000600A30EE600ADFED710A20EE200ABCEEF3
:1042B000C00A10EE105A01236A466221200000F065
:1042C0007BFB28008DF8000001236A466321200053
:1042D00000F072FB2800000A8DF8000001236A46F6
:1042E0006421200000F068FB2D0C8DF800500123A4
:1042F0006A466521200000F05FFB02B0BDEC028B36
:1043000031BD38B504000D002021200000F08FFBE6
:10431000DFF81004EDB22844007D8DF80000012381
:104320006A467F21200000F047FB31BDF8B504004C
:104330000D002221200000F07AFB0123DFF8E803C2
:104340002900C9B200EB01026F21200000F034FB0C
:104350002021200000F06BFB0323DFF8D0032900AD
:10436000C9B200EBC1025421200000F025FBDFF8A8
:10437000C06301232800C0B206EBC0025721200011
:1043800000F01AFB01232800C0B206EBC000421C5B
:104390005821200000F010FB01232800C0B206EBDA
:1043A000C000821C5921200000F006FB01232800D8
:1043B000C0B206EBC000021D5B21200000F0FCFA39
:1043C00001232800C0B206EBC000C21D5E21200000
:1043D00000F0F2FA2121200000F029FBDFF85473ED
:1043E000380014262900C9B27143405A8DF80000E4
:1043F00001236A466C21200000F0DEFA1223280017
:10440000C0B206FB00F607EB0600821C6D212000FF
:1044100000F0D2FADFF8206301232800C0B206EBD7
:1044200000026021200000F0C7FA01232800C0B27A
:104430003044C21C6221200000F0BEFA0123EDB21C
:1044400006EB0500821D6621200000F0B5FA202150
:10445000200000F0ECFAF1BD0000C84300247449CC
:10446000000048440100E1430024744B00008049EF
:1044700080B501236A46EA2100F052FA9DF8000057
:1044800002BD3EB5040014F110002021200000F010
:10449000CEFA002515E0A9482900C9B230F811105C
:1044A00089B2090A2A00D2B230F812008DF804004D
:1044B000012301AA51F04001C9B2200000F07CFAAA
:1044C0006D1C2800C0B20628E5D3002515E09C48E5
:1044D0002900C9B230F8111089B2090A2A00D2B2F3
:1044E00030F812008DF80400012301AA51F04001B8
:1044F000C9B2200000F060FA6D1C2800C0B212287A
:10450000E5D3002515E08F482900C9B230F8111015
:1045100089B2090A2A00D2B230F812008DF80400DC
:10452000012301AA51F04001C9B2200000F044FA71
:104530006D1C2800C0B20028E5D02021200000F02A
:1045400076FA002515E080482900C9B230F811102C
:1045500089B2090A2A00D2B230F812008DF804009C
:10456000012301AA51F04001C9B2200000F024FA51
:104570006D1C2800C0B20B28E5D32121200000F0DB
:1045800056FA002515E071482900C9B230F811101B
:1045900089B2090A2A00D2B230F812008DF804005C
:1045A000012301AA51F04001C9B2200000F004FA31
:1045B0006D1C2800C0B20028E5D02221200000F0A8
:1045C00036FA002515E062482900C9B230F811100A
:1045D00089B2090A2A00D2B230F812008DF804001C
:1045E000012301AA51F04001C9B2200000F0E4F912
:1045F0006D1C2800C0B20728E5D32021200000F060
:1046000016FA032204212000FFF7A5FC01200090E8
:104610000123012200212000FFF702FD00212000DC
:10462000FFF750FD00212000FFF76CFD0122012162
:104630002000FFF787FD362200212000FFF7A5FDAF
:10464000217A2000FFF75DFE2000FFF73FFC37BD19
:104650001CB504002021200000F0E9F901236A467E
:10466000E021200000F05CF99DF8000050F0080007
:104670008DF8000001236A466021200000F09CF9BB
:1046800001236A46E021200000F04AF99DF800006D
:104690000007F5D413BD1CB504002021200000F054
:1046A000C6F901236A46FE21200000F039F99DF881
:1046B000000050F080008DF8000001236A467E2142
:1046C000200000F079F901236A46FE21200000F065
:1046D00027F99DF800000006F5D413BD80B5FFF75B
:1046E000E1FB01BD38B5040001236A46C421200066
:1046F00000F016F99DF800502800C0B2002808D03C
:1047000000208DF8000001236A464421200000F0BB
:1047100053F92800C0B232BD980500209C05002046
:10472000383B00207C050020F0050020A00500207B
:10473000C805002008060020F80500201C7B0008A2
:10474000487A0008AE3A0008BC7A00081A3B000814
:104750000C7B000810B5040061600821200000F007
:1047600066F9200000F08DF92000FFF79BFB200088
:10477000FFF7ACFB002828D0102202212000FFF711
:10478000C4FB2000FFF77DFE200000F07AF9202115
:10479000200000F04CF9112200212000FFF707FC57
:1047A00094ED030A2000FFF70DFD617A2000FFF76A
:1047B000BDFD2000FFF74CFF2000FFF76CFF20003D
:1047C000FFF78CFF200000F05CF910BD1CB5040061
:1047D0000821200000F02BF92021200000F027F90B
:1047E00098208DF8000001236A467921200000F00E
:1047F000E3F82000FFF756FB2021200000F017F916
:1048000011208DF8000001236A464121200000F0AC
:10481000D3F810208DF8000001236A4641212000C2
:1048200000F0CAF840208DF8000001236A464021BC
:10483000200000F0C1F838208DF8000001236A46FE
:104840005121200000F0B8F858208DF80000012315
:104850006A465A21200000F0AFF82121200000F024
:10486000E6F814208DF8000001236A46612120003B
:1048700000F0A2F82221200000F0D9F803208DF8E2
:10488000000001236A466621200000F095F8882088
:104890008DF8000001236A466921200000F08CF8A1
:1048A00068208DF8000001236A466E21200000F088
:1048B00083F806208DF8000001236A466F2120004E
:1048C00000F07AF890208DF8000001236A467421E8
:1048D000200000F071F89C208DF8000001236A464A
:1048E0007921200000F068F85D208DF80000012398
:1048F0006A467B21200000F05FF82021200000F0B4
:1049000096F82000FFF7E2FA002803D00A212000E1
:1049100000F08DF813BD80B5FFF7D8FA01BD000097
:104920002DE9FC41040015001E00002C01D1FF20E0
:104930003DE08DF800106068006801F0F2F86068F2
:1049400041686068006801F0A8F801276068C068E5
:1049500017FA00F06168896848616A460121606859
:10496000006801F0B6F8DFF84C8002224FF40041F5
:104970004046FEF780F92A00F6B231006068006810
:1049800001F0BBF810224FF400414046FEF773F9E6
:104990006068C06887406068806807616068006818
:1049A00001F089F86068006801F0C0F80020BDE8F7
:1049B000F6810000000C0140F8B5040015001E004F
:1049C000002C01D1FF2031E08DF8001060680068F4
:1049D00001F0A7F8606841686068006801F05DF860
:1049E00001276068C06817FA00F06168896848614B
:1049F0006A4601216068006801F06BF8002D06D05E
:104A00002A00B6B231006068006801F062F86068A0
:104A1000C06887406068806807616068006801F06E
:104A20004AF86068006801F081F80020F2BD32B5F4
:104A300004006068006801F074F8606841686068AC
:104A4000006801F02AF801256068C06815FA00F0D6
:104A50006168896848616A4601216068006801F000
:104A600038F86068C0688540606880680561606883
:104A7000006801F020F86068006801F057F8002035
:104A800032BD70B5040020212000FFF7D0FF14F1E3
:104A9000100500260EE001232A0056F0C001C9B21D
:104AA0002000FFF73DFF6D1C03E03000C0B2052879
:104AB000F1D1761C3000C0B21F28F6DB14F12F05AF
:104AC00020260FE001232A0056F0C001C9B22000C1
:104AD000FFF726FF6D1C04E03000C0B23638062810
:104AE000F0D2761C3000C0B2402808DA3000C0B2E4
:104AF0002128F6D03000C0B22728EDD1F1E72121DE
:104B00002000FFF794FF14F1470521260FE0012351
:104B10002A0056F0C001C9B22000FFF701FF6D1C4A
:104B200004E03000C0B227380528F0D2761C3000EF
:104B3000C0B23F2804DA3000C0B22528F1D1F5E731
:104B400020212000FFF773FF70BD000080B52020FA
:104B500080F31188FDF711F801BD80B5FDF712F85B
:104B6000002080F3118801BD80B5FFF7EFFF01BD84
:104B700080B5FFF7F2FF01BD80B5FEF75DFE01BD18
:104B800080B5FCF7D4FF00F02EF801F09FF801BDCE
:104B900080B51E48016851F00801016000681C489A
:104BA000016851F48021016048F69F40194908606E
:104BB0004FF6FF701849086000201849086000206F
:104BC000174908600020174908600020164908604E
:104BD000012016490860012015490860082132208B
:104BE00001F018FB01BD80B511490869CA6802F0DF
:104BF000FF021040C2430A61800705D5FFF7B4FFEA
:104C0000FFF7BAFFFFF7B4FF01BD00001C10024020
:104C1000042004E0280C00402C0C0040180C00403C
:104C2000340C00400C0C0040040C0040140C0040FC
:104C3000000C004030B4C3685B1CC3608368C91AB1
:104C4000891A8160D0E9044582680023A2186B416B
:104C5000C0E9042341688268914201D281684160C1
:104C600081680268914201D28168016030BC70475E
:104C700038B586B01C4D0020C5F89000684600F09D
:104C80000FF80424684600F019F8684600F01AF896
:104C9000641E002CF6D10098C5F8900007B030BD16
:104CA0005FF0FF310160002141600021816000213F
:104CB000C16000220023C0E9042370470B49096842
:104CC0008160704780B509490968074AD2F8902089
:104CD000FFF7B0FF01BD80B5044A12688A60002268
:104CE0008968FFF7A7FF01BD98220020041000E0AB
:104CF00030B400240DE01500ADB22D0A23009BB2A4
:104D0000C35C5D40084BEDB233F8153093EA0222E4
:104D1000641C23000D009BB2ADB2AB42EBD310007C
:104D200080B230BC70470000C075000880B52020FC
:104D300080F31188FCF717FF01BD80B5FCF718FF61
:104D4000002080F3118801BD10B54FF48062C0B21D
:104D50004FF400644A4B04FB003001F09FFA10BD91
:104D600038B504000D00FFF7E1FF4FF48062290021
:104D7000E4B24FF40063424803FB0404200001F056
:104D8000A3FAFFF7DAFF31BD80B592B2022392FB9E
:104D9000F3F200F1006010F5703001F07FFA7FF05F
:104DA000010002BD2DE9F84F13009BB213FA80F405
:104DB00003009BB24FF4006593FBF5F8E40A641C12
:104DC0001500070000264046C0B2002806D0BFB23A
:104DD0004246D2B24FF4006000FB127700912AE005
:104DE000AB4609E0380080B2D0F50060290089B2F6
:104DF0008842F5DAD7F5006B5A4692B20098310036
:104E000089B20144380080B2484400F097FD494619
:104E10004046C0B2FFF7A4FF1BEB06061BEB0707DB
:104E2000380080B290FBFAF70AFB1707B5EB0B0BC3
:104E30005D4618F1010840462100C0B2C9B288425F
:104E40001AD2DFF8409049464046C0B2FFF77CFFD7
:104E5000380080B24FF4006A90FBFAF10AFB1100AF
:104E60000028BFD1280080B240F60101884201DB52
:104E7000D346C1E7AB46BFE77FF00100BDE8F28F44
:104E800000C00308283E002062B38B0708D0521EE2
:104E900011F8013B00F8013B00F024808B07F6D1AC
:104EA000830740F0208000BF103A07D330B4B1E848
:104EB0003810103AA0E83810F9D230BC530724BF9C
:104EC000B1E80810A0E8081044BF51F8043B40F8CE
:104ED000043BD20724BF31F8022B20F8022B44BF39
:104EE0000B7803707047121F17D35B0009D151F87C
:104EF000043B20F8023B1B0C121F20F8023BF6D2A9
:104F00000BE051F8043B00F8013B1B0A20F8023B80
:104F10001B0C121F00F8013BF3D238BF121D521EAA
:104F200024BF11F8013B00F8013BF8D8704700009E
:104F30007047000080B5FCF7FAFD914800F036F9A3
:104F400000F0C4FE01BD80B5FCF7F1FD8D4800F016
:104F50002DF900F0BBFE01BD80B5FCF7E8FD8A48E5
:104F600000F024F900F0B2FE01BD10B5844C200021
:104F7000FDF7D0FB042020745FF08040A061814CDD
:104F80002000FDF7C7FB042020748048A0617E4C00
:104F90002000FDF7BFFB042020747D48A06110BDF8
:104FA00010B504002078012851D17548A04215D1D0
:104FB0007848016851F00101016000687648016895
:104FC00051F0010101600168490849000160006871
:104FD00007211C2001F01EF9704860616948A04259
:104FE00015D16C48016851F00201016000686A48FF
:104FF000016851F002010160016831F002010160B5
:10500000006807211D2001F005F9644860615E48D1
:10501000A04215D15F48016851F0040101600068A9
:105020005D48016851F004010160016831F004013C
:105030000160006807211E2001F0ECF8574860610C
:1050400046F66800A1698861A169C86111E0002085
:10505000A16908600020A16948630020A1698863F4
:105060000020A169C8630020A16908640020A1692B
:105070004862606961680968B0FBF1F0401EA1698F
:105080008862A068401EA169C8626068C06AA169A0
:10509000486000206168097B11F00F01012903D0ED
:1050A000022903D150F0020050F001006168097D2F
:1050B00011F00F01012903D0022903D150F0200083
:1050C00050F010006168097F11F00F01012903D031
:1050D000022903D150F4007050F48070616891F897
:1050E000241011F00F01012903D0022903D150F43B
:1050F000005050F48050A16908620120A169486104
:105100000020A16908616068006B000A0002A169C3
:10511000C8608520A169086010BD10B50400207822
:1051200002282CD10020A16908600020A169C86074
:105130000020A16908611248A04208D11C2001F09A
:1051400080F81448016849084900016000680D486A
:10515000A04208D11D2001F074F80E48016831F01A
:105160000201016000680848A04208D11E2001F039
:1051700068F80848016831F004010160006810BD5A
:10518000183C0020343C0020503C0020000400402B
:10519000000800401C1002401010024000A24A0407
:1051A0008069C9B200EB81004263704738B50400E2
:1051B000A0690569A069C06800F0FF000540E843E8
:1051C000A1690861A80707D560680069002803D0B5
:1051D0002000616809698847680707D560688069A9
:1051E000002803D02000616889698847280707D50F
:1051F0006068006A002803D020006168096A884757
:10520000E80607D56068806A002803D0200061683E
:10521000896A8847E80707D560688068002803D056
:10522000200061688968884731BD000000604060E7
:1052300070470100086802680A600A685160704798
:1052400001684268116041680268516070479B487C
:105250008169896800688068814201D2012000E08C
:105260000020C0B2704780B5202080F31188FCF781
:1052700084FC01BD80B5FCF785FC002080F311881B
:1052800001BDC068002801D0012000E00020C0B2AC
:1052900070478168491C8160704710B5874C2000B9
:1052A000FFF7C4FF0020A0602461646110BD0021ED
:1052B00080F82010814909688A6883689A42FAD286
:1052C00001604A684260426810604860704700218F
:1052D00080F820107949096882688B689A42FAD36D
:1052E00001604A684260426810604860704738B5A3
:1052F000724DAC6984F820002800FFF79AFFA8617E
:105300000120A96981F820002100A869FCF71CFC94
:10531000EFF309806438E169884202D26848FEF7F9
:1053200087FA2100A86901F065F831BD10B50400C5
:10533000FFF799FF94F82000002808D0032809D02F
:1053400004280ED0052809D007280AD00DE0FFF761
:1053500091FF12E00020616A086006E0606AFFF7D2
:1053600098FF2000FFF76CFFFFE75FF0FF306062FF
:105370002000FFF79CFFFFF77DFF10BD18B585B03B
:10538000040011F1010F12D04C4883694D4A684660
:10539000FCF72BFC2000C0B2FFF7A9FF6846FFF71F
:1053A00070FF002807D06846FCF77DFC03E0200072
:1053B000C0B2FFF79CFF41488069406A06B010BD4B
:1053C00070B504003D4EB06961628168A268914287
:1053D00003D32000FFF76BFF17E0FFF778FF05000E
:1053E000B461012084F8200029002000FCF7ACFB08
:1053F000EFF309806438E969884202D23048FEF749
:1054000017FA2900200000F0F5FF70BD80B5FFF706
:105410001EFF002801D000F00DF801BD27490868E3
:10542000806889698968814201D2012000E00020FA
:10543000C0B2704738B5214DAC692800FFF7F9FEBE
:10544000A8610120A96981F820002000FFF73FFF33
:1054500004002100A869FCF777FBEFF309806438AA
:10546000E169884202D21648FEF7E2F92100A869F4
:1054700000F0C0FF31BD38B5104DAC692800FFF712
:10548000D8FEA8610120A96981F820002000FFF75B
:105490001EFF04002100A869FCF756FBEFF309800A
:1054A0006438E169884202D20548FEF7C1F921005B
:1054B000A86900F09FFF31BD000000009822002085
:1054C000FC7A00082D53000880B525482549016065
:1054D00000214160002181600C3000F077FC01BDAB
:1054E00070B5B0F1080425682E1D6068C01DC008A5
:1054F000606015F10C0000F071FC00E03668281DBA
:10550000864201D0A642F9D23068002802D0306825
:105510008442F3D2306820603460606804EBC000DD
:1055200008302168884208D1606821684968491CB0
:1055300008186060206800682060706806EBC00092
:105540000830A04206D170686168491C0818706074
:105550002068306015F10C0000F084FC70BD000084
:10556000F8310020995B000880B5202080F3118875
:10557000FCF7F9FA01BD80B5FCF7FAFA002080F3D8
:10558000118801BD10B40024046041608260C360D2
:1055900010BC704702680A600160704738B50400AB
:1055A0000D00FFF7E1FF29002000FFF7F3FFFFF7F1
:1055B000E2FF31BD80B5202080F31188FCF7D3FADB
:1055C00001BD80B5FCF7D4FA002080F3118801BD3D
:1055D00080B5FFF7EFFF01BD80B5FFF7F2FF01BD1A
:1055E00080B500F039FF01BD01210170002141604B
:1055F000704738B504000D00FFF7EAFF6560200032
:1056000000F036FF02202070FFF7E6FF31BD38B50D
:1056100004000D00FFF7DCFF2900200000F003F874
:10562000FFF7DAFF31BD80B50422027000F080FF81
:1056300001BD000080B5202080F31188FCF793FAAB
:1056400001BD80B5FCF794FA002080F3118801BDFC
:105650000060704780B5FFF7EDFF01BD80B5FFF733
:10566000F0FF01BD80B5FFF7F3FF01BD80B5FEF788
:10567000FDF801BD80B55FF0FF33303001F033F944
:1056800002BD80B55FF0FF330C3001F098F802BD29
:1056900080B55FF0FF32C9B2303001F0D5F802BDFD
:1056A00080B55FF0FF310C3001F05EF802BD80B5CF
:1056B000C9B2303001F0C8F802BD80B50C3001F03D
:1056C00053F802BD80B5303001F00DF902BD80B550
:1056D0000C3001F074F802BD002902D0012901D17B
:1056E00000E0FFE70020704780B501F00FFA01BD30
:1056F0007CB504000D0016000C482060201DFFF74B
:10570000B1FF0120207200942B00802214F154017B
:1057100014F10C0000F0EDFF00943300802214F12E
:10572000D40114F1300001F078F873BD207A00083C
:1057300038B504000D00FFF78DFF2900200001F0AF
:10574000F0F902202072FFF789FF31BD38B504005F
:105750000D006069002803D10421201DFFF786FF9A
:105760002900C9B214F10C0000F0DBFF002804D5B9
:105770004FF48061201DFFF779FF31BD80B52020F7
:1057800080F31188FCF7EFF901BD6A488069704722
:1057900080B5FFF7FAFF90F82100C0B2800810F042
:1057A000010002BD80B50021FEF760F801BD80B5A3
:1057B000FDF711FC01BD30B402000020002404E01C
:1057C0002300DBB2D35C1818641C23000D00DBB28D
:1057D000EDB2AB42F4D3C0B230BC70472DE9F0411A
:1057E00004000D00160098460027B8F10301C9B265
:1057F000701CFFF7E0FF5FFA88F806EB080111F86C
:10580000021CC0B2C9B2884201D000201EE0069935
:1058100000E008346068002816D0707810F07F002F
:105820002278C0B28242F4D10800C0B2FF2804D06E
:105830000800B278C0B29042EBD1F278311D280056
:1058400063689847012001E03800C0B2BDE8F081EC
:105850002DE9F8430C001500066827005FF00008EA
:1058600000208DF800005FF0000907E0B8F5807FA8
:1058700004D15FF000095FF00008270001226946AB
:10588000300033689B689847002815D04846C0B25E
:10589000002814D09DF8000038707F1C18F1010812
:1058A000B8F1040FE2D3E078801D8045DED1A5F881
:1058B00000800020002000E00120BDE8F2839DF878
:1058C00000000228DAD15FF001095FF001089DF8BD
:1058D000000038707F1CD1E7F8B5ADF5027D0400FB
:1058E0002568A668277902E01420FFF760FFFFF71C
:1058F0004FFF002812D101AA02A92000FFF7A8FF3C
:105900000028F1D13800C0B20090BDF80430DBB2FD
:1059100002AA29003000FFF761FFE8E7FFF72EFF3A
:105920000548FFF73FFF0020FDF70BFB0DF5037D5A
:10593000F0BD0000982200209429002010B50446F4
:10594000FFF7A2FA204610BD3048016851F480717B
:105950000160704780B52E4801685FF0FF3101603B
:1059600002680022026000682A480268016001683B
:105970000021016000682848016851F080510160F1
:105980000168016851F0006101600068FFF7DCFF09
:1059900001F055F901F024FB01BD2048016851F0E8
:1059A0000101016001688907FCD5016801F0FF0170
:1059B00001601B4900220A600A6812F00C0FFBD13B
:1059C000026852F48032026002689203FCD50A68D1
:1059D00052F4E8120A60026852F0807202600268B3
:1059E0009201FCD50F4A0A6012220F4B1A600A6816
:1059F00052F002020A600A6812F00C02082AFAD178
:105A000001684908490001607047000000700040CB
:105A1000101002400C1002401C1002400010024006
:105A20000410024000441D000020024080B52020E8
:105A300080F31188FCF797F801BD80B5FCF798F862
:105A4000002080F3118801BD80B5FFF7EFFF01BD95
:105A500080B5FFF7F2FF01BD80B55FF0FF31FDF7C4
:105A6000D1FA02BD80B500F0B1F901BD80B500F0FA
:105A7000B5F901BD80B500F0F5F901BD80B501F0C3
:105A800057FB01BD80B5012101700021416000215B
:105A900081600C30FFF7E6FF01BD38B504000D0052
:105AA000FFF7D2FF6560200001F060FB022020704C
:105AB000FFF7CEFF31BD10B50400FFF7C5FF200092
:105AC00001F0D6FB0020606001202070FFF7C0FFCE
:105AD00010BD70B504000D001600FFF7B5FF0320E0
