:020000040800F2
:1000000000040020258700080329000803290008B0
:100010000329000803290008032900080329000810
:10002000032900080329000803290008CB2C000835
:1000300003290008032900080329000803290008F0
:1000400003290008032900080329000803290008E0
:100050000329000803290008C1600008EF600008B8
:100060001D6100084B610008796100088D370008A8
:100070009F370008B1370008C3370008D53700089C
:10008000E7370008F93700080329000803290008AA
:100090005B4300080329000803290008A761000842
:1000A00003290008ED62000803290008032900085D
:1000B000BD200008FF62000803290008032900088A
:1000C0000329000803290008032900080329000860
:1000D00003290008032900084369000803290008D0
:1000E0001D620008032900080329000803290008ED
:1000F0000329000803290008032900080329000830
:10010000032900080329000803290008032900081F
:10011000032900080329000803290008032900080F
:100120000B3800081D3800082F3800084138000837
:1001300003290008032900080329000803290008EF
:1001400003290008032900080329000803290008DF
:1001500003290008032900080329000803290008CF
:1001600003290008032900080329000803290008BF
:1001700003290008032900080329000803290008AF
:10018000081A80B2704780B500F066FD02BD80B5E8
:10019000FFF7F9FF02BD10B50400FFF7F8FF0100FB
:1001A00089B2200080B2FFF7EBFF10BDDFF8F8093D
:1001B0008069704780B5FFF7F9FF90F82100C0B261
:1001C000800810F0010002BD38B59424DFF8DC5936
:1001D000220092B22900002000F070FD2878CC287F
:1001E0003BD0CC202870012068800120A88004200A
:1001F000A8713220E8715A202881022085F84C002D
:10020000DFF8AC092865052085F84D004FF4404023
:10021000A5F890000020E8814FF49660A8811E2088
:1002200068824FF4C8602882AA20E88240F628201D
:10023000A882C820688340F6B8302883DFF87409A4
:1002400068634FF4FA70688740F2DC502887220018
:1002500092B22900002000F03FFD31BD80B594220C
:10026000DFF84819002000F037FD01BD30B402006E
:100270000020002403E013781818521C641C23008B
:100280000D00DBB2EDB2AB42F5D3C0B230BC70476B
:1002900038B500208DF80000DFF81049A07810F084
:1002A0003F008DF80000DFF8105901236A46522103
:1002B000280000F0D1FD01236A46D221280000F079
:1002C0007FFD608880B2000A8DF8000001236A4635
:1002D0005321280000F0C0FD01236A46D3212800E5
:1002E00000F06EFD31BD2DE9F04391B0DFF8CC4850
:1002F000651CDFF8C468370000208DF800005FF04F
:100300000209002000200B202070DFF8A088B8F838
:100310000200A880B8F80400E88024E0DFF8A00814
:10032000818B2980C08B688009212800FFF79EFF00
:1003300068720921380000F0CAFD00208DF8000025
:1003400001236A464921380000F086FD23789BB2DC
:1003500022001121380000F07FFD0E21380000F04E
:10036000B6FD19F1010932215FF0FF3000F0DEFE29
:10037000C10702D501215FF00009800704D594224E
:100380004146002000F0A8FC4846C0B20028C5D075
:10039000022806D002D303281BD043E05FF00009F7
:1003A000E1E78921380000F092FD04208DF800007B
:1003B00001236A465021380000F04EFD8E2138009E
:1003C00000F085FD0221380000F0DDFE19F1010981
:1003D000C9E7300001F071FA8DF800009DF80000C7
:1003E00010F0120F1BD0632001236A46D021300089
:1003F00000F0E6FC9DF8000000280FD09DF80030CA
:1004000001AA9121300000F0DBFC01A8002100E0EE
:10041000491C0A000378D2B29A42F9D363205FF0F4
:100420000009A0E7300000F07CFD0C21300000F056
:100430004EFD5FF0020996E72DE9F84384B0DFF83E
:100440007847DFF86887B8F89000ADF8040000201E
:10045000ADF80600B8F80200ADF80800B8F80400DE
:10046000ADF80A00092101A8FFF700FF8DF80D0083
:100470000A220025DFF84467501C3070D2B201A96F
:10048000701C01F09EFA0027FFF781FE814645E0CF
:100490006D1C0921200000F01AFD00208DF80000DD
:1004A00001236A464921200000F0D6FC33789BB234
:1004B00032001121200000F0CFFC0E21200000F0BE
:1004C00006FD98F807204FF4FA6340F2E730002168
:1004D000E3FB02014FF47A72002301F095FA01F078
:1004E00006FDFFF767FE002800D00127FFF74FFE4B
:1004F000484680B2FFF74FFE02004FF47A7340F295
:10050000CF700021E3FB02014FF4FA62002301F0F7
:100510007BFA43F69921884200D301273800C0B204
:100520000028B5D00D21200000F0D1FC0A212000C8
:1005300000F0CDFC8021DFF88806406800F0B5FDB2
:10054000002001F082FC05B0BDE8F0832DE9F84100
:1005500091B0DFF86446A0460126DFF8645600201B
:1005600068820020A876FFF712FE0700002027E02F
:1005700010E0A88A401CA882DFF830060089A98A0A
:10058000884207D2002068820020A8830020A87536
:100590000120A87600215FF0FF3000F0C7FDDFF8F2
:1005A0000C06C2794FF4FA6340F2E7300021E3FB16
:1005B00002014FF47A72002301F026FA01F097FC51
:1005C0003000C0B2002800F08580FFF7F3FD00285E
:1005D00000D00026A87D002803D00228C9D017D358
:1005E000C6E70C21200000F072FC8921404600F093
:1005F0006EFC8E21404600F06AFC0221404600F06D
:10060000C2FDA87D401CA875FFF7C1FD0700C1E72A
:10061000200001F052F98DF800009DF8000010F064
:10062000120F36D0200001F0AFF8287401236A467B
:10063000D021200000F0C4FB9DF80000002822D04B
:100640009DF8003001AA9121200000F0B9FB01A81B
:100650000178491E017001780A2914D1471C09212B
:100660003800FFF703FE797AC0B288420BD1388890
:1006700068823888A8830020A8820020288304216B
:10068000686800F012FDFFF782FD07000020A875E2
:100690001FE0380080B2FFF77EFD02004FF47A734E
:1006A00040F2CF700021E3FB02014FF4FA62002315
:1006B00001F0AAF980B240F2E931884209DB00205A
:1006C00068820020A8830421686800F0EEFC002006
:1006D000A8755FE7002001F0B8FB12B0BDE8F0811B
:1006E0002DE9FC47DFF8D084DFF8D09419F1010040
:1006F0000190DFF8B8A4BAF89000019908800020B2
:1007000001994880BAF8020001998880BAF804007B
:100710000199C880092101A8FFF7A8FD0199487235
:100720000A200021401C89F800000024FFF72FFD5B
:100730000500002669E0FFF72AFD05001FE00921FA
:10074000404600F0C4FB00208DF80000DFF8707414
:10075000B88B0028EFD1FFF71AFD280080B2FFF711
:100760001AFD02004FF47A7340F2CF700021E3FBD0
:1007700002014FF4FA62002301F046F9060030004E
:1007800080B240F2D171884204DB97F82100002842
:1007900000D10124B88B01990880F88B0199488019
:1007A00009210198FFF762FD0199487220217868BC
:1007B00000F07BFC01236A464921404600F04CFBD7
:1007C00099F800309BB24A461121404600F044FBA4
:1007D0000E21404600F07BFB9AF807204FF4FA63A5
:1007E00040F2E7300021E3FB02014FF47A7200236C
:1007F00001F00AF901F07BFBFFF7DCFC002804D0D4
:1008000097F82100002800D101242000C0B2002860
:1008100095D00D21404600F05AFB0A21404600F0D9
:1008200056FB8021DFF89803406800F03EFC002072
:1008300001F00BFBBDE8F3872DE9F04391B0DFF841
:100840007843A0460125DFF87863002070820020FD
:10085000B076002086F82000DFF850730220F8718F
:100860001CE00CE0B08A401CB0823889B18A884212
:1008700005D2002070820020B0750120B076FA7990
:100880004FF4FA6340F2E7300021E3FB02014FF43A
:100890007A72002301F0B8F801F029FB2800C0B2F9
:1008A000002800F09780FFF785FC002800D0002585
:1008B000B07D002803D00228D4D016D3D1E70C2174
:1008C000200000F004FB8921404600F000FB8E214F
:1008D000404600F0FCFA0221404600F054FCB07D96
:1008E000401CB07500203083C9E7200000F0E5FF10
:1008F0008DF800009DF8000010F0120F4AD0200083
:1009000000F042FF307401236A46D021200000F03D
:1009100057FA9DF80000002839D09DF8003001AA50
:100920009121200000F04CFA8921404600F0CFFAD6
:100930008E21404600F0CBFA01A80178491E0170D3
:1009400001780A2923D110F1010909214846FFF74E
:100950008DFC99F80910C0B2884214D1B9F8000092
:100960007082B9F80000B083B9F80200F08300206B
:10097000B082002030830421706800F096FB0020D4
:1009800086F8200003E00821706800F08EFB00204C
:10099000B0751EE0308BB0F57A7F03DA308BF979D1
:1009A00040183083308BB0F57A7F12DB96F8200048
:1009B00000280ED11021706800F077FB00207082B3
:1009C0000020B0830020F083012086F82000002062
:1009D000B07554E7002001F038FA11B0BDE8F0839B
:1009E0007249888070477148808870476F48408896
:1009F000704780B56D494880FFF74AFC01BD10B5CE
:100A0000040000206C480472017A00F022FE67485E
:100A100080F84D4010BD654890F84D00704710B506
:100A20002DED028BB0EE408A634C84ED038AE068C2
:100A300001F0B8FA02000B00200000F06BFD5B48EB
:100A400080ED148ABDEC028B10BD584890ED140A5D
:100A5000704710B5040058484472417A00F00EFE09
:100A6000524880F84C4010BD504890F84C007047F8
:100A70004E49887170474D488079704780B5022192
:100A80004F48406800F011FB01BD00204C4981F83F
:100A900021007047454A82ED0D0A50871187704743
:100AA00010B4424B5C6B0460588F0880188F108024
:100AB00010BC704738B5FFF787FB3F48042101722F
:100AC00001214172394C216DC160A1884181017AB7
:100AD000052901DB042101723A4900F021FF384D5C
:100AE000002085F821002820E071FFF7D1FB0220CB
:100AF000A0716420E071344801F0AEFA6860A0791A
:100B0000012806D031D3032819D00DD3042821D0D1
:100B10002BE0002000902D4B80224FF4AE612C483A
:100B200001F033F928602AE000200090294B802250
:100B30004FF4AE61284801F028F928601FE000203A
:100B40000090264B80224FF4AE61254801F01DF93C
:100B5000286014E000200090224B80224FF4AE6108
:100B6000214801F012F9286009E0002000901F4B95
:100B7000802241F270111E4801F007F92860002020
:100B800032BD0F48808B70470D49888370470C49F0
:100B9000C88370470A48C08B704704488079704703
:100BA0001448704700000000E8060020B44A002006
:100BB00000C06444E4380E41544A00206C4B0020CD
:100BC000484B002030060020FC8E00083904000845
:100BD000A81A00204D05000818200020E106000892
:100BE0008825002039080008F82A0020E7020008BC
:100BF00038090020C04A00200A48006880B27047C7
:100C000080B20949086000200849086002200849AC
:100C100008607047002006490860704780B20249AA
:100C2000086070472400004034000040100000407D
:100C30000C00004080B501F049FA01BD80B580B2DA
:100C4000FFF7DEFF01BD80B5FFF7E4FF01BD80B512
:100C500080B2FFF7E3FF01BD80B5FFF7CDFF02BD16
:100C600080B5202080F3118801F0AFFA01BD80B576
:100C700001F0B0FA002080F3118801BD10B54FF4E7
:100C80008062C0B24FF400644C4B04FB003001F0B2
:100C9000CFFA10BD38B504000D00FFF7E1FF4FF4A7
:100CA00080622900E4B24FF40063444803FB04046B
:100CB000200001F0D3FAFFF7DAFF31BD80B592B220
:100CC000022392FBF3F200F1006010F5E04001F026
:100CD000AFFA7FF0010002BD2DE9F84FADF5006DD0
:100CE00013009BB213FA80F403009BB24FF400652B
:100CF00093FBF5F8E40A641C150007000026404643
:100D0000C0B2002806D0BFB24246D2B24FF4006053
:100D100000FB127789462BE0AB4609E0380080B231
:100D2000D0F50060290089B28842F5DAD7F5006B6A
:100D30005A4692B2300080B209EB000168463B008F
:100D40009BB2184400F03DFE69464046C0B2FFF732
:100D5000A1FF1BEB06061BEB0707380080B290FBD8
:100D6000FAF70AFB1707B5EB0B0B5D4618F1010804
:100D700040462100C0B2C9B2884218D269464046F6
:100D8000C0B2FFF77BFF380080B24FF4006A90FBDF
:100D9000FAF10AFB11000028C0D1280080B240F609
:100DA0000101884201DBD346C2E7AB46C0E77FF0D2
:100DB00001000DF5006D01B0BDE8F08F0070000876
:100DC0002DE9FC41040015001E00002C01D1FF207C
:100DD0003DE08DF800106068006801F04FFB60682E
:100DE00041686068006801F005FB01276068C06821
:100DF00017FA00F06168896848616A4601216068F5
:100E0000006801F013FBDFF84C8002224FF4004130
:100E1000404601F07EFB2A00F6B2310060680068AF
:100E200001F018FB10224FF40041404601F071FB25
:100E30006068C068874060688068076160680068B3
:100E400001F0E6FA6068006801F01DFB0020BDE8D3
:100E5000F6810000000C0140F8B5040015001E00EA
:100E6000002C01D1FF2031E08DF80010606800688F
:100E700001F004FB606841686068006801F0BAFA3C
:100E800001276068C06817FA00F0616889684861E6
:100E90006A4601216068006801F0C8FA002D06D09A
:100EA0002A00B6B231006068006801F0BFFA6068DD
:100EB000C06887406068806807616068006801F00A
:100EC000A7FA6068006801F0DEFA0020F2BD32B5D2
:100ED00004006068006801F0D1FA606841686068E9
:100EE000006801F087FA01256068C06815FA00F013
:100EF0006168896848616A4601216068006801F09C
:100F000095FA6068C06885406068806805616068BF
:100F1000006801F07DFA6068006801F0B4FA002012
:100F200032BD70B5040020212000FFF7D0FF14F17E
:100F3000100500260EE001232A0056F0C001C9B2B8
:100F40002000FFF73DFF6D1C03E03000C0B2052814
:100F5000F1D1761C3000C0B21F28F6DB14F12E054B
:100F600020260FE001232A0056F0C001C9B220005C
:100F7000FFF726FF6D1C04E03000C0B236380628AB
:100F8000F0D2761C3000C0B2402808DA3000C0B27F
:100F90002128F6D03000C0B22728EDD1F1E7212179
:100FA0002000FFF794FF14F1460521260FE00123EE
:100FB0002A0056F0C001C9B22000FFF701FF6D1CE6
:100FC00004E03000C0B227380528F0D2761C30008B
:100FD000C0B23F2804DA3000C0B22528F1D1F5E7CD
:100FE00020212000FFF773FF70BDF0B402461068A7
:100FF00095681318506803EB5004C0071DD54D4485
:101000001BE013F8017B05F8017B491EF9D1A0B163
:10101000B60813F8011B06F00306032E08BF13F8E9
:10102000016B01EB06214942801C294405D011F8CF
:10103000016B05F8016B401EF9D1A3420ED013F8E5
:10104000016B16F0030104BF13F8011BC91C300922
:101050000F28DAD113F8010B0F30D6E7F0BC02F1FC
:101060000C00704780B5202080F3118801F0ADF8A6
:1010700001BD80B501F0AEF8002080F3118801BDFC
:1010800070B505000C002E680CE0F0682043F0609D
:10109000002C02D03069044203D0B168706800F0BF
:1010A00012F83668AE42F0D170BD38B504000D00BC
:1010B000FFF7D8FF2900200000F005F801F06EFBD3
:1010C000FFF7D7FF31BD80B5426B1143416390F804
:1010D00020100A2903D1416B426A114209D190F8CC
:1010E00020100B2909D1426B416A0A40416A8A42A9
:1010F00003D10021416201F0A2FA01BD70B50500E3
:101100001D488669FFF7AEFF746B2C40002C06D19A
:1011100075620A2001F0B3FA706B05402C00706B09
:10112000A0437063FFF7A5FF200070BDF8B506006F
:101130000D0011488769FFF795FF7C6B3440002C48
:1011400013D1002D03D1FFF794FF002013E07E623E
:1011500029000A2001F0DAFA002803D5FFF789FFF9
:10116000002008E0786B06403400786BA043786379
:10117000FFF77FFF2000F2BDE806002080B50C21BC
:10118000FFF7A5FE01BD1CB504008DF8001020215D
:101190002000FFF79CFE01236A4643212000FFF751
:1011A0005BFE13BD1CB5040020212000FFF78FFE5D
:1011B000022000F09CFE01236A46C1212000FFF7B7
:1011C000FFFD9DF800008006F2D513BD7CB504003C
:1011D0000D0020212000FFF77AFE01236A46C0217E
:1011E0002000FFF7EDFDEDB2012D06D19DF80000C6
:1011F00050F040008DF8000005E09DF8000010F070
:10120000BF008DF8000001236A4640212000FFF74F
:1012100023FE22212000FFF75AFE8F208DF80000C8
:1012200001236A4661212000FFF716FE04262121D2
:101230002000FFF74CFE002512E0DFF8B406012382
:101240002900C9B200EB41014A1C2900C9B210F8BB
:10125000111051F04001C9B22000FFF7FDFD6D1CD7
:1012600028003100C0B2C9B28842E6D32021200054
:10127000FFF72DFE73BD1CB5040003208DF80000A0
:1012800020212000FFF723FE01236A467D21200054
:10129000FFF7E2FD18208DF8000001236A467C214B
:1012A0002000FFF7D9FD13BD38B504001500481E16
:1012B0008DF8000020212000FFF709FE01236A4677
:1012C0004B212000FFF7C8FD01236A46CC212000F6
:1012D000FFF776FD9DF8000010F0FC008DF800008F
:1012E0009DF80010DFF80C06EDB2405D41188DF856
:1012F000001001236A464C212000FFF7ADFD31BDEF
:1013000038B504000D0020212000FFF7E0FD012387
:101310006A46CC212000FFF753FD9DF8000010F035
:10132000F3008DF800009DF80010DFF8CC05EDB259
:10133000405D01438DF8001001236A464C212000D6
:10134000FFF78AFD002008E0411CC9B24900DFF820
:10135000AC250300DBB2D154401C0100C9B20829FE
:10136000F2DB0823DFF8942510212000FFF774FD3D
:1013700031BD2DE9FC4105000F0016009846089C80
:1013800020212800FFF7A3FD01236A46CD21280074
:10139000FFF716FD9DF8000010F0F0008DF800003A
:1013A0009DF80000B60056EAC70656EA48062643EE
:1013B00006438DF8006001236A464D212800FFF79F
:1013C0004BFD01236A46CD212800FFF7F9FCA87ADE
:1013D00010F03F008DF8000001236A4652212800DA
:1013E000FFF73AFD01236A46D2212800FFF7E8FC07
:1013F000688980B2000A8DF8000001236A465321F3
:101400002800FFF729FD01236A46D3212800FFF7B2
:10141000D7FCBDE8F38138B504000D002021200081
:10142000FFF755FD01236A46CD212000FFF7C8FCD8
:101430009DF8000010F07F008DF800009DF800007E
:1014400050EAC5108DF8000001236A464D212000A6
:10145000FFF702FD31BD38B504000D00202120004A
:10146000FFF735FD01236A46CD212000FFF7A8FCD8
:101470009DF8000010F0BF008DF800009DF80000FE
:1014800050EA85108DF8000001236A464D212000A6
:10149000FFF7E2FC31BD7CB504000D0016002021F1
:1014A0002000FFF714FD01236A46CD212000FFF73D
:1014B00087FC9DF8000010F0CF008DF800009DF82B
:1014C0000000360156EA451606438DF800600123F8
:1014D0006A464D212000FFF7BFFC73BD7CB50400B8
:1014E0000D00160020212000FFF7F1FC01236A46C1
:1014F000CE212000FFF764FC9DF8000056EAC516D7
:1015000006438DF8006001236A464E212000FFF754
:10151000A3FC73BD38B52DED028B82B00400DFED66
:10152000940AB4EE600AF1EE10FA0BD500208DF8A3
:101530000000DFED900A20EE200AF1EE000A20EE16
:10154000208A28E0DFED8C0AB4EE600AF1EE10FA92
:101550000BDB60208DF80000DFED860A20EE200A0C
:10156000F7EE000A20EE208A15E0DFED820A60EE39
:10157000200AB0EE001A20EE818ADFED800AB4EE78
:10158000600AF1EE10FA03DB40208DF8000002E063
:1015900020208DF8000020212000FFF798FC012377
:1015A0000DF10102E0212000FFF70AFC9DF8010087
:1015B00010F09F008DF801009DF800109DF80100CB
:1015C00001438DF8001001236A4660212000FFF7D7
:1015D00043FC9FED6B0A88EE000AFDEEC00A10EE98
:1015E000900A8DF800009DF8000000EE900AF8EED9
:1015F000600A30EE600ADFED630A20EE200ABCEEDE
:10160000C00A10EE105A01236A4662212000FFF73B
:1016100023FC28008DF8000001236A466321200086
:10162000FFF71AFC2800000A8DF8000001236A4623
:1016300064212000FFF710FC2D0C8DF800500123D1
:101640006A4665212000FFF707FC02B0BDEC028B63
:1016500031BD38B504000D0020212000FFF737FC14
:10166000DFF89C02EDB22844007D8DF800000123D4
:101670006A467F212000FFF7EFFB31BDF8B504007B
:101680000D0022212000FFF722FC2800C0B205280F
:1016900003DA44208DF8000002E054208DF80000A9
:1016A00001236A466F212000FFF7D6FB202120008E
:1016B000FFF70DFC0323DFF84C022900C9B200EB51
:1016C000C10254212000FFF7C7FB0823DFF83802CE
:1016D0002900C9B200EBC10257212000FFF7BCFB73
:1016E00021212000FFF7F3FBDFF8206230001427F0
:1016F0002900C9B27943405A8DF8000001236A4697
:101700006C212000FFF7A8FB1223EDB27D4306EB0E
:101710000500821C6D212000FFF79EFB2021200088
:10172000FFF7D5FBF1BD38B5040022212000FFF7FB
:10173000CEFB002512E0DFF8D80101232900C9B251
:1017400000EB41014A1C2900C9B210F8111051F0F8
:101750004001C9B22000FFF77FFB6D1C2800C0B21A
:101760000328E8DB20212000FFF7B1FB31BD00009A
:101770000000C84300247449000048440100E143CC
:101780000024744B0000804980B501236A46EA2199
:10179000FFF716FB9DF8000002BD7CB50400402257
:1017A0005C4D29005C4E300001F056F840225B4E43
:1017B0002900300001F050F82000FFF7B4FF2000AE
:1017C000FFF759FD01212000FFF700FD032204214E
:1017D0002000FFF769FD112200212000FFF790FD96
:1017E000012000900123012201212000FFF7C1FD0B
:1017F00000212000FFF70FFE00212000FFF72BFE45
:10180000012201212000FFF746FE362200212000A0
:10181000FFF764FE94ED030A2000FFF77BFE217AB8
:101820002000FFF716FF617A2000FFF727FF200056
:10183000FFF7B8FC73BD1CB5040001236A46E02124
:101840002000FFF7BDFA9DF8000050F008008DF869
:10185000000001236A4660212000FFF7FDFA012302
:101860006A46E0212000FFF7ABFA9DF80000000770
:10187000F5D413BD1CB5040001236A46FE212000E7
:10188000FFF79EFA9DF8000050F080008DF80000F0
:1018900001236A467E212000FFF7DEFA01236A4613
:1018A000FE212000FFF78CFA9DF800000006F5D419
:1018B00013BD80B5FFF762FC01BD38B504000123FC
:1018C0006A46C4212000FFF77BFA9DF800502800EB
:1018D000C0B2002808D000208DF8000001236A461D
:1018E00044212000FFF7B8FA2800C0B232BD000042
:1018F000F48E0008DC040020E0040020C84600202C
:10190000C00400202C050020640500209C05002058
:1019100024050020E4040020D446002014470020C1
:101920001CB5040061602000FFF728FC082120009E
:10193000FFF7CDFA2000FFF7F4FA20212000FFF78F
:10194000C6FA04208DF8000001236A4648212000D1
:10195000FFF782FA01236A46C1212000FFF730FA1F
:101960009DF8000050F001008DF8000001236A4648
:1019700041212000FFF770FA9DF8000010F0FE00F2
:101980008DF8000001236A4641212000FFF764FA28
:101990002000FFF702FF2000FFF74DFF2000FFF7B8
:1019A00069FF2000FFF785FF60898DF800000123A3
:1019B0006A4648212000FFF74FFA2000FFF7B1FAEE
:1019C00013BD10B5044600F047FF204610BD30B4EB
:1019D000002513E050F8042BD30744BFA9F10103FD
:1019E0009A18091F042942F8045BFAD213468C079F
:1019F00044BF15809B1CC90748BF1D7050F8041BCD
:101A00000029E7D130BC7047BBBBE1B1B2F5803FE4
:101A100080F07E80022A1ED98C46B1FBF2F102FBD7
:101A200011C31B0443EA1043B3FBF2FC02FB1C335B
:101A300080B240EA0343B3FBF2F002FB103240EA0B
:101A40000C4000237047022A05D98446B0FBF2F00F
:101A500002FB10C270474AB105D100F001024908EB
:101A60005FEA3000704700220023704700F048BF53
:101A70000B000200002100207047904271EB030C24
:101A8000F6D3B3F5803F2FD2F0B5B3FA83F7B1FAAE
:101A900081F4A7F10F0E3D1B5340CEF1200602FA50
:101AA0000EF2F3415340B5F10F0746D80F3C2C44DA
:101AB0004140C4F12006A040F1414140B1FBF3F6A2
:101AC00003FB1611A2FB0645001BA94102D2761E9C
:101AD0008018594180EA010221FA0EF362FA0EF2EF
:101AE00000215A403046F0BD30B4B1FBF3FC03FB9B
:101AF0001C11A2FB0C45001BA94103D2ACF1010C47
:101B00008018594130BC02460B46604600217047A0
:101B1000B2F1807F65D3F0B5B2FA82F7B1FA81F401
:101B2000C7F10F063D1B22FA06F307F1110EF24131
:101B300020355A40B5F10F07B8D94140C4F120060D
:101B4000A040F1414140B1FBF3FC03FB1C11A2FB9F
:101B50000C45001BA94103D2BCF1010C801859416E
:101B60000F2F12D30F3FC90341EA5041B1FBF3F6E7
:101B700003FB1611A2FB0645D4EBC030A94102D2EB
:101B8000761E8018594146EACC3C07B34140C7F164
:101B90002006B840F1414140B1FBF3F603FB1611BA
:101BA000A2FB0645001BA94102D2761E80185941AE
:101BB00080EA010221FA0EF3C7F1200462FA0EF264
:101BC0000CFA07F05A402CFA04F13043F0BD80EAD9
:101BD000010221FA0EF3002162FA0EF260465A4029
:101BE000F0BD8C46B1FBF2F102FB11C31B0243EACC
:101BF0001063B3FBF2FC02FB1C331B024CEA002017
:101C000043EA1063B3FBF2FC02FB1C331B024CEAF9
:101C1000002043EA1063B3FBF2FC02FB1C331B02FF
:101C20004CEA002043EA1063B3FBF2FC02FB1C32D7
:101C30004CEA002000237047006070470168814231
:101C400001D0012000E00020C0B270470060406079
:101C500070470168814201D0012000E00020C0B23D
:101C600070470A68026008607047010008680268EF
:101C70000A60704701604A684260426810604860CC
:101C800070470100086802680A600A68516070477E
:101C900080B5202080F3118800F097FA01BD80B54F
:101CA00000F098FA002080F3118801BDDFF8B0023F
:101CB00080697047C069704780B50100082000F056
:101CC00025FD01BD10B50C00FFF7DBFF446200F0FD
:101CD000B6FC10BD10B50400A260022084F82000FC
:101CE000002084F82100E2630020A06300206063EC
:101CF000012084F82200A161DFF8640220614169BB
:101D0000616161690C61446114F12800FFF794FF7F
:101D100014F12C00FFF79AFF14F1480000F028FEA0
:101D2000200010BD01E00270401C8842FBD37047C8
:101D300080B58168B1F160034168D961B3F1640194
:101D4000D9600169DA6811644169DA6851648549CA
:101D5000DA681166C26801681800FFF7BBFF02BDB0
:101D600010B504005522A1686068FFF7DBFFFFF79C
:101D70008FFF2000FFF7DCFF04000021200000F0AF
:101D8000E7FCFFF78CFF200010BD2DE9F0410700B4
:101D9000884614001E00069D552207EB08013800F6
:101DA000FFF7C0FFFFF774FF07EB08006038C7615B
:101DB000B0F16401C160C1680E64C1684D646949D5
:101DC000C268116622006849FFF784FF0400002101
:101DD000200000F0BDFCFFF762FF2000BDE8F081AD
:101DE00010B50400FFF754FF94F82200401E84F859
:101DF000220094F82200002824D194F820000F2813
:101E000020D1206961690861606921694861FFF733
:101E100046FF94F8210010F00300C0B2012802D060
:101E2000022806D00DE02000FFF744FF00F0D4FDAB
:101E300007E02000FFF73EFF0100206C00F052FE9B
:101E4000FFE701E0FFF72BFF10BD10B50400FFF71F
:101E50001FFF200000F001F810BD10B540498C694B
:101E6000606205E014F12800FFF7FFFE00F0E7FBD9
:101E700014F12800FFF7E2FE0028F3D194F82200C5
:101E800000280AD194F8210010F0030F05D1206931
:101E9000616908616069216948610F2000F0EFFB0A
:101EA00010BD38B50400FFF7F3FE94F820000F28AA
:101EB00008D014F128012A488069FFF7D2FE0920D2
:101EC00000F0DDFB656AFFF7EAFE2000FFF788FF00
:101ED000280032BD10B50400FFF7DAFE94F82100A7
:101EE00050F0040084F82100FFF7D9FE10BD10B5B2
:101EF0000400FFF7CDFE2000FFF7DEFEFFF7CFFE68
:101F000010BD38B505000C00FFF7D0FE002C02D143
:101F10005FF0FF3005E0286045622100032000F0FB
:101F2000F5FB32BD80B50268002A06D002680023A6
:101F300003605162100000F082FB01BD10B50C007F
:101F4000002C02D15FF0FF3008E0010004488069F6
:101F5000FFF790FE2100042000F0D8FB10BD000028
:101F6000E8060020B9340008EC8E000838B50400FB
:101F70000D002000FFF76DFE002803D0290020008F
:101F8000FFF7A0FE31BD38B504000D0003E02900C5
:101F90002000FFF797FE2000FFF75BFE0028F6D138
:101FA00031BDFFFFC0F3C75181B1FF2906D0C11079
:101FB000400721F0E04101F16051704741020CBF40
:101FC00040F4E0016FF000410020704700F0004154
:101FD00000020AD0B0FA80FC00FA0CF001F1605166
:101FE000A1EB0C5101EBD0214005704780B52020BA
:101FF00080F3118800F0E9F801BD80B500F0EAF83F
:10200000002080F3118801BD8069704710B5FFF78B
:10201000EDFF1048046994F82200401C84F8220067
:10202000FFF7EBFF200010BD38B50400FFF7DEFF1F
:1020300025690848854201D1002504E095F8220071
:10204000401C85F82200FFF7D8FF2000FFF7C8FEEC
:10205000280032BDE806002038B50500FFF7D6FF9E
:1020600004002000FFF7D0FF290000F047FD002802
:1020700007D02000FFF7D8FF0400002CF1D100208A
:1020800032BD2000FCE7000080B5202080F31188DD
:1020900000F0A5F801BD80B500F0A6F8002080F39F
:1020A000118801BD80B5FFF7EFFF01BD80B5FFF7D7
:1020B000F2FF01BD80B500F0DDFD01BD80B500F08F
:1020C00068F800F041F800F02BFE01BD80B515481E
:1020D000016851F00101016000681348016851F482
:1020E0000061016048F69F40104908604FF6FF709C
:1020F0000F49086000200F49086000200E49086061
:1021000000200E49086000200D49086001200D499B
:10211000086001205FF08041086008211C2000F069
:1021200039FE01BD1C100240042004E028000040DC
:102130002C00004018000040340000400C0000401B
:10214000040000401400004080B55FF08041086941
:10215000CA6802F0FF021040C2430A61800705D539
:10216000FFF7A0FFFFF7A6FFFFF7A0FF01BD0000EC
:1021700010B5204C0020C4F898000020C4F89C0042
:1021800014F1A00000F0F4FB14F1B80000F0F0FB33
:1021900010BD202080F311881648D0F89810491CF3
:1021A000C0F89810002080F31188704780B50A00AD
:1021B0001049D1F89C305B1CC1F89C3010F14801EB
:1021C00012F1480000F0EFFB01BD80B50A4800F0B5
:1021D000DDFB01BD80B5084800F0DCFB01BD80B52A
:1021E000064800F0D3FB01BD80B5044800F0D2FBE7
:1021F00001BD0000E806002088070020A00700209D
:1022000000887047F8B504000D001600002708E0AC
:10221000380080B235F81010200000F049FEA41CF0
:102220007F1C3800310080B289B28842F0D3F1BD02
:10223000F8B504000D001600002708E02000FFF7A5
:10224000DFFF390089B225F81100A41C7F1C38007B
:10225000310080B289B28842F0D3F1BD2DE9F84354
:10226000ADF5006D04000D001700B4F10060B0F58D
:10227000802F04D30DF5006D01B0BDE8F08300F0B0
:10228000B5FD14F178400600F60AC0F34908D8F508
:1022900080694846390080B289B2884203D3B94682
:1022A00001E04FF480694FF4806269464FF40060AA
:1022B00000FB06F010F10060FFF7BAFF002000E01D
:1022C000401C01004A4689B292B291420AD2694644
:1022D000020092B212FA88F231F812104FF6FF7231
:1022E0009142EDD0494680B289B2884227D24FF45C
:1022F000006000FB06F010F1006000F087FD002098
:102300000BE06946424692B212FA80F203009BB299
:1023100035F8133021F81230401C01004A4689B2CA
:1023200092B29142EDD34FF4806269464FF400605F
:1023300000FB06F010F10060FFF764FF05E04A467D
:1023400092B229002000FFF75DFF3800494680B2B5
:1023500089B2884202D100F052FD8BE7761C5FF013
:102360000008484680B205EB4005484680B214EBB1
:102370004004B7EB0907380080B240F201418842BF
:102380008FDAB9468FE780B5202080F31188FFF7F8
:102390001CFF01BD80B5FFF71DFF002080F31188F1
:1023A00001BD80B5FFF7EFFF01BD80B5FFF7F2FF7C
:1023B00001BD80B55FF0FF31FFF7A3FD02BD80B521
:1023C00000F062FE01BD80B500F066FE01BD80B583
:1023D00000F0A6FE01BD80B500F05DFF01BD80B537
:1023E0000121017000214160002181600C30FFF764
:1023F000E6FF01BD38B504000D00FFF7D2FF6560B0
:10240000200000F05AFF02202070FFF7CEFF31BD00
:1024100010B50400FFF7C5FF200000F0B9FF002051
:10242000606001202070FFF7C0FF10BD70B5040090
:102430000D001600FFF7B5FF0320207032002900C1
:10244000200000F0CAFF14F10800FFF7B2FFFFF709
:10245000ACFF70BD70B504000D001600FFF7A1FFC2
:102460000320207032002900200000F0E0FF14F16A
:102470000800FFF79EFFFFF798FF70BD80B50C3096
:10248000FFF7A1FF01BD80B50C30FFF7A0FF01BD34
:10249000002108E0374A002342F83130002302EBE4
:1024A000C1025360491C1029F4D333490A6852F021
:1024B000BD020A6009680168304A11608168304ACB
:1024C000116041682F4A1160C1682F4A116041694B
:1024D0002E4A116001692E4A116081692D4A1160EE
:1024E000016A2D4A1160C1692C4A1160416A2C4A67
:1024F0001160C16A2B4A1160816A2B4A1160016B1D
:102500002A4A1160816B2A4A1160406B2949086090
:102510007047F0B4032A01D1016102E0042A00D11E
:102520004161254B9E5C002215001400130000271A
:1025300009E0344305E035435FEA014CF9D452F039
:102540000F0249007F1C082F09D21B0112012D0127
:1025500024015FEA016CEED453F00F03ECE741680D
:102560000A402243426001680B402B430360F0BCE9
:1025700070470000A8470020181002400C080140D6
:1025800004080140000801400C0C0140040C01400B
:10259000000C01400C1001400410014000100140EB
:1025A0000C14014004140140001401400C1C0140B3
:1025B000041C0140001C0140C08C00080060406009
:1025C00070470100086802680A600A685160704735
:1025D00001684268116041680268516070479B4819
:1025E0008169896800688068814201D2012000E029
:1025F0000020C0B2704780B5202080F31188FFF71B
:10260000EEFD01BD80B5FFF7EFFD002080F31188DE
:1026100001BDC068002801D0012000E00020C0B248
:1026200070478168491C8160704710B5874C200055
:10263000FFF7C4FF0020A0602461646110BD002189
:1026400080F82010814909688A6883689A42FAD222
:1026500001604A684260426810604860704700212B
:1026600080F820107949096882688B689A42FAD309
:1026700001604A684260426810604860704738B53F
:10268000724DAC6984F820002800FFF79AFFA8611A
:102690000120A96981F820002100A869FFF786FDC3
:1026A000EFF309806438E169884202D2684800F09B
:1026B000DDFA2100A86900F0F3FE31BD10B5040079
:1026C000FFF799FF94F82000002808D0032809D0CC
:1026D00004280ED0052809D007280AD00DE0FFF7FE
:1026E00091FF12E00020616A086006E0606AFFF76F
:1026F00098FF2000FFF76CFFFFE75FF0FF3060629C
:102700002000FFF79CFFFFF77DFF10BD18B585B0D7
:10271000040011F1010F12D04C4883694D4A6846FC
:1027200000F005FF2000C0B2FFF7A9FF6846FFF7E1
:1027300070FF002807D0684600F057FF03E0200034
:10274000C0B2FFF79CFF41488069406A06B010BDE7
:1027500070B504003D4EB06961628168A268914223
:1027600003D32000FFF76BFF17E0FFF778FF0500AA
:10277000B461012084F8200029002000FFF716FD35
:10278000EFF309806438E969884202D2304800F0EA
:102790006DFA2900200000F083FE70BD80B5FFF7C0
:1027A0001EFF002801D000F00DF801BD2749086880
:1027B000806889698968814201D2012000E0002097
:1027C000C0B2704738B5214DAC692800FFF7F9FE5B
:1027D000A8610120A96981F820002000FFF73FFFD0
:1027E00004002100A869FFF7E1FCEFF309806438D9
:1027F000E169884202D2164800F038FA2100A8693F
:1028000000F04EFE31BD38B5104DAC692800FFF721
:10281000D8FEA8610120A96981F820002000FFF7F7
:102820001EFF04002100A869FFF7C0FCEFF3098038
:102830006438E169884202D2054800F017FA2100A5
:10284000A86900F02DFE31BD00000000E806002060
:10285000888D0008BD26000862B38B0708D0521E81
:1028600011F8013B00F8013B00F024808B07F6D102
:10287000830740F0208000BF103A07D330B4B1E89E
:102880003810103AA0E83810F9D230BC530724BFF2
:10289000B1E80810A0E8081044BF51F8043B40F824
:1028A000043BD20724BF31F8022B20F8022B44BF8F
:1028B0000B7803707047121F17D35B0009D151F8D2
:1028C000043B20F8023B1B0C121F20F8023BF6D2FF
:1028D0000BE051F8043B00F8013B1B0A20F8023BD7
:1028E0001B0C121F00F8013BF3D238BF121D521E01
:1028F00024BF11F8013B00F8013BF8D870470100F4
:102900007047FEE730B4C3685B1CC3608368C91AB4
:10291000891A8160D0E9044582680023A2186B41BE
:10292000C0E9042341688268914201D28168416014
:1029300081680268914201D28168016030BC7047B1
:1029400038B586B01C4D0020C5F89000684600F0F0
:102950000FF80424684600F019F8684600F01AF8E9
:10296000641E002CF6D10098C5F8900007B030BD69
:102970005FF0FF3101600021416000218160002192
:10298000C16000220023C0E9042370470B49096895
:102990008160704780B509490968074AD2F89020DC
:1029A000FFF7B0FF01BD80B5044A12688A600022BB
:1029B0008968FFF7A7FF01BDE8060020041000E0CA
:1029C00080B53948394901600021416000218160AA
:1029D0000C3000F059FB01BD70B5B0F1080425685A
:1029E0002E1D6068C01DC008606015F10C0000F06D
:1029F00053FB00E03668281D864201D0A642F9D27A
:102A00003068002802D030688442F3D230682060F9
:102A10003460606804EBC00008302168884208D147
:102A2000606821684968491C08186060206800686F
:102A30002060706806EBC0000830A04206D17068C4
:102A40006168491C081870602068306015F10C003E
:102A500000F066FB70BDF8B506000C001500002EF6
:102A600000D1114E16F10C0000F016FB00220023DD
:102A70000027311D07E0086840687F1C82188342E8
:102A800000D20300096808680028F4D1002C01D0A6
:102A9000D0002060002D01D0D800286016F10C0075
:102AA00000F03EFB3800F2BDAC460020E1360008E5
:102AB00080B5202080F31188FFF787FB01BD80B52A
:102AC000FFF788FB002080F3118801BD10B40024BB
:102AD000046041608260C36010BC704702680A6095
:102AE0000160704738B504000D00FFF7E1FF2900D1
:102AF0002000FFF7F3FFFFF7E2FF31BD10F8012BD5
:102B000011F8013B0AB19A42F8D0D01A7047000080
:102B1000081880B27047081A80B2704780B5FEF777
:102B200092F801BD80B580B2FEF791F801BD80B585
:102B3000FEF792F802BD002080F3118862B670475C
:102B400080B5202080F31188FFF749FB01BD80B5D7
:102B5000FFF74AFB002080F3118801BD80B5FFF725
:102B6000E6FF02BDF8B5454CE569FFF7F7FF070042
:102B7000390089B2208DFFF7CEFF0600A868864293
:102B800005D2E06914F11C0188421FD13EE0218D7D
:102B9000A86841182185A868361A14F11C00296814
:102BA00048602968E161EF680021E960E1698142DC
:102BB00001D1FFF7B3FFFFF7CAFF2869B847FFF756
:102BC000BFFFE569A8688642E1D2CEE7208D3018C4
:102BD0002085E0698068861BE0698660390089B2DB
:102BE000208DFFF798FF0100A868411A022901D241
:102BF000022104E0B1F5803F01D34FF6FF713800A8
:102C000080B2FFF785FF80B2FFF78CFFF1BD80B582
:102C100000F048FDFFF7D4FE00F089FD01BDFEE79E
:102C200010B5FFF702FD00F077FCFFF7F0FFFFF7AC
:102C300087FEFFF79DFA114C8022114914F13000F4
:102C4000FFF748F8A0610F48A169C8610120A16998
:102C500081F8200000F047F8A0694830FFF796FEA1
:102C6000FFF769FF0848FFF77BF810BD72B603490C
:102C7000C862FEE780B5FFF775FF01BDE8060020DA
:102C8000308C000800040020488C000810F0070079
:102C9000354B1A684FF6FF010A40344951EA0021CA
:102CA0000A431A607047020052B2002A04D4090194
:102CB0002F4A40B2115407E009012E4A40B210F0E9
:102CC0000F00104400F8041C7047EFF309806830CF
:102CD00029490A68520852000A6080F309880020D6
:102CE00080F31188704780B5202080F3118862B688
:102CF0000320FFF7CBFF2148016851F0807101608C
:102D00001F48016851F00101016001217FF00400BA
:102D1000FFF7C9FF02217FF00100FFF7C4FF01BDEB
:102D200010B5202080F3118816480068000517D5DB
:102D3000F1EE100AEFF30980683804005FF080714B
:102D4000E16111490968216680F30988FFF72EFDCA
:102D5000002802D00D48A06101E00D48A06102E00A
:102D6000002080F3118810BD0CED00E00000FA0592
:102D700000E400E018ED00E034EF00E0FCED00E0DE
:102D8000001000E004ED00E03CEF00E0CF3400086C
:102D9000DB34000810B40901104A1154012210F06C
:102DA0001F0112FA01F10E4B0400640943F82410CC
:102DB00010F01F018A400B49400941F8202010BC47
:102DC0007047012210F01F018A40074903005B0988
:102DD00041F823200021014A1154704700E400E02B
:102DE00080E200E000E100E080E100E0DFF8F401D3
:102DF000DFF8F4110160DFF8FC1101607047DFF8C3
:102E0000F801016851F080010160704738B5040095
:102E10000420B4F10061DFF8D421914201D20121F4
:102E200000E00021C9B2B4F1046F1ED35FF0FF309F
:102E300000F0C3F80100C9B2042914D1DFF8B05181
:102E4000286850F002002860DFF8B00104602868AC
:102E500050F0400028605FF0FF3000F0AEF82968C5
:102E600031F002012960C0B221E0DFF894118C42F8
:102E70001CD25FF0805000F08CF80100C9B2042928
:102E800014D1DFF87451286850F002002860DFF890
:102E900074010460286850F0400028605FF08050A2
:102EA00000F077F8296831F002012960C0B232BD24
:102EB00070B504000D000420B4F10061DFF82C218E
:102EC000914201D2012100E00021C9B2B4F1046FA6
:102ED00018D34FF4704000F070F80100C9B2042913
:102EE0000ED1DFF80C61306850F0010030602580B1
:102EF0004FF4704000F061F83168490849003160D2
:102F0000C0B21BE0DFF8F8108C4216D24FF47040CC
:102F100000F03FF80100C9B204290ED1DFF8D860F3
:102F2000306850F00100306025804FF4704000F0B0
:102F300030F83168490849003160C0B270BD0420E2
:102F4000DFF8C8000168C90701D501200AE001685F
:102F5000490701D5022005E00068C00601D503201D
:102F600000E00420C0B270470420DFF89C00016834
:102F7000C90701D501200AE00168490701D50220EF
:102F800005E00068C00601D5032000E00420C0B2BF
:102F9000704710B504000420FFF7D1FF02E0FFF7EF
:102FA000CEFF641E0100C9B2012901D1002CF6D167
:102FB000002C00D10520C0B210BD10B504000420C3
:102FC000FFF7D2FF02E0FFF7CFFF641E0100C9B296
:102FD000012901D1002CF6D1002C00D10520C0B26E
:102FE00010BD000004200240230167450000FF17C8
:102FF00090200240AB89EFCD102002409420024087
:1030000000000808142002408C2002400C200240DE
:103010000060406070470168814201D0012000E0FB
:103020000020C0B2704710B40A0012688A4203D070
:1030300093688468A342F8D2026051684160416895
:103040000860506010BC70470100086802680A60A0
:103050000A685160704701684268116041680268FF
:103060005160704780B5202080F31188FFF7ADF8DC
:1030700001BD80B5FFF7AEF8002080F3118801BDD7
:1030800080B5FFF7C8FF02BD10B504002000FFF7B0
:10309000BFFF0020A06010BD10B50400FFF7E2FFE5
:1030A000200000F003F8FFF7E4FF10BD70B5040046
:1030B00033488569A06800282DD0A66807E0300055
:1030C000FFF7C9FF716AFFF7AEFF706A8668B068E4
:1030D000A968884216D2A868B06096F82000002837
:1030E0000AD00628EBD007280CD13000FFF7B3FF39
:1030F000716AFFF798FF05E03000FFF7ACFFFFF7BC
:103100009EFAFFE721002800FFF78DFF6C62062082
:10311000FFF7B5FA03E0A560A86BE060AC6370BD93
:10312000F8B5050016488669FFF79CFFE868B063AC
:103130002800FFF7A5FF00281DD0F76BB46B0BE04C
:103140002000FFF79DFF002805D020688068874297
:1031500001D220688768E468002CF1D1B7602800AC
:10316000FFF772FFA860816BE9608563FFF767FA7C
:10317000FFF714FB01E00020A860FFF77AFFF1BD24
:10318000E806002080B5202080F31188FFF727F89B
:1031900001BD80B5FFF728F8002080F3118801BD3C
:1031A00080B5FFF763FD01BD80B5FFF7EBFF01BD03
:1031B00080B5FFF7EEFF01BD80B5FEF7B3FE01BDA0
:1031C00038B504000D00280702D5AD48FFF7E8FF29
:1031D0006068007800281BD0680707D560684068E1
:1031E000002803D02000616849688847A8074AD5AD
:1031F00060684068002846D0042020702000616884
:1032000049688847207804283DD1032020703AE09F
:10321000606A4068006800090001616A49680860E6
:103220000E21606A90F90D0011FA00F0626A1268CE
:103230005060206A4068006800090001226A5268F4
:103240001060206A90F90D008140206A006841609A
:103250006068406800280BD004202070200061685E
:10326000496888472078042804D10220207001E0B2
:1032700002202070FFF798FF002114F10800FFF7EB
:103280009BFFFFF795FF31BD80B5080702D57C484D
:10329000FFF786FF01BD10B57A4C2000FFF79FF8BD
:1032A0007948E061002020620020606241F20A005B
:1032B000A06241F21800E06210BD10B50400207851
:1032C000012820D16F48A04213D123006F4A0A2160
:1032D000032000F0DBFA206223006D4A0A2104205B
:1032E00000F0D4FA60626B48016851F480410160DB
:1032F0000068E0690C30216A49688860E0690C3038
:10330000616A496888606068008A000508D4A06A1C
:1033100030F47060A062E06A30F47060E06209E04E
:103320000520A16A60F30B21A1620520E16A60F328
:103330000B21E16260680078002808D0A06A50F094
:103340002400A062E06A50F02400E06207E0A06A76
:1033500030F02400A062E06A30F02400E062E0690E
:10336000006830F04000E16908606068008A50F44D
:103370004170E16908606068408A50F00300E169CB
:103380004860E069006850F04000E169086010BDE5
:1033900010B50400207802281ED1E069006830F0E2
:1033A0004000E16908600020E16908600020E169EF
:1033B0004860206A00F0B7FA606A00F0B4FA0020B2
:1033C0002062002060622F48A04205D13148016888
:1033D00031F480410160006810BD10B42E4B046AC6
:1033E0006468E360036A5B685960836A046A6468BE
:1033F0002360436A5B68DA60426A52685160C16A5E
:1034000051F08001426A52681160016A4968096896
:1034100051F00101026A52681160416A4968096805
:1034200051F00101406A4068016010BC7047036AB6
:103430005B68DA60026A52685160826A52F0800208
:10344000036A5B681A60154A436A5B68DA60426A1D
:1034500052685160C16A426A52681160016A4968E3
:10346000096851F00101026A52681160416A4968B5
:10347000096851F00101406A40680160704700002E
:10348000C88D00088449002000380040C131000880
:10349000893200081C10024020510020A21F0008A1
:1034A0002DE9F04F2DED108AC1F80CD0C3689D4670
:1034B000BDEC108ABDE8F08FFEF78CFE002383F38D
:1034C00011882846A0470020FEF7BFFCFEE7FEF764
:1034D0007CFEFFF798F9FEF77DFE00DFFEE70000B7
:1034E000081880B27047081A80B2704780B580B261
:1034F000FDF7A4FB01BD80B5FDF7A5FB01BD80B5BF
:1035000080B2FDF7A4FB01BD80B5FDF7A5FB02BDB0
:1035100080B5FFF7F9FF02BD5A4810F11C01C161E7
:1035200001625FF0FF3141620021018570472DE9A2
:10353000F04104000D002361E260FFF7E9FF8046DF
:10354000022D00D202254F4E16F11C00F16988426F
:1035500013D1A6F82880F461346220606060A56011
:10356000B5F5803F01D34FF6FF752900308DFFF789
:10357000B7FF80B2FFF7BAFF35E0F769414689B27D
:10358000308DFFF7B0FF2D18414689B2308DFFF71F
:10359000AAFF854203D2B8682D1A3F6812E0B868C6
:1035A00085420FD22900B1F5803F01D34FF6FF715C
:1035B000308DFFF795FF80B2FFF7A1FF02E0B868FA
:1035C0002D1A3F68B868A842F9D327602068406880
:1035D0006060606804607C60A560B868451BBD6081
:1035E0005FF0FF307062BDE8F08110B5254CE169F5
:1035F000814213D0016842681160416802685160DD
:103600000021C16014F11C010268914205D00168DB
:103610008A6881688A180068826032E00168E16126
:1036200014F11C01E26951600022C260E26991421A
:1036300002D1FFF760FF24E0E169896880684118E2
:10364000E0698160FFF764FF010089B2208DFFF718
:103650004AFFE1698968884213D2E1698968091AD9
:10366000022901D2801C05E04018B0F5803F01D34B
:103670004FF6FF700100208DFFF732FF80B2FFF799
:103680003EFF10BDE806002080B5202080F31188A1
:10369000FEF79BFD01BD80B5FEF79CFD002080F389
:1036A000118801BD19481A49016011F50061416096
:1036B000704710B4154B5C6840422044491E30EA04
:1036C0000101524201EB02001A68904202D35A688B
:1036D000824201D2002001E05860080010BC70470F
:1036E00070B504000D001600FFF7CEFF3200290070
:1036F0002000FFF7DEFF0400FFF7CDFF200070BDC4
:10370000024948680968401A70470000A43E00203A
:10371000AC3E002080B50022FFF7CBFF02BD80B594
:1037200013000422FFF7D2F901BD0060704738B5DD
:10373000144C2000FFF7A8FC14F11000FFF7F5FF70
:10374000114D2A00142114F11400FFF7E8FF14F1C1
:103750002400FFF7EAFF14F12800FFF7E6FF2A0034
:103760001C2114F12C00FFF7DAFF14F13C00FFF7E5
:10377000DCFF14F14000FFF7D8FF14F14400FFF71D
:10378000D4FF31BD5C3E00201537000880B5FEF740
:1037900000FD8D4800F0F9F8FFF7C2FA01BD80B5D1
:1037A000FEF7F7FC894800F0F0F8FFF7B9FA01BD21
:1037B00080B5FEF7EEFC864800F0E7F8FFF7B0FAB8
:1037C00001BD80B5FEF7E5FC824800F0DEF8FFF7AA
:1037D000A7FA01BD80B5FEF7DCFC7F4800F0D5F804
:1037E000FFF79EFA01BD80B5FEF7D3FC7B4800F0E1
:1037F000CCF8FFF795FA01BD80B5FEF7CAFC784812
:1038000000F0C3F8FFF78CFA01BD80B5FEF7C1FCEC
:10381000744800F0BAF8FFF783FA01BD80B5FEF7EF
:10382000B8FC714800F0B1F8FFF77AFA01BD80B535
:10383000FEF7AFFC6D4800F0A8F8FFF771FA01BD84
:1038400080B5FEF7A6FC6A4800F09FF8FFF768FA1B
:1038500001BD10B4674900200860002048600020C6
:103860000AE00022584B040123445B681A600022DE
:1038700001EBC0039A60401C0B28F2DB5FF0FF30C5
:103880005D4908605D49086010BC7047F8B50B28B9
:1038900001D2070002E0002044E07F1CB84240D380
:1038A0000124BC40534D2E682642F6D146483E01C5
:1038B000064405EBC700826005EBC700C3602868BB
:1038C0002043286014F07F0F05D04D48036853F063
:1038D00001030360006814F4F06F05D048480368E2
:1038E00053F0020303600068002A09D06868B268D8
:1038F000104202D1F07BFFF74DFA686804436C6018
:103900007068006800090001716808600E2196F96E
:103910000D0081403068416000207168086030000F
:1039200000E00020F2BD38B5857B0122314C2368D0
:1039300012FA05F18B4323606168AA4031EA020262
:10394000626061688268114202D1C07BFFF739FA78
:10395000002004EBC5018860002004EBC501C860AD
:10396000207810F07F0F05D12548016849084900EB
:1039700001600068206810F4F06F05D120480168EC
:1039800031F002010160006831BD80B5827B0168C1
:103990000968437BD94011F00E0143681B68194246
:1039A00011D0437B11FA03F300684360114B03EB22
:1039B000C2008068002806D003EBC200C06803EB99
:1039C000C2029268904701BD748600088486000890
:1039D00094860008A4860008B4860008C4860008FF
:1039E000D4860008E4860008F486000804870008EE
:1039F00014870008F44B0020040002400404024035
:103A00001410024080B5202080F31188FEF7DDFB02
:103A100001BD80B5FEF7DEFB002080F3118801BDFB
:103A200080B5202080F31188FEF7D9FB01BD80B559
:103A3000FEF7DAFB002080F3118801BD80B5FFF7A7
:103A4000E1FF01BD80B5FFF7E4FF01BD80B5FFF7E1
:103A5000E7FF01BD80B5FFF7EAFF01BD010008786F
:103A6000491C097850EA012080B2704710B5040063
:103A700094F8760084F87E00200000F005FD606870
:103A80000068002804D00121200062681268904775
:103A90000320207010BD38B5040094F8740010F0B5
:103AA0007F0094F8751050EA012000282AD00128E0
:103AB00000F0B980022800F0BE80B0F5807F2AD0E7
:103AC000B0F5817F00F0F780B0F5407F38D040F24C
:103AD0000231884200F01581B0F5A06F44D0B0F5F6
:103AE000C06F4AD040F20161884246D0B0F5006F05
:103AF0005DD0B0F5106F63D040F60241884200F00F
:103B0000928024E114F17C00A0660220E06600208F
:103B1000206701201CE194F8760001280ED1B4F84A
:103B20007C104FF6FD700140A4F87C100020A066C8
:103B30000020E06600202067012009E1002007E165
:103B400094F8760001280DD1B4F87C0050F0020002
:103B5000A4F87C000020A0660020E066002020671A
:103B60000120F5E00020F3E00020A0660020E066E0
:103B7000DFF8FC0220670120EAE014F17800FFF78B
:103B80006DFF03009BB294F8762094F87710200024
:103B900065686D68A847002801D10020D8E0416819
:103BA000A1660068E066002020670120D0E014F1E3
:103BB0007F00A0660120E066002020670120C7E0AA
:103BC0002078042814D1FFF741FF200000F013F9FA
:103BD000FFF740FF002084F87F000320207060681A
:103BE0000068002804D00321200062681268904712
:103BF00094F8760000280ED094F8760084F87F00C0
:103C00000420207060680068002804D00221200091
:103C10006268126890470020A0660020E0660020DD
:103C20002067012094E09348A0660220E06600200F
:103C3000206701208CE094F8780000061DD594F8E8
:103C4000781011F00F01200000F0D1FC012802D003
:103C5000022808D00FE08848A0660220E066002015
:103C60002067012074E08548A0660220E0660020FD
:103C7000206701206CE000206AE094F8781011F0D1
:103C80000F01200000F0A1FC012802D0022808D07A
:103C90000FE07948A0660220E0660020206701203E
:103CA00056E07648A0660220E066002020670120EA
:103CB0004EE000204CE094F87600002801D000206F
:103CC00046E094F8780010F00F0F12D094F87800C6
:103CD000000607D594F8781011F00F01200000F0CD
:103CE00044FD06E094F8781011F00F01200000F078
:103CF00024FD0020A0660020E0660020206701204F
:103D000026E094F87600002801D0002020E094F806
:103D1000780010F00F0F12D094F87800000607D545
:103D200094F8781011F00F01200000F0F5FC06E087
:103D300094F8781011F00F01200000F0DCFC002056
:103D4000A0660020E06600202067012000E000203F
:103D500032BD80B500F04CFB01BD01210170002196
:103D60004160002108E0002200EB8103DA620022BA
:103D700000EB81039A64491C0729F4D300210181D7
:103D800000214181704738B504000D00FFF756FE51
:103D90006560002004E0002104EB8002D160401C3B
:103DA0000828F8D3200000F029FB02202070FFF73C
:103DB00049FE31BDF8B504000D0016002800C0B260
:103DC00004EB8000C6607069002805D01021002235
:103DD0007769380000F000FDB069002805D0102197
:103DE0000022B669300000F0F7FC2900C9B22000BB
:103DF00000F051FBF1BD80B5017A11F001010181A4
:103E0000817A11F001014181012104E0002200EBDF
:103E10008103DA60491C0829F8D300F0C3FB01BD17
:103E200038B5448901258D402C4344810C00E4B20F
:103E300000EB8404E468A469A2602360002262604D
:103E4000C9B200F0F9FB31BD38B5048901258D40B8
:103E50002C4304810C00E4B200EB8404E468646940
:103E6000A260236000226260C9B200F016FC31BD7E
:103E70006D3A000886200008FE2800086E21000820
:103E800010B50400022020700020A4F87C0000205F
:103E900084F87E00002084F87F000020208100202C
:103EA0006081002004E0002104EB8002D160401C0E
:103EB0000828F8D3002084F86400200000F0C0FA3D
:103EC00060680068002804D0002120006268126841
:103ED000904710BD10B50400207884F880000520BC
:103EE000207060680068002804D004212000626807
:103EF00012689047002020810020608110BD80B5AD
:103F000090F88010017041680968002903D00521EC
:103F100042681268904701BD10B5040094F864002F
:103F2000002802D0002084F8640014F17402C9B2A1
:103F3000200000F06DFB60688068002805D020003C
:103F400061688968884700281ED194F8740010F0D1
:103F5000600F04D12000FFF79EFD002814D100213E
:103F6000200000F0D9FB0021200000F0C4FB6068B5
:103F70000068002804D0062120006268126890477B
:103F8000062084F8640048E014F17A00FFF766FD2B
:103F9000E16E884200D2E06694F8740000061ED5F7
:103FA000E06E00280DD0092084F86400FFF74EFD74
:103FB000E36EA26E00212000FFF746FFFFF74AFDE7
:103FC0002BE0142084F86400FFF740FD002300225A
:103FD00000212000FFF724FFFFF73CFD1DE0E06E0D
:103FE00000280DD0152084F86400FFF72FFDE36E44
:103FF000A26E00212000FFF713FFFFF72BFD0CE05E
:104000000B2084F86400FFF721FD0023002200212B
:104010002000FFF719FFFFF71DFD10BD10B50400CC
:1040200094F86400002842D0062840D0092808D01F
:104030000A2824D00B2830D0142838D0152836D0A0
:104040004AE014F17A00FFF709FDE16E814216D2D1
:10405000E06EE168098AB0FBF1F201FB1200002872
:104060000DD1FFF7F3FC0023002200212000FFF711
:10407000EBFEFFF7EFFC0A2084F864002CE014202C
:1040800084F86400FFF7E2FC0023002200212000F6
:10409000FFF7C6FEFFF7DEFC1EE0206F002802D00F
:1040A0002000216F8847002084F8640014E000217C
:1040B000200000F031FB0021200000F01CFB6068B4
:1040C0000068002804D0062120006268126890472A
:1040D000062084F86400FFE710BD10B5040094F8D2
:1040E0006400002825D0801F23D0C01E022820D9BC
:1040F0000B380FD0401E31D10B2084F86400FFF73D
:10410000A5FC0023002200212000FFF79DFEFFF701
:10411000A1FC23E0E0688069406800281ED1206F80
:10412000002802D02000216F8847002084F8640016
:1041300014E00021200000F0EFFA0021200000F040
:10414000DAFA60680068002804D00621200062685E
:1041500012689047062084F86400FFE710BD000055
:104160004021C0F8841070470200D2F88400D2F8D1
:104170008430491C49084900C918C2F884107047A6
:1041800010B4DFF81836DFF818261268C0B212EB48
:1041900000129A18906813EB4003D0688005800DD8
:1041A000020007E01C681B1D0C70491C240A0C70DF
:1041B000491C921E022AF5D2002A01D01A680A7000
:1041C00010BC704730B4DFF8D435DFF8D44525682B
:1041D000C0B215EB00155D19286813EB40031400FD
:1041E0006A6008E00A78481C017852EA0122411C02
:1041F0001A601B1DA41E012CF4DA30BC70472DE997
:10420000F04104000D00DFF89C6556F8258004EBB2
:104210008500C7685FEA086041D5796956F82520AE
:10422000DFF88405024052F4004246F825204A682F
:10423000C86882184A6008684A68821A002A1BD037
:10424000388A904200D23A8A8868CB6818448860DD
:10425000CA6089682800C0B2FFF7B4FF56F825107D
:10426000DFF84805014091F0300141F4004151F080
:10427000800146F8251012E020890121A9408843D9
:10428000208104EB8500C0688068002807D02900E1
:10429000C9B2200004EB8502D268926890475FEAB9
:1042A000084058D556F82510DFF80405014051F0B4
:1042B000800146F825105FEA085008D52900C9B2E8
:1042C000200004EB8502D2685268904743E0D7F89B
:1042D0001880D8F808102800C0B2FFF751FFD8F8AE
:1042E00008100144C8F80810D8F804104118C8F89C
:1042F0000410D8F80010091AC8F80010B8F80C100B
:10430000491EA8F80C10798A884203D3B8F80C002B
:10431000002813D160890121A9408843608104EB02
:104320008500C068C068002815D02900C9B22000E7
:1043300004EB8502D268D26890470CE056F825104D
:10434000DFF87004014091F4405141F4004151F014
:10435000800146F82510BDE8F08170B5DFF85844BB
:10436000FDF717FFDFF854542E68700505D57FF46C
:10437000806028602000FFF783FD30050BD5DFF853
:104380004004016851F0080101607FF4006028607A
:104390002000FFF79FFDF00410D5DFF82804006827
:1043A000000408D4DFF81804016831F00801016046
:1043B0002000FFF7A4FD7FF480502860B00512D5DF
:1043C0006068C068002803D020006168C968884719
:1043D0007FF40070286006E016F00F063100200020
:1043E000FFF70DFF2E683004F6D4FEF799FC70BD80
:1043F00080B5DFF8C403FFF7B0FC01BD38B5040099
:10440000207801281BD1DFF8B003A04214D1DFF8D7
:10441000B803016851F4000101600068DFF8A0539F
:10442000012028600D211320FEF7B4FC0E2114207A
:10443000FEF7B0FC00202860200000F001F831BD3C
:1044400010B504000020DFF8581308600020DFF8E2
:104450006C1308608020DFF8741308604FF41C416F
:104460006068C068002801D051F40071DFF8500383
:1044700001602000FFF774FEDFF85403E0600021C4
:10448000200000F008F810BD90F87E0050F0800089
:10449000CE49086070472DE9F04106000C0020006D
:1044A000C0B206EB8000C768387810F0030001281E
:1044B00004D008D3032803D000D304E0002504E08F
:1044C0004FF4C06501E04FF40075B548D0F80080A6
:1044D0002000C0B218EB001808F1804818F5C04859
:1044E000786900280AD00020C8F80400398A300012
:1044F000FFF73AFEC8F8000055F02005B86900281B
:1045000022D0788A3F280BDB788A401E50F01F00AB
:10451000401C202190FBF1F0800250F4004008E0A4
:10452000788A401E50F00100401C022190FBF1F0FF
:10453000800280B2C8F80C00798A3000FFF714FEC0
:10454000C8F8080055F4005596492000C0B251F84B
:104550002000400401D555F480452000C0B251F838
:104560002000400601D555F0400548F280022B009E
:104570009BB22000C0B2034396480340134320007F
:10458000C0B241F820302000C0B251F82030ADB2A6
:1045900047F6700005405D401543E4B241F82450F1
:1045A000BDE8F08180B5FFF7DBFD01200AE048F2AD
:1045B00080017C4A52F820300B4342F8203042F808
:1045C0002010401C0828F2D301BD7648C9B250F82B
:1045D000210010F44050002803D0B0F5805F02D0D5
:1045E00003E0002002E0012000E0022070476D4857
:1045F000C9B250F8210010F03000002802D0102875
:1046000002D003E0002002E0012000E00220704719
:104610006248634B1B68C9B213EB0113C318996856
:1046200010EB4100002104E003681380001D921C80
:10463000491C0429F8D3704710B40A00D2B200EB29
:104640008202D26893691A68002A02D101209881F7
:1046500011E01A680C00E4B200EB8404E468648A98
:104660001219521E0C00E4B200EB8400C068408AAC
:10467000B2FBF0F098814B4A0800C0B252F82030EB
:104680004C48034093F4405343F4004353F08003F9
:10469000C9B242F8213010BC704710B50C0021009F
:1046A000C9B200EB8101C96849690A682300DBB21D
:1046B00000EB8303DB681B8A934205D22200D2B24F
:1046C00000EB8200C068028ACA6089682000C0B21C
:1046D000FFF778FD33492000C0B251F8202033485D
:1046E000024092F0300242F4004252F08002E4B202
:1046F00041F8242010BD2B4A0800C0B252F82030E7
:104700002C48034093F4805343F4004353F0800358
:10471000C9B242F821307047224A0800C0B252F8AC
:1047200020302248034093F0100343F4004353F039
:104730008003C9B242F8213070471A4A0800C0B25B
:1047400052F8200010F44050B0F5405F0CD0080043
:10475000C0B252F820301548034043F4204353F0D0
:104760008003C9B242F8213070470E4A0800C0B237
:1047700052F8200010F0300030280ED00800C0B2EF
:1047800052F820300948034093F0200343F40043DB
:1047900053F08003C9B242F82130704700600040F6
:1047A000505C0040005C00400F87FFFFBF87FFFFA9
:1047B0008F07FFFF8FB7FFFFB4490020445C004024
:1047C000405C0040485C00401C1002404C5C0040D3
:1047D000048B00088F87FFFF62F30F2262F31F42F2
:1047E000401810F0030308D0C91A1FD3DB0748BFD5
:1047F00000F8012D28BF20F8022D130030B4144614
:104800001546103928BF20E93C00FAD8490728BFCF
:1048100020E90C0048BF40F8042D890028BF20F88B
:10482000022D48BF00F8012D30BC7047C91818BFD1
:1048300000F8012DCB0728BF00F8012D70470000BC
:10484000BFF34F8FDFF87C140A6812F4E062DFF8E0
:10485000780402430A60BFF34F8F00BFFDE772B6D2
:10486000704780B5202080F31188FDF7AEFC01BDB4
:1048700080B5FDF7AFFC002080F3118801BD80B545
:10488000202080F31188FDF7AAFC01BD80B5FDF75B
:10489000ABFC002080F3118801BD0021C16070478E
:1048A000C068002801D0012000E00020C0B270479D
:1048B00010B504002000FFF7F3FF002802D020000D
:1048C000FEF793FE10BD10B50400FFF7CAFF2000ED
:1048D000FFF7EEFFFFF7CCFF10BDF8B504000D00A9
:1048E00016001F002000FFF7E3FF3B003200290005
:1048F0002000FEF71CFEF1BDF8B504000D00160007
:104900001F00FFF7AEFF3B00320029002000FFF739
:10491000E4FFFFF7ADFFF1BDDFF8B01389698861EF
:1049200070477047704710B4010089B2002907D062
:10493000DFF89C230123516D8B40116D0B6106E064
:10494000DFF88C230123516D8B40116D4B610022E8
:1049500021E0DFF87C431100C9B204EBC1014968D2
:104960008B401100C9B254F831100B6112E00123E1
:1049700013FA02F189B20142EBD1DFF8544311007E
:10498000C9B204EBC10149688B401100C9B254F8A7
:1049900031104B61521C1100C9B20A29E7DB10BC6F
:1049A000704710B40020002112E0DFF828230B002C
:1049B000DBB252F833309B680C00E4B202EBC40265
:1049C0005268D340DA0702D401228A401043491CBE
:1049D0000A00D2B20A2AE8DB80B210BC704780B568
:1049E000FCF7CFF8BC490968C1F3C031002901D1F7
:1049F00050F40040410403D54021B84A116002E060
:104A00004021B74A1160000403D58020B3490860F3
:104A100002E08020B249086001BD80B5FFF72FFF9A
:104A2000B048016891F0040101600023AE4A4FF4E0
:104A30007A71AE48FFF751FFFFF728FF01BD1CB5A3
:104A4000FFF7AFFF80B2FCF79FF8684600210160D6
:104A5000002114E0A64BBDF800200800C0B233F8D6
:104A600020008218ADF800206A4654880800C0B2C1
:104A7000400003EB4000408804195480491C0800A2
:104A8000C0B20828E6DBBDF80000082190FBF1F079
:104A9000ADF800006C466088082190FBF1F0608062
:104AA000BDF80000FCF773F8608840F214518842AA
:104AB00004DA4FF400608A49086008E0608840F238
:104AC0007951884203DB4FF400608449086013BDCC
:104AD00010B5FCF756F80400200080B2FFF723FF62
:104AE000A4B2002C06D00020FCF754F800B200F06D
:104AF00082F901E000F02CFA10BD70B500F0FFFA69
:104B0000FEF78EF87B48016851F0007101607A4829
:104B1000FFF702FFFBF7CEFF784800F06BFBFCF7D6
:104B20003CF8032820D1764C0021200000F0C3FB84
:104B300008236F4A7349200000F0CBFBA06A80680D
:104B4000A16A88600420704908604FF400706449CD
:104B50000860664C2000FFF7A0FE0023624A4FF475
:104B60007A712000FFF7C8FEFCF717F8042803D17C
:104B7000FCF716F800F042FC002428E0280622D5B5
:104B8000FBF783FF614E032204213000FDF7C1FCD7
:104B900003224FF400613000FDF7BBFC0222042128
:104BA0005B48FDF7B6FC02224FF400713000FDF7C0
:104BB000B0FC04204A49086000F031FB002802D113
:104BC000012400F023FBA80701D5FBF747FB2000D9
:104BD000C0B200283BD10A215FF0FF30FCF7A6FAF3
:104BE0000500680714D5FBF7D8FF012806D00FD3BE
:104BF000032807D003D3042807D009E008E0FFF713
:104C0000EEFE05E0FFF71BFF02E0FFF761FFFFE7A5
:104C100015F0180F08D0FBF7C0FF042804D10020BE
:104C2000FFF781FE00F094F9A806A7D5FBF7B5FFC2
:104C3000012806D0A2D3032805D003D3042805D029
:104C40009CE79BE79AE7FFF7FAFE97E796E7274886
:104C5000FFF739FE01202F49086001202E49086026
:104C600001202E49086001202D49086001202D49AE
:104C700008602D4801680905090D0160016801609F
:104C80002A48016851F00C010160016831F0E0012F
:104C90000160016851F0020101602548016851F48A
:104CA000807101602348016851F004010160FFF741
:104CB000D6FD72B640BF20BF20BF62B6FFF7C0FD71
:104CC000002070BD0CED00E00400FA05E8060020AD
:104CD000500400200004002008080140100C01408E
:104CE000140C01400C0C01401B4A0008483E0020F7
:104CF000283E002004000140CC8E0008D48E00081D
:104D0000544700203C8A000814080140000C014070
:104D10000008014014040140000401400404014063
:104D20000C040140080401400800014000700040EC
:104D30000470004010ED00E000285BD00100DFF8B7
:104D4000B4231061086CD060002010710020D08066
:104D5000CB8B488B1B1A00EE103AB8EEC00A82EDDE
:104D6000050A8B8B088B1B1A00EE103AB8EEC00AAE
:104D7000D2ED050A80EE800A82ED050A4B8CC88BC5
:104D80001B1A00EE103AB8EEC00A82ED060A0B8C30
:104D9000888B1B1A00EE103AB8EEC00AD2ED060A54
:104DA00080EE800A82ED060ACB8C488C1B1A00EE3E
:104DB000103AB8EEC00A82ED070A8B8C088C1B1AD9
:104DC00000EE103AB8EEC00AD2ED070A80EE800A73
:104DD00082ED070AC848B1F8443090FBF3F0106345
:104DE000C548B1F8461090FBF1F050630A201087D7
:104DF00001201071704780B50100BE4A106900287B
:104E000000F0A580BC481369B3F8443090FBF3F080
:104E10001063B9481369B3F8463090FBF3F0506360
:104E2000536B106B1B1A5020B3FBF0F01087B2F9D4
:104E30003800022801DA022010871069008B0B006D
:104E40001BB2984208DB1069408B00EE100AB8EEE6
:104E5000400A00F07DF87AE01069008B0B001BB26D
:104E6000984212DA1069808B0B001BB298420CDB5F
:104E700009B21069008B091A00EE101AB8EEC00AC8
:104E8000D2ED050A20EE200A47E01069808B0B0066
:104E90001BB298421ADA1069008C0B001BB29842C0
:104EA00014DB09B21069808B091A00EE101AB8EEF3
:104EB000C00AD2ED060A20EE200A1069C08B00EE6F
:104EC000900AF8EE600A30EE800A26E01069008C45
:104ED0000B001BB298421ADA1069808C0B001BB2CF
:104EE000984214DB09B21069008C091A00EE101AFE
:104EF000B8EEC00AD2ED070A20EE200A1069408CF5
:104F000000EE900AF8EE600A30EE800A05E01069C3
:104F1000C08C00EE100AB8EE400AD2ED030A20EE73
:104F2000200ABDEEC00A10EE101A080000B2136885
:104F3000984202DA1068401A01E01068081A00B2BC
:104F4000401E092803D30020107209B2116001BD70
:104F5000684991F90800002807D10868012804DB96
:104F6000012008727FF06300086063480A69B2F8A4
:104F7000442090FBF2F00863086B40080863086B5C
:104F8000142801D214200863704710B5594C2069C9
:104F9000002802D15FF0FF30AAE00020B4F906102B
:104FA000002919D094F90410012905D12168226A39
:104FB00091420BDA012009E094F9041011F1010F7C
:104FC00004D1216A2268914200DA01200100C9B2AD
:104FD000002901D00321E180B4F90610002905D091
:104FE000022945D023D3032954D080E0206A2168C8
:104FF00088421BD0206A2168884205DA012020718E
:105000002069C068804705E05FF0FF3020712069AB
:10501000806880470120E080606BE0622069406822
:105020008047206A94F90410401820625FE0E16A2A
:10503000B4F93800091AE162E06A216B884203D2B0
:10504000206BE0620220E0802068216A884208D05C
:10505000206940688047206A94F904104018206253
:1050600005E0B4F90600012801D10020E0803EE00F
:105070002168206A081A0B30172808D32069406875
:105080008047206A94F904104018206201E0032050
:10509000E0802CE0E16AB4F938208918E162616BA4
:1050A000E26A91420BD2616BE162C0B2002806D085
:1050B00094F90400404220710020E08017E0206A4B
:1050C0002168884208D0206940688047206A94F9A6
:1050D0000410401820620AE00020E0620020E08016
:1050E0002068002803D50020206000202062E06AAC
:1050F00010BD0000B44B0020A0860100704780B5B1
:10510000FFF7FCFF00F0CEF90948FDF7C1F900F008
:10511000BDF800F049FA00F0B5FAFDF75CF9FEF7CA
:1051200018FE00F0BCFB00F01BFDFBF783FD01BD8A
:10513000648900083E488069704790F820000F2875
:1051400001D1012000E00020C0B2704780B5FFF718
:10515000F1FF90F82100C0B2800810F0010002BDFC
:10516000F8B50400334D280000F09AFB324E3100B0
:10517000280000F0BBFB6420FCF7B9FE2F49306823
:10518000FEF701FE4FF400402D49086000F0E2FDFB
:10519000002627E0D5F88C0400680078042819D18F
:1051A000284FB868002808D10094274B80224FF47C
:1051B0009C612648FCF7E9FDB8600120FBF79EFFE3
:1051C000B868FFF7BAFF002804D0B868FCF708FEFB
:1051D0000020B8606420FCF78AFEFFF7B7FF0028C4
:1051E00000D001263000C0B20028D3D00020FCF748
:1051F0002CFEF1BD80B50090154B80224FF4AE61BE
:105200001448FCF7C2FD0F49086001BD10B50D4CF4
:105210002068FCF75FFE2068FCF743FE10BD0948DC
:105220008068002801D1002000E00120C0B2704752
:10523000E8060020604C0020EC8F0008B88D0008C4
:1052400010080140544C00204B5C0008D83300206B
:1052500061510008B838002080B5202080F3118803
:10526000FCF7B3FF01BD80B5FCF7B4FF002080F36D
:10527000118801BD80B5FFF7EFFF01BD80B5FFF7D5
:10528000F2FF01BD80B5FDF7FFFE01BD80B500F066
:1052900062FE01BD80B50121017000214160002145
:1052A00081600021C160002101610021416118304D
:1052B000FFF7E8FF01BD38B504000D00FFF7DAFF86
:1052C0006560200000F071FE02202070FFF7D6FF1D
:1052D00031BDF8B504000D0016001F00FFF7CAFF2E
:1052E0003B0032002900200000F003F8FFF7C6FF62
:1052F000F1BD80B58260C36001610321017000F0DF
:1053000083FE01BD80B5202080F31188FCF767FF84
:1053100001BD80B5FCF768FF002080F3118801BD56
:105320004F488069704780B5FFF7FAFF90F8210079
:10533000C0B2800810F0010002BD49498969886146
:10534000704780B50A21474800F045F901BD4FF488
:10535000806045490860012044490870704780B565
:105360004FF4806042490860002040490870FFF710
:10537000E8FF01BD4FF480703B49086070474FF46F
:1053800080703B49086070474FF48070394908606D
:10539000704738B504003848FFF7CFFF2000FFF70B
:1053A000CBFC0024FFF7D3FFFFF7E9FFFFF7ECFF8B
:1053B0002E4D012028700EE04FF47A712F4800F036
:1053C0000AF904E04FF47A712C4800F004F95FF018
:1053D000FF30FBF793FEE4B2002C0ED1FFF7A3FFE2
:1053E000040028780028E7D0FFF7CFFD010001294D
:1053F000E8DB224800F0EFF8E9E731BD7CB50400B6
:1054000000F0D2F81E49174800F0D7F81D491B4894
:1054100000F0D3F830221C4D15F1180621003000A1
:10542000FDF71AFA0095194B81224FF45C71184868
:10543000FCF7ABFC1749086073BD80B5FFF762FF4E
:10544000FFF785FFFFF765FF01BD80B5FFF75AFF46
:10545000012110480068FBF736FEFFF75AFF01BD37
:10546000E806002088470020100801402251002053
:105470001408014010100140CC8F0008984700200C
:105480008006002090060020A0060020935300080C
:1054900068300020F04B00203048016851F48071E2
:1054A0000160704780B52E4801685FF0FF310160F0
:1054B00002680022026000682A48026801600168F0
:1054C0000021016000682848016851F080510160A6
:1054D0000168016851F0006101600068FFF7DCFFBE
:1054E000FEF7B7F900F0E4FE01BD2048016851F075
:1054F0000101016001688907FCD5016801F0FF0125
:1055000001601B4900220A600A6812F00C0FFBD1EF
:10551000026852F48032026002689203FCD50A6885
:1055200052F4E8120A60026852F080720260026867
:105530009201FCD50F4A0A6012220F4B1A600A68CA
:1055400052F002020A600A6812F00C02082AFAD12C
:105550000168490849000160704700000070004080
:10556000101002400C1002401C10024000100240BB
:105570000410024000441D000020024080B520209D
:1055800080F31188FCF721FE01BD80B5FCF722FEF7
:10559000002080F3118801BD80B5FFF7EFFF01BD4A
:1055A00080B5FFF7F2FF01BD80B500F0B1FE01BD8F
:1055B0000121017000214160704738B504000D00E1
:1055C000FFF7EAFF6560200000F0AEFE02202070C9
:1055D000FFF7E6FF31BD38B504000D00FFF7DCFF33
:1055E0002900200000F003F8FFF7DAFF31BD80B595
:1055F0000422027000F0FCFE01BD00000060704754
:1056000080B5FFF7FBFF01BD80B5FBF739FD01BD9C
:1056100080B55FF0FF33303001F0C5F802BD80B5D2
:105620005FF0FF330C3001F02AF802BD80B55FF067
:10563000FF32C9B2303001F067F802BD80B55FF0CB
:10564000FF310C3000F0F0FF02BD80B5C9B2303040
:1056500001F05AF802BD80B50C3000F0E5FF02BD44
:1056600080B5303001F09FF802BD80B50C3001F0FC
:1056700006F802BD002902D0012901D100E0FFE7B0
:105680000020704780B501F065F901BD7CB50400CC
:105690000D0016000C482060201DFFF7B1FF01200F
:1056A000207200942B00802214F1540114F10C009C
:1056B00000F07FFF00943300802214F1D40114F134
:1056C000300001F00AF873BD648A000838B50400A0
:1056D0000D006069002803D10421201DFFF794FF0D
:1056E0002900C9B214F10C0000F07BFF002804D59A
:1056F0004FF48061201DFFF787FF31BD80B520206A
:1057000080F31188FCF761FD01BD80B5FCF762FDF7
:10571000002080F3118801BD80B5202080F311881E
:10572000FCF75DFD01BD80B5FCF75EFD002080F358
:10573000118801BD0060704780B5FFF7DFFF01BD34
:1057400080B5FFF7E2FF01BD80B5FFF7E5FF01BDC2
:1057500080B5FFF7E8FF01BD80B5FCF714FC01BD83
:1057600080B5FFF7E7FF01BD80B5FBF789FC01BD00
:1057700010B50400D4F88C0400680078042802D125
:10578000207A022801D0012021E0D4F88C0400689E
:1057900041890122D4F88C040079824092B21142EE
:1057A00001D0012013E014F10C0001F04AF90200CD
:1057B000002A01D101200AE04FF48073D4F88C0450
:1057C0004179D4F88C040068FEF72AFB002010BD54
:1057D00080B55FF0FF33443001F0B4FA02BD80B50C
:1057E0005FF0FF330C3001F0A8F902BD80B55FF027
:1057F000FF32C9B2443001F07FFA02BD80B55FF0DC
:10580000FF310C3001F076F902BD80B5C9B24430E9
:1058100001F072FA02BD80B50C3001F06BF902BDE7
:1058200080B5443001F08EFA02BD80B50C3001F035
:1058300084F902BD002902D0012901D100E0FFE76F
:105840000020704780B5406BFFF792FF01BD1CB58B
:10585000446BD4F88C0400680078042802D1207AC4
:10586000022800D01AE0D4F88C04006801890122D3
:10587000D4F88C040079824092B211420ED169466C
:1058800014F1440001F0DDF90200009BD4F88C040F
:105890000179D4F88C040068FEF7D6FA13BD70477E
:1058A0001FB5040056482060201DFFF759FF012056
:1058B0002072029453480190022000904FF48073AC
:1058C00014F17C02012114F10C0001F084F802941F
:1058D0004D480190022000904FF4807314F521721E
:1058E000012114F1440001F077F91FBD70B50400E7
:1058F0000D002E68FFF720FF287906EB80008462F8
:10590000687906EB80004464A879002803D0A87960
:1059100006EB80008462C4F88C5402202072FFF7EA
:105920000FFF70BD38B50400207D002803D094F827
:105930004C00002814D10221201DFFF715FF012083
:1059400020757FF00105290014F10C00FFF704FF1A
:10595000012084F84C00290014F14400FFF7FCFEFC
:1059600031BD10B504000121201DFFF7FDFE002010
:105970002075002084F84C0010BD10B5040014F10F
:105980000C0001F04EF80020207514F1440001F0E5
:1059900048F9002084F84C000121201DFFF7E4FEA7
:1059A0002000FFF7E5FE10BD90F8741011F06001C3
:1059B000202921D190F8751020290BD01AD3222943
:1059C00010D017D2114981660721C16600210167F5
:1059D000012012E00D4981660721C166002101679F
:1059E00001200AE0002181660021C16600210167D3
:1059F000012002E0002000E00020704700000000CD
:105A00008C8A0008455800084F58000828060020D6
:105A10001CB50400D4F88C0400680078042802D176
:105A2000207A022800D020E0D4F88C040068018994
:105A30000122D4F88C040079824092B2114214D130
:105A400014F1440001F0D1F900280ED0694614F198
:105A5000440001F0F6F80200009BD4F88C040179B0
:105A6000D4F88C040068FEF7EFF913BD7CB505008F
:105A70000E003000C0B205EB8000846A002C44D0D8
:105A8000FFF762FE0821201DFFF76EFE3000C0B256
:105A900005EB8000C06840690068002803D014F15D
:105AA000440001F0E3F8694614F1440001F0C9F83C
:105AB0000200002A06D0009B3100C9B22800FEF780
:105AC000C3F920E03000C0B205EB8000C068406937
:105AD0000068002817D03000C0B205EB8000C06815
