:020000040800F2
:1000000000040020ED4400086F1E00086F1E000869
:100010006F1E00086F1E00086F1E00086F1E00088C
:100020006F1E00086F1E00086F1E00080B110008ED
:100030006F1E00086F1E00086F1E00086F1E00086C
:100040006F1E00086F1E00086F1E00086F1E00085C
:100050006F1E00086F1E0008293E0008573E00086A
:10006000853E0008B33E0008E13E0008DD120008AE
:10007000EF120008011300081313000825130008ED
:1000800037130008491300086F1E00086F1E000890
:100090002B2700086F1E00086F1E00080F3F000886
:1000A0006F1E0008BD4000086F1E00086F1E00088C
:1000B000E1150008CF4000086F1E00086508000821
:1000C00077080008A1080008B30800086F1E0008A0
:1000D0006F1E0008FF4200086F1E00086F1E000818
:1000E000853F00086F1E00086F1E00086F1E000885
:1000F0006F1E00086F1E00086F1E00086F1E0008AC
:100100006F1E00086F1E00086F1E00086F1E00089B
:100110006F1E00086F1E00086F1E00086F1E00088B
:100120005B1300086D1300087F130008911300088B
:100130006F1E00086F1E00086F1E00086F1E00086B
:100140006F1E00086F1E00086F1E00086F1E00085B
:100150006F1E00086F1E00086F1E00086F1E00084B
:100160006F1E00086F1E00086F1E00086F1E00083B
:100170006F1E00086F1E00086F1E00086F1E00082B
:100400000101000025080501081880B27047401A54
:10041000511A80B289B2884201D2012000E0002046
:10042000C0B2704780B500F02DFC02BD80B5202021
:1004300080F3118800F057FC01BD80B500F058FC36
:10044000002080F3118801BD80B5202080F3118841
:1004500000F053FC01BD80B500F054FC002080F397
:10046000118801BD80B5FFF7DDFF02BD80B500F04A
:1004700003FD01BD80B5FFF7D9FF01BD80B5FFF7D2
:10048000DCFF01BD80B5FFF7DFFF01BD80B5FFF7E1
:10049000E2FF01BD80B5FFF7E5FF02BD80B580B288
:1004A000FFF7B2FF02BD80B592B289B280B2FFF70A
:1004B000AEFF02BD80B500F0C8FD02BD80B500F002
:1004C000D5FD01BD416B4FF400420A6000220A6075
:1004D00000224A6000224A61016B496809680909E3
:1004E0000901026B526811600E22016B91F90D1027
:1004F00012FA01F1036B1B685960C16A4968096807
:1005000009090901C36A5B681960C16A91F90D1094
:100510008A40C06A00684260704730B4416B4268EC
:1005200052684068047A4B684FF6C07003404B60D5
:10053000486850F03F004860002340F6FF70DFF845
:100540004455AA420ADADFF84005520090FBF2F067
:100550000005000D03432520086220E0DFF82C553C
:10056000AA421CDA2500EDB2022D06D1DFF81845AB
:100570000320424394FBF2F00AE0E4B2032C07D1DB
:10058000DFF804451920424394FBF2F053F4804312
:100590000005000D50F4004003430B2008629BB29D
:1005A000CB6130BC7047416B406800780A68C0B2CC
:1005B000012804D00FD303280BD004D30BE04FF64F
:1005C000F570024007E052F002024FF6F770024069
:1005D00001E052F00A0292B20A60704770B506005C
:1005E000746BA069656955EA004020F07F405FF0B8
:1005F0000111401A0ED05FF40031401A0AD0401E9B
:1006000023D0801F1CD0DFF88814401A37D0801EFA
:1006100042D062E0308C80B2000A80B201280CDB4C
:10062000308C001210F0060096F8201011F0010135
:10063000084350F0F000206101E0308C20614CE074
:10064000308CC0F34700206147E0606830F40070F0
:100650006060F06A4068006850F00100F16A496823
:100660000860606850F480506060F06A40684068DC
:10067000022803D2206830F4806020602DE060689A
:1006800030F400706060306B4068006850F001002A
:10069000316B4968086020E02069F06A4068406872
:1006A000002808D0308C50F001003084206850F4CD
:1006B000A06020601BE0606830F40070606020681B
:1006C00050F400702060FFF7DDFE002116F11C00E1
:1006D000FFF7F4FEFFF7DAFEFFE715F00A0F00D090
:1006E000A069E80503D5606930F48070606170BD71
:1006F00038B50400656B080703D5DFF89803FFF7EA
:10070000B5FEE06A4068006800090001E16A4968D6
:1007100008600E21E06A90F90D008140E06A0068EF
:100720004160686830F480506860286830F4806008
:100730002860286850F400702860FFF7A3FE0021AD
:1007400014F11C00FFF7BAFEFFF7A0FE31BD38B56B
:100750000400656B080702D5CE48FFF787FE206BC3
:100760004068006800090001216B496808600E219B
:10077000206B90F90D008140206B00684160686833
:1007800050F40070686031BD10B50400206B406803
:10079000006800090001226B526810600E22206B75
:1007A00090F90D0012FA00F0236B1B685860E06AA4
:1007B0004068006800090001E36A5B681860E06A4D
:1007C00090F90D008240E06A006842600020A0605D
:1007D000C80509D5A06850F00100A060606B4069B1
:1007E00030F48070626B5061880503D5A06850F0CA
:1007F0000200A06048050FD5606B406830F40070BF
:10080000626B5060606B006850F40070626B106047
:10081000A06850F00400A060080503D5A06850F05F
:100820000800A060480403D5A06850F02000A06034
:10083000C80403D5A06850F01000A060080403D5D8
:10084000A06850F04000A060A068002809D0FFF721
:1008500019FE7FF0010114F11C00FFF72FFEFFF7D6
:1008600015FE10BD80B500F022FA8B48FFF7B6FEEA
:1008700000F076FC01BD38B5874D686B446900F027
:1008800016FA200080B210F45F40C043696B4861E3
:10089000210089B22800FFF777FF00F061FC31BD2D
:1008A00080B500F004FA7D48FFF798FE00F058FC90
:1008B00001BD38B5794D686B446900F0F8F9200046
:1008C00080B210F45F40C043696B4861210089B277
:1008D0002800FFF759FF00F043FC31BD10B56E4C06
:1008E000200000F09DFC0020E0616D486063002066
:1008F000E06200202063694C200000F091FC0020A1
:10090000E061684860630020E0620020206310BD61
:1009100038B50400656B2078012865D19A20A06263
:100920008A2060625C48A0422DD15F48016851F482
:1009300000110160016831F40011016000682300BA
:100940005A4A0521062000F049FDE0622300584A7A
:100950000521052000F042FD20635648016851F44E
:1009600000110160006805211F2000F0F3FD052142
:10097000202000F0EFFD606A50F440506062A06AF1
:1009800050F44050A0624548A0422DD1464801682D
:1009900051F480010160016831F480010160006858
:1009A0002300424A0521042000F018FDE0622300E4
:1009B0003F4A0521032000F011FD20633D480168F6
:1009C00051F48001016000680521212000F0C2FD82
:1009D0000521222000F0BEFD606A50F440506062A4
:1009E000A06A50F44050A06215F11000E16A496815
:1009F000886015F11000216B496888604FF4004051
:100A00002860002028604FF4106068602000FFF725
:100A100084FD2000FFF7C7FD286850F00100286022
:100A200031BD10B50400207801282AD02000FFF73E
:100A300049FD206B00F01FFDE06A00F01CFD002066
:100A400020630020E0621448A0420BD11F2000F078
:100A500098FD202000F095FD1648016831F4001142
:100A6000016000680D48A0420BD1212000F089FDF3
:100A7000222000F086FD0F48016831F480010160FA
:100A8000006810BDA186010000512502811A0600F0
:100A90007A0004005C470008181000205010002065
:100AA000005400400058004010100240F1060008B9
:100AB0004F0700081C1002402DE9F84304001600FF
:100AC0001F00DDF82080DDF82490656B0020A06019
:100AD00049002184FFF7D2FCA06A216B49680860B5
:100AE000206B4068C660206B40684760606AE16ABE
:100AF00049680860E06A4068C0F80C80E06A4068B5
:100B0000C0F80490FFF7C6FC06006421300080B2F4
:100B1000FFF7C4FC07000CE0FFF7BCFC3A0092B200
:100B2000310089B280B2FFF7BEFC00283AD0FFF74F
:100B3000A5FCFFF79FFCA8698007EDD42868800515
:100B4000EAD40A99686850F400706860286850F424
:100B50008070286014F11C00FFF7ACFC00281FD047
:100B6000216B4968096809090901226B5268116003
:100B70000E22216B91F90D1012FA01F1236B1B6803
:100B80005960E16A4968096809090901E36A5B6813
:100B90001960E16A91F90D108A40E16A09684A60BA
:100BA000BDE8F283206B4068006800090001216BFA
:100BB000496808600E21206B90F90D0011FA00F0D1
:100BC000226B12685060E06A40680068000900010A
:100BD000E26A52681060E06A90F90D008140E06AB4
:100BE000006841605FF0FF30DAE730B4002513E0C1
:100BF00050F8042BD30744BFA9F101039A18091F29
:100C0000042942F8045BFAD213468C0744BF1580CE
:100C10009B1CC90748BF1D7050F8041B0029E7D171
:100C200030BC70470A48006880B2704780B20949FA
:100C300008600020084908600220084908607047E1
:100C4000002006490860704780B20249086070477A
:100C50002400004034000040100000400C00004020
:100C600080B500F0C5FC01BD80B580B2FFF7DEFFA6
:100C700001BD80B5FFF7E4FF01BD80B580B2FFF78D
:100C8000E3FF01BD80B5FFF7CDFF02BD10B5204CDD
:100C90000020C4F898000020C4F89C0014F1A000C3
:100CA00000F02EFD14F1B80000F02AFD10BD202048
:100CB00080F311881648D0F89810491CC0F8981095
:100CC000002080F31188704780B50A001049D1F8E0
:100CD0009C305B1CC1F89C3010F1480112F14800B7
:100CE00000F029FD01BD80B50A4800F017FD01BDE7
:100CF00080B5084800F016FD01BD80B5064800F03B
:100D00000DFD01BD80B5044800F00CFD01BD0000E3
:100D100008050020A8050020C0050020081880B2A2
:100D20007047081A80B2704780B5FFF7A2FF01BD77
:100D300080B580B2FFF7A1FF01BD80B5FFF7A2FF2C
:100D400002BD002080F3118862B6704780B5202074
:100D500080F31188FFF7D1FF01BD80B5FFF7D2FF07
:100D6000002080F3118801BD80B5FFF7E6FF02BDCA
:100D7000F8B5454CE569FFF7F7FF0700390089B280
:100D8000208DFFF7CEFF0600A868864205D2E069F5
:100D900014F11C0188421FD13EE0218DA868411842
:100DA0002185A868361A14F11C0029684860296852
:100DB000E161EF680021E960E169814201D1FFF75B
:100DC000B3FFFFF7CAFF2869B847FFF7BFFFE56920
:100DD000A8688642E1D2CEE7208D30182085E069F0
:100DE0008068861BE0698660390089B2208DFFF734
:100DF00098FF0100A868411A022901D2022104E0EB
:100E0000B1F5803F01D34FF6FF71380080B2FFF794
:100E100085FF80B2FFF78CFFF1BD80B500F0A6FC26
:100E200000F0D6FC00F0F1FC01BDFEE710B500F0CB
:100E300052FD00F083FEFFF7F0FF00F049FCFFF7E2
:100E400025FF114C8022114914F1300000F06CF89C
:100E5000A0610F48A169C8610120A16981F8200043
:100E600000F061F9A069483000F058FCFFF769FF15
:100E7000084800F09FF810BD72B60349C862FEE74B
:100E800080B5FFF775FF01BD08050020E8460008A2
:100E9000000400200047000800607047016881429C
:100EA00001D0012000E00020C0B270470060406027
:100EB00070470168814201D0012000E00020C0B2EB
:100EC00070470100086802680A60704701604A685C
:100ED000426042681060486070470100086802681C
:100EE0000A600A685160704780B5202080F311883D
:100EF000FFF7F9FE01BD80B5FFF7FAFE002080F391
:100F0000118801BDDFF8A0018069704780B501003C
:100F1000082000F051FD01BD10B50C00FFF7DDFF0A
:100F2000446200F0E2FC10BD10B50400A260022093
:100F300084F82000002084F82100E2630020A063F0
:100F400000206063012084F82200A161DFF85801CD
:100F500020614169616161690C61446114F128009B
:100F6000FFF79AFF14F12C00FFF7A0FF14F14800DF
:100F700000F0C6FB200010BD01E00270401C88425A
:100F8000FBD3704780B58168B1F160034168D961D6
:100F9000B3F16401D9600169DA6811644169DA6802
:100FA00051644249DA681166C26801681800FFF7A7
:100FB000BBFF02BD10B504005522A1686068FFF7B1
:100FC000DBFFFFF791FF2000FFF7DCFF04000021AB
:100FD000200000F013FDFFF78EFF200010BD10B5BC
:100FE0000400FFF781FF200000F001F810BD10B5EC
:100FF0002D498C69606205E014F12800FFF761FF5C
:1010000000F073FC14F12800FFF748FF0028F3D12B
:1010100094F8220000280AD194F8210010F0030F60
:1010200005D12069616908616069216948610F2003
:1010300000F07BFC10BD10B50400FFF755FF200049
:10104000FFF764FFFFF757FF10BD38B505000C0030
:10105000FFF758FF002C02D15FF0FF3005E0286059
:1010600045622100032000F0A7FC32BD80B5026874
:10107000002A06D00268002303605162100000F0CD
:1010800034FC01BD10B50C00002C02D15FF0FF3024
:1010900008E0010004488069FFF718FF21000420E0
:1010A00000F08AFC10BD000008050020491E000861
:1010B00038B504000D002000FFF7FBFE002803D028
:1010C00029002000FFF728FF31BD000010F00700C5
:1010D000354B1A684FF6FF010A40344951EA0021A6
:1010E0000A431A607047020052B2002A04D4090170
:1010F0002F4A40B2115407E009012E4A40B210F0C5
:101100000F00104400F8041C7047EFF309806830AA
:1011100029490A68520852000A6080F309880020B1
:1011200080F31188704780B5202080F3118862B663
:101130000320FFF7CBFF2148016851F08071016067
:101140001F48016851F00101016001217FF0040096
:10115000FFF7C9FF02217FF00100FFF7C4FF01BDC7
:1011600010B5202080F3118816480068000517D5B7
:10117000F1EE100AEFF30980683804005FF0807127
:10118000E16111490968216680F3098800F064FC77
:10119000002802D00D48A06101E00D48A06102E0E6
:1011A000002080F3118810BD0CED00E00000FA056E
:1011B00000E400E018ED00E034EF00E0FCED00E0BA
:1011C000001000E004ED00E03CEF00E05F1E0008CE
:1011D0006B1E000880B5202080F31188FFF783FD87
:1011E00001BD80B5FFF784FD002080F3118801BDAB
:1011F00080B5FFF7EFFF01BD80B5FFF7F2FF01BD3E
:1012000080B500F08FFD01BD80B500F093FD01BDFC
:1012100080B500F0D3FD01BD80B5FFF75FFB01BDD8
:1012200080B501210170002141600C30FFF7E8FF1B
:1012300001BD38B504000D00FFF7DAFF656020003E
:10124000FFF766FB02202070FFF7D6FF31BD10B517
:101250000400FFF7CDFF2000FFF7E3FB00206060F4
:1012600001202070FFF7C8FF10BD2DE9FF470400E3
:101270000D0016001F00DDF83080DDF83490DDF839
:1012800038A0FFF7B5FF0020A06003202070CDF844
:1012900008A0CDF80490CDF800803B003200290072
:1012A00089B22000FFF708FC050015F1010F02D1FB
:1012B0000520207001E002202070FFF79DFF28002C
:1012C00004B0BDE8F08780B50C30FFF79DFF01BD8D
:1012D00080B50C30FFF79CFF01BD000080B5FFF723
:1012E000E6FC8D4800F0F9F8FFF73AFF01BD80B544
:1012F000FFF7DDFC894800F0F0F8FFF731FF01BD92
:1013000080B5FFF7D4FC864800F0E7F8FFF728FF28
:1013100001BD80B5FFF7CBFC824800F0DEF8FFF797
:101320001FFF01BD80B5FFF7C2FC7F4800F0D5F874
:10133000FFF716FF01BD80B5FFF7B9FC7B4800F051
:10134000CCF8FFF70DFF01BD80B5FFF7B0FC784882
:1013500000F0C3F8FFF704FF01BD80B5FFF7A7FC5D
:10136000744800F0BAF8FFF7FBFE01BD80B5FFF747
:101370009EFC714800F0B1F8FFF7F2FE01BD80B5A8
:10138000FFF795FC6D4800F0A8F8FFF7E9FE01BDF6
:1013900080B5FFF78CFC6A4800F09FF8FFF7E0FE8D
:1013A00001BD10B46749002008600020486000209B
:1013B0000AE00022584B040123445B681A600022B3
:1013C00001EBC0039A60401C0B28F2DB5FF0FF309A
:1013D0005D4908605D49086010BC7047F8B50B288E
:1013E00001D2070002E0002044E07F1CB84240D355
:1013F0000124BC40534D2E682642F6D146483E019A
:10140000064405EBC700826005EBC700C36028688F
:101410002043286014F07F0F05D04D48036853F037
:1014200001030360006814F4F06F05D048480368B6
:1014300053F0020303600068002A09D06868B268AC
:10144000104202D1F07B00F085F8686804436C60BC
:101450007068006800090001716808600E2196F943
:101460000D008140306841600020716808603000E4
:1014700000E00020F2BD38B5857B0122314C2368A5
:1014800012FA05F18B4323606168AA4031EA020237
:10149000626061688268114202D1C07B00F071F81D
:1014A000002004EBC5018860002004EBC501C86082
:1014B000207810F07F0F05D12548016849084900C0
:1014C00001600068206810F4F06F05D120480168C1
:1014D00031F002010160006831BD80B5827B016896
:1014E0000968437BD94011F00E0143681B6819421B
:1014F00011D0437B11FA03F300684360114B03EBF7
:10150000C2008068002806D003EBC200C06803EB6D
:10151000C2029268904701BD3C4400084C44000858
:101520005C4400086C4400087C4400088C440008BB
:101530009C440008AC440008BC440008CC440008AB
:10154000DC4400083413002004000240040402407C
:101550001410024010B40901104A1154012210F075
:101560001F0112FA01F10E4B0400640943F8241024
:1015700010F01F018A400B49400941F8202010BC9F
:101580007047012210F01F018A40074903005B09E0
:1015900041F823200021014A1154704700E400E083
:1015A00080E200E000E100E080E100E080B5202082
:1015B00080F31188FFF7A1FB01BD80B5FFF7A2FB07
:1015C000002080F3118801BD80B5FFF7EFFF01BD5A
:1015D00080B5FFF7F2FF01BD80B5FFF751FC01BDFB
:1015E00080B5FFF764FB00F041F8FFF7B9FD01BDDE
:1015F00080B51548016851F0010101600068134889
:10160000016851F40061016048F69F40104908608C
:101610004FF6FF700F49086000200F490860002056
:101620000E49086000200E49086000200D4908603E
:1016300001200D49086001205FF080410860082109
:101640001C20FFF787FF01BD1C100240042004E0AE
:10165000280000402C0000401800004034000040EA
:101660000C000040040000401400004080B55FF012
:1016700080410869CA6802F0FF021040C2430A6153
:10168000800705D5FFF7A0FFFFF7A6FFFFF7A0FF34
:1016900001BD010030B4C3685B1CC3608368C91A14
:1016A000891A8160D0E9044582680023A2186B4141
:1016B000C0E9042341688268914201D28168416097
:1016C00081680268914201D28168016030BC704734
:1016D00038B586B01C4D0020C5F89000684600F073
:1016E0000FF80424684600F019F8684600F01AF86C
:1016F000641E002CF6D10098C5F8900007B030BDEC
:101700005FF0FF3101600021416000218160002114
:10171000C16000220023C0E9042370470B49096817
:101720008160704780B509490968074AD2F890205E
:10173000FFF7B0FF01BD80B5044A12688A6000223D
:101740008968FFF7A7FF01BD08050020041000E02D
:1017500080B5202080F31188FFF7C5FA01BD80B560
:10176000FFF7C6FA002080F3118801BD164817491B
:10177000016011F500614160704710B4124B5C6864
:1017800040422044491E30EA0101524201EB02006E
:101790001A68904202D35A68824201D2002001E0C6
:1017A0005860080010BC704770B504000D001600AA
:1017B000FFF7CEFF320029002000FFF7DEFF040014
:1017C000FFF7CDFF200070BDA0070020A807002074
:1017D00080B5054805490160002141600021816014
:1017E0000C3000F09FFA01BDA80F0020A9170008D7
:1017F00080B50022FFF7C1FF02BD80B513000422AF
:1018000000F00EFB01BD0060704738B5144C20009D
:1018100000F088FA14F11000FFF7F5FF114D2A00CF
:10182000142114F11400FFF7E8FF14F12400FFF76E
:10183000EAFF14F12800FFF7E6FF2A001C2114F14B
:101840002C00FFF7DAFF14F13C00FFF7DCFF14F186
:101850004000FFF7D8FF14F14400FFF7D4FF31BD7B
:1018600058070020F1170008006040607047010031
:10187000086802680A600A68516070470168426837
:10188000116041680268516070479B4881698968AE
:1018900000688068814201D2012000E00020C0B2CF
:1018A000704780B5202080F31188FFF726FA01BD2C
:1018B00080B5FFF727FA002080F3118801BDC068CA
:1018C000002801D0012000E00020C0B270478168EC
:1018D000491C8160704710B5874C2000FFF7C4FF9A
:1018E0000020A0602461646110BD002180F82010F8
:1018F000814909688A6883689A42FAD201604A6815
:1019000042604268106048607047002180F82010F3
:101910007949096882688B689A42FAD301604A68FB
:101920004260426810604860704738B5724DAC69DB
:1019300084F820002800FFF79AFFA8610120A96918
:1019400081F820002100A869FFF7BEF9EFF30980B4
:101950006438E169884202D26848FFF78DFA2100B5
:10196000A86900F065FA31BD10B50400FFF799FFD2
:1019700094F82000002808D0032809D004280ED0AD
:10198000052809D007280AD00DE0FFF791FF12E0E3
:101990000020616A086006E0606AFFF798FF200097
:1019A000FFF76CFFFFE75FF0FF3060622000FFF79A
:1019B0009CFFFFF77DFF10BD18B585B0040011F145
:1019C000010F12D04C4883694D4A684600F0C1F8B7
:1019D0002000C0B2FFF7A9FF6846FFF770FF00289C
:1019E00007D0684600F013F903E02000C0B2FFF70B
:1019F0009CFF41488069406A06B010BD70B5040084
:101A00003D4EB06961628168A268914203D32000B3
:101A1000FFF76BFF17E0FFF778FF0500B4610120C7
:101A200084F8200029002000FFF74EF9EFF3098029
:101A30006438E969884202D23048FFF71DFA29006C
:101A4000200000F0F5F970BD80B5FFF71EFF0028FB
:101A500001D000F00DF801BD274908688068896948
:101A60008968814201D2012000E00020C0B27047A5
:101A700038B5214DAC692800FFF7F9FEA8610120B7
:101A8000A96981F820002000FFF73FFF0400210032
:101A9000A869FFF719F9EFF309806438E169884212
:101AA00002D21648FFF7E8F92100A86900F0C0F952
:101AB00031BD38B5104DAC692800FFF7D8FEA861DC
:101AC0000120A96981F820002000FFF71EFF040013
:101AD0002100A869FFF7F8F8EFF309806438E1699D
:101AE000884202D20548FFF7C7F92100A86900F033
:101AF0009FF931BD000000000805002040470008A4
:101B000069190008081880B27047081A80B2704737
:101B100080B580B2FFF7A8F801BD80B5FFF7A9F83E
:101B200001BD80B580B2FFF7A8F801BD80B5FFF711
:101B3000A9F802BD80B5FFF7F9FF02BD5A4810F1C0
:101B40001C01C16101625FF0FF314162002101852A
:101B500070472DE9F04104000D002361E260FFF7BA
:101B6000E9FF8046022D00D202254F4E16F11C00DF
:101B7000F169884213D1A6F82880F46134622060AC
:101B80006060A560B5F5803F01D34FF6FF75290071
:101B9000308DFFF7B7FF80B2FFF7BAFF35E0F76986
:101BA000414689B2308DFFF7B0FF2D18414689B20A
:101BB000308DFFF7AAFF854203D2B8682D1A3F681F
:101BC00012E0B86885420FD22900B1F5803F01D3F9
:101BD0004FF6FF71308DFFF795FF80B2FFF7A1FF41
:101BE00002E0B8682D1A3F68B868A842F9D32760A8
:101BF000206840686060606804607C60A560B868C8
:101C0000451BBD605FF0FF307062BDE8F08110B52C
:101C1000254CE169814213D0016842681160416836
:101C2000026851600021C16014F11C0102689142F8
:101C300005D001688A6881688A180068826032E08D
:101C40000168E16114F11C01E26951600022C26087
:101C5000E269914202D1FFF760FF24E0E1698968FF
:101C600080684118E0698160FFF764FF010089B274
:101C7000208DFFF74AFFE1698968884213D2E16944
:101C80008968091A022901D2801C05E04018B0F5C4
:101C9000803F01D34FF6FF700100208DFFF732FF28
:101CA00080B2FFF73EFF10BD0805002000604060D5
:101CB00070470168814201D0012000E00020C0B2DD
:101CC000704710B40A0012688A4203D0936884688F
:101CD000A342F8D2026051684160416808605060D8
:101CE00010BC70470100086802680A600A68516009
:101CF000704701684268116041680268516070472E
:101D000080B5202080F31188FEF7EDFF01BD80B57E
:101D1000FEF7EEFF002080F3118801BD80B5FFF7CC
:101D2000C8FF02BD10B504002000FFF7BFFF002070
:101D3000A06010BD10B50400FFF7E2FF200000F026
:101D400003F8FFF7E4FF10BD70B504003348856960
:101D5000A06800282DD0A66807E03000FFF7C9FF73
:101D6000716AFFF7AEFF706A8668B068A96888423A
:101D700016D2A868B06096F8200000280AD006287D
:101D8000EBD007280CD13000FFF7B3FF716AFFF7E3
:101D900098FF05E03000FFF7ACFFFFF7A6FDFFE777
:101DA00021002800FFF78DFF6C620620FFF7BDFDC4
:101DB00003E0A560A86BE060AC6370BDF8B50500FA
:101DC00016488669FFF79CFFE868B0632800FFF7B4
:101DD000A5FF00281DD0F76BB46B0BE02000FFF7C8
:101DE0009DFF002805D020688068874201D22068C6
:101DF0008768E468002CF1D1B7602800FFF772FF14
:101E0000A860816BE9608563FFF76FFDFFF71CFE3B
:101E100001E00020A860FFF77AFFF1BD080500206F
:101E200010B40024046041608260C36010BC70473D
:101E30002DE9F04F2DED108AC1F80CD0C3689D46F6
:101E4000BDEC108ABDE8F08FFEF752FF002383F34C
:101E500011882846A0470020FFF7C1F8FEE7FEF7EB
:101E600042FFFFF726FEFEF743FF00DFFEE7FEE737
:101E700080B5202080F31188FEF73FFF01BD80B5BB
:101E8000FEF740FF002080F3118801BD80B5FFF709
:101E9000EFFF01BD80B5FFF7F2FF01BD010008783B
:101EA000491C097850EA012080B2704710B504003F
:101EB00094F8760084F87E00200000F0ABFC6068A7
:101EC0000068002804D00121200062681268904751
:101ED0000320207010BD38B5040094F8740010F091
:101EE0007F0094F8751050EA012000282AD00128BC
:101EF00000F0B980022800F0BE80B0F5807F2AD0C3
:101F0000B0F5817F00F0F780B0F5407F38D040F227
:101F10000231884200F01581B0F5A06F44D0B0F5D1
:101F2000C06F4AD040F20161884246D0B0F5006FE0
:101F30005DD0B0F5106F63D040F60241884200F0EA
:101F4000928024E114F17C00A0660220E06600206B
:101F5000206701201CE194F8760001280ED1B4F826
:101F60007C104FF6FD700140A4F87C100020A066A4
:101F70000020E06600202067012009E1002007E141
:101F800094F8760001280DD1B4F87C0050F00200DE
:101F9000A4F87C000020A0660020E06600202067F6
:101FA0000120F5E00020F3E00020A0660020E066BC
:101FB000DFF88C0220670120EAE014F17800FFF7D7
:101FC0006DFF03009BB294F8762094F87710200000
:101FD00065686D68A847002801D10020D8E04168F5
:101FE000A1660068E066002020670120D0E014F1BF
:101FF0007F00A0660120E066002020670120C7E086
:102000002078042814D1FFF741FF200000F0DBF80E
:10201000FFF740FF002084F87F00032020706068F5
:102020000068002804D003212000626812689047ED
:1020300094F8760000280ED094F8760084F87F009B
:102040000420207060680068002804D0022120006D
:102050006268126890470020A0660020E0660020B9
:102060002067012094E07748A0660220E066002007
:10207000206701208CE094F8780000061DD594F8C4
:10208000781011F00F01200000F077FC012802D039
:10209000022808D00FE06C48A0660220E06600200D
:1020A0002067012074E06948A0660220E0660020F5
:1020B000206701206CE000206AE094F8781011F0AD
:1020C0000F01200000F047FC012802D0022808D0B0
:1020D0000FE05D48A0660220E06600202067012036
:1020E00056E05A48A0660220E066002020670120E2
:1020F0004EE000204CE094F87600002801D000204B
:1021000046E094F8780010F00F0F12D094F87800A1
:10211000000607D594F8781011F00F01200000F0A8
:10212000EAFC06E094F8781011F00F01200000F0AE
:10213000CAFC0020A0660020E06600202067012085
:1021400026E094F87600002801D0002020E094F8E2
:10215000780010F00F0F12D094F87800000607D521
:1021600094F8781011F00F01200000F09BFC06E0BD
:1021700094F8781011F00F01200000F082FC00208C
:10218000A0660020E06600202067012000E000201B
:1021900032BD80B500F014FB01BD012101700021AA
:1021A0004160002108E0002200EB8103DA62002296
:1021B00000EB81039A64491C0729F4D300210181B3
:1021C00000214181704780B5017A11F00101018140
:1021D000817A11F001014181012104E0002200EB2C
:1021E0008103DA60491C0829F8D300F0A1FB01BD86
:1021F00038B5448901258D402C4344810C00E4B25C
:1022000000EB8404E468A469A26023600022626099
:10221000C9B200F0D7FB31BD38B5048901258D4026
:102220002C4304810C00E4B200EB8404E46864698C
:10223000A260236000226260C9B200F0F4FB31BDED
:10224000AD1E0008CA10000892160008DA12000835
:1022500010B50400022020700020A4F87C000020AB
:1022600084F87E00002084F87F0000202081002078
:102270006081002004E0002104EB8002D160401C5A
:102280000828F8D3002084F86400200000F09EFAAB
:1022900060680068002804D000212000626812688D
:1022A000904710BD10B50400207884F88000052008
:1022B000207060680068002804D004212000626853
:1022C00012689047002020810020608110BD80B5F9
:1022D00090F88010017041680968002903D0052139
:1022E00042681268904701BD10B5040094F864007C
:1022F000002802D0002084F8640014F17402C9B2EE
:10230000200000F04BFB60688068002805D02000AA
:1023100061688968884700281ED194F8740010F01D
:10232000600F04D12000FFF7D6FD002814D1002152
:10233000200000F0B7FB0021200000F0A2FB606845
:102340000068002804D006212000626812689047C7
:10235000062084F8640048E014F17A00FFF79EFD3F
:10236000E16E884200D2E06694F8740000061ED543
:10237000E06E00280DD0092084F86400FFF786FD88
:10238000E36EA26E00212000FFF746FFFFF782FDFB
:102390002BE0142084F86400FFF778FD002300226E
:1023A00000212000FFF724FFFFF774FD1DE0E06E21
:1023B00000280DD0152084F86400FFF767FDE36E58
:1023C000A26E00212000FFF713FFFFF763FD0CE072
:1023D0000B2084F86400FFF759FD00230022002140
:1023E0002000FFF719FFFFF755FD10BD10B50400E1
:1023F00094F86400002842D0062840D0092808D06C
:102400000A2824D00B2830D0142838D0152836D0EC
:102410004AE014F17A00FFF741FDE16E814216D2E5
:10242000E06EE168098AB0FBF1F201FB12000028BE
:102430000DD1FFF72BFD0023002200212000FFF724
:10244000EBFEFFF727FD0A2084F864002CE014203F
:1024500084F86400FFF71AFD002300220021200009
:10246000FFF7C6FEFFF716FD1EE0206F002802D022
:102470002000216F8847002084F8640014E00021C8
:10248000200000F00FFB0021200000F0FAFA606845
:102490000068002804D00621200062681268904776
:1024A000062084F86400FFE710BD10B5040094F81E
:1024B0006400002825D0801F23D0C01E022820D908
:1024C0000B380FD0401E31D10B2084F86400FFF789
:1024D000DDFC0023002200212000FFF79DFEFFF716
:1024E000D9FC23E0E0688069406800281ED1206F95
:1024F000002802D02000216F8847002084F8640063
:1025000014E00021200000F0CDFA0021200000F0AE
:10251000B8FA60680068002804D0062120006268CC
:1025200012689047062084F86400FFE710BD0000A1
:102530004021C0F8841070470200D2F88400D2F81D
:102540008430491C49084900C918C2F884107047F2
:1025500010B4DFF8D435DFF8D4251268C0B212EB1E
:1025600000129A18906813EB4003D0688005800D24
:10257000020007E01C681B1D0C70491C240A0C702B
:10258000491C921E022AF5D2002A01D01A680A704C
:1025900010BC704730B4DFF89035DFF890452568FF
:1025A000C0B215EB00155D19286813EB4003140049
:1025B0006A6008E00A78481C017852EA0122411C4E
:1025C0001A601B1DA41E012CF4DA30BC70472DE9E3
:1025D000F04104000D00DFF8586556F8258004EB43
:1025E0008500C7685FEA086041D5796956F82520FB
:1025F000DFF84005024052F4004246F825204A68C0
:10260000C86882184A6008684A68821A002A1BD083
:10261000388A904200D23A8A8868CB681844886029
:10262000CA6089682800C0B2FFF7B4FF56F82510C9
:10263000DFF80405014091F0300141F4004151F010
:10264000800146F8251012E020890121A940884325
:10265000208104EB8500C0688068002807D029002D
:10266000C9B2200004EB8502D268926890475FEA05
:10267000084058D556F82510DFF8C004014051F045
:10268000800146F825105FEA085008D52900C9B234
:10269000200004EB8502D2685268904743E0D7F8E7
:1026A0001880D8F808102800C0B2FFF751FFD8F8FA
:1026B00008100144C8F80810D8F804104118C8F8E8
:1026C0000410D8F80010091AC8F80010B8F80C1057
:1026D000491EA8F80C10798A884203D3B8F80C0078
:1026E000002813D160890121A9408843608104EB4F
:1026F0008500C068C068002815D02900C9B2200034
:1027000004EB8502D268D26890470CE056F8251099
:10271000DFF82C04014091F4405141F4004151F0A4
:10272000800146F82510BDE8F08170B5DFF814444B
:10273000FEF7BDFADFF810542E68700505D57FF45A
:10274000806028602000FFF783FD30050BD5DFF89F
:10275000FC03016851F0080101607FF4006028600B
:102760002000FFF79FFDF00410D5DFF8E4030068B8
:10277000000408D4DFF8D403016831F008010160D7
:102780002000FFF7A4FD7FF480502860B00512D52B
:102790006068C068002803D020006168C968884765
:1027A0007FF40070286006E016F00F06310020006C
:1027B000FFF70DFF2E683004F6D4FEF7D1FC70BD94
:1027C00080B5DFF88003FFF7E8FC01BD10B5040019
:1027D0000020DFF8581308600020DFF86C13086051
:1027E0008020DFF8701308604FF41C416068C068F7
:1027F000002801D051F40071DFF85003016020007F
:10280000FFF796FEDFF85003E0600021200000F0A3
:1028100008F810BD90F87E0050F08000CD490860A7
:1028200070472DE9F04106000C002000C0B206EB15
:102830008000C768387810F00300012804D008D35E
:10284000032803D000D304E0002504E04FF4C06562
:1028500001E04FF40075B548D0F800802000C0B208
:1028600018EB001808F1804818F5C048786900286E
:102870000AD00020C8F80400398A3000FFF75CFE57
:10288000C8F8000055F02005B869002822D0788AE1
:102890003F280BDB788A401E50F01F00401C20218F
:1028A00090FBF1F0800250F4004008E0788A401E6E
:1028B00050F00100401C022190FBF1F0800280B238
:1028C000C8F80C00798A3000FFF736FEC8F8080017
:1028D00055F4005596492000C0B251F8200040043C
:1028E00001D555F480452000C0B251F820004006C3
:1028F00001D555F0400548F280022B009BB2200024
:10290000C0B203439548034013432000C0B241F8CE
:1029100020302000C0B251F82030ADB247F6700030
:1029200005405D401543E4B241F82450BDE8F08114
:1029300080B5FFF7FDFD01200AE048F280017C4AE6
:1029400052F820300B4342F8203042F82010401C4F
:102950000828F2D301BD7648C9B250F8210010F41E
:102960004050002803D0B0F5805F02D003E0002083
:1029700002E0012000E0022070476D48C9B250F823
:10298000210010F03000002802D0102802D003E00F
:10299000002002E0012000E0022070476248634B03
:1029A0001B68C9B213EB0113C318996810EB4100FF
:1029B000002104E003681380001D921C491C0429B7
:1029C000F8D3704710B40A00D2B200EB8202D2688A
:1029D00093691A68002A02D10120988111E01A68CF
:1029E0000C00E4B200EB8404E468648A1219521EFD
:1029F0000C00E4B200EB8400C068408AB2FBF0F047
:102A000098814B4A0800C0B252F820304C4803402D
:102A100093F4405343F4004353F08003C9B242F8A7
:102A2000213010BC704710B50C002100C9B200EB7A
:102A30008101C96849690A682300DBB200EB83039E
:102A4000DB681B8A934205D22200D2B200EB8200DF
:102A5000C068028ACA6089682000C0B2FFF79AFD88
:102A600033492000C0B251F820203348024092F090
:102A7000300242F4004252F08002E4B241F82420D5
:102A800010BD2B4A0800C0B252F820302C48034039
:102A900093F4805343F4004353F08003C9B242F8E7
:102AA00021307047224A0800C0B252F82030224834
:102AB000034093F0100343F4004353F08003C9B282
:102AC00042F8213070471A4A0800C0B252F820007C
:102AD00010F44050B0F5405F0CD00800C0B252F87E
:102AE00020301548034043F4204353F08003C9B21B
:102AF00042F8213070470E4A0800C0B252F8200058
:102B000010F0300030280ED00800C0B252F820304B
:102B10000948034093F0200343F4004353F080033B
:102B2000C9B242F82130704700600040505C00405C
:102B3000005C00400F87FFFFBF87FFFF8F07FFFF8D
:102B40008FB7FFFF94120020445C0040405C0040BF
:102B5000485C00404C5C0040A04600088F87FFFFA7
:102B600000E000BF401E0028FBD170472DE9F8416E
:102B70008BB080460C0015000020DFF808643000A0
:102B8000FEF7A1FBDFF800143000FEF752FB002136
:102B9000102000F02AFA3E218DF80C1003AF87F8C0
:102BA00001800200D2B2022103A800F00DFAB87031
:102BB0001FFA88F85FEA182887F8038000220321AB
:102BC00003A800F001FA8DF81000C8200290002040
:102BD000019000200090052303AA08213000FEF791
:102BE00044FB40208DF80C000021102000F0FDF97E
:102BF0000100C9B29DF80C0000F0F7F97870C82008
:102C00000290EDB26D1C01950094022303AA0821E5
:102C10003000FEF72AFB3000FEF719FB3000FEF70C
:102C200057FB0CB0BDE8F0812DE9F04105000E0026
:102C300000220221280000F0C7F9A8700027D34C19
:102C4000200000F044FAD249200000F00EFA5FF0B4
:102C5000000808E018F101084046C0B20B281BDA52
:102C60000120FEF7E8F93800C0B2002814D1102086
:102C7000C84908608020FFF773FF33002A00032152
:102C8000200000F00EFA1020C3490860307829783F
:102C90008842DFD10120FFE7200000F0F4F9200096
:102CA00000F01AFABDE8F0813EB50400BE208DF8B0
:102CB00000006D466C7001A96846FFF7B5FFBF20A4
:102CC0008DF80000A4B2240A6C7001A96846FFF7D1
:102CD000ABFF37BD7CB505000C002000C0B220283A
:102CE00017DA00260FE016F1400050F080008DF852
:102CF00000003000C0B2285C8DF8010001A96846D0
:102D0000FFF792FF761C30002100C0B2C9B28842A2
:102D1000E9D373BDE0B5E0218DF800108DF8010016
:102D200001A96846FFF780FF07BDE0B5E1218DF8F6
:102D300000108DF8010001A96846FFF775FF07BD77
:102D40007CB505000C002000C0B2202818DA00264F
:102D500010E016F140008DF80000FF208DF8010012
:102D600001A96846FFF760FF9DF805003100C9B270
:102D70006854761C30002100C0B2C9B28842E8D342
:102D800073BD38B50C00150080B2FFF78DFF290028
:102D9000C9B22000FFF7D4FF31BD7CB50C0015008F
:102DA000002101008DF800106946020092B2120A5B
:102DB0004A709DF8006049788E19002204E01100E5
:102DC000C9B2615C8E19521C11002B00C9B2DBB272
:102DD0009942F4D3F6B2F64380B2FFF765FF2900BB
:102DE000C9B22000FFF776FF3000C0B2FFF792FFB4
:102DF0002D1D2800C0B2FFF798FF73BDFEB504007B
:102E00000D00160000270EE0381950F080008DF8F4
:102E100000003800C0B2285C8DF8010001A96846A6
:102E2000FFF702FF7F1C38003100C0B2C9B28842F0
:102E3000EAD3F7BDFEB504000D00160000270FE031
:102E400038198DF80000FF208DF8010001A96846AF
:102E5000FFF7EAFE9DF805003900C9B268547F1CEF
:102E600038003100C0B2C9B28842E9D3F7BD80B59D
:102E700080B2FFF719FF01BD38B50C00150080B214
:102E8000FFF712FFC820FEF7D6F82900C9B22000CC
:102E9000FFF756FF31BD10B588B0022269461220F7
:102EA000FFF7C8FF6C469DF80000617850EA0120EA
:102EB000607810F0030001280CD0607810F0FC005E
:102EC0006070607850F00100607002226946122044
:102ED000FFF794FF022269461220FFF7ABFF6078EC
:102EE00010F00300012801D0002049E09020FFF7F6
:102EF000BEFF022269461220FFF79CFF49F23924E7
:102F0000012269462000FFF73CFF9DF800001228CF
:102F10002ED012208DF80000012269462000FFF714
:102F20003CFF012269462000FFF72BFF9DF80000BF
:102F3000122801D0002023E0022269461220FFF768
:102F400079FF9DF80000000612D403226946A020F4
:102F5000FFF792FF9DF80000802809D1A120FFF71C
:102F600086FFC820FEF767F801216846FFF7E8FEF4
:102F70009220FFF77CFF42F6BC10FFF778FF01209C
:102F800008B010BD1810002050470008641200203F
:102F9000184700081408014010080140E0B501225C
:102FA000694649F23920FFF7ECFE9DF800000EBD9E
:102FB00080B588B00122694649F23920FFF7D6FD75
:102FC0009DF8000009B000BD10B405E00A4CD2B273
:102FD00003785A40A25C401C0B00591E9BB2002B88
:102FE000F4D11000C0B210BC7047034AC9B2C0B2DD
:102FF0004840105CC0B270470004002080B520201B
:1030000080F31188FDF76FFE01BD80B5FDF770FEFE
:10301000002080F3118801BD80B5FFF7EFFF01BDEF
:1030200080B5FFF7F2FF01BD80B55FF0FF31FEF71D
:103030000CF802BD80B5FEF775FE01BD80B5FEF748
:1030400079FE01BD80B5FEF7B9FE01BD80B500F087
:10305000D2F801BD80B5012101700021416000213D
:1030600081600C30FFF7E6FF01BD38B504000D00AC
:10307000FFF7D2FF6560200000F0CFF8022020703B
:10308000FFF7CEFF31BD10B50400FFF7C5FF2000EC
:1030900000F02EF90020606001202070FFF7C0FFD3
:1030A00010BDF8B504000D0016001F00FFF7B4FFB7
:1030B000032020703B0032002900200000F03DF981
:1030C00014F10800FFF7B0FFFFF7AAFFF1BD80B5CC
:1030D0000C30FFF7B3FF01BD80B50C30FFF7B2FF36
:1030E00001BD000080B5202080F31188FDF705FEAA
:1030F00001BD80B5FDF706FE002080F3118801BDFB
:1031000080B5FDF7B9FE01BD80B5FFF7EBFF01BD4E
:1031100080B5FFF7EEFF01BD80B5FDF7A7FF01BD4C
:1031200038B504000D00280702D59948FFF7E8FFDD
:103130006068007800281BD0680707D56068406881
:10314000002803D02000616849688847A8074AD54D
:1031500060684068002846D0042020702000616824
:1031600049688847207804283DD1032020703AE040
:10317000606A4068006800090001616A4968086087
:103180000E21606A90F90D0011FA00F0626A12686F
:103190005060206A4068006800090001226A526895
:1031A0001060206A90F90D008140206A006841603B
:1031B0006068406800280BD00420207020006168FF
:1031C000496888472078042804D10220207001E053
:1031D00002202070FFF798FF002114F10800FFF78C
:1031E0009BFFFFF795FF31BD80B5080702D5684802
:1031F000FFF786FF01BD10B5664C2000FFF72AFFE0
:103200006548E061002020620020606241F20A000F
:10321000A06241F21800E06210BD10B504002078F1
:10322000012820D15B48A04213D123005B4A0A2128
:103230000120FEF7D3F820622300594A0A21022018
:10324000FEF7CCF860625748016851F48051016084
:103250000068E0690C30216A49688860E0690C30D8
:10326000616A496888606068008A000508D4A06ABD
:1032700030F47060A062E06A30F47060E06209E0EF
:103280000520A16A60F30B21A1620520E16A60F3C9
:103290000B21E16260680078002808D0A06A50F035
:1032A0002400A062E06A50F02400E06207E0A06A17
:1032B00030F02400A062E06A30F02400E062E069AF
:1032C000006830F04000E16908606068008A50F4EE
:1032D0004170E16908606068408A50F00300E1696C
:1032E0004860E069006850F04000E169086010BD86
:1032F00010B50400207802281ED1E069006830F083
:103300004000E16908600020E16908600020E1698F
:103310004860206AFEF7AFF8606AFEF7ACF800205C
:103320002062002060621B48A04205D11D48016850
:1033300031F480510160006810BD10B4046A646803
:10334000E360036A5B685960836A53F08003046A30
:1033500064682360436A5B68DA60426A526851605D
:10336000C16A51F08001426A52681160016A49687D
:10337000096851F00101026A52681160416A4968A6
:10338000096851F00101406A4068016010BC704753
:103390006847000864120020003001402131000815
:1033A000E93100081810024000604060704780B5A5
:1033B000202080F31188FDF796FC01BD80B5FDF754
:1033C00097FC002080F3118801BD80B5FFF7ECFF6A
:1033D00001BD80B5FFF7EBFF01BD80B5FFF7EEFF44
:1033E00001BD80B5FFF7F1FF01BD80B5FDF74AFED5
:1033F00002BD80B5FDF75CFE01BD2DE9F041040082
:103400000E001500A068A84200D2A5682069A7692F
:10341000C71BBD4208D22A00A169300000F088F91C
:10342000A0692844A06119E0AF4210D23A00A16916
:10343000B046404600F07CF93E44EF1B3A00E1689C
:10344000300000F075F9E0683844A06106E02A0019
:10345000A169300000F06CF9E068A061A068401B31
:10346000A0602800BDE8F0812DE9F04104000E00C5
:103470001500A068A84200D2A56820696769C71B2B
:10348000BD4209D22A0067693100380000F050F9C6
:103490006069284460611CE0AF4212D23A003100FA
:1034A000D4F81480404600F043F906EB0701EF1B07
:1034B0003A00E668300000F03BF9E06838446061AB
:1034C00007E02A0067693100380000F031F9E06850
:1034D0006061A068401BA0602800BDE8F0812DE974
:1034E000F04104000D0016001F00DDF818802000D8
:1034F000FFF777FF0020A060E560A561656105EB3F
:1035000006002061E761C4F82080BDE8F08180B545
:10351000426983699A4204D18268002A01D001225B
:1035200000E00022D2B2002A11D18268521C8260CF
:103530004269531C4361117041690269914201D390
:10354000C16841610021FFF754FF002001E05FF0F6
:10355000FF3002BD70B504000D00FFF73AFFA06810
:1035600000280AD129002000FFF73FFF0600002EA7
:10357000F5D5FFF732FF300016E0A068401EA060CE
:10358000A069411CA1610578A0692169884201D325
:10359000E068A061E069002802D02000E169884766
:1035A000FFF71BFFEDB2280070BD2DE9F0470600C4
:1035B0000F0014009846D6F81CA0A146FFF709FF9B
:1035C0000AE05046002801D03000D047FFF705FF41
:1035D000641B2F44FFF7FDFE002C0DD022003900A4
:1035E0003000FFF70AFF0500002DEAD14146300008
:1035F000FFF7FBFE0028EFD0FFF7EFFEB9EB040466
:103600002000BDE8F0872DE9F04104000D00160010
:103610001F00DDF818802000FFF7E3FEA660E560DC
:10362000A561656105EB06002061E761C4F82080B3
:10363000BDE8F081F8B504000D001600FFF7C9FEE3
:10364000A06800280AD131002000FFF7CEFE070055
:10365000002FF5D5FFF7C1FE380015E0A068401E29
:10366000A0606069411C61610570606921698842E0
:1036700001D3E0686061E069002802D02000E169C0
:103680008847FFF7AAFE0020F2BD10B541698269A4
:10369000914204D18168002901D0012100E000217C
:1036A000C9B2002912D18168491C816081694A1C14
:1036B00082610C7881690269914201D3C16881619C
:1036C0000021FFF796FEE4B2200001E05FF0FF303A
:1036D00010BD2DE9F04706000F0014009846D6F8FB
:1036E0001CA0A146FFF775FE0AE05046002801D055
:1036F0003000D047FFF771FE641B2F44FFF769FECF
:10370000002C0DD0220039003000FFF7ADFE05007F
:10371000002DEAD141463000FFF767FE0028EFD0C8
:10372000FFF75BFEB9EB04042000BDE8F087000062
:1037300062B38B0708D0521E11F8013B00F8013B21
:1037400000F024808B07F6D1830740F0208000BF73
:10375000103A07D330B4B1E83810103AA0E8381066
:10376000F9D230BC530724BFB1E80810A0E8081014
:1037700044BF51F8043B40F8043BD20724BF31F862
:10378000022B20F8022B44BF0B7803707047121FE6
:1037900017D35B0009D151F8043B20F8023B1B0C06
:1037A000121F20F8023BF6D20BE051F8043B00F860
:1037B000013B1B0A20F8023B1B0C121F00F8013BC7
:1037C000F3D238BF121D521E24BF11F8013B00F87E
:1037D000013BF8D8704700002DE9F04100F057F99F
:1037E000FDF724FB9C48016851F0007101609B4F7C
:1037F00007220821380000F0A8F90722102138001C
:1038000000F0A3F907222021380000F09EF90322DE
:103810004FF48071380000F098F903224FF40071E2
:10382000380000F092F9DFF8388206220121404684
:1038300000F08BF906220221404600F086F90622AC
:103840004FF40071874800F080F9874C0220206017
:1038500001202060854D4FF400762E6002224FF447
:103860008071404600F071F906221021404600F0B8
:103870006CF910222021404600F067F90322402114
:10388000404600F062F910228021404600F05DF9C8
:1038900011224021380000F058F91122802138000F
:1038A00000F053F900271AE02020714908600CE06D
:1038B000704FFFF77DFB38703878122802D03878C7
:1038C0001128F1D110206A49086000272E600220DB
:1038D0002060012020604FF4C870FDF7ACFB380079
:1038E000C0B200281CD00A2828D00B2837D00C28BA
:1038F00039D00D2845D00E284AD00F285DD0142885
:1039000070D0152800F07F80162800F084801728DA
:1039100000F08F80182800F097801928C8D0DAE7C7
:1039200055490868C0F30020002800D10A2708681C
:10393000C0F34020002800D11427CCE74E4800688F
:10394000C0F30020002808D10B274C480821016053
:10395000102101602021016000E00027BBE74848FA
:1039600006600C27B7E747480068C0F3002000282E
:1039700001D00D2704E02E6020203D49086000277B
:10398000A9E7414802210160012101600E27A2E759
:10399000384FFFF70DFB38703878122802D038788E
:1039A000112804D1102032490860002704E00220C9
:1039B0002060012020600F278DE72E4FFFF7EEFAE1
:1039C00038703878002803D108202949086002E0BF
:1039D00020202749086002202060012020602E60FE
:1039E000002778E724480068C0F34020002808D169
:1039F0001527224808210160102101602021016063
:103A000000E0002767E702202060012020601C48BA
:103A1000066016275FE71B480068C0F300200028F7
:103A200001D0172704E02E602020114908600027EC
:103A300051E7FFF730FA012801D1182703E02020D1
:103A40000B490860002746E70F4802210160012169
:103A5000016019273FE700BF04000140000C01404E
:103A600000080140001001401408014014100140FA
:103A7000140C014000050020080C0140100C01400E
:103A8000101001400808014010080140704780B53F
:103A9000FFF7FCFF00F0B4F80A4800F015F800F05A
:103AA0001FF900F032F9FDF7B7FB00F07BF9FFF7E3
:103AB000CDFAFEF76EFB00F0B1F900F0B4F9FDF7B6
:103AC000CFF801BD10460008002108E0374A002366
:103AD00042F83130002302EBC1025360491C102927
:103AE000F4D333490A6852F0BD020A6009680168DC
:103AF000304A11608168304A116041682F4A116074
:103B0000C1682F4A116041692E4A116001692E4A2D
:103B1000116081692D4A1160016A2D4A1160C169E5
:103B20002C4A1160416A2C4A1160C16A2B4A11600B
:103B3000816A2B4A1160016B2A4A1160816B2A4A03
:103B40001160406B294908607047F0B4032A01D125
:103B5000016102E0042A00D14161254B9E5C0022F4
:103B6000150014001300002709E0344305E0354335
:103B70005FEA014CF9D452F00F0249007F1C082F74
:103B800009D21B0112012D0124015FEA016CEED460
:103B900053F00F03ECE741680A402243426001689A
:103BA0000B402B430360F0BC7047000088100020DE
:103BB000181002400C0801400408014000080140B0
:103BC0000C0C0140040C0140000C01400C100140A1
:103BD00004100140001001400C1401400414014085
:103BE000001401400C1C0140041C0140001C014059
:103BF0002C4700083048016851F48071016070471B
:103C000080B52E4801685FF0FF3101600268002234
:103C1000026000682A4802680160016800210160B2
:103C200000682848016851F080510160016801680E
:103C300051F0006101600068FFF7DCFFFDF7B1FBA8
:103C400000F0EAF901BD2048016851F0010101606E
:103C500001688907FCD5016801F0FF0101601B497B
:103C600000220A600A6812F00C0FFBD1026852F4BD
:103C70008032026002689203FCD50A6852F4E812AE
:103C80000A60026852F08072026002689201FCD5FC
:103C90000F4A0A6012220F4B1A600A6852F00202A1
:103CA0000A600A6812F00C02082AFAD10168490871
:103CB0004900016070470000007000401010024091
:103CC0000C1002401C100240001002400410024080
:103CD00000441D000020024080B5FEF723F801BD1E
:103CE00080B500F0B7F901BD80B501210170002158
:103CF0004160002181600021C1600021016100213B
:103D000041611830FFF7E8FF01BD80B500F0E8F928
:103D100001BD0121017000214160704700607047C2
:103D200080B5FFF7FBFF01BD80B500F019FA01BDBA
:103D300080B55FF0FF333030FFF7CBFC02BD80B5BC
:103D40005FF0FF330C30FFF730FC02BD80B55FF051
:103D5000FF32C9B23030FFF76DFC02BD80B55FF0B5
:103D6000FF310C30FFF7F6FB02BD80B5C9B2303031
:103D7000FFF760FC02BD80B50C30FFF7EBFB02BD26
:103D800080B53030FFF7A5FC02BD80B50C30FFF7E1
:103D90000CFC02BD002902D0012901D100E0FFE79F
:103DA0000020704780B500F0B3FA01BD7CB5040077
:103DB0000D0016000C482060201DFFF7B1FF012008
:103DC000207200942B00802214F1540114F10C0095
:103DD000FFF785FB00943300802214F1D40114F125
:103DE0003000FFF710FC73BD7846000838B50400BA
:103DF0000D006069002803D10421201DFFF794FF06
:103E00002900C9B214F10C00FFF781FB002804D58A
:103E10004FF48061201DFFF787FF31BD704780B5EB
:103E2000FFF711FF01BD704780B5FCF740FF7749F0
:103E30000868774A126812F0010210400860C00753
:103E400006D574490868002802D048680968884780
:103E5000FDF786F901BD80B5FCF729FF6B490868BD
:103E60006B4A126812F0020210400860800706D503
:103E700068498868002802D0C86889688847FDF7C3
:103E80006FF901BD80B5FCF712FF60490868604A10
:103E9000126812F0040210400860400706D55D4920
:103EA0000869002802D0486909698847FDF758F970
:103EB00001BD80B5FCF7FBFE54490868544A1268FE
:103EC00012F0080210400860000706D551498869C1
:103ED000002802D0C86989698847FDF741F901BD0A
:103EE00080B5FCF7E4FE49490868494A126812F0B7
:103EF000100210400860C00606D54649086A00282E
:103F000002D0486A096A8847FDF72AF901BD10B551
:103F1000FCF7CDFE3D4804683D49096811F478710D
:103F20000C400460A00606D53A49886A002802D0F1
:103F3000C86A896A8847600606D53649086B002832
:103F400002D0486B096B8847200606D53149886B3B
:103F5000002802D0C86B896B8847E00506D52D493B
:103F6000086C002802D0486C096C8847A00506D56B
:103F70002849886C002802D0C86C896C8847FDF7F6
:103F8000EFF810BD10B5FCF792FE204804682049F8
:103F9000096811F47C410C400460600506D51D4998
:103FA000086D002802D0486D096D8847200506D5A8
:103FB0001849886D002802D0C86D896D8847E004D3
:103FC00006D51449086E002802D0486E096E88474D
:103FD000A00406D50F49886E002802D0C86E896EED
:103FE0008847600406D50B49086F002802D0486F47
:103FF000096F8847200406D50649886F002802D03B
:10400000C86F896F8847FDF7ABF810BD14040140F5
:10401000000401408810002080B506210620FDF72D
:1040200099FA06210720FDF795FA06210820FDF7E9
:1040300091FA06210920FDF78DFA06210A20FDF7E5
:1040400089FA06211720FDF785FA06212820FDF7B9
:1040500081FA01BD10B5144C2000FFF745FE13484E
:10406000A0620020E06242F28A502063104801689A
:1040700051F400710160016800210E4A11600E497F
:1040800001220A6009220A600A681207FCD405228C
:104090000A600A685207FCD400220A60016831F401
:1040A00000710160006810BDC40F002000240140B1
:1040B00018100240042401400824014080B5FCF798
:1040C000F6FD0D4800F02DF8FDF74AF801BD80B56A
:1040D000FCF7EDFD094800F024F8FDF741F801BDBB
:1040E00080B505480649C160FFF713FE034805493E
:1040F000C160FFF70EFE01BDF80F00200810002080
:10410000002C0140000400400021C2681160002121
:10411000C2681161C168C968090A0902C068C16042
:10412000704710B50400E0680069E168C96801F0F3
:10413000FF010840C143E2681161C0070FD5207834
:10414000042804D1022020702000FFF7DDFF606802
:104150004068002803D0200061684968884710BD86
:1041600070B505000C002E680CE0F0682043F0608C
:10417000002C02D03069044203D0B168706800F0AE
:1041800004F83668AE42F0D170BD80B5426B114381
:10419000416390F820100A2903D1416B426A114211
:1041A00009D190F820100B2909D1426B416A0A40CD
:1041B000416A8A4203D100214162FDF796FB01BDAD
:1041C00080B5202080F31188FCF797FD01BD80B5F4
:1041D000FCF798FD002080F3118801BD80B5FFF742
:1041E000EFFF01BD80B5FFF7F2FF01BD80B5FFF71E
:1041F000B7FF01BD80B500220B0701D552F0800248
:10420000CB0701D552F020028B0701D552F04002B6
:10421000490701D552F480721100001DFFF7E6FF37
:1042200001BDF8B50400D4F85451EE682F68F805C4
:104230000BD5FFF7D3FF4FF40071201DFFF7D6FF1A
:104240007FF480702860FFF7CDFFFFF7C7FF13E012
:10425000380010F00F0F04D0390089B22000FFF7AA
:10426000C9FF696894F858010140B80603D5C9B27E
:104270002000FFF7BBFD2F68380010F02F0FE7D1AB
:10428000FFF7B0FF700616D5380614D5FFF7A6FF66
:1042900014F13000FFF7F9F9002809D50821201D95
:1042A000FFF7A4FF300080B230F04000E86000E08B
:1042B0006860FFF797FF30061AD5380618D5FFF764
:1042C0008DFF606CA16C884204D1A06B002801D0E6
:1042D000012000E00020C0B2002807D01021201DDE
:1042E000FFF784FFB6B236F08006EE60FFF77AFF84
:1042F000F1BD0E48016851F0C0010160704780B502
:10430000FCF7D5FC0A48FFF78CFFFCF729FF01BD3D
:1043100010B5074C074A00212000FFF747FD02486F
:10432000C4F8540110BD0000003801400C380140B1
:1043300008110020F342000800070E091C1B12158B
:10434000383F363124232A2D70777E796C6B626575
:10435000484F464154535A5DE0E7EEE9FCFBF2F565
:10436000D8DFD6D1C4C3CACD90979E998C8B828555
:10437000A8AFA6A1B4B3BABDC7C0C9CEDBDCD5D245
:10438000FFF8F1F6E3E4EDEAB7B0B9BEABACA5A235
:104390008F88818693949D9A2720292E3B3C353225
:1043A0001F18111603040D0A5750595E4B4C454215
:1043B0006F68616673747D7A898E878095929B9C05
:1043C000B1B6BFB8ADAAA3A4F9FEF7F0E5E2EBECF5
:1043D000C1C6CFC8DDDAD3D4696E676075727B7CE5
:1043E00051565F584D4A4344191E171005020B0CD5
:1043F00021262F283D3A33344E49404752555C5BC5
:104400007671787F6A6D64633E39303722252C2BB4
:104410000601080F1A1D1413AEA9A0A7B2B5BCBBA4
:104420009691989F8A8D8483DED9D0D7C2C5CCCB94
:10443000E6E1E8EFFAFDF4F3FF00000000000240BF
:1044400008000240010000000000000B00000240D4
:104450001C000240020000000004010C00000240A9
:1044600030000240040000000008020D000002407D
:104470004400024008000000000C030E000002404F
:1044800058000240100000000010040F000002401D
:104490006C000240200000000014051000000240E3
:1044A0008000024040000000001806110004024095
:1044B00008040240800000000000073800040240A9
:1044C0001C040240000100000004083900040240FE
:1044D00030040240000200000008093A00040240D3
:1044E0004404024000040000000C0A3B72B6184865
:1044F00080F30888174880F30988022080F3148825
:10450000BFF36F8F14484EF60851CEF200010860D9
:1045100012481349134A91423CBF41F8040BFAE791
:104520001149124A91423CBF41F8040BFAE7104886
:104530001049114A91423CBF41F8040BFAE7FFF7DA
:104540006EFCAFF3008000F019F800F029B800000D
:1045500000040020000001200000000855555555BA
:1045600000000020000400200004002000140020AF
:10457000CCCCCCCC00040020981300204EF68851FF
:10458000CEF20001086840F470000860BFF34F8F5E
:10459000BFF36F8F4FF00070E1EE100A704700001C
:1045A00000F00DF8002801D000F00CF8AFF3008007
:1045B0000020AFF30080FFF70FF900F017F801209B
:1045C0007047000010B5074979441831064C7C4407
:1045D000163404E00A68081D114488470146A142C8
:1045E000F8D110BDE00000000001000000F000B8AC
:1045F0000746384600F002F8FBE7000080B5AFF34D
:104600000080024A11001820ABBEFBE72600020022
:10461000F7FFFFFF808BB3B8B8588888FFFFFFFF14
:10462000888828DD882822223FDFFFFFBBBBBB66CE
:1046300022868B83FFFFFFFF8824288888883883A1
:1046400000000000000000000000000030B450F83E
:10465000041B79B10268436802440830DC0744BF98
:10466000A9F10104E31852F8045B43F8045B091F45
:10467000F9D1ECE730BC704700000000313D000884
:104680003F3D00084D3D00085D3D00086B3D0008C2
:10469000773D0008813D00088B3D0008953D0008EE
:1046A00000000000E9220008ED230008AB24000808
:1046B000400040001C1300201C13002001000000DB
:1046C0002C13002027C5FFFF8C0E000008050020DA
:1046D0000000000079FFFFFF040100005CFCFFFF09
:1046E00000040020000000006D61696E001641307A
:1046F000040260080C1014181C2021220000000085
:1047000074470008D8050020580700200100000069
:104710002B0E000800000000000000000000000058
:10472000000000000000000038000000040204083F
:104730000800030708080808080808080B0F00000D
:10474000737461636B206F766572666C6F770000BF
:1047500001000000A086010001000000444D41203E
:104760006661696C75726500444D41206661696CD3
:0C4770007572650069646C650000000053
:04000005080044EDBE
:00000001FF
