:020000040800F2
:1000000000040020817D00080B4500080B45000816
:100010000B4500080B4500080B4500080B45000880
:100020000B4500080B4500080B4500087B610008E4
:100030000B4500080B4500080B4500080B45000860
:100040000B4500080B4500080B4500080B45000850
:100050000B4500080B450008017300082F730008CA
:100060005D7300088B730008B9730008897000087D
:100070009B700008AD700008BF700008D1700008C8
:10008000E3700008F57000080B4500080B450008F8
:100090000B4500080B4500080B450008E7730008F6
:1000A0000B450008456900080B4500080B45000892
:1000B0000556000817560008295600080B45000889
:1000C0000B4500080B4500080B4500080B450008D0
:1000D0000B4500080B7000080B4500080B45000895
:1000E0005D7400080B4500080B4500080B4500082F
:1000F000576900080B4500080B4500080B45000830
:100100000B4500080B450008515200080B4500083C
:100110000B4500080B4500080B4500080B4500087F
:1001200007710008197100082B7100083D71000863
:100130000B4500080B4500080B4500080B4500085F
:100140000B4500080B4500080B4500080B4500084F
:100150000B4500080B4500080B4500080B4500083F
:100160000B4500080B4500080B4500080B4500082F
:100170000B4500080B4500080B4500080B4500081F
:10018000081A80B2704780B501F034FF02BD80B517
:10019000202080F3118801F05EFF01BD80B501F0E1
:1001A0005FFF002080F3118801BD80B5202080F31F
:1001B000118801F05AFF01BD80B501F05BFF0020FE
:1001C00080F3118801BD0021C160704780B5FFF741
:1001D000DAFF02BD10B50400FFF7F8FF010089B295
:1001E000200080B2FFF7CCFF10BDC068002801D00E
:1001F000012000E00020C0B2704710B504002000CC
:10020000FFF7F3FF002802D0200001F0C4FF10BD6B
:1002100010B50400FFF7BBFF2000FFF7EEFFFFF76C
:10022000BDFF10BDF8B504000D0016001F00200032
:10023000FFF7E3FF3B0032002900200001F04DFFF3
:10024000F1BDF8B504000D0016001F00FFF79FFF79
:100250003B00320029002000FFF7E4FFFFF79EFF7C
:10026000F1BDDFF8040D8069704780B5FFF7F9FF35
:1002700090F82100C0B2800810F0010002BD00001B
:1002800038B5002002F0DFF9C0B2D02800F0E980D4
:1002900001214FF4805002F01DFA012141F20100CA
:1002A00002F018FA8121052002F005FA3221062019
:1002B00002F001FA4FF4FA6141F2020002F00AFA88
:1002C0000221072002F0F7F99FEDA40A46F201008F
:1002D00002F010FA0121082002F0EDF94FF440413C
:1002E00041F21D0002F0F6F94FF4FA7141F21E00DE
:1002F00002F0F0F9002141F2070002F0EBF91E21B3
:1003000041F2080002F0E6F9AA2141F2090002F0E8
:10031000E1F9C82141F20A0002F0DCF94FF448711A
:1003200041F2030002F0D6F940F6282141F2040020
:1003300002F0D0F94FF4616141F2050002F0CAF910
:100340004FF47A6141F2060002F0C4F99FED840A8D
:100350004FF4C04002F0CEF94FF4FA7141F20B00B5
:1003600002F0B8F940F2DC5141F20C0002F0B2F9AF
:10037000C82141F20D0002F0ADF940F6E44421003D
:1003800041F20E0002F0A6F940F6D865290041F2CC
:100390000F0002F09FF94FF47A6141F2100002F071
:1003A00099F97D2141F2110002F094F9FA2141F20C
:1003B000120002F08FF94FF4967141F2130002F02F
:1003C00089F94FF4FA7141F2140002F083F9C8215F
:1003D00041F2150002F07EF9210041F2160002F010
:1003E00079F9290041F2170002F074F94FF47A61AB
:1003F00041F2180002F06EF97D2141F2190002F07D
:1004000069F9FA2141F21A0002F064F94FF4967189
:1004100041F21B0002F05EF94FF4FA7141F21C0048
:1004200002F058F941F2883141F21F0002F052F90E
:1004300041F2EC314FF4815002F04CF94FF400716D
:1004400041F2210002F046F9D021002002F033F9F8
:10045000002001F0F1FF012001F0EEFF062001F085
:10046000EBFF31BD30B402000020002403E013781C
:100470001818521C641C23000D00DBB2EDB2AB4215
:10048000F5D3C0B230BC70477047704770B5FFF706
:100490008CFEDFF8D80A016891F04001016041F25A
:1004A0001E0002F0E2F806000023DFF8C42A140060
:1004B0001D00B6B24FF4FA6240F2E7300021E2FBD1
:1004C00006014FF47A72002302F052FA02000B0088
:1004D00011002B002200DFF8840DFFF7A3FEFFF7C9
:1004E0006BFE70BD10B401000020C9B2002918D104
:1004F00000210A00D2B2092A2CDADFF8642D0B00A1
:10050000DBB252F833309B680C00E4B202EBC40259
:100510005268D340DA0702D401228A401043491CB2
:10052000E7E7002112E0DFF8A82D0B00DBB252F85C
:1005300033309B680C00E4B202EBC4025268D34033
:10054000DA0702D401228A401043491C0A00D2B2C1
:10055000092AE8DB80B210BC7047000000C0644488
:100560001CC7B1407FB5052002F06DF89FED900AE1
:10057000C0F3C1042000C0B200286CD1684600213D
:100580000160002115E0DFF84C2DBDF800300800B7
:10059000C0B232F82000C318ADF800306B465D8859
:1005A0000800C0B2400002EB4000408845195D8061
:1005B000491C0800C0B20828E5DBBDF8000008218E
:1005C00090FBF1F0ADF8000068464188082291FBED
:1005D000F2F14180DFF8945DBDF80010E9844188B4
:1005E00041F6C810414309132986288EC830288651
:1005F000298E41F2050002F08AF941F21F0002F053
:1006000034F8298E80B2814204D28020DFF8C81CE1
:1006100008600BE04FF4815002F027F8298E80B279
:10062000884203D28020DFF8B41C08602000C0B2EA
:10063000FFF758FFA884A98C4FF4805002F067F9A7
:10064000E98C41F2010002F062F9298E41F20200C8
:1006500002F05DF9AAE02000C0B2012840F0A680B7
:1006600001A800210022002380E80E00002135E0CF
:10067000DFF8602CBDF804300D00EDB20A204543D0
:10068000505BC318ADF8043001AB5D880E00F6B2C4
:100690000520464302EB4600408845195D809D8851
:1006A0000E00F6B20520464302EB4600808845194D
:1006B0009D80DD880E00F6B20520464302EB460021
:1006C000C0884519DD801D890E00F6B2052046431D
:1006D00002EB4600008945191D81491C0800C0B283
:1006E0000828C5DBBDF80400082190FBF1F0ADF847
:1006F000040001AD6888082190FBF1F06880A888AB
:10070000082190FBF1F0A880E888082190FBF1F027
:10071000E8802889082190FBF1F02881DFF84C6CF3
:10072000BDF8041041F6C810414309133186308EDC
:10073000C8303086318E41F2050002F0E8F841F20F
:100740001F0001F092FF318E80B2814204D28020DE
:10075000DFF8841B08600BE04FF4815001F085FF47
:10076000318E80B2884203D28020DFF8701B08608F
:100770002000C0B2FFF7B6FEB084B18C4FF48050B9
:1007800002F0C5F8698841F2010002F0C0F8A988BA
:1007900041F2020002F0BBF8E98841F2030002F0E6
:1007A000B6F8298941F2040002F0B1F87FBD0000DB
:1007B000000000002DE9F84F2DED028B82B080463D
:1007C0000F00002041F28834A146052001F03BFFD4
:1007D00005009FEDBD0A15F00706C5F3C10041F203
:1007E000210001F042FF82465FEA086002D138EA48
:1007F0000A0801E05AEA08083000C0B2002803D015
:100800003000C0B2042810D1380000B240F2F51117
:10081000884208DB404680B2002804D0380000B28D
:1008200002F01FFA01E002F0C9FA3000C0B201285C
:100830000CD03000C0B2022808D03000C0B203286B
:1008400004D03000C0B2042840F04F81404680B24E
:10085000002800F0F2805AEA080841F215094846DB
:1008600001F003FF390009B2814205DA41F21900B3
:1008700001F0FBFE8146F7E041F2160A504601F016
:10088000F4FE390009B281423FDA41F21A0001F068
:10089000ECFE41F2190B80B20090584601F0E5FEE3
:1008A0000099081A00EE100AB8EEC08A504601F00E
:1008B000DCFE82461FFA8AFA484601F0D6FEBAEB01
:1008C000000A00EE10AAB8EEC00A88EE008ABA4606
:1008D0000FFA8AFA484601F0C8FEBAEB000A00EEA9
:1008E00010AAB8EEC00A20EE088A584601F0BDFEF4
:1008F00000EE100AB8EE400A30EE080ABDEEC00A5B
:1009000010EE109A1FFA89F9AEE041F21709484635
:1009100001F0ABFE390009B281423FDA41F21B001F
:1009200001F0A3FE41F21A0B80B20090584601F08C
:100930009CFE0099081A00EE100AB8EEC08A4846DC
:1009400001F093FE81461FFA89F9504601F08DFEB1
:10095000B9EB000900EE109AB8EEC00A88EE008AE2
:10096000B9460FFA89F9504601F07FFEB9EB00094C
:1009700000EE109AB8EEC00A20EE088A584601F040
:1009800074FE00EE100AB8EE400A30EE080ABDEE22
:10099000C00A10EE109A1FFA89F965E041F2180AB0
:1009A000504601F062FE390009B281423FDA41F25D
:1009B0001C0001F05AFE41F21B0B80B20090584619
:1009C00001F053FE0099081A00EE100AB8EEC08A32
:1009D000504601F04AFE82461FFA8AFA484601F064
:1009E00044FEBAEB000A00EE10AAB8EEC00A88EE88
:1009F000008ABA460FFA8AFA484601F036FEBAEB88
:100A0000000A00EE10AAB8EEC00A20EE088A584686
:100A100001F02BFE00EE100AB8EE400A30EE080A94
:100A2000BDEEC00A10EE109A1FFA89F91CE041F2DF
:100A30001C0001F01AFE814616E03000C0B2012809
:100A400006D011D3032809D005D3042809D00BE020
:100A50005FF0960908E05FF0000905E05FF000092B
:100A600002E05FF00009FFE7B9F1960F07D2F6B296
:100A7000012E02D15FF0960901E05FF00009280025
:100A8000C0B210F00700C0B2012806D028D3032856
:100A90001FD00BD3042809D022E0B4EB09094A4641
:100AA0000321DFF8000C02F0B4FA19E04A460321F2
:100AB000DFF8F00B02F0ADFAB9F1960F06D24FF65F
:100AC000FF5010EA080803E00000000058F4007826
:100AD00006E04A460421DFF8D00B02F09AFAFFE75D
:100AE000494642F2010001F021FFEDB2C5F3C10019
:100AF000012840F00F82404680B2002824D05FEAEF
:100B0000C85007D5DFF8681D0122486C8240086C88
:100B1000026106E0DFF8581D0122486C8240086C33
:100B200042615FEA885007D5DFF8441D0122C86C96
:100B30008240886C026113E0DFF8341D0122C86C2A
:100B40008240886C42610BE0DFF8241D0122486C72
:100B500012FA00F00B6C5861C86C8240886C4261DC
:100B600001A80021016000201EE00122C0B2410066
:100B700012FA01F189B211EA080F04D0012101AB88
:100B80000400E4B219550100C9B24900491C12FA27
:100B900001F189B211EA080F05D05FF0FF3101AA17
:100BA0000300DBB2D154401C0100C9B20429DCDBD4
:100BB00041F20D05280001F058FD390009B28142CB
:100BC00005DA41F2110001F050FD0400CAE041F2E3
:100BD0000E04200001F049FD390009B2814238DAE3
:100BE00041F2120001F041FD060041F21108B6B2D7
:100BF000404601F03AFD361A00EE106AB8EEC08A9F
:100C0000200001F032FD0400A4B2280001F02DFD07
:100C1000241A00EE104AB8EEC00A88EE008A3FB2ED
:100C2000280001F022FD3F1A00EE107AB8EEC00A4B
:100C300020EE088A404601F018FD00EE100AB8EEDA
:100C4000400A30EE080ABDEEC00A10EE104AA4B207
:100C500088E041F20F05280001F007FD390009B2D4
:100C6000814238DA41F2130001F0FFFC060041F244
:100C70001208B6B2404601F0F8FC361A00EE106ACF
:100C8000B8EEC08A280001F0F0FC0500ADB22000EB
:100C900001F0EBFC2D1A00EE105AB8EEC00A88EEF7
:100CA000008A3FB2200001F0E0FC3F1A00EE107A0B
:100CB000B8EEC00A20EE088A404601F0D6FC00EEED
:100CC000100AB8EE400A30EE080ABDEEC00A10EE77
:100CD000104AA4B246E041F21004200001F0C5FC25
:100CE000390009B2814238DA41F2140001F0BDFC4A
:100CF000060041F21308B6B2404601F0B6FC361ABF
:100D000000EE106AB8EEC08A200001F0AEFC0400CC
:100D1000A4B2280001F0A9FC241A00EE104AB8EE93
:100D2000C00A88EE008A3FB2280001F09EFC3F1AFC
:100D300000EE107AB8EEC00A20EE088A404601F0B4
:100D400094FC00EE100AB8EE400A30EE080ABDEE40
:100D5000C00A10EE104AA4B204E041F2140001F0FF
:100D600084FC040021004FF4005001F0DFFD00215D
:100D700029E00800C0B218560B00DBB2134493F907
:100D8000293098421ED000200B00DBB21A4482F8B2
:100D9000290017E0DFF8DC2A0800C0B2104490F9FF
:100DA0002900002805D001AB0800C0B21856002861
:100DB000DFD101A80B00DBB2C05C0B00DBB21A4430
:100DC00082F82900491C0800C0B20428E2DBDFF8E1
:100DD000A45A95F9290000280CD1DFF8CC6800222C
:100DE0000021300002F015F900220121300002F04C
:100DF00010F915E095F92900012806D122000021FB
:100E0000DFF8A40802F005F90AE095F9290010F1CD
:100E1000010F05D122000121DFF88C0802F0F9F85A
:100E200095F92A0000280CD1DFF87C680022022105
:100E3000300002F0EEF800220321300002F0E9F861
:100E400015E095F92A00012806D122000221DFF8D9
:100E5000580802F0DEF80AE095F92A0010F1010FB7
:100E600005D122000321DFF8400802F0D2F895F9FD
:100E70002B0000280CD1DFF8006A0022032130008B
:100E800002F0C7F800220221300002F0C2F815E09B
:100E900095F92B00012806D122000321DFF8D8099B
:100EA00002F0B7F80AE095F92B0010F1010F05D117
:100EB00022000221DFF8C00902F0ABF895F92C00FE
:100EC000002810D1DFF8B04900220121200002F0F3
:100ED000A0F800220021200002F09BF802B0BDEC37
:100EE000028BBDE8F18F95F92C00012806D1220074
:100EF0000121DFF8840902F08CF8EFE795F92C0066
:100F000010F1010FEAD122000021DFF86C0902F094
:100F100080F8E3E700210DE0DFF854390800C0B2A3
:100F200003EBC000406882400800C0B253F83000B4
:100F30000261491C0800C0B20A28CFDA012212FA65
:100F400001F080B210EA080FE6D1DFF8243908007A
:100F5000C0B203EBC000406882400800C0B253F842
:100F600030004261E5E70000D82200200C1001406B
:100F70008D04000870B5052001F065FB01066AD4F8
:100F8000C0F3C105DFF8F44802220121200002F07D
:100F9000D2F8EDB2002D3DD105220221200002F051
:100FA000CAF805220421200002F0C5F800240FE051
:100FB000AB4B032201212000C0B203EBC00040680C
:100FC00081402000C0B253F8300002F0B4F8641C35
:100FD0002000C0B20A28EBDBC0484021016080211C
:100FE0000160DFF8BC5C01240722696814FA01F192
:100FF000286802F0A0F80622E96814FA01F1A8684E
:1010000002F099F80622686984402100286902F0FC
:1010100092F822E105220221200002F08CF805223C
:101020000421200002F087F805224021200002F070
:1010300082F805228021200002F07DF8DFF8644C60
:1010400005220121200002F076F80522022120006D
:1010500002F071F801E10100C9B2090640F1FD801A
:1010600010F0400110F00705C0F3C104C9B2002917
:1010700040F0ED802800C0B2002806D002281ED023
:1010800016D3042829D027D33FE0DFF81C6C0722B1
:101090004021300002F04FF807228021300002F09A
:1010A0004AF807224FF48071300002F044F82CE037
:1010B00010220821DFF8C40702F03DF825E01022D5
:1010C0000821DFF8B80702F036F810224021DFF8D7
:1010D000D80B02F030F818E017E010220821DFF8F2
:1010E0009C0702F028F8DFF8C06B0722402130008F
:1010F00002F021F807228021300002F01CF80722BC
:101100004FF48071300002F016F8E4B2012C54D193
:10111000DFF85C6701241022716814FA01F130686D
:1011200002F009F81022F16814FA01F1B06802F037
:1011300002F81022716914FA01F1306901F0FBFF25
:101140001022F16914FA01F1B06901F0F4FF1022E4
:10115000716A14FA01F1306A01F0EDFF1022F16AB0
:1011600014FA01F1B06A01F0E6FF1022716B14FA73
:1011700001F1306B01F0DFFF1022F16B14FA01F185
:10118000B06B01F0D8FF0622716C14FA01F1306CDB
:1011900001F0D1FFEDB2032D07D110224FF4007101
:1011A000DFF8040B01F0C7FF57E00622F06C844023
:1011B0002100B06C01F0BFFF4FE0DFF8B45601240E
:1011C0000622696814FA01F1286801F0B4FF0622CA
:1011D000E96814FA01F1A86801F0ADFF0622696917
:1011E00014FA01F1286901F0A6FF0622E96914FA50
:1011F00001F1A86901F09FFF0622696A14FA01F162
:10120000286A01F098FF0622E96A14FA01F1A86A37
:1012100001F091FF0622696B14FA01F1286B01F0CD
:101220008AFF0622E96B14FA01F1A86B01F083FF33
:101230000622696C14FA01F1286C01F07CFF062289
:10124000E86C84402100A86C01F075FF05E00722DE
:101250004021DFF8540A01F06EFF70BD582A0020CB
:101260000405002080B5052001F0EDF9010602D447
:1012700000F006FB04E0C0B2000601D500F016FD48
:1012800001BD30B591B000240020ADF80000002071
:10129000ADF8020001A815E0DFF8D8554FF48050F2
:1012A00001F015FBA88441F2010001F010FBE88475
:1012B000B5F92600010009B2A88CFFF77BFA64207B
:1012C00002F0E9F82000C0B20028E5D011B030BD2E
:1012D00064050020E829002010100140141001408E
:1012E000F8B5052001F0AFF9204C2169002940F044
:1012F0001C8110F00705C0F3C100C0B2012817D14E
:10130000DFF8201CDFF8A00301F061FEDFF8181CF5
:10131000DFF8640501F05BFE002084F8290000205E
:1013200084F82A00002084F82B00002084F82C0088
:101330002800C0B2012805D1DFF8F01BD94801F020
:1013400046FEE6E02800C0B2022805D1DFF8DC1B2B
:10135000D44801F03CFEDCE02800C0B2032807D1ED
:10136000DFF8C01BD04801F032FED2E0F8280020A0
:10137000EDB2042D69D1DFF8B41BCA4801F027FE95
:10138000002547E02800C0B200F58050C01C80B2A4
:1013900001F06BF92900C9B204EB810188862800AD
:1013A000C0B200F58050C01D80B201F05EF9290086
:1013B000C9B204EB8101C88606262800C0B270437A
:1013C00004EB00072800C0B210F5804080B201F0A5
:1013D00027F9A7F844002800C0B2704304EB0007C7
:1013E0002800C0B200F58040001D80B201F018F95D
:1013F000A7F846002800C0B206FB00F626442800E5
:10140000C0B200F58040083080B201F009F9A6F8BA
:1014100048006D1C2800C0B20428B3DB4FF4C04064
:1014200001F036F984ED170A41F20B0001F01DF9C5
:10143000A4F8620041F20C0001F017F9A4F8600072
:1014400014F1340002F074F963E0002547E028004D
:10145000C0B200F58050C01C80B201F006F929002E
:10146000C9B204EB810188862800C0B200F5805023
:10147000C01D80B201F0F9F82900C9B204EB810166
:10148000C88606262800C0B2704304EB0007280077
:10149000C0B210F5804080B201F0C2F8A7F8440055
:1014A0002800C0B2704304EB00072800C0B200F56A
:1014B0008040001D80B201F0B3F8A7F84600280074
:1014C000C0B206FB00F626442800C0B200F58040FA
:1014D000083080B201F0A4F8A6F848006D1C28007E
:1014E000C0B20428B3DB4FF4C04001F0D1F884ED62
:1014F000170A41F20B0001F0B8F8A4F8620041F2BB
:101500000C0001F0B2F8A4F8600014F1340002F00D
:101510000FF900200090DFF8183A7F224FF45C7139
:10152000DFF8100A01F005FF2061F1BD38B5D14C9C
:10153000206900282CD0052001F085F80500E0681E
:1015400001F09CFFE06801F080FF0020E0602806C9
:101550001ED515F00704C5F3C100C0B2012805D19E
:10156000514801F046FDC44801F043FD2000C0B2DF
:10157000012803D02000C0B2022803D1494801F05D
:1015800038FD05E0E4B2032C02D1474801F031FDFB
:1015900031BD18B591B000240020ADF80000002046
:1015A000ADF8020001A856E001AC23000022FF21A3
:1015B000002001F0AFF8044423004FF48052FF21D3
:1015C000002001F0A7F80444230041F20102FF21AA
:1015D000002001F09FF80444230041F20202FF21A1
:1015E000002001F097F80444230041F20302FF2198
:1015F000002001F08FF80444230041F20402FF218F
:10160000002001F087F8044423004FF40052FF212A
:10161000002001F07FF80444230042F20102FF2180
:10162000002001F077F8044423004FF4A042FF218A
:10163000002001F06FF820444421684602F090FB3E
:10164000BDF80000401CADF80000FEF70EFE0400DF
:10165000C82001F020FFE4B2002CA5D012B010BDCC
:101660001CB5844CE06800280BD100200090DFF806
:10167000C8387F224FF45C71DFF8C00801F059FED2
:10168000E06013BD10B5DFF8B848E068002807D067
:10169000E06801F0F3FEE06801F0D7FE0020E060B2
:1016A00010BD0000E83C0020043D00202DE9FC4175
:1016B00002F05FFB02F0FEFBDFF88808016851F0E2
:1016C0000071016003224FF40071DFF8DC0501F0C6
:1016D00032FD0026DFF870080068C0F340200028C3
:1016E00004D10120634981F82D0003E00020614905
:1016F00081F82D0000F06FFEFEF7C2FD052000F01E
:10170000A2FF0400FFF736FC02F0D6FA002000909A
:10171000DFF8383880224FF45C71DFF8340801F0CC
:1017200008FEFEF734FDDFF84C8118F1140001F0DB
:10173000BCFEFEF733FDFEF749FD07000020200048
:10174000C0B2000601D5FFF7CBFD200600F1838073
:101750000820DFF8001808607DE064215FF0FF30AA
:1017600002F042FC0500680702D5FF2000F064FE8D
:1017700020060ED4FEF7F6FEA8050AD598F82D002F
:10178000002806D10126DFF8D00740210160802122
:10179000016020065AD5A80602D5FEF717FD0700FE
:1017A000680624D5380080B2FEF714FD02004FF41D
:1017B0007A7340F2CF700021E3FB02014FF4FA622A
:1017C000002301F0D5F880B240F2E93188420EDB07
:1017D000012001F06BF8002809D100214FF480505E
:1017E00001F095F8002141F2010001F090F828067F
:1017F00024D5380080B2FEF7EDFC02004FF47A7376
:1018000040F2CF700021E3FB02014FF4FA620023A3
:1018100001F0AEF880B240F2E93188420EDB0120DF
:1018200001F044F8002809D100214FF4805001F064
:101830006EF8002141F2010001F069F8E80701D5D6
:10184000FFF70EFFA80701D5FFF71CFFFEF70DFD00
:10185000002800D001263000C0B200283FF47DAF40
:10186000200601D5FFF762FE0020BDE8F6810000EA
:10187000AC040020F8280020203D00200008014092
:101880002DE9F84F2DED028B86B0052000F0DBFE30
:101890008DF805009FED7C0A9DF80500C0F3C1049A
:1018A000DFF8B8660396DFF89876DFF8B40602F042
:1018B000F9FB7860DFF8AC560021280002F038FC14
:1018C0002000C0B2002808D10823DFF89C26DFF8EA
:1018D0009C16280002F03AFC0AE0E4B2012C07D181
:1018E0000823DFF88C26DFF88C16280002F02EFC87
:1018F000A86A8068A96A8860082000F0A4FE307297
:10190000072000F0A0FE70720220707246F2010003
:1019100000F0BEFEB0EE408A4FF4805000F0A5FE0D
:1019200080465FF0200918EE100A02F029FC04003E
:101930000D0098FBF9F009FB1088404602F044FCCA
:101940000022DFF8343602F051FC22002B0002F0B6
:101950001FFD02F0DBFDF06041F2010000F085FEAA
:101960007081DFF81816300003F05CFA012103984B
:1019700002F005FEDFF80806029041F21D0000F0BB
:1019800074FE02998880002002998881029948811A
:10199000029908810299C8804FF4805000F065FEDA
:1019A0000299088041F2010000F05FFE0299488030
:1019B0000F2102A8FEF756FD0299C8731020401CA3
:1019C000DFF8C01508705FF0000BFEF7FFFBFEF7B5
:1019D000FDFBADF806000020DFF8AC05FEF7F3FBD9
:1019E0000023DFF8A8254FF47A71DFF89C05FEF795
:1019F00028FCFEF7EBFBADF81000002117F11400F6
:101A000001F088FD0020B87732E1300003F0D2F910
:101A10008DF804009DF80400800711D5012301AA68
:101A2000D021300003F0E4FA9DF80400002807D02C
:101A30009DF80430DFF858259121300003F0D8FAE2
:101A4000BDF80600FEF7C6FB8246062000F0FBFD4F
:101A5000009050460021A8FB002308FB013309FB3E
:101A60000033101953EB05014FF4FA62002300F024
:101A70007FFF0099884205D30C21300003F03FFB23
:101A80000020B877E7E000BF00000000FEF79EFBF3
:101A9000ADF8000040F2CF7400254FF47A785FF083
:101AA0000009BDF81000FEF795FB0021A8FB0023FC
:101AB00008FB013309FB0033101953EB05014FF408
:101AC000FA62002300F054FFADF8020041F2020A6E
:101AD000504600F0CAFDBDF80210884205D297F8C2
:101AE0002D00002801D15FF0010B9DF80500400694
:101AF0001FD44FF4805000F0EAFE002815D1BDF845
:101B00000000BDF81000FEF765FB0021A8FB0023D4
:101B100008FB013309FB0033101953EB05014FF4A7
:101B2000FA62002300F024FF03E0BDF80000ADF8E6
:101B300010004FF4805000F0CAFE0299888041F2F4
:101B4000010000F0C4FE0299C880504600F0BFFEBC
:101B50000299088141F2030000F0B9FE0299488120
:101B600041F2040000F0B3FE029988810F2102982F
:101B7000FEF778FC0299C873B87F002803D00228CA
:101B80005BD024D341E70921039803F0B8FA002081
:101B90008DF804000121039802F0F1FC012301AA51
:101BA0004921039803F070FADFF8D82313789BB229
:101BB0001121039803F068FA0E21039803F09FFAAD
:101BC0000120B877BDF80000ADF8060043E0300012
:101BD00003F0F0F88DF804009DF80400C0070DD55F
:101BE0000C21300003F08BFA0221039802F0C7FCAD
:101BF0008E21039803F083FA0320B877BDF806001E
:101C0000FEF7E8FA8246062000F01DFD00905046DF
:101C10000021A8FB002308FB013309FB0033101946
:101C200053EB05014FF4FA62002300F0A1FE009986
:101C3000884201D30020B8770DE00221039802F01A
:101C40009EFC8921039803F05AFA8E21039803F031
:101C500056FA0320B8770A2001F01DFCFEF705FBB9
:101C6000002805D097F82D00002801D15FF0010B66
:101C70005846C0B200283FF409AF300003F00EF917
:101C8000C148FEF7C5FA4FF40071786802F06BF9AD
:101C9000002001F0AEFB06B0BDEC028BBDE8F18F79
:101CA0004C050020000C0140001001402DE9F047D8
:101CB0002DED028B92B0A94CA146A14DA84802F08F
:101CC000F1F96860082000F0BEFC2072072000F0E7
:101CD000BAFC60720220607246F2010000F0D8FC8B
:101CE000B0EE408A4FF4805000F0BFFC80465FF0B9
:101CF000200A18EE100A02F043FA06000F0098FBC3
:101D0000FAF00AFB1088404602F05EFA00229A4B75
:101D100002F06CFA32003B0002F03AFB02F0F6FBF4
:101D2000E06041F20107380000F09FFC60819349B8
:101D3000200003F077F89349481C10200022401C33
:101D400008705FF00008FEF741FA0600002000204E
:101D5000A877002115F1140001F0DCFB3BE0300016
:101D600080B2FEF737FA02004FF47A7340F2CF7078
:101D70000021E3FB02014FF4FA62002300F0F8FDBA
:101D800080B240F2F511884222DB8021686802F0BF
:101D9000EAF80020A8771BE0300080B2FEF71AFABC
:101DA00002004FF47A7340F2CF700021E3FB02018E
:101DB0004FF4FA62002300F0DBFD80B240F2F5112F
:101DC000884205DB8021686802F0CDF80020A87702
:101DD000142001F060FB4046C0B2002840F08E8025
:101DE000FEF7F4F9A87F002802D001281CD0EFE705
:101DF0000C21200003F083F9200003F0F4F889217E
:101E0000484603F07CF98E21484603F078F9022118
:101E1000484602F0B4FBA87F401CA8770020288425
:101E2000FEF7D4F90600D3E7200002F0C3FF8DF8D7
:101E300000009DF8000010F0120F90D0200002F07A
:101E40007FFE0100C9B2002000F053FD9DF80000A4
:101E5000C00606D54021686802F085F80020A87702
:101E6000B6E701236A46D021200003F0C1F89DF8AF
:101E70000000002890D09DF8003001AA9121200098
:101E800003F0B6F801A80178491E01700178102905
:101E900031D110F1010A0F215046FEF7E3FA9AF80A
:101EA0000F10C0B2884222D14FF4805000F0DDFB09
:101EB000BAF8021080B281421DD1BAF804006883DA
:101EC0000020A88300202884BAF804104FF4805022
:101ED00000F01DFDBAF80610380000F018FD2021B2
:101EE000686802F040F8002085F8280003E04021EF
:101EF000686802F038F80020A87769E7200002F04F
:101F0000CDFF2148FEF784F94FF40071686802F0B4
:101F10002AF8002001F06DFA12B0BDEC028BBDE88A
:101F2000F087000034040020680400200004002032
:101F300083120008880A002093150008F80D00207D
:101F4000F828002004000140081001406512000834
:101F500018070020140801401410014098280020A0
:101F600050800008143C0020E8290020E07E000892
:101F7000082A0020087F00080000E03F9C040020A1
:101F80006129002060290020582A00208D040008C3
:101F9000A42900200A48006880B2704780B209492D
:101FA000086000200849086002200849086070475E
:101FB000002006490860704780B2024908607047F7
:101FC000240C0040340C0040100C00400C0C00406D
:101FD00080B503F045F901BD80B580B2FFF7DEFFA3
:101FE00001BD80B5FFF7E4FF01BD80B580B2FFF70A
:101FF000E3FF01BD80B5FFF7CDFF02BD10B5204C5A
:102000000020C4F898000020C4F89C0014F1A0003F
:1020100003F0AEF914F1B80003F0AAF910BD2020C6
:1020200080F311881648D0F89810491CC0F8981011
:10203000002080F31188704780B50A001049D1F85C
:102040009C305B1CC1F89C3010F1480112F1480033
:1020500003F0A9F901BD80B50A4803F097F901BD65
:1020600080B5084803F096F901BD80B5064803F035
:102070008DF901BD80B5044803F08CF901BD000065
:10208000D82200207823002090230020081880B256
:102090007047081A80B2704780B580B2FFF79CFF86
:1020A00001BD80B5FFF79DFF01BD80B580B2FFF790
:1020B0009CFF01BD80B5FFF79DFF02BD80B5FFF716
:1020C000F9FF02BD5A4810F11C01C16101625FF0C5
:1020D000FF3141620021018570472DE9F041040084
:1020E0000D002361E260FFF7E9FF8046022D00D278
:1020F00002254F4E16F11C00F169884213D1A6F853
:102100002880F461346220606060A560B5F5803F8E
:1021100001D34FF6FF752900308DFFF7B7FF80B26E
:10212000FFF7BAFF35E0F769414689B2308DFFF716
:10213000B0FF2D18414689B2308DFFF7AAFF8542C6
:1021400003D2B8682D1A3F6812E0B86885420FD2F2
:102150002900B1F5803F01D34FF6FF71308DFFF7B5
:1021600095FF80B2FFF7A1FF02E0B8682D1A3F6823
:10217000B868A842F9D3276020684068606060684A
:1021800004607C60A560B868451BBD605FF0FF30EF
:102190007062BDE8F08110B5254CE169814213D031
:1021A0000168426811604168026851600021C160A5
:1021B00014F11C010268914205D001688A688168A7
:1021C0008A180068826032E00168E16114F11C0144
:1021D000E26951600022C260E269914202D1FFF7D8
:1021E00060FF24E0E169896880684118E0698160E6
:1021F000FFF764FF010089B2208DFFF74AFFE16914
:102200008968884213D2E1698968091A022901D2D2
:10221000801C05E04018B0F5803F01D34FF6FF70F9
:102220000100208DFFF732FF80B2FFF73EFF10BDA7
:10223000D8220020C0B200280DD0022807D008D331
:10224000042805D006D3062806D006D205E004E00F
:1022500003E002E001E000E0FFE7704738B504006A
:1022600000200020002500212100C9B2002937D01C
:10227000022910D022D3042917D028D3062938D018
:1022800041D24FF48071DFF8C4060500002289B204
:1022900003F096F837E04FF48071DFF8B4060500DC
:1022A000002289B203F08CF82DE08021DFF8A4062B
:1022B0000500002289B203F083F824E08021DFF8D2
:1022C00098060500002289B203F07AF81BE040214D
:1022D000DFF888060500002289B203F071F812E0E9
:1022E0004021DFF87C060500002289B203F068F87F
:1022F00009E04FF48071DFF86C060500002289B216
:1023000003F05EF8FFE7DFF860162200D2B201EBBF
:10231000420250802022002003F0ACF84FF480727B
:102320002900E4B24FF4807044432034200080B28E
:1023300003F0A0F831BDF8B504000D000026002020
:1023400000272000C0B200281ED002280BD013D3D3
:1023500004280DD014D306281AD01ED24FF480764C
:10236000DFF8E87519E04FF48076DFF8E47514E0E3
:102370008026DFF8E07510E08026DFF8DC750CE0E1
:102380004026DFF8D87508E04026DFF8D47504E071
:102390004FF48076DFF8CC75FFE7320092B2390057
:1023A0002000C0B24FF480735843203003F054F83B
:1023B0000022310089B2380003F002F8ADB280B2D9
:1023C000854207D02000C0B2FFF734FF2000C0B222
:1023D000FFF744FFF1BD38B5DFF88C45202221001E
:1023E000002003F039F800202088AB280FD1002509
:1023F0002800C0B208281BDA2800C0B204EB400055
:1024000041882800C0B2FFF796FF6D1CF0E7AB20B3
:102410002080002508E02800C0B2FFF70BFF28004D
:10242000C0B2FFF71BFF6D1C2800C0B20828F2DB0A
:102430000020A4F8200931BD10B50100C9B2FF2960
:102440000AD100242000C0B2082808DA2000C0B257
:10245000FFF704FF641CF5E7C0B2FFF7FFFE0020A2
:1024600010BD70B51C0000250B0000201605360DB0
:10247000C9B2FF2902D192B2120B1300DBB2002BBA
:1024800009D0022B18D00ED3042B26D01DD3062B37
:1024900034D02BD33BE00125DFF8CC04B6B2304476
:1024A00010F5587033E00225DFF8BC04B6B200EB3B
:1024B000460010F528702AE00425DFF8AC04B6B217
:1024C00000EB860010F5907021E00125DFF89804FC
:1024D000B6B2304410F5487019E00225DFF88804E0
:1024E000B6B200EB460010F5087010E00425DFF8E6
:1024F0007804B6B200EB8600203008E00425DFF84F
:102500006804B6B200EB860010F56870FFE729009A
:1025100049B2012906DB2A0052B292B20100200022
:1025200003F01AF8280040B270BD70B55FF0FF30BC
:1025300000240D0000261005000DC9B2FF2902D1AC
:1025400092B2120B15002900C9B2002909D0022944
:1025500018D00ED3042926D01DD3062935D02BD36D
:102560003CE00124DFF8001480B2084410F55876EE
:1025700034E00224DFF8F01380B201EB400010F5E4
:1025800028762BE00424DFF8E01380B201EB800012
:1025900010F5907622E00124DFF8CC1380B20844D5
:1025A00010F548761AE00224DFF8BC1380B201EB84
:1025B000400010F5087611E00424DFF8AC1380B277
:1025C00001EB800010F1200608E00424DFF89813E6
:1025D00080B201EB800010F56876FFE7200040B282
:1025E00001281ADB220052B292B21900300002F028
:1025F000B3FFDFF878030078002804D02800C0B2C9
:10260000FFF71AFF09E0DFF86003B0F82019012294
:1026100012FA05F50D43A0F82059200040B270BD14
:102620000021010089B2C1F3023104290AD1DFF887
:10263000381380B20005000D01EB4000B0F9200214
:1026400000B27047FEE70021010089B2C1F30231F8
:10265000002909D1DFF8101380B20005000D0844ED
:1026600090F86003C0B27047FEE70021010089B214
:10267000C1F3023101290AD1DFF8EC1280B2000562
:10268000000D01EB4000B0F8A00280B27047FEE7F9
:102690009FED850A010089B2C1F30231062909D1F3
:1026A000DFF8C41280B20005000D01EB800090ED50
:1026B000E80A7047FEE7020092B2C2F30232002A33
:1026C00007D1DFF8A42280B20005000D104480F885
:1026D00060137047020092B2C2F30232012A08D19D
:1026E000DFF8842280B20005000D02EB4000A0F864
:1026F000A0127047010089B2C1F30231062908D146
:10270000DFF8641280B20005000D01EB800080ED5F
:10271000E80A704770B51C0000250B000020160564
:10272000360DC9B2FF2902D192B2120B1300DBB2EF
:10273000002B09D0022B18D00ED3042B25D01DD38B
:10274000062B32D029D338E00125DFF81C02B6B2BF
:10275000304410F5FC6030E00225DFF80C02B6B220
:1027600000EB460010F5E46027E00425DFF8F801EF
:10277000B6B200EB860010F5B4601EE001257A4881
:10278000B6B2304410F5F46017E002257648B6B2D0
:1027900000EB460010F5D4600FE004257248B6B295
:1027A00000EB860010F5946007E004256E48B6B291
:1027B00000EB860010F50260FFE7290049B201290D
:1027C00006DB2A0052B292B20100200002F0C4FEE1
:1027D000280040B270BDF8B55FF0FF3400200D0056
:1027E000002617053F0DC9B2FF2902D192B2120B84
:1027F00015002900C9B2002909D0022916D00DD32D
:10280000042922D01AD306292FD026D335E001205F
:102810005549BFB2394411F5FC662EE002205249F9
:10282000BFB201EB470111F5E46626E004204E49F2
:10283000BFB201EB870111F5B4661EE001204A49E1
:10284000BFB2394411F5F46617E002204649BFB221
:1028500001EB470111F5D4660FE004204249BFB2F5
:1028600001EB870111F5946607E004203E49BFB2F1
:1028700001EB870111F50266FFE7010049B201296A
:102880000EDB40B280B202001900300002F064FE9C
:1028900036480078002803D02800C0B2FFF7CCFDEE
:1028A000200040B2F2BD0000000000000021010045
:1028B00089B2C1F30231002908D12B4980B2000549
:1028C000000D084490F8E007C0B27047FEE7002111
:1028D000010089B2C1F30231012909D1224980B234
:1028E0000005000D01EB4000B0F8200780B27047F2
:1028F000FEE7020092B2C2F30232002A06D11A4A5F
:1029000080B20005000D104480F8E0177047020007
:1029100092B2C2F30232012A07D1134A80B20005F3
:10292000000D02EB4000A0F820177047020092B2A1
:10293000C2F30232022A07D10B4A80B20005000D11
:1029400002EB8000C0F8A01570470000043300209F
:102950000434002004350020843500200436002093
:102960004436002084360020E43200201007002086
:10297000BBBBE1B1B2F5803F80F07E80022A1ED958
:102980008C46B1FBF2F102FB11C31B0443EA104376
:10299000B3FBF2FC02FB1C3380B240EA0343B3FBFF
:1029A000F2F002FB103240EA0C4000237047022A8A
:1029B00005D98446B0FBF2F002FB10C270474AB161
:1029C00005D100F0010249085FEA3000704700229B
:1029D0000023704702F014BE0B000200002100200B
:1029E0007047904271EB030CF6D3B3F5803F2FD2C2
:1029F000F0B5B3FA83F7B1FA81F4A7F10F0E3D1BDE
:102A00005340CEF1200602FA0EF2F3415340B5F1E5
:102A10000F0746D80F3C2C444140C4F12006A0408B
:102A2000F1414140B1FBF3F603FB1611A2FB064551
:102A3000001BA94102D2761E8018594180EA01028A
:102A400021FA0EF362FA0EF200215A403046F0BD30
:102A500030B4B1FBF3FC03FB1C11A2FB0C45001BC3
:102A6000A94103D2ACF1010C8018594130BC024697
:102A70000B46604600217047B2F1807F65D3F0B508
:102A8000B2FA82F7B1FA81F4C7F10F063D1B22FAC0
:102A900006F307F1110EF24120355A40B5F10F0748
:102AA000B8D94140C4F12006A040F1414140B1FBFA
:102AB000F3FC03FB1C11A2FB0C45001BA94103D234
:102AC000BCF1010C801859410F2F12D30F3FC903DD
:102AD00041EA5041B1FBF3F603FB1611A2FB064598
:102AE000D4EBC030A94102D2761E8018594146EA83
:102AF000CC3C07B34140C7F12006B840F14141400A
:102B0000B1FBF3F603FB1611A2FB0645001BA9411E
:102B100002D2761E8018594180EA010221FA0EF392
:102B2000C7F1200462FA0EF20CFA07F05A402CFAB0
:102B300004F13043F0BD80EA010221FA0EF30021D6
:102B400062FA0EF260465A40F0BD8C46B1FBF2F1DB
:102B500002FB11C31B0243EA1063B3FBF2FC02FB4E
:102B60001C331B024CEA002043EA1063B3FBF2FC67
:102B700002FB1C331B024CEA002043EA1063B3FB48
:102B8000F2FC02FB1C331B024CEA002043EA1063F8
:102B9000B3FBF2FC02FB1C324CEA0020002370471E
:102BA00000285DD00100DFF8D8231061086CD060E8
:102BB000002010710020D080CB8B488B1B1A00EEB8
:102BC000103AB8EEC00A82ED050A8B8B088B1B1AEF
:102BD00000EE103AB8EEC00AD2ED050A80EE800A87
:102BE00082ED050A4B8CC88B1B1A00EE103AB8EE2A
:102BF000C00A82ED060A0B8C888B1B1A00EE103A75
:102C0000B8EEC00AD2ED060A80EE800A82ED060A0E
:102C1000CB8C488C1B1A00EE103AB8EEC00A82ED3D
:102C2000070A8B8C088C1B1A00EE103AB8EEC00A0B
:102C3000D2ED070A80EE800A82ED070ADFF844032E
:102C4000B1F8443090FBF3F01063DFF83803B1F8CB
:102C5000461090FBF1F050630A201087012010719C
:102C6000704780B50100C64A1069002800F0A580B1
:102C7000C4481369B3F8443090FBF3F01063C148C3
:102C80001369B3F8463090FBF3F05063536B106B4D
:102C90001B1A5020B3FBF0F01087B2F9380002285D
:102CA00001DA022010871069008B0B001BB29842DA
:102CB00008DB1069408B00EE100AB8EE400A00F005
:102CC0007DF87AE01069008B0B001BB2984212DA93
:102CD0001069808B0B001BB298420CDB09B21069A3
:102CE000008B091A00EE101AB8EEC00AD2ED050AE0
:102CF00020EE200A47E01069808B0B001BB298423F
:102D00001ADA1069008C0B001BB2984214DB09B26E
:102D10001069808B091A00EE101AB8EEC00AD2EDC5
:102D2000060A20EE200A1069C08B00EE900AF8EE29
:102D3000600A30EE800A26E01069008C0B001BB29E
:102D400098421ADA1069808C0B001BB2984214DB8F
:102D500009B21069008C091A00EE101AB8EEC00A08
:102D6000D2ED070A20EE200A1069408C00EE900A8E
:102D7000F8EE600A30EE800A05E01069C08C00EEC3
:102D8000100AB8EE400AD2ED030A20EE200ABDEE8A
:102D9000C00A10EE101A080000B21368984202DA56
:102DA0001068401A01E01068081A00B2401E092895
:102DB00003D30020107209B2116001BD704991F96E
:102DC0000800002807D10868012804DB01200872E8
:102DD0007FF0630008606B480A69B2F8442090FBFA
:102DE000F2F00863086B40080863086B142801D2EE
:102DF00014200863704710B5614C2069002802D187
:102E00005FF0FF30BBE00020B4F90610002919D0B4
:102E100094F90410012905D12168226A91420BDA44
:102E2000012009E094F9041011F1010F04D1216A85
:102E30002268914200DA01200100C9B2002901D0C4
:102E40000321E180B4F90610002905D0022956D0EB
:102E500034D3032965D091E0206A2168884223D0C9
:102E600020690069002802D0206900698047206A33
:102E70002168884205DA012020712069C0688047F6
:102E800005E05FF0FF3020712069806880470120F5
:102E9000E080606BE062206940688047206A94F9B6
:102EA00004104018206208E0206A002803D15FF077
:102EB000FF30E06201E00020E0625FE0E16AB4F927
:102EC0003800091AE162E06A216B884203D2206B64
:102ED000E0620220E0802068216A884208D02069F0
:102EE00040688047206A94F904104018206205E089
:102EF000B4F90600012801D10020E0803EE02168FD
:102F0000206A081A0B30172808D3206940688047C8
:102F1000206A94F904104018206201E00320E08048
:102F20002CE0E16AB4F938208918E162616BE26A49
:102F300091420BD2616BE162C0B2002806D094F9D5
:102F40000400404220710020E08017E0206A2168E0
:102F5000884208D0206940688047206A94F90410AC
:102F6000401820620AE00020E0620020E080206833
:102F7000002803D50020206000202062E06A10BDF8
:102F8000F8460020A086010080B5202080F311883B
:102F9000FFF761F801BD80B5FFF762F8002080F30C
:102FA000118801BD80B5FFF7EFFF01BD80B5FFF7C8
:102FB000F2FF01BD80B502F040FB01BD01210170AF
:102FC000002141600021C16000210174704738B5C3
:102FD00004000D00FFF7E6FF65606868A060200050
:102FE00002F046FB0020E06002202070FFF7DEFFC9
:102FF00031BD10B50400FFF7D5FF200002F0F5FB4E
:103000000020E0600020606001202070FFF7CEFF0C
:1030100010BD70B504000D001600FFF7C3FFE06897
:103020000121A9400843E06032002900C9B2200014
:1030300002F01EFCFFF7BAFF70BDF0B40246106844
:1030400095681318506803EB5004C0071DD54D4414
:103050001BE013F8017B05F8017B491EF9D1A0B1F3
:10306000B60813F8011B06F00306032E08BF13F879
:10307000016B01EB06214942801C294405D011F85F
:10308000016B05F8016B401EF9D1A3420ED013F875
:10309000016B16F0030104BF13F8011BC91C3009B2
:1030A0000F28DAD113F8010B0F30D6E7F0BC02F18C
:1030B0000C007047002108E0374A002342F8313005
:1030C000002302EBC1025360491C1029F4D3334999
:1030D0000A6852F0BD020A6009680168304A11604E
:1030E0008168304A116041682F4A1160C1682F4AD7
:1030F000116041692E4A116001692E4A116081698F
:103100002D4A1160016A2D4A1160C1692C4A116073
:10311000416A2C4A1160C16A2B4A1160816A2B4AAC
:103120001160016B2A4A1160816B2A4A1160406B61
:10313000294908607047F0B4032A01D1016102E017
:10314000042A00D14161254B9E5C00221500140029
:103150001300002709E0344305E035435FEA014CE2
:10316000F9D452F00F0249007F1C082F09D21B012D
:1031700012012D0124015FEA016CEED453F00F031C
:10318000ECE741680A402243426001680B402B4350
:103190000360F0BC70470000683C0020181002403B
:1031A0000C08014004080140000801400C0C0140DB
:1031B000040C0140000C01400C10014004100140BF
:1031C000001001400C14014004140140001401409F
:1031D0000C1C0140041C0140001C0140F87F000849
:1031E000006070470168814201D0012000E00020AA
:1031F000C0B270470060406070470168814201D0F2
:10320000012000E00020C0B270470A680260086038
:1032100070470100086802680A60704701604A68E8
:1032200042604268106048607047010008680268A8
:103230000A600A685160704780B5202080F31188C9
:10324000FEF709FF01BD80B5FEF70AFF002080F3FD
:10325000118801BDDFF8F80280697047C0697047C6
:1032600080B50100082002F0F1FB01BD10B50C0093
:10327000FFF7DBFF446202F082FB10BD10B50400D3
:10328000A260022084F82000002084F82100E2637C
:103290000020A06300206063012084F82200A16167
:1032A000DFF8AC0220614169616161690C614461D0
:1032B00014F12800FFF794FF14F12C00FFF79AFF98
:1032C00014F1480002F054F8200010BD01E0027033
:1032D000401C8842FBD3704780B58168B1F1600320
:1032E0004168D961B3F16401D9600169DA68116498
:1032F0004169DA6851649749DA681166C268016801
:103300001800FFF7BBFF02BD10B504005522A168ED
:103310006068FFF7DBFFFFF78FFF2000FFF7DCFFA0
:1033200004000021200002F0B3FBFFF78CFF200017
:1033300010BD2DE9F0410700884614001E00069DCF
:10334000552207EB08013800FFF7C0FFFFF774FFB5
:1033500007EB08006038C761B0F16401C160C16863
:103360000E64C1684D647B49C268116622007A49C7
:10337000FFF784FF04000021200002F089FBFFF723
:1033800062FF2000BDE8F08110B50400FFF754FF94
:1033900094F82200401E84F8220094F822000028AD
:1033A00024D194F820000F2820D120696169086198
:1033B000606921694861FFF746FF94F8210010F029
:1033C0000300C0B2012802D0022806D00DE0200080
:1033D000FFF744FF02F0ECFB07E02000FFF73EFFA1
:1033E0000100206C02F042FCFFE701E0FFF72BFF39
:1033F00010BD10B50400FFF71FFF200000F001F81A
:1034000010BD10B552498C69606205E014F12800C6
:10341000FFF7FFFE02F0B3FA14F12800FFF7E2FE17
:103420000028F3D194F8220000280AD194F8210052
:1034300010F0030F05D12069616908616069216995
:1034400048610F2002F0BBFA10BD38B50400FFF749
:10345000F3FE94F820000F2808D014F128013C480E
:103460008069FFF7D2FE092002F0A9FA656AFFF72A
:10347000EAFE2000FFF788FF280032BD10B50400E7
:10348000FFF7DAFE94F8210050F0040084F82100E0
:10349000FFF7D9FE10BD10B50400FFF7CDFE2000E8
:1034A000FFF7DEFEFFF7CFFE10BD10B50400FFF7FB
:1034B000D1FE20604462032002F081FAFFF7CAFEC9
:1034C000406A10BD38B505000C00FFF7C3FE002CA4
:1034D00002D15FF0FF3005E0286045622100032043
:1034E00002F0B4FA32BD80B50268002A06D0026844
:1034F000002303605162100002F041FA01BD80B563
:103500000268002A05D0026800230360100002F060
:10351000BFFA01BD38B504000D00FFF78DFE29008C
:103520002000FFF7ECFFFFF78EFE31BD10B50C0059
:10353000002C02D15FF0FF3008E0010004488069F0
:10354000FFF76CFE2100042002F080FA10BD00009D
:10355000D82200201D6900086880000838B50400E2
:103560000D002000FFF749FE002803D029002000AD
:10357000FFF77CFE31BD30B4002513E050F8042B7A
:10358000D30744BFA9F101039A18091F042942F87F
:10359000045BFAD213468C0744BF15809B1CC907F5
:1035A00048BF1D7050F8041B0029E7D130BC70479C
:1035B000081A80B2704780B5FEF71CFD02BD80B5C9
:1035C000202080F31188FEF750FD01BD80B5FEF785
:1035D00051FD002080F3118801BD80B5FFF7EBFF9E
:1035E00002BD10B50400FFF7F8FF010089B220000A
:1035F00080B2FFF7DDFF10BD66488069704780B577
:10360000FFF7FAFF90F82100C0B2800810F0010027
:1036100002BD604989698861704780B514215E48A0
:1036200002F05DFB01BD40205C49086001205C495F
:103630000870704780B540205A49086000205849FA
:103640000870FFF7EAFF01BD802054490860704709
:10365000802054490860704780B54FF480704F490E
:103660000860C820FFF717FF01BD80B54FF48070D8
:103670004C490860C820FFF70EFF01BDF8B50400F3
:103680004948FFF7C6FF2000FFF78AFA0024FFF73A
:10369000CAFFFFF7DDFFFFF7E8FF414F0120387059
:1036A000002625E04FF47A71404802F018FB1BE039
:1036B000280080B2FFF795FF02004FF47A7340F2C2
:1036C000CF700021E3FB02014FF4FA620023FFF701
:1036D0004FF940F2E931884201D3FFF7C6FF4FF4BA
:1036E0007A71324802F0FBFA5FF0FF3000F064FCC0
:1036F000E4B2002C1BD1FFF782FF040038780028C9
:10370000D0D0FFF778FB0100012904DB0026274811
:1037100002F0E5FAE8E711F1010FE0D13000C0B2A4
:103720000028C5D1FFF759FF05000126D7E7F1BDF5
:103730007CB5040002F0BCFA1D49174802F0C1FA3A
:103740001C491A4802F0BDFA30221B4D15F118062B
:103750002100300001F000FF0095184B81224FF44A
:103760005C711748FFF7E5FD1649086073BD80B529
:10377000FFF725FFFFF757FFFFF728FF01BD80B5D3
:10378000FFF71DFF01210F48006800F0FAFBFFF76B
:103790001DFF01BDD8220020483C00201010014030
:1037A0009A4700201410014070800008583C002007
:1037B000A8060020B8060020C80600207D360008B4
:1037C0002825002034470020BFF34F8FDFF86C1509
:1037D0000A6812F4E062DFF8680502430A60BFF38A
:1037E0004F8F00BFFDE7DFF85C058069704780B54B
:1037F000FFF7F9FF90F82100C0B2800810F0010037
:1038000002BD30B402000020002404E02300DBB23B
:10381000D35C5840641C23000D00DBB2EDB2AB4218
:10382000F4D3C0B230BC70470178407850EA012030
:1038300080B2704701000A784878000450EA0260BC
:103840008A7850EA0220C9780843704703000020B4
:103850000A00D2B2002A01D01A7810430A00D2B26C
:10386000022A02DB5A7850EA02200A00D2B2032A66
:1038700002DB9A7850EA0240C9B2042902DBD97807
:1038800050EA016070471300DBB2002B00D00870D3
:103890001300DBB2022B02DB03001B0A4B70130088
:1038A000DBB2032B02DB03001B0C8B70D2B2042AA9
:1038B00001DB000EC8707047F8B5A0B015006E1C93
:1038C000341D2200D2B2812A2CDA02228DF8002087
:1038D0006A46567090702800C0B2002806D02A00B0
:1038E000D2B20DF10307380001F036FE761C31002C
:1038F000C9B20DF10100FFF784FF69462A00D2B278
:103900001144C87003206946EDB2294408710420AF
:10391000FFF7C1FDDFF83004E4B222006946036816
:103920005B68984721B0F0BDE0B5020092B2120A80
:103930008DF800208DF801000800000E8DF80200BF
:103940000800000C8DF803000800000A8DF8040040
:103950008DF8051006226946F020FFF7ADFF07BD80
:1039600080B5010089B2090A8DF800108DF80100B8
:1039700002226946F120FFF79FFF01BD1CB56A4690
:1039800000231360C9B2022903D00020FFF7E8FF2B
:103990001CE0FFF749FF04006B46220092B2FF21B2
:1039A0000020FEF75EFD010049B2012904DA200083
:1039B00080B2FFF7D5FF09E00100C9B26846FFF702
:1039C00045FF0100200080B2FFF7AEFF13BD38B500
:1039D0000400684600220260C9B2062903D0002014
:1039E000FFF7BEFF30E02000FFF71EFF0500A01C20
:1039F000FFF720FF04006B462A0092B2FF2100204F
:103A0000FEF72FFD010049B2012904DA280080B237
:103A1000FFF7A6FF18E00200D2B269462000FFF7C8
:103A200032FF6B462A0092B2FF210020FEF77DFD97
:103A3000012804DA280080B2FFF792FF04E0210099
:103A4000280080B2FFF770FF31BD1CB56A46002325
:103A50001360C9B2022903D00020FFF781FF1CE0E8
:103A6000FFF7E2FE04006B46220092B2FF21002025
:103A7000FEF750FE010049B2012904DA200080B2AD
:103A8000FFF76EFF09E00100C9B26846FFF7DEFEEE
:103A90000100200080B2FFF747FF13BD38B50400D6
:103AA000684600220260C9B2062903D00020FFF751
:103AB00057FF30E02000FFF7B7FE0500A01CFFF71E
:103AC000B9FE04006B462A0092B2FF210020FEF7E7
:103AD00021FE010049B2012904DA280080B2FFF773
:103AE0003FFF18E00200D2B269462000FFF7CBFE8C
:103AF0006B462A0092B2FF210020FEF76CFE0128DF
:103B000004DA280080B2FFF72BFF04E02100280030
:103B100080B2FFF709FF31BD80B5C9B2002903D0DB
:103B20000020FFF71DFF08E000210020FFF7FCFE4A
:103B30002820FFF7B0FCFFF747FE01BD80B54178B4
:103B40008278C01C491ED2B2012A07D01AD3032A98
:103B50000CD007D3052A11D00CD313E0C9B2FFF75C
:103B60000DFF1BE0C9B2FFF732FF17E0C9B2FFF744
:103B70006CFF13E0C9B2FFF791FF0FE0C9B2FFF786
:103B8000CBFF0BE0C9B2022905DBFFF74DFE80B287
:103B9000FFF7E6FE02E00020FFF7E2FE01BD002194
:103BA00080F88010002180F88110704738B504003B
:103BB00094F88000002808D10800C0B2022803D180
:103BC0002170012084F8800045E094F8800080286E
:103BD00003DB2000FFF7E3FF3DE094F88000421C88
:103BE00084F88020C0B2215494F8800002280CD1BF
:103BF0006078001D84F8810094F88100401F7C28C3
:103C000003D32000FFF7CBFF25E094F881000028C4
:103C100021D094F8800094F8811088421BD16178FB
:103C200094F88100204410F8010C032810D194F876
:103C30008100204410F8025C491CC9B2601CFFF7E7
:103C4000E0FDEDB2C0B2854202D12000FFF776FF61
:103C50002000FFF7A4FF31BD80B50120FEF7F3FC83
:103C6000C0B2AA280ED001210420FEF724FD0421B1
:103C70000920FEF720FDAA210120FEF71CFD0020EF
:103C8000FEF7DAFB01BD80B5A2B001A8FFF787FF00
:103C90000CE02D480122694603689B68984701287B
:103CA00004D19DF8001001A8FFF780FFFFF79FFDEA
:103CB0000028EED023B000BD1CB5FFF7CDFF234C8C
:103CC0000920FEF7C0FC2072207A002806D00228C6
:103CD0000ED008D3042815D00FD318E04FF4165097
:103CE0001B49086017E04FF496401949086012E03C
:103CF0004FF41640164908600DE04FF46140144936
:103D0000086008E05FF4E1301149086003E04FF417
:103D100016500F4908600E490B4802F071F8002058
:103D200000900C4B812241F270110B48FFF701FB10
:103D300020600A4800F0B6F9606013BD0CED00E0A9
:103D40000400FA05D82200203C3D00206C2A002007
:103D5000AC050020873C000868110020588000084E
:103D600080B50A00D2B201004020FFF7A5FD01BDD9
:103D7000704780B5FFF7FCFF02F06EF80848FFF7C8
:103D800099F900F0C0F901F093FFFFF713F902F081
:103D900013F802F0F5F802F054F9FEF719F901BD35
:103DA000A47E0008081880B27047081A80B27047D5
:103DB00080B5FEF716F901BD80B580B2FEF715F9A2
:103DC00001BD80B5FEF716F902BD002080F3118811
:103DD00062B6704780B5202080F31188FEF745F960
:103DE00001BD80B5FEF746F9002080F3118801BDC2
:103DF00080B5FFF7E6FF02BDF8B5454CE569FFF772
:103E0000F7FF0700390089B2208DFFF7CEFF0600CB
:103E1000A868864205D2E06914F11C0188421FD1CE
:103E20003EE0218DA86841182185A868361A14F152
:103E30001C00296848602968E161EF680021E96099
:103E4000E169814201D1FFF7B3FFFFF7CAFF28699B
:103E5000B847FFF7BFFFE569A8688642E1D2CEE721
:103E6000208D30182085E0698068861BE0698660B7
:103E7000390089B2208DFFF798FF0100A868411A28
:103E8000022901D2022104E0B1F5803F01D34FF6AF
:103E9000FF71380080B2FFF785FF80B2FFF78CFF1B
:103EA000F1BD80B502F0DCF801F076FE02F017F902
:103EB00001BDFEE710B501F058FDFEF703F9FFF76D
:103EC000F0FF01F03DFAFEF799F8114C80221149FC
:103ED00014F13000FFF7D2F9A0610F48A169C86161
:103EE0000120A16981F8200002F055F9A06948304D
:103EF00001F04CFAFFF769FF0848FFF705FA10BD1B
:103F000072B60349C862FEE780B5FFF775FF01BDD1
:103F1000D82200209C7F000800040020B47F000805
:103F200080B5202080F31188FEF795F801BD80B59B
:103F3000FEF796F8002080F3118801BD70B50500EA
:103F40000C002E680CE0F0682043F060002C02D0DA
:103F50003069044203D0B168706800F012F8366826
:103F6000AE42F0D170BD38B504000D00FFF7D8FFA8
:103F70002900200000F005F801F0B0FDFFF7D7FFA1
:103F800031BD80B5426B1143416390F820100A297E
:103F900003D1416B426A114209D190F820100B29DC
:103FA00009D1426B416A0A40416A8A4203D1002129
:103FB000416201F0E4FC01BD70B505001D48866951
:103FC000FFF7AEFF746B2C40002C06D175620A20FF
:103FD00001F0F5FC706B05402C00706BA043706322
:103FE000FFF7A5FF200070BDF8B506000D001148D1
:103FF0008769FFF795FF7C6B3440002C13D1002DAF
:1040000003D1FFF794FF002013E07E6229000A200D
:1040100001F01CFD002803D5FFF789FF002008E010
:10402000786B06403400786BA0437863FFF77FFF1E
:104030002000F2BDD822002080B5202080F3118816
:10404000FEF709F801BD80B5FEF70AF8002080F3FD
:10405000118801BD8069704710B5FFF7EDFF10486A
:10406000046994F82200401C84F82200FFF7EBFF5B
:10407000200010BD38B50400FFF7DEFF25690848B1
:10408000854201D1002504E095F82200401C85F806
:104090002200FFF7D8FF2000FFF776F9280032BD95
:1040A000D822002038B50500FFF7D6FF0400200015
:1040B000FFF7D0FF290002F0C5F8002807D0200044
:1040C000FFF7D8FF0400002CF1D1002032BD200002
:1040D000FCE780B5202080F31188FDF7BCFF01BD0F
:1040E00080B5FDF7BDFF002080F3118801BD80B5CC
:1040F000FFF7EFFF01BD80B5FFF7F2FF01BD80B50F
:1041000002F0E6F801BD80B502F0E7F901BD80B527
:104110000121017000214160002181600021C16006
:1041200000210161002141611830FFF7E8FF01BD66
:1041300038B504000D00FFF7DAFF6560200002F0DB
:10414000F6F902202070FFF7D6FF31BDF8B5040064
:104150000D0016001F00FFF7CAFF3B0032002900C8
:10416000200000F003F8FFF7C6FFF1BD80B58260C4
:10417000C36001610321017002F008FA01BD400033
:10418000C0F3C75181B1FF2906D0C110400721F00B
:10419000E04101F16051704741020CBF40F4E00181
:1041A0006FF000410020704700F0004100020AD08B
:1041B000B0FA80FC00FA0CF001F16051A1EB0C5157
:1041C00001EBD02140057047C11768B14840401A43
:1041D000B0FA80F29040D21CC907C2F5846241EA6D
:1041E000025202EBD021400570471421B0B581EA9C
:1041F000030C0CF0004C40F2FF7515EA11541DBF82
:1042000015EA1357AC42AF4239E0E41923EA4553AB
:1042100043F48013C90241F0004141EA505EC702F5
:104220001100A7FB020200284FF00000EEFB012066
:104230004FF00001E3FB072118BF42F001024018D4
:1042400000214941E3FB0E01A4F580640F0302D273
:1042500052004041494154F101046CDD470872F1BC
:10426000004250F1000051EB0451A1F580115CBFF8
:1042700041EA0C01B0BD4CEA05510020B0BD05EA91
:104280001357AC4214BFAF4241E050EA410E1CBF8D
:1042900052EA430E02E061460020B0BD24423C4495
:1042A0001BD15FEA070EF6D0090302BF01460020CA
:1042B000AEF1140EB1FA81F7AEEB070401FA07FE76
:1042C0000C37C7F1200100FA07F7C8404EEA000E8C
:1042D00023EA455343F48013A2E733F00043B3FAD3
:1042E00083F704BFB2FA82FE77440B3FE41BB7F1B9
:1042F000200E2FBF02FA0EF3BB40C7F1200E22FAA8
:104300000EFE38BF43EA0E03BA40641C82E750EA4F
:10431000410E14BF52EA430E6FF000014FF4001734
:1043200017EB430F8ABF194617EB410FB5E74CEA6D
:1043300005510020B0BDD4F10104B4F120070FDA1B
:10434000C4F12007520828BF42F0010210FA07F515
:1043500001FA07F7E1BF2A43E0403843E1400FE0AC
:10436000352C98DCC7F1200452EA400220FA07F20B
:1043700018BF42F0010231FA07F0A1400A430021C0
:1043800072F1004250F1000051EB0C01B0BDFFFF93
:1043900070B44FF0004591EA030F42F153816B4036
:1043A000841A71EB030604D26E40001BB14112194E
:1043B00073414FF4001C1CEB410F34BF7CEB4306F0
:1043C00083E00C0DA4EB1356362E00F37C80012EF7
:1043D00045EAC32341DC43EA525312BFD2029202A0
:1043E0005B08240545EAC12141EA5051D2EBC020C7
:1043F000994125D407D1B0FA80F610FA06F162D0BF
:104400000020203608E0B1FA81F6B140C6F1200262
:1044100020FA02F21143B0404FEAF474B4EB465470
:1044200034F001064FEA74040AD8D6F50016760D6A
:1044300004F00044F04061FA06F25040F140484078
:10444000C00A40EA415021F0004128BF5FEA500510
:1044500050F1000044EBD12135E0DB0A45EAC121EF
:10446000C90AB6F120050EDD42EA0242120CC5F17E
:10447000200603FA06F6EB4042EA06056D42984133
:1044800061F100010DE062FA06F5F240554063FA71
:1044900006FC82EA0C02F3405A406D42904161EB07
:1044A000030111F4801F05D1641E620502D06D0066
:1044B0004041494121F48011430875F1004350F116
:1044C000000041EB045170BC70471CEB410F15D24A
:1044D00023F0004352EA43060BD04FEA4C0CBCEBEE
:1044E000410F04D80C0D661E342EB7DDEBE7801AA1
:1044F000994150EA410608BF0021E4E708BF1CEBE0
:10450000430F28BF6FF00001DDE7FEE701F0004236
:104510008B1AA3F16051B1F5801F0ADBB1F17F6FF7
:104520001FD242EAC102C10071F1004142EB50705A
:1045300070470B15C3F10903212B10D2890241EA00
:10454000905180020128494141F0004121FA03F0D5
:10455000C3F12003994071F10041504170471000B0
:1045600070476FF0000013EB103F5CBF000E42EA93
:10457000C050704780B50C2100F0C1FD01BD1CB5D5
:1045800004008DF800102021200000F0B8FD012368
:104590006A464321200000F077FD13BD38B50500C1
:1045A0002021280000F0ABFD4FF6FF740220FEF73B
:1045B00072FF641E01236A46C121280000F018FD25
:1045C000002C04D09DF800008006EFD5FFE7002CFA
:1045D00001D1002000E0012032BD7CB504000D00B7
:1045E000160003208DF800002021200000F087FD38
:1045F00001236A46FC21200000F0FAFC9DF800002F
:1046000010F03F0050EA85108DF800009DF8000082
:1046100066F304008DF8000001236A467C21200027
:1046200000F032FD73BD38B504001500481E8DF84A
:1046300000002021200000F062FD01236A464B218A
:10464000200000F021FD01236A46CC21200000F06B
:10465000CFFC9DF8000010F0FC008DF800009DF8E4
:104660000010DFF88407EDB2405D41188DF80010AE
:1046700001236A464C21200000F006FD31BD38B50B
:1046800004000D002021200000F039FD01236A46BE
:10469000CC21200000F0ACFC9DF8000010F0F300ED
:1046A0008DF800009DF80010DFF84007EDB2405D86
:1046B00001438DF8001001236A464C21200000F0D0
:1046C000E3FC002008E0411CC9B24900DFF82027C4
:1046D0000300DBB2D154401C0100C9B20829F2DB4F
:1046E0000823DFF80C271021200000F0CDFC31BD9D
:1046F0002DE9FC4105000F0016009846089C20217A
:10470000280000F0FCFC01236A46CD21280000F0BF
:104710006FFC9DF8000010F0F0008DF800009DF88F
:104720000000B60056EAC70656EA48062643064386
:104730008DF8006001236A464D21280000F0A4FC9A
:1047400001236A46CD21280000F052FCA87A10F01F
:104750003F008DF8000001236A465221280000F036
:1047600093FC01236A46D221280000F041FC6889AD
:1047700080B2000A8DF8000001236A465321280008
:1047800000F082FC01236A46D321280000F030FCAF
:10479000BDE8F38138B504000D002021200000F0B1
:1047A000AEFC01236A46CD21200000F021FC9DF8DB
:1047B000000010F07F008DF800009DF8000050EA26
:1047C000C5108DF8000001236A464D21200000F03D
:1047D0005BFC31BD38B504000D002021200000F045
:1047E0008EFC01236A46CD21200000F001FC9DF8DB
:1047F000000010F0BF008DF800009DF8000050EAA6
:1048000085108DF8000001236A464D21200000F03C
:104810003BFC31BD7CB504000D00160020212000BA
:1048200000F06DFC01236A46CD21200000F0E0FB82
:104830009DF8000010F0CF008DF800009DF80000FA
:10484000360156EA451606438DF8006001236A4694
:104850004D21200000F018FC73BD7CB504000D0054
:1048600016002021200000F04AFC01236A46CE21D8
:10487000200000F0BDFB9DF8000056EAC516064377
:104880008DF8006001236A464E21200000F0FCFBF9
:1048900073BD000038B52DED028B82B00400DFED52
:1048A000A20AB4EE600AF1EE10FA0BD500208DF8E2
:1048B0000000DFED9E0A20EE200AF1EE000A20EE55
:1048C000208A28E0DFED9A0AB4EE600AF1EE10FAD1
:1048D0000BDB60208DF80000DFED940A20EE200A4B
:1048E000F7EE000A20EE208A15E0DFED900A60EE78
:1048F000200AB0EE001A20EE818ADFED8E0AB4EEB7
:10490000600AF1EE10FA03DB40208DF8000002E0AF
:1049100020208DF800002021200000F0F0FB012372
:104920000DF10102E021200000F062FB9DF8010082
:1049300010F09F008DF801009DF800109DF8010017
:1049400001438DF8001001236A466021200000F029
:104950009BFB9FED790A88EE000AFDEEC00A10EE7F
:10496000900A8DF800009DF8000000EE900AF8EE25
:10497000600A30EE600ADFED710A20EE200ABCEE1C
:10498000C00A10EE105A01236A466221200000F08E
:104990007BFB28008DF8000001236A46632120007C
:1049A00000F072FB2800000A8DF8000001236A461F
:1049B0006421200000F068FB2D0C8DF800500123CD
:1049C0006A466521200000F05FFB02B0BDEC028B5F
:1049D00031BD38B504000D002021200000F08FFB10
:1049E000DFF81004EDB22844007D8DF800000123AB
:1049F0006A467F21200000F047FB31BDF8B5040076
:104A00000D002221200000F07AFB0123DFF8E803EB
:104A10002900C9B200EB01026F21200000F034FB35
:104A20002021200000F06BFB0323DFF8D0032900D6
:104A3000C9B200EBC1025421200000F025FBDFF8D1
:104A4000C06301232800C0B206EBC002572120003A
:104A500000F01AFB01232800C0B206EBC000421C84
:104A60005821200000F010FB01232800C0B206EB03
:104A7000C000821C5921200000F006FB0123280001
:104A8000C0B206EBC000021D5B21200000F0FCFA62
:104A900001232800C0B206EBC000C21D5E21200029
:104AA00000F0F2FA2121200000F029FBDFF8547316
:104AB000380014262900C9B27143405A8DF800000D
:104AC00001236A466C21200000F0DEFA1223280040
:104AD000C0B206FB00F607EB0600821C6D21200029
:104AE00000F0D2FADFF8206301232800C0B206EB01
:104AF00000026021200000F0C7FA01232800C0B2A4
:104B00003044C21C6221200000F0BEFA0123EDB245
:104B100006EB0500821D6621200000F0B5FA202179
:104B2000200000F0ECFAF1BD0000C84300247449F5
:104B3000000048440100E1430024744B0000804918
:104B400080B501236A46EA2100F052FA9DF8000080
:104B500002BD3EB5040014F110002021200000F039
:104B6000CEFA002515E0A9482900C9B230F8111085
:104B700089B2090A2A00D2B230F812008DF8040076
:104B8000012301AA51F04001C9B2200000F07CFAD3
:104B90006D1C2800C0B20628E5D3002515E09C480E
:104BA0002900C9B230F8111089B2090A2A00D2B21C
:104BB00030F812008DF80400012301AA51F04001E1
:104BC000C9B2200000F060FA6D1C2800C0B21228A3
:104BD000E5D3002515E08F482900C9B230F811103F
:104BE00089B2090A2A00D2B230F812008DF8040006
:104BF000012301AA51F04001C9B2200000F044FA9B
:104C00006D1C2800C0B20028E5D02021200000F053
:104C100076FA002515E080482900C9B230F8111055
:104C200089B2090A2A00D2B230F812008DF80400C5
:104C3000012301AA51F04001C9B2200000F024FA7A
:104C40006D1C2800C0B20B28E5D32121200000F004
:104C500056FA002515E071482900C9B230F8111044
:104C600089B2090A2A00D2B230F812008DF8040085
:104C7000012301AA51F04001C9B2200000F004FA5A
:104C80006D1C2800C0B20028E5D02221200000F0D1
:104C900036FA002515E062482900C9B230F8111033
:104CA00089B2090A2A00D2B230F812008DF8040045
:104CB000012301AA51F04001C9B2200000F0E4F93B
:104CC0006D1C2800C0B20728E5D32021200000F089
:104CD00016FA032204212000FFF7A5FC0120009012
:104CE0000123012200212000FFF702FD0021200006
:104CF000FFF750FD00212000FFF76CFD012201218C
:104D00002000FFF787FD362200212000FFF7A5FDD8
:104D1000217A2000FFF75DFE2000FFF73FFC37BD42
:104D20001CB504002021200000F0E9F901236A46A7
:104D3000E021200000F05CF99DF8000050F0080030
:104D40008DF8000001236A466021200000F09CF9E4
:104D500001236A46E021200000F04AF99DF8000096
:104D60000007F5D413BD1CB504002021200000F07D
:104D7000C6F901236A46FE21200000F039F99DF8AA
:104D8000000050F080008DF8000001236A467E216B
:104D9000200000F079F901236A46FE21200000F08E
:104DA00027F99DF800000006F5D413BD80B5FFF784
:104DB000E1FB01BD38B5040001236A46C42120008F
:104DC00000F016F99DF800502800C0B2002808D065
:104DD00000208DF8000001236A464421200000F0E5
:104DE00053F92800C0B232BDD4050020D8050020F8
:104DF000083C0020B80500202C060020DC0500201F
:104E00000406002044060020340600202C80000800
:104E1000587F00087E410008CC7F0008EA41000866
:104E20001C80000810B5040061600821200000F01B
:104E300066F9200000F08DF92000FFF79BFB2000B1
:104E4000FFF7ACFB002828D0102202212000FFF73A
:104E5000C4FB2000FFF77DFE200000F07AF920213E
:104E6000200000F04CF9112200212000FFF707FC80
:104E700094ED030A2000FFF70DFD617A2000FFF793
:104E8000BDFD2000FFF74CFF2000FFF76CFF200066
:104E9000FFF78CFF200000F05CF910BD1CB504008A
:104EA0000821200000F02BF92021200000F027F934
:104EB00098208DF8000001236A467921200000F037
:104EC000E3F82000FFF756FB2021200000F017F93F
:104ED00011208DF8000001236A464121200000F0D6
:104EE000D3F810208DF8000001236A4641212000EC
:104EF00000F0CAF840208DF8000001236A464021E6
:104F0000200000F0C1F838208DF8000001236A4627
:104F10005121200000F0B8F858208DF8000001233E
:104F20006A465A21200000F0AFF82121200000F04D
:104F3000E6F814208DF8000001236A466121200064
:104F400000F0A2F82221200000F0D9F803208DF80B
:104F5000000001236A466621200000F095F88820B1
:104F60008DF8000001236A466921200000F08CF8CA
:104F700068208DF8000001236A466E21200000F0B1
:104F800083F806208DF8000001236A466F21200077
:104F900000F07AF890208DF8000001236A46742111
:104FA000200000F071F89C208DF8000001236A4673
:104FB0007921200000F068F85D208DF800000123C1
:104FC0006A467B21200000F05FF82021200000F0DD
:104FD00096F82000FFF7E2FA002803D00A2120000B
:104FE00000F08DF813BD80B5FFF7D8FA01BD0000C1
:104FF0002DE9FC41040015001E00002C01D1FF200A
:105000003DE08DF800106068006801F00CF8606801
:1050100041686068006800F0C2FF01276068C068EE
:1050200017FA00F06168896848616A460121606882
:10503000006800F0D0FFDFF84C8002224FF40041FE
:105040004046FEF778F82A00F6B231006068006842
:1050500000F0D5FF10224FF400414046FEF76BF8F8
:105060006068C06887406068806807616068006841
:1050700000F0A3FF6068006800F0DAFF0020BDE8E0
:10508000F6810000000C0140F8B5040015001E0078
:10509000002C01D1FF2031E08DF80010606800681D
:1050A00000F0C1FF606841686068006800F077FF49
:1050B00001276068C06817FA00F061688968486174
:1050C0006A4601216068006800F085FF002D06D067
:1050D0002A00B6B231006068006800F07CFF6068AA
:1050E000C06887406068806807616068006800F099
:1050F00064FF6068006800F09BFF0020F2BD32B5DD
:1051000004006068006800F08EFF606841686068B5
:10511000006800F044FF01256068C06815FA00F0DF
:105120006168896848616A4601216068006800F02A
:1051300052FF6068C068854060688068056160688B
:10514000006800F03AFF6068006800F071FF00201E
:1051500032BD70B5040020212000FFF7D0FF14F10C
:10516000100500260EE001232A0056F0C001C9B246
:105170002000FFF73DFF6D1C03E03000C0B20528A2
:10518000F1D1761C3000C0B21F28F6DB14F12F05D8
:1051900020260FE001232A0056F0C001C9B22000EA
:1051A000FFF726FF6D1C04E03000C0B23638062839
:1051B000F0D2761C3000C0B2402808DA3000C0B20D
:1051C0002128F6D03000C0B22728EDD1F1E7212107
:1051D0002000FFF794FF14F1470521260FE001237B
:1051E0002A0056F0C001C9B22000FFF701FF6D1C74
:1051F00004E03000C0B227380528F0D2761C300019
:10520000C0B23F2804DA3000C0B22528F1D1F5E75A
:1052100020212000FFF773FF70BD000080B5202023
:1052200080F31188FCF721FF01BD80B5FCF722FF58
:10523000002080F3118801BD80B5FFF7EFFF01BDAD
:1052400080B5FFF7F2FF01BD80B5FEF75DFE01BD41
:1052500080B5FCF7E4FE00F02EF800F0B9FF01BDC8
:1052600080B51E48016851F00801016000681C48C3
:10527000016851F48021016048F69F401949086097
:105280004FF6FF7018490860002018490860002098
:105290001749086000201749086000201649086077
:1052A00001201649086001201549086008213220B4
:1052B00001F032FA01BD80B511490869CA6802F0EF
:1052C000FF021040C2430A61800705D5FFF7B4FF13
:1052D000FFF7BAFFFFF7B4FF01BD00001C1002404A
:1052E000042004E0280C00402C0C0040180C004066
:1052F000340C00400C0C0040040C0040140C004026
:10530000000C004030B4C3685B1CC3608368C91ADA
:10531000891A8160D0E9044582680023A2186B4194
:10532000C0E9042341688268914201D281684160EA
:1053300081680268914201D28168016030BC704787
:1053400038B586B01C4D0020C5F89000684600F0C6
:105350000FF80424684600F019F8684600F01AF8BF
:10536000641E002CF6D10098C5F8900007B030BD3F
:105370005FF0FF3101600021416000218160002168
:10538000C16000220023C0E9042370470B4909686B
:105390008160704780B509490968074AD2F89020B2
:1053A000FFF7B0FF01BD80B5044A12688A60002291
:1053B0008968FFF7A7FF01BDD8220020041000E094
:1053C00030B400240DE01500ADB22D0A23009BB2CD
:1053D000C35C5D40084BEDB233F8153093EA02220E
:1053E000641C23000D009BB2ADB2AB42EBD31000A6
:1053F00080B230BC70470000D07A000880B5202011
:1054000080F31188FCF727FE01BD80B5FCF728FE6C
:10541000002080F3118801BD10B54FF48062C0B246
:105420004FF400644A4B04FB003001F0B9F910BDA1
:1054300038B504000D00FFF7E1FF4FF4806229004A
:10544000E4B24FF40063424803FB0404200001F07F
:10545000BDF9FFF7DAFF31BD80B592B2022392FBAE
:10546000F3F200F1006010F5703001F099F97FF06F
:10547000010002BD2DE9F84F13009BB213FA80F42E
:1054800003009BB24FF4006593FBF5F8E40A641C3B
:105490001500070000264046C0B2002806D0BFB263
:1054A0004246D2B24FF4006000FB127700912AE02E
:1054B000AB4609E0380080B2D0F50060290089B21F
:1054C0008842F5DAD7F5006B5A4692B2009831005F
:1054D00089B20144380080B2484401F00CFA4946D0
:1054E0004046C0B2FFF7A4FF1BEB06061BEB070705
:1054F000380080B290FBFAF70AFB1707B5EB0B0BED
:105500005D4618F1010840462100C0B2C9B2884288
:105510001AD2DFF8409049464046C0B2FFF77CFF00
:10552000380080B24FF4006A90FBFAF10AFB1100D8
:105530000028BFD1280080B240F60101884201DB7B
:10554000D346C1E7AB46BFE77FF00100BDE8F28F6D
:1055500000C00308F83E002062B38B0708D0521E3B
:1055600011F8013B00F8013B00F024808B07F6D1D5
:10557000830740F0208000BF103A07D330B4B1E871
:105580003810103AA0E83810F9D230BC530724BFC5
:10559000B1E80810A0E8081044BF51F8043B40F8F7
:1055A000043BD20724BF31F8022B20F8022B44BF62
:1055B0000B7803707047121F17D35B0009D151F8A5
:1055C000043B20F8023B1B0C121F20F8023BF6D2D2
:1055D0000BE051F8043B00F8013B1B0A20F8023BAA
:1055E0001B0C121F00F8013BF3D238BF121D521ED4
:1055F00024BF11F8013B00F8013BF8D870470000C8
:105600007047000080B5FCF70AFD914800F036F9BC
:1056100000F0DEFD01BD80B5FCF701FD8D4800F016
:105620002DF900F0D5FD01BD80B5FCF7F8FC8A48E6
:1056300000F024F900F0CCFD01BD10B5844C200031
:10564000FDF7BCFC042020745FF08040A061814C19
:105650002000FDF7B3FC042020748048A0617E4C3C
:105660002000FDF7ABFC042020747D48A06110BD34
:1056700010B504002078012851D17548A04215D1F9
:105680007848016851F001010160006876480168BE
:1056900051F001010160016849084900016000689A
:1056A00007211C2001F038F8704860616948A04269
:1056B00015D16C48016851F00201016000686A4828
:1056C000016851F002010160016831F002010160DE
:1056D000006807211D2001F01FF8644860615E48E2
:1056E000A04215D15F48016851F0040101600068D3
:1056F0005D48016851F004010160016831F0040166
:105700000160006807211E2001F006F8574860611B
:1057100046F66800A1698861A169C86111E00020AE
:10572000A16908600020A16948630020A16988631D
:105730000020A169C8630020A16908640020A16954
:105740004862606961680968B0FBF1F0401EA169B8
:105750008862A068401EA169C8626068C06AA169C9
:10576000486000206168097B11F00F01012903D016
:10577000022903D150F0020050F001006168097D58
:1057800011F00F01012903D0022903D150F02000AC
:1057900050F010006168097F11F00F01012903D05A
:1057A000022903D150F4007050F48070616891F8C0
:1057B000241011F00F01012903D0022903D150F464
:1057C000005050F48050A16908620120A16948612D
:1057D0000020A16908616068006B000A0002A169ED
:1057E000C8608520A169086010BD10B5040020784C
:1057F00002282CD10020A16908600020A169C8609E
:105800000020A16908611248A04208D11C2000F0C4
:105810009AFF1448016849084900016000680D4872
:10582000A04208D11D2000F08EFF0E48016831F023
:105830000201016000680848A04208D11E2000F063
:1058400082FF0848016831F004010160006810BD62
:10585000E83C0020043D0020203D002000040040E2
:10586000000800401C1002401010024000A24A0430
:105870008069C9B200EB81004263704738B504000B
:10588000A0690569A069C06800F0FF000540E84311
:10589000A1690861A80707D560680069002803D0DE
:1058A0002000616809698847680707D560688069D2
:1058B000002803D02000616889698847280707D538
:1058C0006068006A002803D020006168096A884780
:1058D000E80607D56068806A002803D02000616868
:1058E000896A8847E80707D560688068002803D080
:1058F000200061688968884731BD00000060406011
:1059000070470100086802680A600A6851607047C1
:1059100001684268116041680268516070479B48A5
:105920008169896800688068814201D2012000E0B5
:105930000020C0B2704780B5202080F31188FCF7AA
:1059400094FB01BD80B5FCF795FB002080F3118826
:1059500001BDC068002801D0012000E00020C0B2D5
:1059600070478168491C8160704710B5874C2000E2
:10597000FFF7C4FF0020A0602461646110BD002116
:1059800080F82010814909688A6883689A42FAD2AF
:1059900001604A68426042681060486070470021B8
:1059A00080F820107949096882688B689A42FAD396
:1059B00001604A684260426810604860704738B5CC
:1059C000724DAC6984F820002800FFF79AFFA861A7
:1059D0000120A96981F820002100A869FCF72CFBAF
:1059E000EFF309806438E169884202D26848FEF723
:1059F00087FA2100A86900F085FF31BD10B50400C9
:105A0000FFF799FF94F82000002808D0032809D058
:105A100004280ED0052809D007280AD00DE0FFF78A
:105A200091FF12E00020616A086006E0606AFFF7FB
:105A300098FF2000FFF76CFFFFE75FF0FF30606228
:105A40002000FFF79CFFFFF77DFF10BD18B585B064
:105A5000040011F1010F12D04C4883694D4A684689
:105A6000FCF73BFB2000C0B2FFF7A9FF6846FFF739
:105A700070FF002807D06846FCF78DFB03E020008C
:105A8000C0B2FFF79CFF41488069406A06B010BD74
:105A900070B504003D4EB06961628168A2689142B0
:105AA00003D32000FFF76BFF17E0FFF778FF050037
:105AB000B461012084F8200029002000FCF7BCFA22
:105AC000EFF309806438E969884202D23048FEF772
:105AD00017FA2900200000F015FF70BD80B5FFF710
