:020000040800F2
:1000000000040020414B0008371D0008371D000880
:10001000371D0008371D0008371D0008371D000870
:10002000371D0008371D0008371D0008F72200089B
:10003000371D0008371D0008371D0008371D000850
:10004000371D0008371D0008371D0008371D000840
:10005000371D0008371D0008094200083742000814
:100060006542000893420008C1420008E11E0008F2
:10007000F31E0008051F0008171F0008291F0008AD
:100080003B1F00084D1F0008371D0008371D0008E2
:10009000371D0008371D0008371D0008EF42000813
:1000A000371D000835440008371D0008371D0008BB
:1000B0004D24000847440008371D0008371D00087C
:1000C000371D0008371D0008371D0008371D0008C0
:1000D000371D00088B410008371D0008371D000838
:1000E00065430008371D0008371D0008371D00084C
:1000F000371D0008371D0008371D0008371D000890
:10010000371D0008371D0008371D0008371D00087F
:10011000371D0008371D0008371D0008371D00086F
:100120005F1F0008711F0008831F0008951F00084B
:10013000371D0008371D0008371D0008371D00084F
:10014000371D0008371D0008371D0008371D00083F
:10015000371D0008371D0008371D0008371D00082F
:10016000371D0008371D0008371D0008371D00081F
:10017000371D0008371D0008371D0008371D00080F
:1001800080B50C2100F0B1FC01BD1CB5040020219C
:10019000200000F0AAFC022000F083FE01236A4642
:1001A000C121200000F01AFC9DF800008006F2D565
:1001B00013BD7CB504000D002021200000F095FC4B
:1001C00001236A46C021200000F008FCEDB2012D99
:1001D00006D19DF8000050F040008DF8000005E0C9
:1001E0009DF8000010F0BF008DF8000001236A4662
:1001F0004021200000F03EFC2221200000F075FC90
:100200008F208DF8000001236A466121200000F054
:1002100031FC04262121200000F067FC002512E0BB
:10022000DFF86C0601232900C9B200EB41014A1C2A
:100230002900C9B210F8111051F04001C9B22000D4
:1002400000F018FC6D1C28003100C0B2C9B2884211
:10025000E6D32021200000F048FC73BD1CB504004B
:1002600003208DF800002021200000F03EFC012337
:100270006A467D21200000F0FDFB18208DF800006B
:1002800001236A467C21200000F0F4FB13BD38B541
:1002900004001500481E8DF800002021200000F009
:1002A00024FC01236A464B21200000F0E3FB0123DC
:1002B0006A46CC21200000F091FB9DF8000010F070
:1002C000FC008DF800009DF80010DFF8C805EDB2C5
:1002D000405D41188DF8001001236A464C21200032
:1002E00000F0C8FB31BD38B504000D00202120000E
:1002F00000F0FBFB01236A46CC21200000F06EFBDE
:100300009DF8000010F0F3008DF800009DF800103B
:10031000DFF88405EDB2405D01438DF80010012344
:100320006A464C21200000F0A5FB002008E0411C9B
:10033000C9B24900DFF864250300DBB2D154401C88
:100340000100C9B20829F2DB0823DFF8502510218B
:10035000200000F08FFB31BD2DE9FC4105000F00AE
:1003600016009846089C2021280000F0BEFB0123BF
:100370006A46CD21280000F031FB9DF8000010F006
:10038000F0008DF800009DF80000B60056EAC706A0
:1003900056EA4806264306438DF8006001236A4664
:1003A0004D21280000F066FB01236A46CD2128007C
:1003B00000F014FBA87A10F03F008DF80000012334
:1003C0006A465221280000F055FB01236A46D221DB
:1003D000280000F003FB688980B2000A8DF8000055
:1003E00001236A465321280000F044FB01236A469A
:1003F000D321280000F0F2FABDE8F38138B50400FB
:100400000D002021200000F070FB01236A46CD2161
:10041000200000F0E3FA9DF8000010F07F008DF856
:1004200000009DF8000050EAC5108DF8000001237F
:100430006A464D21200000F01DFB31BD38B5040097
:100440000D002021200000F050FB01236A46CD2141
:10045000200000F0C3FA9DF8000010F0BF008DF8F6
:1004600000009DF8000050EA85108DF8000001237F
:100470006A464D21200000F0FDFA31BD7CB5040034
:100480000D0016002021200000F02FFB01236A46FA
:10049000CD21200000F0A2FA9DF8000010F0CF005E
:1004A0008DF800009DF80000360156EA4516064317
:1004B0008DF8006001236A464D21200000F0DAFA31
:1004C00073BD7CB504000D0016002021200000F053
:1004D0000CFB01236A46CE21200000F07FFA9DF834
:1004E000000056EAC51606438DF8006001236A46EF
:1004F0004E21200000F0BEFA73BD000038B52DED8E
:10050000028B82B00400DFED940AB4EE600AF1EED3
:1005100010FA0BD500208DF80000DFED900A20EED8
:10052000200AF1EE000A20EE208A28E0DFED8C0A96
:10053000B4EE600AF1EE10FA0BDB60208DF80000DB
:10054000DFED860A20EE200AF7EE000A20EE208A70
:1005500015E0DFED820A60EE200AB0EE001A20EE10
:10056000818ADFED800AB4EE600AF1EE10FA03DB57
:1005700040208DF8000002E020208DF800002021AE
:10058000200000F0B2FA01230DF10102E021200069
:1005900000F024FA9DF8010010F09F008DF8010092
:1005A0009DF800109DF8010001438DF80010012313
:1005B0006A466021200000F05DFA9FED6B0A88EE2C
:1005C000000AFDEEC00A10EE900A8DF800009DF8BA
:1005D000000000EE900AF8EE600A30EE600ADFEDEF
:1005E000630A20EE200ABCEEC00A10EE105A012366
:1005F0006A466221200000F03DFA28008DF80000D4
:1006000001236A466321200000F034FA2800000A22
:100610008DF8000001236A466421200000F02AFAC8
:100620002D0C8DF8005001236A466521200000F052
:1006300021FA02B0BDEC028B31BD38B504000D00CB
:100640002021200000F051FADFF85402EDB22844D6
:10065000007D8DF8000001236A467F21200000F014
:1006600009FA31BDF8B504000D002221200000F088
:100670003CFA2800C0B2052803DA44208DF80000B7
:1006800002E054208DF8000001236A466F2120000B
:1006900000F0F0F92021200000F027FA0323DFF812
:1006A00004022900C9B200EBC1025421200000F06D
:1006B000E1F90823DFF8F0012900C9B200EBC1021B
:1006C0005721200000F0D6F92121200000F00DFA7A
:1006D000DFF8D861300014272900C9B27943405AA5
:1006E0008DF8000001236A466C21200000F0C2F959
:1006F0001223EDB27D4306EB0500821C6D21200024
:1007000000F0B8F92021200000F0EFF9F1BD38B574
:1007100004002221200000F0E8F9002512E0DFF8B3
:10072000900101232900C9B200EB41014A1C2900B4
:10073000C9B210F8111051F04001C9B2200000F008
:1007400099F96D1C2800C0B20328E8DB20212000A5
:1007500000F0CBF931BD00000000C843002474490B
:10076000000048440100E1430024744B000080492C
:100770007CB5040040224F4D29004F4E300000F060
:10078000DDFB40224D4E2900300000F0D7FB200059
:10079000FFF7BDFF2000FFF761FD01212000FFF7FB
:1007A00008FD032204212000FFF771FD1122002122
:1007B0002000FFF798FD0120009001230122012174
:1007C0002000FFF7C9FD00212000FFF717FE0021E0
:1007D0002000FFF733FE012201212000FFF74EFE2B
:1007E000362200212000FFF76CFE94ED030A200062
:1007F000FFF784FE217A2000FFF71FFF617A2000B7
:10080000FFF730FF2000FFF7C0FC73BD1CB50400EC
:1008100001236A46E021200000F0E0F89DF8000086
:1008200050F008008DF8000001236A466021200086
:1008300000F020F901236A46E021200000F0CEF804
:100840009DF800000007F5D413BD1CB5040001237A
:100850006A46FE21200000F0C1F89DF8000050F02B
:1008600080008DF8000001236A467E21200000F000
:1008700001F901236A46FE21200000F0AFF89DF83F
:1008800000000006F5D413BD80B5FFF779FC01BD6B
:10089000B44D000884040020880400204423002074
:1008A00068040020D40400200C050020440500202A
:1008B000CC0400208C040020502300209023002032
:1008C0001CB5040061602000FFF75AFC08212000DD
:1008D00000F00BF9200000F032F92021200000F098
:1008E00004F904208DF8000001236A464821200005
:1008F00000F0C0F801236A46C121200000F06EF824
:100900009DF8000050F001008DF8000001236A46B8
:100910004121200000F0AEF89DF8000010F0FE002C
:100920008DF8000001236A464121200000F0A2F862
:100930002000FFF71DFF2000FFF768FF2000FFF7F2
:1009400084FF2000FFF7A0FF60898DF800000123DD
:100950006A464821200000F08DF8200000F0EFF8F2
:1009600013BDF0B40246106895681318506803EB85
:100970005004C0071DD54D441BE013F8017B05F85A
:10098000017B491EF9D1A0B1B60813F8011B06F08E
:100990000306032E08BF13F8016B01EB0621494241
:1009A000801C294405D011F8016B05F8016B401E2D
:1009B000F9D1A3420ED013F8016B16F0030104BF66
:1009C00013F8011BC91C30090F28DAD113F8010BE9
:1009D0000F30D6E7F0BC02F10C0070472DE9FC4166
:1009E000040015001E00002C01D1FF203DE08DF811
:1009F00000106068006800F06FFB60684168606824
:100A0000006800F025FB01276068C06817FA00F055
:100A10006168896848616A4601216068006800F081
:100A200033FBDFF84C8002224FF40041404600F0D7
:100A30009EFB2A00F6B231006068006800F038FBC7
:100A400010224FF40041404600F091FB6068C068FE
:100A500087406068806807616068006800F006FB96
:100A60006068006800F03DFB0020BDE8F6810000F2
:100A7000000C0140F8B5040015001E00002C01D147
:100A8000FF2031E08DF800106068006800F024FB62
:100A9000606841686068006800F0DAFA0127606801
:100AA000C06817FA00F06168896848616A460121E8
:100AB0006068006800F0E8FA002D06D02A00B6B29F
:100AC00031006068006800F0DFFA6068C068874045
:100AD0006068806807616068006800F0C7FA606855
:100AE000006800F0FEFA0020F2BD32B50400606834
:100AF000006800F0F1FA606841686068006800F022
:100B0000A7FA01256068C06815FA00F06168896875
:100B100048616A4601216068006800F0B5FA6068C3
:100B2000C06885406068806805616068006800F0A2
:100B30009DFA6068006800F0D4FA002032BD70B5FC
:100B4000040020212000FFF7D0FF14F1100500263B
:100B50000EE001232A0056F0C001C9B22000FFF7C1
:100B60003DFF6D1C03E03000C0B20528F1D1761CBA
:100B70003000C0B21F28F6DB14F12E0520260FE04E
:100B800001232A0056F0C001C9B22000FFF726FF5A
:100B90006D1C04E03000C0B236380628F0D2761C56
:100BA0003000C0B2402808DA3000C0B22128F6D0A8
:100BB0003000C0B22728EDD1F1E721212000FFF756
:100BC00094FF14F1460521260FE001232A0056F078
:100BD000C001C9B22000FFF701FF6D1C04E0300026
:100BE000C0B227380528F0D2761C3000C0B23F28AA
:100BF00004DA3000C0B22528F1D1F5E72021200029
:100C0000FFF773FF70BD30B4002513E050F8042BDC
:100C1000D30744BFA9F101039A18091F042942F818
:100C2000045BFAD213468C0744BF15809B1CC9078E
:100C300048BF1D7050F8041B0029E7D130BC704735
:100C4000006070470168814201D0012000E000206F
:100C5000C0B270470060406070470168814201D0B7
:100C6000012000E00020C0B270470100086802685F
:100C70000A60704701604A684260426810604860DC
:100C800070470100086802680A600A68516070478E
:100C900080B5202080F3118800F0EBFA01BD80B50B
:100CA00000F0ECFA002080F3118801BDDFF8640247
:100CB00080697047C069704780B50100082000F066
:100CC0009BFB01BD10B50C00FFF7DBFF446200F099
:100CD0002CFB10BD10B50400A260022084F8200097
:100CE000002084F82100E2630020A06300206063FC
:100CF000012084F82200A161DFF818022061416917
:100D0000616161690C61446114F12800FFF798FF8B
:100D100014F12C00FFF79EFF14F1480000F048FC8E
:100D2000200010BD01E00270401C8842FBD37047D8
:100D300080B58168B1F160034168D961B3F16401A4
:100D4000D9600169DA6811644169DA6851647249ED
:100D5000DA681166C26801681800FFF7BBFF02BDC0
:100D600010B504005522A1686068FFF7DBFFFFF7AC
:100D70008FFF2000FFF7DCFF04000021200000F0BF
:100D80005DFBFFF78CFF200010BD2DE9F04107004F
:100D9000884614001E00069D552207EB0801380006
:100DA000FFF7C0FFFFF774FF07EB08006038C7616B
:100DB000B0F16401C160C1680E64C1684D645649F8
:100DC000C268116622005549FFF784FF0400002124
:100DD000200000F033FBFFF762FF2000BDE8F08148
:100DE00010B50400FFF754FF94F82200401E84F869
:100DF000220094F82200002824D194F820000F2823
:100E000020D1206961690861606921694861FFF743
:100E100046FF94F8210010F00300C0B2012802D070
:100E2000022806D00DE02000FFF744FF00F0F4FB9D
:100E300007E02000FFF73EFF0100206C00F04AFCB5
:100E4000FFE701E0FFF72BFF10BD10B50400FFF72F
:100E50001FFF200000F001F810BD10B52D498C696E
:100E6000606205E014F12800FFF7FFFE00F05DFA74
:100E700014F12800FFF7E6FE0028F3D194F82200D1
:100E800000280AD194F8210010F0030F05D1206941
:100E9000616908616069216948610F2000F065FAA5
:100EA00010BD10B50400FFF7F3FE2000FFF704FFAC
:100EB000FFF7F5FE10BD38B505000C00FFF7F6FE94
:100EC000002C02D15FF0FF3005E028604562210070
:100ED000032000F091FA32BD80B50268002A06D0E6
:100EE0000268002303605162100000F01EFA01BD89
:100EF00010B50C00002C02D15FF0FF3008E00100BB
:100F000004488069FFF7B6FE2100042000F074FA5F
:100F100010BD000040170020111D0008AC4D000856
:100F200038B504000D002000FFF797FE002803D01D
:100F300029002000FFF7C6FE31BDFFFF62B38B071B
:100F400008D0521E11F8013B00F8013B00F024804C
:100F50008B07F6D1830740F0208000BF103A07D3FB
:100F600030B4B1E83810103AA0E83810F9D230BCEB
:100F7000530724BFB1E80810A0E8081044BF51F897
:100F8000043B40F8043BD20724BF31F8022B20F881
:100F9000022B44BF0B7803707047121F17D35B00FE
:100FA00009D151F8043B20F8023B1B0C121F20F81A
:100FB000023BF6D20BE051F8043B00F8013B1B0A60
:100FC00020F8023B1B0C121F00F8013BF3D238BF84
:100FD000121D521E24BF11F8013B00F8013BF8D846
:100FE000704780B5202080F3118800F042F901BDE0
:100FF00080B500F043F9002080F3118801BD80B571
:10100000FFF7EFFF01BD80B5FFF7F2FF01BD80B52F
:101010005FF0FF31FFF74FFF02BD80B500F0A2FB8C
:1010200001BD80B500F0A6FB01BD80B500F0E6FB78
:1010300001BD80B500F09DFC01BD80B501210170AE
:1010400000214160002181600C30FFF7E6FF01BD07
:1010500038B504000D00FFF7D2FF6560200000F0F6
:101060009AFC02202070FFF7CEFF31BD10B50400BE
:10107000FFF7C5FF200000F0F9FC002060600120B0
:101080002070FFF7C0FF10BD70B504000D00160002
:10109000FFF7B5FF0320207032002900200000F088
:1010A0000AFD14F10800FFF7B2FFFFF7ACFF70BDB7
:1010B00070B504000D001600FFF7A1FF032020709B
:1010C00032002900200000F020FD14F10800FFF795
:1010D0009EFFFFF798FF70BD80B50C30FFF7A1FFB2
:1010E00001BD80B50C30FFF7A0FF01BD002108E075
:1010F000374A002342F83130002302EBC10253602B
:10110000491C1029F4D333490A6852F0BD020A6021
:1011100009680168304A11608168304A116041688D
:101120002F4A1160C1682F4A116041692E4A11602F
:1011300001692E4A116081692D4A1160016A2D4AA8
:101140001160C1692C4A1160416A2C4A1160C16A60
:101150002B4A1160816A2B4A1160016B2A4A116087
:10116000816B2A4A1160406B294908607047F0B4CE
:10117000032A01D1016102E0042A00D14161254B1B
:101180009E5C0022150014001300002709E0344380
:1011900005E035435FEA014CF9D452F00F024900F3
:1011A0007F1C082F09D21B0112012D0124015FEAC7
:1011B000016CEED453F00F03ECE741680A40224380
:1011C000426001680B402B430360F0BC7047000095
:1011D00024240020181002400C080140040801409B
:1011E000000801400C0C0140040C0140000C0140BF
:1011F0000C10014004100140001001400C1401408B
:1012000004140140001401400C1C0140041C014066
:10121000001C0140544D000810B5204C0020C4F8BB
:1012200098000020C4F89C0014F1A00000F0C0F960
:1012300014F1B80000F0BCF910BD202080F3118833
:101240001648D0F89810491CC0F89810002080F378
:101250001188704780B50A001049D1F89C305B1C9A
:10126000C1F89C3010F1480112F1480000F0BBF9C0
:1012700001BD80B50A4800F0A9F901BD80B5084854
:1012800000F0A8F901BD80B5064800F09FF901BD46
:1012900080B5044800F09EF901BD00004017002011
:1012A000E0170020F8170020006040607047010040
:1012B000086802680A600A685160704701684268FD
:1012C000116041680268516070479B488169896874
:1012D00000688068814201D2012000E00020C0B295
:1012E000704780B5202080F31188FFF7CCFF01BD47
:1012F00080B5FFF7CDFF002080F3118801BDC068E5
:10130000002801D0012000E00020C0B270478168B1
:10131000491C8160704710B5874C2000FFF7C4FF5F
:101320000020A0602461646110BD002180F82010BD
:10133000814909688A6883689A42FAD201604A68DA
:1013400042604268106048607047002180F82010B9
:101350007949096882688B689A42FAD301604A68C1
:101360004260426810604860704738B5724DAC69A1
:1013700084F820002800FFF79AFFA8610120A969DE
:1013800081F820002100A869FFF764FFEFF30980CE
:101390006438E169884202D2684800F09DFC21006F
:1013A000A86900F0A9FC31BD10B50400FFF799FF52
:1013B00094F82000002808D0032809D004280ED073
:1013C000052809D007280AD00DE0FFF791FF12E0A9
:1013D0000020616A086006E0606AFFF798FF20005D
:1013E000FFF76CFFFFE75FF0FF3060622000FFF760
:1013F0009CFFFFF77DFF10BD18B585B0040011F10B
:10140000010F12D04C4883694D4A684600F0BBFC7E
:101410002000C0B2FFF7A9FF6846FFF770FF002861
:1014200007D0684600F00DFD03E02000C0B2FFF7D2
:101430009CFF41488069406A06B010BD70B5040049
:101440003D4EB06961628168A268914203D3200079
:10145000FFF76BFF17E0FFF778FF0500B46101208D
:1014600084F8200029002000FFF7F4FEEFF3098044
:101470006438E969884202D2304800F02DFC290026
:10148000200000F039FC70BD80B5FFF71EFF00287A
:1014900001D000F00DF801BD27490868806889690E
:1014A0008968814201D2012000E00020C0B270476B
:1014B00038B5214DAC692800FFF7F9FEA86101207D
:1014C000A96981F820002000FFF73FFF04002100F8
:1014D000A869FFF7BFFEEFF309806438E16988422D
:1014E00002D2164800F0F8FB2100A86900F004FCC5
:1014F00031BD38B5104DAC692800FFF7D8FEA861A2
:101500000120A96981F820002000FFF71EFF0400D8
:101510002100A869FFF79EFEEFF309806438E169B6
:10152000884202D2054800F0D7FB2100A86900F0EC
:10153000E3FB31BD0000000040170020684D0008AB
:10154000A913000830B4C3685B1CC3608368C91A60
:10155000891A8160D0E9044582680023A2186B4192
:10156000C0E9042341688268914201D281684160E8
:1015700081680268914201D28168016030BC704785
:1015800038B586B01C4D0020C5F89000684600F0C4
:101590000FF80424684600F019F8684600F01AF8BD
:1015A000641E002CF6D10098C5F8900007B030BD3D
:1015B0005FF0FF3101600021416000218160002166
:1015C000C16000220023C0E9042370470B49096869
:1015D0008160704780B509490968074AD2F89020B0
:1015E000FFF7B0FF01BD80B5044A12688A6000228F
:1015F0008968FFF7A7FF01BD40170020041000E035
:1016000080B52548254901600021416000218160A5
:101610000C3000F0A7F801BD70B5B0F108042568E2
:101620002E1D6068C01DC008606015F10C0000F040
:10163000A1F800E03668281D864201D0A642F9D202
:101640003068002802D030688442F3D230682060CD
:101650003460606804EBC00008302168884208D11B
:10166000606821684968491C081860602068006843
:101670002060706806EBC0000830A04206D1706898
:101680006168491C081870602068306015F10C0012
:1016900000F0B4F870BD0000DC2200201922000820
:1016A00080B5202080F31188FFF7E3FD01BD80B5F0
:1016B000FFF7E4FD002080F3118801BD10B4002481
:1016C000046041608260C36010BC704702680A60B9
:1016D0000160704738B504000D00FFF7E1FF2900F5
:1016E0002000FFF7F3FFFFF7E2FF31BD006040602D
:1016F00070470168814201D0012000E00020C0B2A3
:10170000704710B40A0012688A4203D09368846854
:10171000A342F8D20260516841604168086050609D
:1017200010BC70470100086802680A600A685160CE
:1017300070470168426811604168026851607047F3
:1017400080B5202080F31188FFF793FD01BD80B59F
:10175000FFF794FD002080F3118801BD80B5FFF7ED
:10176000C8FF02BD10B504002000FFF7BFFF002036
:10177000A06010BD10B50400FFF7E2FF200000F0EC
:1017800003F8FFF7E4FF10BD70B504003348856926
:10179000A06800282DD0A66807E03000FFF7C9FF39
:1017A000716AFFF7AEFF706A8668B068A968884200
:1017B00016D2A868B06096F8200000280AD0062843
:1017C000EBD007280CD13000FFF7B3FF716AFFF7A9
:1017D00098FF05E03000FFF7ACFFFFF7A6FDFFE73D
:1017E00021002800FFF78DFF6C620620FFF7BDFD8A
:1017F00003E0A560A86BE060AC6370BDF8B50500C0
:1018000016488669FFF79CFFE868B0632800FFF779
:10181000A5FF00281DD0F76BB46B0BE02000FFF78D
:101820009DFF002805D020688068874201D220688B
:101830008768E468002CF1D1B7602800FFF772FFD9
:10184000A860816BE9608563FFF76FFDFFF71CFE01
:1018500001E00020A860FFF77AFFF1BD40170020EB
:1018600080B5202080F31188FFF70DFD01BD80B504
:10187000FFF70EFD002080F3118801BD80B500F058
:101880002BFA01BD80B5FFF7EBFF01BD80B5FFF777
:10189000EEFF01BD80B5FFF71FFB01BD38B50400A9
:1018A0000D00280702D5AD48FFF7E8FF6068007813
:1018B00000281BD0680707D560684068002803D05F
:1018C0002000616849688847A8074AD56068406871
:1018D000002846D0042020702000616849688847AD
:1018E000207804283DD1032020703AE0606A4068E7
:1018F000006800090001616A496808600E21606A99
:1019000090F90D0011FA00F0626A12685060206AC6
:101910004068006800090001226A52681060206A6D
:1019200090F90D008140206A00684160606840685D
:1019300000280BD004202070200061684968884787
:101940002078042804D10220207001E002202070B9
:10195000FFF798FF002114F10800FFF79BFFFFF746
:1019600095FF31BD80B5080702D57C48FFF786FF9B
:1019700001BD10B57A4C2000FFF75FFB7948E061AC
:10198000002020620020606241F20A00A06241F261
:101990001800E06210BD10B504002078012820D1A5
:1019A0006F48A04213D123006F4A0A21032000F0A0
:1019B00017FB206223006D4A0A21042000F010FB6F
:1019C00060626B48016851F4804101600068E06921
:1019D0000C30216A49688860E0690C30616A4968A6
:1019E00088606068008A000508D4A06A30F47060DE
:1019F000A062E06A30F47060E06209E00520A16A4C
:101A000060F30B21A1620520E16A60F30B21E16222
:101A100060680078002808D0A06A50F02400A06216
:101A2000E06A50F02400E06207E0A06A30F0240091
:101A3000A062E06A30F02400E062E069006830F003
:101A40004000E16908606068008A50F44170E16913
:101A500008606068408A50F00300E1694860E0690E
:101A6000006850F04000E169086010BD10B5040046
:101A7000207802281ED1E069006830F04000E1695A
:101A800008600020E16908600020E1694860206A80
:101A900000F0F3FA606A00F0F0FA00202062002003
:101AA00060622F48A04205D13148016831F480417D
:101AB0000160006810BD10B42E4B046A6468E360D6
:101AC000036A5B685960836A046A64682360436AD6
:101AD0005B68DA60426A52685160C16A51F0800105
:101AE000426A52681160016A4968096851F001014F
:101AF000026A52681160416A4968096851F001013F
:101B0000406A4068016010BC7047036A5B68DA6035
:101B1000026A52685160826A52F08002036A5B680E
:101B20001A60154A436A5B68DA60426A526851601B
:101B3000C16A426A52681160016A4968096851F0D5
:101B40000101026A52681160416A4968096851F0EE
:101B50000101406A4068016070470000904D000834
:101B600000260020003800409D1800086519000874
:101B70001C100240902600203A0F0008081880B27E
:101B80007047081A80B2704780B500F00CFB01BDA9
:101B900080B580B200F00BFB01BD80B500F00CFBFE
:101BA00002BD002080F3118862B6704780B5202006
:101BB00080F31188FFF767FB01BD80B5FFF768FB75
:101BC000002080F3118801BD80B5FFF7E6FF02BD5C
:101BD000F8B5454CE569FFF7F7FF0700390089B212
:101BE000208DFFF7CEFF0600A868864205D2E06987
:101BF00014F11C0188421FD13EE0218DA8684118D4
:101C00002185A868361A14F11C00296848602968E3
:101C1000E161EF680021E960E169814201D1FFF7EC
:101C2000B3FFFFF7CAFF2869B847FFF7BFFFE569B1
:101C3000A8688642E1D2CEE7208D30182085E06981
:101C40008068861BE0698660390089B2208DFFF7C5
:101C500098FF0100A868411A022901D2022104E07C
:101C6000B1F5803F01D34FF6FF71380080B2FFF726
:101C700085FF80B2FFF78CFFF1BD80B500F0AEFAB2
:101C8000FFF7BEFC00F0E9FA01BDFEE710B5FFF773
:101C900042FB00F06DF8FFF7F0FFFFF771FCFFF774
:101CA000BBFA114C8022114914F13000FFF712F8F1
:101CB000A0610F48A169C8610120A16981F82000D5
:101CC00000F027FBA0694830FFF780FCFFF769FFB1
:101CD0000848FFF745F810BD72B60349C862FEE731
:101CE00080B5FFF775FF01BD40170020104D0008BB
:101CF00000040020284D00082DE9F04F2DED108A3A
:101D0000C1F80CD0C3689D46BDEC108ABDE8F08FC9
:101D1000FFF7B4FA002383F311882846A047002078
:101D2000FFF793F8FEE7FFF7A4FAFFF7E2FBFFF7F0
:101D3000A5FA00DFFEE7FEE7081880B27047081A30
:101D400080B2704780B580B200F028FA01BD80B53E
:101D500000F029FA01BD80B580B200F028FA01BD7B
:101D600080B500F029FA02BD80B5FFF7F9FF02BD8A
:101D70005A4810F11C01C16101625FF0FF314162FC
:101D80000021018570472DE9F04104000D00236119
:101D9000E260FFF7E9FF8046022D00D202254F4E98
:101DA00016F11C00F169884213D1A6F82880F4616D
:101DB000346220606060A560B5F5803F01D34FF6C6
:101DC000FF752900308DFFF7B7FF80B2FFF7BAFF2C
:101DD00035E0F769414689B2308DFFF7B0FF2D1825
:101DE000414689B2308DFFF7AAFF854203D2B86819
:101DF0002D1A3F6812E0B86885420FD22900B1F56C
:101E0000803F01D34FF6FF71308DFFF795FF80B211
:101E1000FFF7A1FF02E0B8682D1A3F68B868A84232
:101E2000F9D32760206840686060606804607C6067
:101E3000A560B868451BBD605FF0FF307062BDE80B
:101E4000F08110B5254CE169814213D001684268E8
:101E500011604168026851600021C16014F11C01E9
:101E60000268914205D001688A6881688A18006812
:101E7000826032E00168E16114F11C01E2695160A5
:101E80000022C260E269914202D1FFF760FF24E0C4
:101E9000E169896880684118E0698160FFF764FF43
:101EA000010089B2208DFFF74AFFE1698968884205
:101EB00013D2E1698968091A022901D2801C05E060
:101EC0004018B0F5803F01D34FF6FF700100208D20
:101ED000FFF732FF80B2FFF73EFF10BD4017002032
:101EE00080B5FFF7AAF98D4800F0F9F800F02EFA56
:101EF00001BD80B5FFF7A1F9894800F0F0F800F0C6
:101F000025FA01BD80B5FFF798F9864800F0E7F89B
:101F100000F01CFA01BD80B5FFF78FF9824800F090
:101F2000DEF800F013FA01BD80B5FFF786F97F48AF
:101F300000F0D5F800F00AFA01BD80B5FFF77DF991
:101F40007B4800F0CCF800F001FA01BD80B5FFF746
:101F500074F9784800F0C3F800F0F8F901BD80B5D5
:101F6000FFF76BF9744800F0BAF800F0EFF901BD23
:101F700080B5FFF762F9714800F0B1F800F0E6F9BA
:101F800001BD80B5FFF759F96D4800F0A8F800F0E1
:101F9000DDF901BD80B5FFF750F96A4800F09FF800
:101FA00000F0D4F901BD10B467490020086000209A
:101FB000486000200AE00022584B040123445B687B
:101FC0001A60002201EBC0039A60401C0B28F2DB70
:101FD0005FF0FF305D4908605D49086010BC7047E4
:101FE000F8B50B2801D2070002E0002044E07F1C76
:101FF000B84240D30124BC40534D2E682642F6D14E
:1020000046483E01064405EBC700826005EBC70069
:10201000C36028682043286014F07F0F05D04D4826
:10202000036853F001030360006814F4F06F05D0F7
:102030004848036853F0020303600068002A09D08F
:102040006868B268104202D1F07B00F0B9F96868A4
:1020500004436C60706800680009000171680860E2
:102060000E2196F90D0081403068416000207168B2
:102070000860300000E00020F2BD38B5857B012209
:10208000314C236812FA05F18B4323606168AA4042
:1020900031EA0202626061688268114202D1C07B4B
:1020A00000F0A5F9002004EBC5018860002004EBD6
:1020B000C501C860207810F07F0F05D12548016860
:1020C0004908490001600068206810F4F06F05D1EC
:1020D0002048016831F002010160006831BD80B51F
:1020E000827B01680968437BD94011F00E01436887
:1020F0001B68194211D0437B11FA03F30068436057
:10210000114B03EBC2008068002806D003EBC2002D
:10211000C06803EBC2029268904701BD904A000874
:10212000A04A0008B04A0008C04A0008D04A000887
:10213000E04A0008F04A0008004B0008104B000875
:10214000204B0008304B00083026002004000240DD
:1021500004040240141002400A48006880B270472C
:1021600080B2094908600020084908600220084937
:1021700008607047002006490860704780B2024935
:102180000860704724000040340000401000004008
:102190000C00004080B500F061F901BD80B580B24F
:1021A000FFF7DEFF01BD80B5FFF7E4FF01BD80B59D
:1021B00080B2FFF7E3FF01BD80B5FFF7CDFF02BDA1
:1021C00080B5202080F31188FFF753F801BD80B55A
:1021D000FFF754F8002080F3118801BD1648174915
:1021E000016011F500614160704710B4124B5C68EA
:1021F00040422044491E30EA0101524201EB0200F4
:102200001A68904202D35A68824201D2002001E04B
:102210005860080010BC704770B504000D0016002F
:10222000FFF7CEFF320029002000FFF7DEFF040099
:10223000FFF7CDFF200070BDD41A0020DC1A00206B
:1022400080B50022FFF7D1FF02BD80B51300042244
:10225000FFF734FA01BD0060704738B5144C200018
:10226000FFF780FA14F11000FFF7F5FF114D2A0077
:10227000142114F11400FFF7E8FF14F12400FFF714
:10228000EAFF14F12800FFF7E6FF2A001C2114F1F1
:102290002C00FFF7DAFF14F13C00FFF7DCFF14F12C
:1022A0004000FFF7D8FF14F14400FFF7D4FF31BD21
:1022B0008C1A00204122000810F00700354B1A68E4
:1022C0004FF6FF010A40344951EA00210A431A60DF
:1022D0007047020052B2002A04D409012F4A40B2CA
:1022E000115407E009012E4A40B210F00F001044CB
:1022F00000F8041C7047EFF30980683029490A6828
:10230000520852000A6080F30988002080F3118887
:10231000704780B5202080F3118862B60320FFF754
:10232000CBFF2148016851F0807101601F480168AE
:1023300051F00101016001217FF00400FFF7C9FFA6
:1023400002217FF00100FFF7C4FF01BD10B520207E
:1023500080F3118816480068000517D5F1EE100AC1
:10236000EFF30980683804005FF08071E161114982
:102370000968216680F30988FFF78EF8002802D0EB
:102380000D48A06101E00D48A06102E0002080F34B
:10239000118810BD0CED00E00000FA0500E400E03B
:1023A00018ED00E034EF00E0FCED00E0001000E08C
:1023B00004ED00E03CEF00E0271D0008331D00089D
:1023C00010B40901104A1154012210F01F0112FA31
:1023D00001F10E4B0400640943F8241010F01F01B2
:1023E0008A400B49400941F8202010BC7047012267
:1023F00010F01F018A40074903005B0941F82320C0
:102400000021014A1154704700E400E080E200E03E
:1024100000E100E080E100E080B5202080F3118839
:10242000FEF731FF01BD80B5FEF732FF002080F3DB
:10243000118801BD80B5FFF7EFFF01BD80B5FFF743
:10244000F2FF01BD80B5FFF74BFC01BD80B5FEF783
:10245000F4FE00F041F8FFF779FF01BD80B51548A3
:10246000016851F00101016000681348016851F4EE
:102470000061016048F69F40104908604FF6FF7008
:102480000F49086000200F49086000200E490860CD
:1024900000200E49086000200D49086001200D4908
:1024A000086001205FF08041086008211C20FFF7D0
:1024B00087FF01BD1C100240042004E028000040FA
:1024C0002C00004018000040340000400C00004088
:1024D000040000401400004080B55FF080410869AE
:1024E000CA6802F0FF021040C2430A61800705D5A6
:1024F000FFF7A0FFFFF7A6FFFFF7A0FF01BD000059
:10250000081A80B27047BFF34F8FDFF8D0150A6802
:1025100012F4E062DFF8C80502430A60BFF34F8F90
:1025200000BFFDE780B5FFF747FE02BD72B67047FA
:1025300080B5202080F31188FEF79BFE01BD80B599
:10254000FEF79CFE002080F3118801BD80B520209D
:1025500080F31188FEF797FE01BD80B5FEF798FE67
:10256000002080F3118801BD0021C160704780B553
:10257000FFF7D8FF02BD10B50400FFF7F8FF010018
:1025800089B2200080B2FFF7BBFF10BDC0680028F1
:1025900001D0012000E00020C0B2704710B5040057
:1025A0002000FFF7F3FF002802D02000FFF749FCCE
:1025B00010BD10B50400FFF7BBFF2000FFF7EEFFD2
:1025C000FFF7BDFF10BDF8B504000D0016001F0099
:1025D0002000FFF7E3FF3B00320029002000FFF757
:1025E000D2FBF1BDF8B504000D0016001F00FFF787
:1025F0009FFF3B00320029002000FFF7E4FFFFF7B8
:102600009EFFF1BDDFF8DC048069704780B5FFF7FD
:10261000F9FF90F82100C0B2800810F0010002BD5F
:10262000DFF8C014896988617047704730B40200D0
:102630000020002403E013781818521C641C2300A7
:102640000D00DBB2EDB2AB42F5D3C0B230BC704787
:102650007047704780B5FFF779FFDFF88C04016899
:1026600091F0400101600023DFF880244FF47A717B
:10267000DFF87C04FFF7A7FFFFF76FFF01BD10B481
:102680000020002112E0DFF86C240B00DBB252F8CE
:1026900033309B680C00E4B202EBC4025268D340B2
:1026A000DA0702D401228A401043491C0A00D2B240
:1026B000082AE8DB80B210BC70471CB568460021D0
:1026C0000160002115E0DFF83034BDF8002008007B
:1026D000C0B233F820008218ADF800206A46548852
:1026E0000800C0B2400003EB400040880419548049
:1026F000491C0800C0B20828E5DBBDF8000008212D
:1027000090FBF1F0ADF8000068464188082291FB8B
:10271000F2F14180DFF8E443BDF80010E183418825
:1027200040F21452914204DA8020DFF8D41308609A
:1027300008E0408840F27951884203DB8020DFF8CE
:10274000C4130860FFF79BFFA08313BD70472DE9FA
:10275000FE4FDFF8B453A946FFF767FFDFF89C434D
:10276000DFF8A80300F03EFA6060DFF8A463002100
:10277000300000F07DFA0823DFF87C23DFF89413A3
:10278000300000F083FAB06A8068B16A8860DFF8D0
:10279000888398F82200287298F81A006872D8F88E
:1027A0001C0000F08DFA06000F00B8F80C0000F0D5
:1027B000ABFA0022D94B00F0B5FA32003B0000F032
:1027C00083FB00F03FFCE860B8F80E006881D44954
:1027D0002800FEF775F8DFF84CA31AF1010001900C
:1027E000B8F8160001990880002001994880B8F8CF
:1027F0000C0001998880B8F80E000199C880092161
:1028000001A8FFF713FF019948720A20401C8AF8BB
:1028100000000025FFF7ABFE06000027DFF8D0B26E
:102820005846FFF7A1FE0023B04A4FF47A7158468C
:10283000FFF7D8FE65E0FFF79AFE06001DE00921CC
:102840004846FEF752F900208DF80000A08B0028C2
:10285000F1D1FFF78CFE300080B2FFF78CFE020052
:102860004FF47A7340F2CF700021E3FB02014FF482
:10287000FA62002300F01AFC0700380080B240F230
:10288000D171884204DB94F82100002800D1012591
:10289000A08B01990880E08B01994880092101985B
:1028A000FFF7C4FE0199487201236A464921484650
:1028B000FEF7E0F89AF800309BB2524611214846E4
:1028C000FEF7D8F80E214846FEF70FF9B8F81220A7
:1028D0004FF4FA6340F2E7300021E3FB02014FF4CA
:1028E0007A72002300F0E2FBFEF7DBFAFFF78EFEC0
:1028F000002804D094F82100002800D10125FFF71A
:10290000DCFE2800C0B2002899D00D214846FEF711
:10291000ECF80A214846FEF7E8F85846FFF749FE6A
:102920008021606800F0FDFC0020FEF78EFABDE813
:10293000F78F38B500240FE06E4B032201212000F1
:10294000C0B203EBC000406881402000C0B253F821
:102950003000FEF70CFC641C2000C0B20828EBDB42
:10296000714C01250722616815FA01F12068FEF714
:10297000FEFB0622E16815FA01F1A068FEF7F7FBFD
:1029800006226069854029002069FEF7F0FB674C4C
:10299000052202212000FEF7EAFB05220421200087
:1029A000FEF7E5FB31BDF8B50024012500F00BFD75
:1029B000FFF76CF95E48016851F000710160032275
:1029C0004FF400715B48FEF7D2FBC820FEF769FAAE
:1029D00059480068C0F34020002803D1012047492E
:1029E00081F8210000F067FDFFF7A3FF4748FFF7DC
:1029F00017FE0820514908605149524800F000FE76
:102A00003E4E012086F82100002000904E4B80228F
:102A100041F270114D48FEF7B8F910E0FFF796FE4D
:102A2000380607D596F82100002803D1012440205C
:102A300034490860FFF7EAFD002800D00124200097
:102A4000C0B200280ED114215FF0FF3000F092FCDC
:102A50000700B806E4D52800C0B20028DED0FFF792
:102A60002CFEDDE708203A4908600120394908605A
:102A7000012039490860012038490860012038499F
:102A80000860012037490860374801680905090DC9
:102A90000160016801603548016851F00C01016076
:102AA000016831F0E0010160016851F0020101604C
:102AB0002F48016851F4807101602E48016851F07F
:102AC00004010160FFF732FD72B640BF20BF20BF96
:102AD00062B6FFF718FD0020F2BD00000CED00E02B
:102AE0000400FA05401700200C100140552600088C
:102AF000781A002010040020581A0020F019002035
:102B00001010014014100140901900209C4D000845
:102B1000D0230020A04C0008F82200200000E03F55
:102B200000040020141A0020500400200008014076
:102B30000400014000100140081001401408014049
:102B4000784D0008A42400204F270008D00500205D
:102B50001008014014040140000401400404014035
:102B60000C040140080401400800014000700040CE
:102B70000470004010ED00E080B5202080F3118843
:102B8000FEF777FB01BD80B5FEF778FB002080F3F0
:102B9000118801BD8069704710B5FFF7EDFF10483F
:102BA000046994F82200401C84F82200FFF7EBFF30
:102BB000200010BD38B50400FFF7DEFF2569084886
:102BC000854201D1002504E095F82200401C85F8DB
:102BD0002200FFF7D8FF2000FEF702F9280032BDDF
:102BE0004017002038B50500FFF7D6FF040020008D
:102BF000FFF7D0FF290000F029FD002807D02000B2
:102C0000FFF7D8FF0400002CF1D1002032BD2000D6
:102C1000FCE780B5202080F31188FEF72AFB01BD78
:102C200080B5FEF72BFB002080F3118801BD80B535
:102C3000FFF7EFFF01BD80B5FFF7F2FF01BD80B5E3
:102C4000FEF790FD01BD80B500F091FD01BD80B59E
:102C50000121017000214160002181600021C160DB
:102C600000210161002141611830FFF7E8FF01BD3B
:102C700038B504000D00FFF7DAFF6560200000F0B2
:102C8000A0FD02202070FFF7D6FF31BDF8B504008B
:102C90000D0016001F00FFF7CAFF3B00320029009D
:102CA000200000F003F8FFF7C6FFF1BD80B5826099
:102CB000C36001610321017000F0B2FD01BD00009D
:102CC000C0F3C75181B1FF2906D0C110400721F0E0
:102CD000E04101F16051704741020CBF40F4E00156
:102CE0006FF000410020704700F0004100020AD060
:102CF000B0FA80FC00FA0CF001F16051A1EB0C512C
:102D000001EBD02140057047014648B1B0FA80F18F
:102D10008840C91CC1F58461090501EBD02140053B
:102D200070470000B0B581EA030C0CF0004C40F293
:102D3000FF7515EA11541DBF15EA1357AC42AF4297
:102D400039E0E41923EA455343F48013C90241F002
:102D5000004141EA505EC7021100A7FB02020028B1
:102D60004FF00000EEFB01204FF00001E3FB0721D4
:102D700018BF42F00102401800214941E3FB0E0157
:102D8000A4F580640F0302D252004041494154F13E
:102D900001046CDD470872F1004250F1000051EB74
:102DA0000451A1F580115CBF41EA0C01B0BD4CEAB1
:102DB00005510020B0BD05EA1357AC4214BFAF4225
:102DC00041E050EA410E1CBF52EA430E02E0614668
:102DD0000020B0BD24423C441BD15FEA070EF6D070
:102DE000090302BF01460020AEF1140EB1FA81F7CB
:102DF000AEEB070401FA07FE0C37C7F1200100FA19
:102E000007F7C8404EEA000E23EA455343F4801307
:102E1000A2E733F00043B3FA83F704BFB2FA82FEAD
:102E200077440B3FE41BB7F1200E2FBF02FA0EF3DD
:102E3000BB40C7F1200E22FA0EFE38BF43EA0E0354
:102E4000BA40641C82E750EA410E14BF52EA430EB6
:102E50006FF000014FF4001717EB430F8ABF1946BC
:102E600017EB410FB5E74CEA05510020B0BDD4F196
:102E70000104B4F120070FDAC4F12007520828BF7B
:102E800042F0010210FA07F501FA07F7E1BF2A4301
:102E9000E0403843E1400FE0352C98DCC7F12004D6
:102EA00052EA400220FA07F218BF42F0010231FA5A
:102EB00007F0A1400A43002172F1004250F10000E6
:102EC00051EB0C01B0BD000070B44FF0004591EA29
:102ED000030F40F101856B40841A71EB030604D2A5
:102EE0006E40001BB141121973414FF4001C1CEBE2
:102EF000410F34BF7CEB430683E00C0DA4EB13566B
:102F0000362E00F37C80012E45EAC32341DC43EAE0
:102F1000525312BFD20292025B08240545EAC12136
:102F200041EA5051D2EBC020994125D407D1B0FAE3
:102F300080F610FA06F162D00020203608E0B1FADF
:102F400081F6B140C6F1200220FA02F21143B040EE
:102F50004FEAF474B4EB465434F001064FEA7404BB
:102F60000AD8D6F50016760D04F00044F04061FA58
:102F700006F25040F1404840C00A40EA415021F07A
:102F8000004128BF5FEA500550F1000044EBD12119
:102F900035E0DB0A45EAC121C90AB6F120050EDD9C
:102FA00042EA0242120CC5F1200603FA06F6EB4093
:102FB00042EA06056D42984161F100010DE062FAB6
:102FC00006F5F240554063FA06FC82EA0C02F34033
:102FD0005A406D42904161EB030111F4801F05D10D
:102FE000641E620502D06D004041494121F4801108
:102FF000430875F1004350F1000041EB045170BCEF
:1030000070471CEB410F15D223F0004352EA4306F0
:103010000BD04FEA4C0CBCEB410F04D80C0D661ED4
:10302000342EB7DDEBE7801A994150EA410608BF1C
:103030000021E4E708BF1CEB430F28BF6FF000013D
:10304000DDE7000001F000428B1AA3F16051B1F5F9
:10305000801F0ADBB1F17F6F1FD242EAC102C100BB
:1030600071F1004142EB507070470B15C3F1090339
:10307000212B10D2890241EA905180020128494156
:1030800041F0004121FA03F0C3F12003994071F1AE
:10309000004150417047100070476FF0000013EB83
:1030A000103F5CBF000E42EAC0507047BBBBE1B1AD
:1030B000B2F5803F80F07E80022A1ED98C46B1FB9B
:1030C000F2F102FB11C31B0443EA1043B3FBF2FC11
:1030D00002FB1C3380B240EA0343B3FBF2F002FB75
:1030E000103240EA0C4000237047022A05D984467A
:1030F000B0FBF2F002FB10C270474AB105D100F0FC
:10310000010249085FEA300070470022002370473F
:1031100000F04CBC0B0002000021002070479042E0
:1031200071EB030CF6D3B3F5803F2FD2F0B5B3FAB1
:1031300083F7B1FA81F4A7F10F0E3D1B5340CEF196
:10314000200602FA0EF2F3415340B5F10F0746D8BC
:103150000F3C2C444140C4F12006A040F1414140C5
:10316000B1FBF3F603FB1611A2FB0645001BA941B8
:1031700002D2761E8018594180EA010221FA0EF32C
:1031800062FA0EF200215A403046F0BD30B4B1FB75
:10319000F3FC03FB1C11A2FB0C45001BA94103D24D
:1031A000ACF1010C8018594130BC02460B46604618
:1031B00000217047B2F1807F65D3F0B5B2FA82F793
:1031C000B1FA81F4C7F10F063D1B22FA06F307F1AD
:1031D000110EF24120355A40B5F10F07B8D94140E0
:1031E000C4F12006A040F1414140B1FBF3FC03FBD8
:1031F0001C11A2FB0C45001BA94103D2BCF1010C20
:10320000801859410F2F12D30F3FC90341EA504193
:10321000B1FBF3F603FB1611A2FB0645D4EBC0305D
:10322000A94102D2761E8018594146EACC3C07B328
:103230004140C7F12006B840F1414140B1FBF3F6EF
:1032400003FB1611A2FB0645001BA94102D2761E04
:103250008018594180EA010221FA0EF3C7F12004D7
:1032600062FA0EF20CFA07F05A402CFA04F13043DD
:10327000F0BD80EA010221FA0EF3002162FA0EF29B
:1032800060465A40F0BD8C46B1FBF2F102FB11C31F
:103290001B0243EA1063B3FBF2FC02FB1C331B026C
:1032A0004CEA002043EA1063B3FBF2FC02FB1C3340
:1032B0001B024CEA002043EA1063B3FBF2FC02FB62
:1032C0001C331B024CEA002043EA1063B3FBF2FC00
:1032D00002FB1C324CEA00200023704780B52020FE
:1032E00080F31188FDF7C5FF01BD80B5FDF7C6FF6E
:1032F000002080F3118801BD70B505000C002E6818
:103300000CE0F0682043F060002C02D030690442E9
:1033100003D0B168706800F012F83668AE42F0D1A0
:1033200070BD38B504000D00FFF7D8FF290020005C
:1033300000F005F8FEF7A8F8FFF7D7FF31BD80B51C
:10334000426B1143416390F820100A2903D1416B6D
:10335000426A114209D190F820100B2909D1426B21
:10336000416A0A40416A8A4203D100214162FDF765
:10337000DCFF01BDF8B506000D0011488769FFF7B5
:10338000ADFF7C6B3440002C13D1002D03D1FFF72F
:10339000ACFF002013E07E6229000A20FEF72CF823
:1033A000002803D5FFF7A1FF002008E0786B064056
:1033B0003400786BA0437863FFF797FF2000F2BDDD
:1033C00040170020704780B5FFF7FCFF00F0F6FAC9
:1033D0000748FDF78BFEFFF736FC00F05BFB00F0C3
:1033E000EBF8FDF726FE00F062FBFEF7D3FE01BD11
:1033F000644C00083E483F4941603F4981600221DA
:1034000081810121C1810021017442F22831818230
:10341000322141824FF6FF7101834FF44041C18256
:10342000042180F822103549C161012181760021F3
:1034300081844FF44871C1841E21018540F6282102
:103440004185AA2181854FF46161C185C82101862A
:103450004FF47A6141862A4A82644FF4FA72A0F8E6
:10346000442040F2DC53A0F84630C82383867D23F5
:10347000C38640F6E4430387FA23438740F6D863C4
:1034800083874FF49673C387A0F84010A0F84220BA
:10349000704738B5164C2000801C4A2500222900B0
:1034A00089B200F005FB20802A0092B221000020A2
:1034B00000F058FB31BD70B50D4D2800841C4A2624
:1034C000320092B22900002000F03EFB00223100C1
:1034D00089B2200000F0ECFA298880B2814203D042
:1034E000FFF788FFFFF7D5FFFFF784FF70BD0000EF
:1034F000F822002002000806012106210080634412
:10350000E4380E4180B5202080F31188FDF7B1FE2C
:1035100001BD80B5FDF7B2FE002080F3118801BD2A
:103520000060704780B5FFF7EDFF01BD80B5FFF784
:10353000F0FF01BD80B5FFF7F3FF01BD80B5FFF7D8
:10354000DBFE01BD80B55FF0FF33303000F013FDCE
:1035500002BD80B55FF0FF330C3000F078FC02BD97
:1035600080B55FF0FF32C9B2303000F0B5FC02BD6B
:1035700080B55FF0FF310C3000F03EFC02BD80B53D
:10358000C9B2303000F0A8FC02BD80B50C3000F0AC
:1035900033FC02BD80B5303000F0EDFC02BD80B5DB
:1035A0000C3000F054FC02BD002902D0012901D1E9
:1035B00000E0FFE70020704780B500F0EFFD01BD9F
:1035C0007CB504000D0016000C482060201DFFF79C
:1035D000B1FF0120207200942B00802214F15401CD
:1035E00014F10C0000F0CDFB00943300802214F1A4
:1035F000D40114F1300000F058FC73BDC84C000831
:1036000038B504000D00FFF78DFF2900200000F001
:10361000D0FD02202072FFF789FF31BD38B50400CC
:103620000D006069002803D10421201DFFF786FFEB
:103630002900C9B214F10C0000F0BBFB002804D52E
:103640004FF48061201DFFF779FF31BD10F8012B89
:1036500011F8013B0AB19A42F8D0D01A7047000025
:1036600080B5202080F31188FDF70DFE01BD80B5E7
:10367000FDF70EFE002080F3118801BD80B5FFF735
:10368000EFFF01BD80B5FFF7F2FF01BD80B5FDF78B
:1036900023FC01BD10B50400080724D5200000F06C
:1036A00006F92069806800280ED0052020700021CE
:1036B00020002269926890472078052808D10220CE
:1036C00020700020206103E0022020700020206193
:1036D000FFF7D4FF5FF0FF3114F11400FFF7D6FFBE
:1036E000FFF7D0FF42E0880736D520690078002830
:1036F0000FD020694068002838D0042020702000B6
:10370000216949688847207804282FD10320207038
:103710002CE0200000F0CBF82069406800280DD094
:1037200004202070200021694968884720780428F7
:1037300008D1022020700020206103E002202070C8
:1037400000202061FFF79AFF002114F11400FFF719
:103750009DFFFFF797FF09E0480707D520694068FC
:10376000002803D0200021694968884710BD10B5A2
:10377000244C2000FFF76BFA2348A0620020E0628F
:1037800042F28A5020632148016851F400710160BF
:10379000016800211E4A11601E4901220A600922A7
:1037A0000A600A681207FCD405220A600A685207F8
:1037B000FCD400220A60016831F4007101600068E5
:1037C00010BD10B504002078012819D10D48A04281
:1037D00010D12300104A06210020FEF701FCE06210
:1037E0000E48E16A496888600848016851F4007130
:1037F000016000680020A16A48600020A16A88601A
:1038000010BD0000D0230020002401401810024009
:103810000424014008240140953600084C2401404E
:1038200010B40269036B1178002906D053F020030D
:10383000C168022901D353F004038168C46A646833
:10384000E1605488C1684C43C16A49684C60C16AF0
:1038500049680B60C16A4968096851F00101C36A8F
:103860005B681960D16851F48071836A596013698B
:1038700040F201110B4313F4841F01D153F00203F2
:1038800011691943846AA1605169846AE160916990
:10389000846A2161D169846AE162116A846A216360
:1038A000516A826A5163806A836010BC7047C16A42
:1038B0004968096809090901C26A526811600E2243
:1038C000C16A91F90D108A40C16A09684A600021F5
:1038D000806A816070470000841A71EB030603D28E
:1038E000001BB141121973414FF4001C1CEB410F36
:1038F00034BF7CEB430442E00C0DA4EB1356352E91
:103900004FDC45EAC323DB0A45EAC121C912B6F1FF
:1039100020050DDD63FA05F6EB4086EA0305124249
:1039200018BF45F00105C01851F100010CD213E099
:1039300062FA06F5F2405540F3415A40B340F34075
:103940005A408018594107D349085FEA30005FEABE
:10395000350528BF45F0010501F58011420875F1D4
:10396000004250F1000041EB04514E0016F5001FDB
:1039700070BC38BF70470020090D090570471CEB6B
:10398000410F10D252EA43060BD0BCEB410F05D8D1
:103990000C0DAB43661E342EB6DD02E0AB4380183F
:1039A000594170BC704770BC704700007047000000
:1039B0003048016851F480710160704780B52E482D
:1039C00001685FF0FF310160026800220260006858
:1039D0002A480268016001680021016000682848E7
:1039E000016851F0805101600168016851F0006187
:1039F00001600068FFF7DCFFFEF7D5FA00F0FCFC81
:103A000001BD2048016851F001010160016889078A
:103A1000FCD5016801F0FF0101601B4900220A602A
:103A20000A6812F00C0FFBD1026852F48032026077
:103A300002689203FCD50A6852F4E8120A60026830
:103A400052F08072026002689201FCD50F4A0A604F
:103A500012220F4B1A600A6852F002020A600A68CA
:103A600012F00C02082AFAD10168490849000160E5
:103A70007047000000700040101002400C1002401F
:103A80001C100240001002400410024000441D00BF
:103A90000020024080B500F0DFFC01BD0121017073
:103AA00000214160704780B5FFF7ABFF01BD704753
:103AB00030B400240DE01500ADB22D0A23009BB2F6
:103AC000C35C5D40084BEDB233F8153093EA022237
:103AD000641C23000D009BB2ADB2AB42EBD31000CF
:103AE00080B230BC704700009048000880B52020AC
:103AF00080F31188FDF7BDFB01BD80B5FDF7BEFB6E
:103B0000002080F3118801BD10B54FF48062C0B26F
:103B10004FF400644C4B04FB003000F0F5FC10BD8A
:103B200038B504000D00FFF7E1FF4FF48062290073
:103B3000E4B24FF40063444803FB0404200000F0A7
:103B4000F9FCFFF7DAFF31BD80B592B2022392FB98
:103B5000F3F200F1006010F5E04000F0D5FC7FF0DA
:103B6000010002BD2DE9F84FADF5006D13009BB2C9
:103B700013FA80F403009BB24FF4006593FBF5F851
:103B8000E40A641C1500070000264046C0B2002865
:103B900006D0BFB24246D2B24FF4006000FB1277AB
:103BA00089462BE0AB4609E0380080B2D0F50060D2
:103BB000290089B28842F5DAD7F5006B5A4692B2ED
:103BC000300080B209EB000168463B009BB218440C
:103BD00000F045FD69464046C0B2FFF7A1FF1BEB70
:103BE00006061BEB0707380080B290FBFAF70AFBCA
:103BF0001707B5EB0B0B5D4618F101084046210095
:103C0000C0B2C9B2884218D269464046C0B2FFF776
:103C10007BFF380080B24FF4006A90FBFAF10AFB98
:103C200011000028C0D1280080B240F6010188426E
:103C300001DBD346C2E7AB46C0E77FF001000DF5DC
:103C4000006D01B0BDE8F08F0070000800604060BA
:103C5000704780B5202080F31188FDF70AFB01BD75
:103C600080B5FDF70BFB002080F3118801BD80B506
:103C7000FFF7ECFF01BD80B5FFF7EBFF01BD80B59D
:103C8000FFF7EEFF01BD80B5FFF7F1FF01BD80B585
:103C9000FDF72EF902BD80B5FDF742F901BD2DE912
:103CA000F04104000E001500A068A84200D2A568EB
:103CB0002069A769C71BBD4208D22A00A16930004C
:103CC000FDF73CF9A0692844A06119E0AF4210D289
:103CD0003A00A169B0464046FDF730F93E44EF1B7B
:103CE0003A00E1683000FDF729F9E0683844A06146
:103CF00006E02A00A1693000FDF720F9E068A06124
:103D0000A068401BA0602800BDE8F0812DE9F041CB
:103D100004000E001500A068A84200D2A568206922
:103D20006769C71BBD4209D22A00676931003800A4
:103D3000FDF704F96069284460611CE0AF4212D2CB
:103D40003A003100D4F814804046FDF7F7F806EB4E
:103D50000701EF1B3A00E6683000FDF7EFF8E06876
:103D60003844606107E02A00676931003800FDF7D8
:103D7000E5F8E0686061A068401BA0602800BDE82D
:103D8000F0812DE9F04104000D0016001F00DDF860
:103D900018802000FFF777FF0020A060E560A56194
:103DA000656105EB06002061E761C4F82080BDE88D
:103DB000F08180B5426983699A4204D18268002A01
:103DC00001D0012200E00022D2B2002A11D1826883
:103DD000521C82604269531C43611170416902693F
:103DE000914201D3C16841610021FFF754FF0020D7
:103DF00001E05FF0FF3002BD70B504000D00FFF779
:103E00003AFFA06800280AD129002000FFF73FFFF1
:103E10000600002EF5D5FFF732FF300016E0A0684F
:103E2000401EA060A069411CA1610578A0692169BC
:103E3000884201D3E068A061E069002802D0200038
:103E4000E1698847FFF71BFFEDB2280070BD2DE93F
:103E5000F04706000F0014009846D6F81CA0A146B3
:103E6000FFF709FF0AE05046002801D03000D04794
:103E7000FFF705FF641B2F44FFF7FDFE002C0DD05C
:103E8000220039003000FFF70AFF0500002DEAD1BB
:103E900041463000FFF7FBFE0028EFD0FFF7EFFEB2
:103EA000B9EB04042000BDE8F0872DE9F0410400DF
:103EB0000D0016001F00DDF818802000FFF7E3FE5C
:103EC000A660E560A561656105EB06002061E7611C
:103ED000C4F82080BDE8F081F8B504000D0016009C
:103EE000FFF7C9FEA06800280AD131002000FFF7C3
:103EF000CEFE0700002FF5D5FFF7C1FE380015E014
:103F0000A068401EA0606069411C61610570606925
:103F10002169884201D3E0686061E069002802D02D
:103F20002000E1698847FFF7AAFE0020F2BD10B526
:103F300041698269914204D18168002901D001213F
:103F400000E00021C9B2002912D18168491C8160BA
:103F500081694A1C82610C7881690269914201D3AE
:103F6000C16881610021FFF796FEE4B2200001E004
:103F70005FF0FF3010BD2DE9F04706000F00140080
:103F80009846D6F81CA0A146FFF775FE0AE05046F9
:103F9000002801D03000D047FFF771FE641B2F448A
:103FA000FFF769FE002C0DD0220039003000FFF72A
:103FB000ADFE0500002DEAD141463000FFF767FE57
:103FC0000028EFD0FFF75BFEB9EB04042000BDE84A
:103FD000F087000080B5202080F31188FDF753F9A9
:103FE00001BD80B5FDF754F9002080F3118801BDB3
:103FF00080B5FFF7EFFF01BD80B5FFF7F2FF01BD10
:1040000080B5FFF779F901BD10B4D0F85421D0F88C
:104010005431754CA34204D1744B0C68B3FBF4F3D8
:1040200003E0734B0C68B3FBF4F38C88240405D5D0
:10403000DC08E40013F0070353EA44039360CB88E1
:1040400053F0400313610B8953F0010353618B88D4
:1040500043F4045353F02C03D3600023136013681C
:104060005268898811F4A051B1F5806F03D17F2186
:1040700080F8581102E0FF2180F8581110BC7047F9
:1040800080B500220B0701D552F08002CB0701D585
:1040900052F020028B0701D552F04002490701D5AA
:1040A00052F480721100001DFFF7AAFF01BDF8B5A0
:1040B0000400D4F85451EE682F68F8050BD5FFF7CB
:1040C00097FF4FF40071201DFFF79AFF7FF4807077
:1040D0002860FFF791FFFFF78BFF13E0380010F027
:1040E0000F0F04D0390089B22000FFF7C9FF6968BB
:1040F00094F858010140B80603D5C9B22000FFF773
:104100008DFA2F68380010F02F0FE7D1FFF774FFFA
:10411000700616D5380614D5FFF76AFF14F1300083
:10412000FFF705FF002809D50821201DFFF768FFCC
:10413000300080B230F04000E86000E06860FFF7D7
:104140005BFF30061AD5380618D5FFF751FF606CB3
:10415000A16C884204D1A06B002801D0012000E0AE
:104160000020C0B2002807D01021201DFFF748FF13
:10417000B6B236F08006EE60FFF73EFFF1BD1D4897
:10418000016851F0C0010160704780B5FDF755F836
:104190001948FFF78CFFFEF7D9F801BD10B5164C92
:1041A000164A00212000FFF70BFA0F48C4F854010B
:1041B00010BD38B505000C00002C00D1104C287A39
:1041C00001280CD10C48A84209D10E48016851F4CD
:1041D0008041016000680C212520FEF7F1F82100E4
:1041E0002800FFF711FF31BD0038014000A24A044A
:1041F000005125020C380140A42400207F41000812
:10420000844D00081810024080B5FDF716F8774974
:104210000868774A126812F0010210400860C0076F
:1042200006D574490868002802D04868096888479C
:10423000FEF78CF801BD80B5FCF7FFFF6B490868FD
:104240006B4A126812F0020210400860800706D51F
:1042500068498868002802D0C86889688847FEF7DE
:1042600075F801BD80B5FCF7E8FF60490868604A51
:10427000126812F0040210400860400706D55D493C
:104280000869002802D0486909698847FEF75EF886
:1042900001BD80B5FCF7D1FF54490868544A126843
:1042A00012F0080210400860000706D551498869DD
:1042B000002802D0C86989698847FEF747F801BD20
:1042C00080B5FCF7BAFF49490868494A126812F0FC
:1042D000100210400860C00606D54649086A00284A
:1042E00002D0486A096A8847FEF730F801BD10B568
:1042F000FCF7A3FF3D4804683D49096811F4787153
:104300000C400460A00606D53A49886A002802D00D
:10431000C86A896A8847600606D53649086B00284E
:1043200002D0486B096B8847200606D53149886B57
:10433000002802D0C86B896B8847E00506D52D4957
:10434000086C002802D0486C096C8847A00506D587
:104350002849886C002802D0C86C896C8847FDF712
:10436000F5FF10BD10B5FCF768FF20480468204930
:10437000096811F47C410C400460600506D51D49B4
:10438000086D002802D0486D096D8847200506D5C4
:104390001849886D002802D0C86D896D8847E004EF
:1043A00006D51449086E002802D0486E096E884769
:1043B000A00406D50F49886E002802D0C86E896E09
:1043C0008847600406D50B49086F002802D0486F63
:1043D000096F8847200406D50649886F002802D057
:1043E000C86F896F8847FDF7B1FF10BD1404014005
:1043F000000401402424002080B506210620FDF79A
:10440000DFFF06210720FDF7DBFF06210820FDF76F
:10441000D7FF06210920FDF7D3FF06210A20FDF76B
:10442000CFFF06211720FDF7CBFF06212820FDF73F
:10443000C7FF01BD80B5FCF700FF0D4800F02DF867
:10444000FDF784FF01BD80B5FCF7F7FE094800F0D9
:1044500024F8FDF77BFF01BD80B505480649C16022
:10446000FFF71CFB03480549C160FFF717FB01BDBF
:104470000424002014240020002C014000040040EB
:104480000021C26811600021C2681161C168C96859
:10449000090A0902C068C160704710B50400E068ED
:1044A0000069E168C96801F0FF010840C143E268A2
:1044B0001161C0070FD52078042804D10220207094
:1044C0002000FFF7DDFF60684068002803D020006F
:1044D00061684968884710BD00887047F8B50400D6
:1044E0000D001600002708E0380080B235F81010E3
:1044F000200000F01DF9A41C7F1C3800310080B2A0
:1045000089B28842F0D3F1BDF8B504000D00160061
:10451000002708E02000FFF7DFFF390089B225F807
:104520001100A41C7F1C3800310080B289B288427F
:10453000F0D3F1BD2DE9F843ADF5006D04000D0099
:104540001700B4F10060B0F5802F04D30DF5006DB5
:1045500001B0BDE8F08300F089F814F1784006005E
:10456000F60AC0F34908D8F580694846390080B298
:1045700089B2884203D3B94601E04FF480694FF411
:10458000806269464FF4006000FB06F010F10060A5
:10459000FFF7BAFF002000E0401C01004A4689B244
:1045A00092B291420AD26946020092B212FA88F29D
:1045B00031F812104FF6FF729142EDD0494680B2A9
:1045C00089B2884227D24FF4006000FB06F010F158
:1045D000006000F05BF800200BE06946424692B2B2
:1045E00012FA80F203009BB235F8133021F8123032
:1045F000401C01004A4689B292B29142EDD34FF479
:10460000806269464FF4006000FB06F010F1006024
:10461000FFF764FF05E04A4692B229002000FFF749
:104620005DFF3800494680B289B2884202D100F06D
:1046300026F88BE7761C5FF00008484680B205EB51
:104640004005484680B214EB4004B7EB0907380038
:1046500080B240F2014188428FDAB9468FE710B547
:104660000446FCF76BFC204610BD0000DFF8F401A7
:10467000DFF8F4110160DFF8FC1101607047DFF82A
:10468000F801016851F080010160704738B50400FD
:104690000420B4F10061DFF8D421914201D201215C
:1046A00000E00021C9B2B4F1046F1ED35FF0FF3007
:1046B00000F0C3F80100C9B2042914D1DFF8B051E9
:1046C000286850F002002860DFF8B0010460286814
:1046D00050F0400028605FF0FF3000F0AEF829682D
:1046E00031F002012960C0B221E0DFF894118C4260
:1046F0001CD25FF0805000F08CF80100C9B2042990
:1047000014D1DFF87451286850F002002860DFF8F7
:1047100074010460286850F0400028605FF0805009
:1047200000F077F8296831F002012960C0B232BD8B
:1047300070B504000D000420B4F10061DFF82C21F5
:10474000914201D2012100E00021C9B2B4F1046F0D
:1047500018D34FF4704000F070F80100C9B204297A
:104760000ED1DFF80C61306850F001003060258018
:104770004FF4704000F061F8316849084900316039
:10478000C0B21BE0DFF8F8108C4216D24FF4704034
:1047900000F03FF80100C9B204290ED1DFF8D8605B
:1047A000306850F00100306025804FF4704000F018
:1047B00030F83168490849003160C0B270BD04204A
:1047C000DFF8C8000168C90701D501200AE00168C7
:1047D000490701D5022005E00068C00601D5032085
:1047E00000E00420C0B270470420DFF89C0001689C
:1047F000C90701D501200AE00168490701D5022057
:1048000005E00068C00601D5032000E00420C0B226
:10481000704710B504000420FFF7D1FF02E0FFF756
:10482000CEFF641E0100C9B2012901D1002CF6D1CE
:10483000002C00D10520C0B210BD10B5040004202A
:10484000FFF7D2FF02E0FFF7CFFF641E0100C9B2FD
:10485000012901D1002CF6D1002C00D10520C0B2D5
:1048600010BD000004200240230167450000FF172F
:1048700090200240AB89EFCD1020024094200240EE
:1048800000000808142002408C2002400C20024046
:1048900000002110422063308440A550C660E770BC
:1048A000088129914AA16BB18CC1ADD1CEE1EFF164
:1048B0003112100273325222B5529442F772D6620C
:1048C000399318837BB35AA3BDD39CC3FFF3DEE3B4
:1048D0006224433420040114E664C774A44485545C
:1048E0006AA54BB528850995EEE5CFF5ACC58DD504
:1048F0005336722611163006D776F6669556B446AC
:104900005BB77AA719973887DFF7FEE79DD7BCC753
:10491000C448E5588668A7784008611802282338FB
:10492000CCC9EDD98EE9AFF9488969990AA92BB9A3
:10493000F55AD44AB77A966A711A500A333A122A4B
:10494000FDDBDCCBBFFB9EEB799B588B3BBB1AABF3
:10495000A66C877CE44CC55C222C033C600C411C9B
:10496000AEED8FFDECCDCDDD2AAD0BBD688D499D43
:10497000977EB66ED55EF44E133E322E511E700EEB
:104980009FFFBEEFDDDFFCCF1BBF3AAF599F788F93
:104990008891A981CAB1EBA10CD12DC14EF16FE173
:1049A0008010A100C230E3200450254046706760AB
:1049B000B9839893FBA3DAB33DC31CD37FE35EF3C3
:1049C000B1029012F322D2323542145277625672FB
:1049D000EAB5CBA5A89589856EF54FE52CD50DC513
:1049E000E234C324A014810466744764245405444B
:1049F000DBA7FAB79987B8975FE77EF71DC73CD763
:104A0000D326F2369106B01657667676154634569A
:104A10004CD96DC90EF92FE9C899E9898AB9ABA9B2
:104A20004458654806782768C018E1088238A328EA
:104A30007DCB5CDB3FEB1EFBF98BD89BBBAB9ABB02
:104A4000754A545A376A167AF10AD01AB32A923A3A
:104A50002EFD0FED6CDD4DCDAABD8BADE89DC98D52
:104A6000267C076C645C454CA23C832CE01CC10C8A
:104A70001FEF3EFF5DCF7CDF9BAFBABFD98FF89FA2
:104A8000176E367E554E745E932EB23ED10EF01EDA
:104A90000000024008000240010000000000000B7E
:104AA000000002401C000240020000000004010C53
:104AB0000000024030000240040000000008020D27
:104AC000000002404400024008000000000C030EF9
:104AD0000000024058000240100000000010040FC7
:104AE000000002406C00024020000000001405108D
:104AF0000000024080000240400000000018061143
:104B00000004024008040240800000000000073852
:104B1000000402401C0402400001000000040839A7
:104B20000004024030040240000200000008093A7C
:104B3000000402404404024000040000000C0A3B50
:104B400072B6184880F30888174880F30988022055
:104B500080F31488BFF36F8F14484EF60851CEF2DD
:104B60000001086012481349134A91423CBF41F8C2
:104B7000040BFAE71149124A91423CBF41F8040B79
:104B8000FAE710481049114A91423CBF41F8040B22
:104B9000FAE7FEF788FFAFF3008000F019F800F0A5
:104BA00029B80000000400200000012000000008D7
:104BB0005555555500000020000400200004002039
:104BC00000140020CCCCCCCC00040020982600207F
:104BD0004EF68851CEF20001086840F4700008607B
:104BE000BFF34F8FBFF36F8F4FF00070E1EE100AED
:104BF0007047000000F00DF8002801D000F00CF81C
:104C0000AFF300800020AFF30080FDF7CCFE00F092
:104C100017F801207047000010B507497944183192
:104C2000064C7C44163404E00A68081D1144884789
:104C30000146A142F8D110BDB8000000D400000028
:104C400000F000B80746384600F002F8FBE7000025
:104C500080B5AFF30080024A11001820ABBEFBE71D
:104C600026000200F7FFFFFF44444444B3B88B48DA
:104C7000FFFFFFFF0028B8222864B2B43FDCFFFF2B
:104C800088222822448B3B83FFFFFFFF882428884B
:104C90008888388300000000000000000000000049
:104CA0000100020051260008532600080000000001
:104CB00000004000000000003F0000000000100065
:104CC0000000000022000000000000004535000840
:104CD0005335000861350008713500087F3500083C
:104CE0008B350008953500089F350008A935000868
:104CF00017BFFFFFC4200000D00500200000000007
:104D000063BCFFFFB8000000700200000004002038
:104D10006D61696E00164130040260080C101418B1
:104D20001C20212200000000A44D000810180020C3
:104D300090190020010000008B1C000800000000FA
:104D40000000000000000000000000000000000063
:104D500020000000040204080800030708080808EF
:104D6000080808080B0F0000737461636B206F76EE
:104D70006572666C6F77000000C2010000000000E1
:104D8000000000000096000000000020000000006D
:104D9000444D41206661696C757265004D61696EB4
:104DA0000000000069646C65000000006E6F6E61B9
:104DB0006D6500002140222424002630100C0026BE
:104DC0000020404D0008000C01400C00015002087A
:104DD000014006082207081118220001110852019B
:104DE000105209085208086128613822030852103D
:104DF00010421020201709273C4685081A3C498A92
:104E000008193A458206173A477A16273B479524F0
:104E1000305001020304080C00FF83DF1732094EF3
:104E2000D1E7CD8A91C6D5C4C44021184E5586F429
:104E3000DC8A15A7EC92DF93533018CA34BFA2C79F
:104E400059678FBA0D6DD82D7D540A57977039D296
:104E50007AEA243385ED9A1DE02A573A9434D0003B
:104E600000F96066B35263085231085213085209C0
:104E700008300103909A08520108400731C9E648FA
:104E80001A4066051308230D0908300300661A0747
:104E9000C40810042013C0E048301822070840025C
:104EA000009A2003083002403600214070010203BE
:104EB0000001F001003600521430011600A40DB2BA
:104EC0001014F200CD14F0020100004C0001140B8C
:104ED00019011D00460322003103860312B1257E0D
:104EE0000010440485028A0012002B0314012100E3
:044EF000780028001E
:0400000508004B4163
:00000001FF
