:020000040800F2
:1000000000040020FD6B0008B32A0008B32A000892
:10001000B32A0008B32A0008B32A0008B32A00084C
:10002000B32A0008B32A0008B32A00083F380008A2
:10003000B32A0008B32A0008B32A0008B32A00082C
:10004000B32A0008B32A0008B32A0008B32A00081C
:10005000B32A0008B32A0008C5660008F366000842
:10006000216700084F6700087D670008093900080C
:100070001B3900082D3900083F39000851390008A4
:100080006339000875390008B32A0008B32A00084C
:100090008F620008B32A0008B32A0008AB67000883
:1000A000B32A0008456B0008B32A0008B32A0008E9
:1000B000B53B0008576B0008B32A0008B32A0008B4
:1000C000B32A0008B32A0008B32A0008B32A00089C
:1000D000B32A000857590008B32A0008B32A0008B9
:1000E00021680008B32A0008B32A0008B32A0008D0
:1000F000B32A0008B32A0008B32A0008B32A00086C
:10010000B32A0008B32A0008B32A0008B32A00085B
:10011000B32A0008B32A0008B32A0008B32A00084B
:100120008739000899390008AB390008BD39000843
:10013000B32A0008B32A0008B32A0008B32A00082B
:10014000B32A0008B32A0008B32A0008B32A00081B
:10015000B32A0008B32A0008B32A0008B32A00080B
:10016000B32A0008B32A0008B32A0008B32A0008FB
:10017000B32A0008B32A0008B32A0008B32A0008EB
:100180007001802500011003BC190020010F200F11
:10019000D4690008181B0020706F00080008014097
:1001A000042320020C01400508111052010812031B
:1001B0000871281120A20C281108F2060A28D20B77
:1001C00028F2030228A0021001400828111092060C
:0101D0002806
:10040000010100002508050170B400202AE0062241
:10041000DFF8943C17240500EDB2654355FA81F5E9
:1004200055431D444FF6FF76A5F858604FF400453C
:100430000600F6B2664356FA81F656431E44A6F805
:100440005A500600F6B204FB06F454FA81F402FB9B
:1004500004F21A44A2F85C50491C0A00D2B2172ACE
:10046000D5DB401C0100C9B2102901DA0021F4E7F4
:10047000DFF8340C002181700021C170002101716E
:1004800070BC7047F8B5002040F6F8021300DFF8A2
:10049000A81C0C00641C641C012504E0267850FA9A
:1004A00086F0641C6D1C2E001F00B6B2BFB2BE42A7
:1004B000F4D30880802001F005FAF1BD70B540F654
:1004C000F804DFF8745C220092B22900802001F069
:1004D000EBF900202900491C491C012204E00B789B
:1004E00050FA83F0491C521C130026009BB2B6B28E
:1004F000B342F4D3298880B2884203D0FFF784FF47
:10050000FFF7C0FF70BD2DE9F843DFF8A44CDFF81A
:10051000E00B01F081FA6060FFF7D0FF2020DFF8E8
:100520001C1C0860642001F0FCFB2020DFF8101C7C
:100530000860002000254AE0DFF8E09C4046C0B299
:1005400019F800102800C0B2704320440C3001F0AC
:1005500056FD2800C0B2704304EB00014046C0B213
:1005600019F80020142042431144DFF83C2B404688
:10057000C0B219F800301720434313FA87F306205E
:10058000434302EB03005830886218F101084046EB
:10059000C0B20428D0DB2800C0B270432044002140
:1005A000C1742800C0B27043204401214174280066
:1005B000C0B270432044012101742800C0B206FB80
:1005C00000F604EB06000C3001F0D4FC6D1C280092
:1005D000C0B2042816DA6026DFF8D81B2A00D2B28F
:1005E0002820424311442800C0B2704320440C30FC
:1005F00001F01AFE2800C0B25C2110FB01F75FF089
:100600000008C4E7DFF8A05A2879C00737D50026CC
:1006100022E03900C9B2602041432144DFF8FC0BDD
:100620004246D2B2825C1420424301EB0200816A4E
:100630004A46D2B20620424301EB02008288494674
:10064000C9B23000C0B200F0C2F819F10109484641
:10065000C0B21728DDDB761C3000C0B210280EDADD
:100660003000C0B2042190FBF1F73000C0B2042189
:1006700090FBF1F801FB18085FF00009E7E7287923
:10068000800737D5002622E03900C9B260204143F7
:100690002144DFF8880B4246D2B2825C14204243E8
:1006A00001EB0200816A4A46D2B20620424301EBC6
:1006B000020042884946C9B23000C0B200F094F945
:1006C00019F101094846C0B21728DDDB761C30005D
:1006D000C0B210280EDA3000C0B2042190FBF1F74E
:1006E0003000C0B2042190FBF1F801FB18085FF064
:1006F0000009E7E72879400735D5002620E03900D2
:10070000C9B2602041432144DFF8100B4246D2B207
:10071000825C1420424301EB0200816A4A46D2B255
:10072000062042438A5A4946C9B23000C0B200F09E
:10073000D9F819F101094846C0B21728DFDB761C49
:100740003000C0B210280EDA3000C0B2042190FB95
:10075000F1F73000C0B2042190FBF1F801FB18085A
:100760005FF00009E7E7A87800F084FEE87800F081
:10077000C2FE4FF47A7001F0D4FA002417E0290089
:10078000C9B22000C0B200F053F92900C9B220005C
:10079000C0B200F040F82900C9B22000C0B200F099
:1007A000C5F86D1C2800C0B21728E8DB641C2000C7
:1007B000C0B2102805DA2000C0B200F0ACFD002560
:1007C000F0E70820DFF8A81C0860BDE8F18338B521
:1007D0000300DBB2102B1DDA0300DBB2042493FB11
:1007E000F4F4C0B2042390FBF3F503FB150092B2BE
:1007F000009203230A00D2B2DFF8201AC0B2095CCB
:10080000DFF8AC59E4B26020444305EB04000C303F
:1008100001F0B0FC31BD2DE9F04105000C002800CD
:10082000C0B2102801DB00202EE000202800C0B25A
:10083000042190FBF1F6EDB2042095FBF0F100FBF2
:1008400011556027DFF8688903232200D2B2DFF850
:10085000CC092900C9B2415C3000C0B278434044A1
:100860000C3001F024FCF6B27E4308EB0601EDB239
:100870001420454301EB0500816AE4B2062044439D
:1008800001EB0400808880B2BDE8F08110B4020062
:10089000D2B2102A01DB002022E000220200D2B2F4
:1008A000042392FBF3F3C0B2042290FBF2F402FBA8
:1008B0001400DFF8FC48DBB26022534304EB030270
:1008C000DFF85839C0B21B5C1420434302EB03002D
:1008D000826AC9B20620414302EB0100808880B2DF
:1008E00010BC704738B50300DBB2102B1DDA0300D3
:1008F000DBB2042493FBF4F4C0B2042390FBF3F5C1
:1009000003FB150092B2009201230A00D2B2DFF875
:100910000C19C0B2095CDFF89858E4B26020444377
:1009200005EB04000C3001F025FC31BD2DE9F04150
:1009300005000C002800C0B2102801DB00202CE0CC
:1009400000202800C0B2042190FBF1F6EDB2042093
:1009500095FBF0F100FB11556027DFF85488012367
:100960002200D2B2DFF8B4082900C9B2415C3000DD
:10097000C0B2784340440C3001F099FBF6B27E439C
:1009800008EB0601EDB21420454301EB0500816A36
:10099000E4B206204443085B80B2BDE8F08110B4A5
:1009A0000200D2B2102A01DB00201BE0002202006C
:1009B000D2B2042392FBF3F3C0B2042290FBF2F410
:1009C00002FB1400DFF8E847DBB260225343234404
:1009D000C0B2142250431844826AC9B2062041436F
:1009E000505A80B210BC704738B50300DBB2102BF0
:1009F0001DDA0300DBB2042493FBF4F4C0B2042339
:100A000090FBF3F503FB150092B2009202230A005B
:100A1000D2B2DFF80818C0B2095CDFF89457E4B22C
:100A20006020444305EB04000C3001F0A3FB31BD12
:100A30002DE9F04105000C002800C0B2102801DBB0
:100A400000202EE000202800C0B2042190FBF1F627
:100A5000EDB2042095FBF0F100FB11556027DFF8A3
:100A6000508702232200D2B2DFF8B0072900C9B2B2
:100A7000415C3000C0B2784340440C3001F017FBB9
:100A8000F6B27E4308EB0601EDB21420454301EBBC
:100A90000500816AE4B20620444301EB040040886B
:100AA00080B2BDE8F08110B40200D2B2102A01DB9E
:100AB000002022E000220200D2B2042392FBF3F3D2
:100AC000C0B2042290FBF2F402FB1400DFF8E0460F
:100AD000DBB26022534304EB0302DFF8E038C0B21C
:100AE0001B5C1420434302EB0300826AC9B2062058
:100AF000414302EB0100408880B210BC704738B51A
:100B00000A000100C9B2102954DA0100C9B2042355
:100B100091FBF3F30100C9B2042491FBF4F504FB4B
:100B20001511DFF8F846645CDFF89458DBB26021F9
:100B30004B432B44E4B214214C4303EB04011C311E
:100B40004B78002B05D0022B32D008D3032B30D0AA
:100B500030E092B20621C0B2FFF739FE2AE0897870
:100B6000002906D0022910D009D3042919D012D3A4
:100B70001DE092B20121C0B2FFF729FE17E092B248
:100B80000221C0B2FFF723FE11E092B20321C0B2EE
:100B9000FFF71DFE0BE092B20421C0B2FFF717FE73
:100BA00005E092B20521C0B2FFF711FEFFE701E0B8
:100BB00000E0FFE731BD38B50A000100C9B21029D5
:100BC00054DA0100C9B2042391FBF3F30100C9B266
:100BD000042491FBF4F504FB1511DFF84046645C36
:100BE000DFF8DC57DBB260214B432B44E4B2142125
:100BF0004C4303EB04011C314B78002B05D0022B36
:100C000032D008D3032B30D030E092B20621C0B2EC
:100C1000FFF7EAFE2AE08978002906D0022910D0E1
:100C200009D3042919D012D31DE092B20121C0B218
:100C3000FFF7DAFE17E092B20221C0B2FFF7D4FE4E
:100C400011E092B20321C0B2FFF7CEFE0BE092B2E8
:100C50000421C0B2FFF7C8FE05E092B20521C0B280
:100C6000FFF7C2FEFFE701E000E0FFE731BD38B566
:100C70000A000100C9B2102954DA0100C9B20423E4
:100C800091FBF3F30100C9B2042491FBF4F504FBDA
:100C90001511DFF88845645CDFF88C5BDBB26021FE
:100CA0004B432B44E4B214214C4303EB04011C31AD
:100CB0004B78002B05D0022B32D008D3032B30D039
:100CC00030E092B20621C0B2FFF70CFE2AE089782C
:100CD000002906D0022910D009D3042919D012D333
:100CE0001DE092B20121C0B2FFF7FCFD17E092B205
:100CF0000221C0B2FFF7F6FD11E092B20321C0B2AB
:100D0000FFF7F0FD0BE092B20421C0B2FFF7EAFD5D
:100D100005E092B20521C0B2FFF7E4FDFFE701E074
:100D200000E0FFE731BD38B50A000100C9B2102963
:100D300031DA0100C9B2042391FBF3F30100C9B217
:100D4000042491FBF4F504FB1511DFF8D044645C36
:100D5000DFF8D45ADBB260214B432B44E4B21421B8
:100D60004C4303EB04011C314978002905D00229CA
:100D70000FD008D303290DD00DE092B20821C0B2E4
:100D8000FFF725FD07E092B20721C0B2FFF71FFD74
:100D900001E000E0FFE731BD38B50A000100C9B24B
:100DA000102931DA0100C9B2042391FBF3F30100E9
:100DB000C9B2042491FBF4F504FB1511DFF85C447F
:100DC000645CDFF8645ADBB260214B432B44E4B22D
:100DD00014214C4303EB04011C314978002905D050
:100DE00002290FD008D303290DD00DE092B20A21B9
:100DF000C0B2FFF7ECFC07E092B20921C0B2FFF7E6
:100E0000E6FC01E000E0FFE731BD38B50200D2B2F8
:100E1000102A1DDA0200D2B2042392FBF3F302007F
:100E2000D2B2042492FBF4F504FB1522DFF8EC4364
:100E3000A45CDF4DDBB2602253432B44E4B21422A6
:100E4000544303EB040282F82010C0B200F063FAAE
:100E500031BD0100C9B2102901DBFF201AE00100F9
:100E6000C9B2042291FBF2F1C0B2042290FBF2F36A
:100E700002FB1300DFF8A423125CDFF8AC39C9B21F
:100E8000602041431944D2B21420424301EB0200D6
:100E900090F82000704738B50200D2B2102A1BDA51
:100EA0000200D2B2042392FBF3F30200D2B2042474
:100EB00092FBF4F504FB1522D84CA45CBC4DDBB2CC
:100EC000602253432B44E4B21422544303EB040244
:100ED0001177C0B200F01FFA31BD0100C9B210296C
:100EE00001DBFF2018E00100C9B2042291FBF2F1FE
:100EF000C0B2042290FBF2F302FB1300C74A125C5B
:100F0000DFF82439C9B2602041431944D2B2142019
:100F1000424301EB0200007F704738B50200D2B2B5
:100F2000102A1BDA0200D2B2042392FBF3F3020070
:100F3000D2B2042492FBF4F504FB1522B74CA45C56
:100F40009B4DDBB2602253432B44E4B21422544342
:100F500003EB04025177C0B200F0DDF931BD0100AE
:100F6000C9B2102901DBFF2018E00100C9B2042238
:100F700091FBF2F1C0B2042290FBF2F302FB1300EA
:100F8000A64A125CDFF8A038C9B260204143194478
:100F9000D2B21420424301EB0200407F704738B5C3
:100FA0000200D2B2102A1BDA0200D2B2042392FB52
:100FB000F3F30200D2B2042492FBF4F504FB1522F1
:100FC000964CA45C7A4DDBB2602253432B44E4B2CE
:100FD0001422544303EB04029177C0B200F09BF952
:100FE00031BD0100C9B2102901DBFF2018E001006A
:100FF000C9B2042291FBF2F1C0B2042290FBF2F3D9
:1010000002FB1300854A125CDFF81C38C9B260206D
:1010100041431944D2B21420424301EB0200807FC5
:10102000704738B50200D2B2102A1BDA0200D2B2E1
:10103000042392FBF3F30200D2B2042492FBF4F5F2
:1010400004FB1522754CA45C594DDBB2602253435E
:101050002B44E4B21422544303EB0402D177C0B210
:1010600000F059F931BD0100C9B2102901DBFF20A0
:1010700018E00100C9B2042291FBF2F1C0B20422CF
:1010800090FBF2F302FB1300644A125CDFF898371E
:10109000C9B2602041431944D2B21420424301EB4B
:1010A0000200C07F70470000581D002010B40200ED
:1010B000D2B2102A19DA0200D2B2042392FBF3F260
:1010C000C0B2042390FBF3F403FB1400534B1B5CEE
:1010D000DFF85447D2B2602042432244DBB21420EE
:1010E000434302EB030080F8211010BC704700005E
:1010F000CC6F00080100C9B2102901DBFF2019E004
:101100000100C9B2042291FBF2F1C0B2042290FBAB
:10111000F2F302FB1300414A125CDFF80C37C9B24C
:10112000602041431944D2B21420424301EB020033
:1011300090F8210070470000581D0020140C014059
:10114000100C014030B40200D2B2102A2DDA020095
:10115000D2B2042392FBF3F2C0B2042390FBF3F467
:1011600003FB14002D4B1B5C08060FD5DFF8B846B7
:101170001500EDB2602045432C441D00EDB2142053
:10118000454304EB0500012480F82240DFF898462F
:10119000D2B2602042432244DBB21420434302EB2C
:1011A000030011F0010180F8241030BC70470000EA
:1011B000502600201804002070B40100C9B2102984
:1011C00001DBFF2027E00100C9B2042291FBF2F10C
:1011D000C0B2042290FBF2F302FB13000F4A125C30
:1011E00014236024DFF840560800C0B2604328444E
:1011F0001600F6B25E43304490F82400C9B2614351
:101200002944D2B25A43114491F82210002901D046
:1012100050F08000C0B270BC70470000D86F00086A
:1012200010B40200D2B2102A19DA0200D2B204239A
:1012300092FBF3F2C0B2042390FBF3F403FB14001F
:101240005E4B1B5CDFF8E045D2B260204243224493
:10125000DBB21420434302EB030080F8241010BCDF
:1012600070470100C9B2102901DBFF2019E001001D
:10127000C9B2042291FBF2F1C0B2042290FBF2F356
:1012800002FB13004D4A125CDFF89C35C9B26020A6
:1012900041431944D2B21420424301EB020090F8BA
:1012A0002300704710B4020008000023DFF87845DF
:1012B000D2B260214A4322440400E4B214214C43D8
:1012C00002EB04011C310122183012FA00F018431D
:1012D0000A7850EA42504A7850EAC2408A7850EA86
:1012E000C230CA7850EA42300A7950EA02304A796C
:1012F00050EA82208A7950EA4220CA7950EA0220D4
:101300000A7A50EAC2104A7A50EA821000224A72DF
:10131000086110BC7047F8B50100C9B210294ADA5B
:101320000100C9B2042291FBF2F3C0B2042190FB88
:10133000F1F201FB12002149095C00226024DFF870
:10134000E8541800C0B2604305EB00060F00FFB27E
:101350001420474306EB070010F11C06012711F18A
:10136000180087403A43307852EA4052707852EA87
:10137000C042B07852EAC032F07852EA4032307956
:1013800052EA0032707952EA8022B07952EA402261
:10139000F07952EA0022307A52EAC012707A52EAA8
:1013A000801200207072C9B2DBB2634305EB030008
:1013B0000C3000F055FEF1BD00000000D86F0008B1
:1013C0005026002038B50200D2B2102A4EDA0200B0
:1013D000D2B2042392FBF3F30200D2B2042492FBB4
:1013E000F4F504FB1522DFF84444A45C0022DFF886
:1013F0003854DBB2602253432B44E4B214225443EA
:1014000003EB040212F11C035FF40012114201D13C
:10141000002200E001221A705FF4C0120A40D20CD0
:101420005A705FF460320A40D20B9A704FF4C04297
:101430000A40520BDA704FF480520A40120B1A71B4
:101440004FF440620A40920A5A714FF400720A4007
:10145000520A9A714FF480720A40120ADA7180229D
:101460001140C9091972C0B2FFF755FF31BD000024
:1014700014080140C0B2002805D0022815D00AD3B4
:1014800003281CD023E0DFF8A8034FF400710160AB
:10149000802101601BE04FF40070DFF898130860B2
:1014A0008020DFF88C13086011E04FF40070DFF843
:1014B000801308608020DFF87C13086007E0DFF805
:1014C00074034FF40071016080210160FFE77047F1
:1014D0000020DFF864231168C1F34021002901D006
:1014E00050F001001168C1F3C011002901D050F083
:1014F0000200C0B27047C0B2002805D0022814D044
:101500000AD303281AD021E0CC484FF400410160EF
:101510004FF40051016019E04FF40040C8490860E1
:101520004FF40050C549086010E04FF40040C34933
:1015300008604FF40050C249086007E0C0484FF40B
:10154000004101604FF400510160FFE77047002047
:10155000BC4A1168C1F3C031002901D050F001002C
:101560001168C1F34031002901D050F00200C0B22F
:10157000704780B5FEF748FF01BD80B5FEF782FFDA
:1015800001BDB14908717047AF480079704770B527
:1015900004006025A44E2000C0B268433044806936
:1015A00030F48050C9B2002901D050F480500100BD
:1015B0002000C0B2684330440C3000F001FD200030
:1015C000C0B205FB00F506EB050080699E49E4B258
:1015D00001EB8401886070BD934AC0B2602148432A
:1015E00010448069C0F3003010F00100C0B27047B1
:1015F00070B5040060258C4E2000C0B268433044B2
:10160000806930F40070C9B2002901D050F4007034
:1016100001002000C0B2684330440C3000F0D0FC20
:101620002000C0B205FB00F506EB05008069864985
:10163000E4B201EB8401886070BD7B4AC0B26021D6
:10164000484310448069C0F3402010F00100C0B24C
:10165000704770B504006025734E2000C0B2684327
:101660003044806930F0C000C9B2890111F0C00176
:1016700001432000C0B2684330440C3000F0A0FCAD
:101680002000C0B205FB00F506EB050080696E493D
:10169000E4B201EB8401886070BD634AC0B260218E
:1016A00048431044007E10F0C000C0B28009C0B2B0
:1016B00070477CB5040000200090002512E0310046
:1016C000C9B22800C0B2FFF7EDFD009004226946C0
:1016D000200000F028FE241D761C3000C0B2042833
:1016E000EDDB6D1C2800C0B204280FDA04224E493D
:1016F0002B00DBB26020434301EB030010F1180123
:10170000200000F010FE241D0026E6E7502076BDE4
:10171000F8B50C000100C9B2042291FBF2F1C0B28D
:10172000042290FBF2F302FB1300404A125C3E4B92
:10173000C9B2602041431944D2B21420424301EBA4
:10174000020010F11C05002622E006270222E868AC
:101750003100C9B279430844811C200000F0E3FD48
:10176000A41C0222E8683100C9B279430144200078
:1017700000F0D9FDA41C0222E8683100C9B207FBC1
:1017800001F73844011D200000F0CDFDA41C761C9B
:101790003000C0B21728D8DB8A20F2BDF8B50C00A3
:1017A0000100C9B2042291FBF2F1C0B2042290FB05
:1017B000F2F302FB13001D4A125C1B4BC9B26020FE
:1017C00041431944D2B21420424301EB020010F10C
:1017D0001C05002622E0062702222100E8683300CB
:1017E000DBB27B431844801C00F09DFDA41C022248
:1017F0002100E8683300DBB27B43184400F093FD1E
:10180000A41C02222100E8683300DBB207FB03F7C7
:101810003844001D00F087FDA41C761C3000C0B2C7
:101820001728D8DBF1BD000050260020D86F000833
:10183000141001401010014008100140140C014028
:10184000100C0140080C0140581D002080B52020DC
:1018500080F3118800F09BFD01BD80B500F09CFD78
:10186000002080F3118801BD10B54FF48062C0B232
:101870004FF400644C4B04FB003000F0BBFD10BD86
:1018800038B504000D00FFF7E1FF4FF48062290036
:10189000E4B24FF40063444803FB0404200000F06A
:1018A000BFFDFFF7DAFF31BD80B592B2022392FB94
:1018B000F3F200F1006010F5E04000F09BFD7FF0D6
:1018C000010002BD2DE9F84FADF5006D13009BB28C
:1018D00013FA80F403009BB24FF4006593FBF5F814
:1018E000E40A641C1500070000264046C0B2002828
:1018F00006D0BFB24246D2B24FF4006000FB12776E
:1019000089462BE0AB4609E0380080B2D0F5006094
:10191000290089B28842F5DAD7F5006B5A4692B2AF
:10192000300080B209EB000168463B009BB21844CE
:1019300000F0F9FC69464046C0B2FFF7A1FF1BEB7F
:1019400006061BEB0707380080B290FBFAF70AFB8C
:101950001707B5EB0B0B5D4618F101084046210057
:10196000C0B2C9B2884218D269464046C0B2FFF739
:101970007BFF380080B24FF4006A90FBFAF10AFB5B
:1019800011000028C0D1280080B240F60101884231
:1019900001DBD346C2E7AB46C0E77FF001000DF59F
:1019A000006D01B0BDE8F08F0070000880B5202008
:1019B00080F3118800F0EBFC01BD80B500F0ECFC79
:1019C000002080F3118801BD8069704710B5FFF7D2
:1019D000EDFF1048046994F82200401C84F82200AE
:1019E000FFF7EBFF200010BD38B50400FFF7DEFF66
:1019F00025690848854201D1002504E095F82200B8
:101A0000401C85F82200FFF7D8FF200000F028F9DD
:101A1000280032BDB804002038B50500FFF7D6FF16
:101A200004002000FFF7D0FF290000F08FFD002800
:101A300007D02000FFF7D8FF0400002CF1D10020D0
:101A400032BD2000FCE7F0B4024610689568131818
:101A5000506803EB5004C0071DD54D441BE013F83C
:101A6000017B05F8017B491EF9D1A0B1B60813F836
:101A7000011B06F00306032E08BF13F8016B01EBF0
:101A800006214942801C294405D011F8016B05F854
:101A9000016B401EF9D1A3420ED013F8016B16F072
:101AA000030104BF13F8011BC91C30090F28DAD148
:101AB00013F8010B0F30D6E7F0BC02F10C007047B1
:101AC000006070470168814201D0012000E00020E1
:101AD000C0B270470060406070470168814201D029
:101AE000012000E00020C0B27047010008680268D1
:101AF0000A60704701604A6842604268106048604E
:101B000070470100086802680A600A6851607047FF
:101B100080B5202080F3118800F039FC01BD80B52C
:101B200000F03AFC002080F3118801BDDFF8640268
:101B300080697047C069704780B50100082000F0D7
:101B4000B7FD01BD10B50C00FFF7DBFF446200F0EC
:101B500048FD10BD10B50400A260022084F82000EA
:101B6000002084F82100E2630020A063002060636D
:101B7000012084F82200A161DFF818022061416988
:101B8000616161690C61446114F12800FFF798FFFD
:101B900014F12C00FFF79EFF14F1480000F064FEE2
:101BA000200010BD01E00270401C8842FBD370474A
:101BB00080B58168B1F160034168D961B3F1640116
:101BC000D9600169DA6811644169DA68516472495F
:101BD000DA681166C26801681800FFF7BBFF02BD32
:101BE00010B504005522A1686068FFF7DBFFFFF71E
:101BF0008FFF2000FFF7DCFF04000021200000F031
:101C000079FDFFF78CFF200010BD2DE9F0410700A2
:101C1000884614001E00069D552207EB0801380077
:101C2000FFF7C0FFFFF774FF07EB08006038C761DC
:101C3000B0F16401C160C1680E64C1684D64564969
:101C4000C268116622005549FFF784FF0400002195
:101C5000200000F04FFDFFF762FF2000BDE8F0819B
:101C600010B50400FFF754FF94F82200401E84F8DA
:101C7000220094F82200002824D194F820000F2894
:101C800020D1206961690861606921694861FFF7B5
:101C900046FF94F8210010F00300C0B2012802D0E2
:101CA000022806D00DE02000FFF744FF00F010FEF0
:101CB00007E02000FFF73EFF0100206C00F066FE09
:101CC000FFE701E0FFF72BFF10BD10B50400FFF7A1
:101CD0001FFF200000F001F810BD10B52D498C69E0
:101CE000606205E014F12800FFF7FFFE00F079FCC8
:101CF00014F12800FFF7E6FE0028F3D194F8220043
:101D000000280AD194F8210010F0030F05D12069B2
:101D1000616908616069216948610F2000F081FCF8
:101D200010BD10B50400FFF7F3FE2000FFF704FF1D
:101D3000FFF7F5FE10BD38B505000C00FFF7F6FE05
:101D4000002C02D15FF0FF3005E0286045622100E1
:101D5000032000F0ADFC32BD80B50268002A06D039
:101D60000268002303605162100000F03AFC01BDDC
:101D700010B50C00002C02D15FF0FF3008E001002C
:101D800004488069FFF7B6FE2100042000F090FCB3
:101D900010BD0000B804002041300008BC6F0008EE
:101DA00038B504000D002000FFF797FE002803D08F
:101DB00029002000FFF7C6FE31BD30B4002513E036
:101DC00050F8042BD30744BFA9F101039A18091F47
:101DD000042942F8045BFAD213468C0744BF1580ED
:101DE0009B1CC90748BF1D7050F8041B0029E7D190
:101DF00030BC7047010000E000BF401E0028FBD14E
:101E0000704780B502689268002A18D00268D268CC
:101E1000002A14D0C9B200290AD001220168C96879
:101E20008A40006880684261C820FFF7E3FF06E04F
:101E300001220168C9688A4000688068026101BDAA
:101E400070B504000D0020688068002829D0206843
:101E5000C068002825D020680068002821D004260A
:101E60002068006800F01BFE206841682068006858
:101E700000F0CFFD01212000FFF7C3FF2A00F6B2DA
:101E800031002068006800F0F6FD00212000FFF717
:101E9000B8FF2068006800F0CAFD2068006800F004
:101EA00003FE70BDF8B504000D0016002068006840
:101EB000002822D004272068006800F0F0FD206888
:101EC00041682068006800F0A4FD01212000FFF7B0
:101ED00098FF33002A00FFB239002068006800F044
:101EE000B4FD00212000FFF78CFF2068006800F09F
:101EF0009EFD2068006800F0D7FDF1BD80B5026846
:101F00001268002A1BD06A460023136000220123B6
:101F1000183113FA01F1114351F040010A00120E79
:101F20008DF800200A00120C8DF801200A00120A18
:101F30008DF802208DF803106946FFF781FF01BD7F
:101F4000E0B501680968002901D1002011E001A96C
:101F5000B34A13680B606A4601A9FFF7A3FF9DF817
:101F600000109DF80100000250EA01409DF80210A7
:101F700008430EBD1CB504002068006800281ED070
:101F800068460021016001A800210160002050F096
:101F900080500100090E8DF800100100090C8DF829
:101FA00001100100090A8DF802108DF8030069463E
:101FB0002000FFF745FF2000FFF7C2FFE06013BDE0
:101FC0001CB5040020680068002817D0684600226D
:101FD00002600800000E8DF800000800000C8DF86B
:101FE00001000800000A8DF802008DF80310694610
:101FF0002000FFF725FF2000FFF7BCFF13BD3EB513
:1020000004000D0020680068002828D068460021E0
:10201000016001A800210160002151F080510122DE
:1020200015F11800824011430800000E8DF80000E1
:102030000800000C8DF801000800000A8DF802006D
:102040008DF8031069462000FFF7FAFE2000FFF725
:1020500077FFEDB214214D4304EB0501086237BD53
:1020600038B504000D002068006800281ED06846BE
:1020700000210160012115F1180081400A43100080
:10208000000E8DF800001000000C8DF8010010000B
:10209000000A8DF802008DF8032069462000FFF742
:1020A000CFFE2900C9B22000FFF7A9FF31BDFEB560
:1020B00004000E0015001F0020680068002858D09A
:1020C00068460021016001A800210160002151F053
:1020D0008051012216F11800824011433800C0B22D
:1020E00051EA80514F482A00D2B2805C51EA004147
:1020F0000800000E8DF8000068460A00120C4270BD
:102100000A00120A82708DF8031069462000FFF75A
:1021100097FE2000FFF714FFFFB2012F04D028D351
:10212000032F19D00BD324E0F6B214214E4304EB55
:102130000601CA69EDB206214D43505319E0F6B2CB
:1021400014214E4304EB0601CA69EDB206214D434A
:1021500002EB050148800CE0F6B214214E4304EB7B
:102160000601CA69EDB206214D4302EB05018880E4
:10217000FFE7F7BDF8B504000D0016001F0020684A
:102180000068002849D00698694600220A6031009C
:10219000C9B2C91F012903D9891E012908D90FE035
:1021A000010089B2B1F5004F01DB47F6FF7007E08F
:1021B000010089B2B1F5004F01DA4FF40040FFE7AA
:1021C0000022012315F118018B401A433900C9B2CE
:1021D00052EA815213493300DBB2C95C52EA014230
:1021E00080B210430100090E8DF800100100090CA7
:1021F0008DF801100100090A8DF802108DF8030016
:1022000069462000FFF71CFE3B00DBB23200D2B271
:102210002900C9B22000FFF74AFFF1BD000000000D
:10222000D46F0008146F000838B50400002C79D072
:10223000002977D021602068C06800280FD00125D0
:1022400006222068C16815FA01F12068806800F054
:1022500072FC2068C068854020688068056120683D
:10226000006900280FD0012506222068416915FA6F
:1022700001F12068006900F05EFC2068406985403B
:1022800020680069056120688069002808D0032261
:1022900001212068C06981402068806900F04BFC02
:1022A0002068006A002819D0012506222068416AAA
:1022B00015FA01F12068006A00F03DFCE079012880
:1022C00006D12068406A85402068006A056105E003
:1022D0002068406A85402068006A456120790028AE
:1022E00011D101252068406915FA00F021680969BB
:1022F00048614FF47A70FFF77DFD206840698540A2
:10230000206800690561002505E02900C9B22000A8
:10231000FFF7F4FD6D1C2800C0B20428F5DB200097
:10232000FFF728FE31BD10B5044600F059FC2046E9
:1023300010BD000010B5204C0020C4F8980000200B
:10234000C4F89C0014F1A00000F08EFA14F1B8005B
:1023500000F08AFA10BD202080F311881648D0F8CA
:102360009810491CC0F89810002080F3118870471D
:1023700080B50A001049D1F89C305B1CC1F89C3034
:1023800010F1480112F1480000F089FA01BD80B552
:102390000A4800F077FA01BD80B5084800F076FAE7
:1023A00001BD80B5064800F06DFA01BD80B5044856
:1023B00000F06CFA01BD0000B804002058050020B0
:1023C0007005002000887047F8B504000D00160065
:1023D000002708E0380080B235F81010200000F027
:1023E000B5FCA41C7F1C3800310080B289B2884241
:1023F000F0D3F1BDF8B504000D001600002708E089
:102400002000FFF7DFFF390089B225F81100A41C76
:102410007F1C3800310080B289B28842F0D3F1BD10
:102420002DE9F843ADF5006D04000D001700B4F17F
:102430000060B0F5802F04D30DF5006D01B0BDE84C
:10244000F08300F021FC14F178400600F60AC0F396
:102450004908D8F580694846390080B289B2884277
:1024600003D3B94601E04FF480694FF480626946B6
:102470004FF4006000FB06F010F10060FFF7BAFFB8
:10248000002000E0401C01004A4689B292B291420D
:102490000AD26946020092B212FA88F231F812109A
:1024A0004FF6FF729142EDD0494680B289B2884220
:1024B00027D24FF4006000FB06F010F1006000F03E
:1024C000F3FB00200BE06946424692B212FA80F21A
:1024D00003009BB235F8133021F81230401C010084
:1024E0004A4689B292B29142EDD34FF48062694676
:1024F0004FF4006000FB06F010F10060FFF764FF8E
:1025000005E04A4692B229002000FFF75DFF38003F
:10251000494680B289B2884202D100F0BEFB8BE707
:10252000761C5FF00008484680B205EB400548463F
:1025300080B214EB4004B7EB0907380080B240F2D8
:10254000014188428FDAB9468FE7000010F8012B6D
:1025500011F8013B0AB19A42F8D0D01A7047010035
:102560000060406070470100086802680A600A68FD
:1025700051607047016842681160416802685160AB
:1025800070479B488169896800688068814201D2F0
:10259000012000E00020C0B2704780B5202080F309
:1025A0001188FFF7FEFE01BD80B5FFF7FFFE00209A
:1025B00080F3118801BDC068002801D0012000E02F
:1025C0000020C0B270478168491C8160704710B517
:1025D000874C2000FFF7C4FF0020A06024616461E5
:1025E00010BD002180F82010814909688A6883683D
:1025F0009A42FAD201604A684260426810604860BC
:102600007047002180F820107949096882688B683A
:102610009A42FAD301604A6842604268106048609A
:10262000704738B5724DAC6984F820002800FFF778
:102630009AFFA8610120A96981F820002100A869FA
:10264000FFF796FEEFF309806438E169884202D211
:10265000684800F0D9FC2100A86900F0E5FC31BD14
:1026600010B50400FFF799FF94F82000002808D067
:10267000032809D004280ED0052809D007280AD03D
:102680000DE0FFF791FF12E00020616A086006E0AC
:10269000606AFFF798FF2000FFF76CFFFFE75FF02D
:1026A000FF3060622000FFF79CFFFFF77DFF10BD49
:1026B00018B585B0040011F1010F12D04C488369A0
:1026C0004D4A684600F0F7FC2000C0B2FFF7A9FFB2
:1026D0006846FFF770FF002807D0684600F049FD04
:1026E00003E02000C0B2FFF79CFF41488069406AC8
:1026F00006B010BD70B504003D4EB06961628168DE
:10270000A268914203D32000FFF76BFF17E0FFF7A9
:1027100078FF0500B461012084F820002900200022
:10272000FFF726FEEFF309806438E969884202D298
:10273000304800F069FC2900200000F075FC70BDF5
:1027400080B5FFF71EFF002801D000F00DF801BD95
:1027500027490868806889698968814201D2012017
:1027600000E00020C0B2704738B5214DAC692800A8
:10277000FFF7F9FEA8610120A96981F82000200077
:10278000FFF73FFF04002100A869FFF7F1FDEFF319
:1027900009806438E169884202D2164800F034FCAE
:1027A0002100A86900F040FC31BD38B5104DAC697E
:1027B0002800FFF7D8FEA8610120A96981F8200050
:1027C0002000FFF71EFF04002100A869FFF7D0FDDD
:1027D000EFF309806438E169884202D2054800F0CD
:1027E00013FC2100A86900F01FFC31BD00000000AF
:1027F000B8040020846F00086126000830B4C36864
:102800005B1CC3608368C91A891A8160D0E90445DA
:1028100082680023A2186B41C0E9042341688268E2
:10282000914201D28168416081680268914201D27F
:102830008168016030BC704738B586B01C4D0020FF
:10284000C5F89000684600F00FF80424684600F0D0
:1028500019F8684600F01AF8641E002CF6D10098AA
:10286000C5F8900007B030BD5FF0FF310160002176
:102870004160002181600021C16000220023C0E985
:10288000042370470B4909688160704780B5094986
:102890000968074AD2F89020FFF7B0FF01BD80B564
:1028A000044A12688A6000228968FFF7A7FF01BD09
:1028B000B8040020041000E080B5254825490160D7
:1028C00000214160002181600C3000F0DDFC01BD81
:1028D00070B5B0F1080425682E1D6068C01DC008E1
:1028E000606015F10C0000F0D7FC00E03668281D90
:1028F000864201D0A642F9D23068002802D0306862
:102900008442F3D2306820603460606804EBC00019
:1029100008302168884208D1606821684968491CEC
:1029200008186060206800682060706806EBC000CE
:102930000830A04206D170686168491C08187060B0
:102940002068306015F10C0000F0EAFC70BD00005A
:10295000CC1800206137000880B5202080F3118852
:10296000FFF715FD01BD80B5FFF716FD002080F3D0
:10297000118801BD10B40024046041608260C3600E
:1029800010BC704702680A600160704738B50400E7
:102990000D00FFF7E1FF29002000FFF7F3FFFFF72D
:1029A000E2FF31BD80B5202080F31188FFF7EFFCF6
:1029B00001BD80B5FFF7F0FC002080F3118801BD58
:1029C00080B5FFF7EFFF01BD80B5FFF7F2FF01BD56
:1029D00080B55FF0FF31FFF7AEF902BD80B500F0C2
:1029E00053FC01BD80B500F057FC01BD80B500F07F
:1029F00097FC01BD80B500F04EFD01BD80B5012101
:102A0000017000214160002181600C30FFF7E6FF7A
:102A100001BD38B504000D00FFF7D2FF656020004E
:102A200000F04BFD02202070FFF7CEFF31BD10B546
:102A30000400FFF7C5FF200000F0AAFD0020606041
:102A400001202070FFF7C0FF10BDF8B504000D0095
:102A500016001F00FFF7B4FF032020703B00320078
:102A60002900200000F0B9FD14F10800FFF7B0FFC5
:102A7000FFF7AAFFF1BD70B504000D001600FFF7C7
:102A80009FFF0320207032002900200000F0D0FDBD
:102A900014F10800FFF79CFFFFF796FF70BD80B5AB
:102AA0000C30FFF79FFF01BD80B50C30FFF79EFF94
:102AB00001BDFEE7002108E0374A002342F831302B
:102AC000002302EBC1025360491C1029F4D333499F
:102AD0000A6852F0BD020A6009680168304A116054
:102AE0008168304A116041682F4A1160C1682F4ADD
:102AF000116041692E4A116001692E4A1160816995
:102B00002D4A1160016A2D4A1160C1692C4A116079
:102B1000416A2C4A1160C16A2B4A1160816A2B4AB2
:102B20001160016B2A4A1160816B2A4A1160406B67
:102B3000294908607047F0B4032A01D1016102E01D
:102B4000042A00D14161254B9E5C0022150014002F
:102B50001300002709E0344305E035435FEA014CE8
:102B6000F9D452F00F0249007F1C082F09D21B0133
:102B700012012D0124015FEA016CEED453F00F0322
:102B8000ECE741680A402243426001680B402B4356
:102B90000360F0BC704700003C1900201810024090
:102BA0000C08014004080140000801400C0C0140E1
:102BB000040C0140000C01400C10014004100140C5
:102BC000001001400C1401400414014000140140A5
:102BD0000C1C0140041C0140001C01405C6F0008FB
:102BE00062B38B0708D0521E11F8013B00F8013B7D
:102BF00000F024808B07F6D1830740F0208000BFCF
:102C0000103A07D330B4B1E83810103AA0E83810C1
:102C1000F9D230BC530724BFB1E80810A0E808106F
:102C200044BF51F8043B40F8043BD20724BF31F8BD
:102C3000022B20F8022B44BF0B7803707047121F41
:102C400017D35B0009D151F8043B20F8023B1B0C61
:102C5000121F20F8023BF6D20BE051F8043B00F8BB
:102C6000013B1B0A20F8023B1B0C121F00F8013B22
:102C7000F3D238BF121D521E24BF11F8013B00F8D9
:102C8000013BF8D870470000DFF8F401DFF8F411D9
:102C90000160DFF8FC1101607047DFF8F80101689E
:102CA00051F080010160704738B504000420B4F190
:102CB0000061DFF8D421914201D2012100E000211E
:102CC000C9B2B4F1046F1ED35FF0FF3000F0C3F857
:102CD0000100C9B2042914D1DFF8B051286850F0BE
:102CE00002002860DFF8B0010460286850F040005E
:102CF00028605FF0FF3000F0AEF8296831F0020183
:102D00002960C0B221E0DFF894118C421CD25FF040
:102D1000805000F08CF80100C9B2042914D1DFF80A
:102D20007451286850F002002860DFF874010460D4
:102D3000286850F0400028605FF0805000F077F87D
:102D4000296831F002012960C0B232BD70B50400BB
:102D50000D000420B4F10061DFF82C21914201D272
:102D6000012100E00021C9B2B4F1046F18D34FF47F
:102D7000704000F070F80100C9B204290ED1DFF8EC
:102D80000C61306850F00100306025804FF47040D5
:102D900000F061F83168490849003160C0B21BE0B9
:102DA000DFF8F8108C4216D24FF4704000F03FF874
:102DB0000100C9B204290ED1DFF8D860306850F0A4
:102DC0000100306025804FF4704000F030F8316829
:102DD000490849003160C0B270BD0420DFF8C80066
:102DE0000168C90701D501200AE00168490701D53A
:102DF000022005E00068C00601D5032000E00420A1
:102E0000C0B270470420DFF89C000168C90701D5F3
:102E100001200AE00168490701D5022005E00068A9
:102E2000C00601D5032000E00420C0B2704710B5F1
:102E300004000420FFF7D1FF02E0FFF7CEFF641E7D
:102E40000100C9B2012901D1002CF6D1002C00D11A
:102E50000520C0B210BD10B504000420FFF7D2FF5A
:102E600002E0FFF7CFFF641E0100C9B2012901D1C2
:102E7000002CF6D1002C00D10520C0B210BD0000FE
:102E800004200240230167450000FF179020024004
:102E9000AB89EFCD102002409420024000000808CA
:102EA000142002408C2002400C200240081880B2FE
:102EB0007047081A80B2704780B500F018FC01BD59
:102EC00080B580B200F017FC01BD80B500F018FCA1
:102ED00002BD002080F3118862B6704780B52020C3
:102EE00080F31188FFF75DFA01BD80B5FFF75EFA48
:102EF000002080F3118801BD80B5FFF7E6FF02BD19
:102F0000F8B5454CE569FFF7F7FF0700390089B2CE
:102F1000208DFFF7CEFF0600A868864205D2E06943
:102F200014F11C0188421FD13EE0218DA868411890
:102F30002185A868361A14F11C00296848602968A0
:102F4000E161EF680021E960E169814201D1FFF7A9
:102F5000B3FFFFF7CAFF2869B847FFF7BFFFE5696E
:102F6000A8688642E1D2CEE7208D30182085E0693E
:102F70008068861BE0698660390089B2208DFFF782
:102F800098FF0100A868411A022901D2022104E039
:102F9000B1F5803F01D34FF6FF71380080B2FFF7E3
:102FA00085FF80B2FFF78CFFF1BD80B500F0BAFB62
:102FB000FFF782FC00F0F5FB01BDFEE710B5FFF75F
:102FC00006FB00F06DF8FFF7F0FFFFF735FCFFF7A9
:102FD000B1F9114C8022114914F13000FEF7BAFD0D
:102FE000A0610F48A169C8610120A16981F8200092
:102FF00000F033FCA0694830FFF744FCFFF769FF9D
:103000000848FEF7EDFD10BD72B60349C862FEE741
:1030100080B5FFF775FF01BDB80400202C6F0008D4
:1030200000040020446F00082DE9F04F2DED108AB8
:10303000C1F80CD0C3689D46BDEC108ABDE8F08F86
:10304000FFF7AAF9002383F311882846A047002040
:10305000FEF73BFEFEE7FFF79AF9FFF7A6FBFFF747
:103060009BF900DFFEE70000081880B27047081ADD
:1030700080B2704780B580B200F034FB01BD80B5EE
:1030800000F035FB01BD80B580B200F034FB01BD1E
:1030900080B500F035FB02BD80B5FFF7F9FF02BD3A
:1030A0005A4810F11C01C16101625FF0FF314162B9
:1030B0000021018570472DE9F04104000D002361D6
:1030C000E260FFF7E9FF8046022D00D202254F4E55
:1030D00016F11C00F169884213D1A6F82880F4612A
:1030E000346220606060A560B5F5803F01D34FF683
:1030F000FF752900308DFFF7B7FF80B2FFF7BAFFE9
:1031000035E0F769414689B2308DFFF7B0FF2D18E1
:10311000414689B2308DFFF7AAFF854203D2B868D5
:103120002D1A3F6812E0B86885420FD22900B1F528
:10313000803F01D34FF6FF71308DFFF795FF80B2CE
:10314000FFF7A1FF02E0B8682D1A3F68B868A842EF
:10315000F9D32760206840686060606804607C6024
:10316000A560B868451BBD605FF0FF307062BDE8C8
:10317000F08110B5254CE169814213D001684268A5
:1031800011604168026851600021C16014F11C01A6
:103190000268914205D001688A6881688A180068CF
:1031A000826032E00168E16114F11C01E269516062
:1031B0000022C260E269914202D1FFF760FF24E081
:1031C000E169896880684118E0698160FFF764FF00
:1031D000010089B2208DFFF74AFFE16989688842C2
:1031E00013D2E1698968091A022901D2801C05E01D
:1031F0004018B0F5803F01D34FF6FF700100208DDD
:10320000FFF732FF80B2FFF73EFF10BDB804002089
:103210000060406070470168814201D0012000E0F9
:103220000020C0B2704710B40A0012688A4203D06E
:1032300093688468A342F8D2026051684160416893
:103240000860506010BC70470100086802680A609E
:103250000A685160704701684268116041680268FD
:103260005160704780B5202080F31188FFF78FF8F8
:1032700001BD80B5FFF790F8002080F3118801BDF3
:1032800080B5FFF7C8FF02BD10B504002000FFF7AE
:10329000BFFF0020A06010BD10B50400FFF7E2FFE3
:1032A000200000F003F8FFF7E4FF10BD70B5040044
:1032B00033488569A06800282DD0A66807E0300053
:1032C000FFF7C9FF716AFFF7AEFF706A8668B068E2
:1032D000A968884216D2A868B06096F82000002835
:1032E0000AD00628EBD007280CD13000FFF7B3FF37
:1032F000716AFFF798FF05E03000FFF7ACFFFFF7BA
:1033000070F9FFE721002800FFF78DFF6C620620AF
:10331000FFF787F903E0A560A86BE060AC6370BDC0
:10332000F8B5050016488669FFF79CFFE868B063AA
:103330002800FFF7A5FF00281DD0F76BB46B0BE04A
:103340002000FFF79DFF002805D020688068874295
:1033500001D220688768E468002CF1D1B7602800AA
:10336000FFF772FFA860816BE9608563FFF739F9A9
:10337000FFF7E6F901E00020A860FFF77AFFF1BD52
:10338000B804002080B5202080F31188FFF709F8E9
:1033900001BD80B5FFF70AF8002080F3118801BD58
:1033A00080B5FFF731FE01BD80B5FFF7EBFF01BD32
:1033B00080B5FFF7EEFF01BD80B5FEF7CDFC01BD86
:1033C00038B504000D00280702D5AE48FFF7E8FF26
:1033D0006068007800281BD0680707D560684068DF
:1033E000002803D02000616849688847A8074AD5AB
:1033F00060684068002846D0042020702000616882
:1034000049688847207804283DD1032020703AE09D
:10341000606A4068006800090001616A49680860E4
:103420000E21606A90F90D0011FA00F0626A1268CC
:103430005060206A4068006800090001226A5268F2
:103440001060206A90F90D008140206A0068416098
:103450006068406800280BD004202070200061685C
:10346000496888472078042804D10220207001E0B0
:1034700002202070FFF798FF002114F10800FFF7E9
:103480009BFFFFF795FF31BD80B5080702D57D484A
:10349000FFF786FF01BD10B57B4C2000FFF7AEFAA9
:1034A0007A48E061002020620020606241F20A0058
:1034B000A06241F21800E06210BD10B5040020784F
:1034C000012820D17048A04213D12300704A0A215C
:1034D000012000F099FA206223006E4A0A2102209E
:1034E00000F092FA60626C48016851F4805101600A
:1034F0000068E0690C30216A49688860E0690C3036
:10350000616A496888606068008A000508D4A06A1A
:1035100030F47060A062E06A30F47060E06209E04C
:103520000520A16A60F30B21A1620520E16A60F326
:103530000B21E16260680078002808D0A06A50F092
:103540002400A062E06A50F02400E06207E0A06A74
:1035500030F02400A062E06A30F02400E062E0690C
:10356000006830F04000E16908606068008A50F44B
:103570004170E16908606068408A50F00300E169C9
:103580004860E069006850F04000E169086010BDE3
:1035900010B50400207802281ED1E069006830F0E0
:1035A0004000E16908600020E16908600020E169ED
:1035B0004860206A00F075FA606A00F072FA002034
:1035C0002062002060623048A04205D13248016884
:1035D00031F480510160006810BD10B4046A646861
:1035E000E360036A5B685960836A53F08003046A8E
:1035F00064682360436A5B68DA60426A52685160BB
:10360000C16A51F08001426A52681160016A4968DA
:10361000096851F00101026A52681160416A496803
:10362000096851F00101406A4068016010BC7047B0
:1036300010B41A4B046A6468E360036A5B685960FB
:10364000836A046A64682360436A5B68DA60426A7A
:1036500052685160C16A51F08001426A526811603B
:10366000016A4968096851F00101026A52681160F3
:10367000416A4968096851F00101406A4068016087
:1036800010BC7047A06F0008181B002000300140DC
:10369000C13300088934000818100240DC270020DC
:1036A0000A48006880B2704780B20949086000206B
:1036B0000849086002200849086070470020064950
:1036C0000860704780B202490860704724000040DB
:1036D00034000040100000400C00004080B500F0B5
:1036E00071FA01BD80B580B2FFF7DEFF01BD80B584
:1036F000FFF7E4FF01BD80B580B2FFF7E3FF01BD36
:1037000080B5FFF7CDFF02BD80B5202080F3118882
:10371000FEF73DFE01BD80B5FEF73EFE002080F3C2
:10372000118801BD16481749016011F5006141601B
:10373000704710B4124B5C6840422044491E30EA86
:103740000101524201EB02001A68904202D35A680A
:10375000824201D2002001E05860080010BC70478E
:1037600070B504000D001600FFF7CEFF32002900EF
:103770002000FFF7DEFF0400FFF7CDFF200070BD43
:10378000C4100020CC10002080B50022FFF7D1FF2C
:1037900002BD80B513000422FFF7ECF801BD006004
:1037A000704738B5144C2000FFF76EFD14F110007F
:1037B000FFF7F5FF114D2A00142114F11400FFF753
:1037C000E8FF14F12400FFF7EAFF14F12800FFF7E7
:1037D000E6FF2A001C2114F12C00FFF7DAFF14F198
:1037E0003C00FFF7DCFF14F14000FFF7D8FF14F1B5
:1037F0004400FFF7D4FF31BD7C100020893700085A
:1038000010F00700354B1A684FF6FF010A403449A3
:1038100051EA00210A431A607047020052B2002A9E
:1038200004D409012F4A40B2115407E009012E4A7D
:1038300040B210F00F00104400F8041C7047EFF382
:103840000980683029490A68520852000A6080F3EA
:103850000988002080F31188704780B5202080F30C
:10386000118862B60320FFF7CBFF2148016851F0B1
:10387000807101601F48016851F001010160012160
:103880007FF00400FFF7C9FF02217FF00100FFF77E
:10389000C4FF01BD10B5202080F3118816480068D0
:1038A000000517D5F1EE100AEFF30980683804001F
:1038B0005FF08071E16111490968216680F3098830
:1038C000FEF746FF002802D00D48A06101E00D4838
:1038D000A06102E0002080F3118810BD0CED00E033
:1038E0000000FA0500E400E018ED00E034EF00E02D
:1038F000FCED00E0001000E004ED00E03CEF00E033
:10390000573000086330000880B5FEF724FD8D486D
:1039100000F0F9F8FFF7BEFF01BD80B5FEF71BFD13
:10392000894800F0F0F8FFF7B5FF01BD80B5FEF75C
:1039300012FD864800F0E7F8FFF7ACFF01BD80B547
:10394000FEF709FD824800F0DEF8FFF7A3FF01BD96
:1039500080B5FEF700FD7F4800F0D5F8FFF79AFF2D
:1039600001BD80B5FEF7F7FC7B4800F0CCF8FFF70F
:1039700091FF01BD80B5FEF7EEFC784800F0C3F87A
:10398000FFF788FF01BD80B5FEF7E5FC744800F045
:10399000BAF8FFF77FFF01BD80B5FEF7DCFC714888
:1039A00000F0B1F8FFF776FF01BD80B5FEF7D3FC5C
:1039B0006D4800F0A8F8FFF76DFF01BD80B5FEF778
:1039C000CAFC6A4800F09FF8FFF764FF01BD10B41D
:1039D0006749002008600020486000200AE00022BB
:1039E000584B040123445B681A60002201EBC003BA
:1039F0009A60401C0B28F2DB5FF0FF305D490860E5
:103A00005D49086010BC7047F8B50B2801D207006B
:103A100002E0002044E07F1CB84240D30124BC40B7
:103A2000534D2E682642F6D146483E01064405EB2A
:103A3000C700826005EBC700C36028682043286088
:103A400014F07F0F05D04D48036853F00103036065
:103A5000006814F4F06F05D04848036853F002037F
:103A600003600068002A09D06868B268104202D179
:103A7000F07B00F0F9F8686804436C6070680068D7
:103A800000090001716808600E2196F90D0081405F
:103A900030684160002071680860300000E000205C
:103AA000F2BD38B5857B0122314C236812FA05F14D
:103AB0008B4323606168AA4031EA02026260616858
:103AC0008268114202D1C07B00F0E5F8002004EBCF
:103AD000C5018860002004EBC501C860207810F0A3
:103AE0007F0F05D125480168490849000160006839
:103AF000206810F4F06F05D12048016831F0020110
:103B00000160006831BD80B5827B01680968437B34
:103B1000D94011F00E0143681B68194211D0437B54
:103B200011FA03F300684360114B03EBC200806895
:103B3000002806D003EBC200C06803EBC202926803
:103B4000904701BD946A0008A46A0008B46A00089E
:103B5000C46A0008D46A0008E46A0008F46A00082D
:103B6000046B0008146B0008246B0008346B000819
:103B7000E81B00200400024004040240141002402C
:103B800080B5202080F31188FEF70BFC01BD80B5C5
:103B9000FEF70CFC002080F3118801BD80B5FFF713
:103BA000EFFF01BD80B5FFF7F2FF01BD80B5FFF764
:103BB0002FFA01BD80B5FEF7CEFB00F041F8FFF70C
:103BC00069FE01BD80B51548016851F00101016031
:103BD00000681348016851F40061016048F69F4095
:103BE000104908604FF6FF700F49086000200F4928
:103BF000086000200E49086000200E49086000207F
:103C00000D49086001200D49086001205FF08041E6
:103C1000086008211C2000F027F801BD1C1002409C
:103C2000042004E0280000402C0000401800004060
:103C3000340000400C00004004000040140000402C
:103C400080B55FF080410869CA6802F0FF02104049
:103C5000C2430A61800705D5FFF7A0FFFFF7A6FF63
:103C6000FFF7A0FF01BD000010B40901104A115474
:103C7000012210F01F0112FA01F10E4B0400640939
:103C800043F8241010F01F018A400B49400941F805
:103C9000202010BC7047012210F01F018A40074904
:103CA00003005B0941F823200021014A11547047A9
:103CB00000E400E080E200E000E100E080E100E0FC
:103CC000DFF8700C012181700021C170AA214170C0
:103CD000704770B500234FF48272DFF8301D080082
:103CE000441C012503E02078C318641C6D1C2800C7
:103CF000160080B2B6B2B042F5D30B7092B200207B
:103D0000FDF7E0FD70BD70B54FF48275DFF8FC4C37
:103D10002A0092B221000020FDF7C6FD00212000FC
:103D2000421C012303E010784118521C5B1C180050
:103D30002E0080B2B6B2B042F5D32078C9B281422B
:103D400002D16078AA2803D0FFF7BAFFFFF7C1FFBE
:103D500070BD38B5FFF7D7FF0021DFF8B42C10682D
:103D6000C0F38010002801D151F001011068C0F3A8
:103D70000020002801D151F002011068C0F3C010EA
:103D8000002801D151F004011068C0F34020002840
:103D900001D151F008010800C0B2002806D1DFF8B7
:103DA000940B8078DFF86C1C087102E0DFF8640C7B
:103DB0000171DFF8644CDFF85C5CA560DFF8740B20
:103DC000C078002806D0022810D009D3042819D0C2
:103DD00012D31DE04FF41650DFF8141D08601CE0EC
:103DE0004FF49640DFF8081D086016E04FF41640C7
:103DF000DFF8FC1C086010E04FF46140DFF8F01CB5
:103E000008600AE05FF4E130DFF8E41C086004E0D9
:103E10004FF41650DFF8D81C0860DFF8D41CDFF828
:103E2000D40C01F07FF90095DFF8CC3C81224FF4EF
:103E30001761DFF8C80CFDF7E8FE2060DFF8C00C62
:103E4000FDF7EAFD606031BD704770B5A0B00400B9
:103E5000D2B2002A31D16846002102210170401CF3
:103E600041210170401CDFF8AC1B09790170401C36
:103E7000FF210170451C2800FDF71BFC8DF8030095
:103E8000C0B205446846281A801E6E1C6846301A67
:103E9000811EC9B20DF1010001F087F928700320DD
:103EA00030700420FDF73DFF6846361A761C32005C
:103EB0006946200023685B68984720B070BD70B5E4
:103EC000C0B0040008001100C9B2012937D1694609
:103ED000002202220A70491C42220A70491CDFF8A3
:103EE000342B12790A70491CFF220A70491C02788F
:103EF0000A704D1C29000078FDF70AFC411C8DF862
:103F00000310C0B205446846281A801E6E1C68461D
:103F1000301A811EC9B20DF1010001F046F9287076
:103F2000032030700420FDF7FCFE6846361A761C2C
:103F300032006946200023685B68984706E0D2B2E9
:103F40008B2A03D1411C0078FDF728FC40B070BDDE
:103F50002DE9F841C3B08846150003A800210221CD
:103F60000170401C23210170401CDFF8A81A097958
:103F70000170461C6FE098F8007018F10100047899
:103F8000401C017854EA0124401C017854EA0144A1
:103F900010F1010824020222414602A8FEF7C3F9EB
:103FA00018F10208022241460DF10600FEF7BBF9A6
:103FB00018F102080222414601A8FEF7B4F918F1EF
:103FC0000208022241460DF10200FEF7ACF918F199
:103FD0000208022241466846FEF7A5F918F10208D8
:103FE00021003800C0B2FDF7EDF9BDF80610380029
:103FF000C0B2FCF7E0FDBDF804103800C0B2FCF719
:1040000036FEBDF802103800C0B2FCF78CFEBDF8D9
:1040100000103800C0B2FCF7BFFEBDF80810380031
:10402000C0B2FCF76CFD14F00300C0B2FDF763FAF8
:10403000C4F38100C0B2FDF71DFAC4F30011C9B288
:104040003800C0B2042290FBF2F0C0B2FDF79FFA34
:104050000E3D3770761C2800C0B20E288BDA44B0B3
:10406000BDE8F081F8B590B004000D0016003000F6
:10407000C0B2022812D12878FF280BD100273800BF
:10408000C0B210280ADA69783800C0B2FCF703FF22
:104090007F1CF4E769782878FCF7FDFE3000C0B299
:1040A000012802D0F6B2022E44D1684602210170E6
:1040B000401C10210170401CDFF85819097901706B
:1040C000401C2978FF2912D111210170401CFF21C9
:1040D0000170451C00263000C0B2102812DA3000F2
:1040E000C0B2FCF7FAFE28706D1C761CF3E70221C3
:1040F0000170401C29780170461C2878FCF7EDFE01
:104100003070751C6E1C6846301A811EC9B20DF1E4
:10411000010001F04AF82870032030700420FDF7F8
:1041200000FE6846361A761C320069462000236875
:104130005B68984711B0F0BDF8B590B004000D0071
:1041400016003000C0B2022812D12878FF280BD107
:1041500000273800C0B210280ADA69783800C0B2E7
:10416000FCF753FE7F1CF4E769782878FCF74DFED6
:104170003000C0B2012802D0F6B2022E44D1684607
:1041800002210170401C11210170401CDFF88418CD
:1041900009790170401C2978FF2912D11121017081
:1041A000401CFF210170451C00263000C0B21028C1
:1041B00012DA3000C0B2FCF74CFE28706D1C761C81
:1041C000F3E702210170401C29780170461C287811
:1041D000FCF73FFE3070751C6E1C6846301A811E5D
:1041E000C9B20DF1010000F0E0FF2870032030702B
:1041F0000420FDF796FD6846361A761C32006946A3
:10420000200023685B68984711B0F0BDF8B590B006
:1042100004000D0016003000C0B2022812D1287828
:10422000FF280BD100273800C0B210280ADA6978BD
:104230003800C0B2FCF771FE7F1CF4E7697828787B
:10424000FCF76BFE3000C0B2012802D0F6B2022E9D
:1042500044D1684602210170401C12210170401CAB
:10426000DFF8B01709790170401C2978FF2912D1B5
:1042700011210170401CFF210170451C00263000F7
:10428000C0B2102812DA3000C0B2FCF768FE287005
:104290006D1C761CF3E702210170401C2978017027
:1042A000461C2878FCF75BFE3070751C6E1C684657
:1042B000301A811EC9B20DF1010000F076FF28709E
:1042C000032030700420FDF72CFD6846361A761C5A
:1042D00032006946200023685B68984711B0F0BD42
:1042E000F8B590B004000D0016003000C0B20228EE
:1042F00012D12878FF280BD100273800C0B210282F
:104300000ADA69783800C0B2FCF749FE7F1CF4E78E
:1043100069782878FCF743FE3000C0B2012802D04B
:10432000F6B2022E44D1684602210170401C1321CE
:104330000170401CDFF8D01C09790170401C2978FD
:10434000FF2912D111210170401CFF210170451C71
:1043500000263000C0B2102812DA3000C0B2FCF7DC
:1043600040FE28706D1C761CF3E702210170401C92
:1043700029780170461C2878FCF733FE3070751CD4
:104380006E1C6846301A811EC9B20DF1010000F0A2
:104390000CFF2870032030700420FDF7C2FC684633
:1043A000361A761C32006946200023685B689847FD
:1043B00011B0F0BDF8B590B004000D00160030004B
:1043C000C0B2022812D12878FF280BD1002738006C
:1043D000C0B210280ADA69783800C0B2FCF721FEB2
:1043E0007F1CF4E769782878FCF71BFE3000C0B228
:1043F000012802D0F6B2022E44D168460221017093
:10440000401C14210170401CDFF8FC1B097901706D
:10441000401C2978FF2912D111210170401CFF2175
:104420000170451C00263000C0B2102812DA30009E
:10443000C0B2FCF718FE28706D1C761CF3E7022151
:104440000170401C29780170461C2878FCF70BFE8F
:104450003070751C6E1C6846301A811EC9B20DF191
:10446000010000F0A2FE2870032030700420FDF748
:1044700058FC6846361A761C3200694620002368CC
:104480005B68984711B0F0BDF8B590B004000D001E
:1044900016003000C0B2022812D12878FF280BD1B4
:1044A00000273800C0B210280ADA69783800C0B294
:1044B000FCF748FE7F1CF4E769782878FCF742FE99
:1044C0003000C0B2012802D0F6B2022E44D16846B4
:1044D00002210170401C15210170401CDFF8281BCF
:1044E00009790170401C2978FF2912D1112101702E
:1044F000401CFF210170451C00263000C0B210286E
:1045000012DA3000C0B2FCF757FE28706D1C761C22
:10451000F3E702210170401C29780170461C2878BD
:10452000FCF74AFE3070751C6E1C6846301A811EFE
:10453000C9B20DF1010000F038FE28700320307080
:104540000420FDF7EEFB6846361A761C32006946F9
:10455000200023685B68984711B0F0BDF8B590B0B3
:1045600004000D0016003000C0B2022812D12878D5
:10457000FF280BD100273800C0B210280ADA69786A
:104580003800C0B2FCF74CFE7F1CF4E7697828784D
:10459000FCF746FE3000C0B2012802D0F6B2022E6F
:1045A00044D1684602210170401C16210170401C54
:1045B000DFF8541A09790170401C2978FF2912D1BB
:1045C00011210170401CFF210170451C00263000A4
:1045D000C0B2102812DA3000C0B2FCF742FE2870D8
:1045E0006D1C761CF3E702210170401C29780170D4
:1045F000461C2878FCF735FE3070751C6E1C68462A
:10460000301A811EC9B20DF1010000F0CEFD2870F4
:10461000032030700420FDF784FB6846361A761CB0
:1046200032006946200023685B68984711B0F0BDEE
:10463000F8B590B004000D0016003000C0B202289A
:1046400012D12878FF280BD100273800C0B21028DB
:104650000ADA69783800C0B2FCF728FD7F1CF4E75D
:1046600069782878FCF722FD3000C0B2012802D01A
:10467000F6B2022E44D1684602210170401C172177
:104680000170401CDFF8801909790170401C2978FD
:10469000FF2912D111210170401CFF210170451C1E
:1046A00000263000C0B2102812DA3000C0B2FCF789
:1046B00021FD28706D1C761CF3E702210170401C5F
:1046C00029780170461C2878FCF714FD3070751CA1
:1046D0006E1C6846301A811EC9B20DF1010000F04F
:1046E00064FD2870032030700420FDF71AFB684633
:1046F000361A761C32006946200023685B689847AA
:1047000011B0F0BD70B590B004000D00160030007F
:10471000C0B2022802D16878FCF7ACFE3000C0B20B
:10472000012802D0F6B2022E41D168460221017062
:10473000401C18210170401CDFF8CC180979017069
:10474000401C2978FF2910D111210170401CFF2144
:104750000170451C00263000C0B210280FDAFCF7AB
:10476000B7FE28706D1C761CF5E702210170401C15
:1047700029780170451CFCF7ABFE28706D1C6E1C7F
:104780006846301A811EC9B20DF1010000F00DFD1E
:104790002870032030700420FDF7C3FA6846361AEB
:1047A000761C32006946200023685B68984710B089
:1047B00070BD70B590B004000D0016003000C0B29E
:1047C000022802D16878FCF796FE3000C0B20128BA
:1047D00002D0F6B2022E41D1684602210170401C7F
:1047E00019210170401CDFF8201809790170401C64
:1047F0002978FF2910D111210170401CFF2101707F
:10480000451C00263000C0B210280FDAFCF79FFECE
:1048100028706D1C761CF5E702210170401C297878
:104820000170451CFCF793FE28706D1C6E1C6846D9
:10483000301A811EC9B20DF1010000F0B6FC2870DB
:10484000032030700420FDF76CFA6846361A761C97
:1048500032006946200023685B68984710B070BD3D
:10486000F8B590B004000D0016003000C0B2022868
:1048700012D12878FF280BD100273800C0B20428B5
:104880000ADA69783800C0B2FCF781FE7F1CF4E7D1
:1048900069782878FCF77BFE3000C0B2012802D08E
:1048A000F6B2022E44D1684602210170401C1A2142
:1048B0000170401CDFF8501709790170401C2978FD
:1048C000FF2912D105210170401CFF210170451CF8
:1048D00000263000C0B2042812DA3000C0B2FCF763
:1048E0007BFE28706D1C761CF3E702210170401CD2
:1048F00029780170461C2878FCF76EFE3070751C14
:104900006E1C6846301A811EC9B20DF1010000F01C
:104910004CFC2870032030700420FDF702FA684632
:10492000361A761C32006946200023685B68984777
:1049300011B0F0BD541C0020F8B590B004000D007B
:1049400016003000C0B2022812D12878FF280BD1FF
:1049500000273800C0B204280ADA69783800C0B2EB
:10496000FCF746FE7F1CF4E769782878FCF740FEE8
:104970003000C0B2012802D0F6B2022E44D16846FF
:1049800002210170401C18210170401CDFF87816CC
:1049900009790170401C2978FF2912D10521017085
:1049A000401CFF210170451C00263000C0B20428C5
:1049B00012DA3000C0B2FCF740FE28706D1C761C85
:1049C000F3E702210170401C29780170461C287809
:1049D000FCF733FE3070751C6E1C6846301A811E61
:1049E000C9B20DF1010000F0E0FB28700320307027
:1049F0000420FDF796F96846361A761C320069469F
:104A0000200023685B68984711B0F0BD541C00205B
:104A1000080C01400C040020481C0020F8B590B0A0
:104A200004000D0016003000C0B2022812D1287810
:104A3000FF280BD100273800C0B204280ADA6978B1
:104A40003800C0B2FCF705FE7F1CF4E769782878CF
:104A5000FCF7FFFD3000C0B2012802D0F6B2022EF2
:104A600044D1684602210170401C18210170401C8D
:104A7000DFF8941509790170401C2978FF2912D1BB
:104A800005210170401CFF210170451C00263000EB
:104A9000C0B2042812DA3000C0B2FCF7FEFD287064
:104AA0006D1C761CF3E702210170401C297801700F
:104AB000461C2878FCF7F1FD3070751C6E1C6846AA
:104AC000301A811EC9B20DF1010000F06EFB287092
:104AD000032030700420FDF724F96846361A761C4E
:104AE00032006946200023685B68984711B0F0BD2A
:104AF00000040020BC190020CD5200080807002047
:104B0000C46F00082DE9F843A0B004000F003E7800
:104B10007D78D2B2921E022092FBF0F83878FF28FE
:104B200000D100265FF0000914E04846C0B207EB50
:104B3000400082784846C0B207EB4000C07852EA95
:104B4000002292B2797819EB0600C0B2FBF73FFE63
:104B500019F1010948464146C0B2C9B28842E4D3BE
:104B6000684602210170401C20210170401CDFF8C2
:104B7000981409790170401C3100C9B2FF291AD17B
:104B800022210170401CFF210170401C0570461C51
:104B900000273800C0B2102820DA2900C9B2380036
:104BA000C0B2FBF773FE3070711C80B2000A08704F
:104BB0004E1C7F1CEDE704210170401C0670401C58
:104BC0000570471C2900C9B23000C0B2FBF75EFE79
:104BD0003870791C80B2000A08704E1C751C68463B
:104BE000281A811EC9B20DF1010000F0DEFA307002
:104BF000032028700420FDF794F868462D1A6D1CD8
:104C00002A006946200023685B68984721B0BDE808
:104C1000F083F8B5A0B004000E784D788878C97894
:104C200050EA0120D2B2042A07D1020092B2290030
:104C3000C9B23000C0B2FBF755FE684602210170D0
:104C4000401C21210170401CDFF8BC130979017060
:104C5000401C3100C9B2FF291AD122210170401C29
:104C6000FF210170401C0570461C00273800C0B2AF
:104C7000102820DA2900C9B23800C0B2FBF78FFE35
:104C80003070711C80B2000A08704E1C7F1CEDE76A
:104C900004210170401C0670401C0570471C29004F
:104CA000C9B23000C0B2FBF77AFE3870791C80B20E
:104CB000000A08704E1C751C6846281A811EC9B26D
:104CC0000DF1010000F071FA30700320287004200B
:104CD000FDF727F868462D1A6D1C2A00694620004A
:104CE00023685B68984721B0F0BDF8B5A0B0040018
:104CF0000E784D788878C97850EA0120D2B2042A1B
:104D000007D1020092B22900C9B23000C0B2FBF74D
:104D10006BFE684602210170401C22210170401C7C
:104D2000B94909790170401C3100C9B2FF291AD173
:104D300022210170401CFF210170401C0570461C9F
:104D400000273800C0B2102820DA2900C9B2380084
:104D5000C0B2FBF7A8FE3070711C80B2000A087068
:104D60004E1C7F1CEDE704210170401C0670401CA6
:104D70000570471C2900C9B23000C0B2FBF793FE92
:104D80003870791C80B2000A08704E1C751C684689
:104D9000281A811EC9B20DF1010000F006FA307028
:104DA000032028700420FCF7BCFF68462D1A6D1CF8
:104DB0002A006946200023685B68984721B0F0BD4F
:104DC00070B5A0B004000D002878D2B2022A44D1F8
:104DD000C0B2422828D049283AD04C2828D04D28A3
:104DE00032D0532808D0552802D0AA2834D034E035
:104DF0006878FCF790FA30E06878012808D1834A97
:104E0000506800280FD00421506800F0B4FA0AE07E
:104E10006878022807D17D4A5068002803D0012114
:104E2000506800F0A8FA18E068787949C87014E072
:104E30006878012802D1FCF79CFB04E0687802281E
:104E400001D1FEF73DFF08E06878FCF79AFB04E02B
:104E500068786F49887000E0FFE7684602210170BA
:104E6000401C40210170401C67490A790270401CB7
:104E700002220270401C2A780270461C28784228C0
:104E80001AD0492813D04C2808D04D280AD05328CE
:104E900004D0552802D0AA2813D026E00120307073
:104EA000761C22E0FCF770FB3070761C1DE0584841
:104EB00080783070761C18E05548C0783070761CC9
:104EC00013E00A208DF8030008793070761C00206A
:104ED00006E050490200D2B2895C3170761C401C59
:104EE0000100C9B20829F4DBFFE7751C6846281ADF
:104EF000811EC9B20DF1010000F057F93070032096
:104F000028700420FCF70DFF68462D1A6D1C2A003E
:104F10006946200023685B68984720B070BD7047E1
:104F200070B5C0B004001000C0B200282CD1684693
:104F300002210170401C43210170401C3249097953
:104F40000170401C80210170451C802232492800DC
:104F5000FDF7E9F980356E1C6846301A811EC9B22A
:104F60000DF1010000F021F92870032030700420B9
:104F7000FCF7D7FE6846361A761C320069462000D8
:104F800023685B68984703E0D2B22348FDF7CBF96A
:104F900040B070BD70B5C0B004001000C0B20028B1
:104FA0002CD1684602210170401C44210170401C34
:104FB000154909790170401C80210170451C80222F
:104FC00016492800FDF7AFF980356E1C6846301A87
:104FD000811EC9B20DF1010000F0E7F8287003202E
:104FE00030700420FCF79DFE6846361A761C3200AD
:104FF0006946200023685B68984703E0D2B20748FF
:10500000FDF791F940B070BD0C040020481C002051
:10501000541C002000040008581C0020D81C00204C
:1050200080B5FEF756FE01BD80B5202080F31188C3
:10503000FDF7ADF901BD80B5FDF7AEF9002080F3B5
:10504000118801BD0060704780B5FFF7EDFF01BD1D
:1050500080B5FFF7F0FF01BD80B5FFF7F3FF01BD9D
:1050600080B500F073F901BD80B55FF0FF333030DB
:1050700000F067FB02BD80B55FF0FF330C3000F03D
:10508000CCFA02BD80B55FF0FF32C9B2303000F01B
:1050900009FB02BD80B55FF0FF310C3000F092FAE1
:1050A00002BD80B5C9B2303000F0FCFA02BD80B557
:1050B0000C3000F087FA02BD80B5303000F041FBC3
:1050C00002BD80B50C3000F0A8FA02BD002902D064
:1050D000012901D100E0FFE70020704780B500F012
:1050E00043FC01BD7CB504000D0016000C48206097
:1050F000201DFFF7B1FF0120207200942B008022B9
:1051000014F1540114F10C0000F021FA0094330062
:10511000802214F1D40114F1300000F0ACFA73BD18
:10512000A86E000838B504000D00FFF78DFF2900B8
:10513000200000F024FC02202072FFF789FF31BD1F
:1051400038B504000D006069002803D10421201D3A
:10515000FFF786FF2900C9B214F10C0000F00FFA26
:10516000002804D54FF48061201DFFF779FF31BD81
:1051700080B5202080F31188FDF709F901BD6A4848
:105180008069704780B5FFF7FAFF90F82100C0B240
:10519000800810F0010002BD80B5002100F0D6F8B3
:1051A00001BD80B5FCF7BDFD01BD30B4020000209B
:1051B000002404E02300DBB2D35C1818641C230035
:1051C0000D00DBB2EDB2AB42F4D3C0B230BC7047DD
:1051D0002DE9F04104000D00160098460027B8F1B3
:1051E0000301C9B2701CFFF7E0FF5FFA88F806EB15
:1051F000080111F8021CC0B2C9B2884201D00020D7
:105200001EE0069900E008346068002816D0707827
:1052100010F07F002278C0B28242F4D10800C0B200
:10522000FF2804D00800B278C0B29042EBD1F278E7
:10523000311D280063689847012001E03800C0B2A2
:10524000BDE8F0812DE9F8430C0015000668270041
:105250005FF0000800208DF800005FF0000907E013
:10526000B8F5807F04D15FF000095FF000082700E7
:1052700001226946300033689B689847002815D0A2
:105280004846C0B2002814D09DF8000038707F1C3A
:1052900018F10108B8F1040FE2D3E078801D8045D1
:1052A000DED1A5F800800020002000E00120BDE84C
:1052B000F2839DF800000228DAD15FF001095FF067
:1052C00001089DF8000038707F1CD1E7F8B5ADF5F6
:1052D000027D04002568A668277902E01420FFF704
:1052E00060FFFFF74FFF002812D101AA02A920009A
:1052F000FFF7A8FF0028F1D13800C0B20090BDF838
:105300000430DBB202AA29003000FFF761FFE8E7B2
:10531000FFF72EFF0548FFF73FFF0020FCF7DDFCFD
:105320000DF5037DF0BD0000B804002078100020CA
:1053300080B5202080F31188FDF729F801BD80B5E4
:10534000FDF72AF8002080F3118801BD70B5050033
:105350000C002E680CE0F0682043F060002C02D0B6
:105360003069044203D0B168706800F012F8366802
:10537000AE42F0D170BD38B504000D00FFF7D8FF84
:105380002900200000F005F8FDF7DAF9FFF7D7FF54
:1053900031BD80B5426B1143416390F820100A295A
:1053A00003D1416B426A114209D190F820100B29B8
:1053B00009D1426B416A0A40416A8A4203D1002105
:1053C0004162FDF70EF901BDF8B506000D00114868
:1053D0008769FFF7ADFF7C6B3440002C13D1002DA3
:1053E00003D1FFF7ACFF002013E07E6229000A2002
:1053F000FDF75EF9002803D5FFF7A1FF002008E0C4
:10540000786B06403400786BA0437863FFF797FF12
:105410002000F2BDB804002000604060704780B5F5
:10542000202080F31188FCF7B2FF01BD80B5FCF7A6
:10543000B3FF002080F3118801BD80B5FFF7ECFFBA
:1054400001BD80B5FFF7EBFF01BD80B5FFF7EEFFB3
:1054500001BD80B5FFF7F1FF01BD80B5FCF788FC09
:1054600002BD80B5FCF79CFC01BD2DE9F0410400B4
:105470000E001500A068A84200D2A5682069A7699F
:10548000C71BBD4208D22A00A1693000FDF7A8FB66
:10549000A0692844A06119E0AF4210D23A00A16986
:1054A000B0464046FDF79CFB3E44EF1B3A00E168E6
:1054B0003000FDF795FBE0683844A06106E02A0063
:1054C000A1693000FDF78CFBE068A061A068401B7B
:1054D000A0602800BDE8F0812DE9F04104000E0035
:1054E0001500A068A84200D2A56820696769C71B9B
:1054F000BD4209D22A00676931003800FDF770FB10
:105500006069284460611CE0AF4212D23A00310069
:10551000D4F814804046FDF763FB06EB0701EF1B50
:105520003A00E6683000FDF75BFBE06838446061F4
:1055300007E02A00676931003800FDF751FBE06899
:105540006061A068401BA0602800BDE8F0812DE9E3
:10555000F04104000D0016001F00DDF81880200047
:10556000FFF777FF0020A060E560A561656105EBAE
:1055700006002061E761C4F82080BDE8F08180B5B5
:10558000426983699A4204D18268002A01D00122CB
:1055900000E00022D2B2002A11D18268521C82603F
:1055A0004269531C4361117041690269914201D300
:1055B000C16841610021FFF754FF002001E05FF066
:1055C000FF3002BD70B504000D00FFF73AFFA06880
:1055D00000280AD129002000FFF73FFF0600002E17
:1055E000F5D5FFF732FF300016E0A068401EA0603E
:1055F000A069411CA1610578A0692169884201D395
:10560000E068A061E069002802D02000E1698847D5
:10561000FFF71BFFEDB2280070BD2DE9F047060033
:105620000F0014009846D6F81CA0A146FFF709FF0A
:105630000AE05046002801D03000D047FFF705FFB0
:10564000641B2F44FFF7FDFE002C0DD02200390013
:105650003000FFF70AFF0500002DEAD14146300077
:10566000FFF7FBFE0028EFD0FFF7EFFEB9EB0404D5
:105670002000BDE8F0872DE9F04104000D00160080
:105680001F00DDF818802000FFF7E3FEA660E5604C
:10569000A561656105EB06002061E761C4F8208023
:1056A000BDE8F081F8B504000D001600FFF7C9FE53
:1056B000A06800280AD131002000FFF7CEFE0700C5
:1056C000002FF5D5FFF7C1FE380015E0A068401E99
:1056D000A0606069411C6161057060692169884250
:1056E00001D3E0686061E069002802D02000E16930
:1056F0008847FFF7AAFE0020F2BD10B54169826914
:10570000914204D18168002901D0012100E00021EB
:10571000C9B2002912D18168491C816081694A1C83
:1057200082610C7881690269914201D3C16881610B
:105730000021FFF796FEE4B2200001E05FF0FF30A9
:1057400010BD2DE9F04706000F0014009846D6F86A
:105750001CA0A146FFF775FE0AE05046002801D0C4
:105760003000D047FFF771FE641B2F44FFF769FE3E
:10577000002C0DD0220039003000FFF7ADFE0500EF
:10578000002DEAD141463000FFF767FE0028EFD038
:10579000FFF75BFEB9EB04042000BDE8F0870000D2
:1057A00080B5202080F31188FCF7FBFD01BD80B59A
:1057B000FCF7FCFD002080F3118801BD80B5FFF7E8
:1057C000EFFF01BD80B5FFF7F2FF01BD80B5FFF728
:1057D000BDFD01BD10B4D0F85421D0F85431754C42
:1057E000A34204D1744B0C68B3FBF4F303E0734B96
:1057F0000C68B3FBF4F38C88240405D5DC08E400C2
:1058000013F0070353EA44039360CB8853F040033B
:1058100013610B8953F0010353618B8843F40453E4
:1058200053F02C03D36000231360136852688988F7
:1058300011F4A051B1F5806F03D17F2180F8581188
:1058400002E0FF2180F8581110BC704780B500229B
:105850000B0701D552F08002CB0701D552F0200290
:105860008B0701D552F04002490701D552F48072EE
:105870001100001DFFF7AAFF01BDF8B50400D4F820
:105880005451EE682F68F8050BD5FFF797FF4FF4DA
:105890000071201DFFF79AFF7FF480702860FFF7EA
:1058A00091FFFFF78BFF13E0380010F00F0F04D0CB
:1058B000390089B22000FFF7C9FF696894F85801E0
:1058C0000140B80603D5C9B22000FFF739FC2F68A4
:1058D000380010F02F0FE7D1FFF774FF700616D5D0
:1058E000380614D5FFF76AFF14F13000FFF705FF03
:1058F000002809D50821201DFFF768FF300080B27D
:1059000030F04000E86000E06860FFF75BFF3006C1
:105910001AD5380618D5FFF751FF606CA16C884284
:1059200004D1A06B002801D0012000E00020C0B20B
:10593000002807D01021201DFFF748FFB6B236F02F
:105940008006EE60FFF73EFFF1BD1D48016851F093
:10595000C0010160704780B5FCF7FDFC1948FFF7F6
:105960008CFFFDF797FF01BD10B5164C164A0021BC
:105970002000FFF7B7FB0F48C4F8540110BD38B53D
:1059800005000C00002C00D1104C287A01280CD105
:105990000C48A84209D10E48016851F480410160C9
:1059A00000680C212520FEF75FF921002800FFF791
:1059B00011FF31BD0038014000A24A040051250208
:1059C0000C380140BC1900204B590008946F0008A6
:1059D0001810024080B5202080F31188FCF7E1FC0C
:1059E00001BD80B5FCF7E2FC002080F3118801BD09
:1059F00080B5FFF7EFFF01BD80B5FFF7F2FF01BDF6
:105A000001000878491C097850EA012080B27047EB
:105A100010B5040094F8760084F87E00200000F0B1
:105A2000ABFC60680068002804D001212000626897
:105A3000126890470320207010BD38B5040094F818
:105A4000740010F07F0094F8751050EA01200028CF
:105A50002AD0012800F0B980022800F0BE80B0F5FD
:105A6000807F2AD0B0F5817F00F0F780B0F5407FCD
:105A700038D040F20231884200F01581B0F5A06FB5
:105A800044D0B0F5C06F4AD040F20161884246D0A0
:105A9000B0F5006F5DD0B0F5106F63D040F60241F5
:105AA000884200F0928024E114F17C00A06602207C
:105AB000E0660020206701201CE194F876000128B0
:105AC0000ED1B4F87C104FF6FD700140A4F87C10A4
:105AD0000020A0660020E06600202067012009E188
:105AE000002007E194F8760001280DD1B4F87C007D
:105AF00050F00200A4F87C000020A0660020E066C0
:105B0000002020670120F5E00020F3E00020A066DF
:105B10000020E066DFF88C0220670120EAE014F143
:105B20007800FFF76DFF03009BB294F8762094F89D
:105B30007710200065686D68A847002801D1002013
:105B4000D8E04168A1660068E06600202067012077
:105B5000D0E014F17F00A0660120E06600202067FD
:105B60000120C7E02078042814D1FFF741FF20006E
:105B700000F0DBF8FFF740FF002084F87F000320EF
:105B8000207060680068002804D00321200062684B
:105B90001268904794F8760000280ED094F87600AA
:105BA00084F87F000420207060680068002804D01A
:105BB000022120006268126890470020A066002041
:105BC000E06600202067012094E07748A06602206C
:105BD000E0660020206701208CE094F87800000641
:105BE0001DD594F8781011F00F01200000F077FC1B
:105BF000012802D0022808D00FE06C48A0660220DD
:105C0000E06600202067012074E06948A066022059
:105C1000E0660020206701206CE000206AE094F834
:105C2000781011F00F01200000F047FC012802D08D
:105C3000022808D00FE05D48A0660220E066002040
:105C40002067012056E05A48A0660220E066002046
:105C5000206701204EE000204CE094F876000028F8
:105C600001D0002046E094F8780010F00F0F12D019
:105C700094F87800000607D594F8781011F00F0119
:105C8000200000F0EAFC06E094F8781011F00F0113
:105C9000200000F0CAFC0020A0660020E066002082
:105CA0002067012026E094F87600002801D000202B
:105CB00020E094F8780010F00F0F12D094F87800DC
:105CC000000607D594F8781011F00F01200000F0BD
:105CD0009BFC06E094F8781011F00F01200000F012
:105CE00082FC0020A0660020E066002020670120E2
:105CF00000E0002032BD80B500F014FB01BD0121A1
