:020000040800F2
:1000000000040020A15F00082B4000082B400008DE
:100010002B4000082B4000082B4000082B40000814
:100020002B4000082B4000082B4000084F3D0008E3
:100030002B4000082B4000082B4000082B400008F4
:100040002B4000082B4000082B4000082B400008E4
:100050002B4000082B400008815A0008AF5A0008C6
:10006000DD5A00080B5B0008395B0008194B0008DB
:100070002B4B00083D4B00084F4B0008614B00081C
:10008000734B0008854B00082B4000082B400008EC
:100090004B5600082B4000082B400008675B000807
:1000A0002B400008E95E00082B4000082B400008A8
:1000B000554A0008FB5E00082B4000082B40000852
:1000C0002B4000082B4000082B4000082B40000864
:1000D0002B400008573100082B4000082B40000837
:1000E000DD5B00082B4000082B4000082B40000877
:1000F0002B4000082B4000082B4000082B40000834
:100100002B4000082B4000082B4000082B40000823
:100110002B4000082B4000082B4000082B40000813
:10012000974B0008A94B0008BB4B0008CD4B0008BB
:100130002B4000082B4000082B4000082B400008F3
:100140002B4000082B4000082B4000082B400008E3
:100150002B4000082B4000082B4000082B400008D3
:100160002B4000082B4000082B4000082B400008C3
:100170002B4000082B4000082B4000082B400008B3
:10018000DFF8E80C012181700021C170AA214170C3
:10019000704770B500230422DFF8D01C0800441C0F
:1001A000012503E02078C318641C6D1C280016008C
:1001B000C0B2F6B2B042F5D30B70D2B2002001F05B
:1001C00095F870BD70B50425DFF8A04C2A0092B2F6
:1001D0002100002001F07CF800212000421C0123B6
:1001E00003E010784118521C5B1C1800C0B22E00AE
:1001F00080B2B6B2B042F4D32078C9B2814202D103
:100200006078AA2803D0FFF7BBFFFFF7C2FF70BDDD
:1002100038B5FFF7D7FF0021DFF8542C1068C0F382
:100220008010002801D151F001011068C0F30020B6
:10023000002801D151F002011068C0F3C01000285D
:1002400001D151F004011068C0F34020002801D111
:1002500051F008010800C0B2002806D1DFF80C0CEC
:100260008078DFF8101C087102E0DFF8080C0171DB
:10027000DFF8044CDFF8FC5B6560DFF8F00BC0785A
:10028000002806D0022810D009D3042819D012D390
:100290001DE04FF41650DFF8F41C08601CE04FF42A
:1002A0009640DFF8E81C086016E04FF41640DFF8CF
:1002B000DC1C086010E04FF46140DFF8D01C0860DF
:1002C0000AE05FF4E130DFF8C41C086004E04FF49A
:1002D0001650DFF8B81C0860DFF8B01CDFF8B00C6F
:1002E00001F0F6F80095DFF8AC3C81224FF45C7128
:1002F000DFF8A40C01F0B5F9206031BD704770B58E
:10030000A0B00400D2B2002A31D1684600210221F7
:100310000170401C41210170401CDFF8581B097915
:100320000170401CFF210170451C280002F0B0F94B
:100330008DF80300C0B205446846281A801E6E1C62
:100340006846301A811EC9B20DF1010002F047FA69
:10035000287003203070042001F0DAF96846361A5C
:10036000761C32006946200023685B68984720B0FD
:1003700070BD70B5C0B004000800D2B2012A36D1F9
:100380006946002202220A70491C42220A70491C56
:10039000DFF8E02A12790A70491CFF220A70491C12
:1003A00002780A704D1C2900007802F0A3F9411C64
:1003B0008DF80310C0B205446846281A801E6E1CD2
:1003C0006846301A811EC9B20DF1010002F007FA29
:1003D000287003203070042001F09AF96846361A1C
:1003E000761C32006946200023685B68984740B05D
:1003F00070BDF8B590B004000D0016003000C0B21A
:10040000022812D12878FF280BD100273800C0B26B
:1004100010280ADA69783800C0B201F09AFD7F1C12
:10042000F4E76978287801F094FD3000C0B2012823
:1004300002D0F6B2022E44D1684602210170401C5F
:1004400010210170401CDFF82C1A09790170401C42
:100450002978FF2912D111210170401CFF21017060
:10046000451C00263000C0B2102812DA3000C0B29D
:1004700001F092FD28706D1C761CF3E702210170DB
:10048000401C29780170461C287801F085FD3070E9
:10049000751C6E1C6846301A811EC9B20DF1010030
:1004A00002F09DF9287003203070042001F030F92B
:1004B0006846361A761C32006946200023685B685D
:1004C000984711B0F0BDF8B590B004000D001600CB
:1004D0003000C0B2022812D12878FF280BD10027A3
:1004E0003800C0B210280ADA69783800C0B201F0CA
:1004F000EBFC7F1CF4E76978287801F0E5FC30001C
:10050000C0B2012802D0F6B2022E44D168460221C0
:100510000170401C11210170401CDFF85819097945
:100520000170401C2978FF2912D111210170401C53
:10053000FF210170451C00263000C0B2102812DADD
:100540003000C0B201F0E4FC28706D1C761CF3E7AB
:1005500002210170401C29780170461C287801F0A6
:10056000D7FC3070751C6E1C6846301A811EC9B2EB
:100570000DF1010002F033F92870032030700420DF
:1005800001F0C6F86846361A761C3200694620002B
:1005900023685B68984711B0F0BDF8B590B00400CF
:1005A0000D0016003000C0B2022812D12878FF28B2
:1005B0000BD100273800C0B210280ADA6978380059
:1005C000C0B201F009FD7F1CF4E76978287801F0DA
:1005D00003FD3000C0B2012802D0F6B2022E44D191
:1005E000684602210170401C12210170401CDFF896
:1005F0007C1C09790170401C2978FF2912D1112136
:100600000170401CFF210170451C00263000C0B263
:10061000102812DA3000C0B201F001FD28706D1C04
:10062000761CF3E702210170401C29780170461CFA
:10063000287801F0F4FC3070751C6E1C6846301A86
:10064000811EC9B20DF1010002F0C9F82870032023
:100650003070042001F05CF86846361A761C3200CF
:100660006946200023685B68984711B0F0BDF8B573
:1006700090B004000D0016003000C0B2022812D164
:100680002878FF280BD100273800C0B210280ADADA
:1006900069783800C0B201F0E2FC7F1CF4E76978A9
:1006A000287801F0DCFC3000C0B2012802D0F6B29C
:1006B000022E44D1684602210170401C13210170B2
:1006C000401CDFF8A81B09790170401C2978FF291C
:1006D00012D111210170401CFF210170451C002620
:1006E0003000C0B2102812DA3000C0B201F0DAFCDB
:1006F00028706D1C761CF3E702210170401C2978DC
:100700000170461C287801F0CDFC3070751C6E1C01
:100710006846301A811EC9B20DF1010002F05FF87F
:10072000287003203070042000F0F2FF6846361A6B
:10073000761C32006946200023685B68984711B038
:10074000F0BDF8B590B004000D0016003000C0B246
:10075000022812D12878FF280BD100273800C0B218
:1007600010280ADA69783800C0B201F0BBFC7F1C9F
:10077000F4E76978287801F0B5FC3000C0B20128B0
:1007800002D0F6B2022E44D1684602210170401C0C
:1007900014210170401CDFF8D41A09790170401C43
:1007A0002978FF2912D111210170401CFF2101700D
:1007B000451C00263000C0B2102812DA3000C0B24A
:1007C00001F0B3FC28706D1C761CF3E70221017068
:1007D000401C29780170461C287801F0A6FC307076
:1007E000751C6E1C6846301A811EC9B20DF10100DD
:1007F00001F0F5FF287003203070042000F088FF1E
:100800006846361A761C32006946200023685B6809
:10081000984711B0F0BDF8B590B004000D00160077
:100820003000C0B2022812D12878FF280BD100274F
:100830003800C0B210280ADA69783800C0B201F076
:10084000D6FC7F1CF4E76978287801F0D0FC3000F2
:10085000C0B2012802D0F6B2022E44D1684602216D
:100860000170401C15210170401CDFF8001A097945
:100870000170401C2978FF2912D111210170401C00
:10088000FF210170451C00263000C0B2102812DA8A
:100890003000C0B201F0DEFC28706D1C761CF3E75E
:1008A00002210170401C29780170461C287801F053
:1008B000D1FC3070751C6E1C6846301A811EC9B29E
:1008C0000DF1010001F08BFF28700320307004202F
:1008D00000F01EFF6846361A761C3200694620007A
:1008E00023685B68984711B0F0BDF8B590B004007C
:1008F0000D0016003000C0B2022812D12878FF285F
:100900000BD100273800C0B210280ADA6978380005
:10091000C0B201F0CFFC7F1CF4E76978287801F0C1
:10092000C9FC3000C0B2012802D0F6B2022E44D178
:10093000684602210170401C16210170401CDFF83E
:100940002C1909790170401C2978FF2912D1112135
:100950000170401CFF210170451C00263000C0B210
:10096000102812DA3000C0B201F0C4FC28706D1CEF
:10097000761CF3E702210170401C29780170461CA7
:10098000287801F0B7FC3070751C6E1C6846301A70
:10099000811EC9B20DF1010001F021FF2870032072
:1009A0003070042000F0B4FE6846361A761C32001F
:1009B0006946200023685B68984711B0F0BDF8B520
:1009C00090B004000D0016003000C0B2022812D111
:1009D0002878FF280BD100273800C0B210280ADA87
:1009E00069783800C0B201F0C0FB7F1CF4E7697879
:1009F000287801F0BAFB3000C0B2012802D0F6B26C
:100A0000022E44D1684602210170401C172101705A
:100A1000401CDFF8581809790170401C2978FF291B
:100A200012D111210170401CFF210170451C0026CC
:100A30003000C0B2102812DA3000C0B201F0B6FBAC
:100A400028706D1C761CF3E702210170401C297888
:100A50000170461C287801F0A9FB3070751C6E1CD3
:100A60006846301A811EC9B20DF1010001F0B7FECF
:100A7000287003203070042000F04AFE6846361AC1
:100A8000761C32006946200023685B68984711B0E5
:100A9000F0BD70B590B004000D0016003000C0B27B
:100AA000022802D1687801F0D1FC3000C0B20128E0
:100AB00002D0F6B2022E41D1684602210170401CDC
:100AC00018210170401CDFF8A41709790170401C3F
:100AD0002978FF2910D111210170401CFF210170DC
:100AE000451C00263000C0B210280FDA01F0DAFCF5
:100AF00028706D1C761CF5E702210170401C2978D6
:100B00000170451C01F0CEFC28706D1C6E1C6846FF
:100B1000301A811EC9B20DF1010001F060FE28708B
:100B200003203070042000F0F3FD6846361A761C6E
:100B300032006946200023685B68984710B070BD9A
:100B400070B590B004000D0016003000C0B202284D
:100B500002D1687801F0BAFC3000C0B2012802D09E
:100B6000F6B2022E41D1684602210170401C1921C3
:100B70000170401CDFF8F41609790170401C2978D7
:100B8000FF2910D111210170401CFF210170451C6B
:100B900000263000C0B210280FDA01F0C5FC287022
:100BA0006D1C761CF5E702210170401C297801704C
:100BB000451C01F0B9FC28706D1C6E1C6846301A8B
:100BC000811EC9B20DF1010001F009FE2870032059
:100BD0003070042000F09CFD6846361A761C320006
:100BE0006946200023685B68984710B070BDF8B56F
:100BF00090B004000D0016003000C0B2022812D1DF
:100C00002878FF280BD100273800C0B204280ADA60
:100C100069783800C0B201F0A9FC7F1CF4E769785C
:100C2000287801F0A3FC3000C0B2012802D0F6B24F
:100C3000022E44D1684602210170401C1A21017025
:100C4000401CDFF8281609790170401C2978FF291B
:100C500012D105210170401CFF210170451C0026A6
:100C60003000C0B2042812DA3000C0B201F0A3FC98
:100C700028706D1C761CF3E702210170401C297856
:100C80000170461C287801F096FC3070751C6E1CB3
:100C90006846301A811EC9B20DF1010001F09FFDB6
:100CA000287003203070042000F032FD6846361AA8
:100CB000761C32006946200023685B68984711B0B3
:100CC000F0BDF8B590B004000D0016003000C0B2C1
:100CD000022812D12878FF280BD100273800C0B293
:100CE00004280ADA69783800C0B201F070FC7F1C71
:100CF000F4E76978287801F06AFC3000C0B2012876
:100D000002D0F6B2022E44D1684602210170401C86
:100D100018210170401CDFF8541509790170401C3E
:100D20002978FF2912D105210170401CFF21017093
:100D3000451C00263000C0B2042812DA3000C0B2D0
:100D400001F06AFC28706D1C761CF3E7022101702B
:100D5000401C29780170461C287801F05DFC307039
:100D6000751C6E1C6846301A811EC9B20DF1010057
:100D700001F035FD287003203070042000F0C8FC1D
:100D80006846361A761C32006946200023685B6884
:100D9000984711B0F0BDF8B590B004000D001600F2
:100DA0003000C0B2022812D12878FF280BD10027CA
:100DB0003800C0B204280ADA69783800C0B201F0FD
:100DC00037FC7F1CF4E76978287801F031FC3000AB
:100DD000C0B2012802D0F6B2022E44D168460221E8
:100DE0000170401C18210170401CDFF88014097943
:100DF0000170401C2978FF2912D105210170401C87
:100E0000FF210170451C00263000C0B2042812DA10
:100E10003000C0B201F030FC28706D1C761CF3E786
:100E200002210170401C29780170461C287801F0CD
:100E300023FC3070751C6E1C6846301A811EC9B2C6
:100E40000DF1010001F0CBFC28700320307004206C
:100E500000F05EFC6846361A761C320069462000B7
:100E600023685B68984711B0F0BD00005016002061
:100E7000080C01400C040020481600202DE9F8431E
:100E8000A0B004000F003E787D78D2B2921E0220FE
:100E900092FBF0F83878FF2800D100265FF00009B7
:100EA00014E04846C0B207EB400082784846C0B222
:100EB00007EB4000C07852EA002292B2797819EB31
:100EC0000600C0B200F06FFE19F101094846414624
:100ED000C0B2C9B28842E4D3684602210170401C06
:100EE00020210170401CDFF8841309790170401C37
:100EF0003100C9B2FF291AD122210170401CFF2103
:100F00000170401C0570461C00273800C0B2102834
:100F100020DA2900C9B23800C0B200F0A1FE30705A
:100F2000711C80B2000A08704E1C7F1CEDE7042182
:100F30000170401C0670401C0570471C2900C9B296
:100F40003000C0B200F08CFE3870791C80B2000A0C
:100F500008704E1C751C6846281A811EC9B20DF116
:100F6000010001F03CFC307003202870042000F0E8
:100F7000CFFB68462D1A6D1C2A00694620002368A5
:100F80005B68984721B0BDE8F083000000040020B2
:100F9000BC1300200129000808070020F8B5A0B004
:100FA00004000E784D788878C97850EA0120D2B2D2
:100FB000042A07D1020092B22900C9B23000C0B29F
:100FC00000F078FE684602210170401C212101706A
:100FD000401CA64909790170401C3100C9B2FF29A3
:100FE0001AD122210170401CFF210170401C0570A4
:100FF000461C00273800C0B2102820DA2900C9B2E8
:101000003800C0B200F0B1FE3070711C80B2000A2E
:1010100008704E1C7F1CEDE704210170401C067017
:10102000401C0570471C2900C9B23000C0B200F056
:101030009CFE3870791C80B2000A08704E1C751C2A
:101040006846281A811EC9B20DF1010001F0C7FBE4
:10105000307003202870042000F05AFB68462D1AD7
:101060006D1C2A006946200023685B68984721B000
:10107000F0BDF8B5A0B004000E784D788878C97836
:1010800050EA0120D2B2042A07D1020092B229000C
:10109000C9B23000C0B200F090FE68460221017073
:1010A000401C22210170401C704909790170401CCC
:1010B0003100C9B2FF291AD122210170401CFF2141
:1010C0000170401C0570461C00273800C0B2102873
:1010D00020DA2900C9B23800C0B200F0CBFE30706F
:1010E000711C80B2000A08704E1C7F1CEDE70421C1
:1010F0000170401C0670401C0570471C2900C9B2D5
:101100003000C0B200F0B6FE3870791C80B2000A20
:1011100008704E1C751C6846281A811EC9B20DF154
:10112000010001F05CFB307003202870042000F007
:10113000EFFA68462D1A6D1C2A00694620002368C4
:101140005B68984721B0F0BD70B5A0B004000D00F9
:10115000D2B2022A38D1287842281CD049282ED071
:101160004C281CD04D2826D0532808D0552802D012
:10117000AA2828D028E0687801F013F924E06878DC
:10118000012802D101F0E8F904E06878022801D1D1
:10119000FEF7FFFF18E068783549C87014E06878FA
:1011A000012802D101F0D4F904E06878022801D1C5
:1011B000FEF7E6FF08E0687801F0D2F904E068780D
:1011C0002B49887000E0FFE7684602210170401C4F
:1011D00040210170401C25490A790270401C0222FE
:1011E0000270401C2A780270461C287842281AD0C7
:1011F000492813D04C2808D04D280AD0532804D0B1
:10120000552802D0AA2813D016E001203070761C91
:1012100012E001F0A8F93070761C0DE014488078D7
:101220003070761C08E01248C0783070761C03E0FD
:1012300008793070761CFFE7751C6846281A811EF5
:10124000C9B20DF1010001F0CAFA30700320287014
:10125000042000F05DFA68462D1A6D1C2A006946CC
:10126000200023685B68984720B070BD0C04002004
:101270005016002080B5202080F3118801F09BFBE0
:1012800001BD80B501F09CFB002080F3118801BDF9
:1012900010B54FF48062C0B24FF400644C4B04FBB5
:1012A000003001F0BBFB10BD38B504000D00FFF7A6
:1012B000E1FF4FF480622900E4B24FF40063444838
:1012C00003FB0404200001F0BFFBFFF7DAFF31BD90
:1012D00080B592B2022392FBF3F200F1006010F5A8
:1012E000E04001F09BFB7FF0010002BD2DE9F84FCB
:1012F000ADF5006D13009BB213FA80F403009BB2AE
:101300004FF4006593FBF5F8E40A641C1500070030
:1013100000264046C0B2002806D0BFB24246D2B234
:101320004FF4006000FB127789462BE0AB4609E0E2
:10133000380080B2D0F50060290089B28842F5DA21
:10134000D7F5006B5A4692B2300080B209EB00012B
:1013500068463B009BB2184401F00BFC69464046CE
:10136000C0B2FFF7A1FF1BEB06061BEB0707380017
:1013700080B290FBFAF70AFB1707B5EB0B0B5D4643
:1013800018F1010840462100C0B2C9B2884218D203
:1013900069464046C0B2FFF77BFF380080B24FF489
:1013A000006A90FBFAF10AFB11000028C0D1280066
:1013B00080B240F60101884201DBD346C2E7AB466A
:1013C000C0E77FF001000DF5006D01B0BDE8F08FC2
:1013D0000070000880B5202080F3118801F0EBFA3E
:1013E00001BD80B501F0ECFA002080F3118801BD49
:1013F0000060704780B5FFF7EDFF01BD80B5FFF7D6
:10140000F0FF01BD80B5FFF7F3FF01BD80B501F02E
:10141000D3FB01BD80B55FF0FF33303001F091FDAB
:1014200002BD80B55FF0FF330C3001F0F6FC02BD69
:1014300080B55FF0FF32C9B2303001F033FD02BD3C
:1014400080B55FF0FF310C3001F0BCFC02BD80B50F
:10145000C9B2303001F026FD02BD80B50C3001F07C
:10146000B1FC02BD80B5303001F06BFD02BD80B52E
:101470000C3001F0D2FC02BD002902D0012901D1BB
:1014800000E0FFE70020704780B501F06DFE01BD70
:101490007CB504000D0016000C482060201DFFF7ED
:1014A000B1FF0120207200942B00802214F154011E
:1014B00014F10C0001F04BFC00943300802214F175
:1014C000D40114F1300001F0D6FC73BD2062000895
:1014D00038B504000D00FFF78DFF2900200001F052
:1014E0004EFE02202072FFF789FF31BD38B504009F
:1014F0000D006069002803D10421201DFFF786FF3D
:101500002900C9B214F10C0001F039FC002804D5FF
:101510004FF48061201DFFF779FF31BD00607047F7
:101520000168814201D0012000E00020C0B2704774
:101530000060406070470168814201D0012000E0F6
:101540000020C0B270470100086802680A60704756
:1015500001604A684260426810604860704701005C
:10156000086802680A600A685160704780B52020E8
:1015700080F3118801F01FFA01BD80B501F020FA57
:10158000002080F3118801BDDFF8F4018069704705
:1015900080B50100082001F0C5FE01BD10B50C00AA
:1015A000FFF7DDFF446201F056FE10BD10B50400E8
:1015B000A260022084F82000002084F82100E26369
:1015C0000020A06300206063012084F82200A16154
:1015D000DFF8AC0120614169616161690C614461BE
:1015E00014F12800FFF79AFF14F12C00FFF7A0FF79
:1015F00014F1480001F072FF200010BD01E00270FC
:10160000401C8842FBD3704780B58168B1F160030C
:101610004168D961B3F16401D9600169DA68116484
:101620004169DA6851645749DA681166C26801682D
:101630001800FFF7BBFF02BD10B504005522A168DA
:101640006068FFF7DBFFFFF791FF2000FFF7DCFF8B
:1016500004000021200001F087FEFFF78EFF20002C
:1016600010BD2DE9F0410700884614001E00069DBC
:10167000552207EB08013800FFF7C0FFFFF776FFA0
:1016800007EB08006038C761B0F16401C160C16850
:101690000E64C1684D643B49C268116622003A4934
:1016A000FFF784FF04000021200001F05DFEFFF73A
:1016B00064FF2000BDE8F08110B50400FFF756FF7D
:1016C000200000F001F810BD10B52D498C69606252
:1016D00005E014F12800FFF736FF01F0BCFD14F11E
:1016E0002800FFF71DFF0028F3D194F822000028FE
:1016F0000AD194F8210010F0030F05D12069616927
:1017000008616069216948610F2001F0C4FD10BDC6
:1017100010B50400FFF72AFF2000FFF739FFFFF79D
:101720002CFF10BD38B505000C00FFF72DFF002C75
:1017300002D15FF0FF3005E0286045622100032000
:1017400001F0F0FD32BD80B50268002A06D00268C3
:10175000002303605162100001F07DFD01BD10B552
:101760000C00002C02D15FF0FF3008E001000448BB
:101770008069FFF7EDFE2100042001F0D3FD10BDCC
:10178000B8040020054000083463000838B50400A0
:101790000D002000FFF7CFFE002803D02900200015
:1017A000FFF7FCFE31BDF0B40246106895681318CF
:1017B000506803EB5004C0071DD54D441BE013F8DF
:1017C000017B05F8017B491EF9D1A0B1B60813F8D9
:1017D000011B06F00306032E08BF13F8016B01EB93
:1017E00006214942801C294405D011F8016B05F8F7
:1017F000016B401EF9D1A3420ED013F8016B16F015
:10180000030104BF13F8011BC91C30090F28DAD1EA
:1018100013F8010B0F30D6E7F0BC02F10C00704753
:1018200070B400202AE00622DFF8143C17240500DB
:10183000EDB2654355FA81F555431D444FF6FF76E9
:10184000A5F858604FF400450600F6B2664356FA14
:1018500081F656431E44A6F85A500600F6B204FB21
:1018600006F454FA81F402FB04F21A44A2F85C5024
:10187000491C0A00D2B2172AD5DB401C0100C9B2AC
:10188000102901DA0021F4E7DFF8B40B00218170A0
:101890000021C1700021017170BC7047F8B50020B3
:1018A00040F6F8021300DFF8F81B0C00641C641CFF
:1018B000012504E0267850FA86F0641C6D1C2E0089
:1018C0001F00B6B2BFB2BE42F4D308808020FFF73B
:1018D0000DFDF1BD70B540F6F804DFF8C45B2200E1
:1018E00092B229008020FFF7F3FC00202900491C58
:1018F000491C012204E00B7850FA83F0491C521C69
:10190000130026009BB2B6B2B342F4D3298880B24A
:10191000884203D0FFF784FFFFF7C0FF70BD2DE9B9
:10192000F041FFF7D7FF2020DFF8181B0860642084
:10193000FFF7EEFE2020DFF8101B086000200024D7
:1019400047E0DFF8083C2500EDB25020454303EBAB
:101950000500DFF8D03B1500EDB25B5D1B010344D1
:10196000DFF8DC5A1600F6B21720464316FA81F665
:101970000620464305EB060058309862521C1000C2
:10198000C0B20428DDDB5022DFF8C03B2000C0B22B
:10199000504318440021C1742000C0B25043184481
:1019A000012141742000C0B2504318440121017448
:1019B000DFF8141B2500EDB2282045432944200000
:1019C000C0B202FB00F203EB02000C3001F0BAFFE0
:1019D000641C2000C0B2042806DA2000C0B25C21DA
:1019E00010FB01F10022CAE7DFF8544A2079C00752
:1019F00035D5002520E0DFF8541B3200D2B250204C
:101A0000424301EB02003900C9B209010844816A6E
:101A10004246D2B20620424301EB02008288414690
:101A2000C9B22800C0B200F0BEF818F10108404663
:101A3000C0B21728DFDB6D1C2800C0B210280EDAF8
:101A40002800C0B2042190FBF1F62800C0B20421A6
:101A500090FBF1F701FB17075FF00008E7E720793B
:101A6000800735D5002520E0DFF8E01A3200D2B239
:101A70005020424301EB02003900C9B20901084479
:101A8000816A4246D2B20620424301EB02004288FC
:101A90004146C9B22800C0B200F08FF918F1010820
:101AA0004046C0B21728DFDB6D1C2800C0B21028EA
:101AB0000EDA2800C0B2042190FBF1F62800C0B273
:101AC000042190FBF1F701FB17075FF00008E7E73F
:101AD0002079400733D500251EE0DFF8701A320068
:101AE000D2B25020424301EB02003900C9B20901D1
:101AF0000844816A4246D2B2062042438A5A41468D
:101B0000C9B22800C0B200F0D5F818F1010840466B
:101B1000C0B21728E1DB6D1C2800C0B210280EDA15
:101B20002800C0B2042190FBF1F62800C0B20421C5
:101B300090FBF1F701FB17075FF00008E7E7A078DB
:101B400000F084FCE07800F0C1FC4FF47A70FFF7FD
:101B5000DFFD002417E02900C9B22000C0B200F068
:101B600051F92900C9B22000C0B200F041F82900A3
:101B7000C9B22000C0B200F0C2F86D1C2800C0B28B
:101B80001728E8DB641C2000C0B2102805DA20000A
:101B9000C0B200F006FC0025F0E70820DFF8501B7B
:101BA0000860BDE8F08138B50300DBB2102B1EDA07
:101BB0000300DBB2042493FBF4F4C0B2042390FBD3
:101BC000F3F503FB1500DFF85C39185C92B2009264
:101BD00003230A00D2B20100C9B2DFF87059E4B29F
:101BE0005020444305EB04000C3001F052FE31BD9F
:101BF0002DE9F0410C000100C9B2102901DB0020E1
:101C00002CE000210100C9B2042291FBF2F5C0B220
:101C1000042190FBF1F201FB1200DFF808190E5CC1
:101C20005027DFF8288903232200D2B23100C9B23D
:101C30002800C0B2784340440C3001F0CDFDEDB235
:101C40007D4308EB0500F6B231010844816AE4B235
:101C50000620444301EB0400808880B2BDE8F08197
:101C600010B40200D2B2102A01DB002020E00022D2
:101C70000200D2B2042392FBF3F2C0B2042390FB21
:101C8000F3F403FB1400DFF89C381B5CDFF8BC485E
:101C9000D2B25020424304EB0200DBB21A011044DE
:101CA000826AC9B20620414302EB0100808880B2FB
:101CB00010BC704738B50300DBB2102B1EDA0300EE
:101CC000DBB2042493FBF4F4C0B2042390FBF3F5DD
:101CD00003FB1500DFF84C38185C92B20092012328
:101CE0000A00D2B20100C9B2DFF86058E4B2502055
:101CF000444305EB04000C3001F0CBFD31BD2DE970
:101D0000F0410C000100C9B2102901DB00202AE0DB
:101D100000210100C9B2042291FBF2F5C0B20421F6
:101D200090FBF1F201FB1200DFF8F8170E5C502770
:101D3000DFF8188801232200D2B23100C9B228008E
:101D4000C0B2784340440C3001F046FDEDB27D4313
:101D500008EB0500F6B231010844816AE4B20620BE
:101D60004443085B80B2BDE8F08110B40200D2B2F7
:101D7000102A01DB00201EE000220200D2B2042360
:101D800092FBF3F2C0B2042390FBF3F403FB1400C4
:101D9000DFF890371B5CDFF8B447D2B250204243E3
:101DA00004EB0200DBB21A011044826AC9B20620B9
:101DB0004143505A80B210BC704738B50300DBB2C3
:101DC000102B1EDA0300DBB2042493FBF4F4C0B240
:101DD000042390FBF3F503FB1500DFF84837185C8C
:101DE00092B2009202230A00D2B20100C9B2DFF817
:101DF0005C57E4B25020444305EB04000C3001F082
:101E000048FD31BD2DE9F0410C000100C9B2102997
:101E100001DB00202CE000210100C9B2042291FB6B
:101E2000F2F5C0B2042190FBF1F201FB1200DFF8E1
:101E3000F4160E5C5027DFF8148702232200D2B27A
:101E40003100C9B22800C0B2784340440C3001F0E0
:101E5000C3FCEDB27D4308EB0500F6B23101084446
:101E6000816AE4B20620444301EB0400408880B25A
:101E7000BDE8F08110B40200D2B2102A01DB0020CC
:101E800020E000220200D2B2042392FBF3F2C0B29F
:101E9000042390FBF3F403FB1400DFF888361B5C8B
:101EA000DFF8DC48D2B25020424304EB0200DBB240
:101EB0001A011044826AC9B20620414302EB0100B4
:101EC000408880B210BC704738B50200D2B2102AE8
:101ED0001DDA0200D2B2042392FBF3F30200D2B265
:101EE000042492FBF4F504FB1522DFF83846A45CC9
:101EF000DFF88C58DBB25022534305EB0302E4B207
:101F000023011A4482F82010C0B200F04AFA31BD11
:101F10000100C9B2102901DBFF2019E00100C9B29C
:101F2000042291FBF2F1C0B2042290FBF2F302FB17
:101F30001300DFF8F025125CDFF84438C9B25020F6
:101F4000414303EB0100D2B21101084490F8200094
:101F5000704738B50200D2B2102A1CDA0200D2B2A1
:101F6000042392FBF3F30200D2B2042492FBF4F5B3
:101F700004FB1522DFF8AC45A45CDFF80458DBB2A3
:101F80005022534305EB0302E4B223011A441177B4
:101F9000C0B200F006FA31BD0100C9B2102901DB60
:101FA000FF2018E00100C9B2042291FBF2F1C0B297
:101FB000042290FBF2F302FB1300DFF86825125CA9
:101FC000DFF8BC37C9B25020414303EB0100D2B265
:101FD00011010844007F704738B50200D2B2102AC0
:101FE0001CDA0200D2B2042392FBF3F30200D2B255
:101FF000042492FBF4F504FB1522DFF82845A45CC9
:10200000DFF87C57DBB25022534305EB0302E4B206
:1020100023011A445177C0B200F0C3F931BD010069
:10202000C9B2102901DBFF2018E00100C9B2042267
:1020300091FBF2F1C0B2042290FBF2F302FB130019
:10204000DFF8E024125CDFF83837C9B25020414392
:1020500003EB0100D2B211010844407F704738B54C
:102060000200D2B2102A1CDA0200D2B2042392FB80
:10207000F3F30200D2B2042492FBF4F504FB152220
:10208000DFF8A044A45CDFF8F856DBB250225343DB
:1020900005EB0302E4B223011A449177C0B200F0C9
:1020A00080F931BD0100C9B2102901DBFF2018E021
:1020B0000100C9B2042291FBF2F1C0B2042290FBEC
:1020C000F2F302FB1300DFF85C24125CDFF8B03699
:1020D000C9B25020414303EB0100D2B211010844C0
:1020E000807F704738B50200D2B2102A1CDA020095
:1020F000D2B2042392FBF3F30200D2B2042492FB87
:10210000F4F504FB1522DFF81C44A45CDFF87056DC
:10211000DBB25022534305EB0302E4B223011A441D
:10212000D177C0B200F03DF931BD0100C9B210292C
:1021300001DBFF2018E00100C9B2042291FBF2F19B
:10214000C0B2042290FBF2F302FB1300DFF8D423A9
:10215000125CDFF82C36C9B25020414303EB01007A
:10216000D2B211010844C07F704710B40200D2B24D
:10217000102A19DA0200D2B2042392FBF3F2C0B2A1
:10218000042390FBF3F403FB1400DFF898331B5C8B
:10219000DFF8EC45D2B25020424304EB0200DBB240
:1021A0001A01104480F8211010BC70470100C9B218
:1021B000102901DBFF2019E00100C9B2042291FBC4
:1021C000F2F1C0B2042290FBF2F302FB1300DFF83D
:1021D0005423125CDFF8A835C9B25020414303EB09
:1021E0000100D2B21101084490F82100704730B4C8
:1021F0000200D2B2102A2BDA0200D2B2042392FBE0
:10220000F3F2C0B2042390FBF3F403FB1400C54BBC
:102210001B5C08060ED5DFF868451500EDB25020AE
:10222000454304EB05001C00E4B2240120440124D2
:1022300080F82240DFF84845D2B25020424304EBF8
:102240000200DBB21A01104411F0010180F82410E1
:1022500030BC704730B40100C9B2102901DBFF2047
:1022600026E00100C9B2042291FBF2F1C0B20422BF
:1022700090FBF2F302FB1300AA4A125C5023DFF832
:1022800000450800C0B2584320441500EDB22D01AE
:10229000284490F82400C9B259432144D2B2120113
:1022A000114491F82210002901D050F08000C0B2F2
:1022B00030BC704710B40200D2B2102A18DA020003
:1022C000D2B2042392FBF3F2C0B2042390FBF3F4E6
:1022D00003FB1400934B1B5CDFF8A444D2B25020E4
:1022E000424304EB0200DBB21A01104480F82410D0
:1022F00010BC70470100C9B2102901DBFF2018E0B3
:102300000100C9B2042291FBF2F1C0B2042290FB99
:10231000F2F302FB1300834A125CDFF86434C9B2A3
:102320005020414303EB0100D2B21101084490F860
:102330002300704710B4020008000023DFF8404477
:10234000D2B250214A4304EB02010200D2B2120180
:1023500011441C310122183012FA00F018430A7897
:1023600050EA42504A7850EAC2408A7850EAC23075
:10237000CA7850EA42300A7950EA02304A7950EA83
:1023800082208A7950EA4220CA7950EA02200A7AE9
:1023900050EAC2104A7A50EA821000224A7210BCF7
:1023A0007047F8B50100C9B2102947DA0100C9B277
:1023B000042291FBF2F3C0B2042190FBF1F201FB85
:1023C00012005849095C00225024DFF8B453180069
:1023D000C0B2604328440E00F6B23601304410F11A
:1023E0001C06012711F1180087403A43307852EA61
:1023F0004052707852EAC042B07852EAC032F07867
:1024000052EA4032307952EA0032707952EA802240
:10241000B07952EA4022F07952EA0022307A52EA48
:10242000C012707A52EA801200207072C9B2DBB218
:10243000634305EB03000C3001F0A7F9F1BD000088
:1024400054160020140C0140100C0140C0B20028AA
:1024500005D0022813D00AD3032818D01EE0DFF8D5
:1024600024034FF4007101608021016016E04FF4F5
:102470000070C54908608020C24908600EE04FF432
:102480000070C04908608020BF49086006E0BE486F
:102490004FF40071016080210160FFE77047000088
:1024A000541600200020B94A1168C1F340210029C8
:1024B00001D050F001001168C1F3C011002901D012
:1024C00050F00200C0B2704718040020C0B20028CB
:1024D00005D0022814D00AD303281AD021E0AC4832
:1024E0004FF4004101604FF40051016019E04FF4D6
:1024F0000040A84908604FF40050A549086010E06A
:102500004FF40040A24908604FF40050A149086010
:1025100007E0A0484FF4004101604FF40051016012
:10252000FFE770474063000800209B4A1168C1F331
:10253000C031002901D050F001001168C1F34031D1
:10254000002901D050F00200C0B270474C1F00209B
:1025500080B5FFF765F901BD80B5FFF79FF901BDB3
:102560008E49087170478D480079704770B5040036
:102570005025834E2000C0B268433044806930F457
:102580008050C9B2002901D050F4805001002000D1
:10259000C0B2684330440C3001F0AEF82000C0B245
:1025A00005FB00F506EB050080697C49E4B201EB10
:1025B0008401886070BD724AC0B250214843104403
:1025C0008069C0F3003010F00100C0B2704770B5F0
:1025D000040050256A4E2000C0B268433044806930
:1025E00030F40070C9B2002901D050F4007001002D
:1025F0002000C0B2684330440C3001F07DF8200068
:10260000C0B205FB00F506EB050080696349E4B242
:1026100001EB8401886070BD594AC0B25021484323
:1026200010448069C0F3402010F00100C0B2704730
:1026300070B504005025524E2000C0B268433044AB
:10264000806930F0C000C9B2890111F0C0010143B6
:102650002000C0B2684330440C3001F04DF8200037
:10266000C0B205FB00F506EB050080694B49E4B2FA
:1026700001EB8401886070BD414AC0B250214843DB
:102680001044007E10F0C000C0B28009C0B2704794
:102690007CB5040000200090002512E03100C9B292
:1026A0002800C0B2FFF746FE0090042269462000D1
:1026B00000F05FFA241D761C3000C0B20428EDDB68
:1026C0006D1C2800C0B204280FDA04222C492B000C
:1026D000DBB25020434301EB030010F1180120004E
:1026E00000F047FA241D0026E6E7502076BD0000E2
:1026F00014080140F8B50C000100C9B2042291FB96
:10270000F2F1C0B2042290FBF2F302FB1300244A60
:10271000125C1B4BC9B25020414303EB0100D2B203
:102720001101084410F11C05002622E006270222B0
:10273000E8683100C9B279430844811C200000F0E8
:1027400018FAA41C0222E8683100C9B27943014496
:10275000200000F00EFAA41C0222E8683100C9B281
:1027600007FB01F73844011D200000F002FAA41C09
:10277000761C3000C0B21728D8DB8A20F2BD0000DA
:102780004C1F00201410014010100140081001409F
:10279000140C0140100C0140080C0140541600209C
:1027A0004063000880B5202080F3118800F003F911
:1027B00001BD68488069704780B5FFF7FAFF90F85F
:1027C0002100C0B2800810F0010002BD80B50021D8
:1027D00000F0F2F901BD80B5FEF79AFF01BD30B4FB
:1027E00002000020002404E02300DBB2D35C1818B0
:1027F000641C23000D00DBB2EDB2AB42F4D3C0B2D7
:1028000030BC70472DE9F04104000D0016009846D9
:102810000027B8F10301C9B2701CFFF7E0FF5FFAAF
:1028200088F806EB080111F8021CC0B2C9B2884250
:1028300001D000201EE0069900E0083460680028FE
:1028400016D0707810F07F002278C0B28242F4D1A6
:102850000800C0B2FF2804D00800B278C0B290428D
:10286000EBD1F278311D280063689847012001E020
:102870003800C0B2BDE8F0812DE9F8430C00150026
:10288000066827005FF0000800208DF800005FF068
:10289000000907E0B8F1400F04D15FF000095FF0D4
:1028A0000008270001226946300033689B6898477A
:1028B000002815D04846C0B2002814D09DF800006A
:1028C00038707F1C18F10108B8F1040FE2D3E078EA
:1028D000801D8045DED185F800800020002000E0CA
:1028E0000120BDE8F2839DF800000228DAD15FF0F4
:1028F00001095FF001089DF8000038707F1CD1E7E6
:10290000F8B5A2B004002568A668277902E0142073
:10291000FFF761FFFFF750FF002811D101AA02A9BC
:102920002000FFF7A9FF0028F1D13800C0B20090C5
:102930009DF8043002AA29003000FFF763FFE9E7A1
:10294000FFF730FF0448FFF741FF0020FEF7BCFE11
:1029500023B0F0BDB8040020780A002010B5204C48
:102960000020C4F898000020C4F89C0014F1A000D6
:1029700000F0B4FD14F1B80000F0B0FD10BD20204F
:1029800080F311881648D0F89810491CC0F89810A8
:10299000002080F31188704780B50A001049D1F8F3
:1029A0009C305B1CC1F89C3010F1480112F14800CA
:1029B00000F0AFFD01BD80B50A4800F09DFD01BDEE
:1029C00080B5084800F09CFD01BD80B5064800F0C8
:1029D00093FD01BD80B5044800F092FD01BD0000EB
:1029E000B8040020580500207005002000887047BA
:1029F000F8B504000D001600002708E0380080B28A
:102A000035F81010200001F07FF8A41C7F1C38005E
:102A1000310080B289B28842F0D3F1BDF8B504002C
:102A20000D001600002708E02000FFF7DFFF390047
:102A300089B225F81100A41C7F1C3800310080B237
:102A400089B28842F0D3F1BD2DE9F843ADF5006DB0
:102A500004000D001700B4F10060B0F5802F04D31E
:102A60000DF5006D01B0BDE8F08300F0EBFF14F14F
:102A700078400600F60AC0F34908D8F58069484650
:102A8000390080B289B2884203D3B94601E04FF4DD
:102A900080694FF4806269464FF4006000FB06F0E5
:102AA00010F10060FFF7BAFF002000E0401C0100B9
:102AB0004A4689B292B291420AD26946020092B263
:102AC00012FA88F231F812104FF6FF729142EDD0EF
:102AD000494680B289B2884227D24FF4006000FB99
:102AE00006F010F1006000F0BDFF00200BE0694629
:102AF000424692B212FA80F203009BB235F81330CC
:102B000021F81230401C01004A4689B292B291422B
:102B1000EDD34FF4806269464FF4006000FB06F08D
:102B200010F10060FFF764FF05E04A4692B2290009
:102B30002000FFF75DFF3800494680B289B2884225
:102B400002D100F088FF8BE7761C5FF00008484652
:102B500080B205EB4005484680B214EB4004B7EB69
:102B60000907380080B240F2014188428FDAB94645
:102B70008FE710B5044601F077F8204610BD30B459
:102B8000002513E050F8042BD30744BFA9F101033B
:102B90009A18091F042942F8045BFAD213468C07DD
:102BA00044BF15809B1CC90748BF1D7050F8041B0B
:102BB0000029E7D130BC704770B505000C002E68C5
:102BC0000CE0F0682043F060002C02D03069044231
:102BD00003D0B168706800F004F83668AE42F0D1F6
:102BE00070BD80B5426B1143416390F820100A29F3
:102BF00003D1416B426A114209D190F820100B2990
:102C000009D1426B416A0A40416A8A4203D10021DC
:102C1000416200F020FB01BD00604060704780B55C
:102C2000202080F31188FFF7C6FE01BD80B5FFF7B5
:102C3000C7FE002080F3118801BD80B5FFF7ECFFCF
:102C400001BD80B5FFF7EBFF01BD80B5FFF7EEFFDB
:102C500001BD80B5FFF7F1FF01BD80B5FEF77FFD37
:102C600002BD80B5FEF792FD01BD2DE9F0410400E3
:102C70000E001500A068A84200D2A5682069A769C7
:102C8000C71BBD4208D22A00A169300000F0ECFF4A
:102C9000A0692844A06119E0AF4210D23A00A169AE
:102CA000B046404600F0E0FF3E44EF1B3A00E168CA
:102CB000300000F0D9FFE0683844A06106E02A0047
:102CC000A169300000F0D0FFE068A061A068401B5F
:102CD000A0602800BDE8F0812DE9F04104000E005D
:102CE0001500A068A84200D2A56820696769C71BC3
:102CF000BD4209D22A0067693100380000F0B4FFF4
:102D00006069284460611CE0AF4212D23A00310091
:102D1000D4F81480404600F0A7FF06EB0701EF1B34
:102D20003A00E668300000F09FFFE06838446061D8
:102D300007E02A0067693100380000F095FFE0687D
:102D40006061A068401BA0602800BDE8F0812DE90B
:102D5000F04104000D0016001F00DDF8188020006F
:102D6000FFF777FF0020A060E560A561656105EBD6
:102D700006002061E761C4F82080BDE8F08180B5DD
:102D8000426983699A4204D18268002A01D00122F3
:102D900000E00022D2B2002A11D18268521C826067
:102DA0004269531C4361117041690269914201D328
:102DB000C16841610021FFF754FF002001E05FF08E
:102DC000FF3002BD70B504000D00FFF73AFFA068A8
:102DD00000280AD129002000FFF73FFF0600002E3F
:102DE000F5D5FFF732FF300016E0A068401EA06066
:102DF000A069411CA1610578A0692169884201D3BD
:102E0000E068A061E069002802D02000E1698847FD
:102E1000FFF71BFFEDB2280070BD2DE9F04706005B
:102E20000F0014009846D6F81CA0A146FFF709FF32
:102E30000AE05046002801D03000D047FFF705FFD8
:102E4000641B2F44FFF7FDFE002C0DD0220039003B
:102E50003000FFF70AFF0500002DEAD1414630009F
:102E6000FFF7FBFE0028EFD0FFF7EFFEB9EB0404FD
:102E70002000BDE8F0872DE9F04104000D001600A8
:102E80001F00DDF818802000FFF7E3FEA660E56074
:102E9000A561656105EB06002061E761C4F820804B
:102EA000BDE8F081F8B504000D001600FFF7C9FE7B
:102EB000A06800280AD131002000FFF7CEFE0700ED
:102EC000002FF5D5FFF7C1FE380015E0A068401EC1
:102ED000A0606069411C6161057060692169884278
:102EE00001D3E0686061E069002802D02000E16958
:102EF0008847FFF7AAFE0020F2BD10B5416982693C
:102F0000914204D18168002901D0012100E0002113
:102F1000C9B2002912D18168491C816081694A1CAB
:102F200082610C7881690269914201D3C168816133
:102F30000021FFF796FEE4B2200001E05FF0FF30D1
:102F400010BD2DE9F04706000F0014009846D6F892
:102F50001CA0A146FFF775FE0AE05046002801D0EC
:102F60003000D047FFF771FE641B2F44FFF769FE66
:102F7000002C0DD0220039003000FFF7ADFE050017
:102F8000002DEAD141463000FFF767FE0028EFD060
:102F9000FFF75BFEB9EB04042000BDE8F0870000FA
:102FA00080B5202080F31188FFF70FFD01BD80B5AB
:102FB000FFF710FD002080F3118801BD80B5FFF7F9
:102FC000EFFF01BD80B5FFF7F2FF01BD80B5FFF750
:102FD000F3FD01BD10B4D0F85421D0F85431754C34
:102FE000A34204D1744B0C68B3FBF4F303E0734BBE
:102FF0000C68B3FBF4F38C88240405D5DC08E400EA
:1030000013F0070353EA44039360CB8853F0400363
:1030100013610B8953F0010353618B8843F404530C
:1030200053F02C03D360002313601368526889881F
:1030300011F4A051B1F5806F03D17F2180F85811B0
:1030400002E0FF2180F8581110BC704780B50022C3
:103050000B0701D552F08002CB0701D552F02002B8
:103060008B0701D552F04002490701D552F4807216
:103070001100001DFFF7AAFF01BDF8B50400D4F848
:103080005451EE682F68F8050BD5FFF797FF4FF402
:103090000071201DFFF79AFF7FF480702860FFF712
:1030A00091FFFFF78BFF13E0380010F00F0F04D0F3
:1030B000390089B22000FFF7C9FF696894F8580108
:1030C0000140B80603D5C9B22000FEF70FFA2F68F9
:1030D000380010F02F0FE7D1FFF774FF700616D5F8
:1030E000380614D5FFF76AFF14F13000FFF705FF2B
:1030F000002809D50821201DFFF768FF300080B2A5
:1031000030F04000E86000E06860FFF75BFF3006E9
:103110001AD5380618D5FFF751FF606CA16C8842AC
:1031200004D1A06B002801D0012000E00020C0B233
:10313000002807D01021201DFFF748FFB6B236F057
:103140008006EE60FFF73EFFF1BD1D48016851F0BB
:10315000C0010160704780B5FFF711FC1948FFF707
:103160008CFF00F01FFE01BD10B5164C164A002161
:103170002000FEF78DF90F48C4F8540110BD38B592
:1031800005000C00002C00D1104C287A01280CD12D
:103190000C48A84209D10E48016851F480410160F1
:1031A00000680C21252000F037FE21002800FFF7E1
:1031B00011FF31BD0038014000A24A040051250230
:1031C0000C380140BC1300204B3100080C63000890
:1031D00018100240006040607047010008680268F3
:1031E0000A600A685160704701684268116041686E
:1031F0000268516070479B488169896800688068EF
:10320000814201D2012000E00020C0B2704780B5A9
:10321000202080F31188FFF7D8FB01BD80B5FFF7B0
:10322000D9FB002080F3118801BDC068002801D0BF
:10323000012000E00020C0B270478168491C816015
:10324000704710B5874C2000FFF7C4FF0020A06036
:103250002461646110BD002180F820108149096853
:103260008A6883689A42FAD201604A68426042687A
:10327000106048607047002180F820107949096883
:1032800082688B689A42FAD301604A684260426859
:1032900010604860704738B5724DAC6984F8200002
:1032A0002800FFF79AFFA8610120A96981F8200092
:1032B0002100A869FFF770FBEFF309806438E1692A
:1032C000884202D2684800F081FE2100A86900F01F
:1032D0008DFE31BD10B50400FFF799FF94F8200072
:1032E000002808D0032809D004280ED0052809D0CA
:1032F00007280AD00DE0FFF791FF12E00020616A75
:10330000086006E0606AFFF798FF2000FFF76CFF97
:10331000FFE75FF0FF3060622000FFF79CFFFFF7E0
:103320007DFF10BD18B585B0040011F1010F12D05A
:103330004C4883694D4A684600F09FFE2000C0B2A9
:10334000FFF7A9FF6846FFF770FF002807D068461F
:1033500000F0F1FE03E02000C0B2FFF79CFF4148FF
:103360008069406A06B010BD70B504003D4EB0697A
:1033700061628168A268914203D32000FFF76BFF6E
:1033800017E0FFF778FF0500B461012084F8200002
:1033900029002000FFF700FBEFF309806438E9699A
:1033A000884202D2304800F011FE2900200000F0CF
:1033B0001DFE70BD80B5FFF71EFF002801D000F094
:1033C0000DF801BD274908688068896989688142CC
:1033D00001D2012000E00020C0B2704738B5214D75
:1033E000AC692800FFF7F9FEA8610120A96981F8FE
:1033F00020002000FFF73FFF04002100A869FFF72D
:10340000CBFAEFF309806438E169884202D21648AA
:1034100000F0DCFD2100A86900F0E8FD31BD38B501
:10342000104DAC692800FFF7D8FEA8610120A969FA
:1034300081F820002000FFF71EFF04002100A8698A
:10344000FFF7AAFAEFF309806438E169884202D2F3
:10345000054800F0BBFD2100A86900F0C7FD31BDA3
:1034600000000000B8040020FC620008D53200080B
:1034700030B4C3685B1CC3608368C91A891A816051
:10348000D0E9044582680023A2186B41C0E90423F7
:1034900041688268914201D2816841608168026816
:1034A000914201D28168016030BC704738B586B066
:1034B0001C4D0020C5F89000684600F00FF8042469
:1034C000684600F019F8684600F01AF8641E002CEF
:1034D000F6D10098C5F8900007B030BD5FF0FF311D
:1034E000016000214160002181600021C160002253
:1034F0000023C0E9042370470B49096881607047C5
:1035000080B509490968074AD2F89020FFF7B0FF53
:1035100001BD80B5044A12688A6000228968FFF7FD
:10352000A7FF01BDB8040020041000E0010000E086
:1035300000BF401E0028FBD1704780B5026892682A
:10354000002A18D00268D268002A14D0C9B2002913
:103550000AD001220168C9688A4000688068426117
:10356000C820FFF7E3FF06E001220168C9688A402E
:1035700000688068026101BD70B504000D0020681C
:103580008068002829D02068C068002825D02068DD
:103590000068002821D004262068006800F097FE0B
:1035A000206841682068006800F04BFE012120007F
:1035B000FFF7C3FF2A00F6B231002068006800F070
:1035C00072FE00212000FFF7B8FF2068006800F0BD
:1035D00046FE2068006800F07FFE70BDF8B504006C
:1035E0000D00160020680068002822D004272068FB
:1035F000006800F06CFE206841682068006800F0F8
:1036000020FE01212000FFF798FF33002A00FFB2BF
:1036100039002068006800F030FE00212000FFF72C
:103620008CFF2068006800F01AFE2068006800F037
:1036300053FEF1BD80B502681268002A1BD06A46AD
:103640000023136000220123183113FA01F1114302
:1036500051F040010A00120E8DF800200A00120CF1
:103660008DF801200A00120A8DF802208DF803104F
:103670006946FFF781FF01BDE0B5016809680029CF
:1036800001D1002011E001A9AC4A13680B606A4621
:1036900001A9FFF7A3FF9DF800109DF801000002AB
:1036A00050EA01409DF8021008430EBD1CB504000D
:1036B0002068006800281ED068460021016001A82B
:1036C00000210160002050F080500100090E8DF8AB
:1036D00000100100090C8DF801100100090A8DF895
:1036E00002108DF8030069462000FFF745FF200017
:1036F000FFF7C2FFE06013BD1CB50400206800683E
:10370000002817D06846002202600800000E8DF8DD
:1037100000000800000C8DF801000800000A8DF878
:1037200002008DF8031069462000FFF725FF2000F6
:10373000FFF7BCFF13BD1CB504002068006800281B
:1037400022D068460022026001A800220260002008
:1037500050F080500122183112FA01F101430800A3
:10376000000E8DF800000800000C8DF80100080024
:10377000000A8DF802008DF8031069462000FFF75B
:10378000FBFE2000FFF778FF13BD38B504000D00E5
:103790002068006800281ED06846002101600121D1
:1037A00015F1180081400A431000000E8DF800004A
:1037B0001000000C8DF801001000000A8DF80200C6
:1037C0008DF8032069462000FFF7D6FE2900C9B214
:1037D0002000FFF7B0FF31BDFEB504000D0016005C
:1037E0001F0020680068002852D068460021016050
:1037F00001A800210160002151F08051012215F142
:103800001800824011433800C0B251EA80514C4840
:103810003200D2B2805C51EA00410800000E8DF8FF
:10382000000068460A00120C42700A00120A8270F8
:103830008DF8031069462000FFF79EFE2000FFF779
:103840001BFFFFB2012F04D022D3032F15D009D3C1
:103850001EE0EDB229012144CA69F6B206214E43A9
:10386000905315E0EDB229012144CA69F6B2062150
:103870004E4302EB060148800AE0EDB229012144E3
:10388000CA69F6B206214E4302EB06018880FFE7C3
:10389000F7BDF8B504000D0016001F002068006891
:1038A000002849D00698694600220A603100C9B252
:1038B000C91F012903D9891E012908D90FE0010078
:1038C00089B2B1F5004F01DB47F6FF7007E0010058
:1038D00089B2B1F5004F01DA4FF40040FFE7002252
:1038E000012315F118018B401A433900C9B252EA7D
:1038F000815213493300DBB2C95C52EA014280B203
:1039000010430100090E8DF800100100090C8DF81C
:1039100001100100090A8DF802108DF803006946B4
:103920002000FFF729FE3B00DBB23200D2B22900B3
:10393000C9B22000FFF750FFF1BD00003C63000852
:103940008C62000838B50400002C79D0002977D0AB
:1039500021602068C06800280FD001250622206859
:10396000C16815FA01F12068806800F0FCFC20684D
:10397000C06885402068806805612068006900286B
:103980000FD0012506222068416915FA01F120684F
:10399000006900F0E8FC2068406985402068006903
:1039A000056120688069002808D003220121206871
:1039B000C06981402068806900F0D5FC2068006AF9
:1039C000002819D0012506222068416A15FA01F164
:1039D0002068006A00F0C7FCE079012806D1206861
:1039E000406A85402068006A056105E02068406AF9
:1039F00085402068006A45612079002811D10125A1
:103A00002068406915FA00F02168096948614FF49F
:103A10007A70FFF78BFD2068406985402068006957
:103A20000561002505E02900C9B22000FFF702FE6C
:103A30006D1C2800C0B20428F5DB2000FFF736FE1D
:103A400031BD0000DFF8F401DFF8F4110160DFF8A8
:103A5000FC1101607047DFF8F801016851F0800146
:103A60000160704738B504000420B4F10061DFF84C
:103A7000D421914201D2012100E00021C9B2B4F168
:103A8000046F1ED35FF0FF3000F0C3F80100C9B22D
:103A9000042914D1DFF8B051286850F002002860E2
:103AA000DFF8B0010460286850F0400028605FF043
:103AB000FF3000F0AEF8296831F002012960C0B291
:103AC00021E0DFF894118C421CD25FF0805000F0AE
:103AD0008CF80100C9B2042914D1DFF874512868A8
:103AE00050F002002860DFF874010460286850F08C
:103AF000400028605FF0805000F077F8296831F0CE
:103B000002012960C0B232BD70B504000D0004206E
:103B1000B4F10061DFF82C21914201D2012100E0D3
:103B20000021C9B2B4F1046F18D34FF4704000F013
:103B300070F80100C9B204290ED1DFF80C613068B9
:103B400050F00100306025804FF4704000F061F8C3
:103B50003168490849003160C0B21BE0DFF8F81055
:103B60008C4216D24FF4704000F03FF80100C9B209
:103B700004290ED1DFF8D860306850F001003060C1
:103B800025804FF4704000F030F831684908490052
:103B90003160C0B270BD0420DFF8C8000168C907F9
:103BA00001D501200AE00168490701D5022005E09E
:103BB0000068C00601D5032000E00420C0B27047B1
:103BC0000420DFF89C000168C90701D501200AE044
:103BD0000168490701D5022005E00068C00601D54B
:103BE000032000E00420C0B2704710B50400042098
:103BF000FFF7D1FF02E0FFF7CEFF641E0100C9B25C
:103C0000012901D1002CF6D1002C00D10520C0B231
:103C100010BD10B504000420FFF7D2FF02E0FFF74B
:103C2000CFFF641E0100C9B2012901D1002CF6D1D9
:103C3000002C00D10520C0B210BD000004200240BD
:103C4000230167450000FF1790200240AB89EFCDAC
:103C50001020024094200240000008081420024076
:103C60008C2002400C20024062B38B0708D0521E09
:103C700011F8013B00F8013B00F024808B07F6D1DE
:103C8000830740F0208000BF103A07D330B4B1E87A
:103C90003810103AA0E83810F9D230BC530724BFCE
:103CA000B1E80810A0E8081044BF51F8043B40F800
:103CB000043BD20724BF31F8022B20F8022B44BF6B
:103CC0000B7803707047121F17D35B0009D151F8AE
:103CD000043B20F8023B1B0C121F20F8023BF6D2DB
:103CE0000BE051F8043B00F8013B1B0A20F8023BB3
:103CF0001B0C121F00F8013BF3D238BF121D521EDD
:103D000024BF11F8013B00F8013BF8D870470100CF
:103D100010F00700354B1A684FF6FF010A4034498E
:103D200051EA00210A431A607047020052B2002A89
:103D300004D409012F4A40B2115407E009012E4A68
:103D400040B210F00F00104400F8041C7047EFF36D
:103D50000980683029490A68520852000A6080F3D5
:103D60000988002080F31188704780B5202080F3F7
:103D7000118862B60320FFF7CBFF2148016851F09C
:103D8000807101601F48016851F00101016001214B
:103D90007FF00400FFF7C9FF02217FF00100FFF769
:103DA000C4FF01BD10B5202080F3118816480068BB
:103DB000000517D5F1EE100AEFF30980683804000A
:103DC0005FF08071E16111490968216680F309881B
:103DD000FFF7F8FA002802D00D48A06101E00D4875
:103DE000A06102E0002080F3118810BD0CED00E01E
:103DF0000000FA0500E400E018ED00E034EF00E018
:103E0000FCED00E0001000E004ED00E03CEF00E01D
:103E10001B4000082740000810B40901104A115443
:103E2000012210F01F0112FA01F10E4B0400640987
:103E300043F8241010F01F018A400B49400941F853
:103E4000202010BC7047012210F01F018A40074952
:103E500003005B0941F823200021014A11547047F7
:103E600000E400E080E200E000E100E080E100E04A
:103E7000081880B27047081A80B2704780B500F009
:103E8000EEFA01BD80B580B200F0EDFA01BD80B55B
:103E900000F0EEFA02BD002080F3118862B6704790
:103EA00080B5202080F31188FEF78FFD01BD80B51D
:103EB000FEF790FD002080F3118801BD80B5FFF76B
:103EC000E6FF02BDF8B5454CE569FFF7F7FF0700CF
:103ED000390089B2208DFFF7CEFF0600A868864220
:103EE00005D2E06914F11C0188421FD13EE0218D0A
:103EF000A86841182185A868361A14F11C002968A1
:103F000048602968E161EF680021E960E169814268
:103F100001D1FFF7B3FFFFF7CAFF2869B847FFF7E2
:103F2000BFFFE569A8688642E1D2CEE7208D301850
:103F30002085E0698068861BE0698660390089B267
:103F4000208DFFF798FF0100A868411A022901D2CD
:103F5000022104E0B1F5803F01D34FF6FF71380034
:103F600080B2FFF785FF80B2FFF78CFFF1BD80B50F
:103F700000F090FA00F0C0FA00F0DBFA01BDFEE7B5
:103F800010B5FFF75EF900F06DF8FFF7F0FFFFF7EF
:103F90008DFAFEF7E3FC114C8022114914F1300038
:103FA000FDF704FBA0610F48A169C8610120A16968
:103FB00081F82000FFF7D9FEA0694830FFF79CFA8E
:103FC000FFF769FF0848FDF737FB10BD72B60349DC
:103FD000C862FEE780B5FFF775FF01BDB804002099
:103FE000A462000800040020BC6200082DE9F04F24
:103FF0002DED108AC1F80CD0C3689D46BDEC108A27
:10400000BDE8F08FFEF7DCFC002383F3118828461F
:10401000A0470020FDF750FBFEE7FEF7CCFCFFF7C2
:10402000FEF9FEF7CDFC00DFFEE7FEE7081880B2E0
:104030007047081A80B2704780B580B200F00AFA63
:1040400001BD80B500F00BFA01BD80B580B200F073
:104050000AFA01BD80B500F00BFA02BD80B5FFF78A
:10406000F9FF02BD5A4810F11C01C16101625FF005
:10407000FF3141620021018570472DE9F0410400C4
:104080000D002361E260FFF7E9FF8046022D00D2B8
:1040900002254F4E16F11C00F169884213D1A6F893
:1040A0002880F461346220606060A560B5F5803FCF
:1040B00001D34FF6FF752900308DFFF7B7FF80B2AF
:1040C000FFF7BAFF35E0F769414689B2308DFFF757
:1040D000B0FF2D18414689B2308DFFF7AAFF854207
:1040E00003D2B8682D1A3F6812E0B86885420FD233
:1040F0002900B1F5803F01D34FF6FF71308DFFF7F6
:1041000095FF80B2FFF7A1FF02E0B8682D1A3F6863
:10411000B868A842F9D3276020684068606060688A
:1041200004607C60A560B868451BBD605FF0FF302F
:104130007062BDE8F08110B5254CE169814213D071
:104140000168426811604168026851600021C160E5
:1041500014F11C010268914205D001688A688168E7
:104160008A180068826032E00168E16114F11C0184
:10417000E26951600022C260E269914202D1FFF718
:1041800060FF24E0E169896880684118E069816026
:10419000FFF764FF010089B2208DFFF74AFFE16954
:1041A0008968884213D2E1698968091A022901D213
:1041B000801C05E04018B0F5803F01D34FF6FF703A
:1041C0000100208DFFF732FF80B2FFF73EFF10BDE8
:1041D000B804002080B5202080F31188FEF7EBFBA7
:1041E00001BD80B5FEF7ECFB002080F3118801BD16
:1041F00080B5FFF7EFFF01BD80B5FFF7F2FF01BD0E
:1042000080B55FF0FF31FDF78DFA02BD80B500F09B
:10421000FBF901BD80B500F0FFF901BD80B500F0EC
:104220003FFA01BD80B500F0F6FA01BD80B501216D
:10423000017000214160002181600C30FFF7E6FF32
:1042400001BD38B504000D00FFF7D2FF6560200006
:1042500000F0F3FA02202070FFF7CEFF31BD10B559
:104260000400FFF7C5FF200000F052FB0020606053
:1042700001202070FFF7C0FF10BDF8B504000D004D
:1042800016001F00FFF7B4FF032020703B00320030
:104290002900200000F061FB14F10800FFF7B0FFD7
:1042A000FFF7AAFFF1BD70B504000D001600FFF77F
:1042B0009FFF0320207032002900200000F078FBCF
:1042C00014F10800FFF79CFFFFF796FF70BD80B563
:1042D0000C30FFF79FFF01BD80B50C30FFF79EFF4C
:1042E00001BD0000002108E0374A002342F83130C8
:1042F000002302EBC1025360491C1029F4D3334957
:104300000A6852F0BD020A6009680168304A11600B
:104310008168304A116041682F4A1160C1682F4A94
:10432000116041692E4A116001692E4A116081694C
:104330002D4A1160016A2D4A1160C1692C4A116031
:10434000416A2C4A1160C16A2B4A1160816A2B4A6A
:104350001160016B2A4A1160816B2A4A1160406B1F
:10436000294908607047F0B4032A01D1016102E0D5
:10437000042A00D14161254B9E5C002215001400E7
:104380001300002709E0344305E035435FEA014CA0
:10439000F9D452F00F0249007F1C082F09D21B01EB
:1043A00012012D0124015FEA016CEED453F00F03DA
:1043B000ECE741680A402243426001680B402B430E
:1043C0000360F0BC704700003C130020181002404E
:1043D0000C08014004080140000801400C0C014099
:1043E000040C0140000C01400C100140041001407D
:1043F000001001400C14014004140140001401405D
:104400000C1C0140041C0140001C0140D462000847
:104410000A48006880B2704780B2094908600020ED
:1044200008490860022008490860704700200649D2
:104430000860704780B2024908607047240000405D
:1044400034000040100000400C00004080B500F037
:1044500009FB01BD80B580B2FFF7DEFF01BD80B56D
:10446000FFF7E4FF01BD80B580B2FFF7E3FF01BDB8
:1044700080B5FFF7CDFF02BD80B5202080F3118805
:10448000FEF799FA01BD80B5FEF79AFA002080F395
:10449000118801BD16481749016011F5006141609E
:1044A000704710B4124B5C6840422044491E30EA09
:1044B0000101524201EB02001A68904202D35A688D
:1044C000824201D2002001E05860080010BC704711
:1044D00070B504000D001600FFF7CEFF3200290072
:1044E0002000FFF7DEFF0400FFF7CDFF200070BDC6
:1044F000C40A0020CC0A002080B5054805490160A7
:1045000000214160002181600C3000F07DF801BD88
:10451000CC120020D144000880B50022FFF7C1FF73
:1045200002BD80B51300042200F0EDFA01BD006069
:10453000704738B5144C200000F066F814F11000F4
:10454000FFF7F5FF114D2A00142114F11400FFF7B5
:10455000E8FF14F12400FFF7EAFF14F12800FFF749
:10456000E6FF2A001C2114F12C00FFF7DAFF14F1FA
:104570003C00FFF7DCFF14F14000FFF7D8FF14F117
:104580004400FFF7D4FF31BD7C0A00201945000824
:104590000060406070470168814201D0012000E066
:1045A0000020C0B2704710B40A0012688A4203D0DB
:1045B00093688468A342F8D2026051684160416800
:1045C0000860506010BC70470100086802680A600B
:1045D0000A6851607047016842681160416802686A
:1045E0005160704780B5202080F31188FEF7E3F911
:1045F00001BD80B5FEF7E4F9002080F3118801BD0C
:1046000080B5FFF7C8FF02BD10B504002000FFF71A
:10461000BFFF0020A06010BD10B50400FFF7E2FF4F
:10462000200000F003F8FFF7E4FF10BD70B50400B0
:1046300033488569A06800282DD0A66807E03000BF
:10464000FFF7C9FF716AFFF7AEFF706A8668B0684E
:10465000A968884216D2A868B06096F820000028A1
:104660000AD00628EBD007280CD13000FFF7B3FFA3
:10467000716AFFF798FF05E03000FFF7ACFFFEF727
:10468000EAFDFFE721002800FFF78DFF6C6206209E
:10469000FEF701FE03E0A560A86BE060AC6370BDAF
:1046A000F8B5050016488669FFF79CFFE868B06317
:1046B0002800FFF7A5FF00281DD0F76BB46B0BE0B7
:1046C0002000FFF79DFF002805D020688068874202
:1046D00001D220688768E468002CF1D1B760280017
:1046E000FFF772FFA860816BE9608563FEF7B3FD99
:1046F000FEF760FE01E00020A860FFF77AFFF1BD41
:10470000B804002080B5202080F31188FEF75DF901
:1047100001BD80B5FEF75EF9002080F3118801BD70
:1047200080B5FFF753FC01BD80B5FFF7EBFF01BD7E
:1047300080B5FFF7EEFF01BD80B5FDF704F801BDC0
:1047400038B504000D00280702D5AE48FFF7E8FF92
:104750006068007800281BD0680707D5606840684B
:10476000002803D02000616849688847A8074AD517
:1047700060684068002846D00420207020006168EE
:1047800049688847207804283DD1032020703AE00A
:10479000606A4068006800090001616A4968086051
:1047A0000E21606A90F90D0011FA00F0626A126839
:1047B0005060206A4068006800090001226A52685F
:1047C0001060206A90F90D008140206A0068416005
:1047D0006068406800280BD00420207020006168C9
:1047E000496888472078042804D10220207001E01D
:1047F00002202070FFF798FF002114F10800FFF756
:104800009BFFFFF795FF31BD80B5080702D57D48B6
:10481000FFF786FF01BD10B57B4C2000FFF706FDBA
:104820007A48E061002020620020606241F20A00C4
:10483000A06241F21800E06210BD10B504002078BB
:10484000012820D17048A04213D12300704A0A21C8
:10485000012000F0E1F9206223006E4A0A210220C3
:1048600000F0DAF960626C48016851F4805101602F
:104870000068E0690C30216A49688860E0690C30A2
:10488000616A496888606068008A000508D4A06A87
:1048900030F47060A062E06A30F47060E06209E0B9
:1048A0000520A16A60F30B21A1620520E16A60F393
:1048B0000B21E16260680078002808D0A06A50F0FF
:1048C0002400A062E06A50F02400E06207E0A06AE1
:1048D00030F02400A062E06A30F02400E062E06979
:1048E000006830F04000E16908606068008A50F4B8
:1048F0004170E16908606068408A50F00300E16936
:104900004860E069006850F04000E169086010BD4F
:1049100010B50400207802281ED1E069006830F04C
:104920004000E16908600020E16908600020E16959
:104930004860206A00F0BDF9606A00F0BAF9002012
:104940002062002060623048A04205D132480168F0
:1049500031F480510160006810BD10B4046A6468CD
:10496000E360036A5B685960836A53F08003046AFA
:1049700064682360436A5B68DA60426A5268516027
:10498000C16A51F08001426A52681160016A496847
:10499000096851F00101026A52681160416A496870
:1049A000096851F00101406A4068016010BC70471D
:1049B00010B41A4B046A6468E360036A5B68596068
:1049C000836A046A64682360436A5B68DA60426AE7
:1049D00052685160C16A51F08001426A52681160A8
:1049E000016A4968096851F00101026A5268116060
:1049F000416A4968096851F00101406A40680160F4
:104A000010BC7047186300081815002000300140E2
:104A1000414700080948000818100240982000206B
:104A200080B5202080F31188FDF7CFFF01BD80B550
:104A3000FDF7D0FF002080F3118801BD80B5FFF79E
:104A4000EFFF01BD80B5FFF7F2FF01BD80B5FFF7B5
:104A5000C1FA01BD80B5FDF792FF00F041F8FFF704
:104A6000A1F901BD80B51548016851F0010101604F
:104A700000681348016851F40061016048F69F40E6
:104A8000104908604FF6FF700F49086000200F4979
:104A9000086000200E49086000200E4908600020D0
:104AA0000D49086001200D49086001205FF0804138
:104AB000086008211C20FFF7AFF901BD1C1002405F
:104AC000042004E0280000402C00004018000040B2
:104AD000340000400C00004004000040140000407E
:104AE00080B55FF080410869CA6802F0FF0210409B
:104AF000C2430A61800705D5FFF7A0FFFFF7A6FFB5
:104B0000FFF7A0FF01BD10B4002404604160826083
:104B1000C36010BC7047000080B5FDF730FF8D48C2
:104B200000F0F9F8FFF73EF901BD80B5FDF727FF6A
:104B3000894800F0F0F8FFF735F901BD80B5FDF7C1
:104B40001EFF864800F0E7F8FFF72CF901BD80B59D
:104B5000FDF715FF824800F0DEF8FFF723F901BDED
:104B600080B5FDF70CFF7F4800F0D5F8FFF71AF984
:104B700001BD80B5FDF703FF7B4800F0CCF8FFF7DF
:104B800011F901BD80B5FDF7FAFE784800F0C3F8D1
:104B9000FFF708F901BD80B5FDF7F1FE744800F09C
:104BA000BAF8FFF7FFF801BD80B5FDF7E8FE7148E0
:104BB00000F0B1F8FFF7F6F801BD80B5FDF7DFFEB4
:104BC0006D4800F0A8F8FFF7EDF801BD80B5FDF7DE
:104BD000D6FE6A4800F09FF8FFF7E4F801BD10B474
:104BE0006749002008600020486000200AE0002299
:104BF000584B040123445B681A60002201EBC00398
:104C00009A60401C0B28F2DB5FF0FF305D490860C2
:104C10005D49086010BC7047F8B50B2801D2070049
:104C200002E0002044E07F1CB84240D30124BC4095
:104C3000534D2E682642F6D146483E01064405EB08
:104C4000C700826005EBC700C36028682043286066
:104C500014F07F0F05D04D48036853F00103036043
:104C6000006814F4F06F05D04848036853F002035D
:104C700003600068002A09D06868B268104202D157
:104C8000F07BFFF7C9F8686804436C6070680068DF
:104C900000090001716808600E2196F90D0081403D
:104CA00030684160002071680860300000E000203A
:104CB000F2BD38B5857B0122314C236812FA05F12B
:104CC0008B4323606168AA4031EA02026260616836
:104CD0008268114202D1C07BFFF7B5F8002004EBD7
:104CE000C5018860002004EBC501C860207810F081
:104CF0007F0F05D125480168490849000160006817
:104D0000206810F4F06F05D12048016831F00201ED
:104D10000160006831BD80B5827B01680968437B12
:104D2000D94011F00E0143681B68194211D0437B32
:104D300011FA03F300684360114B03EBC200806873
:104D4000002806D003EBC200C06803EBC2029268E1
:104D5000904701BD905D0008A05D0008B05D0008AF
:104D6000C05D0008D05D0008E05D0008F05D00084F
:104D7000005E0008105E0008205E0008305E00083B
:104D8000E815002004000240040402401410024010
:104D900080B5202080F31188FDF717FE01BD80B596
:104DA000FDF718FE002080F3118801BD80B5FFF7E4
:104DB000EFFF01BD80B5FFF7F2FF01BD01000878EC
:104DC000491C097850EA012080B2704710B50400F0
:104DD00094F8760084F87E00200000F0ABFC606858
:104DE0000068002804D00121200062681268904702
:104DF0000320207010BD38B5040094F8740010F042
:104E00007F0094F8751050EA012000282AD001286C
:104E100000F0B980022800F0BE80B0F5807F2AD073
:104E2000B0F5817F00F0F780B0F5407F38D040F2D8
:104E30000231884200F01581B0F5A06F44D0B0F582
:104E4000C06F4AD040F20161884246D0B0F5006F91
:104E50005DD0B0F5106F63D040F60241884200F09B
:104E6000928024E114F17C00A0660220E06600201C
:104E7000206701201CE194F8760001280ED1B4F8D7
:104E80007C104FF6FD700140A4F87C100020A06655
:104E90000020E06600202067012009E1002007E1F2
:104EA00094F8760001280DD1B4F87C0050F002008F
:104EB000A4F87C000020A0660020E06600202067A7
:104EC0000120F5E00020F3E00020A0660020E0666D
:104ED000DFF88C0220670120EAE014F17800FFF788
:104EE0006DFF03009BB294F8762094F877102000B1
:104EF00065686D68A847002801D10020D8E04168A6
:104F0000A1660068E066002020670120D0E014F16F
:104F10007F00A0660120E066002020670120C7E036
:104F20002078042814D1FFF741FF200000F0DBF8BF
:104F3000FFF740FF002084F87F00032020706068A6
:104F40000068002804D0032120006268126890479E
:104F500094F8760000280ED094F8760084F87F004C
:104F60000420207060680068002804D0022120001E
:104F70006268126890470020A0660020E06600206A
:104F80002067012094E07748A0660220E0660020B8
:104F9000206701208CE094F8780000061DD594F875
:104FA000781011F00F01200000F077FC012802D0EA
:104FB000022808D00FE06C48A0660220E0660020BE
:104FC0002067012074E06948A0660220E0660020A6
:104FD000206701206CE000206AE094F8781011F05E
:104FE0000F01200000F047FC012802D0022808D061
:104FF0000FE05D48A0660220E066002020670120E7
:1050000056E05A48A0660220E06600202067012092
:105010004EE000204CE094F87600002801D00020FB
:1050200046E094F8780010F00F0F12D094F8780052
:10503000000607D594F8781011F00F01200000F059
:10504000EAFC06E094F8781011F00F01200000F05F
:10505000CAFC0020A0660020E06600202067012036
:1050600026E094F87600002801D0002020E094F893
:10507000780010F00F0F12D094F87800000607D5D2
:1050800094F8781011F00F01200000F09BFC06E06E
:1050900094F8781011F00F01200000F082FC00203D
:1050A000A0660020E06600202067012000E00020CC
:1050B00032BD80B500F014FB01BD0121017000215B
:1050C0004160002108E0002200EB8103DA62002247
:1050D00000EB81039A64491C0729F4D30021018164
:1050E00000214181704780B5017A11F001010181F1
:1050F000817A11F001014181012104E0002200EBDD
:105100008103DA60491C0829F8D300F0A1FB01BD36
:1051100038B5448901258D402C4344810C00E4B20C
:1051200000EB8404E468A469A2602360002262604A
:10513000C9B200F0D7FB31BD38B5048901258D40D7
:105140002C4304810C00E4B200EB8404E46864693D
:10515000A260236000226260C9B200F0F4FB31BD9E
:10516000CD4D00089E2F00080E3D0008423A000871
:1051700010B50400022020700020A4F87C0000205C
:1051800084F87E00002084F87F0000202081002029
:105190006081002004E0002104EB8002D160401C0B
:1051A0000828F8D3002084F86400200000F09EFA5C
:1051B00060680068002804D000212000626812683E
:1051C000904710BD10B50400207884F880000520B9
:1051D000207060680068002804D004212000626804
:1051E00012689047002020810020608110BD80B5AA
:1051F00090F88010017041680968002903D00521EA
:1052000042681268904701BD10B5040094F864002C
:10521000002802D0002084F8640014F17402C9B29E
:10522000200000F04BFB60688068002805D020005B
:1052300061688968884700281ED194F8740010F0CE
:10524000600F04D12000FFF7D6FD002814D1002103
:10525000200000F0B7FB0021200000F0A2FB6068F6
:105260000068002804D00621200062681268904778
:10527000062084F8640048E014F17A00FFF79EFDF0
:10528000E16E884200D2E06694F8740000061ED5F4
:10529000E06E00280DD0092084F86400FFF786FD39
:1052A000E36EA26E00212000FFF746FFFFF782FDAC
:1052B0002BE0142084F86400FFF778FD002300221F
:1052C00000212000FFF724FFFFF774FD1DE0E06ED2
:1052D00000280DD0152084F86400FFF767FDE36E09
:1052E000A26E00212000FFF713FFFFF763FD0CE023
:1052F0000B2084F86400FFF759FD002300220021F1
:105300002000FFF719FFFFF755FD10BD10B5040091
:1053100094F86400002842D0062840D0092808D01C
:105320000A2824D00B2830D0142838D0152836D09D
:105330004AE014F17A00FFF741FDE16E814216D296
:10534000E06EE168098AB0FBF1F201FB120000286F
:105350000DD1FFF72BFD0023002200212000FFF7D5
:10536000EBFEFFF727FD0A2084F864002CE01420F0
:1053700084F86400FFF71AFD0023002200212000BA
:10538000FFF7C6FEFFF716FD1EE0206F002802D0D3
:105390002000216F8847002084F8640014E0002179
:1053A000200000F00FFB0021200000F0FAFA6068F6
:1053B0000068002804D00621200062681268904727
:1053C000062084F86400FFE710BD10B5040094F8CF
:1053D0006400002825D0801F23D0C01E022820D9B9
:1053E0000B380FD0401E31D10B2084F86400FFF73A
:1053F000DDFC0023002200212000FFF79DFEFFF7C7
:10540000D9FC23E0E0688069406800281ED1206F45
:10541000002802D02000216F8847002084F8640013
:1054200014E00021200000F0CDFA0021200000F05F
:10543000B8FA60680068002804D00621200062687D
:1054400012689047062084F86400FFE710BD000052
:105450004021C0F8841070470200D2F88400D2F8CE
:105460008430491C49084900C918C2F884107047A3
:1054700010B4DFF8D435DFF8D4251268C0B212EBCF
:1054800000129A18906813EB4003D0688005800DD5
:10549000020007E01C681B1D0C70491C240A0C70DC
:1054A000491C921E022AF5D2002A01D01A680A70FD
:1054B00010BC704730B4DFF89035DFF890452568B0
:1054C000C0B215EB00155D19286813EB40031400FA
:1054D0006A6008E00A78481C017852EA0122411CFF
:1054E0001A601B1DA41E012CF4DA30BC70472DE994
:1054F000F04104000D00DFF8586556F8258004EBF4
:105500008500C7685FEA086041D5796956F82520AB
:10551000DFF84005024052F4004246F825204A6870
:10552000C86882184A6008684A68821A002A1BD034
:10553000388A904200D23A8A8868CB6818448860DA
:10554000CA6089682800C0B2FFF7B4FF56F825107A
:10555000DFF80405014091F0300141F4004151F0C1
:10556000800146F8251012E020890121A9408843D6
:10557000208104EB8500C0688068002807D02900DE
:10558000C9B2200004EB8502D268926890475FEAB6
:10559000084058D556F82510DFF8C004014051F0F6
:1055A000800146F825105FEA085008D52900C9B2E5
:1055B000200004EB8502D2685268904743E0D7F898
:1055C0001880D8F808102800C0B2FFF751FFD8F8AB
:1055D00008100144C8F80810D8F804104118C8F899
:1055E0000410D8F80010091AC8F80010B8F80C1008
:1055F000491EA8F80C10798A884203D3B8F80C0029
:10560000002813D160890121A9408843608104EBFF
:105610008500C068C068002815D02900C9B22000E4
:1056200004EB8502D268D26890470CE056F825104A
:10563000DFF82C04014091F4405141F4004151F055
:10564000800146F82510BDE8F08170B5DFF81444FC
:10565000FDF795F9DFF810542E68700505D57FF435
:10566000806028602000FFF783FD30050BD5DFF850
:10567000FC03016851F0080101607FF400602860BC
:105680002000FFF79FFDF00410D5DFF8E403006869
:10569000000408D4DFF8D403016831F00801016088
:1056A0002000FFF7A4FD7FF480502860B00512D5DC
:1056B0006068C068002803D020006168C968884716
:1056C0007FF40070286006E016F00F06310020001D
:1056D000FFF70DFF2E683004F6D4FEF763FB70BDB4
:1056E00080B5DFF88003FFF7E8FC01BD10B50400CA
:1056F0000020DFF8581308600020DFF86C13086002
:105700008020DFF8701308604FF41C416068C068A7
:10571000002801D051F40071DFF85003016020002F
:10572000FFF796FEDFF85003E0600021200000F054
:1057300008F810BD90F87E0050F08000CD49086058
:1057400070472DE9F04106000C002000C0B206EBC6
:105750008000C768387810F00300012804D008D30F
:10576000032803D000D304E0002504E04FF4C06513
:1057700001E04FF40075B548D0F800802000C0B2B9
:1057800018EB001808F1804818F5C048786900281F
:105790000AD00020C8F80400398A3000FFF75CFE08
:1057A000C8F8000055F02005B869002822D0788A92
:1057B0003F280BDB788A401E50F01F00401C202140
:1057C00090FBF1F0800250F4004008E0788A401E1F
:1057D00050F00100401C022190FBF1F0800280B2E9
:1057E000C8F80C00798A3000FFF736FEC8F80800C8
:1057F00055F4005596492000C0B251F820004004ED
:1058000001D555F480452000C0B251F82000400673
:1058100001D555F0400548F280022B009BB22000D4
:10582000C0B203439548034013432000C0B241F87F
:1058300020302000C0B251F82030ADB247F67000E1
:1058400005405D401543E4B241F82450BDE8F081C5
:1058500080B5FFF7FDFD01200AE048F280017C4A97
:1058600052F820300B4342F8203042F82010401C00
:105870000828F2D301BD7648C9B250F8210010F4CF
:105880004050002803D0B0F5805F02D003E0002034
:1058900002E0012000E0022070476D48C9B250F8D4
:1058A000210010F03000002802D0102802D003E0C0
:1058B000002002E0012000E0022070476248634BB4
:1058C0001B68C9B213EB0113C318996810EB4100B0
:1058D000002104E003681380001D921C491C042968
:1058E000F8D3704710B40A00D2B200EB8202D2683B
:1058F00093691A68002A02D10120988111E01A6880
:105900000C00E4B200EB8404E468648A1219521EAD
:105910000C00E4B200EB8400C068408AB2FBF0F0F7
:1059200098814B4A0800C0B252F820304C480340DE
:1059300093F4405343F4004353F08003C9B242F858
:10594000213010BC704710B50C002100C9B200EB2B
:105950008101C96849690A682300DBB200EB83034F
:10596000DB681B8A934205D22200D2B200EB820090
:10597000C068028ACA6089682000C0B2FFF79AFD39
:1059800033492000C0B251F820203348024092F041
:10599000300242F4004252F08002E4B241F8242086
:1059A00010BD2B4A0800C0B252F820302C480340EA
:1059B00093F4805343F4004353F08003C9B242F898
:1059C00021307047224A0800C0B252F820302248E5
:1059D000034093F0100343F4004353F08003C9B233
:1059E00042F8213070471A4A0800C0B252F820002D
:1059F00010F44050B0F5405F0CD00800C0B252F82F
:105A000020301548034043F4204353F08003C9B2CB
:105A100042F8213070470E4A0800C0B252F8200008
:105A200010F0300030280ED00800C0B252F82030FC
:105A30000948034093F0200343F4004353F08003EC
:105A4000C9B242F82130704700600040505C00400D
:105A5000005C00400F87FFFFBF87FFFF8F07FFFF3E
:105A60008FB7FFFF48150020445C0040405C0040B9
:105A7000485C00404C5C0040486200088F87FFFF94
:105A800080B5FCF77CFF77490868774A126812F006
:105A9000010210400860C00706D574490868002854
:105AA00002D0486809688847FEF77CF901BD80B5D7
:105AB000FCF765FF6B4908686B4A126812F0020236
:105AC00010400860800706D568498868002802D021
:105AD000C86889688847FEF765F901BD80B5FCF79D
