:020000040800F2
:1000000000040020C1680008974E0008974E0008C1
:10001000974E0008974E0008974E0008974E00082C
:10002000974E0008974E0008974E00083F130008AF
:10003000974E0008974E0008974E0008974E00080C
:10004000974E0008974E0008974E0008974E0008FC
:10005000974E0008974E0008196000084760000896
:1000600075600008A3600008D160000859150008F9
:100070006B1500087D1500088F150008A1150008F4
:10008000B3150008C5150008974E0008974E0008E4
:10009000632A0008974E0008974E0008FF6000088A
:1000A000974E00086D670008974E0008974E0008AD
:1000B0005D1800087F670008974E00086508000873
:1000C00077080008A1080008B3080008974E000848
:1000D000974E00089B5F0008974E0008974E000857
:1000E00075610008974E0008974E0008974E00086B
:1000F000974E0008974E0008974E0008974E00084C
:10010000974E0008974E0008974E0008974E00083B
:10011000974E0008974E0008974E0008974E00082B
:10012000D7150008E9150008FB1500080D16000892
:10013000974E0008974E0008974E0008974E00080B
:10014000974E0008974E0008974E0008974E0008FB
:10015000974E0008974E0008974E0008974E0008EB
:10016000974E0008974E0008974E0008974E0008DB
:10017000974E0008974E0008974E0008974E0008CB
:1001800010F0090000F0090000F5090000F709006F
:100190000010FD000010FD000010FD000010FD002B
:1001A00014100800000C00040018000400180004DB
:1001B000001800140018FD000018FD000018FD00D4
:1001C0000018FD000B38370020886B00080000FF86
:1001D000FFFC00031C6B0008CF0001C201F7000404
:0D01E0002838002001FD0004806A0008019D
:100400000101000025080501081880B27047401A54
:10041000511A80B289B2884201D2012000E0002046
:10042000C0B2704780B500F079FC02BD80B52020D5
:1004300080F3118800F0A3FC01BD80B500F0A4FC9E
:10044000002080F3118801BD80B5202080F3118841
:1004500000F09FFC01BD80B500F0A0FC002080F3FF
:10046000118801BD80B5FFF7DDFF02BD80B500F04A
:100470004FFD01BD80B5FFF7D9FF01BD80B5FFF786
:10048000DCFF01BD80B5FFF7DFFF01BD80B5FFF7E1
:10049000E2FF01BD80B5FFF7E5FF02BD80B580B288
:1004A000FFF7B2FF02BD80B592B289B280B2FFF70A
:1004B000AEFF02BD80B500F0ADFE02BD80B500F01C
:1004C000BAFE01BD416B4FF400420A6000220A608F
:1004D00000224A6000224A61016B496809680909E3
:1004E0000901026B526811600E22016B91F90D1027
:1004F00012FA01F1036B1B685960C16A4968096807
:1005000009090901C36A5B681960C16A91F90D1094
:100510008A40C06A00684260704730B4416B4268EC
:1005200052684068047A4B684FF6C07003404B60D5
:10053000486850F03F004860002340F6FF70DFF845
:100540004455AA420ADADFF84005520090FBF2F067
:100550000005000D03432520086220E0DFF82C553C
:10056000AA421CDA2500EDB2022D06D1DFF81845AB
:100570000320424394FBF2F00AE0E4B2032C07D1DB
:10058000DFF804451920424394FBF2F053F4804312
:100590000005000D50F4004003430B2008629BB29D
:1005A000CB6130BC7047416B406800780A68C0B2CC
:1005B000012804D00FD303280BD004D30BE04FF64F
:1005C000F570024007E052F002024FF6F770024069
:1005D00001E052F00A0292B20A60704770B506005C
:1005E000746BA069656955EA004020F07F405FF0B8
:1005F0000111401A0ED05FF40031401A0AD0401E9B
:1006000023D0801F1CD0DFF88814401A37D0801EFA
:1006100042D062E0308C80B2000A80B201280CDB4C
:10062000308C001210F0060096F8201011F0010135
:10063000084350F0F000206101E0308C20614CE074
:10064000308CC0F34700206147E0606830F40070F0
:100650006060F06A4068006850F00100F16A496823
:100660000860606850F480506060F06A40684068DC
:10067000022803D2206830F4806020602DE060689A
:1006800030F400706060306B4068006850F001002A
:10069000316B4968086020E02069F06A4068406872
:1006A000002808D0308C50F001003084206850F4CD
:1006B000A06020601BE0606830F40070606020681B
:1006C00050F400702060FFF7DDFE002116F11C00E1
:1006D000FFF7F4FEFFF7DAFEFFE715F00A0F00D090
:1006E000A069E80503D5606930F48070606170BD71
:1006F00038B50400656B080703D5DFF89803FFF7EA
:10070000B5FEE06A4068006800090001E16A4968D6
:1007100008600E21E06A90F90D008140E06A0068EF
:100720004160686830F480506860286830F4806008
:100730002860286850F400702860FFF7A3FE0021AD
:1007400014F11C00FFF7BAFEFFF7A0FE31BD38B56B
:100750000400656B080702D5CE48FFF787FE206BC3
:100760004068006800090001216B496808600E219B
:10077000206B90F90D008140206B00684160686833
:1007800050F40070686031BD10B50400206B406803
:10079000006800090001226B526810600E22206B75
:1007A00090F90D0012FA00F0236B1B685860E06AA4
:1007B0004068006800090001E36A5B681860E06A4D
:1007C00090F90D008240E06A006842600020A0605D
:1007D000C80509D5A06850F00100A060606B4069B1
:1007E00030F48070626B5061880503D5A06850F0CA
:1007F0000200A06048050FD5606B406830F40070BF
:10080000626B5060606B006850F40070626B106047
:10081000A06850F00400A060080503D5A06850F05F
:100820000800A060480403D5A06850F02000A06034
:10083000C80403D5A06850F01000A060080403D5D8
:10084000A06850F04000A060A068002809D0FFF721
:1008500019FE7FF0010114F11C00FFF72FFEFFF7D6
:1008600015FE10BD80B500F06EFA8B48FFF7B6FE9E
:1008700000F090FD01BD38B5874D686B446900F00C
:1008800062FA200080B210F45F40C043696B486197
:10089000210089B22800FFF777FF00F07BFD31BD12
:1008A00080B500F050FA7D48FFF798FE00F072FD29
:1008B00001BD38B5794D686B446900F044FA2000F9
:1008C00080B210F45F40C043696B4861210089B277
:1008D0002800FFF759FF00F05DFD31BD10B56E4CEB
:1008E000200000F0B7FD0020E0616D48606300204B
:1008F000E06200202063694C200000F0ABFD002086
:10090000E061684860630020E0620020206310BD61
:1009100038B50400656B2078012865D19A20A06263
:100920008A2060625C48A0422DD15F48016851F482
:1009300000110160016831F40011016000682300BA
:100940005A4A0521062000F087FEE0622300584A3B
:100950000521052000F080FE20635648016851F40F
:1009600000110160006805211F2000F031FF052102
:10097000202000F02DFF606A50F440506062A06AB1
:1009800050F44050A0624548A0422DD1464801682D
:1009900051F480010160016831F480010160006858
:1009A0002300424A0521042000F056FEE0622300A5
:1009B0003F4A0521032000F04FFE20633D480168B7
:1009C00051F48001016000680521212000F000FF42
:1009D0000521222000F0FCFE606A50F44050606265
:1009E000A06A50F44050A06215F11000E16A496815
:1009F000886015F11000216B496888604FF4004051
:100A00002860002028604FF4106068602000FFF725
:100A100084FD2000FFF7C7FD286850F00100286022
:100A200031BD10B50400207801282AD02000FFF73E
:100A300049FD206B00F05DFEE06A00F05AFE0020E8
:100A400020630020E0621448A0420BD11F2000F078
:100A5000D6FE202000F0D3FE1648016831F40011C4
:100A6000016000680D48A0420BD1212000F0C7FEB4
:100A7000222000F0C4FE0F48016831F480010160BB
:100A8000006810BDA186010000512502811A0600F0
:100A90007A000400646B00083837002070370020AB
:100AA000005400400058004010100240F1060008B9
:100AB0004F0700081C100240F8B5040016001F0084
:100AC000656B0020A060490051F001012184FFF70F
:100AD000D5FC606AE16A49680860E06A4068C660FF
:100AE000E06A40684760FFF7D5FC060064213000EB
:100AF00080B2FFF7D3FC07000CE0FFF7CBFC3A0015
:100B000092B2310089B280B2FFF7CDFC002829D023
:100B1000FFF7B4FCFFF7AEFCA8698007EDD42868A6
:100B20008005EAD40699686850F400706860286807
:100B300050F4A060286014F11C00FFF7BBFC0028F3
:100B40000FD0E16A4968096809090901E26A526837
:100B500011600E22E16A91F90D108A40E16A09687C
:100B60004A60F2BDE06A4068006800090001E16A7D
:100B7000496808600E21E06A90F90D008140E06A42
:100B8000006841605FF0FF30EBE72DE9F8430400B7
:100B900016001F00DDF82080DDF82490656B002032
:100BA000A06049002184FFF769FCA06A216B4968B5
:100BB0000860206B4068C660206B40684760606AD0
:100BC000E16A49680860E06A4068C0F80C80E06A41
:100BD0004068C0F80490FFF75DFC06006421300017
:100BE00080B2FFF75BFC07000CE0FFF753FC3A0014
:100BF00092B2310089B280B2FFF755FC00283AD09A
:100C0000FFF73CFCFFF736FCA8698007EDD42868A5
:100C10008005EAD40A99686850F400706860286812
:100C200050F48070286014F11C00FFF743FC00288A
:100C30001FD0216B4968096809090901226B5268B4
:100C400011600E22216B91F90D1012FA01F1236B44
:100C50001B685960E16A4968096809090901E36A82
:100C60005B681960E16A91F90D108A40E16A0968D0
:100C70004A60BDE8F283206B40680068000900010B
:100C8000216B496808600E21206B90F90D0011FA64
:100C900000F0226B12685060E06A4068006800094A
:100CA0000001E26A52681060E06A90F90D0081402C
:100CB000E06A006841605FF0FF30DAE70A480068E8
:100CC00080B2704780B20949086000200849086076
:100CD00002200849086070470020064908607047F4
:100CE00080B2024908607047240000403400004090
:100CF000100000400C00004080B500F0B7FD01BDC1
:100D000080B580B2FFF7DEFF01BD80B5FFF7E4FFDD
:100D100001BD80B580B2FFF7E3FF01BD80B5FFF7ED
:100D2000CDFF02BD10B5204C0020C4F89800002073
:100D3000C4F89C0014F1A00000F020FE14F1B800EB
:100D400000F01CFE10BD202080F311881648D0F85A
:100D50009810491CC0F89810002080F31188704743
:100D600080B50A001049D1F89C305B1CC1F89C305A
:100D700010F1480112F1480000F01BFE01BD80B5E2
:100D80000A4800F009FE01BD80B5084800F008FEE1
:100D900001BD80B5064800F0FFFD01BD80B50448E7
:100DA00000F0FEFD01BD000018080020B80800207A
:100DB000D0080020081880B27047081A80B2704727
:100DC00080B5FFF7A2FF01BD80B580B2FFF7A1FF9C
:100DD00001BD80B5FFF7A2FF02BD002080F311889E
:100DE00062B6704780B5202080F31188FFF7D1FFED
:100DF00001BD80B5FFF7D2FF002080F3118801BD4F
:100E000080B5FFF7E6FF02BDF8B5454CE569FFF791
:100E1000F7FF0700390089B2208DFFF7CEFF0600EB
:100E2000A868864205D2E06914F11C0188421FD1EE
:100E30003EE0218DA86841182185A868361A14F172
:100E40001C00296848602968E161EF680021E960B9
:100E5000E169814201D1FFF7B3FFFFF7CAFF2869BB
:100E6000B847FFF7BFFFE569A8688642E1D2CEE741
:100E7000208D30182085E0698068861BE0698660D7
:100E8000390089B2208DFFF798FF0100A868411A48
:100E9000022901D2022104E0B1F5803F01D34FF6CF
:100EA000FF71380080B2FFF785FF80B2FFF78CFF3B
:100EB000F1BD80B500F098FD00F0C8FD00F023FE04
:100EC00001BDFEE710B500F084FE00F0B5FFFFF7AE
:100ED000F0FF00F03BFDFFF725FF114C8022114988
:100EE00014F1300000F072F8A0610F48A169C861E8
:100EF0000120A16981F8200000F02FFAA069483094
:100F000000F04AFDFFF769FF084800F0A5F810BDA2
:100F100072B60349C862FEE780B5FFF775FF01BDF1
:100F200018080020EC6A000800040020046B000888
:100F3000006070470168814201D0012000E000207C
:100F4000C0B270470060406070470168814201D0C4
:100F5000012000E00020C0B270470A68026008600B
:100F600070470100086802680A60704701604A68BB
:100F7000426042681060486070470100086802687B
:100F80000A600A685160704780B5202080F311889C
:100F9000FFF7F5FE01BD80B5FFF7F6FE002080F3F8
:100FA000118801BDDFF8F80280697047C069704799
:100FB00080B50100082000F07DFE01BD10B50C00D9
:100FC000FFF7DBFF446200F00EFE10BD10B5040019
:100FD000A260022084F82000002084F82100E2634F
:100FE0000020A06300206063012084F82200A1613A
:100FF000DFF8AC0220614169616161690C614461A3
:1010000014F12800FFF794FF14F12C00FFF79AFF6A
:1010100014F1480000F0B2FC200010BD01E00270A5
:10102000401C8842FBD3704780B58168B1F16003F2
:101030004168D961B3F16401D9600169DA6811646A
:101040004169DA6851649749DA681166C2680168D3
:101050001800FFF7BBFF02BD10B504005522A168C0
:101060006068FFF7DBFFFFF78FFF2000FFF7DCFF73
:1010700004000021200000F03FFEFFF78CFF20005D
:1010800010BD2DE9F0410700884614001E00069DA2
:10109000552207EB08013800FFF7C0FFFFF774FF88
:1010A00007EB08006038C761B0F16401C160C16836
:1010B0000E64C1684D647B49C268116622007A499A
:1010C000FFF784FF04000021200000F015FEFFF769
:1010D00062FF2000BDE8F08110B50400FFF754FF67
:1010E00094F82200401E84F8220094F82200002880
:1010F00024D194F820000F2820D12069616908616B
:10110000606921694861FFF746FF94F8210010F0FB
:101110000300C0B2012802D0022806D00DE0200052
:10112000FFF744FF00F09EFC07E02000FFF73EFFC2
:101130000100206C00F052FFFFE701E0FFF72BFFFA
:1011400010BD10B50400FFF71FFF200000F001F8EC
:1011500010BD10B552498C69606205E014F1280099
:10116000FFF7FFFE00F03FFD14F12800FFF7E2FE5D
:101170000028F3D194F8220000280AD194F8210025
:1011800010F0030F05D12069616908616069216968
:1011900048610F2000F047FD10BD38B50400FFF78F
:1011A000F3FE94F820000F2808D014F128013C48E1
:1011B0008069FFF7D2FE092000F035FD656AFFF770
:1011C000EAFE2000FFF788FF280032BD10B50400BA
:1011D000FFF7DAFE94F8210050F0040084F82100B3
:1011E000FFF7D9FE10BD10B50400FFF7CDFE2000BB
:1011F000FFF7DEFEFFF7CFFE10BD10B50400FFF7CE
:10120000D1FE20604462032000F00DFDFFF7CAFE0E
:10121000406A10BD38B505000C00FFF7C3FE002C76
:1012200002D15FF0FF3005E0286045622100032015
:1012300000F040FD32BD80B50268002A06D0026889
:10124000002303605162100000F0CDFC01BD80B5A9
:101250000268002A05D0026800230360100000F035
:101260004BFD01BD38B504000D00FFF78DFE2900D0
:101270002000FFF7ECFFFFF78EFE31BD10B50C002C
:10128000002C02D15FF0FF3008E0010004488069C3
:10129000FFF76CFE2100042000F00CFD10BD0000E3
:1012A00018080020812100089C6B000838B5040054
:1012B0000D002000FFF749FE002803D02900200080
:1012C000FFF77CFE31BD30B4002513E050F8042B4D
:1012D000D30744BFA9F101039A18091F042942F852
:1012E000045BFAD213468C0744BF15809B1CC907C8
:1012F00048BF1D7050F8041B0029E7D130BC70476F
:1013000010F00700354B1A684FF6FF010A403449C8
:1013100051EA00210A431A607047020052B2002AC3
:1013200004D409012F4A40B2115407E009012E4AA2
:1013300040B210F00F00104400F8041C7047EFF3A7
:101340000980683029490A68520852000A6080F30F
:101350000988002080F31188704780B5202080F331
:10136000118862B60320FFF7CBFF2148016851F0D6
:10137000807101601F48016851F001010160012185
:101380007FF00400FFF7C9FF02217FF00100FFF7A3
:10139000C4FF01BD10B5202080F3118816480068F5
:1013A000000517D5F1EE100AEFF309806838040044
:1013B0005FF08071E16111490968216680F3098855
:1013C00000F0C8FC002802D00D48A06101E00D48E3
:1013D000A06102E0002080F3118810BD0CED00E058
:1013E0000000FA0500E400E018ED00E034EF00E052
:1013F000FCED00E0001000E004ED00E03CEF00E058
:1014000097210008A321000880B5202080F31188CF
:10141000FFF7B5FC01BD80B5FFF7B6FC002080F3F7
:10142000118801BD80B5FFF7EFFF01BD80B5FFF763
:10143000F2FF01BD80B500F019FE01BD80B500F0DE
:101440001DFE01BD80B500F05DFE01BD80B5FFF75A
:1014500045FA01BD80B501210170002141600C30C9
:10146000FFF7E8FF01BD38B504000D00FFF7DAFF14
:1014700065602000FFF74CFA02202070FFF7D6FFCE
:1014800031BD10B50400FFF7CDFF2000FFF7C9FA0A
:101490000020606001202070FFF7C8FF10BD2DE91B
:1014A000FF4704000D0016001F00DDF83080DDF856
:1014B0003490DDF838A0FFF7B5FF0020A0600320CE
:1014C0002070CDF808A0CDF80490CDF800803B0046
:1014D0003200290089B22000FFF757FB050015F103
:1014E000010F02D10520207001E002202070FFF7DB
:1014F0009DFF280004B0BDE8F0872DE9FC41040001
:101500000D0016001F00DDF82080FFF78BFF002084
:10151000A06004202070CDF800803B00320029003C
:1015200089B22000FFF7C8FA050015F1010F02D1BA
:101530000520207001E002202070FFF777FF2800CF
:10154000BDE8F68180B50C30FFF778FF01BD80B5AE
:101550000C30FFF777FF01BD80B5FFF7F4FB8D4836
:1015600000F0F9F8FFF716FF01BD80B5FFF7EBFBC0
:10157000894800F0F0F8FFF70DFF01BD80B5FFF7D7
:10158000E2FB864800F0E7F8FFF704FF01BD80B5F5
:10159000FFF7D9FB824800F0DEF8FFF7FBFE01BD44
:1015A00080B5FFF7D0FB7F4800F0D5F8FFF7F2FEDB
:1015B00001BD80B5FFF7C7FB7B4800F0CCF8FFF713
:1015C000E9FE01BD80B5FFF7BEFB784800F0C3F827
:1015D000FFF7E0FE01BD80B5FFF7B5FB744800F0F2
:1015E000BAF8FFF7D7FE01BD80B5FFF7ACFB714835
:1015F00000F0B1F8FFF7CEFE01BD80B5FFF7A3FB09
:101600006D4800F0A8F8FFF7C5FE01BD80B5FFF7F3
:101610009AFB6A4800F09FF8FFF7BCFE01BD10B4CA
:101620006749002008600020486000200AE000228E
:10163000584B040123445B681A60002201EBC0038D
:101640009A60401C0B28F2DB5FF0FF305D490860B8
:101650005D49086010BC7047F8B50B2801D207003F
:1016600002E0002044E07F1CB84240D30124BC408B
:10167000534D2E682642F6D146483E01064405EBFE
:10168000C700826005EBC700C3602868204328605C
:1016900014F07F0F05D04D48036853F00103036039
:1016A000006814F4F06F05D04848036853F0020353
:1016B00003600068002A09D06868B268104202D14D
:1016C000F07B00F085F8686804436C60706800681F
:1016D00000090001716808600E2196F90D00814033
:1016E00030684160002071680860300000E0002030
:1016F000F2BD38B5857B0122314C236812FA05F121
:101700008B4323606168AA4031EA0202626061682B
:101710008268114202D1C07B00F071F8002004EB16
:10172000C5018860002004EBC501C860207810F076
:101730007F0F05D12548016849084900016000680C
:10174000206810F4F06F05D12048016831F00201E3
:101750000160006831BD80B5827B01680968437B08
:10176000D94011F00E0143681B68194211D0437B28
:1017700011FA03F300684360114B03EBC200806869
:10178000002806D003EBC200C06803EBC2029268D7
:10179000904701BD10680008206800083068000804
:1017A0004068000850680008606800087068000819
:1017B0008068000890680008A0680008B068000809
:1017C000544200200400024004040240141002406D
:1017D00010B40901104A1154012210F01F0112FA2D
:1017E00001F10E4B0400640943F8241010F01F01AE
:1017F0008A400B49400941F8202010BC7047012263
:1018000010F01F018A40074903005B0941F82320BB
:101810000021014A1154704700E400E080E200E03A
:1018200000E100E080E100E080B5202080F3118835
:10183000FFF7AFFA01BD80B5FFF7B0FA002080F3E3
:10184000118801BD80B5FFF7EFFF01BD80B5FFF73F
:10185000F2FF01BD80B5FFF75FFB01BD80B5FFF76B
:1018600072FA00F041F8FFF795FD01BD80B515480B
:10187000016851F00101016000681348016851F4EA
:101880000061016048F69F40104908604FF6FF7004
:101890000F49086000200F49086000200E490860C9
:1018A00000200E49086000200D49086001200D4904
:1018B000086001205FF08041086008211C20FFF7CC
:1018C00087FF01BD1C100240042004E028000040F6
:1018D0002C00004018000040340000400C00004084
:1018E000040000401400004080B55FF080410869AA
:1018F000CA6802F0FF021040C2430A61800705D5A2
:10190000FFF7A0FFFFF7A6FFFFF7A0FF01BDFFFF56
:1019100030B4C3685B1CC3608368C91A891A8160CC
:10192000D0E9044582680023A2186B41C0E9042372
:1019300041688268914201D2816841608168026891
:10194000914201D28168016030BC704738B586B0E1
:101950001C4D0020C5F89000684600F00FF80424E4
:10196000684600F019F8684600F01AF8641E002C6A
:10197000F6D10098C5F8900007B030BD5FF0FF3198
:10198000016000214160002181600021C1600022CE
:101990000023C0E9042370470B4909688160704740
:1019A00080B509490968074AD2F89020FFF7B0FFCF
:1019B00001BD80B5044A12688A6000228968FFF779
:1019C000A7FF01BD18080020041000E080B520200A
:1019D00080F31188FFF7D3F901BD80B5FFF7D4F983
:1019E000002080F3118801BD16481749016011F5E8
:1019F00000614160704710B4124B5C684042204463
:101A0000491E30EA0101524201EB02001A6890427D
:101A100002D35A68824201D2002001E058600800D7
:101A200010BC704770B504000D001600FFF7CEFF24
:101A3000320029002000FFF7DEFF0400FFF7CDFF92
:101A4000200070BD9C250020A425002080B52548DD
:101A50002549016000214160002181600C3000F0C7
:101A600005FB01BD70B5B0F1080425682E1D606846
:101A7000C01DC008606015F10C0000F0FFFA00E026
:101A80003668281D864201D0A642F9D23068002867
:101A900002D030688442F3D23068206034606068DD
:101AA00004EBC00008302168884208D160682168D2
:101AB0004968491C081860602068006820607068E8
:101AC00006EBC0000830A04206D170686168491C6E
:101AD000081870602068306015F10C0000F012FBEF
:101AE00070BD0000A42D0020251A000880B500223A
:101AF000FFF781FF02BD80B51300042200F062FAF7
:101B000001BD0060704738B5144C200000F0AEFAFB
:101B100014F11000FFF7F5FF114D2A00142114F104
:101B20001400FFF7E8FF14F12400FFF7EAFF14F1B7
:101B30002800FFF7E6FF2A001C2114F12C00FFF714
:101B4000DAFF14F13C00FFF7DCFF14F14000FFF76F
:101B5000D8FF14F14400FFF7D4FF31BD5425002015
:101B6000ED1A0008006040607047010008680268D4
:101B70000A600A68516070470168426811604168F4
:101B80000268516070479B48816989680068806875
:101B9000814201D2012000E00020C0B2704780B530
:101BA000202080F31188FFF7F4F801BD80B5FFF71E
:101BB000F5F8002080F3118801BDC068002801D02D
:101BC000012000E00020C0B270478168491C81609C
:101BD000704710B5874C2000FFF7C4FF0020A060BD
:101BE0002461646110BD002180F8201081490968DA
:101BF0008A6883689A42FAD201604A684260426801
:101C0000106048607047002180F820107949096809
:101C100082688B689A42FAD301604A6842604268DF
:101C200010604860704738B5724DAC6984F8200088
:101C30002800FFF79AFFA8610120A96981F8200018
:101C40002100A869FFF78CF8EFF309806438E16997
:101C5000884202D26848FFF75BF92100A86900F0CA
:101C600083FA31BD10B50400FFF799FF94F8200006
:101C7000002808D0032809D004280ED0052809D050
:101C800007280AD00DE0FFF791FF12E00020616AFB
:101C9000086006E0606AFFF798FF2000FFF76CFF1E
:101CA000FFE75FF0FF3060622000FFF79CFFFFF767
:101CB0007DFF10BD18B585B0040011F1010F12D0E1
:101CC0004C4883694D4A684600F0C1F82000C0B214
:101CD000FFF7A9FF6846FFF770FF002807D06846A6
:101CE00000F013F903E02000C0B2FFF79CFF414869
:101CF0008069406A06B010BD70B504003D4EB06901
:101D000061628168A268914203D32000FFF76BFFF4
:101D100017E0FFF778FF0500B461012084F8200088
:101D200029002000FFF71CF8EFF309806438E96907
:101D3000884202D23048FFF7EBF82900200000F07B
:101D400013FA70BD80B5FFF71EFF002801D000F028
:101D50000DF801BD27490868806889698968814252
:101D600001D2012000E00020C0B2704738B5214DFB
:101D7000AC692800FFF7F9FEA8610120A96981F884
:101D800020002000FFF73FFF04002100A869FEF7B4
:101D9000E7FFEFF309806438E169884202D2164810
:101DA000FFF7B6F82100A86900F0DEF931BD38B5BB
:101DB000104DAC692800FFF7D8FEA8610120A96981
:101DC00081F820002000FFF71EFF04002100A86911
:101DD000FEF7C6FFEFF309806438E169884202D25A
:101DE0000548FFF795F82100A86900F0BDF931BD5D
:101DF0000000000018080020486B0008651C00085F
:101E0000081880B27047081A80B2704780B580B257
:101E1000FEF776FF01BD80B5FEF777FF01BD80B507
:101E200080B2FEF776FF01BD80B5FEF777FF02BDF9
:101E300080B5FFF7F9FF02BD5A4810F11C01C161DE
:101E400001625FF0FF3141620021018570472DE999
:101E5000F04104000D002361E260FFF7E9FF8046D6
:101E6000022D00D202254F4E16F11C00F169884266
:101E700013D1A6F82880F461346220606060A56008
:101E8000B5F5803F01D34FF6FF752900308DFFF780
:101E9000B7FF80B2FFF7BAFF35E0F769414689B274
:101EA000308DFFF7B0FF2D18414689B2308DFFF716
:101EB000AAFF854203D2B8682D1A3F6812E0B868BD
:101EC00085420FD22900B1F5803F01D34FF6FF7153
:101ED000308DFFF795FF80B2FFF7A1FF02E0B868F1
:101EE0002D1A3F68B868A842F9D327602068406877
:101EF0006060606804607C60A560B868451BBD6078
:101F00005FF0FF307062BDE8F08110B5254CE169EB
:101F1000814213D0016842681160416802685160D3
:101F20000021C16014F11C010268914205D00168D2
:101F30008A6881688A180068826032E00168E1611D
:101F400014F11C01E26951600022C260E269914211
:101F500002D1FFF760FF24E0E169896880684118D9
:101F6000E0698160FFF764FF010089B2208DFFF70F
:101F70004AFFE1698968884213D2E1698968091AD0
:101F8000022901D2801C05E04018B0F5803F01D342
:101F90004FF6FF700100208DFFF732FF80B2FFF790
:101FA0003EFF10BD1808002080B5202080F3118866
:101FB000FEF7E5FE01BD80B5FEF7E6FE002080F3EA
:101FC000118801BD10B40024046041608260C360C8
:101FD00010BC704702680A600160704738B50400A1
:101FE0000D00FFF7E1FF29002000FFF7F3FFFFF7E7
:101FF000E2FF31BD0060406070470168814201D05E
:10200000012000E00020C0B2704710B40A0012683E
:102010008A4203D093688468A342F8D20260516870
:10202000416041680860506010BC7047010008685A
:1020300002680A600A68516070470168426811606E
:10204000416802685160704780B5202080F3118894
:10205000FEF795FE01BD80B5FEF796FE002080F3E9
:10206000118801BD80B5FFF7C8FF02BD10B504009F
:102070002000FFF7BFFF0020A06010BD10B50400D6
:10208000FFF7E2FF200000F003F8FFF7E4FF10BDC8
:1020900070B5040033488569A06800282DD0A66873
:1020A00007E03000FFF7C9FF716AFFF7AEFF706A03
:1020B0008668B068A968884216D2A868B06096F8A9
:1020C000200000280AD00628EBD007280CD13000C9
:1020D000FFF7B3FF716AFFF798FF05E03000FFF7E5
:1020E000ACFFFFF780FDFFE721002800FFF78DFF21
:1020F0006C620620FFF797FD03E0A560A86BE06027
:10210000AC6370BDF8B5050016488669FFF79CFF03
:10211000E868B0632800FFF7A5FF00281DD0F76B23
:10212000B46B0BE02000FFF79DFF002805D020686E
:102130008068874201D220688768E468002CF1D16A
:10214000B7602800FFF772FFA860816BE9608563C4
:10215000FFF749FDFFF7F6FD01E00020A860FFF75B
:102160007AFFF1BD180800202DE9F04F2DED108AFF
:10217000C1F80CD0C3689D46BDEC108ABDE8F08F55
:10218000FEF702FE002383F311882846A0470020B3
:10219000FEF7D7FFFEE7FEF7F2FDFFF708FEFEF7BA
:1021A000F3FD00DFFEE7000080B5202080F31188FA
:1021B000FEF7EFFD01BD80B5FEF7F0FD002080F3D6
:1021C000118801BD80B5FFF7EFFF01BD80B5FFF7B6
:1021D000F2FF01BD01000878491C097850EA01208E
:1021E00080B2704710B5040094F8760084F87E0041
:1021F000200000F0ABFC60680068002804D00121DA
:1022000020006268126890470320207010BD38B526
:10221000040094F8740010F07F0094F8751050EAF0
:10222000012000282AD0012800F0B980022800F0FF
:10223000BE80B0F5807F2AD0B0F5817F00F0F780B6
:10224000B0F5407F38D040F20231884200F015816D
:10225000B0F5A06F44D0B0F5C06F4AD040F2016134
:10226000884246D0B0F5006F5DD0B0F5106F63D0F6
:1022700040F60241884200F0928024E114F17C0093
:10228000A0660220E0660020206701201CE194F88F
:10229000760001280ED1B4F87C104FF6FD70014095
:1022A000A4F87C100020A0660020E06600202067D3
:1022B000012009E1002007E194F8760001280DD102
:1022C000B4F87C0050F00200A4F87C000020A06666
:1022D0000020E066002020670120F5E00020F3E008
:1022E0000020A0660020E066DFF88C022067012055
:1022F000EAE014F17800FFF76DFF03009BB294F859
:10230000762094F87710200065686D68A84700284B
:1023100001D10020D8E04168A1660068E066002095
:1023200020670120D0E014F17F00A0660120E06664
:10233000002020670120C7E02078042814D1FFF78F
:1023400041FF200000F0DBF8FFF740FF002084F899
:102350007F000320207060680068002804D00321FB
:10236000200062681268904794F8760000280ED02A
:1023700094F8760084F87F0004202070606800687C
:10238000002804D0022120006268126890470020D3
:10239000A0660020E06600202067012094E07748D6
:1023A000A0660220E0660020206701208CE094F8FF
:1023B000780000061DD594F8781011F00F01200068
:1023C00000F077FC012802D0022808D00FE06C480A
:1023D000A0660220E06600202067012074E06948C2
:1023E000A0660220E0660020206701206CE000204B
:1023F0006AE094F8781011F00F01200000F047FC1B
:10240000012802D0022808D00FE05D48A066022013
:10241000E06600202067012056E05A48A0660220AE
:10242000E0660020206701204EE000204CE094F898
:102430007600002801D0002046E094F8780010F0E3
:102440000F0F12D094F87800000607D594F8781092
:1024500011F00F01200000F0EAFC06E094F878107B
:1024600011F00F01200000F0CAFC0020A06600203F
:10247000E06600202067012026E094F8760000281E
:1024800001D0002020E094F8780010F00F0F12D057
:1024900094F87800000607D594F8781011F00F0131
:1024A000200000F09BFC06E094F8781011F00F017A
:1024B000200000F082FC0020A0660020E0660020E2
:1024C0002067012000E0002032BD80B500F014FB41
:1024D00001BD0121017000214160002108E00022BE
:1024E00000EB8103DA62002200EB81039A64491C4D
:1024F0000729F4D30021018100214181704780B573
:10250000017A11F001010181817A11F0010141810B
:10251000012104E0002200EB8103DA60491C082954
:10252000F8D300F0A1FB01BD38B5448901258D40E9
:102530002C4344810C00E4B200EB8404E468A469F9
:10254000A260236000226260C9B200F0D7FB31BDF7
:1025500038B5048901258D402C4304810C00E4B278
:1025600000EB8404E4686469A26023600022626076
:10257000C9B200F0F4FB31BDE5210008A621000836
:10258000F64100086628000810B5040002202070FB
:102590000020A4F87C00002084F87E00002084F84D
:1025A0007F000020208100206081002004E00021C5
:1025B00004EB8002D160401C0828F8D3002084F886
:1025C0006400200000F09EFA60680068002804D0D3
:1025D0000021200062681268904710BD10B5040009
:1025E000207884F88000052020706068006800284A
:1025F00004D00421200062681268904700202081E6
:102600000020608110BD80B590F880100170416895
:102610000968002903D0052142681268904701BD6E
:1026200010B5040094F86400002802D0002084F85B
:10263000640014F17402C9B2200000F04BFB606822
:102640008068002805D020006168896888470028D4
:102650001ED194F8740010F0600F04D12000FFF731
:10266000D6FD002814D10021200000F0B7FB002186
:10267000200000F0A2FB60680068002804D006215A
:102680002000626812689047062084F8640048E0E1
:1026900014F17A00FFF79EFDE16E884200D2E066F9
:1026A00094F8740000061ED5E06E00280DD00920B5
:1026B00084F86400FFF786FDE36EA26E002120001F
:1026C000FFF746FFFFF782FD2BE0142084F864003B
:1026D000FFF778FD0023002200212000FFF724FFF0
:1026E000FFF774FD1DE0E06E00280DD0152084F882
:1026F0006400FFF767FDE36EA26E00212000FFF784
:1027000013FFFFF763FD0CE00B2084F86400FFF774
:1027100059FD0023002200212000FFF719FFFFF7D9
:1027200055FD10BD10B5040094F86400002842D097
:10273000062840D0092808D00A2824D00B2830D0F9
:10274000142838D0152836D04AE014F17A00FFF763
:1027500041FDE16E814216D2E06EE168098AB0FB6C
:10276000F1F201FB120000280DD1FFF72BFD002331
:10277000002200212000FFF7EBFEFFF727FD0A20D3
:1027800084F864002CE0142084F86400FFF71AFD3C
:102790000023002200212000FFF7C6FEFFF716FDF0
:1027A0001EE0206F002802D02000216F8847002003
:1027B00084F8640014E00021200000F00FFB0021E9
:1027C000200000F0FAFA60680068002804D00621B2
:1027D0002000626812689047062084F86400FFE7D2
:1027E00010BD10B5040094F86400002825D0801FA7
:1027F00023D0C01E022820D90B380FD0401E31D163
:102800000B2084F86400FFF7DDFC00230022002188
:102810002000FFF79DFEFFF7D9FC23E0E068806908
:10282000406800281ED1206F002802D02000216FB0
:102830008847002084F8640014E00021200000F0A4
:10284000CDFA0021200000F0B8FA60680068002886
:1028500004D006212000626812689047062084F8A0
:102860006400FFE710BD00004021C0F884107047ED
:102870000200D2F88400D2F88430491C490849008B
:10288000C918C2F88410704710B4DFF8D435DFF8E7
:10289000D4251268C0B212EB00129A18906813EB9C
:1028A0004003D0688005800D020007E01C681B1DF6
:1028B0000C70491C240A0C70491C921E022AF5D285
:1028C000002A01D01A680A7010BC704730B4DFF8D3
:1028D0009035DFF890452568C0B215EB00155D19FD
:1028E000286813EB400314006A6008E00A78481C6B
:1028F000017852EA0122411C1A601B1DA41E012C02
:10290000F4DA30BC70472DE9F04104000D00DFF827
:10291000586556F8258004EB8500C7685FEA0860B3
:1029200041D5796956F82520DFF84005024052F478
:10293000004246F825204A68C86882184A6008683C
:102940004A68821A002A1BD0388A904200D23A8AFA
:102950008868CB6818448860CA6089682800C0B25B
:10296000FFF7B4FF56F82510DFF80405014091F099
:10297000300141F4004151F0800146F8251012E089
:1029800020890121A9408843208104EB8500C0688B
:102990008068002807D02900C9B2200004EB850216
:1029A000D268926890475FEA084058D556F82510DB
:1029B000DFF8C004014051F0800146F825105FEABD
:1029C000085008D52900C9B2200004EB8502D2685E
:1029D0005268904743E0D7F81880D8F808102800CC
:1029E000C0B2FFF751FFD8F808100144C8F808102A
:1029F000D8F804104118C8F80410D8F80010091AC3
:102A0000C8F80010B8F80C10491EA8F80C10798A04
:102A1000884203D3B8F80C00002813D16089012143
:102A2000A9408843608104EB8500C068C068002825
:102A300015D02900C9B2200004EB8502D268D26803
:102A400090470CE056F82510DFF82C04014091F473
:102A5000405141F4004151F0800146F82510BDE895
:102A6000F08170B5DFF81444FEF76DF9DFF810540B
:102A70002E68700505D57FF4806028602000FFF780
:102A800083FD30050BD5DFF8FC03016851F0080128
:102A900001607FF4006028602000FFF79FFDF004D4
:102AA00010D5DFF8E4030068000408D4DFF8D4038D
:102AB000016831F0080101602000FFF7A4FD7FF4F8
:102AC00080502860B00512D56068C068002803D027
:102AD00020006168C96888477FF40070286006E0BC
:102AE00016F00F0631002000FFF70DFF2E683004AE
:102AF000F6D4FEF74FFC70BD80B5DFF88003FFF71A
:102B0000E8FC01BD10B504000020DFF85813086090
:102B10000020DFF86C1308608020DFF87013086075
:102B20004FF41C416068C068002801D051F4007166
:102B3000DFF8500301602000FFF796FEDFF8500336
:102B4000E0600021200000F008F810BD90F87E0041
:102B500050F08000CD49086070472DE9F041060033
:102B60000C002000C0B206EB8000C768387810F077
:102B70000300012804D008D3032803D000D304E0C5
:102B8000002504E04FF4C06501E04FF40075B5483E
:102B9000D0F800802000C0B218EB001808F180487F
:102BA00018F5C048786900280AD00020C8F8040049
:102BB000398A3000FFF75CFEC8F8000055F02005A8
:102BC000B869002822D0788A3F280BDB788A401E1B
:102BD00050F01F00401C202190FBF1F0800250F4C7
:102BE000004008E0788A401E50F00100401C02219D
:102BF00090FBF1F0800280B2C8F80C00798A3000B6
:102C0000FFF736FEC8F8080055F400559649200035
:102C1000C0B251F82000400401D555F48045200091
:102C2000C0B251F82000400601D555F0400548F2E9
:102C300080022B009BB22000C0B2034395480340A2
:102C400013432000C0B241F820302000C0B251F838
:102C50002030ADB247F6700005405D401543E4B248
:102C600041F82450BDE8F08180B5FFF7FDFD01205B
:102C70000AE048F280017C4A52F820300B4342F8C7
:102C8000203042F82010401C0828F2D301BD7648BD
:102C9000C9B250F8210010F44050002803D0B0F51C
:102CA000805F02D003E0002002E0012000E002206B
:102CB00070476D48C9B250F8210010F0300000286C
:102CC00002D0102802D003E0002002E0012000E042
:102CD000022070476248634B1B68C9B213EB0113B3
:102CE000C318996810EB4100002104E003681380C9
:102CF000001D921C491C0429F8D3704710B40A0027
:102D0000D2B200EB8202D26893691A68002A02D11B
:102D10000120988111E01A680C00E4B200EB8404F1
:102D2000E468648A1219521E0C00E4B200EB8400BD
:102D3000C068408AB2FBF0F098814B4A0800C0B2EC
:102D400052F820304C48034093F4405343F400437E
:102D500053F08003C9B242F8213010BC704710B55F
:102D60000C002100C9B200EB8101C96849690A68F9
:102D70002300DBB200EB8303DB681B8A934205D29E
:102D80002200D2B200EB8200C068028ACA60896861
:102D90002000C0B2FFF79AFD33492000C0B251F8BD
:102DA00020203348024092F0300242F4004252F0B8
:102DB0008002E4B241F8242010BD2B4A0800C0B2C2
:102DC00052F820302C48034093F4805343F40043DE
:102DD00053F08003C9B242F821307047224A0800FC
:102DE000C0B252F820302248034093F0100343F45D
:102DF000004353F08003C9B242F8213070471A4AA9
:102E00000800C0B252F8200010F44050B0F5405F06
:102E10000CD00800C0B252F820301548034043F4EB
:102E2000204353F08003C9B242F8213070470E4A64
:102E30000800C0B252F8200010F0300030280ED048
:102E40000800C0B252F820300948034093F0200334
:102E500043F4004353F08003C9B242F82130704775
:102E600000600040505C0040005C00400F87FFFFA6
:102E7000BF87FFFF8F07FFFF8FB7FFFFB439002029
:102E8000445C0040405C0040485C00404C5C0040BA
:102E9000A86A00088F87FFFFC0B200280DD0022863
:102EA00007D008D3042805D006D3062806D006D2BA
:102EB00005E004E003E002E001E000E0FFE7704726
:102EC00038B5040000200020002500212100C9B2EF
:102ED000002937D0022910D022D3042917D028D3B3
:102EE000062938D041D24FF48071DFF8040605007E
:102EF000002289B200F010FB37E04FF48071DFF858
:102F0000F4050500002289B200F006FB2DE08021C7
:102F1000DFF8E4050500002289B200F0FDFA24E0A4
:102F20008021DFF8D8050500002289B200F0F4FA0C
:102F30001BE04021DFF8CC050500002289B200F03B
:102F4000EBFA12E04021DFF8C0050500002289B24B
:102F500000F0E2FA09E04FF48071DFF8B0050500F7
:102F6000002289B200F0D8FAFFE7DFF8A4152200AA
:102F7000D2B201EB420250802022002000F026FB5A
:102F80004FF480722900E4B24FF48070444320343F
:102F9000200080B200F01AFB31BDF8B504000D002E
:102FA0000026002000272000C0B200281ED00228E2
:102FB0000BD013D304280DD014D306281AD01ED258
:102FC0004FF48076DFF8287519E04FF48076DFF84B
:102FD000247514E08026DFF8207510E08026DFF8E5
:102FE0001C750CE04026DFF81C7508E04026DFF871
:102FF000187504E04FF48076DFF81075FFE73200B3
:1030000092B239002000C0B24FF480735843203090
:1030100000F0CEFA0022310089B2380000F07CFACC
:10302000ADB280B2854207D02000C0B2FFF734FFB6
:103030002000C0B2FFF744FFF1BD38B5DFF8D0443F
:1030400020222100002000F0B3FA00202088AB28C5
:103050000FD100252800C0B208281BDA2800C0B212
:1030600004EB400041882800C0B2FFF796FF6D1CBA
:10307000F0E7AB202080002508E02800C0B2FFF771
:103080000BFF2800C0B2FFF71BFF6D1C2800C0B269
:103090000828F2DB0020A4F8200931BD10B501009A
:1030A000C9B2FF290AD100242000C0B2082808DADA
:1030B0002000C0B2FFF704FF641CF5E7C0B2FFF7C1
:1030C000FFFE002010BD70B51C0000250B00002085
:1030D0001605360DC9B2FF2902D192B2120B1300A8
:1030E000DBB2002B09D0022B18D00ED3042B26D034
:1030F0001DD3062B34D02BD33BE00125DFF8100481
:10310000B6B2304410F5587033E00225DFF8000401
:10311000B6B200EB460010F528702AE00425DFF86F
:10312000F003B6B200EB860010F5907021E00125A7
:10313000DFF8DC03B6B2304410F5487019E0022520
:10314000DFF8CC03B6B200EB460010F5087010E0D3
:103150000425DFF8BC03B6B200EB8600203008E09F
:103160000425DFF8AC03B6B200EB860010F56870FA
:10317000FFE7290049B2012906DB2A0052B292B2C8
:103180000100200000F094FA280040B270BD70B534
:103190005FF0FF3000240D0000261005000DC9B2BD
:1031A000FF2902D192B2120B15002900C9B20029E1
:1031B00009D0022918D00ED3042926D01DD3062900
:1031C00035D02BD33CE00124DFF8441380B208440F
:1031D00010F5587634E00224DFF8341380B201EBA6
:1031E000400010F528762BE00424DFF8241380B289
:1031F00001EB800010F5907622E00124DFF8101337
:1032000080B2084410F548761AE00224DFF8001373
:1032100080B201EB400010F5087611E00424DFF8DD
:10322000F01280B201EB800010F1200608E00424C7
:10323000DFF8DC1280B201EB800010F56876FFE762
:10324000200040B201281ADB220052B292B21900CB
:10325000300000F02DFADFF8BC020078002804D01E
:103260002800C0B2FFF71AFF09E0DFF8A402B0F8A7
:103270002019012212FA05F50D43A0F8205920006B
:1032800040B270BD10B500240CE0DFF88402B0F845
:1032900020090121A140084203D02000C0B2FFF75D
:1032A000FDFE641C2000C0B20728EEDB10BD00212B
:1032B000010089B2C1F30231052908D1DFF85012AB
:1032C00080B20005000D01EB8000006A7047FEE748
:1032D0000021010089B2C1F30231002909D1DFF8D0
:1032E000301280B20005000D084490F86003C0B2AF
:1032F0007047FEE70021010089B2C1F302310129C4
:103300000AD1DFF80C1280B20005000D01EB40007D
:10331000B0F8A00280B27047FEE70021010089B238
:10332000C1F30231022909D1DFF8E41180B20005AE
:10333000000D01EB8000D0F820017047FEE702008D
:1033400092B2C2F30232002A07D1DFF8C42180B260
:103350000005000D104480F860137047020092B21F
:10336000C2F30232012A08D1DFF8A42180B200059D
:10337000000D02EB4000A0F8A0127047020092B2CC
:10338000C2F30232022A08D1DFF8842180B200059C
:10339000000D02EB8000C0F820117047010089B2D7
:1033A000C1F30231062908D1DFF8641180B20005AB
:1033B000000D01EB800080EDE80A704770B51C003D
:1033C00000250B0000201605360DC9B2FF2902D1D9
:1033D00092B2120B1300DBB2002B09D0022B18D0D3
:1033E0000ED3042B25D01DD3062B32D029D338E0A1
:1033F0000125DFF81C01B6B2304410F5FC6030E066
:103400000225DFF80C01B6B200EB460010F5E460CF
:1034100027E00425DFF8F800B6B200EB860010F5CF
:10342000B4601EE001253A48B6B2304410F5F460AD
:1034300017E002253648B6B200EB460010F5D4601E
:103440000FE004253248B6B200EB860010F5946018
:1034500007E004252E48B6B200EB860010F50260A6
:10346000FFE7290049B2012906DB2A0052B292B2D5
:103470000100200000F01CF9280040B270BD0000DF
:103480009FED1F0A010089B2C1F3023106290AD15A
:103490001F4980B20005000D01EB8000D0F8200824
:1034A00000EE100A7047FEE7020092B2C2F3023249
:1034B000052A07D1164A80B20005000D02EB8000F4
:1034C000C0F8A0147047010089B2C1F30231062987
:1034D00009D10F4980B20005000D01EB800000F614
:1034E000200080ED000A70470A490870704700000C
:1034F000E02D0020E02E0020E02F00206030002092
:1035000000000000E0300020203100206031002069
:10351000C02D0020A004002030B400240DE01500D0
:10352000ADB22D0A23009BB2C35C5D40084BEDB2E7
:1035300033F8153093EA0222641C23000D009BB27D
:10354000ADB2AB42EBD3100080B230BC704700008C
:103550004462000880B5202080F31188FDF70FFC3D
:1035600001BD80B5FDF710FC002080F3118801BD7E
:1035700010B54FF48062C0B24FF400644A4B04FBB4
:10358000003000F000F910BD38B504000D00FFF761
:10359000E1FF4FF480622900E4B24FF40063424837
:1035A00003FB0404200000F004F9FFF7DAFF31BD4B
:1035B00080B592B2022392FBF3F200F1006010F5A5
:1035C000703000F0E0F87FF0010002BD2DE9F84F07
:1035D00013009BB213FA80F403009BB24FF4006512
:1035E00093FBF5F8E40A641C15000700002640462A
:1035F000C0B2002806D0BFB24246D2B24FF400603B
:1036000000FB127700912AE0AB4609E0380080B257
:10361000D0F50060290089B28842F5DAD7F5006B51
:103620005A4692B20098310089B20144380080B203
:10363000484400F053F949464046C0B2FFF7A4FFA2
:103640001BEB06061BEB0707380080B290FBFAF76E
:103650000AFB1707B5EB0B0B5D4618F10108404656
:103660002100C0B2C9B288421AD2DFF84090494660
:103670004046C0B2FFF77CFF380080B24FF4006ACA
:1036800090FBFAF10AFB11000028BFD1280080B29C
:1036900040F60101884201DBD346C1E7AB46BFE7F4
:1036A0007FF00100BDE8F28F00C00308543A00200B
:1036B00062B38B0708D0521E11F8013B00F8013BA2
:1036C00000F024808B07F6D1830740F0208000BFF4
:1036D000103A07D330B4B1E83810103AA0E83810E7
:1036E000F9D230BC530724BFB1E80810A0E8081095
:1036F00044BF51F8043B40F8043BD20724BF31F8E3
:10370000022B20F8022B44BF0B7803707047121F66
:1037100017D35B0009D151F8043B20F8023B1B0C86
:10372000121F20F8023BF6D20BE051F8043B00F8E0
:10373000013B1B0A20F8023B1B0C121F00F8013B47
:10374000F3D238BF121D521E24BF11F8013B00F8FE
:10375000013BF8D8704700887047F8B504000D00A9
:103760001600002708E0380080B235F8101020005D
:1037700000F01CF9A41C7F1C3800310080B289B213
:103780008842F0D3F1BDF8B504000D001600002703
:1037900008E02000FFF7DFFF390089B225F81100AB
:1037A000A41C7F1C3800310080B289B28842F0D35B
:1037B000F1BD2DE9F843ADF5006D04000D001700D3
:1037C000B4F10060B0F5802F04D30DF5006D01B0A9
:1037D000BDE8F08300F088F814F178400600F60A9E
:1037E000C0F34908D8F580694846390080B289B2EB
:1037F000884203D3B94601E04FF480694FF48062F8
:1038000069464FF4006000FB06F010F10060FFF71E
:10381000BAFF002000E0401C01004A4689B292B283
:1038200091420AD26946020092B212FA88F231F845
:1038300012104FF6FF729142EDD0494680B289B224
:10384000884227D24FF4006000FB06F010F10060C0
:1038500000F05AF800200BE06946424692B212FA94
:1038600080F203009BB235F8133021F81230401C6F
:1038700001004A4689B292B29142EDD34FF4806280
:1038800069464FF4006000FB06F010F10060FFF79E
:1038900064FF05E04A4692B229002000FFF75DFF71
:1038A0003800494680B289B2884202D100F025F83A
:1038B0008BE7761C5FF00008484680B205EB4005B8
:1038C000484680B214EB4004B7EB0907380080B2D9
:1038D00040F2014188428FDAB9468FE710B50446BD
:1038E000FFF7E6FE204610BDDFF8F401DFF8F41123
:1038F0000160DFF8FC1101607047DFF8F801016832
:1039000051F080010160704738B504000420B4F123
:103910000061DFF8D421914201D2012100E00021B1
:10392000C9B2B4F1046F1ED35FF0FF3000F0C3F8EA
:103930000100C9B2042914D1DFF8B051286850F051
:1039400002002860DFF8B0010460286850F04000F1
:1039500028605FF0FF3000F0AEF8296831F0020116
:103960002960C0B221E0DFF894118C421CD25FF0D4
:10397000805000F08CF80100C9B2042914D1DFF89E
:103980007451286850F002002860DFF87401046068
:10399000286850F0400028605FF0805000F077F811
:1039A000296831F002012960C0B232BD70B504004F
:1039B0000D000420B4F10061DFF82C21914201D206
:1039C000012100E00021C9B2B4F1046F18D34FF413
:1039D000704000F070F80100C9B204290ED1DFF880
:1039E0000C61306850F00100306025804FF4704069
:1039F00000F061F83168490849003160C0B21BE04D
:103A0000DFF8F8108C4216D24FF4704000F03FF807
:103A10000100C9B204290ED1DFF8D860306850F037
:103A20000100306025804FF4704000F030F83168BC
:103A3000490849003160C0B270BD0420DFF8C800F9
:103A40000168C90701D501200AE00168490701D5CD
:103A5000022005E00068C00601D5032000E0042034
:103A6000C0B270470420DFF89C000168C90701D587
:103A700001200AE00168490701D5022005E000683D
:103A8000C00601D5032000E00420C0B2704710B585
:103A900004000420FFF7D1FF02E0FFF7CEFF641E11
:103AA0000100C9B2012901D1002CF6D1002C00D1AE
:103AB0000520C0B210BD10B504000420FFF7D2FFEE
:103AC00002E0FFF7CFFF641E0100C9B2012901D156
:103AD000002CF6D1002C00D10520C0B210BD000092
:103AE00004200240230167450000FF179020024098
:103AF000AB89EFCD1020024094200240000008085E
:103B0000142002408C2002400C20024080B520206E
:103B100080F31188FDF733F901BD80B5FDF734F965
:103B2000002080F3118801BD80B5202080F311882A
:103B3000FDF72FF901BD80B5FDF730F9002080F3C6
:103B4000118801BD0060704780B5FFF7DFFF01BD40
:103B500080B5FFF7E2FF01BD80B50200D068002804
:103B600004D00800C0B2D16888471AE05068806865
:103B7000002803D05068C068002800D111E0C9B205
:103B8000002907D001215068C068814050688068D2
:103B9000416106E001215068C0688140506880683A
:103BA000016101BD00E000BF401E0028FBD170474D
:103BB00010B504006068006800F013FB606841689D
:103BC0006068006800F0C9FA10BD10B504006068B4
:103BD000006800F0D0FA6068006800F007FB10BDD4
:103BE0007CB5040015001E0051F040018DF8001056
:103BF00001212000FFF7B0FF6A46012160680068DC
:103C000000F0C7FA2A00B6B231006068006800F020
:103C1000D4FA00212000FFF79FFF002076BD7CB57D
:103C2000040015001E0051F040018DF800106A4696
:103C300001216068006800F0ACFA2A00B6B23100D9
:103C40006068006800F0B9FA002076BD73B5050021
:103C500014001E0001212800FFF77EFF01AA0121A8
:103C60006868006800F095FA002C06D02200B6B211
:103C700031006868006800F08CFA00212800FFF726
:103C80006BFF002076BD73B5050014001E000121F6
:103C90002800FFF761FF01AA01216868006800F0B1
:103CA00078FA002C06D02200B6B2310068680068AD
:103CB00000F06FFA002076BD80B50A00002802D11E
:103CC0007FF0010005E0002101230021FFF788FFBC
:103CD00040B202BD7CB504000D00002C02D15FF0A3
:103CE000FF3024E0093550788DF800006E461078DA
:103CF000707002236A462900C9B22000FFF7A6FFB0
:103D000002230DF102022900C9B22000FFF768FF6B
:103D10009DF802009DF80010884204D19DF8030030
:103D20007178884202D05FF0FF3000E0002076BD5D
:103D30007CB504000D001600002C02D15FF0FF30AE
:103D400036E0093502236A462900C9B22000FFF790
:103D500047FFF6B2012E06D19DF8000050F080001A
:103D60008DF8000005E09DF8000010F07F008DF850
:103D7000000002236A462900C9B22000FFF766FF4F
:103D800002230DF102022900C9B22000FFF728FF2B
:103D90009DF802009DF80010884205D19DF80300AF
:103DA0009DF80110884202D05FF0FF3000E0002053
:103DB00076BD7CB504000D00002C02D15FF0FF3011
:103DC00027E0507810F00F008DF800006E46107854
:103DD000707002236A4615F11901C9B22000FFF77D
:103DE00035FF02230DF1020219352900C9B2200066
:103DF000FFF7F6FE9DF802009DF80010884204D1FE
:103E00009DF803007178884202D05FF0FF3000E037
:103E1000002076BD3EB504000D00002C02D15FF0FD
:103E2000FF3018E090788DF80000684651784170B6
:103E30001178817003236A4615F12101C9B220006F
:103E4000FFF704FF032301AA21352900C9B220008E
:103E5000FFF7C6FE00203EBD3EB500216946DFF8F3
:103E6000602192E8380081E8380009236A46002181
:103E7000FFF7ECFE40B23EBD10B50400FFF754FE64
:103E80006420FFF78FFEDFF83C010068C0F380106C
:103E9000002807D1200000F09BF8022114F12C002B
:103EA00000F0CCF9FFF747FE10BD38B50400002044
:103EB0002078002802D05FF0FF3035E02000FFF7C7
:103EC00077FE2000FFF7C8FF69462000FFF7F4FEE9
:103ED00069462000FFF7F0FE69462000FFF7ECFE80
:103EE0006069002802D00A20616988470123621CAA
:103EF00005212000FFF774FE0500607812280BD022
:103F00006078142808D06078042805D060781628D6
:103F100002D05FF0FF3007E00220207014F12C0087
:103F2000FFF710FE280040B232BD38B5040000256E
:103F3000684625490A68026003236A460721200073
:103F4000FFF74EFE03236A4607212000FFF77EFE9F
:103F5000280040B232BD10B5040000212000FFF758
:103F6000FBFD022020702000FFF72FFE002010BD77
:103F700010B50400FFF7E8FD2200144960680069ED
:103F800063685B69184300F0BFF9FFF7E1FDFFF7D5
:103F9000DBFD02226068016960684069014311F03D
:103FA0000F016068006963685B69184300090001DC
:103FB00000F0F5F9FFF7CCFD012010BD0000000076
:103FC000586B000808080140B46B0008793E0008EF
:103FD00080B54168096942685269114311F00F01C7
:103FE00042681269406840690243120912011000D8
:103FF00000F00EFA012002BD1CB5040084F8331055
:104000000320207084F8302084F83130002084F8B8
:1040100032000020A06294F8240010F0C30084F85D
:10402000240094F8240010F03F0050F0400084F881
:10403000240094F8250050F0040084F8250094F83A
:10404000250050F0010084F8250094F825008DF833
:10405000000094F824008DF8010084F83310022346
:104060006A4601212000FFF70EFE2000FFF780FFC7
:10407000002016BD30B400230BE01400E4B2044469
:104080001D00EDB26D422C4414F8014C0C70491C1B
:104090005B1C1C001500E4B2EDB2AC42EDD330BCA9
:1040A0007047FEB506000C0017000025042301AA86
:1040B00002213000FFF7B3FD0198706304226946C6
:1040C00001A8FFF7D7FF00983870009810F1004062
:1040D0000090009800122060706B002803D1162019
:1040E000009000202060280040B2FEBD80B5202056
:1040F00080F31188FCF743FE01BD80B5FCF744FE58
:10410000002080F3118801BD80B5FFF7EFFF01BDEE
:1041100080B5FFF7F2FF01BD80B55FF0FF31FDF71D
:1041200079F802BD80B5FDF7A1FF01BD80B5FDF7AF
:10413000A5FF01BD80B5FDF7E5FF01BD80B500F02D
:1041400056FA01BD80B501210170002141600021B6
:1041500081600C30FFF7E6FF01BD38B504000D00AB
:10416000FFF7D2FF6560200000F053FA02202070B4
:10417000FFF7CEFF31BD10B50400FFF7C5FF2000EB
:1041800000F0B2FA0020606001202070FFF7C0FF4D
:1041900010BD70B504000D001600FFF7B5FF032039
:1041A000207032002900200000F0C3FA14F108004A
:1041B000FFF7B2FFFFF7ACFF70BD70B504000D0054
:1041C0001600FFF7A1FF0320207032002900200015
:1041D00000F0D9FA14F10800FFF79EFFFFF798FFEF
:1041E00070BD80B50C30FFF7A1FF01BD80B50C306C
:1041F000FFF7A0FF01BD010080B5202080F31188EA
:10420000FCF7BDFD01BD80B5FCF7BEFD002080F3CD
:10421000118801BDF8B504000D0016001F00FFF75E
:10422000EBFF206828602560364880696860AE60D2
:104230000020E8602F61FFF7E6FFF1BD70B50500D3
:104240000C002E680CE0F0682043F060002C02D0D7
:104250003069044203D0B168706800F012F8366823
:10426000AE42F0D170BD38B504000D00FFF7C4FFB9
:104270002900200000F005F8FDF764FDFFF7C3FFFB
:1042800031BD80B5426B1143416390F820100A297B
:1042900003D1416B426A114209D190F820100B29D9
:1042A00009D1426B416A0A40416A8A4203D1002126
:1042B0004162FDF798FC01BDF8B506000D001148FC
:1042C0008769FFF799FF7C6B3440002C13D1002DD8
:1042D00003D1FFF798FF002013E07E6229000A2037
:1042E000FDF7E8FC002803D5FFF78DFF002008E06C
:1042F000786B06403400786BA0437863FFF783FF48
:104300002000F2BD18080020034B10F00F0003EB53
:10431000C000016042607047A8370020002108E01B
:10432000564A002342F83130002302EBC1025360A9
:10433000491C1029F4D352490A6852F0BD020A60A0
:10434000096801684F4A116081684F4A11604168ED
:104350004E4A1160C1684E4A116041694D4A116070
:1043600001694D4A116081694C4A1160016A4C4AE9
:104370001160C1694B4A1160416A4B4A1160C16AC0
:104380004A4A1160816A4A4A1160016B494A1160C8
:10439000816B494A1160406B484908607047F0B42E
:1043A00001238B400C00A40811F003018D000F269F
:1043B000AE40F64342490818800A10F00F00414908
:1043C00051F824703E40A840304341F82400D00703
:1043D00004D53D4801681943016003E03A4801688B
:1043E00099430160900704D538480168194301607A
:1043F00003E0364801689943016035480168194374
:1044000001603448016831EA03030360F0BC70477F
:10441000F0B52D4B1C682D4D2E6801278F4056EAB4
:1044200004023A4228D08C465FEA9C0C11F0030249
:104430005FEA820E224A1018800A10F00F0021480D
:1044400050F82C0030FA0EF010F00F0020480268EF
:10445000BA4302601F480268BA430260BC431C6052
:10446000BE432E601C4807600448002240F83120FB
:10447000002200EBC1004260F0BD0000A837002020
:10448000181002400C0801400408014000080140D7
:104490000C0C0140040C0140000C01400C100140C8
:1044A00004100140001001400C14014004140140AC
:1044B000001401400C1C0140041C0140001C014080
:1044C00000F8FEBF08000140080401400C04014050
:1044D00000040140040401401404014080B5202080
:1044E00080F31188FCF755FC01BD80B5FCF756FC44
:1044F000002080F3118801BD80B5FCF709FD01BDE6
:1045000080B5FFF7EBFF01BD80B5FFF7EEFF01BD02
:1045100080B5FCF790FE01BD38B504000D002807FA
:1045200002D5AD48FFF7E8FF6068007800281BD08F
:10453000680707D560684068002803D020006168DC
:1045400049688847A8074AD560684068002846D06F
:10455000042020702000616849688847207804287A
:104560003DD1032020703AE0606A4068006800098D
:104570000001616A496808600E21606A90F90D00C7
:1045800011FA00F0626A12685060206A40680068A0
:1045900000090001226A52681060206A90F90D003B
:1045A0008140206A006841606068406800280BD044
:1045B000042020702000616849688847207804281A
:1045C00004D10220207001E002202070FFF798FF44
:1045D000002114F10800FFF79BFFFFF795FF31BDA5
:1045E00080B5080702D57C48FFF786FF01BD10B5EE
:1045F0007A4C2000FFF7A6FD7948E0610020206298
:104600000020606241F20A00A06241F21800E062FC
:1046100010BD10B504002078012820D16F48A042B9
:1046200013D123006F4A0A210120FDF715F82062FB
:1046300023006D4A0A210220FDF70EF860626B48E4
:10464000016851F4805101600068E0690C30216A12
:1046500049688860E0690C30616A49688860606810
:10466000008A000508D4A06A30F47060A062E06A95
:1046700030F47060E06209E00520A16A60F30B216C
:10468000A1620520E16A60F30B21E16260680078B5
:10469000002808D0A06A50F02400A062E06A50F020
:1046A0002400E06207E0A06A30F02400A062E06A23
:1046B00030F02400E062E069006830F04000E16919
:1046C00008606068008A50F44170E16908606068C1
:1046D000408A50F00300E1694860E069006850F0EA
:1046E0004000E169086010BD10B504002078022880
:1046F0001ED1E069006830F04000E16908600020E8
:10470000E16908600020E1694860206AFCF7F1FF78
:10471000606AFCF7EEFF00202062002060622F48F4
:10472000A04205D13148016831F480510160006830
:1047300010BD10B42E4B046A6468E360036A5B68C2
:104740005960836A046A64682360436A5B68DA605C
:10475000426A52685160C16A51F08001426A5268EF
:104760001160016A4968096851F00101026A5268E2
:104770001160416A4968096851F00101406A406866
:10478000016010BC7047036A5B68DA60026A5268B5
:104790005160826A52F08002036A5B681A60154AAF
:1047A000436A5B68DA60426A52685160C16A426A71
:1047B00052681160016A4968096851F00101026A92
:1047C00052681160416A4968096851F00101406A04
:1047D00040680160704700007C6B0008843900204D
:1047E0000030014019450008E1450008181002405A
:1047F000584400200E19000880B5202080F311884D
:10480000FCF7BDFA01BD80B5FCF7BEFA002080F3CD
:10481000118801BDDFF8B8048069704780B5FFF7E3
:10482000F9FF90F82100C0B2800810F0010002BD2D
:1048300080B55FF0FF33FFF7EDFC01BDFEB5002052
:10484000FEF746FDC0B2AC2800F090800020FEF7D5
:104850004BFE002427E02000C0B24000009960F326
:10486000040100912000C0B24000401C009960F398
:10487000491100910320009960F30E3100910098D6
:10488000C0F302309DF8010050F080008DF8010067
:10489000BDF800102000C0B200F58050083080B292
:1048A000FEF75CFD641C2000C0B21028D3DB00249E
:1048B00031E0DFF820042100C9B210F821102200F5
:1048C000D2B200EB8200407851EA002189B2200088
:1048D000C0B210F5805080B2FEF740FDDFF8F8035B
:1048E0002100C9B210F821102200D2B200EB8202DE
:1048F000527851EA02212200D2B200EB8200807885
:1049000051EA00412000C0B200F50050401D80B2C5
:10491000FEF734FD641C2000C0B20828C9DB002467
:1049200009E09FED660A2000C0B210F5C04080B2D9
:10493000FEF734FD641C2000C0B20828F1DBFF2123
:104940003520FEF7FCFC0120FEF7CEFDAC21002057
:10495000FEF7F5FC0020FEF7A1FB0120FEF79EFB11
:104960000220FEF79BFB0620FEF798FB002540E0A7
:104970002800C0B210F5805080B2FEF7BBFCD54CC9
:104980002900C9B204F8210080B2000A2900C9B286
:1049900004EB810148702800C0B200F50050401DB2
:1049A00080B2FEF7BAFCCC4E2900C9B206F821004D
:1049B0000100090A2A00D2B206EB82025170000CF3
:1049C0002900C9B206EB81018870C44F2800C0B22B
:1049D00004EB80022900C9B23800FFF7EAF9280089
:1049E000C0B206EB80022900C9B23800FFF712FA04
:1049F0006D1C2800C0B20828BADB3520FEF768FC21
:104A00000400E4B2E4438DF8044014F03F008DF854
:104A10000500022201A9B24800F005FAE4B2E4431D
:104A200000252DE02800C0B200F58050083080B28B
:104A3000FEF760FCADF80000012616FA05F0C0B2E2
:104A4000204205D09DF8010050F080008DF8010053
:104A50006A462900C9B2A148FFF73CF90098000B4B
:104A600010F007009B49C0B211F8200010F00700B9
:104A700086409C482900C9B2084480F87C606D1CBF
:104A80002800C0B20828CDDB42F20300FEF745FC47
:104A90009449C1F884003720FEF71AFC0100080091
:104AA000C0B2002802D0C9B2FF2906D104213720A4
:104AB000FEF745FC0020FEF7F1FAF7BD000000000C
:104AC0002DE9F04F87B0864C21228749200000F065
:104AD0008AF9002801D101206071DFF80082404688
:104AE000FFF7E3F9002803D000207E49087607E0AD
:104AF00001207C490876FFF7A1FE4046FFF715FA32
:104B00005FF0000900200026402202A918F12C00C5
:104B1000FFF78EFE734D01230422297B4046FFF7E9
:104B20006BFA002115F10800FCF79CFB002413E050
:104B30000C27200040B210FB07F005EB000A3720DD
:104B4000FEF7C6FB8AF81C00200040B210FB07F0FD
:104B5000284401214177641C200040B20828E7DB8B
:104B60004846C0B2002840F095800A215FF0FF302F
:104B7000FFF7A2FB0400002C0DD1761C3000C0B260
:104B80000B28C0F27F80002601230422297B4046A7
:104B9000FFF732FA76E0002660065CD56A4601A986
:104BA0004046FFF77EFA9DF8007017F00F0795F862
:104BB0008400C00709D43800C0B210F5A04080B20C
:104BC000FEF775FB0199081A01905FF00C0A019934
:104BD0003800C0B20AFB00F028441C3000F05CF939
:104BE0003800C0B20AFB00F02844416A3800C0B265
:104BF00010F5A04080B2FEF757FC3800C0B20AFBA7
:104C000000FA05EB0A00406A00F05CF90022374B1D
:104C100000F06AF982468B463800C0B2284490F80A
:104C20007C0000F085FA02000B005046594600F067
:104C30005BF900222E4B00F089FA00F059FB00EEE0
:104C4000100AFFB217F5C047380080B2FEF73BFCF0
:104C50004046FFF78DF9A00707D5002028730123F0
:104C60000422297B4046FFF7C7F960070AD5404672
:104C7000FFF771F94046FFF7ABF90022297B404668
:104C8000FFF756F8FFF7CAFD00283FF469AF5FF061
:104C9000010965E707B0BDE8F08F1CB5114C154858
:104CA0000460154800F08EFB606000200090134BFC
:104CB00080224FF417611248FCF7E3F92060FFF7F8
:104CC0009BFD14F10800FCF798FAFFF79CFD13BD5B
:104CD00018080020000400202404002050040020B4
:104CE000B4420020BC420020440400200000604187
:104CF00080842E4144430020A46B0008C14A000870
:104D0000680A00207CB504000D0016000020206811
:104D10000068FCF717FC2068416820680068FCF711
:104D2000A2FB64200090B6B233002A00217989B238
:104D300020680068FCF7E1FB050020680068FCF7CC
:104D4000A0FB20680068FCF702FC280076BD7FB558
:104D500004000D001600002020680068FCF7F2FB3C
:104D60002068416820680068FCF77DFBC82002903D
:104D70000020019000200090B6B233002A00217973
:104D800089B220680068FCF78AFB0500206800688B
:104D9000FCF777FB20680068FCF7D9FB280004B01B
:104DA00070BD80B506218DF800100168097A8DF874
:104DB00001100168497A8DF8021003226946FFF755
:104DC000C6FF02BD80B502218DF800100168897A06
:104DD0008DF801100168C97A8DF802100322694626
:104DE000FFF7B5FF02BD10B50400002C02D17FF023
:104DF000010017E0002902D17FF0010012E02160DC
:104E000022712000FFF7CDFF002802D07FF00100C3
:104E100008E02000FFF7D6FF002802D07FF0010055
:104E200000E0002010BD7CB504000D00160002203B
:104E30008DF804009DF804008DF80000032201A9FC
:104E40002000FFF75FFF3000C0B2002807D12878AC
:104E50008DF800009DF805008DF8010014E0300089
:104E6000C0B2012807D19DF804008DF80000287811
:104E70008DF8010008E0F6B2022E05D102222900C9
:104E80000DF10100FEF72AFD032269462000FFF71D
:104E90005EFF002076BDFEE74278012A07D1027846
:104EA00002FB01F2426081600021417009E08268EA
:104EB000891A4268891841604168027891FBF2F1D1
:104EC00081607047C11768B14840401AB0FA80F25B
:104ED0009040D21CC907C2F5846241EA025202EB3B
:104EE000D021400570470000F0B540F2FF7581EA1F
:104EF000030C0CF0004C15EA11541DBF15EA1357B2
:104F0000AC42AF42E5E0BC41C1F31301C3F313036C
:104F1000801A994143F4801304D2641E4000494131
:104F200080185941C90241EA5051B1FBF3F603FB25
:104F30001611A2FB0675D7EBC020A94102D2761E3E
:104F400080185941C90241EA5051B1FBF3FE03FBFD
:104F50001E11A2FB0E75D7EBC020A94103D2AEF102
:104F6000010E80185941890241EA9051760546EABE
:104F70008E2EB1FBF3F603FB1611A2FB0675D7EBE1
:104F80008020A94102D2761E80185941C90241EA07
:104F900050514EEA060EB1FBF3F603FB1611A2FBCD
:104FA0000675D7EBC020A94102D2761E8018594160
:104FB000C90241EA5051B1FBF3F703FB1711A2FB01
:104FC0000735D3EBC020A94167F100070CBF0042B1
:104FD00047F0010766F3D5274FEA1E31B80814F5EC
:104FE000806412DDBD0775F1004250EB0E5051EBAD
:104FF000045111F5801F5CBF41EA0C01F0BD4CF07B
:105000007F6141F0E0410020F0BDBD076D0840EA3E
:105010000E5041F48011D4F10104B4F120060ADAF3
:10502000C4F120060200E04001FA06F3E140184313
:10503000B24015430EE0342C13DCC6F1200445EADF
:1050400040056D0820FA06F2154321FA06F0A1404A
:105050000D43002175F1004250F1000051EB0C01AD
:10506000F0BD00205FEA0C01F0BDCFB992185B41A2
:10507000B3FA83F704BFB2FA82F6BF190B3FB7F158
:1050800020062FBF02FA06F3BB40C7F1200622FA22
:1050900006F638BF3343BA401CB1E419641E33E747
:1050A0007F4231F00041B1FA81F404BFB0FA80F6DA
:1050B000A4190B3CB4F120062FBF00FA06F1A14061
:1050C000C4F1200620FA06F638BF3143A0403C1B4D
:1050D0001AE7AC421ABF05EA1357AF4212E050EA92
:1050E00041061CBF52EA4306BFE750EA410730467B
:1050F00061461CBF41EA0551F0BD52EA430C08BFAE
:10510000C143F0BD00204FF4001616EB410F98BFCD
:1051100016EB430F08BF16EB410F24BFC14305E058
:1051200016EB430F0CBF61464CEA0551F0BD000081
:10513000014648B1B0FA80F18840C91CC1F58461CC
:10514000090501EBD021400570470000B0B581EAA8
:10515000030C0CF0004C40F2FF7515EA11541DBF12
:1051600015EA1357AC42AF4239E0E41923EA45533C
:1051700043F48013C90241F0004141EA505EC70286
:105180001100A7FB020200284FF00000EEFB0120F7
:105190004FF00001E3FB072118BF42F00102401865
:1051A00000214941E3FB0E01A4F580640F0302D204
:1051B00052004041494154F101046CDD470872F14D
:1051C000004250F1000051EB0451A1F580115CBF89
:1051D00041EA0C01B0BD4CEA05510020B0BD05EA22
:1051E0001357AC4214BFAF4241E050EA410E1CBF1E
:1051F00052EA430E02E061460020B0BD24423C4426
:105200001BD15FEA070EF6D0090302BF014600205A
:10521000AEF1140EB1FA81F7AEEB070401FA07FE06
:105220000C37C7F1200100FA07F7C8404EEA000E1C
:1052300023EA455343F48013A2E733F00043B3FA63
:1052400083F704BFB2FA82FE77440B3FE41BB7F149
:10525000200E2FBF02FA0EF3BB40C7F1200E22FA38
:105260000EFE38BF43EA0E03BA40641C82E750EAE0
:10527000410E14BF52EA430E6FF000014FF40017C5
:1052800017EB430F8ABF194617EB410FB5E74CEAFE
:1052900005510020B0BDD4F10104B4F120070FDAAC
:1052A000C4F12007520828BF42F0010210FA07F5A6
:1052B00001FA07F7E1BF2A43E0403843E1400FE03D
:1052C000352C98DCC7F1200452EA400220FA07F29C
:1052D00018BF42F0010231FA07F0A1400A43002151
:1052E00072F1004250F1000051EB0C01B0BD000022
:1052F00001F000428B1AA3F16051B1F5801F0ADB67
:10530000B1F17F6F1FD242EAC102C10071F10041C9
:1053100042EB507070470B15C3F10903212B10D2DB
:10532000890241EA905180020128494141F000413F
:1053300021FA03F0C3F12003994071F1004150417B
:105340007047100070476FF0000013EB103F5CBF18
:10535000000E42EAC050704780B5202080F31188CB
:10536000FBF70DFD01BD80B5FBF70EFD002080F3BE
:10537000118801BD8069704710B5FFF7EDFF104837
:10538000046994F82200401C84F82200FFF7EBFF28
:10539000200010BD38B50400FFF7DEFF256908487E
:1053A000854201D1002504E095F82200401C85F8D3
:1053B0002200FFF7D8FF2000FBF78EFE280032BD49
:1053C0001808002038B50500FFF7D6FF04002000BC
:1053D000FFF7D0FF290000F00DF8002807D02000CB
:1053E000FFF7D8FF0400002CF1D1002032BD2000CF
:1053F000FCE7000010F8012B11F8013B0AB19A42BA
:10540000F8D0D01A704700604060704780B5202007
:1054100080F31188FBF7B3FC01BD80B5FBF7B4FC4A
:10542000002080F3118801BD80B5FFF7ECFF01BDBE
:1054300080B5FFF7EBFF01BD80B5FFF7EEFF01BDC3
:1054400080B5FFF7F1FF01BD80B5FBF717FF02BD87
:1054500080B5FBF72BFF01BD2DE9F04104000E00E4
:105460001500A068A84200D2A5682069A769C71BDB
:10547000BD4208D22A00A1693000FEF719F9A069DF
:105480002844A06119E0AF4210D23A00A169B046A9
:105490004046FEF70DF93E44EF1B3A00E16830004C
:1054A000FEF706F9E0683844A06106E02A00A16929
:1054B0003000FEF7FDF8E068A061A068401BA06026
:1054C0002800BDE8F0812DE9F04104000E00150030
:1054D000A068A84200D2A56820696769C71BBD42C1
:1054E00009D22A00676931003800FEF7E1F86069E7
:1054F000284460611CE0AF4212D23A003100D4F877
:1055000014804046FEF7D4F806EB0701EF1B3A0083
:10551000E6683000FEF7CCF8E0683844606107E0E8
:105520002A00676931003800FEF7C2F8E068606160
:10553000A068401BA0602800BDE8F0812DE9F04183
:1055400004000D0016001F00DDF818802000FFF792
:1055500077FF0020A060E560A561656105EB0600AE
:105560002061E761C4F82080BDE8F08180B5426920
:1055700083699A4204D18268002A01D0012200E0A6
:105580000022D2B2002A11D18268521C8260426984
:10559000531C4361117041690269914201D3C16892
:1055A00041610021FFF754FF002001E05FF0FF3070
:1055B00002BD70B504000D00FFF73AFFA068002897
:1055C0000AD129002000FFF73FFF0600002EF5D585
:1055D000FFF732FF300016E0A068401EA060A0690F
:1055E000411CA1610578A0692169884201D3E06866
:1055F000A061E069002802D02000E1698847FFF738
:105600001BFFEDB2280070BD2DE9F04706000F002A
:1056100014009846D6F81CA0A146FFF709FF0AE03F
:105620005046002801D03000D047FFF705FF641B2B
:105630002F44FFF7FDFE002C0DD022003900300072
:10564000FFF70AFF0500002DEAD141463000FFF7C1
:10565000FBFE0028EFD0FFF7EFFEB9EB04042000BB
:10566000BDE8F0872DE9F04104000D0016001F0091
:10567000DDF818802000FFF7E3FEA660E560A56175
:10568000656105EB06002061E761C4F82080BDE894
:10569000F081F8B504000D001600FFF7C9FEA06800
:1056A00000280AD131002000FFF7CEFE0700002FAE
:1056B000F5D5FFF7C1FE380015E0A068401EA060D8
:1056C0006069411C6161057060692169884201D38C
:1056D000E0686061E069002802D02000E169884745
:1056E000FFF7AAFE0020F2BD10B541698269914220
:1056F00004D18168002901D0012100E00021C9B254
:10570000002912D18168491C816081694A1C82612B
:105710000C7881690269914201D3C16881610021DD
:10572000FFF796FEE4B2200001E05FF0FF3010BD0D
:105730002DE9F04706000F0014009846D6F81CA08B
:10574000A146FFF775FE0AE05046002801D0300060
:10575000D047FFF771FE641B2F44FFF769FE002C52
:105760000DD0220039003000FFF7ADFE0500002DFE
:10577000EAD141463000FFF767FE0028EFD0FFF77F
:105780005BFEB9EB04042000BDE8F08780B5012082
:10579000FDF79EFDC0B2AA280ED001210420FDF71E
:1057A000CEFD04213620FDF7CAFDAA210120FDF718
:1057B000C6FD0020FDF772FC01BD7CB5FFF7E6FFDA
:1057C0000420FDF785FDBC4C2071BC4DAC60BC4E87
:1057D0003620FDF77DFDF0700420F070F078002891
:1057E00006D002280ED008D3042815D00FD318E015
:1057F0004FF41650B349086017E04FF49640B14992
:10580000086012E04FF41640AE4908600DE04FF416
:105810006140AC49086008E05FF4E130A9490860E4
:1058200003E04FF41650A7490860A7484FF4805191
:1058300001604FF400610160A249A44800F0CCF976
:105840000094A34B812241F27011A248FBF719FC8E
:105850002860A148FFF7B6FD686073BD70472DE969
:10586000F84FA0B004000D00280068461600A87884
:105870006F7857EA002795F8008018F07F0828789D
:1058800010F08000C0B2002828D10020B6F1020933
:1058900015F1030A0020FDF727FE5FF0000B01E081
:1058A0001BF1010B58464146C0B2C9B2884210D222
:1058B00053463A0092B2FF210020FDF768FCB9EB95
:1058C000000947FA80F740B282444846C0B2002837
:1058D000E6D10120FDF708FEFDF7D4FC6846022161
:1058E0000170401C10210170401C7349097901703E
:1058F000401C401C29780170401C69780170401CD4
:10590000A9780170471CB01E0020A8786D7855EA70
:10591000002500260BE03B002A0092B2FF21002068
:10592000FDF7D1FB45FA80F540B20744761C300004
:105930004146C0B2C9B28842EDD30DF10300381A16
:10594000401E8DF803007D1C6846281A811EC9B2CE
:105950000DF1010000F083F9387003202870042055
:10596000FBF741FC68462D1A6D1C2A006946200091
:1059700023685B68984721B0BDE8F08F2DE9F041BE
:1059800088B00400080068468B784D7855EA0325F6
:105990000E7816F07F060B7813F080030223037055
:1059A000401C20230370401C434B1B790370401C98
:1059B000401C0B780370401C4B780370401C8978A6
:1059C0000170471C901E00205FF000080CE03B00B7
:1059D0002A0092B2FF210020FDF7F0FC45FA80F585
:1059E00040B2074418F1010840463100C0B2C9B2C4
:1059F0008842ECD30DF10300381A401E8DF80300E5
:105A00007D1C6846281A811EC9B20DF1010000F004
:105A100026F93870032028700420FBF7E4FB684661
:105A20002D1A6D1C2A006946200023685B68984780
:105A300008B0BDE8F08180B508004878097851EADF
:105A400000211E4A5068002805D0012010FA01F1FB
:105A50005068FEF708FC01BD38B5A0B00C006946DF
:105A600002220A70491C40220A70491C124A12790B
:105A70000A70491C0C704D1C2200D2B20100280093
:105A8000FDF72CFFE4B22C44651C6846281A811EE1
:105A9000C9B20DF1010000F0E2F820700320287077
:105AA0000A4869466D1A6D1C2A00694603685B68DE
:105AB000984721B030BD00009404002048430020E6
:105AC000544300208804002010080140283800209A
:105AD000815D0008D8130020AC6B000880B5202041
:105AE00080F31188FBF74BF901BD80B5FBF74CF94A
:105AF000002080F3118801BD0060704780B5FFF77A
:105B0000EDFF01BD80B5FFF7F0FF01BD80B5FFF7E8
:105B1000F3FF01BD80B5FEF791FB01BD80B55FF0DD
:105B2000FF333030FFF704FE02BD80B55FF0FF3376
:105B30000C30FFF769FD02BD80B55FF0FF32C9B2DE
:105B40003030FFF7A6FD02BD80B55FF0FF310C30AD
:105B5000FFF72FFD02BD80B5C9B23030FFF799FDC8
:105B600002BD80B50C30FFF724FD02BD80B530309A
:105B7000FFF7DEFD02BD80B50C30FFF745FD02BD2D
:105B8000002902D0012901D100E0FFE70020704781
:105B900080B500F00BFA01BD7CB504000D001600C5
:105BA0000C482060201DFFF7B1FF012020720094F7
:105BB0002B00802214F1540114F10C00FFF7BEFCFD
:105BC00000943300802214F1D40114F13000FFF767
:105BD00049FD73BD586A000838B504000D00FFF791
:105BE0008DFF2900200000F0ECF902202072FFF761
:105BF00089FF31BD38B504000D006069002803D16C
:105C00000421201DFFF786FF2900C9B214F10C0002
:105C1000FFF7ACFC002804D54FF48061201DFFF78E
:105C200079FF31BD80B5202080F31188FBF7A7F8FC
:105C300001BD6A488069704780B5FFF7FAFF90F8A8
:105C40002100C0B2800810F0010002BD80B5002123
:105C5000FEF7F4FA01BD80B5FBF7C5FA01BD30B41B
:105C600002000020002404E02300DBB2D35C1818FB
:105C7000641C23000D00DBB2EDB2AB42F4D3C0B222
:105C800030BC70472DE9F04104000D001600984625
:105C90000027B8F10301C9B2701CFFF7E0FF5FFAFB
:105CA00088F806EB080111F8021CC0B2C9B288429C
:105CB00001D000201EE0069900E00834606800284A
:105CC00016D0707810F07F002278C0B28242F4D1F2
:105CD0000800C0B2FF2804D00800B278C0B29042D9
:105CE000EBD1F278311D280063689847012001E06C
